{"hash": "000000002c05cc2e78923c34df87fd108b22221ac6076c18f3ade378a4d915e9", "ver": 1, "prev_block": "000000008d9dc510f23c2657fc4f67bea30078cc05a90eb89e84cc475c080805", "mrkl_root": "d3ad39fa52a89997ac7381c95eeffeaf40b66af7a57e9eba144be0a175a12b11", "time": 1231473952, "bits": 486604799, "next_block": ["0000000097be56d606cdd9c54b04d4747e957d3608abe69198c661f2add73073"], "fee": 0, "nonce": 1709518110, "n_tx": 1, "size": 215, "block_index": 10, "main_chain": true, "height": 10, "weight": 860, "tx": [{"hash": "d3ad39fa52a89997ac7381c95eeffeaf40b66af7a57e9eba144be0a175a12b11", "ver": 1, "vin_sz": 1, "vout_sz": 1, "size": 134, "weight": 536, "fee": 0, "relayed_by": "0.0.0.0", "lock_time": 0, "tx_index": 604130883419145, "double_spend": false, "time": 1231473952, "block_index": 10, "block_height": 10, "inputs": [{"sequence": 4294967295, "witness": "", "script": "04ffff001d0136", "index": 0, "prev_out": null}], "out": [{"type": 0, "spent": false, "value": 5000000000, "spending_outpoints": [], "n": 0, "tx_index": 604130883419145, "script": "4104fcc2888ca91cf0103d8c5797c256bf976e81f280205d002d85b9b622ed1a6f820866c7b5fe12285cfa78c035355d752fc94a398b67597dc4fbb5b386816425ddac", "addr": "15yN7NPEpu82sHhB6TzCW5z5aXoamiKeGy"}], "hex": "01000000010000000000000000000000000000000000000000000000000000000000000000ffffffff0704ffff001d0136ffffffff0100f2052a01000000434104fcc2888ca91cf0103d8c5797c256bf976e81f280205d002d85b9b622ed1a6f820866c7b5fe12285cfa78c035355d752fc94a398b67597dc4fbb5b386816425ddac00000000"}]}