{"hash": "00000000b69bd8e4dc60580117617a466d5c76ada85fb7b87e9baea01f9d9984", "ver": 1, "prev_block": "000000007bc154e0fa7ea32218a72fe2c1bb9f86cf8c9ebf9a715ed27fdb229a", "mrkl_root": "cfe6b74cab677b52d850ac659d54266a3a4d7bb48270234d2fec836881d0a5f7", "time": 1231661741, "bits": 486604799, "next_block": ["000000001604181f13f19fd3cc89366ec95ce1dd64b776784ef8855210622f19"], "fee": 0, "nonce": 4136106517, "n_tx": 1, "size": 215, "block_index": 101, "main_chain": true, "height": 101, "weight": 860, "tx": [{"hash": "cfe6b74cab677b52d850ac659d54266a3a4d7bb48270234d2fec836881d0a5f7", "ver": 1, "vin_sz": 1, "vout_sz": 1, "size": 134, "weight": 536, "fee": 0, "relayed_by": "0.0.0.0", "lock_time": 0, "tx_index": 8713329273802877, "double_spend": false, "time": 1231661741, "block_index": 101, "block_height": 101, "inputs": [{"sequence": 4294967295, "witness": "", "script": "04ffff001d014e", "index": 0, "prev_out": null}], "out": [{"type": 0, "spent": false, "value": 5000000000, "spending_outpoints": [], "n": 0, "tx_index": 8713329273802877, "script": "4104181d31d7160779e75231f7647f91e53d633839eb9ce3fe096ec522719cc1b9da0237cb9941a059579bee26692a90344417069391a6aa1e4680caa4580a7ab9f3ac", "addr": "13CiNuEMKASJBvGdupqaoRs2MqDNhAqmce"}], "hex": "01000000010000000000000000000000000000000000000000000000000000000000000000ffffffff0704ffff001d014effffffff0100f2052a01000000434104181d31d7160779e75231f7647f91e53d633839eb9ce3fe096ec522719cc1b9da0237cb9941a059579bee26692a90344417069391a6aa1e4680caa4580a7ab9f3ac00000000"}]}