{"hash": "000000001604181f13f19fd3cc89366ec95ce1dd64b776784ef8855210622f19", "ver": 1, "prev_block": "00000000b69bd8e4dc60580117617a466d5c76ada85fb7b87e9baea01f9d9984", "mrkl_root": "3b44b5ce02d36db604f0d6b7cc761685484c370a235c54539700b1ad23afefce", "time": 1231662670, "bits": 486604799, "next_block": ["000000002109057cb846ff7d1d96bc77f9f65cb547938efe1961760a8bbb3f75"], "fee": 0, "nonce": 1906126361, "n_tx": 1, "size": 215, "block_index": 102, "main_chain": true, "height": 102, "weight": 860, "tx": [{"hash": "3b44b5ce02d36db604f0d6b7cc761685484c370a235c54539700b1ad23afefce", "ver": 1, "vin_sz": 1, "vout_sz": 1, "size": 134, "weight": 536, "fee": 0, "relayed_by": "0.0.0.0", "lock_time": 0, "tx_index": 7280922587412000, "double_spend": false, "time": 1231662670, "block_index": 102, "block_height": 102, "inputs": [{"sequence": 4294967295, "witness": "", "script": "04ffff001d0154", "index": 0, "prev_out": null}], "out": [{"type": 0, "spent": false, "value": 5000000000, "spending_outpoints": [], "n": 0, "tx_index": 7280922587412000, "script": "4104003e8f977a0f6e276bf8160b0a8eabaa7a45ca4f664f201fec4f8c95fba55cd9698ea8fafec47cf3f008e75ae02769ce550d25fe024a0fc08cdbae2a08651b1eac", "addr": "1HFtrEq1YGKxFKdq5nKyd7xm6NrAKcT7zf"}], "hex": "01000000010000000000000000000000000000000000000000000000000000000000000000ffffffff0704ffff001d0154ffffffff0100f2052a01000000434104003e8f977a0f6e276bf8160b0a8eabaa7a45ca4f664f201fec4f8c95fba55cd9698ea8fafec47cf3f008e75ae02769ce550d25fe024a0fc08cdbae2a08651b1eac00000000"}]}