{"hash": "000000002109057cb846ff7d1d96bc77f9f65cb547938efe1961760a8bbb3f75", "ver": 1, "prev_block": "000000001604181f13f19fd3cc89366ec95ce1dd64b776784ef8855210622f19", "mrkl_root": "88d2a4e04a96b45e3ba04637098a92fd0786daf3fc8ff88314f8e739a9918bf3", "time": 1231663467, "bits": 486604799, "next_block": ["00000000fb11ef25014e02b315285a22f80c8f97689d7e36d723317defaabe5b"], "fee": 0, "nonce": 1334001941, "n_tx": 1, "size": 215, "block_index": 103, "main_chain": true, "height": 103, "weight": 860, "tx": [{"hash": "88d2a4e04a96b45e3ba04637098a92fd0786daf3fc8ff88314f8e739a9918bf3", "ver": 1, "vin_sz": 1, "vout_sz": 1, "size": 134, "weight": 536, "fee": 0, "relayed_by": "0.0.0.0", "lock_time": 0, "tx_index": 8568984633294079, "double_spend": false, "time": 1231663467, "block_index": 103, "block_height": 103, "inputs": [{"sequence": 4294967295, "witness": "", "script": "04ffff001d0155", "index": 0, "prev_out": null}], "out": [{"type": 0, "spent": false, "value": 5000000000, "spending_outpoints": [], "n": 0, "tx_index": 8568984633294079, "script": "41044c77009fa2582cb0a28311edf08eb7e3e136e87ed1e6e9cd3a4f755094ca72a77580d9dd4804318201fbf74e34a11ff82eeceb7d4aa9da5b237ae27d08ec8741ac", "addr": "1B4HeenWZfzcyHSpHeZGQZtSVUi18wmd2B"}], "hex": "01000000010000000000000000000000000000000000000000000000000000000000000000ffffffff0704ffff001d0155ffffffff0100f2052a010000004341044c77009fa2582cb0a28311edf08eb7e3e136e87ed1e6e9cd3a4f755094ca72a77580d9dd4804318201fbf74e34a11ff82eeceb7d4aa9da5b237ae27d08ec8741ac00000000"}]}