{"hash": "00000000fb11ef25014e02b315285a22f80c8f97689d7e36d723317defaabe5b", "ver": 1, "prev_block": "000000002109057cb846ff7d1d96bc77f9f65cb547938efe1961760a8bbb3f75", "mrkl_root": "240074c357b073a794d4dddb19cfb656f2899a89cc2988ab78668efe46d6b74b", "time": 1231664009, "bits": 486604799, "next_block": ["00000000854d5c01c377e7ff131dbd4b3af44949c6f3126fb66eab4a3fc6b1ae"], "fee": 0, "nonce": 522348055, "n_tx": 1, "size": 215, "block_index": 104, "main_chain": true, "height": 104, "weight": 860, "tx": [{"hash": "240074c357b073a794d4dddb19cfb656f2899a89cc2988ab78668efe46d6b74b", "ver": 1, "vin_sz": 1, "vout_sz": 1, "size": 134, "weight": 536, "fee": 0, "relayed_by": "0.0.0.0", "lock_time": 0, "tx_index": 2664094274408908, "double_spend": false, "time": 1231664009, "block_index": 104, "block_height": 104, "inputs": [{"sequence": 4294967295, "witness": "", "script": "04ffff001d016f", "index": 0, "prev_out": null}], "out": [{"type": 0, "spent": false, "value": 5000000000, "spending_outpoints": [], "n": 0, "tx_index": 2664094274408908, "script": "4104cca405a78f6b83ca6e59c441df093c337a70d70015f428595be8b4670d5ba62093e33195b1cf9c220005fc90320c3309cbbc34c2e6da5558bd87b1f5f7c4400bac", "addr": "1MBvf6WPKwekXLRxsjjudqUXWJDYUy4qzB"}], "hex": "01000000010000000000000000000000000000000000000000000000000000000000000000ffffffff0704ffff001d016fffffffff0100f2052a01000000434104cca405a78f6b83ca6e59c441df093c337a70d70015f428595be8b4670d5ba62093e33195b1cf9c220005fc90320c3309cbbc34c2e6da5558bd87b1f5f7c4400bac00000000"}]}