{"hash": "00000000854d5c01c377e7ff131dbd4b3af44949c6f3126fb66eab4a3fc6b1ae", "ver": 1, "prev_block": "00000000fb11ef25014e02b315285a22f80c8f97689d7e36d723317defaabe5b", "mrkl_root": "5bc9bd461b455db119181c060085bd656430d9d431bbe4539eb0e367e9c77ac8", "time": 1231664567, "bits": 486604799, "next_block": ["00000000877c1915ebe7d24bee5b81ecafcf1bac5890283124a3d662a50a7714"], "fee": 0, "nonce": 280347178, "n_tx": 1, "size": 215, "block_index": 105, "main_chain": true, "height": 105, "weight": 860, "tx": [{"hash": "5bc9bd461b455db119181c060085bd656430d9d431bbe4539eb0e367e9c77ac8", "ver": 1, "vin_sz": 1, "vout_sz": 1, "size": 134, "weight": 536, "fee": 0, "relayed_by": "0.0.0.0", "lock_time": 0, "tx_index": 7053749296888950, "double_spend": false, "time": 1231664567, "block_index": 105, "block_height": 105, "inputs": [{"sequence": 4294967295, "witness": "", "script": "04ffff001d0179", "index": 0, "prev_out": null}], "out": [{"type": 0, "spent": false, "value": 5000000000, "spending_outpoints": [], "n": 0, "tx_index": 7053749296888950, "script": "4104953e5321dc6538f67ac273fe70cbfdec386bd389b0bf0c81a257f9351c7c0d9b6f8cb3e4b14fe322158935b04474e5afbded15f3ed5edd055d15368d708704feac", "addr": "1Bjrramo5EisLKeUXjw9GcUcfXcVnpi6vK"}], "hex": "01000000010000000000000000000000000000000000000000000000000000000000000000ffffffff0704ffff001d0179ffffffff0100f2052a01000000434104953e5321dc6538f67ac273fe70cbfdec386bd389b0bf0c81a257f9351c7c0d9b6f8cb3e4b14fe322158935b04474e5afbded15f3ed5edd055d15368d708704feac00000000"}]}