{"hash": "00000000877c1915ebe7d24bee5b81ecafcf1bac5890283124a3d662a50a7714", "ver": 1, "prev_block": "00000000854d5c01c377e7ff131dbd4b3af44949c6f3126fb66eab4a3fc6b1ae", "mrkl_root": "18883aec5f3e6cec38520df46530f0c6b1ab35973c386922e1c4580fbb9dee80", "time": 1231665565, "bits": 486604799, "next_block": ["000000007e16b0176d894bebf52f6ceb5dd8553831e579b50726779633a1f2eb"], "fee": 0, "nonce": 2687107072, "n_tx": 1, "size": 215, "block_index": 106, "main_chain": true, "height": 106, "weight": 860, "tx": [{"hash": "18883aec5f3e6cec38520df46530f0c6b1ab35973c386922e1c4580fbb9dee80", "ver": 1, "vin_sz": 1, "vout_sz": 1, "size": 134, "weight": 536, "fee": 0, "relayed_by": "0.0.0.0", "lock_time": 0, "tx_index": 4536394779323160, "double_spend": false, "time": 1231665565, "block_index": 106, "block_height": 106, "inputs": [{"sequence": 4294967295, "witness": "", "script": "04ffff001d017a", "index": 0, "prev_out": null}], "out": [{"type": 0, "spent": false, "value": 5000000000, "spending_outpoints": [], "n": 0, "tx_index": 4536394779323160, "script": "41045695295847de164b8973b15c7e981fc7e6f2ebf224f9b92a6e53b889eb88adb0bcab956b54418c4a5074d3e766f4e887f1593de05179abc0b33c0437504e04b3ac", "addr": "1T2TbagADcZFN433zk1HjYuTiXTPs62Yd"}], "hex": "01000000010000000000000000000000000000000000000000000000000000000000000000ffffffff0704ffff001d017affffffff0100f2052a010000004341045695295847de164b8973b15c7e981fc7e6f2ebf224f9b92a6e53b889eb88adb0bcab956b54418c4a5074d3e766f4e887f1593de05179abc0b33c0437504e04b3ac00000000"}]}