{"hash": "000000007e16b0176d894bebf52f6ceb5dd8553831e579b50726779633a1f2eb", "ver": 1, "prev_block": "00000000877c1915ebe7d24bee5b81ecafcf1bac5890283124a3d662a50a7714", "mrkl_root": "97e5c5228b572e1be5e91e0cf04784757a293a5efe2788df42868d5cc12a2382", "time": 1231666285, "bits": 486604799, "next_block": ["0000000042afd69ddd5c5e2e9f58f65e88bde9a53f9f8f69a6e5ca93b07a24cf"], "fee": 0, "nonce": 3211090732, "n_tx": 1, "size": 216, "block_index": 107, "main_chain": true, "height": 107, "weight": 864, "tx": [{"hash": "97e5c5228b572e1be5e91e0cf04784757a293a5efe2788df42868d5cc12a2382", "ver": 1, "vin_sz": 1, "vout_sz": 1, "size": 135, "weight": 540, "fee": 0, "relayed_by": "0.0.0.0", "lock_time": 0, "tx_index": 4578801689006512, "double_spend": false, "time": 1231666285, "block_index": 107, "block_height": 107, "inputs": [{"sequence": 4294967295, "witness": "", "script": "04ffff001d028700", "index": 0, "prev_out": null}], "out": [{"type": 0, "spent": false, "value": 5000000000, "spending_outpoints": [], "n": 0, "tx_index": 4578801689006512, "script": "41049a72c65160bbf2726ac4b4beacec13abf5d65be89f8ddb2347870ab1c091d1e1ae3314ff7384f9da33c31664ff5aafb958a762f37f8726428cab6dc2a5af0aadac", "addr": "13t2rxB1FiZ8rSR3jVVNAmJN7hxFCq6pjp"}], "hex": "01000000010000000000000000000000000000000000000000000000000000000000000000ffffffff0804ffff001d028700ffffffff0100f2052a010000004341049a72c65160bbf2726ac4b4beacec13abf5d65be89f8ddb2347870ab1c091d1e1ae3314ff7384f9da33c31664ff5aafb958a762f37f8726428cab6dc2a5af0aadac00000000"}]}