{"hash": "0000000042afd69ddd5c5e2e9f58f65e88bde9a53f9f8f69a6e5ca93b07a24cf", "ver": 1, "prev_block": "000000007e16b0176d894bebf52f6ceb5dd8553831e579b50726779633a1f2eb", "mrkl_root": "202b784e7fcbb28b28906a80d0b65a97cea04db8e34d26596efa55f8806a9402", "time": 1231667222, "bits": 486604799, "next_block": ["000000003f5dccc4e0bdac7081755b9d9ee17e7737316202b900d1c567c5abae"], "fee": 0, "nonce": 1071487492, "n_tx": 1, "size": 216, "block_index": 108, "main_chain": true, "height": 108, "weight": 864, "tx": [{"hash": "202b784e7fcbb28b28906a80d0b65a97cea04db8e34d26596efa55f8806a9402", "ver": 1, "vin_sz": 1, "vout_sz": 1, "size": 135, "weight": 540, "fee": 0, "relayed_by": "0.0.0.0", "lock_time": 0, "tx_index": 90766888078015, "double_spend": false, "time": 1231667222, "block_index": 108, "block_height": 108, "inputs": [{"sequence": 4294967295, "witness": "", "script": "04ffff001d028a00", "index": 0, "prev_out": null}], "out": [{"type": 0, "spent": false, "value": 5000000000, "spending_outpoints": [], "n": 0, "tx_index": 90766888078015, "script": "4104d42de70341ea7933849a8ad7f1fab5bdc38fdd56f5cb4cedde3d3823233dbe601421e06d32ed05f08a249faa04aa2e131284c75c7e606d2f692bec7bd5a8026eac", "addr": "1PN2MiaGhnR65x41pbUWbsfCB62hqG8KSG"}], "hex": "01000000010000000000000000000000000000000000000000000000000000000000000000ffffffff0804ffff001d028a00ffffffff0100f2052a01000000434104d42de70341ea7933849a8ad7f1fab5bdc38fdd56f5cb4cedde3d3823233dbe601421e06d32ed05f08a249faa04aa2e131284c75c7e606d2f692bec7bd5a8026eac00000000"}]}