{"hash": "000000003f5dccc4e0bdac7081755b9d9ee17e7737316202b900d1c567c5abae", "ver": 1, "prev_block": "0000000042afd69ddd5c5e2e9f58f65e88bde9a53f9f8f69a6e5ca93b07a24cf", "mrkl_root": "a3007f3f43250476e47d2326dff86155f219294467da4e9e66a168abfab4b230", "time": 1231667774, "bits": 486604799, "next_block": ["00000000a30e366158a1813a6fda9f913497000a68f1c008b9f935b866cee55b"], "fee": 0, "nonce": 1311612469, "n_tx": 1, "size": 216, "block_index": 109, "main_chain": true, "height": 109, "weight": 864, "tx": [{"hash": "a3007f3f43250476e47d2326dff86155f219294467da4e9e66a168abfab4b230", "ver": 1, "vin_sz": 1, "vout_sz": 1, "size": 135, "weight": 540, "fee": 0, "relayed_by": "0.0.0.0", "lock_time": 0, "tx_index": 1713411156438292, "double_spend": false, "time": 1231667774, "block_index": 109, "block_height": 109, "inputs": [{"sequence": 4294967295, "witness": "", "script": "04ffff001d028f00", "index": 0, "prev_out": null}], "out": [{"type": 0, "spent": false, "value": 5000000000, "spending_outpoints": [], "n": 0, "tx_index": 1713411156438292, "script": "41040a2e3fd6c40ec70cb3d47dd3cf2208d487eadb3631ce499a474bfec2e2f449b8cadbd02bea341f9d996f5af053168362c9f188641ad2959c3b2a0e48ffc40a8fac", "addr": "1Cef65T8Cqi47KJvc4vYkxuZ9ymBxQfhQf"}], "hex": "01000000010000000000000000000000000000000000000000000000000000000000000000ffffffff0804ffff001d028f00ffffffff0100f2052a010000004341040a2e3fd6c40ec70cb3d47dd3cf2208d487eadb3631ce499a474bfec2e2f449b8cadbd02bea341f9d996f5af053168362c9f188641ad2959c3b2a0e48ffc40a8fac00000000"}]}