{"hash": "0000000097be56d606cdd9c54b04d4747e957d3608abe69198c661f2add73073", "ver": 1, "prev_block": "000000002c05cc2e78923c34df87fd108b22221ac6076c18f3ade378a4d915e9", "mrkl_root": "f8325d8f7fa5d658ea143629288d0530d2710dc9193ddc067439de803c37066e", "time": 1231474360, "bits": 486604799, "next_block": ["0000000027c2488e2510d1acf4369787784fa20ee084c258b58d9fbd43802b5e"], "fee": 0, "nonce": 4161222679, "n_tx": 1, "size": 215, "block_index": 11, "main_chain": true, "height": 11, "weight": 860, "tx": [{"hash": "f8325d8f7fa5d658ea143629288d0530d2710dc9193ddc067439de803c37066e", "ver": 1, "vin_sz": 1, "vout_sz": 1, "size": 134, "weight": 536, "fee": 0, "relayed_by": "0.0.0.0", "lock_time": 0, "tx_index": 3871135218277319, "double_spend": false, "time": 1231474360, "block_index": 11, "block_height": 11, "inputs": [{"sequence": 4294967295, "witness": "", "script": "04ffff001d013b", "index": 0, "prev_out": null}], "out": [{"type": 0, "spent": false, "value": 5000000000, "spending_outpoints": [], "n": 0, "tx_index": 3871135218277319, "script": "41046cc86ddcd0860b7cef16cbaad7fe31fda1bf073c25cb833fa9e409e7f51e296f39b653a9c8040a2f967319ff37cf14b0991b86173462a2d5907cb6c5648b5b76ac", "addr": "1dyoBoF5vDmPCxwSsUZbbYhA5qjAfBTx9"}], "hex": "01000000010000000000000000000000000000000000000000000000000000000000000000ffffffff0704ffff001d013bffffffff0100f2052a010000004341046cc86ddcd0860b7cef16cbaad7fe31fda1bf073c25cb833fa9e409e7f51e296f39b653a9c8040a2f967319ff37cf14b0991b86173462a2d5907cb6c5648b5b76ac00000000"}]}