{"hash": "000000000000bb5a577a0c9d7fe342851e3d61207c5c0b21d13b4850263a5daa", "ver": 1, "prev_block": "000000000001517f869f6984325d8c8f75f48efea1ddba09c7d2688fcc6d11ff", "mrkl_root": "6aea0728b0b1a88ab0578d97132aeb6c302949aa6fd91bba33e03f118d480cda", "time": 1298501589, "bits": 453102630, "next_block": ["000000000000cd7e8cf6510303dde76121a1a791c15dba0be4be7022b07cf9e1"], "fee": 0, "nonce": 727409664, "n_tx": 2, "size": 473, "block_index": 110025, "main_chain": true, "height": 110025, "weight": 1892, "tx": [{"hash": "c17786665776e34ab800a5403d29194bd1b40e1cd5179afb6e2bf3fccaa0d7e3", "ver": 1, "vin_sz": 1, "vout_sz": 1, "size": 134, "weight": 536, "fee": 0, "relayed_by": "0.0.0.0", "lock_time": 0, "tx_index": 8016488164204133, "double_spend": false, "time": 1298501589, "block_index": 110025, "block_height": 110025, "inputs": [{"sequence": 4294967295, "witness": "", "script": "0426cc011b013d", "index": 0, "prev_out": null}], "out": [{"type": 0, "spent": true, "value": 5000000000, "spending_outpoints": [{"tx_index": 3160595044022855, "n": 1}], "n": 0, "tx_index": 8016488164204133, "script": "41040ce6061d8ec859324513bb5bb4c93e88011294b763783895fe1a92bb05e9c3d18db9a8fff65a2ff5ecc8619d199faf05978b35d045af756b854713beed307686ac", "addr": "19AWQoDd7Z5YzK3dYWsi5hyEcgq6PQ9GPT"}], "hex": "01000000010000000000000000000000000000000000000000000000000000000000000000ffffffff070426cc011b013dffffffff0100f2052a010000004341040ce6061d8ec859324513bb5bb4c93e88011294b763783895fe1a92bb05e9c3d18db9a8fff65a2ff5ecc8619d199faf05978b35d045af756b854713beed307686ac00000000"}, {"hash": "6465469228d40dfdeac60f49e8157956b7c0a2f51b9fd50606dd4ed70b22a020", "ver": 1, "vin_sz": 1, "vout_sz": 2, "size": 258, "weight": 1032, "fee": 0, "relayed_by": "0.0.0.0", "lock_time": 0, "tx_index": 1147908417841627, "double_spend": false, "time": 1298501589, "block_index": 110025, "block_height": 110025, "inputs": [{"sequence": 4294967295, "witness": "", "script": "4830450221008c24dddf3ca3aa0524094319b8c596c6a285288e8511a4364c93e302a9e616ba0220755142001cc5f0d8d93c65b9c5f10a76fac8f9ede9a9f3f1281e72c540ba23b4014104864ec95d840f6d15c4ad46d96278e4812f0b004218692c6878a46e80974adad5d3065214f17b31d6956848da202fd644d916723aa80f8e59d2bcdd12f7a22d23", "index": 0, "prev_out": {"spent": true, "script": "76a914ce243fef2bfe367bfefc7e4e5534af9c383388a988ac", "spending_outpoints": [{"tx_index": 1147908417841627, "n": 0}], "tx_index": 6739115255881402, "value": 19235000000, "addr": "1KnydCDXwU3rnyEqYcMhTo7pjYke5ESPdv", "n": 1, "type": 0}}], "out": [{"type": 0, "spent": true, "value": 19230000000, "spending_outpoints": [{"tx_index": 3621541123538055, "n": 0}], "n": 0, "tx_index": 1147908417841627, "script": "76a914638c9c49f54d5e00e01a56cafe8243c695d59b9988ac", "addr": "1A5NLnFqLWPRF3CUBSEQmgT8WwpMqFHKko"}, {"type": 0, "spent": true, "value": 5000000, "spending_outpoints": [{"tx_index": 5015486707928202, "n": 8}], "n": 1, "tx_index": 1147908417841627, "script": "76a91451311c056ebbbe81b82f1df251647ce387037d1388ac", "addr": "18QJZiwuXiJLbZbprENRQE8ckDEqHvt23G"}], "hex": "0100000001bf8984576af5d2234cdff81efd30094c145d6664b098ae8726a916e43a05e090010000008b4830450221008c24dddf3ca3aa0524094319b8c596c6a285288e8511a4364c93e302a9e616ba0220755142001cc5f0d8d93c65b9c5f10a76fac8f9ede9a9f3f1281e72c540ba23b4014104864ec95d840f6d15c4ad46d96278e4812f0b004218692c6878a46e80974adad5d3065214f17b31d6956848da202fd644d916723aa80f8e59d2bcdd12f7a22d23ffffffff028083327a040000001976a914638c9c49f54d5e00e01a56cafe8243c695d59b9988ac404b4c00000000001976a91451311c056ebbbe81b82f1df251647ce387037d1388ac00000000"}]}