{"hash": "000000000000fb9d5cf33379f813f3a28e4886a2ddf4b0c602f9f87f9f3bc4f8", "ver": 1, "prev_block": "00000000000141b13f71cde44e52ea2162705fd965d8e4d82488e53d71638fab", "mrkl_root": "dec77cd4d885415d34f0c4093aac0bf6c1343104a87befc5276d5a1f4d34dde1", "time": 1298497992, "bits": 453102630, "next_block": ["00000000000020b61bd5f7fc93a7ff4dfd2986d9d1c0b9347029467fc8b58141"], "fee": 0, "nonce": 3053906169, "n_tx": 3, "size": 733, "block_index": 110016, "main_chain": true, "height": 110016, "weight": 2932, "tx": [{"hash": "adfcd6fc09a572d8549d6365058818169855e93eee5975f1d1a00432af5b5265", "ver": 1, "vin_sz": 1, "vout_sz": 1, "size": 134, "weight": 536, "fee": 0, "relayed_by": "0.0.0.0", "lock_time": 0, "tx_index": 3564940797821076, "double_spend": false, "time": 1298497992, "block_index": 110016, "block_height": 110016, "inputs": [{"sequence": 4294967295, "witness": "", "script": "0426cc011b0106", "index": 0, "prev_out": null}], "out": [{"type": 0, "spent": true, "value": 5000000000, "spending_outpoints": [{"tx_index": 5592168777512303, "n": 0}], "n": 0, "tx_index": 3564940797821076, "script": "4104861ea518dd8b6dc6b9f7263c63c299dbf9a3b3f3df6d7d1f17f4df2caf1d53d8df93555bbc35e0deff84913169be897349249bcdfe054abeb6dbe262ab84f5a8ac", "addr": "1Q3ACjfZHSpRSoHwpCdrVSqGuSXc6C1yiu"}], "hex": "01000000010000000000000000000000000000000000000000000000000000000000000000ffffffff070426cc011b0106ffffffff0100f2052a01000000434104861ea518dd8b6dc6b9f7263c63c299dbf9a3b3f3df6d7d1f17f4df2caf1d53d8df93555bbc35e0deff84913169be897349249bcdfe054abeb6dbe262ab84f5a8ac00000000"}, {"hash": "77c80e076b60f2f66c0a61f4ca90c71484e98b86b286ae2c612e3e1bedc11b40", "ver": 1, "vin_sz": 1, "vout_sz": 2, "size": 259, "weight": 1036, "fee": 0, "relayed_by": "0.0.0.0", "lock_time": 0, "tx_index": 2255614778763205, "double_spend": false, "time": 1298497992, "block_index": 110016, "block_height": 110016, "inputs": [{"sequence": 4294967295, "witness": "", "script": "493046022100dac974b434fec339456a97c73f421a1f99d2e5d6f326180097052bb2d6c486a50221008318367e71fa318cbcbe60ed7dd01e22fb28d3e04072384d3661ca5a027767f3014104493c1cd60d3faf221f8d7ec3b36351e2dcc001ad7ca6385ffd3772a45ef0492b2bc9e508f168e509a1425f5f23aed84c2fa5bd1262c17ceccb14b5d78b04e38d", "index": 0, "prev_out": {"spent": true, "script": "76a914335a4a93d2c32e0e78475f1f6d15c4f98658793c88ac", "spending_outpoints": [{"tx_index": 2255614778763205, "n": 0}], "tx_index": 134044681780352, "value": 19395000000, "addr": "15gXdLNy3hoHE2Nz9bQYjfwerV5uJWGwUa", "n": 1, "type": 0}}], "out": [{"type": 0, "spent": false, "value": 5000000, "spending_outpoints": [], "n": 0, "tx_index": 2255614778763205, "script": "76a914d2529647aaaf8f909a1ad2e87a229c7858e810a188ac", "addr": "1LB5qXrKmSEGDChuyxmMNRZu8tHaWbBQrR"}, {"type": 0, "spent": true, "value": 19390000000, "spending_outpoints": [{"tx_index": 7465555480042039, "n": 0}], "n": 1, "tx_index": 2255614778763205, "script": "76a914db74337e994bd402f23c98266b49d3c17214bbf288ac", "addr": "1M1NBotG7hJdZRv3MfFeWf2i9XFHqzZjnR"}], "hex": "010000000103cf4dad21e403bcce31606d0689b036bcd9b6d0a7a6ae473b364827d84b2da2010000008c493046022100dac974b434fec339456a97c73f421a1f99d2e5d6f326180097052bb2d6c486a50221008318367e71fa318cbcbe60ed7dd01e22fb28d3e04072384d3661ca5a027767f3014104493c1cd60d3faf221f8d7ec3b36351e2dcc001ad7ca6385ffd3772a45ef0492b2bc9e508f168e509a1425f5f23aed84c2fa5bd1262c17ceccb14b5d78b04e38dffffffff02404b4c00000000001976a914d2529647aaaf8f909a1ad2e87a229c7858e810a188ac80ebbb83040000001976a914db74337e994bd402f23c98266b49d3c17214bbf288ac00000000"}, {"hash": "e232418391a75ce655078ef1d308ace052bd2dad3da6855258b8d182b3102fd4", "ver": 1, "vin_sz": 1, "vout_sz": 2, "size": 259, "weight": 1036, "fee": 0, "relayed_by": "0.0.0.0", "lock_time": 0, "tx_index": 7465555480042039, "double_spend": false, "time": 1298497992, "block_index": 110016, "block_height": 110016, "inputs": [{"sequence": 4294967295, "witness": "", "script": "493046022100a07c745f13843c9370c1c9ab8b352956e72351e0d0752e4d96fa204c90021c3d022100b27cc65434c92bfa131e71223ef70681115fe80ec2ea318c1fce9c0f62dd20d70141044802ea61b6da7ade35b2e67a8c005099fc9d41b7820e691a1594e5797f65d2315cb6240dbc006c60391eb081ed656ab7b9eda939bbf52d6a8c745990a5ae9551", "index": 0, "prev_out": {"spent": true, "script": "76a914db74337e994bd402f23c98266b49d3c17214bbf288ac", "spending_outpoints": [{"tx_index": 7465555480042039, "n": 0}], "tx_index": 2255614778763205, "value": 19390000000, "addr": "1M1NBotG7hJdZRv3MfFeWf2i9XFHqzZjnR", "n": 1, "type": 0}}], "out": [{"type": 0, "spent": true, "value": 19385000000, "spending_outpoints": [{"tx_index": 5017194797458363, "n": 0}], "n": 0, "tx_index": 7465555480042039, "script": "76a91439bbaebf6abe323f6fb5379b129aa2edf9d9369488ac", "addr": "16GGMMLKmoCDpTR6DYcJAg7uKnCBHmnLBq"}, {"type": 0, "spent": false, "value": 5000000, "spending_outpoints": [], "n": 1, "tx_index": 7465555480042039, "script": "76a914f9e9f221c9532334036753537fd558ddf892132788ac", "addr": "1PnRWcCXFFwS6YBMBUo6v4QzHTuxRVYZrv"}], "hex": "0100000001401bc1ed1b3e2e612cae86b2868be98414c790caf4610a6cf6f2606b070ec877010000008c493046022100a07c745f13843c9370c1c9ab8b352956e72351e0d0752e4d96fa204c90021c3d022100b27cc65434c92bfa131e71223ef70681115fe80ec2ea318c1fce9c0f62dd20d70141044802ea61b6da7ade35b2e67a8c005099fc9d41b7820e691a1594e5797f65d2315cb6240dbc006c60391eb081ed656ab7b9eda939bbf52d6a8c745990a5ae9551ffffffff0240a06f83040000001976a91439bbaebf6abe323f6fb5379b129aa2edf9d9369488ac404b4c00000000001976a914f9e9f221c9532334036753537fd558ddf892132788ac00000000"}]}