{"hash": "000000000001517f869f6984325d8c8f75f48efea1ddba09c7d2688fcc6d11ff", "ver": 1, "prev_block": "00000000000040c4f3c1674ef9892b136da554e505f8c9e97131a9ebd335fb80", "mrkl_root": "dfebbc0e5a296cd91fab3d14032a9a474cbae0a5bb44aec598bb8ebad87cced5", "time": 1298501580, "bits": 453102630, "next_block": ["000000000000bb5a577a0c9d7fe342851e3d61207c5c0b21d13b4850263a5daa"], "fee": 0, "nonce": 621964307, "n_tx": 8, "size": 1985, "block_index": 110024, "main_chain": true, "height": 110024, "weight": 7940, "tx": [{"hash": "89f603a2c2ea781c1808b7e89f968f0f3988d4f329e5eaeb777c57697f1fd99c", "ver": 1, "vin_sz": 1, "vout_sz": 1, "size": 134, "weight": 536, "fee": 0, "relayed_by": "0.0.0.0", "lock_time": 0, "tx_index": 5518603208960751, "double_spend": false, "time": 1298501580, "block_index": 110024, "block_height": 110024, "inputs": [{"sequence": 4294967295, "witness": "", "script": "0426cc011b016f", "index": 0, "prev_out": null}], "out": [{"type": 0, "spent": true, "value": 5000000000, "spending_outpoints": [{"tx_index": 3626402766281069, "n": 13}], "n": 0, "tx_index": 5518603208960751, "script": "4104fdb6c4646568a769bda0dc92751bb1ffd64db799b3a156ee3da2763141cafefd2df0c5ab326c9c7564c6d7a1779ecf3de259d33d2fdc4b9dfbe54540a68ba857ac", "addr": "1QJQewLzPWwvcKbMToad5KmrND5xWPxkFE"}], "hex": "01000000010000000000000000000000000000000000000000000000000000000000000000ffffffff070426cc011b016fffffffff0100f2052a01000000434104fdb6c4646568a769bda0dc92751bb1ffd64db799b3a156ee3da2763141cafefd2df0c5ab326c9c7564c6d7a1779ecf3de259d33d2fdc4b9dfbe54540a68ba857ac00000000"}, {"hash": "890318ad7cab6a2cec24a2929e288c1a71dc86680f2d615324a58956fdbf0a4b", "ver": 1, "vin_sz": 1, "vout_sz": 1, "size": 223, "weight": 892, "fee": 0, "relayed_by": "0.0.0.0", "lock_time": 0, "tx_index": 2640305369829684, "double_spend": false, "time": 1298501580, "block_index": 110024, "block_height": 110024, "inputs": [{"sequence": 4294967295, "witness": "", "script": "473044022062395a4e8d5625811870579503190b50b5fcf83e365a03c46961f183b4a20fe7022036e3b5438cd01f583fd5cf6d29b0f5b16d9422f0ad03cd950485686d70a6f06c014104873827ffb7f52551b576b73e87df55d832fb8ec75a9cd4d3c6c1b0faf780aecee682b6a4010cb677bcdad4b6c605058b1831942375012d67f94e08b830b576dd", "index": 0, "prev_out": {"spent": true, "script": "76a914c99d74505e01b4c615a3c0afa3ced1569fd6da2588ac", "spending_outpoints": [{"tx_index": 2640305369829684, "n": 0}], "tx_index": 3523266304896934, "value": 1000000000, "addr": "1KP3SgKv26eXyBLpuGWJm8LBS1v7FDxJyU", "n": 0, "type": 0}}], "out": [{"type": 0, "spent": true, "value": 1000000000, "spending_outpoints": [{"tx_index": 34942957404708, "n": 1}], "n": 0, "tx_index": 2640305369829684, "script": "76a9145591e9a3d400356ceea2ad808efff3e47a94124b88ac", "addr": "18oTEVh3q5iJ2PBzSubrqxeAWQfXj2ymXs"}], "hex": "0100000001642322e46b7d34668c721026114f9e66a2957acf0ec6e499d0a9090a7f487c1b000000008a473044022062395a4e8d5625811870579503190b50b5fcf83e365a03c46961f183b4a20fe7022036e3b5438cd01f583fd5cf6d29b0f5b16d9422f0ad03cd950485686d70a6f06c014104873827ffb7f52551b576b73e87df55d832fb8ec75a9cd4d3c6c1b0faf780aecee682b6a4010cb677bcdad4b6c605058b1831942375012d67f94e08b830b576ddffffffff0100ca9a3b000000001976a9145591e9a3d400356ceea2ad808efff3e47a94124b88ac00000000"}, {"hash": "2fabc6849e04860a135c704adeb1a135ceba28d67363eba70630b2474b4b4de4", "ver": 1, "vin_sz": 1, "vout_sz": 2, "size": 258, "weight": 1032, "fee": 0, "relayed_by": "0.0.0.0", "lock_time": 0, "tx_index": 8032660058863174, "double_spend": false, "time": 1298501580, "block_index": 110024, "block_height": 110024, "inputs": [{"sequence": 4294967295, "witness": "", "script": "483045022100a4cffe6be53fc2833aa944e791cce5534fe66627ad7de560b50e06d903e8f66402201432058f2cd30ebc94675fa3e4f4588f692a601480a93b9073097d59035bee2a0141048b8b5cf8dddf26693bb32ac1c84eae7286a916f98ee2578958524eafa085af4e37b13831766ce07be6391654a60338d6e22d5d810bd4d86613d21e7cc73e4693", "index": 0, "prev_out": {"spent": true, "script": "76a914a4602b800b9d53d1314e19f8e44c59053d4ec86588ac", "spending_outpoints": [{"tx_index": 8032660058863174, "n": 0}], "tx_index": 5323784394676157, "value": 19265000000, "addr": "1Fz92TtPbRarpfuL5wZG5enJMoPKjssGs5", "n": 1, "type": 0}}], "out": [{"type": 0, "spent": true, "value": 19260000000, "spending_outpoints": [{"tx_index": 1916051427896760, "n": 0}], "n": 0, "tx_index": 8032660058863174, "script": "76a914da1954ed5b0dd6c0acc5632ee3bac1d02772011288ac", "addr": "1LtCeuBS2q88MiER14Q8zNtZ2ToExr5C6y"}, {"type": 0, "spent": true, "value": 5000000, "spending_outpoints": [{"tx_index": 5679069121502805, "n": 2}], "n": 1, "tx_index": 8032660058863174, "script": "76a914cd1d048666d3fec0d023d3cda1d2705aa924efcf88ac", "addr": "1KhYHWWFvGCnRgVJvLCDVv7XaLN6nGg26Y"}], "hex": "0100000001974fa12da4bdea412e9eea07d9e6785ddfbe49d619fce4911856914746516ee9010000008b483045022100a4cffe6be53fc2833aa944e791cce5534fe66627ad7de560b50e06d903e8f66402201432058f2cd30ebc94675fa3e4f4588f692a601480a93b9073097d59035bee2a0141048b8b5cf8dddf26693bb32ac1c84eae7286a916f98ee2578958524eafa085af4e37b13831766ce07be6391654a60338d6e22d5d810bd4d86613d21e7cc73e4693ffffffff020047fc7b040000001976a914da1954ed5b0dd6c0acc5632ee3bac1d02772011288ac404b4c00000000001976a914cd1d048666d3fec0d023d3cda1d2705aa924efcf88ac00000000"}, {"hash": "f7a2c0d452eac833895c6979f7ae2d8cc081f3a6ca3ad2a7c0c66dd9e51b7536", "ver": 1, "vin_sz": 1, "vout_sz": 2, "size": 258, "weight": 1032, "fee": 0, "relayed_by": "0.0.0.0", "lock_time": 0, "tx_index": 1916051427896760, "double_spend": false, "time": 1298501580, "block_index": 110024, "block_height": 110024, "inputs": [{"sequence": 4294967295, "witness": "", "script": "48304502210084e92b86f8fbb41ed521206279c5ef6140ae3bb25140dea4188ed6e61dee689a02205ee7f847adbd08c4347873820f1f38afc189b320d101b52d178086c02234f5bf01410423ef0c2c9c779368f8bc10c4de783394c07a6e0d54fbd702f8234d51f05b4a4da1e9a232fd50c2d898ca9cc1012a63bb4d3b821dad9b978b3ce7c0ef91aad18d", "index": 0, "prev_out": {"spent": true, "script": "76a914da1954ed5b0dd6c0acc5632ee3bac1d02772011288ac", "spending_outpoints": [{"tx_index": 1916051427896760, "n": 0}], "tx_index": 8032660058863174, "value": 19260000000, "addr": "1LtCeuBS2q88MiER14Q8zNtZ2ToExr5C6y", "n": 0, "type": 0}}], "out": [{"type": 0, "spent": true, "value": 19255000000, "spending_outpoints": [{"tx_index": 4209075152123172, "n": 0}], "n": 0, "tx_index": 1916051427896760, "script": "76a914b343eb369c351f1389e83f035abce7f4a19a62bf88ac", "addr": "1HLsKRHeWNq8Xbisf7yTFyxZXsKZWr4yJ5"}, {"type": 0, "spent": false, "value": 5000000, "spending_outpoints": [], "n": 1, "tx_index": 1916051427896760, "script": "76a91407f24221809f4db43b6e198027fde9a6ef90c22688ac", "addr": "1j1wkHLapREe5oPEC8Tb7dhMgjNvabisn"}], "hex": "0100000001e44d4b4b47b23006a7eb6373d628bace35a1b1de4a705c130a86049e84c6ab2f000000008b48304502210084e92b86f8fbb41ed521206279c5ef6140ae3bb25140dea4188ed6e61dee689a02205ee7f847adbd08c4347873820f1f38afc189b320d101b52d178086c02234f5bf01410423ef0c2c9c779368f8bc10c4de783394c07a6e0d54fbd702f8234d51f05b4a4da1e9a232fd50c2d898ca9cc1012a63bb4d3b821dad9b978b3ce7c0ef91aad18dffffffff02c0fbaf7b040000001976a914b343eb369c351f1389e83f035abce7f4a19a62bf88ac404b4c00000000001976a91407f24221809f4db43b6e198027fde9a6ef90c22688ac00000000"}, {"hash": "56ac6154ad37e52d8b1d4b960f298ec6986b3cbcc8627fc1cd26a9336a0da177", "ver": 1, "vin_sz": 1, "vout_sz": 2, "size": 259, "weight": 1036, "fee": 0, "relayed_by": "0.0.0.0", "lock_time": 0, "tx_index": 4209075152123172, "double_spend": false, "time": 1298501580, "block_index": 110024, "block_height": 110024, "inputs": [{"sequence": 4294967295, "witness": "", "script": "493046022100cdd43a9d557cab139f904c009433327bdbf1d75d9e6383b5d1993dd4085b1a2e022100ea2eff0662b2d5b8a5e2f7a21777f957a1bde3cf04e23f5e261568323c37df45014104bb2c2ab661b1bffbba607868cdb2dbd13609196dbc0aab2ca52983f19e7a7f822460d7b0db01295bfb717302f0c9e70667c0a61d3a99b33c5bdee963c92ee7d1", "index": 0, "prev_out": {"spent": true, "script": "76a914b343eb369c351f1389e83f035abce7f4a19a62bf88ac", "spending_outpoints": [{"tx_index": 4209075152123172, "n": 0}], "tx_index": 1916051427896760, "value": 19255000000, "addr": "1HLsKRHeWNq8Xbisf7yTFyxZXsKZWr4yJ5", "n": 0, "type": 0}}], "out": [{"type": 0, "spent": false, "value": 5000000, "spending_outpoints": [], "n": 0, "tx_index": 4209075152123172, "script": "76a9149e046df37f43cf061fe615e14fe1afe92e25ae0e88ac", "addr": "1FQX55Qn9d8xPKeXgaYGE8Q5hRYFrhtFe8"}, {"type": 0, "spent": true, "value": 19250000000, "spending_outpoints": [{"tx_index": 5976226945509055, "n": 0}], "n": 1, "tx_index": 4209075152123172, "script": "76a914dc5f9261241326eb4e2b5bd8854ed0a3cd39d5e888ac", "addr": "1M6E9eYsniufHuSkS9PLhSeexyJojdzvad"}], "hex": "010000000136751be5d96dc6c0a7d23acaa6f381c08c2daef779695c8933c8ea52d4c0a2f7000000008c493046022100cdd43a9d557cab139f904c009433327bdbf1d75d9e6383b5d1993dd4085b1a2e022100ea2eff0662b2d5b8a5e2f7a21777f957a1bde3cf04e23f5e261568323c37df45014104bb2c2ab661b1bffbba607868cdb2dbd13609196dbc0aab2ca52983f19e7a7f822460d7b0db01295bfb717302f0c9e70667c0a61d3a99b33c5bdee963c92ee7d1ffffffff02404b4c00000000001976a9149e046df37f43cf061fe615e14fe1afe92e25ae0e88ac80b0637b040000001976a914dc5f9261241326eb4e2b5bd8854ed0a3cd39d5e888ac00000000"}, {"hash": "dbcfe540e8416951614be031c588a0215ce7697bda772afabdfb357921c6daa9", "ver": 1, "vin_sz": 1, "vout_sz": 2, "size": 258, "weight": 1032, "fee": 0, "relayed_by": "0.0.0.0", "lock_time": 0, "tx_index": 5976226945509055, "double_spend": false, "time": 1298501580, "block_index": 110024, "block_height": 110024, "inputs": [{"sequence": 4294967295, "witness": "", "script": "483045022100d4d58f7252301d3384b919b972d47dae9074b514662caaaaf778a968f083827a02206a62c30cf6b0cb25d7641e7594d2f3bbfbf7a6f3b6639fa20b211913c7c533fd0141046131a3415ff98d02544eabdf8ebbc8c2960b9278888588695fda4fe9a26499cfbf574cf30aa8f718aaf40c3a7ff4bfa732b3e22f9498e2ea7ddcc4d14342f743", "index": 0, "prev_out": {"spent": true, "script": "76a914dc5f9261241326eb4e2b5bd8854ed0a3cd39d5e888ac", "spending_outpoints": [{"tx_index": 5976226945509055, "n": 0}], "tx_index": 4209075152123172, "value": 19250000000, "addr": "1M6E9eYsniufHuSkS9PLhSeexyJojdzvad", "n": 1, "type": 0}}], "out": [{"type": 0, "spent": true, "value": 19245000000, "spending_outpoints": [{"tx_index": 4590438485602720, "n": 0}], "n": 0, "tx_index": 5976226945509055, "script": "76a914e520b4bbb5ec5a4ca5e264673a7971bb55c412e088ac", "addr": "1MtWvP79QqZ9iZtyFUpDqTJCJnt1NNS9e3"}, {"type": 0, "spent": false, "value": 5000000, "spending_outpoints": [], "n": 1, "tx_index": 5976226945509055, "script": "76a914a45772e6b4d4df62f88c6de50492fe0fd602ac9288ac", "addr": "1FyxaWg4fCqXJoa9S8KRorYHbzg7p67Ziy"}], "hex": "010000000177a10d6a33a926cdc17f62c8bc3c6b98c68e290f964b1d8b2de537ad5461ac56010000008b483045022100d4d58f7252301d3384b919b972d47dae9074b514662caaaaf778a968f083827a02206a62c30cf6b0cb25d7641e7594d2f3bbfbf7a6f3b6639fa20b211913c7c533fd0141046131a3415ff98d02544eabdf8ebbc8c2960b9278888588695fda4fe9a26499cfbf574cf30aa8f718aaf40c3a7ff4bfa732b3e22f9498e2ea7ddcc4d14342f743ffffffff024065177b040000001976a914e520b4bbb5ec5a4ca5e264673a7971bb55c412e088ac404b4c00000000001976a914a45772e6b4d4df62f88c6de50492fe0fd602ac9288ac00000000"}, {"hash": "029b366b9cee04dbfe59fd0b374f5c4ffca89208b78f1ca765038d61fad57782", "ver": 1, "vin_sz": 1, "vout_sz": 2, "size": 257, "weight": 1028, "fee": 0, "relayed_by": "0.0.0.0", "lock_time": 0, "tx_index": 4590438485602720, "double_spend": false, "time": 1298501580, "block_index": 110024, "block_height": 110024, "inputs": [{"sequence": 4294967295, "witness": "", "script": "47304402205b8ae18b5dadaaa3f95e3096e2c5521c23f942d969ba23b9d7a8ccca21acc8a302204aaac8398b4e42df731e043872e99c23e8d3b8381fe630536c1cb1a0df08dab1014104c6f768f5e8fa326e6d43686f14db5c2c5522f1f73c54b12cf007ce4d6a87b88d3762c894d5d8fe3587eeb89b43f065b2687efe6ec0e6774d61446f23f00ce326", "index": 0, "prev_out": {"spent": true, "script": "76a914e520b4bbb5ec5a4ca5e264673a7971bb55c412e088ac", "spending_outpoints": [{"tx_index": 4590438485602720, "n": 0}], "tx_index": 5976226945509055, "value": 19245000000, "addr": "1MtWvP79QqZ9iZtyFUpDqTJCJnt1NNS9e3", "n": 0, "type": 0}}], "out": [{"type": 0, "spent": true, "value": 5000000, "spending_outpoints": [{"tx_index": 3863555242314671, "n": 1}], "n": 0, "tx_index": 4590438485602720, "script": "76a914590802e48443d32deb9b02c8841eca602143785b88ac", "addr": "197kji3ryzaZfHGdq2LsMTyoqfthiqdvqc"}, {"type": 0, "spent": true, "value": 19240000000, "spending_outpoints": [{"tx_index": 6739115255881402, "n": 0}], "n": 1, "tx_index": 4590438485602720, "script": "76a914fa4aa29a9bd015c68e711d6653448c1833d3d0ae88ac", "addr": "1PpRLhcckUczE3ApNo3odBKfwFm9D92j13"}], "hex": "0100000001a9dac6217935fbbdfa2a77da7b69e75c21a088c531e04b61516941e840e5cfdb000000008a47304402205b8ae18b5dadaaa3f95e3096e2c5521c23f942d969ba23b9d7a8ccca21acc8a302204aaac8398b4e42df731e043872e99c23e8d3b8381fe630536c1cb1a0df08dab1014104c6f768f5e8fa326e6d43686f14db5c2c5522f1f73c54b12cf007ce4d6a87b88d3762c894d5d8fe3587eeb89b43f065b2687efe6ec0e6774d61446f23f00ce326ffffffff02404b4c00000000001976a914590802e48443d32deb9b02c8841eca602143785b88ac001acb7a040000001976a914fa4aa29a9bd015c68e711d6653448c1833d3d0ae88ac00000000"}, {"hash": "90e0053ae416a92687ae98b064665d144c0930fd1ef8df4c23d2f56a578489bf", "ver": 1, "vin_sz": 1, "vout_sz": 2, "size": 257, "weight": 1028, "fee": 0, "relayed_by": "0.0.0.0", "lock_time": 0, "tx_index": 6739115255881402, "double_spend": false, "time": 1298501580, "block_index": 110024, "block_height": 110024, "inputs": [{"sequence": 4294967295, "witness": "", "script": "473044022061a5a631dbcb17afd03774a66963b456074c5b3010cf0cac44767fb2d3621dde02202364024a67ac45e04712dae4c1daa3c575e31abbb8593eb1127066d8744b17590141046e0de27edb7d46272267789a17a6f4284834779918187bd8c79aed0ece8ec0d39596107c241b48c0a62e65c877760118e6879fd7a1c0c5ccd10998a22c069acd", "index": 0, "prev_out": {"spent": true, "script": "76a914fa4aa29a9bd015c68e711d6653448c1833d3d0ae88ac", "spending_outpoints": [{"tx_index": 6739115255881402, "n": 0}], "tx_index": 4590438485602720, "value": 19240000000, "addr": "1PpRLhcckUczE3ApNo3odBKfwFm9D92j13", "n": 1, "type": 0}}], "out": [{"type": 0, "spent": true, "value": 5000000, "spending_outpoints": [{"tx_index": 1963430871505692, "n": 25}], "n": 0, "tx_index": 6739115255881402, "script": "76a9147adf3551806e872d5169d4b1f8c25fecba018ddf88ac", "addr": "1CCgqBoAQPMdxbGJDNXji7AS6BxssbUFJS"}, {"type": 0, "spent": true, "value": 19235000000, "spending_outpoints": [{"tx_index": 1147908417841627, "n": 0}], "n": 1, "tx_index": 6739115255881402, "script": "76a914ce243fef2bfe367bfefc7e4e5534af9c383388a988ac", "addr": "1KnydCDXwU3rnyEqYcMhTo7pjYke5ESPdv"}], "hex": "01000000018277d5fa618d0365a71c8fb70892a8fc4f5c4f370bfd59fedb04ee9c6b369b02010000008a473044022061a5a631dbcb17afd03774a66963b456074c5b3010cf0cac44767fb2d3621dde02202364024a67ac45e04712dae4c1daa3c575e31abbb8593eb1127066d8744b17590141046e0de27edb7d46272267789a17a6f4284834779918187bd8c79aed0ece8ec0d39596107c241b48c0a62e65c877760118e6879fd7a1c0c5ccd10998a22c069acdffffffff02404b4c00000000001976a9147adf3551806e872d5169d4b1f8c25fecba018ddf88acc0ce7e7a040000001976a914ce243fef2bfe367bfefc7e4e5534af9c383388a988ac00000000"}]}