{"hash": "000000000001b510be392f4aa18f9bb1b412b4676749bc7b4ba6cc6e493300c8", "ver": 1, "prev_block": "0000000000001c1a1a61bba59f0382f24e74a938efb9460f9b71daeedf681b39", "mrkl_root": "e9662a8067970b6567ccd5cfbdebff6d1a8f08796b90199c811a9070dc535ab1", "time": 1298503078, "bits": 453102630, "next_block": ["000000000001b2d8fefa28dd0c75508522132e24f77b5c66d0145854c29f2953"], "fee": 0, "nonce": 1536506394, "n_tx": 12, "size": 3051, "block_index": 110029, "main_chain": true, "height": 110029, "weight": 12204, "tx": [{"hash": "2114a67d68154cd719630e4e2f49c83803e62d53096fa613683b339c624136e9", "ver": 1, "vin_sz": 1, "vout_sz": 1, "size": 134, "weight": 536, "fee": 0, "relayed_by": "0.0.0.0", "lock_time": 0, "tx_index": 8205415503595111, "double_spend": false, "time": 1298503078, "block_index": 110029, "block_height": 110029, "inputs": [{"sequence": 4294967295, "witness": "", "script": "0426cc011b0134", "index": 0, "prev_out": null}], "out": [{"type": 0, "spent": true, "value": 5000000000, "spending_outpoints": [{"tx_index": 5990632008515632, "n": 4}], "n": 0, "tx_index": 8205415503595111, "script": "4104d84a7dd5f84395f2215d357e9e4744ab07c44d78cb198b1837895acb9cc4802faff5c9fffc304ff450865f754905e0837869b4f3d5fbaf5de5576c96d3b69802ac", "addr": "18XcRdBTDAn7QZEfHodeu16UPgE8rxxKbR"}], "hex": "01000000010000000000000000000000000000000000000000000000000000000000000000ffffffff070426cc011b0134ffffffff0100f2052a01000000434104d84a7dd5f84395f2215d357e9e4744ab07c44d78cb198b1837895acb9cc4802faff5c9fffc304ff450865f754905e0837869b4f3d5fbaf5de5576c96d3b69802ac00000000"}, {"hash": "1340919983f00821c22ae59d8c849eb77bfce41b2534a9b188c698213253b65a", "ver": 1, "vin_sz": 1, "vout_sz": 2, "size": 258, "weight": 1032, "fee": 0, "relayed_by": "0.0.0.0", "lock_time": 0, "tx_index": 3191652042945304, "double_spend": false, "time": 1298503078, "block_index": 110029, "block_height": 110029, "inputs": [{"sequence": 4294967295, "witness": "", "script": "483045022003802c1ced758c400195a92fbb846d58b26e7dd391acd3ac9cb94cb3c2313c1e022100838fe637a3b011332f1ecb4fb5ac3bc69a32b0c71998d654dbaac03f825e2eb20141040f2f2314773fa8233e03cd0007005182d66b947ea14bcb1c8f0294f57d7dc027578cfbd98ae321559d19573444e29e92108ce43d91310cc674c4ec6d3ca31048", "index": 0, "prev_out": {"spent": true, "script": "76a914aa954f5f13dd40bdfd743fecb8b16d7ae71434bc88ac", "spending_outpoints": [{"tx_index": 3191652042945304, "n": 0}], "tx_index": 3013060479566415, "value": 19180000000, "addr": "1GYxjrb1WhUwSWV3pDWZDWpzuuvGLHhhTj", "n": 1, "type": 0}}], "out": [{"type": 0, "spent": true, "value": 19175000000, "spending_outpoints": [{"tx_index": 8506978224278817, "n": 0}], "n": 0, "tx_index": 3191652042945304, "script": "76a914bb3a49105b57e389979b0f4f5bdb15eb8ec9385a88ac", "addr": "1J4yBca5oN3mFcd1fVs6emK7hnEiEJvDa2"}, {"type": 0, "spent": true, "value": 5000000, "spending_outpoints": [{"tx_index": 502907270909547, "n": 113}], "n": 1, "tx_index": 3191652042945304, "script": "76a91407c77a30063a86d86d86e883b87569f0249e060e88ac", "addr": "1i8hGZTqXHnVt6QDdGKivqEtokZCe4NnK"}], "hex": "010000000155a2e67c92127bb709edb8aed985f100604687734ce16b89f35f9e14d25e0dae010000008b483045022003802c1ced758c400195a92fbb846d58b26e7dd391acd3ac9cb94cb3c2313c1e022100838fe637a3b011332f1ecb4fb5ac3bc69a32b0c71998d654dbaac03f825e2eb20141040f2f2314773fa8233e03cd0007005182d66b947ea14bcb1c8f0294f57d7dc027578cfbd98ae321559d19573444e29e92108ce43d91310cc674c4ec6d3ca31048ffffffff02c047eb76040000001976a914bb3a49105b57e389979b0f4f5bdb15eb8ec9385a88ac404b4c00000000001976a91407c77a30063a86d86d86e883b87569f0249e060e88ac00000000"}, {"hash": "f2f8cf05f4de747d78eb75886adf366de3185f691debb8025c7b69a0b4d8ab72", "ver": 1, "vin_sz": 1, "vout_sz": 2, "size": 258, "weight": 1032, "fee": 0, "relayed_by": "0.0.0.0", "lock_time": 0, "tx_index": 4034636822089007, "double_spend": false, "time": 1298503078, "block_index": 110029, "block_height": 110029, "inputs": [{"sequence": 4294967295, "witness": "", "script": "48304502202408b1703bdc29b88b1baf602fea7d4e09438f491cfa22b65034ccf47ef45359022100b14f3c3242c17b6553ea5454ad75a74b69abc8ca1392a3ad04c2a3c028d81caa014104d039c07651b326920c037fecd895eb5919c8c375e2fd2a21c80791015dbf15c62ed437709371e73d130e9f905fe427b34302b81effbc6704984f95a9f3d309dd", "index": 0, "prev_out": {"spent": true, "script": "76a9148dd1428fc0f989e69e78cc1e9dcb34318c6e798f88ac", "spending_outpoints": [{"tx_index": 4034636822089007, "n": 0}], "tx_index": 4278748703382485, "value": 2654000000, "addr": "1Dvrxgv7oJP2X5ipJQVbbwSgcPZuX761zF", "n": 0, "type": 0}}], "out": [{"type": 0, "spent": true, "value": 2653000000, "spending_outpoints": [{"tx_index": 2303212264581663, "n": 0}], "n": 0, "tx_index": 4034636822089007, "script": "76a91470fa56d7eced5bcb6aaf43e62d0249fe6339bacd88ac", "addr": "1BJNaMsNEEqZsxFDYbdsCSivk8tvB5haXP"}, {"type": 0, "spent": true, "value": 1000000, "spending_outpoints": [{"tx_index": 5687049976193250, "n": 34}], "n": 1, "tx_index": 4034636822089007, "script": "76a914e84b6f911944b94eeaeec0cc13f094ce98ab7d2188ac", "addr": "1NBG8sqSh632Fa81HRm39tsMEvmgpU9rgZ"}], "hex": "0100000001799bfe8462dead8065b1536fb1d68f10fef61a5f7a240d33ce0446c4aba23c55000000008b48304502202408b1703bdc29b88b1baf602fea7d4e09438f491cfa22b65034ccf47ef45359022100b14f3c3242c17b6553ea5454ad75a74b69abc8ca1392a3ad04c2a3c028d81caa014104d039c07651b326920c037fecd895eb5919c8c375e2fd2a21c80791015dbf15c62ed437709371e73d130e9f905fe427b34302b81effbc6704984f95a9f3d309ddffffffff024091219e000000001976a91470fa56d7eced5bcb6aaf43e62d0249fe6339bacd88ac40420f00000000001976a914e84b6f911944b94eeaeec0cc13f094ce98ab7d2188ac00000000"}, {"hash": "9f1bf2369c118d9d9951259a6e00fb18a57bf0657aa131f97b0e695cb969c8f1", "ver": 1, "vin_sz": 1, "vout_sz": 2, "size": 258, "weight": 1032, "fee": 0, "relayed_by": "0.0.0.0", "lock_time": 0, "tx_index": 8506978224278817, "double_spend": false, "time": 1298503078, "block_index": 110029, "block_height": 110029, "inputs": [{"sequence": 4294967295, "witness": "", "script": "48304502205b6a68fa7754e2b4e3037afe7d3b9a5b98aa2adeac82d8762f878c7e04ef26f1022100a982998e5bd1ee982282606b34c448b4aa78396703518bfb5fce297491eb257d0141048e5a49ad070ff1e721b72db76b252d3f6d43bee38a48d5f8d5ccc27e77668d64080ae37e77caffc7b937c61aed2740161bbaf7ffb78ec2f5946ea25e5a3c4c4d", "index": 0, "prev_out": {"spent": true, "script": "76a914bb3a49105b57e389979b0f4f5bdb15eb8ec9385a88ac", "spending_outpoints": [{"tx_index": 8506978224278817, "n": 0}], "tx_index": 3191652042945304, "value": 19175000000, "addr": "1J4yBca5oN3mFcd1fVs6emK7hnEiEJvDa2", "n": 0, "type": 0}}], "out": [{"type": 0, "spent": true, "value": 19170000000, "spending_outpoints": [{"tx_index": 2762773777459249, "n": 0}], "n": 0, "tx_index": 8506978224278817, "script": "76a91431c2df3ed3cfa3ebe335e2efaf3cbe04f5e5a53e88ac", "addr": "15Y7ZM9CMkfEwZdxwfoL9GZyFEUN65zUX4"}, {"type": 0, "spent": false, "value": 5000000, "spending_outpoints": [], "n": 1, "tx_index": 8506978224278817, "script": "76a9140bfe4b1e45c3d51bce0f2e568380bbdfcdc5096c88ac", "addr": "126R4jC96wJyprUskkzV7gbw7pbowMnM6m"}], "hex": "01000000015ab653322198c688b1a934251be4fc7bb79e848c9de52ac22108f08399914013000000008b48304502205b6a68fa7754e2b4e3037afe7d3b9a5b98aa2adeac82d8762f878c7e04ef26f1022100a982998e5bd1ee982282606b34c448b4aa78396703518bfb5fce297491eb257d0141048e5a49ad070ff1e721b72db76b252d3f6d43bee38a48d5f8d5ccc27e77668d64080ae37e77caffc7b937c61aed2740161bbaf7ffb78ec2f5946ea25e5a3c4c4dffffffff0280fc9e76040000001976a91431c2df3ed3cfa3ebe335e2efaf3cbe04f5e5a53e88ac404b4c00000000001976a9140bfe4b1e45c3d51bce0f2e568380bbdfcdc5096c88ac00000000"}, {"hash": "1427f6d891ea82c58dcae34eb9bc9684cfc49a29db3e44b733fe50fb26137641", "ver": 1, "vin_sz": 1, "vout_sz": 2, "size": 257, "weight": 1028, "fee": 0, "relayed_by": "0.0.0.0", "lock_time": 0, "tx_index": 2303212264581663, "double_spend": false, "time": 1298503078, "block_index": 110029, "block_height": 110029, "inputs": [{"sequence": 4294967295, "witness": "", "script": "47304402206bdd8c414022e69eb805e97e1ec3a8df42255a5826d302d60c20f0e2c93138f2022039d0810cf45ddab119773bb6cbd2a14527cdc883bb34ca7e4e86f2d44ae73b9401410410a6d81bfe36f6f61d7cc5544b359ec5f3d252a8be96e6cfb525870469c18713b4929997f3693ae84dd98ec0a22e8768d4f840629c816266cfb73bda1d643105", "index": 0, "prev_out": {"spent": true, "script": "76a91470fa56d7eced5bcb6aaf43e62d0249fe6339bacd88ac", "spending_outpoints": [{"tx_index": 2303212264581663, "n": 0}], "tx_index": 4034636822089007, "value": 2653000000, "addr": "1BJNaMsNEEqZsxFDYbdsCSivk8tvB5haXP", "n": 0, "type": 0}}], "out": [{"type": 0, "spent": true, "value": 2652000000, "spending_outpoints": [{"tx_index": 7667568084176405, "n": 0}], "n": 0, "tx_index": 2303212264581663, "script": "76a914625b52ba796b2221a40155cbeef1fe9f636cc48788ac", "addr": "19y4d3XmfwZyLrmkk3zREb3LRWn9DxJCkh"}, {"type": 0, "spent": true, "value": 1000000, "spending_outpoints": [{"tx_index": 2796049648664815, "n": 24}], "n": 1, "tx_index": 2303212264581663, "script": "76a9143f1f6f3830ecd09964f0348acee86ddcc86c400688ac", "addr": "16kmEByiQGHCT4dKoe24woLwEGMG1qQtMs"}], "hex": "010000000172abd8b4a0697b5c02b8eb1d695f18e36d36df6a8875eb787d74def405cff8f2000000008a47304402206bdd8c414022e69eb805e97e1ec3a8df42255a5826d302d60c20f0e2c93138f2022039d0810cf45ddab119773bb6cbd2a14527cdc883bb34ca7e4e86f2d44ae73b9401410410a6d81bfe36f6f61d7cc5544b359ec5f3d252a8be96e6cfb525870469c18713b4929997f3693ae84dd98ec0a22e8768d4f840629c816266cfb73bda1d643105ffffffff02004f129e000000001976a914625b52ba796b2221a40155cbeef1fe9f636cc48788ac40420f00000000001976a9143f1f6f3830ecd09964f0348acee86ddcc86c400688ac00000000"}, {"hash": "8cfe27d47e7009113d2239d158589143b507cc00f15c8368558c41cd2cd3854e", "ver": 1, "vin_sz": 1, "vout_sz": 2, "size": 258, "weight": 1032, "fee": 0, "relayed_by": "0.0.0.0", "lock_time": 0, "tx_index": 2762773777459249, "double_spend": false, "time": 1298503078, "block_index": 110029, "block_height": 110029, "inputs": [{"sequence": 4294967295, "witness": "", "script": "4830450221009a39a32f1d387c6750854ec229f9e5bb4c5fa6f766817595fa437f58bd941f07022077be17c56edd1306eb9913dfb77493f43ce2c968c239080077a543ec71d5d1df01410449eb5ef6a74805a46e62955810bfe9cb7a408b34541f5c09e8647638efd17f009905eb04968ba1ac70d5b809a3f0fd62ac1d3c7052c395630b5ddb09df427c4e", "index": 0, "prev_out": {"spent": true, "script": "76a91431c2df3ed3cfa3ebe335e2efaf3cbe04f5e5a53e88ac", "spending_outpoints": [{"tx_index": 2762773777459249, "n": 0}], "tx_index": 8506978224278817, "value": 19170000000, "addr": "15Y7ZM9CMkfEwZdxwfoL9GZyFEUN65zUX4", "n": 0, "type": 0}}], "out": [{"type": 0, "spent": true, "value": 19165000000, "spending_outpoints": [{"tx_index": 3324996061646591, "n": 0}], "n": 0, "tx_index": 2762773777459249, "script": "76a914762143c8a381bc28cd1af8e4cad6ca833d202e0b88ac", "addr": "1BmcauypHsP5m6M6KsNFCiR4v9kb7iYAX3"}, {"type": 0, "spent": true, "value": 5000000, "spending_outpoints": [{"tx_index": 7401439497278779, "n": 10}], "n": 1, "tx_index": 2762773777459249, "script": "76a9149b7022e32bfa07d6aaac1216c34f1775e022820688ac", "addr": "1FAt56jumZSqrnwWKieoFHxdWweHpeSNyS"}], "hex": "0100000001f1c869b95c690e7bf931a17a65f07ba518fb006e9a2551999d8d119c36f21b9f000000008b4830450221009a39a32f1d387c6750854ec229f9e5bb4c5fa6f766817595fa437f58bd941f07022077be17c56edd1306eb9913dfb77493f43ce2c968c239080077a543ec71d5d1df01410449eb5ef6a74805a46e62955810bfe9cb7a408b34541f5c09e8647638efd17f009905eb04968ba1ac70d5b809a3f0fd62ac1d3c7052c395630b5ddb09df427c4effffffff0240b15276040000001976a914762143c8a381bc28cd1af8e4cad6ca833d202e0b88ac404b4c00000000001976a9149b7022e32bfa07d6aaac1216c34f1775e022820688ac00000000"}, {"hash": "1eb8fa4520966e02e873e5cb69472b2a6e398d7f8ff9446468aa70967fe6ecd9", "ver": 1, "vin_sz": 1, "vout_sz": 2, "size": 258, "weight": 1032, "fee": 0, "relayed_by": "0.0.0.0", "lock_time": 0, "tx_index": 7667568084176405, "double_spend": false, "time": 1298503078, "block_index": 110029, "block_height": 110029, "inputs": [{"sequence": 4294967295, "witness": "", "script": "483045022100e5a0da4ac8de38cf91723ce0c3618a6391efccf48cb29a87f02c8295f7b5cc5902206d5882faac1b73d45082b21518030196339980ec2fbec6ef831bf6bbe5ae7ef4014104b1380a23677a4859bde1336508e753dcb0804bec1d164369c22391e6d20bc1d800d506aa45958c809b1433b0a16802ab784e35c8b2c9f3be45d6aa325c0bbfc7", "index": 0, "prev_out": {"spent": true, "script": "76a914625b52ba796b2221a40155cbeef1fe9f636cc48788ac", "spending_outpoints": [{"tx_index": 7667568084176405, "n": 0}], "tx_index": 2303212264581663, "value": 2652000000, "addr": "19y4d3XmfwZyLrmkk3zREb3LRWn9DxJCkh", "n": 0, "type": 0}}], "out": [{"type": 0, "spent": true, "value": 2651000000, "spending_outpoints": [{"tx_index": 5525845794716772, "n": 0}], "n": 0, "tx_index": 7667568084176405, "script": "76a914110de62c273f3b972e8206c911acab4d78545f9588ac", "addr": "12ZB8zKdJY52FGkScHcWkRWpRNLZgJaoh6"}, {"type": 0, "spent": true, "value": 1000000, "spending_outpoints": [{"tx_index": 5387410876881160, "n": 40}], "n": 1, "tx_index": 7667568084176405, "script": "76a9140325bb2bdf3473e99084df8414b39bd0afa9c86788ac", "addr": "1HeEBVezxJU3hS6jr1ccvSGEEMtEy1ue2"}], "hex": "010000000141761326fb50fe33b7443edb299ac4cf8496bcb94ee3ca8dc582ea91d8f62714000000008b483045022100e5a0da4ac8de38cf91723ce0c3618a6391efccf48cb29a87f02c8295f7b5cc5902206d5882faac1b73d45082b21518030196339980ec2fbec6ef831bf6bbe5ae7ef4014104b1380a23677a4859bde1336508e753dcb0804bec1d164369c22391e6d20bc1d800d506aa45958c809b1433b0a16802ab784e35c8b2c9f3be45d6aa325c0bbfc7ffffffff02c00c039e000000001976a914110de62c273f3b972e8206c911acab4d78545f9588ac40420f00000000001976a9140325bb2bdf3473e99084df8414b39bd0afa9c86788ac00000000"}, {"hash": "2428337e97b18ebb3de1c53e32eb3d32f5a07d5b4969ebe086fe7712c987805e", "ver": 1, "vin_sz": 1, "vout_sz": 2, "size": 259, "weight": 1036, "fee": 0, "relayed_by": "0.0.0.0", "lock_time": 0, "tx_index": 3324996061646591, "double_spend": false, "time": 1298503078, "block_index": 110029, "block_height": 110029, "inputs": [{"sequence": 4294967295, "witness": "", "script": "493046022100b3552e77e026ab64abc657aa8e8eefe3fc79240bd6212ed7c04478175d34f384022100f00a50ab3de550174141dde1e6bb6dae8a812080b4f0e3c36125cd5e504de8aa0141049fc15d4a496152dbbaa17b825d358bd0087951161ea3b0c0a39fedc23cea96a64db7675455cd633a3ca94b6ce0f894830bf36179632227c22ceb1bb17ccffd7a", "index": 0, "prev_out": {"spent": true, "script": "76a914762143c8a381bc28cd1af8e4cad6ca833d202e0b88ac", "spending_outpoints": [{"tx_index": 3324996061646591, "n": 0}], "tx_index": 2762773777459249, "value": 19165000000, "addr": "1BmcauypHsP5m6M6KsNFCiR4v9kb7iYAX3", "n": 0, "type": 0}}], "out": [{"type": 0, "spent": true, "value": 19160000000, "spending_outpoints": [{"tx_index": 5920278255376272, "n": 0}], "n": 0, "tx_index": 3324996061646591, "script": "76a9143029d1e3ccedf8c540f190ed6d75278e04fe83b588ac", "addr": "15PfXuSnTrr7KSD2CLNBvajne3VTHSPt5B"}, {"type": 0, "spent": true, "value": 5000000, "spending_outpoints": [{"tx_index": 4086130423388664, "n": 123}], "n": 1, "tx_index": 3324996061646591, "script": "76a91461b98e3f03e0e0d59ec697334f457dbe3f58013388ac", "addr": "19uiqEvbHFQUsVyQSubNtHmuZQBPZy1Gr5"}], "hex": "01000000014e85d32ccd418c5568835cf100cc07b543915858d139223d1109707ed427fe8c000000008c493046022100b3552e77e026ab64abc657aa8e8eefe3fc79240bd6212ed7c04478175d34f384022100f00a50ab3de550174141dde1e6bb6dae8a812080b4f0e3c36125cd5e504de8aa0141049fc15d4a496152dbbaa17b825d358bd0087951161ea3b0c0a39fedc23cea96a64db7675455cd633a3ca94b6ce0f894830bf36179632227c22ceb1bb17ccffd7affffffff0200660676040000001976a9143029d1e3ccedf8c540f190ed6d75278e04fe83b588ac404b4c00000000001976a91461b98e3f03e0e0d59ec697334f457dbe3f58013388ac00000000"}, {"hash": "a408efffa4926e5d8d2a3cbb1a672f97547c398c41fd181d6b83bc1093b143a8", "ver": 1, "vin_sz": 1, "vout_sz": 2, "size": 258, "weight": 1032, "fee": 0, "relayed_by": "0.0.0.0", "lock_time": 0, "tx_index": 5920278255376272, "double_spend": false, "time": 1298503078, "block_index": 110029, "block_height": 110029, "inputs": [{"sequence": 4294967295, "witness": "", "script": "48304502210086afd4d9316b134e2604edc8f727c8cb46dd222f5ab8788f4fca0c647403e490022005ab1023e4e5d7cf132bc1a2bac26dbcfe3644feb03bf0845ca3d2f72d56309d014104267bd745de9b124a915acaa1be5ced2ae4f129b3a15855bbe31484038eabf99ccb883d357f0efbd224acd3e3ecac6daaafad01c29610cfdf69f7f5aa97145652", "index": 0, "prev_out": {"spent": true, "script": "76a9143029d1e3ccedf8c540f190ed6d75278e04fe83b588ac", "spending_outpoints": [{"tx_index": 5920278255376272, "n": 0}], "tx_index": 3324996061646591, "value": 19160000000, "addr": "15PfXuSnTrr7KSD2CLNBvajne3VTHSPt5B", "n": 0, "type": 0}}], "out": [{"type": 0, "spent": true, "value": 5000000, "spending_outpoints": [{"tx_index": 4086130423388664, "n": 124}], "n": 0, "tx_index": 5920278255376272, "script": "76a914957842a060f5d53fb22b26b1075ef174af1c6c0b88ac", "addr": "1EdKkQuBSM6J5EFkVhMfc9XcyPUD8FtjwL"}, {"type": 0, "spent": true, "value": 19155000000, "spending_outpoints": [{"tx_index": 7425971536988797, "n": 0}], "n": 1, "tx_index": 5920278255376272, "script": "76a914c58d568edb4c36b4e412e009a5c2bdedc5d0e0c588ac", "addr": "1K1ZS8qdeZia6ayDnLLkHQiAbujngpE3qH"}], "hex": "01000000015e8087c91277fe86e0eb69495b7da0f5323deb323ec5e13dbb8eb1977e332824000000008b48304502210086afd4d9316b134e2604edc8f727c8cb46dd222f5ab8788f4fca0c647403e490022005ab1023e4e5d7cf132bc1a2bac26dbcfe3644feb03bf0845ca3d2f72d56309d014104267bd745de9b124a915acaa1be5ced2ae4f129b3a15855bbe31484038eabf99ccb883d357f0efbd224acd3e3ecac6daaafad01c29610cfdf69f7f5aa97145652ffffffff02404b4c00000000001976a914957842a060f5d53fb22b26b1075ef174af1c6c0b88acc01aba75040000001976a914c58d568edb4c36b4e412e009a5c2bdedc5d0e0c588ac00000000"}, {"hash": "7e60f363cafeaece31a14fcb3ad3dc035e0f5d6d4fc9af74bdec5398dc0d0fd3", "ver": 1, "vin_sz": 1, "vout_sz": 2, "size": 257, "weight": 1028, "fee": 0, "relayed_by": "0.0.0.0", "lock_time": 0, "tx_index": 7425971536988797, "double_spend": false, "time": 1298503078, "block_index": 110029, "block_height": 110029, "inputs": [{"sequence": 4294967295, "witness": "", "script": "4730440220172e1bed5d22dd6c1b3a765b135709061f8d6b77b7e270a7a53f9790c4ef259a022075d7ae8ac5ad637edb03f02dbe102a986971a0fd6d106ff9c1ea7525f984253501410491b13a047d19d31998d35a3272547bebf1c251424958346612dc355391106b7049f8e5a112f35ebd25cd23a186a4038605b68f85a041cff9ae15627bbfbd91ed", "index": 0, "prev_out": {"spent": true, "script": "76a914c58d568edb4c36b4e412e009a5c2bdedc5d0e0c588ac", "spending_outpoints": [{"tx_index": 7425971536988797, "n": 0}], "tx_index": 5920278255376272, "value": 19155000000, "addr": "1K1ZS8qdeZia6ayDnLLkHQiAbujngpE3qH", "n": 1, "type": 0}}], "out": [{"type": 0, "spent": false, "value": 5000000, "spending_outpoints": [], "n": 0, "tx_index": 7425971536988797, "script": "76a91461ec9616d801c0a6988ca188792c1512836ef10588ac", "addr": "19vmxuqEUxfDkvmhWk9QFBvcdzHjBkS5zt"}, {"type": 0, "spent": true, "value": 19150000000, "spending_outpoints": [{"tx_index": 2235501633378166, "n": 0}], "n": 1, "tx_index": 7425971536988797, "script": "76a9147e0c60aa981076f8da57aa568b5875e9515ac63d88ac", "addr": "1CVUyBXoZ2cNKLzhJHpmkDWt9uCFauBpFG"}], "hex": "0100000001a843b19310bc836b1d18fd418c397c54972f671abb3c2a8d5d6e92a4ffef08a4010000008a4730440220172e1bed5d22dd6c1b3a765b135709061f8d6b77b7e270a7a53f9790c4ef259a022075d7ae8ac5ad637edb03f02dbe102a986971a0fd6d106ff9c1ea7525f984253501410491b13a047d19d31998d35a3272547bebf1c251424958346612dc355391106b7049f8e5a112f35ebd25cd23a186a4038605b68f85a041cff9ae15627bbfbd91edffffffff02404b4c00000000001976a91461ec9616d801c0a6988ca188792c1512836ef10588ac80cf6d75040000001976a9147e0c60aa981076f8da57aa568b5875e9515ac63d88ac00000000"}, {"hash": "2f6fd606edfd7b30e18b537ea6b863908eefb35df14910bbbbb3bb04466a893f", "ver": 1, "vin_sz": 1, "vout_sz": 2, "size": 258, "weight": 1032, "fee": 0, "relayed_by": "0.0.0.0", "lock_time": 0, "tx_index": 2235501633378166, "double_spend": false, "time": 1298503078, "block_index": 110029, "block_height": 110029, "inputs": [{"sequence": 4294967295, "witness": "", "script": "483045022100f3e71d47fe7e8540e8f6eac4f1925494890386adc084d9f7e621b888b959bd3102200af0394bde2ef9a009636ff92e914c3bc3be545fc07577e220fff01a836ff9840141040409ff9ae010956f67f8830e9581225134be58082dd999cda975c7035b1983e74483cfe34cfd0f0ee7e41c7871e1a19ae222b7ea350f1218c633ca479e106871", "index": 0, "prev_out": {"spent": true, "script": "76a9147e0c60aa981076f8da57aa568b5875e9515ac63d88ac", "spending_outpoints": [{"tx_index": 2235501633378166, "n": 0}], "tx_index": 7425971536988797, "value": 19150000000, "addr": "1CVUyBXoZ2cNKLzhJHpmkDWt9uCFauBpFG", "n": 1, "type": 0}}], "out": [{"type": 0, "spent": true, "value": 19145000000, "spending_outpoints": [{"tx_index": 6005661662188659, "n": 0}], "n": 0, "tx_index": 2235501633378166, "script": "76a9143c5f6aaad469a94c04ce9b444ba59353dc62493288ac", "addr": "16WDrBDpQJiouRXMyFff4x8niu9pjt2T29"}, {"type": 0, "spent": true, "value": 5000000, "spending_outpoints": [{"tx_index": 967834051851735, "n": 2}], "n": 1, "tx_index": 2235501633378166, "script": "76a914cbffac9a8eaa38d5bc3840eb79998b03a538db0d88ac", "addr": "1KbeTVvmdosb1N2CVycYEyCjkpYgQ5xL21"}], "hex": "0100000001d30f0ddc9853ecbd74afc94f6d5d0f5e03dcd33acb4fa131ceaefeca63f3607e010000008b483045022100f3e71d47fe7e8540e8f6eac4f1925494890386adc084d9f7e621b888b959bd3102200af0394bde2ef9a009636ff92e914c3bc3be545fc07577e220fff01a836ff9840141040409ff9ae010956f67f8830e9581225134be58082dd999cda975c7035b1983e74483cfe34cfd0f0ee7e41c7871e1a19ae222b7ea350f1218c633ca479e106871ffffffff0240842175040000001976a9143c5f6aaad469a94c04ce9b444ba59353dc62493288ac404b4c00000000001976a914cbffac9a8eaa38d5bc3840eb79998b03a538db0d88ac00000000"}, {"hash": "357039e3754662e86d7187f024a0634b212122060dfab403279ea32090f0b0aa", "ver": 1, "vin_sz": 1, "vout_sz": 2, "size": 257, "weight": 1028, "fee": 0, "relayed_by": "0.0.0.0", "lock_time": 0, "tx_index": 6005661662188659, "double_spend": false, "time": 1298503078, "block_index": 110029, "block_height": 110029, "inputs": [{"sequence": 4294967295, "witness": "", "script": "47304402203f93db866537bcd1f31788c4f155dca41a56cb09d6e09f9cbae707690fb8916102200f154761e5f078b11548de19fa05682d2a707eaa7685b461ddcc1e63d6d8f4d5014104fe6dfe23918b1b4a36f7119a83841e1e1be158297ce1e5731a29326c086db8a874ee956a0672c7842628ba9a9463f6336aa2acec7076c7da4840441336f1ca94", "index": 0, "prev_out": {"spent": true, "script": "76a9143c5f6aaad469a94c04ce9b444ba59353dc62493288ac", "spending_outpoints": [{"tx_index": 6005661662188659, "n": 0}], "tx_index": 2235501633378166, "value": 19145000000, "addr": "16WDrBDpQJiouRXMyFff4x8niu9pjt2T29", "n": 0, "type": 0}}], "out": [{"type": 0, "spent": true, "value": 5000000, "spending_outpoints": [{"tx_index": 175287985090957, "n": 2}], "n": 0, "tx_index": 6005661662188659, "script": "76a914497f1120f4221cbb8079c72dfe4590c388cd7bf188ac", "addr": "17hcYmW1BhR9FmTjEvCHuZJchnL1tzTSNw"}, {"type": 0, "spent": true, "value": 19140000000, "spending_outpoints": [{"tx_index": 4435033710323959, "n": 0}], "n": 1, "tx_index": 6005661662188659, "script": "76a914174a82ece33a984703ac07d2fdf243b07705af0388ac", "addr": "1389oZJ8jKTKdvxPJ6uuhiKJoc7m8Z9oxs"}], "hex": "01000000013f896a4604bbb3bbbb1049f15db3ef8e9063b8a67e538be1307bfded06d66f2f000000008a47304402203f93db866537bcd1f31788c4f155dca41a56cb09d6e09f9cbae707690fb8916102200f154761e5f078b11548de19fa05682d2a707eaa7685b461ddcc1e63d6d8f4d5014104fe6dfe23918b1b4a36f7119a83841e1e1be158297ce1e5731a29326c086db8a874ee956a0672c7842628ba9a9463f6336aa2acec7076c7da4840441336f1ca94ffffffff02404b4c00000000001976a914497f1120f4221cbb8079c72dfe4590c388cd7bf188ac0039d574040000001976a914174a82ece33a984703ac07d2fdf243b07705af0388ac00000000"}]}