{"hash": "0000000000018d067c617c2e262e544bae4807e413122b1f4814077a15ac57c6", "ver": 1, "prev_block": "000000000001bbda3f22ef8e476b470a2d3ae16821c23a6d22db77318d0799a9", "mrkl_root": "eee4f6acb0a829de36141f0846f0cc50a71a2c01bd29beac82f0720207555490", "time": 1298492024, "bits": 453102630, "next_block": ["00000000000079adda70daf7c6aaf92131ccd72b594fe8ec27a5988f8f818ab3"], "fee": 0, "nonce": 1758768387, "n_tx": 12, "size": 2983, "block_index": 110001, "main_chain": true, "height": 110001, "weight": 11932, "tx": [{"hash": "e0fb3de8df7f60d3e0b33b9bd629bc532d484ed80616cb699342fe5c385c598a", "ver": 1, "vin_sz": 1, "vout_sz": 1, "size": 134, "weight": 536, "fee": 0, "relayed_by": "0.0.0.0", "lock_time": 0, "tx_index": 4867724925444040, "double_spend": false, "time": 1298492024, "block_index": 110001, "block_height": 110001, "inputs": [{"sequence": 4294967295, "witness": "", "script": "0426cc011b016b", "index": 0, "prev_out": null}], "out": [{"type": 0, "spent": true, "value": 5000000000, "spending_outpoints": [{"tx_index": 4667881556498677, "n": 9}], "n": 0, "tx_index": 4867724925444040, "script": "41043af9d3ee34f3a715bc01e1be0302a059673f1b5d3f35dbe6b8363704b66348dfe32263e581fe08dcd932742ddf64b70f9d9c9b0a82594bdfa5d17dae222c19bfac", "addr": "1FmFDStza5Wd7PdPrb5tzRYFSvUAaLUezf"}], "hex": "01000000010000000000000000000000000000000000000000000000000000000000000000ffffffff070426cc011b016bffffffff0100f2052a010000004341043af9d3ee34f3a715bc01e1be0302a059673f1b5d3f35dbe6b8363704b66348dfe32263e581fe08dcd932742ddf64b70f9d9c9b0a82594bdfa5d17dae222c19bfac00000000"}, {"hash": "c8b73616f328a1c3f11ff07e9a2895962294755cd17e9239960988b1cdda4445", "ver": 1, "vin_sz": 1, "vout_sz": 2, "size": 257, "weight": 1028, "fee": 0, "relayed_by": "0.0.0.0", "lock_time": 0, "tx_index": 2437184992194817, "double_spend": false, "time": 1298492024, "block_index": 110001, "block_height": 110001, "inputs": [{"sequence": 4294967295, "witness": "", "script": "47304402207265bfb8b2a0acc8fa94aa24c8dfb3ea19752371f2e4897dc55a1fdc4ff4de2a022026e27ca13da467d411cb881582cb355d202b77cdecc958b3d48142dc361157ae014104b997f02308711b40b3eb48504985c8412c02b7174878617986f93a51d97fe2dd460073fd11f446bda43ff05924a71873ecbb28ea851a8c09f0ac367d53b83cc3", "index": 0, "prev_out": {"spent": true, "script": "76a91436c579112086865ba01b65786ef4791bdc53708688ac", "spending_outpoints": [{"tx_index": 2437184992194817, "n": 0}], "tx_index": 7179227237670742, "value": 19655000000, "addr": "15zc422XhaY2oyKZoB1aJQaWGLj77ndSmE", "n": 0, "type": 0}}], "out": [{"type": 0, "spent": false, "value": 5000000, "spending_outpoints": [], "n": 0, "tx_index": 2437184992194817, "script": "76a914262bbf70df6b91073680bf9de5ab995fac7b280c88ac", "addr": "14Uq5wasf41JwFocpB66TJB2kXpmgGtJQ3"}, {"type": 0, "spent": true, "value": 19650000000, "spending_outpoints": [{"tx_index": 2447700187467103, "n": 0}], "n": 1, "tx_index": 2437184992194817, "script": "76a9143a443e6c9770df53dcacc4c2af1e6d477df2888788ac", "addr": "16K5wnuxjSHpToCjb7ssSgTfNrMvbTkguW"}], "hex": "0100000001cc0bc0ca1afab40ada80287fe6ac6a5640fa29cd5e1119ffd8fa3d835b5f3e0f000000008a47304402207265bfb8b2a0acc8fa94aa24c8dfb3ea19752371f2e4897dc55a1fdc4ff4de2a022026e27ca13da467d411cb881582cb355d202b77cdecc958b3d48142dc361157ae014104b997f02308711b40b3eb48504985c8412c02b7174878617986f93a51d97fe2dd460073fd11f446bda43ff05924a71873ecbb28ea851a8c09f0ac367d53b83cc3ffffffff02404b4c00000000001976a914262bbf70df6b91073680bf9de5ab995fac7b280c88ac80343b93040000001976a9143a443e6c9770df53dcacc4c2af1e6d477df2888788ac00000000"}, {"hash": "58e00e7b1967fd64984a8d887d93f9aaa121508f063da7dc22632871537982c2", "ver": 1, "vin_sz": 1, "vout_sz": 2, "size": 258, "weight": 1032, "fee": 0, "relayed_by": "0.0.0.0", "lock_time": 0, "tx_index": 6843700385555724, "double_spend": false, "time": 1298492024, "block_index": 110001, "block_height": 110001, "inputs": [{"sequence": 4294967295, "witness": "", "script": "48304502206075a82e8144becfc652da9771a97df1680cdbd38d7b2d232068ea4fe915c4600221008256e1956b5c4dcaaa78997b3246da83955b3ec34b2145e1328c4292914a84eb014104716bf36a8884b27c4df4d520038292a86845150609bdc1950d95de46e364b4b84c17202495001f1172c472f82558b4e2382f87090430ef7d56acc1fc49a3c21d", "index": 0, "prev_out": {"spent": true, "script": "76a9149181add04c1951dc52716372f0b5c3359a42739088ac", "spending_outpoints": [{"tx_index": 6843700385555724, "n": 0}], "tx_index": 7380890731122029, "value": 3330000000, "addr": "1EGNL4v2AVgnkwsauzAbzHB3iyNnzJLtJh", "n": 0, "type": 0}}], "out": [{"type": 0, "spent": true, "value": 26000000, "spending_outpoints": [{"tx_index": 4194507726165933, "n": 37}], "n": 0, "tx_index": 6843700385555724, "script": "76a9148eff121937e2336b80eea320e9f0743302e0a84e88ac", "addr": "1E36Ws31aptSPsBqvc4FpEqCB5d2NQ5aKn"}, {"type": 0, "spent": true, "value": 3304000000, "spending_outpoints": [{"tx_index": 5527707486871739, "n": 0}], "n": 1, "tx_index": 6843700385555724, "script": "76a914bd5dd20d72799d0d9e6e3287abd22fc9394ceb9488ac", "addr": "1JGH729cBsqtPMZZAjTb1qCUSUhSFMEsSm"}], "hex": "0100000001d1c70c513c6b69f33967c9c7cfc4ebe3c34e32787c213e34f46e9203083f74a1000000008b48304502206075a82e8144becfc652da9771a97df1680cdbd38d7b2d232068ea4fe915c4600221008256e1956b5c4dcaaa78997b3246da83955b3ec34b2145e1328c4292914a84eb014104716bf36a8884b27c4df4d520038292a86845150609bdc1950d95de46e364b4b84c17202495001f1172c472f82558b4e2382f87090430ef7d56acc1fc49a3c21dffffffff0280ba8c01000000001976a9148eff121937e2336b80eea320e9f0743302e0a84e88ac000aefc4000000001976a914bd5dd20d72799d0d9e6e3287abd22fc9394ceb9488ac00000000"}, {"hash": "7cde0fc916c454444c345e941ad15717ba9a005bd903a56bf5830de73cb333c3", "ver": 1, "vin_sz": 1, "vout_sz": 1, "size": 223, "weight": 892, "fee": 0, "relayed_by": "0.0.0.0", "lock_time": 0, "tx_index": 6868058171564464, "double_spend": false, "time": 1298492024, "block_index": 110001, "block_height": 110001, "inputs": [{"sequence": 4294967295, "witness": "", "script": "4730440220061c2cea04ba6eb87fe31b3d8076cae00760ea8c22f7e91df624aa8a8f91c260022013f1d881432c3a0c315d5b1018d63d7a6d743ac558039c1574516a4605cff0800141047e805e99946f86d3e94beecfb8627aeb9e7146aece84ac737b3a47a491302b8073f8fa65433c32ce79a81a9435363f314f43c14a6aa1cdad1b4133ecce93b7c3", "index": 0, "prev_out": {"spent": true, "script": "76a9142879182a548ab6fd7a54f7a034df0e2d1e046d3f88ac", "spending_outpoints": [{"tx_index": 6868058171564464, "n": 0}], "tx_index": 2091183736785989, "value": 100000000, "addr": "14h16TeFKaYD3XfhKcNKH4GUEfDtbg2RhR", "n": 0, "type": 0}}], "out": [{"type": 0, "spent": true, "value": 100000000, "spending_outpoints": [{"tx_index": 3621443617093140, "n": 0}], "n": 0, "tx_index": 6868058171564464, "script": "76a9142879182a548ab6fd7a54f7a034df0e2d1e046d3f88ac", "addr": "14h16TeFKaYD3XfhKcNKH4GUEfDtbg2RhR"}], "hex": "01000000013b6f5d3e54622bbf0c1d5de770ca928e75b822638efbdb9cc71d2f1e79e7a146000000008a4730440220061c2cea04ba6eb87fe31b3d8076cae00760ea8c22f7e91df624aa8a8f91c260022013f1d881432c3a0c315d5b1018d63d7a6d743ac558039c1574516a4605cff0800141047e805e99946f86d3e94beecfb8627aeb9e7146aece84ac737b3a47a491302b8073f8fa65433c32ce79a81a9435363f314f43c14a6aa1cdad1b4133ecce93b7c3ffffffff0100e1f505000000001976a9142879182a548ab6fd7a54f7a034df0e2d1e046d3f88ac00000000"}, {"hash": "8a1eba79f608562f71362ef986a4f36c3402fe3acdc2087e1516029894b992c8", "ver": 1, "vin_sz": 1, "vout_sz": 1, "size": 223, "weight": 892, "fee": 0, "relayed_by": "0.0.0.0", "lock_time": 0, "tx_index": 7057040137715778, "double_spend": false, "time": 1298492024, "block_index": 110001, "block_height": 110001, "inputs": [{"sequence": 4294967295, "witness": "", "script": "473044022078bd5e9791572b598dfa855056c72e551332b9fffb3c7e46a80e1414ea082c47022044f9ce8d2cf76bb9124a8538bb2c9ba619176e7d2d33053b349968693f5b25720141045dbd96c147fc9a704df1f60e70208e7a0a88e0f4e45f665ea41cdfef6b890fc45cb96638ab84bda548fe40fa6ef6591d2a05508951ba032bcc37a2f656d58297", "index": 0, "prev_out": {"spent": true, "script": "76a914196e87a0563fb21042465a8967e0764bb54cf7b788ac", "spending_outpoints": [{"tx_index": 7057040137715778, "n": 0}], "tx_index": 526682777180784, "value": 5000000, "addr": "13KUJYLKSQYV1qGKfKziApsNLckqwgZ7Z7", "n": 1, "type": 0}}], "out": [{"type": 0, "spent": true, "value": 5000000, "spending_outpoints": [{"tx_index": 2766624700284050, "n": 3}], "n": 0, "tx_index": 7057040137715778, "script": "76a914380bdd9c2931fb6b904f5b2a74d4dcd94ab3cd1f88ac", "addr": "167M4BdcSFXDHbBVM2R2ujs5tbBwbS2eX6"}], "hex": "01000000010ef81f1ebed38097d6f8b4c020082765d4df1082432554d514d97831d7774ec3010000008a473044022078bd5e9791572b598dfa855056c72e551332b9fffb3c7e46a80e1414ea082c47022044f9ce8d2cf76bb9124a8538bb2c9ba619176e7d2d33053b349968693f5b25720141045dbd96c147fc9a704df1f60e70208e7a0a88e0f4e45f665ea41cdfef6b890fc45cb96638ab84bda548fe40fa6ef6591d2a05508951ba032bcc37a2f656d58297ffffffff01404b4c00000000001976a914380bdd9c2931fb6b904f5b2a74d4dcd94ab3cd1f88ac00000000"}, {"hash": "8a294d86f736a1bd73cd5a9de2c6d5abc08412a454b9b04ecdfc6a86e15c9145", "ver": 1, "vin_sz": 1, "vout_sz": 2, "size": 257, "weight": 1028, "fee": 0, "relayed_by": "0.0.0.0", "lock_time": 0, "tx_index": 2447700187467103, "double_spend": false, "time": 1298492024, "block_index": 110001, "block_height": 110001, "inputs": [{"sequence": 4294967295, "witness": "", "script": "47304402205c71cbe8b74583ea90d978f3b2e0770c85a4f50c642863bef762036bd7295c9e022015119c83955b640e77cfd8e08c404d95eaae6ecec8c01e678a7fff30db63022d0141044ecd51572c3492d39b9a44b9b3b1e77db1d3c46343e18d1213c3ef1602e44b68639445b10de38a8107711d2a33b01f8aa9d94f51a801e546ceab6ff2fec6e8e5", "index": 0, "prev_out": {"spent": true, "script": "76a9143a443e6c9770df53dcacc4c2af1e6d477df2888788ac", "spending_outpoints": [{"tx_index": 2447700187467103, "n": 0}], "tx_index": 2437184992194817, "value": 19650000000, "addr": "16K5wnuxjSHpToCjb7ssSgTfNrMvbTkguW", "n": 1, "type": 0}}], "out": [{"type": 0, "spent": true, "value": 5000000, "spending_outpoints": [{"tx_index": 3308718157915123, "n": 3}], "n": 0, "tx_index": 2447700187467103, "script": "76a914c36c067031cf0db52bc22de680929b7abdc19b7488ac", "addr": "1JpJB8JXb4XobRUddGQyTQm5v3qgcV6tbA"}, {"type": 0, "spent": true, "value": 19645000000, "spending_outpoints": [{"tx_index": 648432922302870, "n": 0}], "n": 1, "tx_index": 2447700187467103, "script": "76a9145a7d741273ef55818555f60d01f98157f4a4075188ac", "addr": "19FU6vNgkGC53BbnGZxEm4dcuzaQcddgcZ"}], "hex": "01000000014544dacdb188099639927ed15c7594229695289a7ef01ff1c3a128f31636b7c8010000008a47304402205c71cbe8b74583ea90d978f3b2e0770c85a4f50c642863bef762036bd7295c9e022015119c83955b640e77cfd8e08c404d95eaae6ecec8c01e678a7fff30db63022d0141044ecd51572c3492d39b9a44b9b3b1e77db1d3c46343e18d1213c3ef1602e44b68639445b10de38a8107711d2a33b01f8aa9d94f51a801e546ceab6ff2fec6e8e5ffffffff02404b4c00000000001976a914c36c067031cf0db52bc22de680929b7abdc19b7488ac40e9ee92040000001976a9145a7d741273ef55818555f60d01f98157f4a4075188ac00000000"}, {"hash": "3edcfbd2bdf865e424f5b9f3e6dfd5788ce33340b9919ac40bdd056b895d1b9d", "ver": 1, "vin_sz": 1, "vout_sz": 2, "size": 258, "weight": 1032, "fee": 0, "relayed_by": "0.0.0.0", "lock_time": 0, "tx_index": 5527707486871739, "double_spend": false, "time": 1298492024, "block_index": 110001, "block_height": 110001, "inputs": [{"sequence": 4294967295, "witness": "", "script": "483045022100abaed1f1b58efd0ab78c841f9f6333acc1004acdbdaa1fb51a1df69a7d4cc4130220284110e33e5ca04d770ef9eef0137a6a9959d72f77d28638d6c985ce6e101592014104a4a871685aada3ee69c31b7ae794ad1699997afb72de7422fa02a983530f12149c135aa9a325436d9cd9b93785a8477412114b2784c70baaae22c4700f8bfeb7", "index": 0, "prev_out": {"spent": true, "script": "76a914bd5dd20d72799d0d9e6e3287abd22fc9394ceb9488ac", "spending_outpoints": [{"tx_index": 5527707486871739, "n": 0}], "tx_index": 6843700385555724, "value": 3304000000, "addr": "1JGH729cBsqtPMZZAjTb1qCUSUhSFMEsSm", "n": 1, "type": 0}}], "out": [{"type": 0, "spent": true, "value": 3288000000, "spending_outpoints": [{"tx_index": 1356940956769339, "n": 0}], "n": 0, "tx_index": 5527707486871739, "script": "76a914812590399e6a2feb2e304ec23afa1e23389babfa88ac", "addr": "1CmsAhLYkogH6hG1JUSNXXsTn7qvN9kxFD"}, {"type": 0, "spent": true, "value": 16000000, "spending_outpoints": [{"tx_index": 2474030250052983, "n": 24}], "n": 1, "tx_index": 5527707486871739, "script": "76a914460f96aab63b3c9b8a12c8025fc5111074cf983488ac", "addr": "17PSyYGLGQj7okX3Aj6cWDXRoxqwD4cByA"}], "hex": "0100000001c282795371286322dca73d068f5021a1aaf9937d888d4a9864fd67197b0ee058010000008b483045022100abaed1f1b58efd0ab78c841f9f6333acc1004acdbdaa1fb51a1df69a7d4cc4130220284110e33e5ca04d770ef9eef0137a6a9959d72f77d28638d6c985ce6e101592014104a4a871685aada3ee69c31b7ae794ad1699997afb72de7422fa02a983530f12149c135aa9a325436d9cd9b93785a8477412114b2784c70baaae22c4700f8bfeb7ffffffff0200e6fac3000000001976a914812590399e6a2feb2e304ec23afa1e23389babfa88ac0024f400000000001976a914460f96aab63b3c9b8a12c8025fc5111074cf983488ac00000000"}, {"hash": "341f6ba21a8d1028b8f7c03a52914289e8ff73776d25020ab4b0ccf46ff86d12", "ver": 1, "vin_sz": 1, "vout_sz": 2, "size": 259, "weight": 1036, "fee": 0, "relayed_by": "0.0.0.0", "lock_time": 0, "tx_index": 648432922302870, "double_spend": false, "time": 1298492024, "block_index": 110001, "block_height": 110001, "inputs": [{"sequence": 4294967295, "witness": "", "script": "493046022100d36c0fd360b981b7aa1409aad2242f2ea611a797b33f9a14bcbda166292a2249022100c4084f9b6a88ce58e312e7f6def7deaa215ce21883e283ac5f10e8b4380e80640141041eeb4fd2f875e233c622926b55638333c6a46df9654c36182dd026d5ca8d1d2543314cb9adf0f675440658fa3fd70b59b23cefec800504000dc63a49d98578fe", "index": 0, "prev_out": {"spent": true, "script": "76a9145a7d741273ef55818555f60d01f98157f4a4075188ac", "spending_outpoints": [{"tx_index": 648432922302870, "n": 0}], "tx_index": 2447700187467103, "value": 19645000000, "addr": "19FU6vNgkGC53BbnGZxEm4dcuzaQcddgcZ", "n": 1, "type": 0}}], "out": [{"type": 0, "spent": true, "value": 19640000000, "spending_outpoints": [{"tx_index": 5269691156706081, "n": 0}], "n": 0, "tx_index": 648432922302870, "script": "76a9148fad04fb6ab2fc913fbf1e494c76ceb7f6b4ad6c88ac", "addr": "1E6gu31eXVMCLH7qeCkuHH24hgJGURWy7A"}, {"type": 0, "spent": false, "value": 5000000, "spending_outpoints": [], "n": 1, "tx_index": 648432922302870, "script": "76a91441669b5ac35345986f8b2089c1cd45fa0dee006e88ac", "addr": "16xoqiesisyeh17R7LRewLsm39xaMkSu7Q"}], "hex": "010000000145915ce1866afccd4eb0b954a41284c0abd5c6e29d5acd73bda136f7864d298a010000008c493046022100d36c0fd360b981b7aa1409aad2242f2ea611a797b33f9a14bcbda166292a2249022100c4084f9b6a88ce58e312e7f6def7deaa215ce21883e283ac5f10e8b4380e80640141041eeb4fd2f875e233c622926b55638333c6a46df9654c36182dd026d5ca8d1d2543314cb9adf0f675440658fa3fd70b59b23cefec800504000dc63a49d98578feffffffff02009ea292040000001976a9148fad04fb6ab2fc913fbf1e494c76ceb7f6b4ad6c88ac404b4c00000000001976a91441669b5ac35345986f8b2089c1cd45fa0dee006e88ac00000000"}, {"hash": "54ed8ceae77cea1ca131c770df0697f71d394c77a0c36df773d9e1ac7d0b9126", "ver": 1, "vin_sz": 1, "vout_sz": 2, "size": 259, "weight": 1036, "fee": 0, "relayed_by": "0.0.0.0", "lock_time": 0, "tx_index": 1356940956769339, "double_spend": false, "time": 1298492024, "block_index": 110001, "block_height": 110001, "inputs": [{"sequence": 4294967295, "witness": "", "script": "493046022100a52969fdc04d25f80e943acc0507346785103e13b17feb0b0b1500108c86fbc102210099d7693db648e40ab7aa1c6e24ca43ceffe9e5394646afe84c5abd099a3c329e01410477f987f13ff2b77b3a07b08b56b10a5d5bde56f0056aa5761fdaa9cdbabdeaf6d7af707c1c7ca7fb4fc0c21ff832adbf5f9b0bca058f87b20ef65edf58f241fd", "index": 0, "prev_out": {"spent": true, "script": "76a914812590399e6a2feb2e304ec23afa1e23389babfa88ac", "spending_outpoints": [{"tx_index": 1356940956769339, "n": 0}], "tx_index": 5527707486871739, "value": 3288000000, "addr": "1CmsAhLYkogH6hG1JUSNXXsTn7qvN9kxFD", "n": 0, "type": 0}}], "out": [{"type": 0, "spent": true, "value": 12000000, "spending_outpoints": [{"tx_index": 6223041701299760, "n": 8}], "n": 0, "tx_index": 1356940956769339, "script": "76a914bd4b19a9dea94472c9d1ffd4fe604ccdf560eee588ac", "addr": "1JFtgK8r1jd9me53hTqs5zo5HjuRzEdYyQ"}, {"type": 0, "spent": true, "value": 3276000000, "spending_outpoints": [{"tx_index": 7266349892781239, "n": 0}], "n": 1, "tx_index": 1356940956769339, "script": "76a914d17c8e166adad5cb731b2f331e999133478cfdf288ac", "addr": "1L6fSL1VBQZCMzrnUDXjjtkD8CyyXWR3K6"}], "hex": "01000000019d1b5d896b05dd0bc49a91b94033e38c78d5dfe6f3b9f524e465f8bdd2fbdc3e000000008c493046022100a52969fdc04d25f80e943acc0507346785103e13b17feb0b0b1500108c86fbc102210099d7693db648e40ab7aa1c6e24ca43ceffe9e5394646afe84c5abd099a3c329e01410477f987f13ff2b77b3a07b08b56b10a5d5bde56f0056aa5761fdaa9cdbabdeaf6d7af707c1c7ca7fb4fc0c21ff832adbf5f9b0bca058f87b20ef65edf58f241fdffffffff02001bb700000000001976a914bd4b19a9dea94472c9d1ffd4fe604ccdf560eee588ac00cb43c3000000001976a914d17c8e166adad5cb731b2f331e999133478cfdf288ac00000000"}, {"hash": "187dc6bec072b920eecdce6e2de286a010b4a05c520917139a0d99c5ab0cc695", "ver": 1, "vin_sz": 1, "vout_sz": 2, "size": 259, "weight": 1036, "fee": 0, "relayed_by": "0.0.0.0", "lock_time": 0, "tx_index": 5269691156706081, "double_spend": false, "time": 1298492024, "block_index": 110001, "block_height": 110001, "inputs": [{"sequence": 4294967295, "witness": "", "script": "493046022100907fa4ed0b09be121610d131a19a08527494ea9a7f8cbd3442c33359c9eb7ea40221009d2195244f2dcb1951fd8e516049b83cdc7b161b209cb1b9bca1f862937c68d90141041ce7fa5f6faa4cf78c5354b5d216ebbfb892d0e2ab705bc4bd68369223cefdf49260647067f666cbb27a3c04fa383144f7cf1cc0a6be59c3f6780bf868985bd5", "index": 0, "prev_out": {"spent": true, "script": "76a9148fad04fb6ab2fc913fbf1e494c76ceb7f6b4ad6c88ac", "spending_outpoints": [{"tx_index": 5269691156706081, "n": 0}], "tx_index": 648432922302870, "value": 19640000000, "addr": "1E6gu31eXVMCLH7qeCkuHH24hgJGURWy7A", "n": 0, "type": 0}}], "out": [{"type": 0, "spent": true, "value": 19635000000, "spending_outpoints": [{"tx_index": 6532217957793846, "n": 0}], "n": 0, "tx_index": 5269691156706081, "script": "76a91414ae915cce7610e18f8331eeddca45a314c00c4388ac", "addr": "12tMe2FUiz5jA511AKDZwTYdaEzw31vjDK"}, {"type": 0, "spent": true, "value": 5000000, "spending_outpoints": [{"tx_index": 4235770949320271, "n": 13}], "n": 1, "tx_index": 5269691156706081, "script": "76a9149285e61e3288d23fb1a1703977cea23067259e0888ac", "addr": "1EMk4U1w1WycZP62nQ2EDXNvk8mnvFVo7i"}], "hex": "0100000001126df86ff4ccb0b40a02256d7773ffe8894291523ac0f7b828108d1aa26b1f34000000008c493046022100907fa4ed0b09be121610d131a19a08527494ea9a7f8cbd3442c33359c9eb7ea40221009d2195244f2dcb1951fd8e516049b83cdc7b161b209cb1b9bca1f862937c68d90141041ce7fa5f6faa4cf78c5354b5d216ebbfb892d0e2ab705bc4bd68369223cefdf49260647067f666cbb27a3c04fa383144f7cf1cc0a6be59c3f6780bf868985bd5ffffffff02c0525692040000001976a91414ae915cce7610e18f8331eeddca45a314c00c4388ac404b4c00000000001976a9149285e61e3288d23fb1a1703977cea23067259e0888ac00000000"}, {"hash": "3d37e7d1b9893b33ed0df53981d1dbf4576150f855e8771024b8256261a785ce", "ver": 1, "vin_sz": 1, "vout_sz": 2, "size": 258, "weight": 1032, "fee": 0, "relayed_by": "0.0.0.0", "lock_time": 0, "tx_index": 7266349892781239, "double_spend": false, "time": 1298492024, "block_index": 110001, "block_height": 110001, "inputs": [{"sequence": 4294967295, "witness": "", "script": "483045022046ba1c9093901c31936b628e14f58eefc1a34813cb800aba6ccd789c47acb828022100933110ed8c108172d6c8d95ba6cd51a66d9fe2433b3e6c78544deb49e5efa0ca014104454f489fbb5a7fe6cfabb22294290437c18789393c4c2970472aa415bc20a72d8689129afc31dfaa9384a7ea334d2d37f4db9566ac6b7a77322db2894965990c", "index": 0, "prev_out": {"spent": true, "script": "76a914d17c8e166adad5cb731b2f331e999133478cfdf288ac", "spending_outpoints": [{"tx_index": 7266349892781239, "n": 0}], "tx_index": 1356940956769339, "value": 3276000000, "addr": "1L6fSL1VBQZCMzrnUDXjjtkD8CyyXWR3K6", "n": 1, "type": 0}}], "out": [{"type": 0, "spent": true, "value": 3264000000, "spending_outpoints": [{"tx_index": 6886330077623161, "n": 0}], "n": 0, "tx_index": 7266349892781239, "script": "76a91449d7581b21a1ecebf507cc883b43e65e3db47ab888ac", "addr": "17jSJNx5jx1pUYKHXUJd8Mj11s5cgDBJ1P"}, {"type": 0, "spent": true, "value": 12000000, "spending_outpoints": [{"tx_index": 5368603016429125, "n": 3}], "n": 1, "tx_index": 7266349892781239, "script": "76a914332e8e34541560458687a5357693c1185b077a8688ac", "addr": "15fdEWtDcc6THx9YMfVm4vLKEVcLc61C8s"}], "hex": "010000000126910b7dace1d973f76dc3a0774c391df79706df70c731a11cea7ce7ea8ced54010000008b483045022046ba1c9093901c31936b628e14f58eefc1a34813cb800aba6ccd789c47acb828022100933110ed8c108172d6c8d95ba6cd51a66d9fe2433b3e6c78544deb49e5efa0ca014104454f489fbb5a7fe6cfabb22294290437c18789393c4c2970472aa415bc20a72d8689129afc31dfaa9384a7ea334d2d37f4db9566ac6b7a77322db2894965990cffffffff0200b08cc2000000001976a91449d7581b21a1ecebf507cc883b43e65e3db47ab888ac001bb700000000001976a914332e8e34541560458687a5357693c1185b077a8688ac00000000"}, {"hash": "f4237fb1167064a305a18064a24670bcd350a627c49dcd0a9ab301c21724a8b9", "ver": 1, "vin_sz": 1, "vout_sz": 2, "size": 257, "weight": 1028, "fee": 0, "relayed_by": "0.0.0.0", "lock_time": 0, "tx_index": 6532217957793846, "double_spend": false, "time": 1298492024, "block_index": 110001, "block_height": 110001, "inputs": [{"sequence": 4294967295, "witness": "", "script": "473044022007e94e73eea59308f5cac3b8058ea29c28db74ec1e641b372ffd8ac4fd4c255c02204a1c31b92a27a839ee7399992b60475d9ededbc70fe7c4c800c5209dacf573bc0141041a065ce92045fa449eeb6300a92df816ab026db8f78cf925e3249b77d272bccc71d8bd370154d33208a91af87b315bb2d0871a5cacac3addd009bc7301c1ffd7", "index": 0, "prev_out": {"spent": true, "script": "76a91414ae915cce7610e18f8331eeddca45a314c00c4388ac", "spending_outpoints": [{"tx_index": 6532217957793846, "n": 0}], "tx_index": 5269691156706081, "value": 19635000000, "addr": "12tMe2FUiz5jA511AKDZwTYdaEzw31vjDK", "n": 0, "type": 0}}], "out": [{"type": 0, "spent": false, "value": 5000000, "spending_outpoints": [], "n": 0, "tx_index": 6532217957793846, "script": "76a9149a7cd0559c38fb7ab319427d5647177e8632c8f188ac", "addr": "1F5rakvA7rN2ZXjVrGhDd8LhsaePzw3bq6"}, {"type": 0, "spent": true, "value": 19630000000, "spending_outpoints": [{"tx_index": 4283406702694326, "n": 0}], "n": 1, "tx_index": 6532217957793846, "script": "76a914811c8083fb7053dfed8f7273aa9d2ea683b5c5cd88ac", "addr": "1CmgK6qyroorCsuYDsc1J4ZfLpcAhkeK5k"}], "hex": "010000000195c60cabc5990d9a131709525ca0b410a086e22d6ececdee20b972c0bec67d18000000008a473044022007e94e73eea59308f5cac3b8058ea29c28db74ec1e641b372ffd8ac4fd4c255c02204a1c31b92a27a839ee7399992b60475d9ededbc70fe7c4c800c5209dacf573bc0141041a065ce92045fa449eeb6300a92df816ab026db8f78cf925e3249b77d272bccc71d8bd370154d33208a91af87b315bb2d0871a5cacac3addd009bc7301c1ffd7ffffffff02404b4c00000000001976a9149a7cd0559c38fb7ab319427d5647177e8632c8f188ac80070a92040000001976a914811c8083fb7053dfed8f7273aa9d2ea683b5c5cd88ac00000000"}]}