{"hash": "000000000000bde7709c358c7482ad1b3a62d9a7f337da771779551a5beb41fc", "ver": 1, "prev_block": "00000000000020b61bd5f7fc93a7ff4dfd2986d9d1c0b9347029467fc8b58141", "mrkl_root": "06742e8763785b8545be968540f7508728a7e849940d0436f0079300d7d4cfa8", "time": 1298498743, "bits": 453102630, "next_block": ["0000000000007868de6236d3105ac6ba7b82631d92f8cfa740ec0c9e3ff8aaaf"], "fee": 0, "nonce": 829759033, "n_tx": 5, "size": 3059, "block_index": 110018, "main_chain": true, "height": 110018, "weight": 12236, "tx": [{"hash": "11754f5ecfbef48528c305a7f282f36f8943cecdaa8c848f6621477b576ae89d", "ver": 1, "vin_sz": 1, "vout_sz": 1, "size": 134, "weight": 536, "fee": 0, "relayed_by": "0.0.0.0", "lock_time": 0, "tx_index": 5555889346930916, "double_spend": false, "time": 1298498743, "block_index": 110018, "block_height": 110018, "inputs": [{"sequence": 4294967295, "witness": "", "script": "0426cc011b011a", "index": 0, "prev_out": null}], "out": [{"type": 0, "spent": true, "value": 5000000000, "spending_outpoints": [{"tx_index": 2342904554902178, "n": 49}], "n": 0, "tx_index": 5555889346930916, "script": "410497fe42e6c7a8800d3d92b229f45ddb00ca78295ac94cd1432afd413e733cd4d7319388c40ef069f0e0270f0a4497af3ab42ab66656514120fd3d320b657c3effac", "addr": "1BQPKm5wZNg5gdfUAQqmn9jMrxYNs37683"}], "hex": "01000000010000000000000000000000000000000000000000000000000000000000000000ffffffff070426cc011b011affffffff0100f2052a0100000043410497fe42e6c7a8800d3d92b229f45ddb00ca78295ac94cd1432afd413e733cd4d7319388c40ef069f0e0270f0a4497af3ab42ab66656514120fd3d320b657c3effac00000000"}, {"hash": "9dc77ec7bf618b3dacd2b1d6889bb89bf13f9b8bb24f6c18e9af11464e7cded8", "ver": 1, "vin_sz": 12, "vout_sz": 1, "size": 2204, "weight": 8816, "fee": 0, "relayed_by": "0.0.0.0", "lock_time": 0, "tx_index": 7630402555003445, "double_spend": false, "time": 1298498743, "block_index": 110018, "block_height": 110018, "inputs": [{"sequence": 4294967295, "witness": "", "script": "493046022100a383eb5be1edf6edc2f511b7eff8cce5504acdc266d41a2547358f3ef113c67b022100acc408a6c45d8b8bd69ad105c22208570bb02bb2cc3fcbe95c5360982c982b9f01410461899f2889cf491eeec79b2685e2353b4b0128b4bd4947c22596e3d28feac9ba2cb35a7d2aa7b84818094315b16f2adccae78d65cefc999429579f8467c1413a", "index": 0, "prev_out": {"spent": true, "script": "76a914652e574d7c12ac24f9de8d78e26d3cdfb72d231388ac", "spending_outpoints": [{"tx_index": 7630402555003445, "n": 0}], "tx_index": 96180454776014, "value": 2500000000, "addr": "1ADzmCwMFkQEAbQCR1hn7Zs5GEjjRukQYE", "n": 1, "type": 0}}, {"sequence": 4294967295, "witness": "", "script": "483045022019e2dee8f0c989a465271d68c3936fd3d2aa2654f5bdf8196083a9cf12e47ee4022100a9f9912de157df87423994460859b2f22bd7cf48d714a4d7ffbaea836ba8e5bb014104db903361e503447e61c86004eb04e299c46a40fcd02906d39d5fa82ac6b3c781844802c4a4fa0f6e10d50b725c07e27e0365a5be63d40fded2e506c0c977316b", "index": 1, "prev_out": {"spent": true, "script": "76a914335aaaba264160ce5941ec93913999d246472ba488ac", "spending_outpoints": [{"tx_index": 7630402555003445, "n": 1}], "tx_index": 622754019664159, "value": 4500000000, "addr": "15gY5RxDPJXu2qbBRjBZMhxiAPMMZdZobJ", "n": 0, "type": 0}}, {"sequence": 4294967295, "witness": "", "script": "493046022100e1747894a68828ff18f123687fd9bedd6f764c680ae7f3097f62e8c3dbd654ef022100a8e96373ecf392b1c992ecce81a80f8780dd998de2f3a9388c398dbe0cf53329014104edc272e870c890f184f9ded173cb0af595ed257196fa3ad41e2784be8c35dfcc355c0a9527f58ea857eba8264ce1de540d31bacf6cb145957d4adffca849f6f0", "index": 2, "prev_out": {"spent": true, "script": "76a914a8839c15df5b0c2e3f2dffbe123e7dde179055c188ac", "spending_outpoints": [{"tx_index": 7630402555003445, "n": 2}], "tx_index": 1094902814108799, "value": 2500000000, "addr": "1GN2BdZcxZ8pgBN9oG29YWnwHLngtDJSNk", "n": 1, "type": 0}}, {"sequence": 4294967295, "witness": "", "script": "483045022100ef590e0188a24b36e343278b723c43bf5dd66d5702287f6234d855835d6fff68022008ac910e5fa8f125c05d0f0fb3762a7a99e18439eccd84384754e2cdb43c512101410485c1e631997f5fa6ed63a36ba580b9edfaf6bb0b42093671f4f777d742135bd783cdf21404131de4cdf10a082cde94b2b3d4c5f2eaea3a8789ea50913868e5f6", "index": 3, "prev_out": {"spent": true, "script": "76a914bc294a2864f728e1aa8c0555c966f0bff70c50ef88ac", "spending_outpoints": [{"tx_index": 7630402555003445, "n": 3}], "tx_index": 1347318243089672, "value": 3500000000, "addr": "1J9uVvSFvHH2Z2pFQuEaNHkhgjfidht8Wq", "n": 0, "type": 0}}, {"sequence": 4294967295, "witness": "", "script": "47304402204bf58ad2ebeb6b015f9d5ccc856a307a318a2629a76fd1f5166b32016d9708120220304bf3c736b3e5814ff75614a221c089047ece2c7473cce27b63e01355062c5b014104e98860b044b55bb0e6ed65bb81def0a69daf9c4d1fe25a608a355d46b27f0447610274da08a6faffb99ba3f13e37ee7cf08d5e3ba19ea3de40cc5b3b053f0d84", "index": 4, "prev_out": {"spent": true, "script": "76a914dcb25f9fe61c9c912bfb6bd42a2acef34333ad6a88ac", "spending_outpoints": [{"tx_index": 7630402555003445, "n": 4}], "tx_index": 3731469125471124, "value": 2500000000, "addr": "1M7wLpAD8A9UQdYA3Gokhs4dF3LRsGZUsP", "n": 0, "type": 0}}, {"sequence": 4294967295, "witness": "", "script": "493046022100cf9bd71655d0fc81312532031b20f70f016584b7a621a4baa11834326da84776022100958920daf97e02df516c3c4518dbc6bfb7c36630f07b9c31530114b36cb724a00141048b6dbcda139f9c8a7bd242787725df2dd5aedac777c0c245bed087289f75745af61689fae556e1e46c436e5607b9501dc4d7c7e69db3221dc82c676180252bba", "index": 5, "prev_out": {"spent": true, "script": "76a914665db3706c1091e2e55d4c370b6c5db41504dcd788ac", "spending_outpoints": [{"tx_index": 7630402555003445, "n": 5}], "tx_index": 4646721480870562, "value": 2000000000, "addr": "1ALGB2G9mBS4pnDWrXUi7qU3gR2zqvgfdg", "n": 0, "type": 0}}, {"sequence": 4294967295, "witness": "", "script": "4830450221008f10545f62d01588f7eb16d0a859bf70994d1be121b184a6d023a300f41cf94902202e146d1c4ccadd1ce189748c8a57929579b9464c623ef241a9e198ada63830fc014104b4c4dc57e84bf2c61c020c2a42e805a6a80da04968fd966ae04a2400a45025fe3a30ef772b821472b5db2b84816495b5129f45c5d28aeb51d264d1b763c90955", "index": 6, "prev_out": {"spent": true, "script": "76a914c94c1e6892499754de686b3da09c1466d44f5d9c88ac", "spending_outpoints": [{"tx_index": 7630402555003445, "n": 6}], "tx_index": 4702934880709479, "value": 2500000000, "addr": "1KMN1PFihshpBExHfLiv1MxJ1PrbhV7eLe", "n": 0, "type": 0}}, {"sequence": 4294967295, "witness": "", "script": "483045022100b3434614371ee91d31b96f91ae6385993a2783deac9862f1075193de267fb4610220037f7c0bcf07e2c58cc8f95ef46faeb2b8fa897700809d5630ddf12b8f52e07501410410ff614f47469e12d029d342e0621084890c3beb11fd7ccfb17717d3e2ceaecb47d0ee0a93c20e04f1f10c319371b42c9037d2ea2f6ccca28f3d5686a522c579", "index": 7, "prev_out": {"spent": true, "script": "76a91401e0e55a33bfa90ed49c60db87a378d04b3fb5c488ac", "spending_outpoints": [{"tx_index": 7630402555003445, "n": 7}], "tx_index": 6067973556765501, "value": 1000000000, "addr": "1Aw6EYGzvsWE5cbkeGaCvradYDXFHztb5", "n": 0, "type": 0}}, {"sequence": 4294967295, "witness": "", "script": "47304402206258559c9e9a2abaedbbf0852369ebd014b06f4fb19b9505b17c71042e273e1702203f5269d43c8e4a262ef559ef63fdd1863226246119bc4a964c629abdeff95174014104b4c4dc57e84bf2c61c020c2a42e805a6a80da04968fd966ae04a2400a45025fe3a30ef772b821472b5db2b84816495b5129f45c5d28aeb51d264d1b763c90955", "index": 8, "prev_out": {"spent": true, "script": "76a914c94c1e6892499754de686b3da09c1466d44f5d9c88ac", "spending_outpoints": [{"tx_index": 7630402555003445, "n": 8}], "tx_index": 7024405898783644, "value": 2000000000, "addr": "1KMN1PFihshpBExHfLiv1MxJ1PrbhV7eLe", "n": 0, "type": 0}}, {"sequence": 4294967295, "witness": "", "script": "47304402201028844c83817e339bf131f3cf668bd308f66f540a3ad3860b8974ae4628b22e0220112083990e10d18161d5ba6e1aecfc44df30673c02e85c1ef28c22ff3c736bb9014104c799e9ca56edeb77715f508e85d55f13b8f63004f0aa5d2e5424a3c8a23dbef95d3b68cbe0f181a30ae7d6fc3b340a8c26c5f7ac1a9cfda15275e1ba1e99130c", "index": 9, "prev_out": {"spent": true, "script": "76a914ff14d6e99699a700ed4c1af0b86428b691d0f0c588ac", "spending_outpoints": [{"tx_index": 7630402555003445, "n": 9}], "tx_index": 7034460596894269, "value": 4500000000, "addr": "1QFkGsW7pjtCvB7BpHwmerpcZC1ypoV21P", "n": 0, "type": 0}}, {"sequence": 4294967295, "witness": "", "script": "4830450221009aa2097ba8408dbcd9045067cc837f6dff7690b6105ef6077323592f15f170a70220438cf8ee6c54ec636ecfc29941b5ffd44e7c8b38f92a394e38c1c8c77ee0d0790141048268fb3740803a73f833e45fd12135ec0b5a0ac258916c1eba0915fe6eb86dc6dbe3fdba91ad397a7c2c496132a57ec62b51e02c4d7cc514d60ad5ae98824bf7", "index": 10, "prev_out": {"spent": true, "script": "76a9142fa308f5dade98553fd97257d2c1a124b68b63bc88ac", "spending_outpoints": [{"tx_index": 7630402555003445, "n": 10}], "tx_index": 7614994463320679, "value": 2000000000, "addr": "15Lt4tRFwpTZoWFnQpUdnV3M2zFBzoYBfs", "n": 0, "type": 0}}, {"sequence": 4294967295, "witness": "", "script": "48304502200ea68101185fd30c0b19b81baaa687d3c769a25238481fc2210d125d8b6667d5022100b3c5954031edeaabaaface5f243519a103553389342738cb05d00723138db431014104d968fad3b4038b9b85bff251d1dbd02e86e8ebbff1ce0d68c3feea439e5c1cdac4ab5cfc562a71670115f43deedb7f786e0e0722a34eafe123c6954e2078bc87", "index": 11, "prev_out": {"spent": true, "script": "76a91437e6fa12868813acac03ad68066d510fd587955688ac", "spending_outpoints": [{"tx_index": 7630402555003445, "n": 11}], "tx_index": 8898385558003720, "value": 3500000000, "addr": "166as6zFdat1RQLqkwCjK9YApA83zxfrM9", "n": 0, "type": 0}}], "out": [{"type": 0, "spent": true, "value": 33000000000, "spending_outpoints": [{"tx_index": 1630997599625243, "n": 0}], "n": 0, "tx_index": 7630402555003445, "script": "76a914f19ce1faa31ce09e84420d946b2cfa12776d186e88ac", "addr": "1P2XndnyGLgFpJKmmxEdnNgJWqNTDWng6g"}], "hex": "010000000c02bbce0ebae6700399921e25f2fb67188f9d948ac6abcbb59757dc56e601b4d7010000008c493046022100a383eb5be1edf6edc2f511b7eff8cce5504acdc266d41a2547358f3ef113c67b022100acc408a6c45d8b8bd69ad105c22208570bb02bb2cc3fcbe95c5360982c982b9f01410461899f2889cf491eeec79b2685e2353b4b0128b4bd4947c22596e3d28feac9ba2cb35a7d2aa7b84818094315b16f2adccae78d65cefc999429579f8467c1413affffffff11b321c0ff08f874c7e6eb0fa92f871e139a3c231fa7bf054af97562bfb37a37000000008b483045022019e2dee8f0c989a465271d68c3936fd3d2aa2654f5bdf8196083a9cf12e47ee4022100a9f9912de157df87423994460859b2f22bd7cf48d714a4d7ffbaea836ba8e5bb014104db903361e503447e61c86004eb04e299c46a40fcd02906d39d5fa82ac6b3c781844802c4a4fa0f6e10d50b725c07e27e0365a5be63d40fded2e506c0c977316bffffffff1f1e776a6363f81dcef0bbabc3a64c4bc3ab5e3a8ef25cbfc9ad8ddf6f8622f7010000008c493046022100e1747894a68828ff18f123687fd9bedd6f764c680ae7f3097f62e8c3dbd654ef022100a8e96373ecf392b1c992ecce81a80f8780dd998de2f3a9388c398dbe0cf53329014104edc272e870c890f184f9ded173cb0af595ed257196fa3ad41e2784be8c35dfcc355c0a9527f58ea857eba8264ce1de540d31bacf6cb145957d4adffca849f6f0ffffffff264b07ca3ae845120e3b951e4f06493cc35f03ae8c63660632dc534686294384000000008b483045022100ef590e0188a24b36e343278b723c43bf5dd66d5702287f6234d855835d6fff68022008ac910e5fa8f125c05d0f0fb3762a7a99e18439eccd84384754e2cdb43c512101410485c1e631997f5fa6ed63a36ba580b9edfaf6bb0b42093671f4f777d742135bd783cdf21404131de4cdf10a082cde94b2b3d4c5f2eaea3a8789ea50913868e5f6ffffffff6a0e02ddb65ca279526babf409178496ab823f944d794b81796c73e524adc374000000008a47304402204bf58ad2ebeb6b015f9d5ccc856a307a318a2629a76fd1f5166b32016d9708120220304bf3c736b3e5814ff75614a221c089047ece2c7473cce27b63e01355062c5b014104e98860b044b55bb0e6ed65bb81def0a69daf9c4d1fe25a608a355d46b27f0447610274da08a6faffb99ba3f13e37ee7cf08d5e3ba19ea3de40cc5b3b053f0d84ffffffff84115939e65512d284fc102f88762b29100f0bfc78352f7b37db3216f9f1d75e000000008c493046022100cf9bd71655d0fc81312532031b20f70f016584b7a621a4baa11834326da84776022100958920daf97e02df516c3c4518dbc6bfb7c36630f07b9c31530114b36cb724a00141048b6dbcda139f9c8a7bd242787725df2dd5aedac777c0c245bed087289f75745af61689fae556e1e46c436e5607b9501dc4d7c7e69db3221dc82c676180252bbaffffffff85aa5ad7bb5b3cacacc70ff1deb013e29317612db04f8c4b5dec8fee075a03fb000000008b4830450221008f10545f62d01588f7eb16d0a859bf70994d1be121b184a6d023a300f41cf94902202e146d1c4ccadd1ce189748c8a57929579b9464c623ef241a9e198ada63830fc014104b4c4dc57e84bf2c61c020c2a42e805a6a80da04968fd966ae04a2400a45025fe3a30ef772b821472b5db2b84816495b5129f45c5d28aeb51d264d1b763c90955ffffffffac765182dc19eb636da5959ee62f5b0efa4e9caa379fcf1fc744fbc103532e86000000008b483045022100b3434614371ee91d31b96f91ae6385993a2783deac9862f1075193de267fb4610220037f7c0bcf07e2c58cc8f95ef46faeb2b8fa897700809d5630ddf12b8f52e07501410410ff614f47469e12d029d342e0621084890c3beb11fd7ccfb17717d3e2ceaecb47d0ee0a93c20e04f1f10c319371b42c9037d2ea2f6ccca28f3d5686a522c579ffffffffc7a54792d75ce29e3bdc99a77a184946f6d7e42afcab51f03e01eb44fe42d8a8000000008a47304402206258559c9e9a2abaedbbf0852369ebd014b06f4fb19b9505b17c71042e273e1702203f5269d43c8e4a262ef559ef63fdd1863226246119bc4a964c629abdeff95174014104b4c4dc57e84bf2c61c020c2a42e805a6a80da04968fd966ae04a2400a45025fe3a30ef772b821472b5db2b84816495b5129f45c5d28aeb51d264d1b763c90955ffffffffc7ee6fe883d1e9e7922ae828e43d69625c1347e05238052067dc27be4a8f26bc000000008a47304402201028844c83817e339bf131f3cf668bd308f66f540a3ad3860b8974ae4628b22e0220112083990e10d18161d5ba6e1aecfc44df30673c02e85c1ef28c22ff3c736bb9014104c799e9ca56edeb77715f508e85d55f13b8f63004f0aa5d2e5424a3c8a23dbef95d3b68cbe0f181a30ae7d6fc3b340a8c26c5f7ac1a9cfda15275e1ba1e99130cffffffffd86e607f9f533d66c611761438bbcdab2047d33093934fdff620e93368367850000000008b4830450221009aa2097ba8408dbcd9045067cc837f6dff7690b6105ef6077323592f15f170a70220438cf8ee6c54ec636ecfc29941b5ffd44e7c8b38f92a394e38c1c8c77ee0d0790141048268fb3740803a73f833e45fd12135ec0b5a0ac258916c1eba0915fe6eb86dc6dbe3fdba91ad397a7c2c496132a57ec62b51e02c4d7cc514d60ad5ae98824bf7fffffffffce846b2130040b65a08943ed7ded5e15d173733088e8b7f0cf88c85804a9898000000008b48304502200ea68101185fd30c0b19b81baaa687d3c769a25238481fc2210d125d8b6667d5022100b3c5954031edeaabaaface5f243519a103553389342738cb05d00723138db431014104d968fad3b4038b9b85bff251d1dbd02e86e8ebbff1ce0d68c3feea439e5c1cdac4ab5cfc562a71670115f43deedb7f786e0e0722a34eafe123c6954e2078bc87ffffffff01000af4ae070000001976a914f19ce1faa31ce09e84420d946b2cfa12776d186e88ac00000000"}, {"hash": "c29a72f716e57e5dcaea6f29b3410f5fda621dd7f6094588755c425e3b72385f", "ver": 1, "vin_sz": 1, "vout_sz": 1, "size": 157, "weight": 628, "fee": 0, "relayed_by": "0.0.0.0", "lock_time": 0, "tx_index": 3350273257621579, "double_spend": false, "time": 1298498743, "block_index": 110018, "block_height": 110018, "inputs": [{"sequence": 4294967295, "witness": "", "script": "473044022074e46b00c30443816f71b4d76f8f4d3e2ade72c4a64cca485c876aaceb573029022022d837e27073fa5f0e64672e16b753c4bd9ead590c62af32d30d1f36a819b10501", "index": 0, "prev_out": {"spent": true, "script": "41045f030ff619d73fa32429598da09e09abc4688a496f4ea2d7339f1397f9bf72b9bc3845362c5c159321468c65d01ef01416dae4885fa17dd50fc8f8e901ae8824ac", "spending_outpoints": [{"tx_index": 3350273257621579, "n": 0}], "tx_index": 4323172724574645, "value": 5000000000, "addr": "14Swib1kGuKnFtntHEKFHPs4oefdXcopY8", "n": 0, "type": 0}}], "out": [{"type": 0, "spent": true, "value": 5000000000, "spending_outpoints": [{"tx_index": 6644083694930609, "n": 0}], "n": 0, "tx_index": 3350273257621579, "script": "76a91410809d22c0e8bdc6b3d9f5d0217a89b8278bbad788ac", "addr": "12WFtKBsRLtV8p1NwRqe7YwYdi1rjwTZhA"}], "hex": "01000000017adf38b4684dad9b80bdf011ac604e4620bf33b315f667109c19b0a6747304ce0000000048473044022074e46b00c30443816f71b4d76f8f4d3e2ade72c4a64cca485c876aaceb573029022022d837e27073fa5f0e64672e16b753c4bd9ead590c62af32d30d1f36a819b10501ffffffff0100f2052a010000001976a91410809d22c0e8bdc6b3d9f5d0217a89b8278bbad788ac00000000"}, {"hash": "50c22b98b9690deac9813ee30fc69ea4bf84511167a56eded9db1d5f8de5988e", "ver": 1, "vin_sz": 1, "vout_sz": 2, "size": 258, "weight": 1032, "fee": 0, "relayed_by": "0.0.0.0", "lock_time": 0, "tx_index": 5017194797458363, "double_spend": false, "time": 1298498743, "block_index": 110018, "block_height": 110018, "inputs": [{"sequence": 4294967295, "witness": "", "script": "4830450220130f52c9a7b7ae76a3eca4cb237f81d5b7f96198101d0e0dbf34a8af13aa391a022100dfb7d08691980ec795a5697aca609863c9c065357bec64ff5417a0ccd67ab7e80141047367654f7d838602f55fd6f05ebdfe94aaa9f8f1da8d6dcd6786bb4dc4b45d4ba921cd839e4d358510dd32d038659707572bdeb3d72831803451958661ec914e", "index": 0, "prev_out": {"spent": true, "script": "76a91439bbaebf6abe323f6fb5379b129aa2edf9d9369488ac", "spending_outpoints": [{"tx_index": 5017194797458363, "n": 0}], "tx_index": 7465555480042039, "value": 19385000000, "addr": "16GGMMLKmoCDpTR6DYcJAg7uKnCBHmnLBq", "n": 0, "type": 0}}], "out": [{"type": 0, "spent": true, "value": 19380000000, "spending_outpoints": [{"tx_index": 7023493625075367, "n": 0}], "n": 0, "tx_index": 5017194797458363, "script": "76a91450954694cfe0d40dc968cb814fbf2a16764b813b88ac", "addr": "18M5tCrqUGV2j9F44sZh1kaoKr7mQrHL1e"}, {"type": 0, "spent": true, "value": 5000000, "spending_outpoints": [{"tx_index": 4952610508932830, "n": 1}], "n": 1, "tx_index": 5017194797458363, "script": "76a914d9be3eaffbdb15003ac1f25089f76285e2ce3a8f88ac", "addr": "1LrKY5DZGtRBX1aWF7XpJu6diqVFEnap7q"}], "hex": "0100000001d42f10b382d1b8585285a63dad2dbd52e0ac08d3f18e0755e65ca791834132e2000000008b4830450220130f52c9a7b7ae76a3eca4cb237f81d5b7f96198101d0e0dbf34a8af13aa391a022100dfb7d08691980ec795a5697aca609863c9c065357bec64ff5417a0ccd67ab7e80141047367654f7d838602f55fd6f05ebdfe94aaa9f8f1da8d6dcd6786bb4dc4b45d4ba921cd839e4d358510dd32d038659707572bdeb3d72831803451958661ec914effffffff0200552383040000001976a91450954694cfe0d40dc968cb814fbf2a16764b813b88ac404b4c00000000001976a914d9be3eaffbdb15003ac1f25089f76285e2ce3a8f88ac00000000"}, {"hash": "982470d507f2f92aaea295515b2f9b9378255f97679216d47f1ce17cee9c979f", "ver": 1, "vin_sz": 1, "vout_sz": 1, "size": 225, "weight": 900, "fee": 0, "relayed_by": "0.0.0.0", "lock_time": 0, "tx_index": 5615152696106019, "double_spend": false, "time": 1298498743, "block_index": 110018, "block_height": 110018, "inputs": [{"sequence": 4294967295, "witness": "", "script": "493046022100b4fab9b27c752435c0269d7812b80f63536e5051b5deb86f368f2be527261c3902210095bb4e6c404d0f317f97cb2fd52e42fb21212ff8c5566dd031051f406a4ed2cb01410498d7b1f709ccdf4dbdafb948524b3410dd5ad1a83277debb0ad73d466cc553ace128e115bb621d1b14eb411f6f01ffafdad1e323b10499919e8d1624eb0efc4f", "index": 0, "prev_out": {"spent": true, "script": "76a91446f871bea7c3be7467d27eaf689fe3311d42a14e88ac", "spending_outpoints": [{"tx_index": 5615152696106019, "n": 0}], "tx_index": 3745916836694458, "value": 1000000, "addr": "17UFveDzFgUVvgx4PEsiFDBTG7ZRRhEykm", "n": 1, "type": 0}}], "out": [{"type": 0, "spent": false, "value": 1000000, "spending_outpoints": [], "n": 0, "tx_index": 5615152696106019, "script": "76a9141d11c247e58625f474d777ce155500d9d8c3a20e88ac", "addr": "13ehsUUhJHWPDzFKSrSahBe8RiVkGMoqNa"}], "hex": "01000000016a7721d3464dd15368ab523f5d102d6a04beaedc4c193e907418ed9ff5ba5713010000008c493046022100b4fab9b27c752435c0269d7812b80f63536e5051b5deb86f368f2be527261c3902210095bb4e6c404d0f317f97cb2fd52e42fb21212ff8c5566dd031051f406a4ed2cb01410498d7b1f709ccdf4dbdafb948524b3410dd5ad1a83277debb0ad73d466cc553ace128e115bb621d1b14eb411f6f01ffafdad1e323b10499919e8d1624eb0efc4fffffffff0140420f00000000001976a9141d11c247e58625f474d777ce155500d9d8c3a20e88ac00000000"}]}