{"hash": "0000000000007f518dbf294d473769d51093f92231a05e48e88af2e34b7ed952", "ver": 1, "prev_block": "000000000000c3cd2877b09059cd2f9ac9a8731abf4e0d436540db659d1bb796", "mrkl_root": "a7c0f6c78bcfcea54563c0047f91b8775ccfa8f3ebcb7fd4fb43a937b1fe0957", "time": 1298497310, "bits": 453102630, "next_block": ["00000000000141b13f71cde44e52ea2162705fd965d8e4d82488e53d71638fab"], "fee": 0, "nonce": 2451144724, "n_tx": 5, "size": 1213, "block_index": 110014, "main_chain": true, "height": 110014, "weight": 4852, "tx": [{"hash": "43c3dff6cfc46e223d01754fd4822696b4973264f39a4077407722f3ab289e3b", "ver": 1, "vin_sz": 1, "vout_sz": 1, "size": 134, "weight": 536, "fee": 0, "relayed_by": "0.0.0.0", "lock_time": 0, "tx_index": 2097615143330894, "double_spend": false, "time": 1298497310, "block_index": 110014, "block_height": 110014, "inputs": [{"sequence": 4294967295, "witness": "", "script": "0426cc011b0142", "index": 0, "prev_out": null}], "out": [{"type": 0, "spent": true, "value": 5000000000, "spending_outpoints": [{"tx_index": 3119045844237516, "n": 23}], "n": 0, "tx_index": 2097615143330894, "script": "41049a2c3b9e8e8729eab8e5a086fca6c3e6092d560569e8b7548d4a573d0592c1f4e258f6df1ca95f6078afdfdad1e39328936381850216ca3346f8358dd1f08128ac", "addr": "1ADNz1J5D8SsrF2G3GdFZL5wYBe2c4GLSH"}], "hex": "01000000010000000000000000000000000000000000000000000000000000000000000000ffffffff070426cc011b0142ffffffff0100f2052a010000004341049a2c3b9e8e8729eab8e5a086fca6c3e6092d560569e8b7548d4a573d0592c1f4e258f6df1ca95f6078afdfdad1e39328936381850216ca3346f8358dd1f08128ac00000000"}, {"hash": "d2b9f57123fffb1a23753b94168663f9136b583f48c28f1403c1fdd317b18a5b", "ver": 1, "vin_sz": 1, "vout_sz": 2, "size": 258, "weight": 1032, "fee": 0, "relayed_by": "0.0.0.0", "lock_time": 0, "tx_index": 3220839511785400, "double_spend": false, "time": 1298497310, "block_index": 110014, "block_height": 110014, "inputs": [{"sequence": 4294967295, "witness": "", "script": "483045022060e0de8cfc1b8711ddc026f0ce6bbedc60abc38678e8934097a4f9faabb2eea7022100bb448f8da1da2d25a6cd2b55e0889651653ccf378de0bf98fe0540aa6c757c8b014104ac886ca88a26d0e98a9d2a55cf8a823d6754ef892808a3568229b60b87ebb4838022ebebb44c1e69d0e78ec038e6d5bbb7b619e020948ffa19a3cd8e28b285e3", "index": 0, "prev_out": {"spent": true, "script": "76a9141bbce7eadc3933f19cec286fbc7d2823fdc3042788ac", "spending_outpoints": [{"tx_index": 3220839511785400, "n": 0}], "tx_index": 2854741865420037, "value": 4349000000, "addr": "13XfYbR5JqAS269LkPE7FNQKa1Z8gtDhj7", "n": 0, "type": 0}}], "out": [{"type": 0, "spent": true, "value": 160000000, "spending_outpoints": [{"tx_index": 8112796992711478, "n": 3}], "n": 0, "tx_index": 3220839511785400, "script": "76a914a4fffa127c2699676ecc37a4393cc9b7f0675d0788ac", "addr": "1G3SU3WAGPqdScV9ELZA5etjkVrXvmWrUg"}, {"type": 0, "spent": true, "value": 4189000000, "spending_outpoints": [{"tx_index": 8132616814007662, "n": 0}], "n": 1, "tx_index": 3220839511785400, "script": "76a91424078f1e557bf17d4065b87bfeb9df5b3b1ee21d88ac", "addr": "14HWP7s9ew4TtXgUB7P2ASz7CyUaMo7wpu"}], "hex": "01000000015122fb1682a82cd8f1ca43a38c5a81aab1b978777c240cdc3693acdff58663d9000000008b483045022060e0de8cfc1b8711ddc026f0ce6bbedc60abc38678e8934097a4f9faabb2eea7022100bb448f8da1da2d25a6cd2b55e0889651653ccf378de0bf98fe0540aa6c757c8b014104ac886ca88a26d0e98a9d2a55cf8a823d6754ef892808a3568229b60b87ebb4838022ebebb44c1e69d0e78ec038e6d5bbb7b619e020948ffa19a3cd8e28b285e3ffffffff0200688909000000001976a914a4fffa127c2699676ecc37a4393cc9b7f0675d0788ac4011aff9000000001976a91424078f1e557bf17d4065b87bfeb9df5b3b1ee21d88ac00000000"}, {"hash": "2f70139f6c9ffbc990253a4132c67b9c9efde14765e807ff0112e7119209c9ee", "ver": 1, "vin_sz": 1, "vout_sz": 2, "size": 258, "weight": 1032, "fee": 0, "relayed_by": "0.0.0.0", "lock_time": 0, "tx_index": 8401510924958946, "double_spend": false, "time": 1298497310, "block_index": 110014, "block_height": 110014, "inputs": [{"sequence": 4294967295, "witness": "", "script": "483045022100daf9c96908383289a2867549039d7c7044012379f98bc13a0b8a2bd322cab54902207be9a523e5216924ba377eb19b6dd06fd491f20f6df84d462e9a55ec841b6a630141041fd79bda6903a0db59ef0a0582464bd41e42c4ff6f43ceecb5b0e85d67f471d65fd42e7cc6fdaf66bc46ab940163fbbd52504e4e85d0b43f14c1932e08c24e84", "index": 0, "prev_out": {"spent": true, "script": "76a914d5dbf80d8abae169119ba5b537fc4686da4bd93f88ac", "spending_outpoints": [{"tx_index": 8401510924958946, "n": 0}], "tx_index": 5895567264979855, "value": 19415000000, "addr": "1LVnSa7brAHLZgqod1AARz2w1HZaMWFMg9", "n": 0, "type": 0}}], "out": [{"type": 0, "spent": true, "value": 5000000, "spending_outpoints": [{"tx_index": 5702387739319039, "n": 44}], "n": 0, "tx_index": 8401510924958946, "script": "76a9147388dfb304e8504ef2bf0e87eb9931fc517254c388ac", "addr": "1BXtgDo8TbwikhZNkUxbHukCdM5KiLqob1"}, {"type": 0, "spent": true, "value": 19410000000, "spending_outpoints": [{"tx_index": 8035972917787101, "n": 0}], "n": 1, "tx_index": 8401510924958946, "script": "76a9146d7f92d48822138f14de6fc32a1b531f4932815588ac", "addr": "1AyyUsnLYfujzWbiSK62JPyZF1wDDHVJJg"}], "hex": "0100000001a78fe5c4a0dc79d0168d481a280a6fed1ef6542cadfc8b371e6716e3f03288a1000000008b483045022100daf9c96908383289a2867549039d7c7044012379f98bc13a0b8a2bd322cab54902207be9a523e5216924ba377eb19b6dd06fd491f20f6df84d462e9a55ec841b6a630141041fd79bda6903a0db59ef0a0582464bd41e42c4ff6f43ceecb5b0e85d67f471d65fd42e7cc6fdaf66bc46ab940163fbbd52504e4e85d0b43f14c1932e08c24e84ffffffff02404b4c00000000001976a9147388dfb304e8504ef2bf0e87eb9931fc517254c388ac8018ed84040000001976a9146d7f92d48822138f14de6fc32a1b531f4932815588ac00000000"}, {"hash": "71d2cdc8e88cc7a71426c94c98629c512a6ddf2975d52229d46eedee994e4787", "ver": 1, "vin_sz": 1, "vout_sz": 1, "size": 224, "weight": 896, "fee": 0, "relayed_by": "0.0.0.0", "lock_time": 0, "tx_index": 4759690596441517, "double_spend": false, "time": 1298497310, "block_index": 110014, "block_height": 110014, "inputs": [{"sequence": 4294967295, "witness": "", "script": "48304502206ee58571739a10c6e90af40f11aca6aaae516bdd83187ca970b95d3fad615fb0022100aafaf745a429649e28e56e389759708735b6c2cc3e94df7e85a903ebb34895ee0141041b4dceae3dcf839d706f1dae19a4ac275467e97798ade3a43df51d0124f9f730ac8b1c7404d8cbbac3c3789a87aa385bd9ca7e841ee75ea753bdd2a1288a6f03", "index": 0, "prev_out": {"spent": true, "script": "76a914e9c1991383cc1ae63d2f75d581a6b7ce250b326f88ac", "spending_outpoints": [{"tx_index": 4759690596441517, "n": 0}], "tx_index": 7107776728795871, "value": 5000000, "addr": "1NJzN7rTyi2UqBccBJz24MAmC7WhA8dipM", "n": 1, "type": 0}}], "out": [{"type": 0, "spent": false, "value": 5000000, "spending_outpoints": [], "n": 0, "tx_index": 4759690596441517, "script": "76a914de25f311caea6f386f7d055c55bf48dbf02ff9fd88ac", "addr": "1MFcUN4g6Qom7WJ78JDj8psr3YXikHXacG"}], "hex": "0100000001ca03e1d88056fe00d557d3a41f05cf1997b2ae33588be0d4af8865211cbb76b2010000008b48304502206ee58571739a10c6e90af40f11aca6aaae516bdd83187ca970b95d3fad615fb0022100aafaf745a429649e28e56e389759708735b6c2cc3e94df7e85a903ebb34895ee0141041b4dceae3dcf839d706f1dae19a4ac275467e97798ade3a43df51d0124f9f730ac8b1c7404d8cbbac3c3789a87aa385bd9ca7e841ee75ea753bdd2a1288a6f03ffffffff01404b4c00000000001976a914de25f311caea6f386f7d055c55bf48dbf02ff9fd88ac00000000"}, {"hash": "08e10557172aec7606f8895f2db9473427b9094c5743936828efce83f96565e4", "ver": 1, "vin_sz": 1, "vout_sz": 2, "size": 258, "weight": 1032, "fee": 0, "relayed_by": "0.0.0.0", "lock_time": 0, "tx_index": 8035972917787101, "double_spend": false, "time": 1298497310, "block_index": 110014, "block_height": 110014, "inputs": [{"sequence": 4294967295, "witness": "", "script": "483045022067d59c37bb9543002c30981fc2a3eb8c34d013e1869b596bbecefce4fbb72bbc022100a3125852792511dcaa0aaa97471c9e752df99ba3a477adca9980cd667fb72aa5014104049a57bf1b9a39f48079374c67af2c92904660968c1a7d2e4dda929b0327b3d615dd7ce7babc683993f12b4ea781e28ff6e6f99b777d765876bb03b744b2bba9", "index": 0, "prev_out": {"spent": true, "script": "76a9146d7f92d48822138f14de6fc32a1b531f4932815588ac", "spending_outpoints": [{"tx_index": 8035972917787101, "n": 0}], "tx_index": 8401510924958946, "value": 19410000000, "addr": "1AyyUsnLYfujzWbiSK62JPyZF1wDDHVJJg", "n": 1, "type": 0}}], "out": [{"type": 0, "spent": true, "value": 19405000000, "spending_outpoints": [{"tx_index": 6365937993790335, "n": 0}], "n": 0, "tx_index": 8035972917787101, "script": "76a914d68d6fb548f0a2b960b45607cd2741d65dda0b3d88ac", "addr": "1LZT3DtkXva7mv1zZTzN5d6mdAQUogrnPq"}, {"type": 0, "spent": true, "value": 5000000, "spending_outpoints": [{"tx_index": 6527727340497632, "n": 20}], "n": 1, "tx_index": 8035972917787101, "script": "76a9145f5c936ce9f0f3d568d5db95e95df707c3fae22c88ac", "addr": "19hE6WWkGwzzfTLQzVPqksRt24JJSSQ6eZ"}], "hex": "0100000001eec9099211e71201ff07e86547e1fd9e9c7bc632413a2590c9fb9f6c9f13702f010000008b483045022067d59c37bb9543002c30981fc2a3eb8c34d013e1869b596bbecefce4fbb72bbc022100a3125852792511dcaa0aaa97471c9e752df99ba3a477adca9980cd667fb72aa5014104049a57bf1b9a39f48079374c67af2c92904660968c1a7d2e4dda929b0327b3d615dd7ce7babc683993f12b4ea781e28ff6e6f99b777d765876bb03b744b2bba9ffffffff0240cda084040000001976a914d68d6fb548f0a2b960b45607cd2741d65dda0b3d88ac404b4c00000000001976a9145f5c936ce9f0f3d568d5db95e95df707c3fae22c88ac00000000"}]}