{"hash": "000000000000a2047e6e8ac2aea55616cf13170c548395ef540fcb2a10a14354", "ver": 1, "prev_block": "000000000000572725f5526b9d851ec78e0e0562b429de00adbc92e4f0681aa6", "mrkl_root": "79973c11600178ac6b020927769266b1f88cccb46f244c95fa476ef09fa7a2a7", "time": 1298504686, "bits": 453102630, "next_block": ["0000000000009ef0c855cda2a61d844699dcc38172eb5fcfe5598c943cd4c6b0"], "fee": 0, "nonce": 3395989578, "n_tx": 10, "size": 3168, "block_index": 110032, "main_chain": true, "height": 110032, "weight": 12672, "tx": [{"hash": "8d4ee51da19783ab25debc7e6ea0539732bdb7b738460494c3c5ffda00b88fb8", "ver": 1, "vin_sz": 1, "vout_sz": 1, "size": 134, "weight": 536, "fee": 0, "relayed_by": "0.0.0.0", "lock_time": 0, "tx_index": 6493677020733432, "double_spend": false, "time": 1298504686, "block_index": 110032, "block_height": 110032, "inputs": [{"sequence": 4294967295, "witness": "", "script": "0426cc011b014b", "index": 0, "prev_out": null}], "out": [{"type": 0, "spent": true, "value": 5000000000, "spending_outpoints": [{"tx_index": 4441463378163560, "n": 1}], "n": 0, "tx_index": 6493677020733432, "script": "41041c81f053cb7d5f8db051e201af7202043df449dc59ee6df686878f5dbaaaeb7d8ce295a0dcf8606e6ee4d30f1279f4058a47efefbef5f76a3740ce1556dc308dac", "addr": "1FhG7jbHpFvGhuKj5F9irtKZiZ98aDWoMw"}], "hex": "01000000010000000000000000000000000000000000000000000000000000000000000000ffffffff070426cc011b014bffffffff0100f2052a010000004341041c81f053cb7d5f8db051e201af7202043df449dc59ee6df686878f5dbaaaeb7d8ce295a0dcf8606e6ee4d30f1279f4058a47efefbef5f76a3740ce1556dc308dac00000000"}, {"hash": "92964db0a913806b764829acdb148c2bb2c7666c0f5859d3fea188e1c3b9a935", "ver": 1, "vin_sz": 1, "vout_sz": 2, "size": 258, "weight": 1032, "fee": 0, "relayed_by": "0.0.0.0", "lock_time": 0, "tx_index": 1888098635755796, "double_spend": false, "time": 1298504686, "block_index": 110032, "block_height": 110032, "inputs": [{"sequence": 4294967295, "witness": "", "script": "483045022100ccaa18f09749ee500ca68bc11f5040dccedb432447aaf1e67de01d6720cc7d82022031cf61286ed1d0c5a7d492147efe43d93ba3944270ad96a3a5bf47ba58a0d4f501410429d15a05a66d1ef74fa280cc832877b83222ab23a97e15c92303cee611bad1976fcf74bd545ac7f110a1f60b3f23aae69ea707916f818a3cbefd23dc21ac11eb", "index": 0, "prev_out": {"spent": true, "script": "76a91489707aee67c5f05496e14b21588e1ed0da88681e88ac", "spending_outpoints": [{"tx_index": 1888098635755796, "n": 0}], "tx_index": 2303479557671669, "value": 24513000000, "addr": "1DXiKYSbwihwRNCX5CzeDzVuWC8hsSMP17", "n": 0, "type": 0}}], "out": [{"type": 0, "spent": true, "value": 23556000000, "spending_outpoints": [{"tx_index": 1889615943533852, "n": 0}], "n": 0, "tx_index": 1888098635755796, "script": "76a9149bbfacb414e31efec03bec9edb6d91ed9c569f9b88ac", "addr": "1FCXMXAERHt8p2gXN8nQDtgPNPveqiC3d8"}, {"type": 0, "spent": true, "value": 957000000, "spending_outpoints": [{"tx_index": 8263229624484406, "n": 0}], "n": 1, "tx_index": 1888098635755796, "script": "76a9148f9af834b36592bd0a344f4ce30bd6b0a38a227f88ac", "addr": "1E6KGuVtSyg1mr4KuDxjdXYUF8a84UxErm"}], "hex": "0100000001417805064257a9c01e16043ed62d2c41431de820db081a78c2a3c30dd7fc587f000000008b483045022100ccaa18f09749ee500ca68bc11f5040dccedb432447aaf1e67de01d6720cc7d82022031cf61286ed1d0c5a7d492147efe43d93ba3944270ad96a3a5bf47ba58a0d4f501410429d15a05a66d1ef74fa280cc832877b83222ab23a97e15c92303cee611bad1976fcf74bd545ac7f110a1f60b3f23aae69ea707916f818a3cbefd23dc21ac11ebffffffff0200090c7c050000001976a9149bbfacb414e31efec03bec9edb6d91ed9c569f9b88ac40a90a39000000001976a9148f9af834b36592bd0a344f4ce30bd6b0a38a227f88ac00000000"}, {"hash": "bfafb0a08e55d93b417132cabdc5a6f6d4845aeeb4212a5b89d5055ca9a16f0c", "ver": 1, "vin_sz": 3, "vout_sz": 1, "size": 387, "weight": 1548, "fee": 0, "relayed_by": "0.0.0.0", "lock_time": 0, "tx_index": 437554980290746, "double_spend": false, "time": 1298504686, "block_index": 110032, "block_height": 110032, "inputs": [{"sequence": 4294967295, "witness": "", "script": "483045022074d0fce71165f44461e061a094a0f036d49af365faef2430454c971c9fec8630022100b4e402377ed44951ed84dfc3d58713e7d825c11abb5449877bd6e7dfe452d1e001", "index": 0, "prev_out": {"spent": true, "script": "410457002d9da96551acaeeefd530527e26301ca5cedd2f0c5ade00d697f5177504664c0c63266af9a506651c42145fd01092e00d294f7970fd07fc09d6a86b07b7dac", "spending_outpoints": [{"tx_index": 437554980290746, "n": 0}], "tx_index": 7296069372877711, "value": 5000000000, "addr": "16DCJ4pmCUNteaCR7LN8Z9rFmjFgQRGF5B", "n": 0, "type": 0}}, {"sequence": 4294967295, "witness": "", "script": "493046022100d1f0fcf4d1b598e0badbae1e3cec9bf04e0f4013c2101992b82722539c24c3e5022100bb7cb7d68e13dc1e983880afc09e7257311d881029c2db152ba9d5ef80a0271101", "index": 1, "prev_out": {"spent": true, "script": "41046ed43f3302a7fadc1534d3256f16a8650c298e06bd353e26260f254478783f85b9dcdee7beb501a7ad7c6f5bd6053fdfde406e721a33d9b433a037c7a7935d6dac", "spending_outpoints": [{"tx_index": 437554980290746, "n": 1}], "tx_index": 7594274404161745, "value": 5000000000, "addr": "1Jy5EuBZu8Tpwc1crWCDk2vXUm7uiEvfSX", "n": 0, "type": 0}}, {"sequence": 4294967295, "witness": "", "script": "483045022027d6477218b759b8008130645aff2e3c0abaf2170cce21abe3f011772ebc2b3c022100dc556176ff94bd4748358616fd90a21568c976dcbfacd7a00262fb0ff28753fe01", "index": 2, "prev_out": {"spent": true, "script": "4104c2aa17fc696ed994dd0082c53ed39a44c52afa7ca6281d53b124a919c998b96f25a07709c609edfebd6a313add848b9b255fa2418e8633e7c16310ab640fdcbaac", "spending_outpoints": [{"tx_index": 437554980290746, "n": 2}], "tx_index": 1769391091396772, "value": 5000000000, "addr": "1AK5dUxYB4nawQkVZFVnYgGvDgm73ihyT6", "n": 0, "type": 0}}], "out": [{"type": 0, "spent": false, "value": 15000000000, "spending_outpoints": [], "n": 0, "tx_index": 437554980290746, "script": "76a91454655ae5c48c9db6a3f34dafe11bfe795c1e365588ac", "addr": "18hFBPU81kC8V4Dp4iwdwQHakKa5TW2ZkJ"}], "hex": "0100000003cf5de439d0dc7eb7abac541e2a5e9e167667b22eb825200ca42b519140a04b2a0000000049483045022074d0fce71165f44461e061a094a0f036d49af365faef2430454c971c9fec8630022100b4e402377ed44951ed84dfc3d58713e7d825c11abb5449877bd6e7dfe452d1e001ffffffffd7d79e617ec6884208f531d35fcc40128ffde71c332cfa53548bd49fe6eb1679000000004a493046022100d1f0fcf4d1b598e0badbae1e3cec9bf04e0f4013c2101992b82722539c24c3e5022100bb7cb7d68e13dc1e983880afc09e7257311d881029c2db152ba9d5ef80a0271101ffffffff324a03bbc5852746ab467b3dca3d41fd152c0a969977e52279867edaf22ded9c0000000049483045022027d6477218b759b8008130645aff2e3c0abaf2170cce21abe3f011772ebc2b3c022100dc556176ff94bd4748358616fd90a21568c976dcbfacd7a00262fb0ff28753fe01ffffffff0100d6117e030000001976a91454655ae5c48c9db6a3f34dafe11bfe795c1e365588ac00000000"}, {"hash": "211f07790cec8026bec719d6cea971473fd1e994bcf684076600fad83d3a15c6", "ver": 1, "vin_sz": 3, "vout_sz": 1, "size": 387, "weight": 1548, "fee": 0, "relayed_by": "0.0.0.0", "lock_time": 0, "tx_index": 6969423159828288, "double_spend": false, "time": 1298504686, "block_index": 110032, "block_height": 110032, "inputs": [{"sequence": 4294967295, "witness": "", "script": "49304602210082cb9ffd8400b35fc2cfbb230ca455d7f4d177d882e1c5f90c860e40e883929b0221009a1f7e3cbab12d726cf3c864a3cede3f7545291fe23ba9fb3c2320e61b7ee19201", "index": 0, "prev_out": {"spent": true, "script": "41041a098ce3b830e1c5df7ae847bc3bd8c1d7769577775fe6c4d8047f9077b60de330c3f70bd02cb3b788e1258f7b29016ee70bcdb138d6ff767b30fddffc65f645ac", "spending_outpoints": [{"tx_index": 6969423159828288, "n": 0}], "tx_index": 7301102994060726, "value": 5000000000, "addr": "1CXFE7mTYXAqNuMJdRK8F4KavePvdZugM4", "n": 0, "type": 0}}, {"sequence": 4294967295, "witness": "", "script": "483045022100fc3dfeb9600cccf388810df41209088fd1b6ed4952ae1949746b006a278ba70c0220631bb303588c8895abe08405ff4043dce8a92c4cd94b43aa75c9d98e65367a6601", "index": 1, "prev_out": {"spent": true, "script": "41049ef8e417b9fa168f9405d40b026ac489693bb259004ce07fe769577acd06b8725d9c8c318b6a86c8de420428ce8b51cab980906dc6f5c4d1a21662af1b292929ac", "spending_outpoints": [{"tx_index": 6969423159828288, "n": 1}], "tx_index": 7169168899062251, "value": 5000000000, "addr": "1GHui7BU8GkpNzPoxBoXKkYh8bawdo8nMU", "n": 0, "type": 0}}, {"sequence": 4294967295, "witness": "", "script": "4830450221009f0a38300a2020388f3d2fc4fa93e84249dc4842dabf00424375557bca55d30402205f6f6f230ae56c6fa62afe6610a72632db24268282a6701dab7aaae8962c5d6501", "index": 2, "prev_out": {"spent": true, "script": "41043024c47d0ebea3cd1ee0159345264d87e11d1b5ee678d42ae0896bccc59c349cd74787a5145475a16fe4a496065706d8a2539083654a443ec2aed28a9e5dad76ac", "spending_outpoints": [{"tx_index": 6969423159828288, "n": 2}], "tx_index": 5319636978243171, "value": 5000000000, "addr": "1PVwkj1VfFZdeiyEueWtmmDGrk3UnkiGMt", "n": 0, "type": 0}}], "out": [{"type": 0, "spent": false, "value": 15000000000, "spending_outpoints": [], "n": 0, "tx_index": 6969423159828288, "script": "76a91454655ae5c48c9db6a3f34dafe11bfe795c1e365588ac", "addr": "18hFBPU81kC8V4Dp4iwdwQHakKa5TW2ZkJ"}], "hex": "0100000003cf8284136fadb27244f3c0cf7c7bac15fe6b35e0f3245068a9fae6408d1d02b4000000004a49304602210082cb9ffd8400b35fc2cfbb230ca455d7f4d177d882e1c5f90c860e40e883929b0221009a1f7e3cbab12d726cf3c864a3cede3f7545291fe23ba9fb3c2320e61b7ee19201ffffffffcbc291ac81cf5b336029b29aa4a9825c155b78fe09dd68334d90680429ce447f0000000049483045022100fc3dfeb9600cccf388810df41209088fd1b6ed4952ae1949746b006a278ba70c0220631bb303588c8895abe08405ff4043dce8a92c4cd94b43aa75c9d98e65367a6601ffffffff9731740360b31fec9d3c74a79a9002d521e8b17af393163bf9a9a5cf97604c9500000000494830450221009f0a38300a2020388f3d2fc4fa93e84249dc4842dabf00424375557bca55d30402205f6f6f230ae56c6fa62afe6610a72632db24268282a6701dab7aaae8962c5d6501ffffffff0100d6117e030000001976a91454655ae5c48c9db6a3f34dafe11bfe795c1e365588ac00000000"}, {"hash": "cea9a4eb7dd39fb036fd9e3697516ed5a0fe793f4d5b578368527d38cbb5519d", "ver": 1, "vin_sz": 1, "vout_sz": 1, "size": 158, "weight": 632, "fee": 0, "relayed_by": "0.0.0.0", "lock_time": 0, "tx_index": 5535176572997546, "double_spend": false, "time": 1298504686, "block_index": 110032, "block_height": 110032, "inputs": [{"sequence": 4294967295, "witness": "", "script": "483045022100bd33935821e97fed24d38cc05546f6dc770419eeb60f89bc8507ed9b7b8b290702204b16a32fa53e9a38b66424abbdfc705fbea262671d12fcf93524ec0e44e9a0be01", "index": 0, "prev_out": {"spent": true, "script": "4104fdc2429fabd95f07630a5889bd4525922a2575821266756ff7efd9d4f37405ebb087c4cf50d279821845f255de29f52db5a335f11a2eb303f4c205682db8ee30ac", "spending_outpoints": [{"tx_index": 5535176572997546, "n": 0}], "tx_index": 3712424924219743, "value": 5000000000, "addr": "131VYeTf8MkUfneMh5jrzW7Ud9CN3YWCAU", "n": 0, "type": 0}}], "out": [{"type": 0, "spent": true, "value": 5000000000, "spending_outpoints": [{"tx_index": 7658665936589605, "n": 0}], "n": 0, "tx_index": 5535176572997546, "script": "76a914da20eee35fd43322be8e298e1cb7c63466b0348c88ac", "addr": "1LtMm4Bf9if8SQLtokVDTiHVWpF3SD7p6q"}], "hex": "010000000169837246e84aff6abb0c607b68c8d5fdca8c1a50db0bd54abcd0d666e5e148690000000049483045022100bd33935821e97fed24d38cc05546f6dc770419eeb60f89bc8507ed9b7b8b290702204b16a32fa53e9a38b66424abbdfc705fbea262671d12fcf93524ec0e44e9a0be01ffffffff0100f2052a010000001976a914da20eee35fd43322be8e298e1cb7c63466b0348c88ac00000000"}, {"hash": "be591978d5440a9c2cc80c883459442711d69db2b41a004a2322817b7dff364a", "ver": 1, "vin_sz": 1, "vout_sz": 1, "size": 224, "weight": 896, "fee": 0, "relayed_by": "0.0.0.0", "lock_time": 0, "tx_index": 2611202403299364, "double_spend": false, "time": 1298504686, "block_index": 110032, "block_height": 110032, "inputs": [{"sequence": 4294967295, "witness": "", "script": "48304502202792ae46f2d5677e5b18fce0fbac080d5f1c9b87ab088d5749b3d75e1733cfb3022100d66eed2b0be8e91b22351445a8c2a5be0b106c553a316af6c6a0e1827d48c103014104c102d3db0e2ac47dbe20654df779f8449d09b8784dae17dcf4204d20eb50516fb9b70f4efdc3b65838b21fcb93ab032b45b324267e264814dd8c6c4422f7ed32", "index": 0, "prev_out": {"spent": true, "script": "76a914badc2ac991f2a407503c5c101afabbaf6511d19688ac", "spending_outpoints": [{"tx_index": 2611202403299364, "n": 0}], "tx_index": 8338244678231463, "value": 100000000, "addr": "1J32SAMxtJWVDMr7BkqCrHnoSMK56LkTyu", "n": 0, "type": 0}}], "out": [{"type": 0, "spent": false, "value": 100000000, "spending_outpoints": [], "n": 0, "tx_index": 2611202403299364, "script": "76a9145114a97c57be4116ee1250a7c7eceabd75e8842088ac", "addr": "18PiVAT3WyTFNbcqMiQN9DEtRWMbDbUGaJ"}], "hex": "0100000001ecfcb700c52d392f25c866a097bc4201595ec9283e175c99f0ce0bf0ca7984d4000000008b48304502202792ae46f2d5677e5b18fce0fbac080d5f1c9b87ab088d5749b3d75e1733cfb3022100d66eed2b0be8e91b22351445a8c2a5be0b106c553a316af6c6a0e1827d48c103014104c102d3db0e2ac47dbe20654df779f8449d09b8784dae17dcf4204d20eb50516fb9b70f4efdc3b65838b21fcb93ab032b45b324267e264814dd8c6c4422f7ed32ffffffff0100e1f505000000001976a9145114a97c57be4116ee1250a7c7eceabd75e8842088ac00000000"}, {"hash": "97afc48dbd8c43b4fc313b0bff9e9a1eab1f16e51e9e02703ce41396b8910b89", "ver": 1, "vin_sz": 1, "vout_sz": 2, "size": 259, "weight": 1036, "fee": 0, "relayed_by": "0.0.0.0", "lock_time": 0, "tx_index": 4821849038045820, "double_spend": false, "time": 1298504686, "block_index": 110032, "block_height": 110032, "inputs": [{"sequence": 4294967295, "witness": "", "script": "49304602210081fa976bf57eb25d6e4f5f0c00f68263efc2ceddb5b73e56d670edfcab91089f022100a3e9f67afa36ef70abea7fc4ac53ee7fe1db9efd23c25e0e4a449e40d2993b74014104328e62423eb1e8877d1aa80d8c3dec81f045c09187ac933827852c081daf1a01770f71db5556882014c995e9283dab1078b6095fd5fcb204e01d94b37d2e4d76", "index": 0, "prev_out": {"spent": true, "script": "76a914c1e624e89a22ca8346de37e0fc2509bff05c837788ac", "spending_outpoints": [{"tx_index": 4821849038045820, "n": 0}], "tx_index": 2653747739937153, "value": 500000000, "addr": "1JgF7iosyLsWKmMyFLVczCAUsLoXVJ4mqr", "n": 1, "type": 0}}], "out": [{"type": 0, "spent": false, "value": 200000000, "spending_outpoints": [], "n": 0, "tx_index": 4821849038045820, "script": "76a9145114a97c57be4116ee1250a7c7eceabd75e8842088ac", "addr": "18PiVAT3WyTFNbcqMiQN9DEtRWMbDbUGaJ"}, {"type": 0, "spent": true, "value": 300000000, "spending_outpoints": [{"tx_index": 5143869765882914, "n": 0}], "n": 1, "tx_index": 4821849038045820, "script": "76a9148ebd59c1667977b4dd321b3a024eaaa0c7f3467588ac", "addr": "1E1jnYwm2NGVMeWTPhrukfUHfpS5B8zhQ6"}], "hex": "01000000014b6c8e5ae64c0feb2d1d23bcebe14ab751f8354e7d43c6e8a78b8950ecd176cc010000008c49304602210081fa976bf57eb25d6e4f5f0c00f68263efc2ceddb5b73e56d670edfcab91089f022100a3e9f67afa36ef70abea7fc4ac53ee7fe1db9efd23c25e0e4a449e40d2993b74014104328e62423eb1e8877d1aa80d8c3dec81f045c09187ac933827852c081daf1a01770f71db5556882014c995e9283dab1078b6095fd5fcb204e01d94b37d2e4d76ffffffff0200c2eb0b000000001976a9145114a97c57be4116ee1250a7c7eceabd75e8842088ac00a3e111000000001976a9148ebd59c1667977b4dd321b3a024eaaa0c7f3467588ac00000000"}, {"hash": "5d158e0e5317101607f2795a473122a95c64295daceb4b64402ff2df5dba9598", "ver": 1, "vin_sz": 4, "vout_sz": 1, "size": 764, "weight": 3056, "fee": 0, "relayed_by": "0.0.0.0", "lock_time": 0, "tx_index": 5368603016429125, "double_spend": false, "time": 1298504686, "block_index": 110032, "block_height": 110032, "inputs": [{"sequence": 4294967295, "witness": "", "script": "493046022100bcb216d9cf0740154a64efe92ae4bfa1bc3ac4235f5ed5d10e172e3557b9c97d022100d255db2896856b381a1042e54f50f93436f24f402e681c173a0713c17ab2e05d01410474d92d462e4a9a1d1840cbf54ff565c699c6a4e8bb7de4f20f3cf17e18e93da803cf404b6fa09fc8388d7557777e775a458576996b0728a8946db41e09d8dad5", "index": 0, "prev_out": {"spent": true, "script": "76a9144bf3d76b36830608b2baaf9012e0e6764547d29d88ac", "spending_outpoints": [{"tx_index": 5368603016429125, "n": 0}], "tx_index": 873942385322010, "value": 1000000, "addr": "17vbnnqc5YVWnDpqzZWRRjhnoyj8vzCoeN", "n": 1, "type": 0}}, {"sequence": 4294967295, "witness": "", "script": "47304402202f1eb6fbfc38c8a623939d48d1f7d4575226c2f55641f06fd5222b11b011ace002207952a6b8b6e4a391c5d494d93761fa005c5ceaee8c9684c3b9380dd211e79288014104c82740450d4b092143a01d72f2e3281f3e069738167e1d5ba5c8776e3b02877a67dd709f876faf503097cf7cc540d5b5e552bf903ddd04e5c5648c41996d614f", "index": 1, "prev_out": {"spent": true, "script": "76a9140c06e0a869292ca77b0c0cf95bd4d8d1f18499ab88ac", "spending_outpoints": [{"tx_index": 5368603016429125, "n": 1}], "tx_index": 3103192393184133, "value": 500000000, "addr": "126bMAWKb9JPt4Rc1gTvtoF9bew1SA8Uzm", "n": 0, "type": 0}}, {"sequence": 4294967295, "witness": "", "script": "48304502210086e6565a6935e1c1db9763e03ffc563cb09c5dc56e900de7664604244a64279b02207333554753da1bb87d304f83c1f6988fb9d40f9a8bcab847a63343596de16f4f0141044d23902066444d75769a32b2a3ad54c9502036794d85f8c1acc818675bd1c2d5933240ffc56a0d186a45eceef12543c3d58877180fb18f9d06cadbd6e77eb999", "index": 2, "prev_out": {"spent": true, "script": "76a914194a266f1002b6da4fd0d73a988b2bc0dbdb87e188ac", "spending_outpoints": [{"tx_index": 5368603016429125, "n": 2}], "tx_index": 6684879577451195, "value": 20000000, "addr": "13JiiqZZazqwywBACUGJ7adYxyWgt1nEra", "n": 1, "type": 0}}, {"sequence": 4294967295, "witness": "", "script": "483045022060941ab955aed220c03c566467675aac91ebf6718e586a0a576c749e3f589f0f02210094ec01f6200c62b3b68771967b5abc9b0359991b098b2a8c2a6a7a36be0a4248014104a6fa1b0d194e6cce8c3b58e291445dfd5788eda9f49bda555c8f8f3a52850765645d55ce16b45c8f281f3772b1afdf6772ecc3b7fb1f7e5e5da8bf849ff39068", "index": 3, "prev_out": {"spent": true, "script": "76a914332e8e34541560458687a5357693c1185b077a8688ac", "spending_outpoints": [{"tx_index": 5368603016429125, "n": 3}], "tx_index": 7266349892781239, "value": 12000000, "addr": "15fdEWtDcc6THx9YMfVm4vLKEVcLc61C8s", "n": 1, "type": 0}}], "out": [{"type": 0, "spent": true, "value": 533000000, "spending_outpoints": [{"tx_index": 8145597846564446, "n": 6}], "n": 0, "tx_index": 5368603016429125, "script": "76a9144e9b1ffb1df435833a80bead93233cb91f55195288ac", "addr": "18AdYERwW1Fpj6ox3nuALGiuVVUgmZbQwK"}], "hex": "010000000418d6c48b7340d14a56e9eca9294591252ea1e370e3069e48e1b03e3d36330a50010000008c493046022100bcb216d9cf0740154a64efe92ae4bfa1bc3ac4235f5ed5d10e172e3557b9c97d022100d255db2896856b381a1042e54f50f93436f24f402e681c173a0713c17ab2e05d01410474d92d462e4a9a1d1840cbf54ff565c699c6a4e8bb7de4f20f3cf17e18e93da803cf404b6fa09fc8388d7557777e775a458576996b0728a8946db41e09d8dad5ffffffff5832b2421f9c2f96a42e81d28d40db7877226904ea194598121238ca99038dde000000008a47304402202f1eb6fbfc38c8a623939d48d1f7d4575226c2f55641f06fd5222b11b011ace002207952a6b8b6e4a391c5d494d93761fa005c5ceaee8c9684c3b9380dd211e79288014104c82740450d4b092143a01d72f2e3281f3e069738167e1d5ba5c8776e3b02877a67dd709f876faf503097cf7cc540d5b5e552bf903ddd04e5c5648c41996d614fffffffffbdfee684a455dca5060043d10e62049d7a6498eeb235057707d9fd1d4193340b010000008b48304502210086e6565a6935e1c1db9763e03ffc563cb09c5dc56e900de7664604244a64279b02207333554753da1bb87d304f83c1f6988fb9d40f9a8bcab847a63343596de16f4f0141044d23902066444d75769a32b2a3ad54c9502036794d85f8c1acc818675bd1c2d5933240ffc56a0d186a45eceef12543c3d58877180fb18f9d06cadbd6e77eb999ffffffffce85a7616225b8241077e855f8506157f4dbd18139f50ded333b89b9d1e7373d010000008b483045022060941ab955aed220c03c566467675aac91ebf6718e586a0a576c749e3f589f0f02210094ec01f6200c62b3b68771967b5abc9b0359991b098b2a8c2a6a7a36be0a4248014104a6fa1b0d194e6cce8c3b58e291445dfd5788eda9f49bda555c8f8f3a52850765645d55ce16b45c8f281f3772b1afdf6772ecc3b7fb1f7e5e5da8bf849ff39068ffffffff0140efc41f000000001976a9144e9b1ffb1df435833a80bead93233cb91f55195288ac00000000"}, {"hash": "5463be570c555bcf30dcdbdb6f0eeda47ac01b3d1865ab298336b7bbc4695248", "ver": 1, "vin_sz": 1, "vout_sz": 2, "size": 258, "weight": 1032, "fee": 0, "relayed_by": "0.0.0.0", "lock_time": 0, "tx_index": 2544601568605926, "double_spend": false, "time": 1298504686, "block_index": 110032, "block_height": 110032, "inputs": [{"sequence": 4294967295, "witness": "", "script": "48304502201e16835b78493300b0bd06fe9b5656b403280dd3dc146ebfc664cfc2be5055ce022100d8b27dd89fdbd094b7fb0a74cc9ba7d82a776d62dce8ce5d6eed7d9f5113a4f90141041c83f9beca450ad47bdec52e0e19d84c2c6623eaddc145c64d8c05d778132a21f2c99060e187e34e3ddbd63968830a55d85f825a72358f6ea8fd4701c4d69e58", "index": 0, "prev_out": {"spent": true, "script": "76a9146c59b678a90394840b6a3421232385a02e8d042388ac", "spending_outpoints": [{"tx_index": 2544601568605926, "n": 0}], "tx_index": 1459639041133209, "value": 19080000000, "addr": "1AsuT57FK8kaf3WTREdcsqziNX3Eb9ahpM", "n": 1, "type": 0}}], "out": [{"type": 0, "spent": true, "value": 19075000000, "spending_outpoints": [{"tx_index": 3940808554192021, "n": 0}], "n": 0, "tx_index": 2544601568605926, "script": "76a914f1f95fe74a7073af8ce53c789eafde285ee4300088ac", "addr": "1P4Sb5rYuQ4RgsPThwXQQDs6Fx2UCNsg1x"}, {"type": 0, "spent": true, "value": 5000000, "spending_outpoints": [{"tx_index": 5862381925759719, "n": 0}], "n": 1, "tx_index": 2544601568605926, "script": "76a91453aedca0f6737f1b637d897ea077aee77067228c88ac", "addr": "18dUZY2ZTkSgg73zFm9G3GVBJiLnsfW1ew"}], "hex": "0100000001297c45946054c9120cb1462e78a8502b579b55c55bc984f8f1881ccc26dbd724010000008b48304502201e16835b78493300b0bd06fe9b5656b403280dd3dc146ebfc664cfc2be5055ce022100d8b27dd89fdbd094b7fb0a74cc9ba7d82a776d62dce8ce5d6eed7d9f5113a4f90141041c83f9beca450ad47bdec52e0e19d84c2c6623eaddc145c64d8c05d778132a21f2c99060e187e34e3ddbd63968830a55d85f825a72358f6ea8fd4701c4d69e58ffffffff02c066f570040000001976a914f1f95fe74a7073af8ce53c789eafde285ee4300088ac404b4c00000000001976a91453aedca0f6737f1b637d897ea077aee77067228c88ac00000000"}, {"hash": "473c171f5d4154828563504bf4b99285e666da78a50955916478d49c8d27539e", "ver": 1, "vin_sz": 1, "vout_sz": 2, "size": 258, "weight": 1032, "fee": 0, "relayed_by": "0.0.0.0", "lock_time": 0, "tx_index": 5570559458122383, "double_spend": false, "time": 1298504686, "block_index": 110032, "block_height": 110032, "inputs": [{"sequence": 4294967295, "witness": "", "script": "483045022077a2a0dbe171fc40c4a7ac0c1a66db28d83c6ae199b2d96f496a260e4905c381022100e23d8af9d7e2058137b7a06e38901b54f8698a0796d6c3db2548697a19c87b120141045e24c08d9923fe5506ad13ea1ce2a4474e71aa422bf9e739ca105a988a3ac49bbc81af87f191d15fd0398370133f339be8c89909bdcf2a549086be7fdcad82cf", "index": 0, "prev_out": {"spent": true, "script": "76a9142f179be37c3e336d010441f214a4273c869cb50088ac", "spending_outpoints": [{"tx_index": 5570559458122383, "n": 0}], "tx_index": 5527194484347043, "value": 5000000, "addr": "15J13PrBpKC3ci6SnbDcCWFtuNBEmmKs5G", "n": 1, "type": 0}}], "out": [{"type": 0, "spent": true, "value": 4000000, "spending_outpoints": [{"tx_index": 1187070666505574, "n": 0}], "n": 0, "tx_index": 5570559458122383, "script": "76a914cf166523b3f94859c35caf4c00dc5c087dc7e9a188ac", "addr": "1KsyhkGk3vjghsdwKpCMFF44iM2MyF8qdu"}, {"type": 0, "spent": true, "value": 1000000, "spending_outpoints": [{"tx_index": 5628218755289902, "n": 4}], "n": 1, "tx_index": 5570559458122383, "script": "76a9140073f88bd8a90aeb8009a1fee38267304df48eda88ac", "addr": "113PvoJQ3c8f9EfqSBKtwFy7U1qQtApAES"}], "hex": "01000000019d17a1fec08518ce1cefd9144f1c100af0846fc22c15753915cb79d18ed26504010000008b483045022077a2a0dbe171fc40c4a7ac0c1a66db28d83c6ae199b2d96f496a260e4905c381022100e23d8af9d7e2058137b7a06e38901b54f8698a0796d6c3db2548697a19c87b120141045e24c08d9923fe5506ad13ea1ce2a4474e71aa422bf9e739ca105a988a3ac49bbc81af87f191d15fd0398370133f339be8c89909bdcf2a549086be7fdcad82cfffffffff0200093d00000000001976a914cf166523b3f94859c35caf4c00dc5c087dc7e9a188ac40420f00000000001976a9140073f88bd8a90aeb8009a1fee38267304df48eda88ac00000000"}]}