{"hash": "00000000000020b61bd5f7fc93a7ff4dfd2986d9d1c0b9347029467fc8b58141", "ver": 1, "prev_block": "000000000000fb9d5cf33379f813f3a28e4886a2ddf4b0c602f9f87f9f3bc4f8", "mrkl_root": "8138d3dfd17e05aa2cae21806526279f75e355eb6622637ce150ef1336f7ed0b", "time": 1298498568, "bits": 453102630, "next_block": ["000000000000bde7709c358c7482ad1b3a62d9a7f337da771779551a5beb41fc"], "fee": 0, "nonce": 1897281299, "n_tx": 3, "size": 992, "block_index": 110017, "main_chain": true, "height": 110017, "weight": 3968, "tx": [{"hash": "b69965947c23643f7c56ab2024ef2e567673022ce03d446cee6a15da74654e17", "ver": 1, "vin_sz": 1, "vout_sz": 1, "size": 134, "weight": 536, "fee": 0, "relayed_by": "0.0.0.0", "lock_time": 0, "tx_index": 820015265432237, "double_spend": false, "time": 1298498568, "block_index": 110017, "block_height": 110017, "inputs": [{"sequence": 4294967295, "witness": "", "script": "0426cc011b0104", "index": 0, "prev_out": null}], "out": [{"type": 0, "spent": true, "value": 5000000000, "spending_outpoints": [{"tx_index": 6890568220130830, "n": 0}], "n": 0, "tx_index": 820015265432237, "script": "410458200d19d2842d7647614c55db9406251df5da2f6a5ff5d6d4382521999908284fbbfa5bfc433740c2c5357bbf6d019fdfcb1e90abbd85cfd7140216190f9079ac", "addr": "1EjDqductwkGe5WtvCCSx5CeT75kruQMwA"}], "hex": "01000000010000000000000000000000000000000000000000000000000000000000000000ffffffff070426cc011b0104ffffffff0100f2052a0100000043410458200d19d2842d7647614c55db9406251df5da2f6a5ff5d6d4382521999908284fbbfa5bfc433740c2c5357bbf6d019fdfcb1e90abbd85cfd7140216190f9079ac00000000"}, {"hash": "5c12931b42a926e65a2b9737c3a7df9106a673c31d227540bec5f5dee673cedc", "ver": 1, "vin_sz": 1, "vout_sz": 1, "size": 159, "weight": 636, "fee": 0, "relayed_by": "0.0.0.0", "lock_time": 0, "tx_index": 7768936508284600, "double_spend": false, "time": 1298498568, "block_index": 110017, "block_height": 110017, "inputs": [{"sequence": 4294967295, "witness": "", "script": "4930460221008dc7da938ee977dc06ec8731c71674934bec3b054f4028e5a7364e160f09006f022100837105d64fbc32a0bdd426f46dacab2e80d644c03a32fa9c87cb0962c95e5be301", "index": 0, "prev_out": {"spent": true, "script": "41049d49728d5dd03a0482e7b89276919766a105b1dee9d9c7b892498240dd9292ded225d8e1de311747a05b411d81b12e84a5cff40416db7077c4a5a8522c08053eac", "spending_outpoints": [{"tx_index": 7768936508284600, "n": 0}], "tx_index": 5096941848784462, "value": 5000000000, "addr": "14rNvA3XhEQv4F5UvFMy2PLrcUpmDk7UAA", "n": 0, "type": 0}}], "out": [{"type": 0, "spent": true, "value": 5000000000, "spending_outpoints": [{"tx_index": 5204009855972937, "n": 10}], "n": 0, "tx_index": 7768936508284600, "script": "76a914a176066f9f04f4160035db364696fd69074d39c188ac", "addr": "1FijBR5s3EU1JS3UokzTZbkAibgL4SXzxm"}], "hex": "010000000190dd2202b372773cf6e17b60e98f5db68fd69429d9928749717b5ea7831f8def000000004a4930460221008dc7da938ee977dc06ec8731c71674934bec3b054f4028e5a7364e160f09006f022100837105d64fbc32a0bdd426f46dacab2e80d644c03a32fa9c87cb0962c95e5be301ffffffff0100f2052a010000001976a914a176066f9f04f4160035db364696fd69074d39c188ac00000000"}, {"hash": "7e60e7a776d2ca3fef9dbdb785f741587ee4d601dd49daac19304bb4d99a41b9", "ver": 1, "vin_sz": 3, "vout_sz": 2, "size": 618, "weight": 2472, "fee": 0, "relayed_by": "0.0.0.0", "lock_time": 0, "tx_index": 6518125503088998, "double_spend": false, "time": 1298498568, "block_index": 110017, "block_height": 110017, "inputs": [{"sequence": 4294967295, "witness": "", "script": "483045022047e62930cba305caee6de56cb1db7f8e9eed1decceed4e023b717e2c7ad506df022100a39a9cee0d8eeb33d1494d352bae5fd0389c786433edb69469724ce9fa7399e20141044826d7b2fef25f69a2789cb8466cf80d82f7a11262b75e9cf2b8fb17018b5361f396c6f711770bea134da77e0a56b9c44634b67683ba63886eff36235e1e6fd7", "index": 0, "prev_out": {"spent": true, "script": "76a91496afa037efad585fb345541b6dc12f2fb5eefaa388ac", "spending_outpoints": [{"tx_index": 6518125503088998, "n": 0}], "tx_index": 2721272388380916, "value": 3685000000, "addr": "1EjkkURUccfi76TT91WxjEwVY3HJc5vpLU", "n": 1, "type": 0}}, {"sequence": 4294967295, "witness": "", "script": "48304502206a3987d87aea800bbf0e60bbf3c570708d9254338a296ed50ff760903ef27cb602210095ce0a32d1a1f62b205c43a908f20b22aca66add4d4ff73f75eff60b27d17c5801410471f158f9afdc306cafbe5cd039ab8d0f38bccecc275ef07dfbe43d1492532aecf169837207500ba7eb96fddaca0f06501dc29457dc32f39e66cdae5742456a8b", "index": 1, "prev_out": {"spent": true, "script": "76a9140276bf188efeff120b1e84157c1b818ffd00710188ac", "spending_outpoints": [{"tx_index": 6518125503088998, "n": 1}], "tx_index": 7862422883408787, "value": 400000000, "addr": "1E2c2unxbc4UvTjvdFYdDwEu6kfReBM4v", "n": 1, "type": 0}}, {"sequence": 4294967295, "witness": "", "script": "48304502200337b572d900fca31e4d2f60440a79dd040df473c439fad4e7306f1ff9b5c4ef022100a80d6e04d625826d8a97ac1b40945a92b5597b63c4b3050458ab28227631edd50141040066c5fcd294abf899406a251cd7d762432b310b4f341aca861f19489a6cddb1de46fe304ebda84e31ba4dd613bdab0965e550c4773ed7f357a99a8958ebad37", "index": 2, "prev_out": {"spent": true, "script": "76a914e95fd8266043615046ebacfc6a3de842bbdafb6688ac", "spending_outpoints": [{"tx_index": 6518125503088998, "n": 2}], "tx_index": 2415899333353314, "value": 1000000000, "addr": "1NGyG5WHNHwAeeRj7ZXKoGRej3qQyQcMxE", "n": 0, "type": 0}}], "out": [{"type": 0, "spent": true, "value": 4825000000, "spending_outpoints": [{"tx_index": 8464530714313356, "n": 1}], "n": 0, "tx_index": 6518125503088998, "script": "76a914942c47a97ed8f6a2e623e0ad5e7aab229f305a8488ac", "addr": "1EWU41qNRg4WhuNfrxpxb7b1LoEzxCGHDt"}, {"type": 0, "spent": true, "value": 260000000, "spending_outpoints": [{"tx_index": 6777419914834392, "n": 23}], "n": 1, "tx_index": 6518125503088998, "script": "76a9149ce950c6359fa7d74bae873a3542531d5495d55288ac", "addr": "1FJfuyQ6QaQqvXy1YfTgscNGfPGVTcRDNt"}], "hex": "01000000034d57dcd05f47a5ca75f0d01534484490425328d040fee849f7bcde5b1d1c0ae3010000008b483045022047e62930cba305caee6de56cb1db7f8e9eed1decceed4e023b717e2c7ad506df022100a39a9cee0d8eeb33d1494d352bae5fd0389c786433edb69469724ce9fa7399e20141044826d7b2fef25f69a2789cb8466cf80d82f7a11262b75e9cf2b8fb17018b5361f396c6f711770bea134da77e0a56b9c44634b67683ba63886eff36235e1e6fd7ffffffffdf76a7d850dc9ed5d7dd19686de2b0ea4c93e88f284df2c445bd79538459b3d5010000008b48304502206a3987d87aea800bbf0e60bbf3c570708d9254338a296ed50ff760903ef27cb602210095ce0a32d1a1f62b205c43a908f20b22aca66add4d4ff73f75eff60b27d17c5801410471f158f9afdc306cafbe5cd039ab8d0f38bccecc275ef07dfbe43d1492532aecf169837207500ba7eb96fddaca0f06501dc29457dc32f39e66cdae5742456a8bffffffff44a9fb2c9efb101ec9bb2d77e1e766009b17f1d5a1c8d0a0950c22be2eca1ce7000000008b48304502200337b572d900fca31e4d2f60440a79dd040df473c439fad4e7306f1ff9b5c4ef022100a80d6e04d625826d8a97ac1b40945a92b5597b63c4b3050458ab28227631edd50141040066c5fcd294abf899406a251cd7d762432b310b4f341aca861f19489a6cddb1de46fe304ebda84e31ba4dd613bdab0965e550c4773ed7f357a99a8958ebad37ffffffff0240a8971f010000001976a914942c47a97ed8f6a2e623e0ad5e7aab229f305a8488ac00497f0f000000001976a9149ce950c6359fa7d74bae873a3542531d5495d55288ac00000000"}]}