{"hash": "000000000000010bb397b7a3304db4453a07c02bd853cfef886fe033ec6ce26e", "ver": 1, "prev_block": "000000000001071029794f956353c4f44cf831dc6931e815f3a7503292c8e50d", "mrkl_root": "4d76fe128a535d0caf138f037589a08e3c5339d72aff424370ec663bbe426b3b", "time": 1298494797, "bits": 453102630, "next_block": ["0000000000016914b0f038ef9af4599bc950c3bcd827beb7122b6da199ae1e71"], "fee": 0, "nonce": 3424073909, "n_tx": 11, "size": 2697, "block_index": 110007, "main_chain": true, "height": 110007, "weight": 10788, "tx": [{"hash": "0f88837ce2c3c5f6ff6f6552265871f6da9384c46b1fd752271b64fff1496d07", "ver": 1, "vin_sz": 1, "vout_sz": 1, "size": 134, "weight": 536, "fee": 0, "relayed_by": "0.0.0.0", "lock_time": 0, "tx_index": 261311149632643, "double_spend": false, "time": 1298494797, "block_index": 110007, "block_height": 110007, "inputs": [{"sequence": 4294967295, "witness": "", "script": "0426cc011b0128", "index": 0, "prev_out": null}], "out": [{"type": 0, "spent": true, "value": 5000000000, "spending_outpoints": [{"tx_index": 4180345615813768, "n": 1}], "n": 0, "tx_index": 261311149632643, "script": "41040127efa6b9e25d0d4db17ed513b9fa50e10de90a376bcb0227b73b2008f06469e276bf3a00fb8773086bbd88b447693dfac740264fef9e9d56524ad86dc1a401ac", "addr": "1MjExwMX2KAe9KPZCxQqos79HMvc9su9Hs"}], "hex": "01000000010000000000000000000000000000000000000000000000000000000000000000ffffffff070426cc011b0128ffffffff0100f2052a010000004341040127efa6b9e25d0d4db17ed513b9fa50e10de90a376bcb0227b73b2008f06469e276bf3a00fb8773086bbd88b447693dfac740264fef9e9d56524ad86dc1a401ac00000000"}, {"hash": "7a10238c8c231babc85f60e160adc9d3cc6282c4304ebe013fbfb0935c2e5ab0", "ver": 1, "vin_sz": 1, "vout_sz": 1, "size": 159, "weight": 636, "fee": 0, "relayed_by": "0.0.0.0", "lock_time": 0, "tx_index": 6204843883656727, "double_spend": false, "time": 1298494797, "block_index": 110007, "block_height": 110007, "inputs": [{"sequence": 4294967295, "witness": "", "script": "493046022100a8b566fc2acd03536285cd892292535e7b421860035831ad8696cb9d0404e097022100b2b421564de2b29d71091950fbc6bf191c1b5afe79c531a6eaf88a89cbcd41c801", "index": 0, "prev_out": {"spent": true, "script": "4104fe5fd4b0b3c177832ab4339d4274bed73848a9489a423a67fb3e391cf48a567660f11b47d69b0e94bb1df1dd4c09d863f58a72cd1db0a1a0abe7595e8af6632eac", "spending_outpoints": [{"tx_index": 6204843883656727, "n": 0}], "tx_index": 2490698872645052, "value": 5000000000, "addr": "18wDvf7SokdmfyGvpr3WBM1A71qEtzp5zH", "n": 0, "type": 0}}], "out": [{"type": 0, "spent": true, "value": 5000000000, "spending_outpoints": [{"tx_index": 6197128587879230, "n": 0}], "n": 0, "tx_index": 6204843883656727, "script": "76a9144d63a4b3b4ae384c44ff5d112a9b87c4c49ff36f88ac", "addr": "184CQ7agrApMYpnKTzWnsMjV9Wx3raHw7S"}], "hex": "010000000146ca382c5f2de6ef0aa385811c54fe28f20905b8250b43096391bf882a3fbc0a000000004a493046022100a8b566fc2acd03536285cd892292535e7b421860035831ad8696cb9d0404e097022100b2b421564de2b29d71091950fbc6bf191c1b5afe79c531a6eaf88a89cbcd41c801ffffffff0100f2052a010000001976a9144d63a4b3b4ae384c44ff5d112a9b87c4c49ff36f88ac00000000"}, {"hash": "72aca73e6b7fba596641daf243434a86657ed3bd6eb312c93eb032dd2f2cbf69", "ver": 1, "vin_sz": 1, "vout_sz": 2, "size": 258, "weight": 1032, "fee": 0, "relayed_by": "0.0.0.0", "lock_time": 0, "tx_index": 3720633632138838, "double_spend": false, "time": 1298494797, "block_index": 110007, "block_height": 110007, "inputs": [{"sequence": 4294967295, "witness": "", "script": "483045022100f59db4b7003d0350255640682987c03c75e46f14055d3e7c64c6de538f0eb6ea02203d87fde46c3c4d11608b3d0268b362b7e96be5068ae56cceb4993ee895c61b2c014104f04ebb890b3d9f56f9839279aa0d3c70bc27363d2439020f446c7f7c8effc813ca546e21bcb64269c331e33aabdd1b6410c65ed2017a2fe6e0070d65e036466d", "index": 0, "prev_out": {"spent": true, "script": "76a914a60f88d31d7297339cd1ab334cd6c13933ffdc1f88ac", "spending_outpoints": [{"tx_index": 3720633632138838, "n": 0}], "tx_index": 7707682067726197, "value": 19490000000, "addr": "1G93nCUYN6FgXwoW8fw1QFfosnVVEczisw", "n": 0, "type": 0}}], "out": [{"type": 0, "spent": true, "value": 19485000000, "spending_outpoints": [{"tx_index": 8449092852534629, "n": 0}], "n": 0, "tx_index": 3720633632138838, "script": "76a914830fcbc44e1731bc59ae00ee6a31e2fd3d2b7b2288ac", "addr": "1CwzSerPhvPv2QZGyvZJNBrcGATYtUpfjg"}, {"type": 0, "spent": true, "value": 5000000, "spending_outpoints": [{"tx_index": 4676101324296156, "n": 0}], "n": 1, "tx_index": 3720633632138838, "script": "76a914df1600e9d710d6f7b42297654ebfe74c7768a25288ac", "addr": "1MLa3cYnscUe7Ug5fBMp1FLcUQdA5gN6QC"}], "hex": "0100000001db10c49d81fbaa2b839e98987f83bf1d7780cb2205cb63df4cee8561e4a7be79000000008b483045022100f59db4b7003d0350255640682987c03c75e46f14055d3e7c64c6de538f0eb6ea02203d87fde46c3c4d11608b3d0268b362b7e96be5068ae56cceb4993ee895c61b2c014104f04ebb890b3d9f56f9839279aa0d3c70bc27363d2439020f446c7f7c8effc813ca546e21bcb64269c331e33aabdd1b6410c65ed2017a2fe6e0070d65e036466dffffffff0240816589040000001976a914830fcbc44e1731bc59ae00ee6a31e2fd3d2b7b2288ac404b4c00000000001976a914df1600e9d710d6f7b42297654ebfe74c7768a25288ac00000000"}, {"hash": "06470e86c2850bd6471c148aba41dd36f269e782004fb64a032b6b32d13d23f0", "ver": 1, "vin_sz": 1, "vout_sz": 2, "size": 257, "weight": 1028, "fee": 0, "relayed_by": "0.0.0.0", "lock_time": 0, "tx_index": 8449092852534629, "double_spend": false, "time": 1298494797, "block_index": 110007, "block_height": 110007, "inputs": [{"sequence": 4294967295, "witness": "", "script": "47304402207f09565586f79930818ffe9b934a72de294594c75989bb58d431a019459afab002204c04ff0aa43ce7520de891435cd5b05303f4e33874574e0f994fed05b7fb20700141049d751bc771e65aafe6645a9291fc610508d7c7f4cb224f17e87b3f9a08f879c9326baebb2e08f9c0a7a74ec65debf673dff982628f9c032f7f1b6221826d724e", "index": 0, "prev_out": {"spent": true, "script": "76a914830fcbc44e1731bc59ae00ee6a31e2fd3d2b7b2288ac", "spending_outpoints": [{"tx_index": 8449092852534629, "n": 0}], "tx_index": 3720633632138838, "value": 19485000000, "addr": "1CwzSerPhvPv2QZGyvZJNBrcGATYtUpfjg", "n": 0, "type": 0}}], "out": [{"type": 0, "spent": true, "value": 5000000, "spending_outpoints": [{"tx_index": 3312521025153118, "n": 0}], "n": 0, "tx_index": 8449092852534629, "script": "76a914199f890bb4020e0f95123715a3f1795cfd3385a088ac", "addr": "13LV1WJLFy9Mkxu4eUQRQg4mKUW9ByS5HX"}, {"type": 0, "spent": true, "value": 19480000000, "spending_outpoints": [{"tx_index": 1736837739816587, "n": 0}], "n": 1, "tx_index": 8449092852534629, "script": "76a9142a8ac52c1f432c4601f6fa024ac801c98a50194088ac", "addr": "14swcypnEjLPpQMZvLcSGP9M3hQjfJwTh1"}], "hex": "010000000169bf2c2fdd32b03ec912b36ebdd37e65864a4343f2da416659ba7f6b3ea7ac72000000008a47304402207f09565586f79930818ffe9b934a72de294594c75989bb58d431a019459afab002204c04ff0aa43ce7520de891435cd5b05303f4e33874574e0f994fed05b7fb20700141049d751bc771e65aafe6645a9291fc610508d7c7f4cb224f17e87b3f9a08f879c9326baebb2e08f9c0a7a74ec65debf673dff982628f9c032f7f1b6221826d724effffffff02404b4c00000000001976a914199f890bb4020e0f95123715a3f1795cfd3385a088ac00361989040000001976a9142a8ac52c1f432c4601f6fa024ac801c98a50194088ac00000000"}, {"hash": "7bd78bae210451396635094fab0ad24a766bad731fca40a5715c341d64285d31", "ver": 1, "vin_sz": 1, "vout_sz": 2, "size": 259, "weight": 1036, "fee": 0, "relayed_by": "0.0.0.0", "lock_time": 0, "tx_index": 1736837739816587, "double_spend": false, "time": 1298494797, "block_index": 110007, "block_height": 110007, "inputs": [{"sequence": 4294967295, "witness": "", "script": "493046022100a7c6c1e9301ee8a82165fb03b991983bfc9444271ee31b83ec7374bf078e5b8c022100f0549b2a7ba83d37b59bfe53187ee2b51b474b4c7230f1bf9e8195dc0089b7cd014104b09a15cffd10f815e2d400717e3e3c31da8f98ad1131d96a1783f2d49bce0b0e8d5d48f201e95ad65604c3b377f0dca87589681d8f43ef6711c4089f8c3b9b19", "index": 0, "prev_out": {"spent": true, "script": "76a9142a8ac52c1f432c4601f6fa024ac801c98a50194088ac", "spending_outpoints": [{"tx_index": 1736837739816587, "n": 0}], "tx_index": 8449092852534629, "value": 19480000000, "addr": "14swcypnEjLPpQMZvLcSGP9M3hQjfJwTh1", "n": 1, "type": 0}}], "out": [{"type": 0, "spent": true, "value": 5000000, "spending_outpoints": [{"tx_index": 551281817263247, "n": 0}], "n": 0, "tx_index": 1736837739816587, "script": "76a914f4a648e634c8525f3c668ac92541ff441061722688ac", "addr": "1PJb5UXA7wpXBu8zqWV8fbtmZe8kX38SWk"}, {"type": 0, "spent": true, "value": 19475000000, "spending_outpoints": [{"tx_index": 8919356917702572, "n": 0}], "n": 1, "tx_index": 1736837739816587, "script": "76a9142eaabde1f2eb6b161ef8cf5fb88a617feb45a9a388ac", "addr": "15FkdAiVMMwrYFUXtJ3GGJtme675WKKk8L"}], "hex": "0100000001f0233dd1326b2b034ab64f0082e769f236dd41ba8a141c47d60b85c2860e4706010000008c493046022100a7c6c1e9301ee8a82165fb03b991983bfc9444271ee31b83ec7374bf078e5b8c022100f0549b2a7ba83d37b59bfe53187ee2b51b474b4c7230f1bf9e8195dc0089b7cd014104b09a15cffd10f815e2d400717e3e3c31da8f98ad1131d96a1783f2d49bce0b0e8d5d48f201e95ad65604c3b377f0dca87589681d8f43ef6711c4089f8c3b9b19ffffffff02404b4c00000000001976a914f4a648e634c8525f3c668ac92541ff441061722688acc0eacc88040000001976a9142eaabde1f2eb6b161ef8cf5fb88a617feb45a9a388ac00000000"}, {"hash": "037390067584905af02254ea42a23234117659609ce7d573ef67fda2e5dc80fd", "ver": 1, "vin_sz": 1, "vout_sz": 2, "size": 259, "weight": 1036, "fee": 0, "relayed_by": "0.0.0.0", "lock_time": 0, "tx_index": 8919356917702572, "double_spend": false, "time": 1298494797, "block_index": 110007, "block_height": 110007, "inputs": [{"sequence": 4294967295, "witness": "", "script": "493046022100af0a21a29221ea9d0cbda0038b06c73b0a563d58c15d3bb12d84af09966244e80221009f076f3267c06bae9c23fc783ce18b7c1ad54f7d976bf8b8207ece1bbede1d4f014104f629fc9c61ba14ce546b01abb29a67a3f240faac64589afa0690a660af44394d9a538f64d6dce6bd5df2d8953b76b0d5464be0b722e8b433027cdc5723cc6478", "index": 0, "prev_out": {"spent": true, "script": "76a9142eaabde1f2eb6b161ef8cf5fb88a617feb45a9a388ac", "spending_outpoints": [{"tx_index": 8919356917702572, "n": 0}], "tx_index": 1736837739816587, "value": 19475000000, "addr": "15FkdAiVMMwrYFUXtJ3GGJtme675WKKk8L", "n": 1, "type": 0}}], "out": [{"type": 0, "spent": true, "value": 5000000, "spending_outpoints": [{"tx_index": 4544549599085046, "n": 0}], "n": 0, "tx_index": 8919356917702572, "script": "76a914d5df904738bce3f0f7a1775133d9bbd0bd1db6ac88ac", "addr": "1LVrkL9pPYRNEjx3KmBRA4NuDPqBPDAn4E"}, {"type": 0, "spent": true, "value": 19470000000, "spending_outpoints": [{"tx_index": 2199102942258695, "n": 0}], "n": 1, "tx_index": 8919356917702572, "script": "76a914a7db9d3af5e1b49f1c52ebd6ed459d42c8f5a7ac88ac", "addr": "1GJYw6bZHds5u1M1uraVC7rcaxcynrcShc"}], "hex": "0100000001315d28641d345c71a540ca1f73ad6b764ad20aab4f09356639510421ae8bd77b010000008c493046022100af0a21a29221ea9d0cbda0038b06c73b0a563d58c15d3bb12d84af09966244e80221009f076f3267c06bae9c23fc783ce18b7c1ad54f7d976bf8b8207ece1bbede1d4f014104f629fc9c61ba14ce546b01abb29a67a3f240faac64589afa0690a660af44394d9a538f64d6dce6bd5df2d8953b76b0d5464be0b722e8b433027cdc5723cc6478ffffffff02404b4c00000000001976a914d5df904738bce3f0f7a1775133d9bbd0bd1db6ac88ac809f8088040000001976a914a7db9d3af5e1b49f1c52ebd6ed459d42c8f5a7ac88ac00000000"}, {"hash": "59b2bc0f7c4e26373690f96ce4b7ba961a1d5580e54e94ed8a3830956d94803e", "ver": 1, "vin_sz": 1, "vout_sz": 2, "size": 259, "weight": 1036, "fee": 0, "relayed_by": "0.0.0.0", "lock_time": 0, "tx_index": 2199102942258695, "double_spend": false, "time": 1298494797, "block_index": 110007, "block_height": 110007, "inputs": [{"sequence": 4294967295, "witness": "", "script": "4930460221008b44c8d2a797253e39a10126a08f822716979d86e407057df93db6346789d4d4022100a8e9039547e16721f2838e61641b7a236141363b4e6ce6c4216d782caee6b3670141045a17cb22fe4130c7757792a8f1c7a67c1838ec68de0048035272b9818c48003c573dcca26aad484dea4ebbfef31a9e0752bff430e4716772983a8155149e9634", "index": 0, "prev_out": {"spent": true, "script": "76a914a7db9d3af5e1b49f1c52ebd6ed459d42c8f5a7ac88ac", "spending_outpoints": [{"tx_index": 2199102942258695, "n": 0}], "tx_index": 8919356917702572, "value": 19470000000, "addr": "1GJYw6bZHds5u1M1uraVC7rcaxcynrcShc", "n": 1, "type": 0}}], "out": [{"type": 0, "spent": true, "value": 19465000000, "spending_outpoints": [{"tx_index": 5756491560260300, "n": 0}], "n": 0, "tx_index": 2199102942258695, "script": "76a914e9bbd3e9b820d59b6540db855378482a6edda7e088ac", "addr": "1NJsTCb4qUe6KZrRJKrF25Nfvex89CpLic"}, {"type": 0, "spent": true, "value": 5000000, "spending_outpoints": [{"tx_index": 6532914684420190, "n": 18}], "n": 1, "tx_index": 2199102942258695, "script": "76a91454fb7f7081896d91d709ec6e67946d5ba733a09688ac", "addr": "18kM3VJYCiiHvmEnLT7awoAdqKVQs3hvWr"}], "hex": "0100000001fd80dce5a2fd67ef73d5e79c605976113432a242ea5422f05a90847506907303010000008c4930460221008b44c8d2a797253e39a10126a08f822716979d86e407057df93db6346789d4d4022100a8e9039547e16721f2838e61641b7a236141363b4e6ce6c4216d782caee6b3670141045a17cb22fe4130c7757792a8f1c7a67c1838ec68de0048035272b9818c48003c573dcca26aad484dea4ebbfef31a9e0752bff430e4716772983a8155149e9634ffffffff0240543488040000001976a914e9bbd3e9b820d59b6540db855378482a6edda7e088ac404b4c00000000001976a91454fb7f7081896d91d709ec6e67946d5ba733a09688ac00000000"}, {"hash": "3d440027afa8eac20ef7a8860e3ec72ef2ebf7cd8559b05e756296d014fd9ba3", "ver": 1, "vin_sz": 1, "vout_sz": 2, "size": 258, "weight": 1032, "fee": 0, "relayed_by": "0.0.0.0", "lock_time": 0, "tx_index": 5756491560260300, "double_spend": false, "time": 1298494797, "block_index": 110007, "block_height": 110007, "inputs": [{"sequence": 4294967295, "witness": "", "script": "483045022100dbb4bf1ee88b76ffaedbf29ece5a85fbf0625804d0b00a695b3ecf6bcc5077690220077d84e3c8e85fe1e9c8a7aecbe6bcec54cb4f15a52f009fd4801aafd4a9d972014104173668bc3cdc38860a3ae7317f116b07edb5bd84f6156a63a760d6dd89f7e3904ed9f1cd1126f338976c433cde707fe88e2f5c026901715488ae11363f899588", "index": 0, "prev_out": {"spent": true, "script": "76a914e9bbd3e9b820d59b6540db855378482a6edda7e088ac", "spending_outpoints": [{"tx_index": 5756491560260300, "n": 0}], "tx_index": 2199102942258695, "value": 19465000000, "addr": "1NJsTCb4qUe6KZrRJKrF25Nfvex89CpLic", "n": 0, "type": 0}}], "out": [{"type": 0, "spent": true, "value": 19460000000, "spending_outpoints": [{"tx_index": 1994147584772606, "n": 0}], "n": 0, "tx_index": 5756491560260300, "script": "76a9141129a3962220ce764b2ba9682ffd58e4a590949588ac", "addr": "12ZkNPdiSW1EWvE3cKExajQDUQTi6zDq7F"}, {"type": 0, "spent": true, "value": 5000000, "spending_outpoints": [{"tx_index": 4254258780758765, "n": 0}], "n": 1, "tx_index": 5756491560260300, "script": "76a9146cc6fcd83eef54f60b33aac3c5d4fa1cdc06b8c088ac", "addr": "1AvAMdB9DGNv3M1z28UkDeSh9t8LUzBmHj"}], "hex": "01000000013e80946d9530388aed944ee580551d1a96bab7e46cf9903637264e7c0fbcb259000000008b483045022100dbb4bf1ee88b76ffaedbf29ece5a85fbf0625804d0b00a695b3ecf6bcc5077690220077d84e3c8e85fe1e9c8a7aecbe6bcec54cb4f15a52f009fd4801aafd4a9d972014104173668bc3cdc38860a3ae7317f116b07edb5bd84f6156a63a760d6dd89f7e3904ed9f1cd1126f338976c433cde707fe88e2f5c026901715488ae11363f899588ffffffff020009e887040000001976a9141129a3962220ce764b2ba9682ffd58e4a590949588ac404b4c00000000001976a9146cc6fcd83eef54f60b33aac3c5d4fa1cdc06b8c088ac00000000"}, {"hash": "008b3fc12eca4cfb22a489f8b99a3abbc7bdd6ae06e66818c3f54f5c5355ad38", "ver": 1, "vin_sz": 1, "vout_sz": 2, "size": 257, "weight": 1028, "fee": 0, "relayed_by": "0.0.0.0", "lock_time": 0, "tx_index": 1994147584772606, "double_spend": false, "time": 1298494797, "block_index": 110007, "block_height": 110007, "inputs": [{"sequence": 4294967295, "witness": "", "script": "4730440220506659802b174efbb4922f3d47f4d23c42012323f3a195f5ed8ba3f0383da92a0220041ea809a9527da8ea9ebc82828141e7d55d7053d3ac5ec7354aae4664f2f20401410410561b383298d92f17d5ec1f3c4f04a61661f0b50cdd9dd1deba8a655e8a3a78455a11a78bc23793a4d77ac1ae265e2926823925e4963c29cad541b9568f3614", "index": 0, "prev_out": {"spent": true, "script": "76a9141129a3962220ce764b2ba9682ffd58e4a590949588ac", "spending_outpoints": [{"tx_index": 1994147584772606, "n": 0}], "tx_index": 5756491560260300, "value": 19460000000, "addr": "12ZkNPdiSW1EWvE3cKExajQDUQTi6zDq7F", "n": 0, "type": 0}}], "out": [{"type": 0, "spent": false, "value": 5000000, "spending_outpoints": [], "n": 0, "tx_index": 1994147584772606, "script": "76a91402db68dbc16f44daabc528eecb6b1dc8a71555c988ac", "addr": "1G7CEMELazygvs4KAwgNwpZVxtC94CKAY"}, {"type": 0, "spent": true, "value": 19455000000, "spending_outpoints": [{"tx_index": 7792135676764823, "n": 0}], "n": 1, "tx_index": 1994147584772606, "script": "76a9143648260936b28e6c88ae9ec6c2401ff2c7c526d888ac", "addr": "15x1vL8tcZG4F52qeh2K2KyZ2GUQCWswk3"}], "hex": "0100000001a39bfd14d09662755eb05985cdf7ebf22ec73e0e86a8f70ec2eaa8af2700443d000000008a4730440220506659802b174efbb4922f3d47f4d23c42012323f3a195f5ed8ba3f0383da92a0220041ea809a9527da8ea9ebc82828141e7d55d7053d3ac5ec7354aae4664f2f20401410410561b383298d92f17d5ec1f3c4f04a61661f0b50cdd9dd1deba8a655e8a3a78455a11a78bc23793a4d77ac1ae265e2926823925e4963c29cad541b9568f3614ffffffff02404b4c00000000001976a91402db68dbc16f44daabc528eecb6b1dc8a71555c988acc0bd9b87040000001976a9143648260936b28e6c88ae9ec6c2401ff2c7c526d888ac00000000"}, {"hash": "095963420cbcabc17fae760104cbd5fd0aea736e3df367da04be1471b83f77dd", "ver": 1, "vin_sz": 1, "vout_sz": 2, "size": 258, "weight": 1032, "fee": 0, "relayed_by": "0.0.0.0", "lock_time": 0, "tx_index": 7792135676764823, "double_spend": false, "time": 1298494797, "block_index": 110007, "block_height": 110007, "inputs": [{"sequence": 4294967295, "witness": "", "script": "48304502201eadbe97daafd5d8af7ab8322b8f7209aa48b303b8cd8d19e077b4fcad0aab00022100a4e8537f4d200ca08cb9927dbe4557cbb8b32a524978cd7a1e72233c129000140141042a6f921242fb19c948cef2bb88da35cdf92de3022d7169f5aebffdb015149ec1881b56052ed194501c8825fe58d5848ff199ec002a4a1ac3f3a2f57c50281e36", "index": 0, "prev_out": {"spent": true, "script": "76a9143648260936b28e6c88ae9ec6c2401ff2c7c526d888ac", "spending_outpoints": [{"tx_index": 7792135676764823, "n": 0}], "tx_index": 1994147584772606, "value": 19455000000, "addr": "15x1vL8tcZG4F52qeh2K2KyZ2GUQCWswk3", "n": 1, "type": 0}}], "out": [{"type": 0, "spent": true, "value": 5000000, "spending_outpoints": [{"tx_index": 8986050071803367, "n": 31}], "n": 0, "tx_index": 7792135676764823, "script": "76a91432f7e18327ba21fa36e5fa778eb977e16b9bc58588ac", "addr": "15eVjfDbS8qVjLr54QMDqPNUTqK95maLsj"}, {"type": 0, "spent": true, "value": 19450000000, "spending_outpoints": [{"tx_index": 1238943803845857, "n": 0}], "n": 1, "tx_index": 7792135676764823, "script": "76a9144dcded40ba71a7d01b69cc1dcff12e61617f4d3b88ac", "addr": "186PipCEXkAjw4zc65EApqsXaf9EtrA9At"}], "hex": "010000000138ad55535c4ff5c31868e606aed6bdc7bb3a9ab9f889a422fb4cca2ec13f8b00010000008b48304502201eadbe97daafd5d8af7ab8322b8f7209aa48b303b8cd8d19e077b4fcad0aab00022100a4e8537f4d200ca08cb9927dbe4557cbb8b32a524978cd7a1e72233c129000140141042a6f921242fb19c948cef2bb88da35cdf92de3022d7169f5aebffdb015149ec1881b56052ed194501c8825fe58d5848ff199ec002a4a1ac3f3a2f57c50281e36ffffffff02404b4c00000000001976a91432f7e18327ba21fa36e5fa778eb977e16b9bc58588ac80724f87040000001976a9144dcded40ba71a7d01b69cc1dcff12e61617f4d3b88ac00000000"}, {"hash": "e59910d376d059ae5a091a4fd9fcf9038d5618afd4f12d38910d6799aa803623", "ver": 1, "vin_sz": 1, "vout_sz": 2, "size": 258, "weight": 1032, "fee": 0, "relayed_by": "0.0.0.0", "lock_time": 0, "tx_index": 1238943803845857, "double_spend": false, "time": 1298494797, "block_index": 110007, "block_height": 110007, "inputs": [{"sequence": 4294967295, "witness": "", "script": "483045022100d0f01130404eff4e609a57b522f92dc12b45e42ce86b34866e1f07cf466dbcac02202cd6320e6279796a789d770a93084ea33f13ecc8c195f3865dbac631094c91ab014104425b00f7f6a340a93e44557bf1cb6a89dbe5f95f304f746d25960c209ecb677a28959bfbfd552fd1994d25857ad84ec1e8a30853e080538ddd61ca28ba8e62f2", "index": 0, "prev_out": {"spent": true, "script": "76a9144dcded40ba71a7d01b69cc1dcff12e61617f4d3b88ac", "spending_outpoints": [{"tx_index": 1238943803845857, "n": 0}], "tx_index": 7792135676764823, "value": 19450000000, "addr": "186PipCEXkAjw4zc65EApqsXaf9EtrA9At", "n": 1, "type": 0}}], "out": [{"type": 0, "spent": true, "value": 5000000, "spending_outpoints": [{"tx_index": 3063216206874677, "n": 0}], "n": 0, "tx_index": 1238943803845857, "script": "76a91497d4161f13d701abd4e18f1a692215f3af06181a88ac", "addr": "1Eqo6zLiKm9t5KjPxf8inme54T51B6btj4"}, {"type": 0, "spent": true, "value": 19445000000, "spending_outpoints": [{"tx_index": 8406539610188606, "n": 0}], "n": 1, "tx_index": 1238943803845857, "script": "76a9147b9c9d584266886efd155a77245ec1b10433b32c88ac", "addr": "1CGbjNUZy1hn8PGknikFqoytrR1LTBqw6p"}], "hex": "0100000001dd773fb87114be04da67f33d6e73ea0afdd5cb040176ae7fc1abbc0c42635909010000008b483045022100d0f01130404eff4e609a57b522f92dc12b45e42ce86b34866e1f07cf466dbcac02202cd6320e6279796a789d770a93084ea33f13ecc8c195f3865dbac631094c91ab014104425b00f7f6a340a93e44557bf1cb6a89dbe5f95f304f746d25960c209ecb677a28959bfbfd552fd1994d25857ad84ec1e8a30853e080538ddd61ca28ba8e62f2ffffffff02404b4c00000000001976a91497d4161f13d701abd4e18f1a692215f3af06181a88ac40270387040000001976a9147b9c9d584266886efd155a77245ec1b10433b32c88ac00000000"}]}