{"hash": "0000000000011f3eb941e7dd84e2cdef6c492cf0ff198930f82b703f55199dbf", "ver": 1, "prev_block": "0000000000016914b0f038ef9af4599bc950c3bcd827beb7122b6da199ae1e71", "mrkl_root": "58f198718b2aa657564bdf93cbaa697902f5361ef46d77a61d9bf470dea4a03a", "time": 1298496364, "bits": 453102630, "next_block": ["000000000001b1fdb9d1dfdf546eee357022b951c166213103c40a83c9b81f33"], "fee": 0, "nonce": 3397706871, "n_tx": 7, "size": 3170, "block_index": 110009, "main_chain": true, "height": 110009, "weight": 12680, "tx": [{"hash": "f7212c416fb58c6a56671da568f2e7737cf9f8b56dba71e604c3ca19082915fc", "ver": 1, "vin_sz": 1, "vout_sz": 1, "size": 134, "weight": 536, "fee": 0, "relayed_by": "0.0.0.0", "lock_time": 0, "tx_index": 8869370013104472, "double_spend": false, "time": 1298496364, "block_index": 110009, "block_height": 110009, "inputs": [{"sequence": 4294967295, "witness": "", "script": "0426cc011b013d", "index": 0, "prev_out": null}], "out": [{"type": 0, "spent": true, "value": 5000000000, "spending_outpoints": [{"tx_index": 4937139455154412, "n": 5}], "n": 0, "tx_index": 8869370013104472, "script": "41046fc7a5415215e0437bbb159812be625f2b34427cc51e39f114e1ff6f85af95ff1b4bfa4bcc35e3a259feeba8a7b907f00cbd75ab255be781c0f44fca130b776fac", "addr": "1BA5ZLXQsqkiRvsMzhiFSLfeDYf381gbUx"}], "hex": "01000000010000000000000000000000000000000000000000000000000000000000000000ffffffff070426cc011b013dffffffff0100f2052a010000004341046fc7a5415215e0437bbb159812be625f2b34427cc51e39f114e1ff6f85af95ff1b4bfa4bcc35e3a259feeba8a7b907f00cbd75ab255be781c0f44fca130b776fac00000000"}, {"hash": "79bec3555875cb14575ab546c15e5bae18f89c553c2ef05cea695cc21f9c666b", "ver": 1, "vin_sz": 9, "vout_sz": 1, "size": 1666, "weight": 6664, "fee": 0, "relayed_by": "0.0.0.0", "lock_time": 0, "tx_index": 3778830405225357, "double_spend": false, "time": 1298496364, "block_index": 110009, "block_height": 110009, "inputs": [{"sequence": 4294967295, "witness": "", "script": "48304502203988d9ce761f168e456188f246612c4a98d18ea0174ed6c2312b80f955ce7fa2022100c011205d156df2030c0d67fb3caaa483aed2e1ee1ffa2382cab4464e07f1638a014104043d48fe23eba9c277764f29a5a98693d60c8e5ca092c979252113b263d29773ee1e339ed1bed3789c65838ff3869340e8e609909822cffe0617652c8e8166ca", "index": 0, "prev_out": {"spent": true, "script": "76a9142355dd6314d657ae7496c90ec8b44b8d1c37fc8688ac", "spending_outpoints": [{"tx_index": 3778830405225357, "n": 0}], "tx_index": 1637479973224729, "value": 1400000000, "addr": "14DqWhrsgucf3WKLHGRMq7oy6CFZ61K61S", "n": 0, "type": 0}}, {"sequence": 4294967295, "witness": "", "script": "47304402206442033214880b61a63fb1d63b0991b8bcfca723e7e7c5c66fd761ab760aaf4d022020b4a5b47e4dee86b891685d111c46db1c3803c7f07a1ec30199b94ad9f84d82014104043d48fe23eba9c277764f29a5a98693d60c8e5ca092c979252113b263d29773ee1e339ed1bed3789c65838ff3869340e8e609909822cffe0617652c8e8166ca", "index": 1, "prev_out": {"spent": true, "script": "76a9142355dd6314d657ae7496c90ec8b44b8d1c37fc8688ac", "spending_outpoints": [{"tx_index": 3778830405225357, "n": 1}], "tx_index": 1690576829485139, "value": 1300000000, "addr": "14DqWhrsgucf3WKLHGRMq7oy6CFZ61K61S", "n": 1, "type": 0}}, {"sequence": 4294967295, "witness": "", "script": "493046022100d0389c20a0df391a7fd0baffb090290e5db6f17a381ca1177f64c9c27d1400a1022100bdfe118a0abde16c859033c2237f9ffb1ea23b47977f63582ec2738a102f1ce00141047836b12c4bf53d62871506f37c1dd4cf733913deab7ffeecd65cf1bbabd16d0440c40534f6646d81ddc306a53f7b2cc3d056371e728dc6e43996541128ef5692", "index": 2, "prev_out": {"spent": true, "script": "76a914ac5f89c67b2156cd87e18614c0367a818910a7e988ac", "spending_outpoints": [{"tx_index": 3778830405225357, "n": 2}], "tx_index": 2853650186733474, "value": 94000000, "addr": "1GiRg73pqiECKvtvsEhTbsQX2CYSUNqqZo", "n": 0, "type": 0}}, {"sequence": 4294967295, "witness": "", "script": "4830450220503f213352a9e8a7ac7cdf9593791e0d8f48a484b634044c2114acb4422d4738022100dc60382f361f4db23838514d6264b237d6ad30bf25959d30a5b0a5ff232042e2014104043d48fe23eba9c277764f29a5a98693d60c8e5ca092c979252113b263d29773ee1e339ed1bed3789c65838ff3869340e8e609909822cffe0617652c8e8166ca", "index": 3, "prev_out": {"spent": true, "script": "76a9142355dd6314d657ae7496c90ec8b44b8d1c37fc8688ac", "spending_outpoints": [{"tx_index": 3778830405225357, "n": 3}], "tx_index": 4129552272981193, "value": 1400000000, "addr": "14DqWhrsgucf3WKLHGRMq7oy6CFZ61K61S", "n": 0, "type": 0}}, {"sequence": 4294967295, "witness": "", "script": "493046022100d5c9f3b77a674fa0f1b07614f5f86034f9b7cbbde7289c694875d1876af76f30022100a225077dc8d0bafac738022c6b5422cd73641f1653578608336072cddf296f4d0141047836b12c4bf53d62871506f37c1dd4cf733913deab7ffeecd65cf1bbabd16d0440c40534f6646d81ddc306a53f7b2cc3d056371e728dc6e43996541128ef5692", "index": 4, "prev_out": {"spent": true, "script": "76a914ac5f89c67b2156cd87e18614c0367a818910a7e988ac", "spending_outpoints": [{"tx_index": 3778830405225357, "n": 4}], "tx_index": 4276353917911544, "value": 1400000000, "addr": "1GiRg73pqiECKvtvsEhTbsQX2CYSUNqqZo", "n": 0, "type": 0}}, {"sequence": 4294967295, "witness": "", "script": "493046022100f4038314dcbd8d66668155f6d73b897a9f0e5aaa035bbfff8a71e10b7e38be0c022100e167f6a55403858095ade69b822891fe18419616fce946f0010bcf414b33cede014104043d48fe23eba9c277764f29a5a98693d60c8e5ca092c979252113b263d29773ee1e339ed1bed3789c65838ff3869340e8e609909822cffe0617652c8e8166ca", "index": 5, "prev_out": {"spent": true, "script": "76a9142355dd6314d657ae7496c90ec8b44b8d1c37fc8688ac", "spending_outpoints": [{"tx_index": 3778830405225357, "n": 5}], "tx_index": 354808529708765, "value": 1400000000, "addr": "14DqWhrsgucf3WKLHGRMq7oy6CFZ61K61S", "n": 0, "type": 0}}, {"sequence": 4294967295, "witness": "", "script": "48304502210094c3162894a0d7a252b40c9e5e78f6d9d4ff63d70c635ebf62e9e0e6422c33050220125ce8ab6cd9e4c7653b0b540fa0eba7a9e52981fc31735851753a207dc86c6c014104043d48fe23eba9c277764f29a5a98693d60c8e5ca092c979252113b263d29773ee1e339ed1bed3789c65838ff3869340e8e609909822cffe0617652c8e8166ca", "index": 6, "prev_out": {"spent": true, "script": "76a9142355dd6314d657ae7496c90ec8b44b8d1c37fc8688ac", "spending_outpoints": [{"tx_index": 3778830405225357, "n": 6}], "tx_index": 641931503433690, "value": 6000000, "addr": "14DqWhrsgucf3WKLHGRMq7oy6CFZ61K61S", "n": 1, "type": 0}}, {"sequence": 4294967295, "witness": "", "script": "48304502205ddab6ff9cc39805a1f9c3e957ab6d9d6c5a4cc8b6b2fa375aa90af50a0d9071022100bfeb8aa4610ef0fe3ef0a135636a4cea887344c57b7e976bfe1a9236459a695f014104043d48fe23eba9c277764f29a5a98693d60c8e5ca092c979252113b263d29773ee1e339ed1bed3789c65838ff3869340e8e609909822cffe0617652c8e8166ca", "index": 7, "prev_out": {"spent": true, "script": "76a9142355dd6314d657ae7496c90ec8b44b8d1c37fc8688ac", "spending_outpoints": [{"tx_index": 3778830405225357, "n": 7}], "tx_index": 7634103431240314, "value": 1400000000, "addr": "14DqWhrsgucf3WKLHGRMq7oy6CFZ61K61S", "n": 1, "type": 0}}, {"sequence": 4294967295, "witness": "", "script": "483045022036fa31fd249acef8aac519ac2f85942035d83f05039e43b182a8426a8de7a66a022100fa4800bda89b214f82940e079ef81a7ba87e9449d75eb637e85f1c23fa069ab8014104043d48fe23eba9c277764f29a5a98693d60c8e5ca092c979252113b263d29773ee1e339ed1bed3789c65838ff3869340e8e609909822cffe0617652c8e8166ca", "index": 8, "prev_out": {"spent": true, "script": "76a9142355dd6314d657ae7496c90ec8b44b8d1c37fc8688ac", "spending_outpoints": [{"tx_index": 3778830405225357, "n": 8}], "tx_index": 1352858548150727, "value": 1400000000, "addr": "14DqWhrsgucf3WKLHGRMq7oy6CFZ61K61S", "n": 0, "type": 0}}], "out": [{"type": 0, "spent": true, "value": 9800000000, "spending_outpoints": [{"tx_index": 7980139684028595, "n": 0}], "n": 0, "tx_index": 3778830405225357, "script": "76a9142b9b66f5bba77c252f6161e6a797c629b28b9dae88ac", "addr": "14yaDnMWrxAz2Nx2oqScL5VQyaZ2GMqocV"}], "hex": "01000000092e8a3c210c08ce276da3428a0fa5c4d9d7045589c887b553a158cb7a7761be75000000008b48304502203988d9ce761f168e456188f246612c4a98d18ea0174ed6c2312b80f955ce7fa2022100c011205d156df2030c0d67fb3caaa483aed2e1ee1ffa2382cab4464e07f1638a014104043d48fe23eba9c277764f29a5a98693d60c8e5ca092c979252113b263d29773ee1e339ed1bed3789c65838ff3869340e8e609909822cffe0617652c8e8166caffffffff300c90bb188299a8354a3455052e3d58859d091799c71de53fdc073915cf64f4010000008a47304402206442033214880b61a63fb1d63b0991b8bcfca723e7e7c5c66fd761ab760aaf4d022020b4a5b47e4dee86b891685d111c46db1c3803c7f07a1ec30199b94ad9f84d82014104043d48fe23eba9c277764f29a5a98693d60c8e5ca092c979252113b263d29773ee1e339ed1bed3789c65838ff3869340e8e609909822cffe0617652c8e8166caffffffff511b09ad8c3d144c17346accd86ad6e243c98a4526a104a0cd36e9b151db37dc000000008c493046022100d0389c20a0df391a7fd0baffb090290e5db6f17a381ca1177f64c9c27d1400a1022100bdfe118a0abde16c859033c2237f9ffb1ea23b47977f63582ec2738a102f1ce00141047836b12c4bf53d62871506f37c1dd4cf733913deab7ffeecd65cf1bbabd16d0440c40534f6646d81ddc306a53f7b2cc3d056371e728dc6e43996541128ef5692ffffffff755e72827fe64e2a9b698319198004a11abd6cb92c59436ab128d74642c2abc6000000008b4830450220503f213352a9e8a7ac7cdf9593791e0d8f48a484b634044c2114acb4422d4738022100dc60382f361f4db23838514d6264b237d6ad30bf25959d30a5b0a5ff232042e2014104043d48fe23eba9c277764f29a5a98693d60c8e5ca092c979252113b263d29773ee1e339ed1bed3789c65838ff3869340e8e609909822cffe0617652c8e8166caffffffff798a91e1b00fc6791128ef0281025ced3edd6ed1f661b062e6e1a7fbae820f9e000000008c493046022100d5c9f3b77a674fa0f1b07614f5f86034f9b7cbbde7289c694875d1876af76f30022100a225077dc8d0bafac738022c6b5422cd73641f1653578608336072cddf296f4d0141047836b12c4bf53d62871506f37c1dd4cf733913deab7ffeecd65cf1bbabd16d0440c40534f6646d81ddc306a53f7b2cc3d056371e728dc6e43996541128ef5692ffffffff0a1592630336ea4df179dbe82640e7516a2506306164581ea9f3dc552dbd6b61000000008c493046022100f4038314dcbd8d66668155f6d73b897a9f0e5aaa035bbfff8a71e10b7e38be0c022100e167f6a55403858095ade69b822891fe18419616fce946f0010bcf414b33cede014104043d48fe23eba9c277764f29a5a98693d60c8e5ca092c979252113b263d29773ee1e339ed1bed3789c65838ff3869340e8e609909822cffe0617652c8e8166caffffffff123eaa99dbbed5478121ea18315535da26c0414d1e053829bdf4640e5d7e260c010000008b48304502210094c3162894a0d7a252b40c9e5e78f6d9d4ff63d70c635ebf62e9e0e6422c33050220125ce8ab6cd9e4c7653b0b540fa0eba7a9e52981fc31735851753a207dc86c6c014104043d48fe23eba9c277764f29a5a98693d60c8e5ca092c979252113b263d29773ee1e339ed1bed3789c65838ff3869340e8e609909822cffe0617652c8e8166caffffffffd8f969b994d3d57fde062c373b8cb72ed5044f2b1264387fa5135f8cb4f9b47c010000008b48304502205ddab6ff9cc39805a1f9c3e957ab6d9d6c5a4cc8b6b2fa375aa90af50a0d9071022100bfeb8aa4610ef0fe3ef0a135636a4cea887344c57b7e976bfe1a9236459a695f014104043d48fe23eba9c277764f29a5a98693d60c8e5ca092c979252113b263d29773ee1e339ed1bed3789c65838ff3869340e8e609909822cffe0617652c8e8166caffffffff267357698d0e3a1bb39d902e9862c459b63792eabe5f42cbe1dc7e185f020a43000000008b483045022036fa31fd249acef8aac519ac2f85942035d83f05039e43b182a8426a8de7a66a022100fa4800bda89b214f82940e079ef81a7ba87e9449d75eb637e85f1c23fa069ab8014104043d48fe23eba9c277764f29a5a98693d60c8e5ca092c979252113b263d29773ee1e339ed1bed3789c65838ff3869340e8e609909822cffe0617652c8e8166caffffffff0100222048020000001976a9142b9b66f5bba77c252f6161e6a797c629b28b9dae88ac00000000"}, {"hash": "477b15cb25252238f2298c93c85a16943c731cee0e673f56d77732daaf90526b", "ver": 1, "vin_sz": 1, "vout_sz": 2, "size": 257, "weight": 1028, "fee": 0, "relayed_by": "0.0.0.0", "lock_time": 0, "tx_index": 3776075485890126, "double_spend": false, "time": 1298496364, "block_index": 110009, "block_height": 110009, "inputs": [{"sequence": 4294967295, "witness": "", "script": "47304402206aef9ff24b669e119dfc820753fa23fdc179b85fb16216e7cdb4ad4640469f72022001b39ab7a824a63b2ee105539f843bec61ba76be9e93984f83588c2dad6bd49401410442f242a883bae7ecba6efe7f175eb92057b15753b6563c9ed2c171c6413e385623deedf0fa53765152c2bcd2879ed5dd1189f30dcaa3240243362cf2dbfb946d", "index": 0, "prev_out": {"spent": true, "script": "76a9142dfab05cd957b32608da526662ffc11e779a086988ac", "spending_outpoints": [{"tx_index": 3776075485890126, "n": 0}], "tx_index": 4192500323472555, "value": 19435000000, "addr": "15C7iocY1QBfsFhMLmqg5nxJmd51neGJzN", "n": 1, "type": 0}}], "out": [{"type": 0, "spent": false, "value": 5000000, "spending_outpoints": [], "n": 0, "tx_index": 3776075485890126, "script": "76a91493836256cbc9125b024477896f0774a90e05d9ef88ac", "addr": "1ESyivsxYh9ep2heDtzvUUrpdriMAoCbiA"}, {"type": 0, "spent": true, "value": 19430000000, "spending_outpoints": [{"tx_index": 1849872846111753, "n": 0}], "n": 1, "tx_index": 3776075485890126, "script": "76a914edac2fbcdba4a354f3492e82b2093c1d5a2be23c88ac", "addr": "1NfhRC1hwQBB6D55cyJDdNSEtvo7fNnbVR"}], "hex": "01000000017728746402a55ca062702f33a34380a3ba0c8c8a44d5bf83fea17feeec8f942a010000008a47304402206aef9ff24b669e119dfc820753fa23fdc179b85fb16216e7cdb4ad4640469f72022001b39ab7a824a63b2ee105539f843bec61ba76be9e93984f83588c2dad6bd49401410442f242a883bae7ecba6efe7f175eb92057b15753b6563c9ed2c171c6413e385623deedf0fa53765152c2bcd2879ed5dd1189f30dcaa3240243362cf2dbfb946dffffffff02404b4c00000000001976a91493836256cbc9125b024477896f0774a90e05d9ef88ac80451e86040000001976a914edac2fbcdba4a354f3492e82b2093c1d5a2be23c88ac00000000"}, {"hash": "4e8405c78bb6ca30f6b978d444018bee258c4ab1fb32d72685b913e7736ff96f", "ver": 1, "vin_sz": 1, "vout_sz": 2, "size": 258, "weight": 1032, "fee": 0, "relayed_by": "0.0.0.0", "lock_time": 0, "tx_index": 3939747437011575, "double_spend": false, "time": 1298496364, "block_index": 110009, "block_height": 110009, "inputs": [{"sequence": 4294967295, "witness": "", "script": "483045022045eedef96249e0343716039fed83d21bd93c483862ae7dc2f298a58729c312d60221009041e5af07d2709ccb7fb9cc5fa9dbe3c64fbb2fe6fcd05be239e74f5c66bd840141044b81ce332964350f3767a03bbe5df730dae5a252d9477307318c48b2926d49e89c7d475774487a42c3b75d94e55e697d27789d0a04483cce2e9b0e418c09e617", "index": 0, "prev_out": {"spent": true, "script": "76a9148ee3647da272b8c9693c280a334b997c74386d4c88ac", "spending_outpoints": [{"tx_index": 3939747437011575, "n": 0}], "tx_index": 8987563244054308, "value": 26000000, "addr": "1E2XMkYSFcau4rxGUc9uz66x9vEf5j6M5B", "n": 0, "type": 0}}], "out": [{"type": 0, "spent": true, "value": 16000000, "spending_outpoints": [{"tx_index": 8629931476452123, "n": 0}], "n": 0, "tx_index": 3939747437011575, "script": "76a914974bb97c971aa73bb84b7134975c0d73886e477c88ac", "addr": "1EnykQFYuCTPXKZYVKQy7RKbqtfi5TXeVz"}, {"type": 0, "spent": true, "value": 10000000, "spending_outpoints": [{"tx_index": 8629931476452123, "n": 1}], "n": 1, "tx_index": 3939747437011575, "script": "76a9142879182a548ab6fd7a54f7a034df0e2d1e046d3f88ac", "addr": "14h16TeFKaYD3XfhKcNKH4GUEfDtbg2RhR"}], "hex": "0100000001ff7121147739266409ab4a9a3c85f2c58c6c2e56878cfd1a41044f0a446ca506000000008b483045022045eedef96249e0343716039fed83d21bd93c483862ae7dc2f298a58729c312d60221009041e5af07d2709ccb7fb9cc5fa9dbe3c64fbb2fe6fcd05be239e74f5c66bd840141044b81ce332964350f3767a03bbe5df730dae5a252d9477307318c48b2926d49e89c7d475774487a42c3b75d94e55e697d27789d0a04483cce2e9b0e418c09e617ffffffff020024f400000000001976a914974bb97c971aa73bb84b7134975c0d73886e477c88ac80969800000000001976a9142879182a548ab6fd7a54f7a034df0e2d1e046d3f88ac00000000"}, {"hash": "5ed59ba9c2b7b11981d82f58e3a5b7041fedf37acabe8ceb7cc2611b7c966234", "ver": 1, "vin_sz": 1, "vout_sz": 2, "size": 259, "weight": 1036, "fee": 0, "relayed_by": "0.0.0.0", "lock_time": 0, "tx_index": 1843137156967480, "double_spend": false, "time": 1298496364, "block_index": 110009, "block_height": 110009, "inputs": [{"sequence": 4294967295, "witness": "", "script": "493046022100d64cf5de6380b4738e3fbe1b0560772bb060142a7aff659ed78d217ae7500453022100d62aaa2e1e82f0f0a21f4343d93d7fc1169862007e7ff42764be862dbabcc0af014104dc55a3a2090c72f517358d1d867de8e6505b6abd5120d0c005b7f6b287942f699608522ba2b2326ea19e5adbdea93f1a7e3cee8b817a3e9eaa7c04bac908295b", "index": 0, "prev_out": {"spent": true, "script": "76a9140078ac9dbee4eb4d21f0c597fe53bec9da1d4bec88ac", "spending_outpoints": [{"tx_index": 1843137156967480, "n": 0}], "tx_index": 8879530563705052, "value": 54000000, "addr": "113VZbaJPVhNvMahSyLbcBPfTtwkJACK84", "n": 1, "type": 0}}], "out": [{"type": 0, "spent": true, "value": 1000000, "spending_outpoints": [{"tx_index": 638329017368203, "n": 2}], "n": 0, "tx_index": 1843137156967480, "script": "76a914550b9685657d8daec0ab742b733d07e82406c58588ac", "addr": "18kgKTDjrPCaVjmHPzWZFmn7nXofiQv7ZN"}, {"type": 0, "spent": true, "value": 53000000, "spending_outpoints": [{"tx_index": 5744687094667400, "n": 0}], "n": 1, "tx_index": 1843137156967480, "script": "76a91417f539632c1f2ad1d4ef29d62c7f7b826b251e9488ac", "addr": "13BgJtPqwhZ4bCbBDiikdzxrNMpDNbBXkk"}], "hex": "0100000001fc5f16882cc6e5e3fc36a3c3d8c4daba2bd8d4b6ca44177f8b960916822b73b5010000008c493046022100d64cf5de6380b4738e3fbe1b0560772bb060142a7aff659ed78d217ae7500453022100d62aaa2e1e82f0f0a21f4343d93d7fc1169862007e7ff42764be862dbabcc0af014104dc55a3a2090c72f517358d1d867de8e6505b6abd5120d0c005b7f6b287942f699608522ba2b2326ea19e5adbdea93f1a7e3cee8b817a3e9eaa7c04bac908295bffffffff0240420f00000000001976a914550b9685657d8daec0ab742b733d07e82406c58588ac40b72803000000001976a91417f539632c1f2ad1d4ef29d62c7f7b826b251e9488ac00000000"}, {"hash": "73d81f8641b6b10c04a46c1c9df159467e5e803b3f43197a4da87214eaf2aeee", "ver": 1, "vin_sz": 1, "vout_sz": 2, "size": 257, "weight": 1028, "fee": 0, "relayed_by": "0.0.0.0", "lock_time": 0, "tx_index": 8397925348707925, "double_spend": false, "time": 1298496364, "block_index": 110009, "block_height": 110009, "inputs": [{"sequence": 4294967295, "witness": "", "script": "473044022059f0d07095cf3d4b28608007233ded3e1739fb37f3f66137ce84dcad5cbded86022039c8ebcf48ddbf7d462fe5dbd7e458486afdff0a349c8376323cbb888c916d94014104e57ceb296ddb67b19f1112d52b1b76097bc36c0223cd324259e3075aca8e004132a3d0228c5dfd7d01d7b130fdb9fd90b9e43fffffe91675bdb7441c0e1e2bd3", "index": 0, "prev_out": {"spent": true, "script": "76a91492203e6b23e572c233d18aeca5352d37f25681bb88ac", "spending_outpoints": [{"tx_index": 8397925348707925, "n": 0}], "tx_index": 1761001388747904, "value": 3939000000, "addr": "1EKeHM9HwpNwZZEVyza3g543DZTfHVnAQf", "n": 0, "type": 0}}], "out": [{"type": 0, "spent": true, "value": 5000000, "spending_outpoints": [{"tx_index": 6916871612073325, "n": 0}], "n": 0, "tx_index": 8397925348707925, "script": "76a914e3c58d9e9dc9b722b4d218d4465a708fcfceb4e288ac", "addr": "1MmM3nPcqsHc7sHcHWN2EuS7wRCHd6jaif"}, {"type": 0, "spent": true, "value": 3934000000, "spending_outpoints": [{"tx_index": 2872568114288089, "n": 0}], "n": 1, "tx_index": 8397925348707925, "script": "76a914607afa51bcccde521319a504b38b4938271b5a9188ac", "addr": "19o9C4hQs27bBMdkheL9aZGAoxqPgQba6e"}], "hex": "0100000001320cf8b1cd640031c8dccdd0bd87a235f057e3606c756a7ac4f637e8678ba8e3000000008a473044022059f0d07095cf3d4b28608007233ded3e1739fb37f3f66137ce84dcad5cbded86022039c8ebcf48ddbf7d462fe5dbd7e458486afdff0a349c8376323cbb888c916d94014104e57ceb296ddb67b19f1112d52b1b76097bc36c0223cd324259e3075aca8e004132a3d0228c5dfd7d01d7b130fdb9fd90b9e43fffffe91675bdb7441c0e1e2bd3ffffffff02404b4c00000000001976a914e3c58d9e9dc9b722b4d218d4465a708fcfceb4e288ac80137cea000000001976a914607afa51bcccde521319a504b38b4938271b5a9188ac00000000"}, {"hash": "55c943b1d28b981535204fcf3d7b61879fb04fe78e367b67feea36f51e2c5ddb", "ver": 1, "vin_sz": 1, "vout_sz": 2, "size": 258, "weight": 1032, "fee": 0, "relayed_by": "0.0.0.0", "lock_time": 0, "tx_index": 7718182997370589, "double_spend": false, "time": 1298496364, "block_index": 110009, "block_height": 110009, "inputs": [{"sequence": 4294967295, "witness": "", "script": "483045022100f00c659152b2b962a41dc655e3f7b70c43726defd85de4505982a150178e629e02203d0e5c2b4186cec2521c33db3ad1fec53ad4fe8fac50c41be8789ab2c141b47f014104c3aba6df328cf6a15d89852ff9bb767dcd9443e669807feb2dcc98ac4c1b360e1fbfbe4624d714536dd095fdade68459fe09f991660dfe65feb5e1cc3dc18be4", "index": 0, "prev_out": {"spent": true, "script": "76a914bdce2b1f0ce02865c05737169e5469f1ff20e31288ac", "spending_outpoints": [{"tx_index": 7718182997370589, "n": 0}], "tx_index": 8903075263899625, "value": 2179000000, "addr": "1JJbh6FLS3zYziwzxLSmUJQswUTENuBgDM", "n": 1, "type": 0}}], "out": [{"type": 0, "spent": true, "value": 1678000000, "spending_outpoints": [{"tx_index": 5354576365954863, "n": 0}], "n": 0, "tx_index": 7718182997370589, "script": "76a914fca336159bcccd5f9aa72f68a212ab97bff51d9288ac", "addr": "1Q2poTcoPLW8gxfJTzdDsGNFuRhuDtyVk4"}, {"type": 0, "spent": true, "value": 501000000, "spending_outpoints": [{"tx_index": 6589523505101031, "n": 3}], "n": 1, "tx_index": 7718182997370589, "script": "76a914dd2882b98fc96835b0ccc5dbf6064f10fca7043a88ac", "addr": "1MANs8A9hjNhAonVVGux5b9gi45HfjauUz"}], "hex": "0100000001fd0a65f41b3f4a7ffda8f30016ab7c04c893533a81d71fe9d3c13658e7a4c50f010000008b483045022100f00c659152b2b962a41dc655e3f7b70c43726defd85de4505982a150178e629e02203d0e5c2b4186cec2521c33db3ad1fec53ad4fe8fac50c41be8789ab2c141b47f014104c3aba6df328cf6a15d89852ff9bb767dcd9443e669807feb2dcc98ac4c1b360e1fbfbe4624d714536dd095fdade68459fe09f991660dfe65feb5e1cc3dc18be4ffffffff02803f0464000000001976a914fca336159bcccd5f9aa72f68a212ab97bff51d9288ac40a7dc1d000000001976a914dd2882b98fc96835b0ccc5dbf6064f10fca7043a88ac00000000"}]}