{"hash": "000000000000c29979a6d04db80cb756f4d7fc2b16b2d4f5e0ec7a73b19fc045", "ver": 1, "prev_block": "0000000000009ef0c855cda2a61d844699dcc38172eb5fcfe5598c943cd4c6b0", "mrkl_root": "37dd64512f374103ea585c25c9a87739372330788ab7c07542a42dcd6815716f", "time": 1298505211, "bits": 453102630, "next_block": ["0000000000016aaedbf4b8f05b04e094fd5bf4051acfc9a53d9d98571cef5671"], "fee": 0, "nonce": 2151368078, "n_tx": 12, "size": 3023, "block_index": 110034, "main_chain": true, "height": 110034, "weight": 12092, "tx": [{"hash": "27c7ae822d092f59a5f930ab9b6b46e04e48944c07a439bd9f6c0e694b297b74", "ver": 1, "vin_sz": 1, "vout_sz": 1, "size": 134, "weight": 536, "fee": 0, "relayed_by": "0.0.0.0", "lock_time": 0, "tx_index": 4098314323435981, "double_spend": false, "time": 1298505211, "block_index": 110034, "block_height": 110034, "inputs": [{"sequence": 4294967295, "witness": "", "script": "0426cc011b0150", "index": 0, "prev_out": null}], "out": [{"type": 0, "spent": true, "value": 5000000000, "spending_outpoints": [{"tx_index": 5223552807243194, "n": 12}], "n": 0, "tx_index": 4098314323435981, "script": "4104f45d2e93bb46455bf04d74479387dda62de280c7065f79c7330e05bc7225916597cf1b226cf751fc6e589da53199622e285f847ebf38de06d54522e26c8dc5b1ac", "addr": "17atAKdt3LCPNJfwdScyyU2H2LR66t3iCm"}], "hex": "01000000010000000000000000000000000000000000000000000000000000000000000000ffffffff070426cc011b0150ffffffff0100f2052a01000000434104f45d2e93bb46455bf04d74479387dda62de280c7065f79c7330e05bc7225916597cf1b226cf751fc6e589da53199622e285f847ebf38de06d54522e26c8dc5b1ac00000000"}, {"hash": "2af362dfb9809e03c82ccfd833180a5387a3add9dd74f280872e553ff5c923bc", "ver": 1, "vin_sz": 1, "vout_sz": 2, "size": 258, "weight": 1032, "fee": 0, "relayed_by": "0.0.0.0", "lock_time": 0, "tx_index": 6619580741446309, "double_spend": false, "time": 1298505211, "block_index": 110034, "block_height": 110034, "inputs": [{"sequence": 4294967295, "witness": "", "script": "48304502210080e8cdb5132d5eeb4a89a71093990efcab10bcefbc001eea8b6eaef20e95bfc5022058677624b49bd4e663aa67220208ac384c8ee16073949c69f23c2ef5e4e731c70141043690a35844d5b621d3b8cdf81f3ace6f510df79ffdc10d63aed8e22fb6b64e22ade3ece21251cfbf2e42e5e5c12cd56a2626d014491ffb2c2297645ccdb4827f", "index": 0, "prev_out": {"spent": true, "script": "76a91448c3b947ba9ec0953ba70e082659bb2e42e6a18788ac", "spending_outpoints": [{"tx_index": 6619580741446309, "n": 0}], "tx_index": 3940808554192021, "value": 19070000000, "addr": "17dk7wK4362sK9zrNiYC4UgpXmrrerBUWW", "n": 1, "type": 0}}], "out": [{"type": 0, "spent": true, "value": 19065000000, "spending_outpoints": [{"tx_index": 1795316257109464, "n": 0}], "n": 0, "tx_index": 6619580741446309, "script": "76a91475d298ca2751427ac3c2fd79ef31298b6202a94d88ac", "addr": "1BjzLyBtVa2nTprovFm62rvuc2fXsXZRSU"}, {"type": 0, "spent": true, "value": 5000000, "spending_outpoints": [{"tx_index": 1517248251836887, "n": 10}], "n": 1, "tx_index": 6619580741446309, "script": "76a914d96091745157e77b7babdf9bc4575c7c842be51e88ac", "addr": "1LpPKJX7Hoc1DkPSRYQSs8SpEXXmcoAgGr"}], "hex": "0100000001700127f000e4ad6debe62b36270a21f58bb55301c3e8f71ccdb6d308022b12b7010000008b48304502210080e8cdb5132d5eeb4a89a71093990efcab10bcefbc001eea8b6eaef20e95bfc5022058677624b49bd4e663aa67220208ac384c8ee16073949c69f23c2ef5e4e731c70141043690a35844d5b621d3b8cdf81f3ace6f510df79ffdc10d63aed8e22fb6b64e22ade3ece21251cfbf2e42e5e5c12cd56a2626d014491ffb2c2297645ccdb4827fffffffff0240d05c70040000001976a91475d298ca2751427ac3c2fd79ef31298b6202a94d88ac404b4c00000000001976a914d96091745157e77b7babdf9bc4575c7c842be51e88ac00000000"}, {"hash": "1e050c9fdef7a04706895a38e01a614b1ffaec6c424e0ca47b4ee931f7d76d28", "ver": 1, "vin_sz": 1, "vout_sz": 1, "size": 224, "weight": 896, "fee": 0, "relayed_by": "0.0.0.0", "lock_time": 0, "tx_index": 1422471675133225, "double_spend": false, "time": 1298505211, "block_index": 110034, "block_height": 110034, "inputs": [{"sequence": 4294967295, "witness": "", "script": "483045022010b38f16cdb40c4e8584dff268e006f1952fded4253729526595a688b97ef8c7022100f23d446c2df1b37c5d363db1a4d5df73a86b7140dbbc25b405d40b129ca8c0a3014104327ea74e74ebc902aa95942f180460e491ff3d034df47fd61ea00411ac73538b00de134614be092981fd05e40bd28c1c19b5f2173f5cf8e83311ef3cb57d047a", "index": 0, "prev_out": {"spent": true, "script": "76a9149e1adf89abc346dd79bd2375f1b2be53fc9c23d288ac", "spending_outpoints": [{"tx_index": 1422471675133225, "n": 0}], "tx_index": 134044681780352, "value": 5000000, "addr": "1FQyxVWNc1QKZrTDG3dDET6EUzDmWGKh2n", "n": 0, "type": 0}}], "out": [{"type": 0, "spent": false, "value": 5000000, "spending_outpoints": [], "n": 0, "tx_index": 1422471675133225, "script": "76a914292eb30519c07297b81ff802942f50f53ddddd5a88ac", "addr": "14kkebAbA1U8pqZAizoHYUvFwdQUK2GXXw"}], "hex": "010000000103cf4dad21e403bcce31606d0689b036bcd9b6d0a7a6ae473b364827d84b2da2000000008b483045022010b38f16cdb40c4e8584dff268e006f1952fded4253729526595a688b97ef8c7022100f23d446c2df1b37c5d363db1a4d5df73a86b7140dbbc25b405d40b129ca8c0a3014104327ea74e74ebc902aa95942f180460e491ff3d034df47fd61ea00411ac73538b00de134614be092981fd05e40bd28c1c19b5f2173f5cf8e83311ef3cb57d047affffffff01404b4c00000000001976a914292eb30519c07297b81ff802942f50f53ddddd5a88ac00000000"}, {"hash": "0db4746f662615c0f1367f6be952cb2321fe6ebce7fa2d606936eb336b13bd21", "ver": 1, "vin_sz": 1, "vout_sz": 2, "size": 258, "weight": 1032, "fee": 0, "relayed_by": "0.0.0.0", "lock_time": 0, "tx_index": 1187070666505574, "double_spend": false, "time": 1298505211, "block_index": 110034, "block_height": 110034, "inputs": [{"sequence": 4294967295, "witness": "", "script": "483045022100dfee8adbde0bdc09b0df3c674353c2abd18098bb88eeab7cfacd5a010a067592022016e350b18209471abb2ed18f5ec7214bac2eec79dd4f7a5cc271c252352cb5c001410451a047a5c05c187642b99a0e989e87bfaed674f9943c10e0b9ef4f6e3ed420d7786d6fb0e65fd57eb5af6398d07d6666ab285c21d4a3aa93c333c23de0627011", "index": 0, "prev_out": {"spent": true, "script": "76a914cf166523b3f94859c35caf4c00dc5c087dc7e9a188ac", "spending_outpoints": [{"tx_index": 1187070666505574, "n": 0}], "tx_index": 5570559458122383, "value": 4000000, "addr": "1KsyhkGk3vjghsdwKpCMFF44iM2MyF8qdu", "n": 0, "type": 0}}], "out": [{"type": 0, "spent": true, "value": 1000000, "spending_outpoints": [{"tx_index": 7707653672818772, "n": 1}], "n": 0, "tx_index": 1187070666505574, "script": "76a914bd4197c69438c7582cb96fc09e0c38c81716a28888ac", "addr": "1JFhHjGR7zhUR6uVEaMA96rumoghsbvmne"}, {"type": 0, "spent": true, "value": 3000000, "spending_outpoints": [{"tx_index": 6854594078679623, "n": 0}], "n": 1, "tx_index": 1187070666505574, "script": "76a914a07d9f6742992e772ef697a24ac7becf4d5dcda888ac", "addr": "1Fdbc7KXNe9Y2QFgpRUoAwLjsyj5uzq2zS"}], "hex": "01000000019e53278d9cd47864915509a578da66e68592b9f44b5063858254415d1f173c47000000008b483045022100dfee8adbde0bdc09b0df3c674353c2abd18098bb88eeab7cfacd5a010a067592022016e350b18209471abb2ed18f5ec7214bac2eec79dd4f7a5cc271c252352cb5c001410451a047a5c05c187642b99a0e989e87bfaed674f9943c10e0b9ef4f6e3ed420d7786d6fb0e65fd57eb5af6398d07d6666ab285c21d4a3aa93c333c23de0627011ffffffff0240420f00000000001976a914bd4197c69438c7582cb96fc09e0c38c81716a28888acc0c62d00000000001976a914a07d9f6742992e772ef697a24ac7becf4d5dcda888ac00000000"}, {"hash": "8fc49957b2b5a9cb30fa848d4fa2a47a6684bc326e73fc7dbdc0ae1d1ea50633", "ver": 1, "vin_sz": 1, "vout_sz": 2, "size": 259, "weight": 1036, "fee": 0, "relayed_by": "0.0.0.0", "lock_time": 0, "tx_index": 1795316257109464, "double_spend": false, "time": 1298505211, "block_index": 110034, "block_height": 110034, "inputs": [{"sequence": 4294967295, "witness": "", "script": "493046022100b2220611c69b0f133626baefa3d4acf88593dfc8e2387742b9b74d16d90eb9b8022100acc025deedd0d857b1c755a811f831690409e3da36d4da05a43fb681b795a5df0141046b7fb43480da989da1d767dad5f21a00d38ebaccc1b5cd4de1f1fddb1d220331bb7ecf40488d08e88152a827f3839515a3d534f27c2c0be5453c634921ac1d68", "index": 0, "prev_out": {"spent": true, "script": "76a91475d298ca2751427ac3c2fd79ef31298b6202a94d88ac", "spending_outpoints": [{"tx_index": 1795316257109464, "n": 0}], "tx_index": 6619580741446309, "value": 19065000000, "addr": "1BjzLyBtVa2nTprovFm62rvuc2fXsXZRSU", "n": 0, "type": 0}}], "out": [{"type": 0, "spent": true, "value": 5000000, "spending_outpoints": [{"tx_index": 4235770949320271, "n": 4}], "n": 0, "tx_index": 1795316257109464, "script": "76a9149285e61e3288d23fb1a1703977cea23067259e0888ac", "addr": "1EMk4U1w1WycZP62nQ2EDXNvk8mnvFVo7i"}, {"type": 0, "spent": true, "value": 19060000000, "spending_outpoints": [{"tx_index": 650482007601594, "n": 0}], "n": 1, "tx_index": 1795316257109464, "script": "76a9140e24cd96c9c0b09c3e6f463dacfaf4387848ff8088ac", "addr": "12HnYou8Pn6cLgcARBZZ4E5r5xcyT21JsS"}], "hex": "0100000001bc23c9f53f552e8780f274ddd9ada387530a1833d8cf2cc8039e80b9df62f32a000000008c493046022100b2220611c69b0f133626baefa3d4acf88593dfc8e2387742b9b74d16d90eb9b8022100acc025deedd0d857b1c755a811f831690409e3da36d4da05a43fb681b795a5df0141046b7fb43480da989da1d767dad5f21a00d38ebaccc1b5cd4de1f1fddb1d220331bb7ecf40488d08e88152a827f3839515a3d534f27c2c0be5453c634921ac1d68ffffffff02404b4c00000000001976a9149285e61e3288d23fb1a1703977cea23067259e0888ac00851070040000001976a9140e24cd96c9c0b09c3e6f463dacfaf4387848ff8088ac00000000"}, {"hash": "f4bbbab4cf7009092395883dd955d2eac65f48dda17df074573a121d69bcd1c2", "ver": 1, "vin_sz": 1, "vout_sz": 2, "size": 259, "weight": 1036, "fee": 0, "relayed_by": "0.0.0.0", "lock_time": 0, "tx_index": 6854594078679623, "double_spend": false, "time": 1298505211, "block_index": 110034, "block_height": 110034, "inputs": [{"sequence": 4294967295, "witness": "", "script": "493046022100fbb1908f6105157bfbe3d5eabd49696486752fbb0d10d532f262f9ef5d24a42f022100d4bd31cd5c116a37cd743cab3d3b7b48e9fb1ae044c125bd42bab089966be2b9014104a963c6dd7a726bc3758e93b3ce7e98fc5725a431a0631f7dd71740f1c949203e88bd8a90686b0e17b5e1cd61cadfc734d3a66c9d41af53a6bca42273b8347856", "index": 0, "prev_out": {"spent": true, "script": "76a914a07d9f6742992e772ef697a24ac7becf4d5dcda888ac", "spending_outpoints": [{"tx_index": 6854594078679623, "n": 0}], "tx_index": 1187070666505574, "value": 3000000, "addr": "1Fdbc7KXNe9Y2QFgpRUoAwLjsyj5uzq2zS", "n": 1, "type": 0}}], "out": [{"type": 0, "spent": true, "value": 2000000, "spending_outpoints": [{"tx_index": 3963517146281849, "n": 0}], "n": 0, "tx_index": 6854594078679623, "script": "76a9145f90f76ad052ad31ef331ec98cf9229e8f80f35f88ac", "addr": "19iJrfvSLwKoyWYkncDn2itugg9cQ3g7yB"}, {"type": 0, "spent": true, "value": 1000000, "spending_outpoints": [{"tx_index": 5628218755289902, "n": 6}], "n": 1, "tx_index": 6854594078679623, "script": "76a9144f1a609233919072186c4570965b3d95a5eafd0e88ac", "addr": "18DFysrL6zgPG9i9RmCw7SfDUDyh4Kk9Hm"}], "hex": "010000000121bd136b33eb3669602dfae7bc6efe2123cb52e96b7f36f1c01526666f74b40d010000008c493046022100fbb1908f6105157bfbe3d5eabd49696486752fbb0d10d532f262f9ef5d24a42f022100d4bd31cd5c116a37cd743cab3d3b7b48e9fb1ae044c125bd42bab089966be2b9014104a963c6dd7a726bc3758e93b3ce7e98fc5725a431a0631f7dd71740f1c949203e88bd8a90686b0e17b5e1cd61cadfc734d3a66c9d41af53a6bca42273b8347856ffffffff0280841e00000000001976a9145f90f76ad052ad31ef331ec98cf9229e8f80f35f88ac40420f00000000001976a9144f1a609233919072186c4570965b3d95a5eafd0e88ac00000000"}, {"hash": "94c592b546302efc869e142d86deb8b22f14470c3b9d6e2fcdd08df727e17c12", "ver": 1, "vin_sz": 1, "vout_sz": 2, "size": 258, "weight": 1032, "fee": 0, "relayed_by": "0.0.0.0", "lock_time": 0, "tx_index": 650482007601594, "double_spend": false, "time": 1298505211, "block_index": 110034, "block_height": 110034, "inputs": [{"sequence": 4294967295, "witness": "", "script": "483045022100a9ce88f6de2b8d15ec581d2cc9e7eecfbdd34cd9fbebe7fbae2a4fcd24b8175c02203922cc3dbd333dec302430da546b6e1712b966993d6901cc5609881825b356470141044757a977f1e2d8620b1e3b43161769dd9a6b8c5c9a4f9ceb5223b8c2886c94383b324e93e7551d594c9b061101dd2f5cd4a49a74a64dfce05ca9afdb18471d54", "index": 0, "prev_out": {"spent": true, "script": "76a9140e24cd96c9c0b09c3e6f463dacfaf4387848ff8088ac", "spending_outpoints": [{"tx_index": 650482007601594, "n": 0}], "tx_index": 1795316257109464, "value": 19060000000, "addr": "12HnYou8Pn6cLgcARBZZ4E5r5xcyT21JsS", "n": 1, "type": 0}}], "out": [{"type": 0, "spent": true, "value": 5000000, "spending_outpoints": [{"tx_index": 1517248251836887, "n": 65}], "n": 0, "tx_index": 650482007601594, "script": "76a914aa9457134af66a2e9e8a6654312bf3831c27e87188ac", "addr": "1GYwaTx7noWXFMURP4C1odJZnSHr1VTSaQ"}, {"type": 0, "spent": true, "value": 19055000000, "spending_outpoints": [{"tx_index": 1689013060438577, "n": 0}], "n": 1, "tx_index": 650482007601594, "script": "76a9147bfea7dad52900317987a5d4ee685b4c0762d32188ac", "addr": "1CJdBPAezRbkQpUYSTwFJ99WSzxGTyEViU"}], "hex": "01000000013306a51e1daec0bd7dfc736e32bc84667aa4a24f8d84fa30cba9b5b25799c48f010000008b483045022100a9ce88f6de2b8d15ec581d2cc9e7eecfbdd34cd9fbebe7fbae2a4fcd24b8175c02203922cc3dbd333dec302430da546b6e1712b966993d6901cc5609881825b356470141044757a977f1e2d8620b1e3b43161769dd9a6b8c5c9a4f9ceb5223b8c2886c94383b324e93e7551d594c9b061101dd2f5cd4a49a74a64dfce05ca9afdb18471d54ffffffff02404b4c00000000001976a914aa9457134af66a2e9e8a6654312bf3831c27e87188acc039c46f040000001976a9147bfea7dad52900317987a5d4ee685b4c0762d32188ac00000000"}, {"hash": "bdbcdeb1d39336d0c19c1b23e420d2ad73fd1bd0176e4cf045cabb85fc61a670", "ver": 1, "vin_sz": 1, "vout_sz": 2, "size": 259, "weight": 1036, "fee": 0, "relayed_by": "0.0.0.0", "lock_time": 0, "tx_index": 3963517146281849, "double_spend": false, "time": 1298505211, "block_index": 110034, "block_height": 110034, "inputs": [{"sequence": 4294967295, "witness": "", "script": "493046022100967a8b09b0eaf7ac8f5ea26477d5e0e9638830768d33511d5551178339a7693c022100fe0fb7f1a4454649233db3212688f98cdcee0d69594fb6694f1bb322e0264070014104a0a11d39dbe3cea4685c3050641df232559eb19fcdca671f78ded45c47bb32681b82747d2646980f5773f06ee881da1c30a627bf31d762b9b8e46bc968bb6f00", "index": 0, "prev_out": {"spent": true, "script": "76a9145f90f76ad052ad31ef331ec98cf9229e8f80f35f88ac", "spending_outpoints": [{"tx_index": 3963517146281849, "n": 0}], "tx_index": 6854594078679623, "value": 2000000, "addr": "19iJrfvSLwKoyWYkncDn2itugg9cQ3g7yB", "n": 0, "type": 0}}], "out": [{"type": 0, "spent": true, "value": 1000000, "spending_outpoints": [{"tx_index": 4635420361251128, "n": 3}], "n": 0, "tx_index": 3963517146281849, "script": "76a9143379fd1934e4f76b4bad090c59c6f5942202c5e188ac", "addr": "15hBbhrmURFZGcj6uPCa4ygUTyqwsjXUQD"}, {"type": 0, "spent": true, "value": 1000000, "spending_outpoints": [{"tx_index": 5628218755289902, "n": 0}], "n": 1, "tx_index": 3963517146281849, "script": "76a914444a47c9f753a4110670a8cebb1ab5faef53250688ac", "addr": "17E5w94JaYogzT7DX2o6aQp7dgHESCtoh9"}], "hex": "0100000001c2d1bc691d123a5774f07da1dd485fc6ead255d93d889523090970cfb4babbf4000000008c493046022100967a8b09b0eaf7ac8f5ea26477d5e0e9638830768d33511d5551178339a7693c022100fe0fb7f1a4454649233db3212688f98cdcee0d69594fb6694f1bb322e0264070014104a0a11d39dbe3cea4685c3050641df232559eb19fcdca671f78ded45c47bb32681b82747d2646980f5773f06ee881da1c30a627bf31d762b9b8e46bc968bb6f00ffffffff0240420f00000000001976a9143379fd1934e4f76b4bad090c59c6f5942202c5e188ac40420f00000000001976a914444a47c9f753a4110670a8cebb1ab5faef53250688ac00000000"}, {"hash": "36dced835454cbbedcf49295a1c66ccbe7cb1d6dd72d89f34c8951e8fb2f0130", "ver": 1, "vin_sz": 1, "vout_sz": 2, "size": 258, "weight": 1032, "fee": 0, "relayed_by": "0.0.0.0", "lock_time": 0, "tx_index": 1689013060438577, "double_spend": false, "time": 1298505211, "block_index": 110034, "block_height": 110034, "inputs": [{"sequence": 4294967295, "witness": "", "script": "48304502207455495dfda20fe58a63d8f39b949a87ce77e21c79430fb365ac75d1197ba560022100b78733ec99772d6af744d4243050aa51ae177d36043bd3777a258136d4998b2c014104f85fa317ba3edde278cfee9212a61828be42f1005fc46052833fc93695b347f09cc15264814e47d4f3822a89570aaa51f334a2aff7a204945ca3103732ea2899", "index": 0, "prev_out": {"spent": true, "script": "76a9147bfea7dad52900317987a5d4ee685b4c0762d32188ac", "spending_outpoints": [{"tx_index": 1689013060438577, "n": 0}], "tx_index": 650482007601594, "value": 19055000000, "addr": "1CJdBPAezRbkQpUYSTwFJ99WSzxGTyEViU", "n": 1, "type": 0}}], "out": [{"type": 0, "spent": true, "value": 19050000000, "spending_outpoints": [{"tx_index": 4706907461697435, "n": 0}], "n": 0, "tx_index": 1689013060438577, "script": "76a914b5c073b2009804607b0469e4bf9eca0de4cce38888ac", "addr": "1Ha1rWwNXNB2zXD5TsBonf8YAKnUmTGHrD"}, {"type": 0, "spent": false, "value": 5000000, "spending_outpoints": [], "n": 1, "tx_index": 1689013060438577, "script": "76a9146f07003deecae558d04087054adbf164ad0bb48488ac", "addr": "1B84PjBrW15aPHs4iNwPNM4tLRYM5h2UV3"}], "hex": "0100000001127ce127f78dd0cd2f6e9d3b0c47142fb2b8de862d149e86fc2e3046b592c594010000008b48304502207455495dfda20fe58a63d8f39b949a87ce77e21c79430fb365ac75d1197ba560022100b78733ec99772d6af744d4243050aa51ae177d36043bd3777a258136d4998b2c014104f85fa317ba3edde278cfee9212a61828be42f1005fc46052833fc93695b347f09cc15264814e47d4f3822a89570aaa51f334a2aff7a204945ca3103732ea2899ffffffff0280ee776f040000001976a914b5c073b2009804607b0469e4bf9eca0de4cce38888ac404b4c00000000001976a9146f07003deecae558d04087054adbf164ad0bb48488ac00000000"}, {"hash": "5dca35319bfff6aee4522ee196f028a5d85558c72f164f9fc4dcfcf55942c785", "ver": 1, "vin_sz": 1, "vout_sz": 2, "size": 259, "weight": 1036, "fee": 0, "relayed_by": "0.0.0.0", "lock_time": 0, "tx_index": 4706907461697435, "double_spend": false, "time": 1298505211, "block_index": 110034, "block_height": 110034, "inputs": [{"sequence": 4294967295, "witness": "", "script": "493046022100c43cedc49b9c3adf68c929092b4d6b96f2c0169760273f4e21343127c6aada2b022100f2ea433e63377caba45d38d999043d839ccde5c67d3e76b748d68296dacf32f001410492083e4725eff7cd183d5a85ae4d8d9740ecd70480643f932fa9a294ee2701c879806b38de0846ac49c439eaaf77ecff192c0255cf34a39eb879d9b6a19521cf", "index": 0, "prev_out": {"spent": true, "script": "76a914b5c073b2009804607b0469e4bf9eca0de4cce38888ac", "spending_outpoints": [{"tx_index": 4706907461697435, "n": 0}], "tx_index": 1689013060438577, "value": 19050000000, "addr": "1Ha1rWwNXNB2zXD5TsBonf8YAKnUmTGHrD", "n": 0, "type": 0}}], "out": [{"type": 0, "spent": true, "value": 19045000000, "spending_outpoints": [{"tx_index": 5282274125955998, "n": 0}], "n": 0, "tx_index": 4706907461697435, "script": "76a914eb6c7449cbd14000b6ec89c34e98a5f895ddb2b688ac", "addr": "1NToicbDAj6ankBdY1Wjovn8FBZGL8M8Jq"}, {"type": 0, "spent": false, "value": 5000000, "spending_outpoints": [], "n": 1, "tx_index": 4706907461697435, "script": "76a914735e94b836a646fbb5e0b3ebfb88804bf97cefd088ac", "addr": "1BX21fEKJm7AuTQtvkJRVZHwBx6tiYMVKc"}], "hex": "010000000130012ffbe851894cf3892dd76d1dcbe7cb6cc6a19592f4dcbecb545483eddc36000000008c493046022100c43cedc49b9c3adf68c929092b4d6b96f2c0169760273f4e21343127c6aada2b022100f2ea433e63377caba45d38d999043d839ccde5c67d3e76b748d68296dacf32f001410492083e4725eff7cd183d5a85ae4d8d9740ecd70480643f932fa9a294ee2701c879806b38de0846ac49c439eaaf77ecff192c0255cf34a39eb879d9b6a19521cfffffffff0240a32b6f040000001976a914eb6c7449cbd14000b6ec89c34e98a5f895ddb2b688ac404b4c00000000001976a914735e94b836a646fbb5e0b3ebfb88804bf97cefd088ac00000000"}, {"hash": "c0606da30bb3bbdb976ff79add5b748056c368718f6387b111f61c12479a2196", "ver": 1, "vin_sz": 1, "vout_sz": 2, "size": 258, "weight": 1032, "fee": 0, "relayed_by": "0.0.0.0", "lock_time": 0, "tx_index": 5282274125955998, "double_spend": false, "time": 1298505211, "block_index": 110034, "block_height": 110034, "inputs": [{"sequence": 4294967295, "witness": "", "script": "48304502201b7e82a98f99dab8193e5247c2a86a1a3c3a412d4ea45d28bec66d286013e5ba022100e541291c42ffd97209d785a3870ea6f7982ad8ad7e4193324c518ab2595ee7fe014104a580663f8633a0084923aecc6a0f9e9a5d55a8a575df3042ae015ce3774d73ca4ecda3c14d1191737aece3189a7843c45f80792ebc96fc8024160e77afd6f029", "index": 0, "prev_out": {"spent": true, "script": "76a914eb6c7449cbd14000b6ec89c34e98a5f895ddb2b688ac", "spending_outpoints": [{"tx_index": 5282274125955998, "n": 0}], "tx_index": 4706907461697435, "value": 19045000000, "addr": "1NToicbDAj6ankBdY1Wjovn8FBZGL8M8Jq", "n": 0, "type": 0}}], "out": [{"type": 0, "spent": true, "value": 5000000, "spending_outpoints": [{"tx_index": 3280053535293078, "n": 1}], "n": 0, "tx_index": 5282274125955998, "script": "76a9145434b4f6a65856be257238f1aff9a9f641c4384988ac", "addr": "18gEuFefT7fgbUVtVb5iaEvXfd2MaGdbwB"}, {"type": 0, "spent": true, "value": 19040000000, "spending_outpoints": [{"tx_index": 8143335236852865, "n": 0}], "n": 1, "tx_index": 5282274125955998, "script": "76a91450ce566ba22ece2c94160a040b4045ad59f6888b88ac", "addr": "18NGEw71Er6nA6dyyVZhx3WjMV54DiqmYo"}], "hex": "010000000185c74259f5fcdcc49f4f162fc75855d8a528f096e12e52e4aef6ff9b3135ca5d000000008b48304502201b7e82a98f99dab8193e5247c2a86a1a3c3a412d4ea45d28bec66d286013e5ba022100e541291c42ffd97209d785a3870ea6f7982ad8ad7e4193324c518ab2595ee7fe014104a580663f8633a0084923aecc6a0f9e9a5d55a8a575df3042ae015ce3774d73ca4ecda3c14d1191737aece3189a7843c45f80792ebc96fc8024160e77afd6f029ffffffff02404b4c00000000001976a9145434b4f6a65856be257238f1aff9a9f641c4384988ac0058df6e040000001976a91450ce566ba22ece2c94160a040b4045ad59f6888b88ac00000000"}, {"hash": "dbe690af4855afe734f9898895b79a367f7497bdd52286cc3908e4a2e08f72e7", "ver": 1, "vin_sz": 1, "vout_sz": 2, "size": 258, "weight": 1032, "fee": 0, "relayed_by": "0.0.0.0", "lock_time": 0, "tx_index": 8143335236852865, "double_spend": false, "time": 1298505211, "block_index": 110034, "block_height": 110034, "inputs": [{"sequence": 4294967295, "witness": "", "script": "483045022059c4af6f9944dce1575ba9cb8208a5eccd46a2d6037706082b300d316b395813022100f686dd8c4395b4d8b2f5bbfb76a2ca8259b03d6972713a10e17a4ab30af80d070141041ab1260e1a47012ee63aa1a56c429925e4e4fdca4f903e7a554be77c48b8a11bab2a314d54d6ff266e32ab7116a42f65de4c5d6a9187752a639b9e0cd1a40add", "index": 0, "prev_out": {"spent": true, "script": "76a91450ce566ba22ece2c94160a040b4045ad59f6888b88ac", "spending_outpoints": [{"tx_index": 8143335236852865, "n": 0}], "tx_index": 5282274125955998, "value": 19040000000, "addr": "18NGEw71Er6nA6dyyVZhx3WjMV54DiqmYo", "n": 1, "type": 0}}], "out": [{"type": 0, "spent": true, "value": 5000000, "spending_outpoints": [{"tx_index": 6532914684420190, "n": 62}], "n": 0, "tx_index": 8143335236852865, "script": "76a91454fb7f7081896d91d709ec6e67946d5ba733a09688ac", "addr": "18kM3VJYCiiHvmEnLT7awoAdqKVQs3hvWr"}, {"type": 0, "spent": true, "value": 19035000000, "spending_outpoints": [{"tx_index": 3258605921236074, "n": 0}], "n": 1, "tx_index": 8143335236852865, "script": "76a9141055c3dccc2d3b3e8e21e899c5f70ec1c8946cdb88ac", "addr": "12VNZ8fFXHmRtMdv86vxZ21gJZHcDhBDAD"}], "hex": "010000000196219a47121cf611b187638f7168c35680745bdd9af76f97dbbbb30ba36d60c0010000008b483045022059c4af6f9944dce1575ba9cb8208a5eccd46a2d6037706082b300d316b395813022100f686dd8c4395b4d8b2f5bbfb76a2ca8259b03d6972713a10e17a4ab30af80d070141041ab1260e1a47012ee63aa1a56c429925e4e4fdca4f903e7a554be77c48b8a11bab2a314d54d6ff266e32ab7116a42f65de4c5d6a9187752a639b9e0cd1a40addffffffff02404b4c00000000001976a91454fb7f7081896d91d709ec6e67946d5ba733a09688acc00c936e040000001976a9141055c3dccc2d3b3e8e21e899c5f70ec1c8946cdb88ac00000000"}]}