{"hash": "00000000000079adda70daf7c6aaf92131ccd72b594fe8ec27a5988f8f818ab3", "ver": 1, "prev_block": "0000000000018d067c617c2e262e544bae4807e413122b1f4814077a15ac57c6", "mrkl_root": "672914184327240c65d5f610c6b75155d90f698362bc3d408bd531bf76a34f31", "time": 1298492133, "bits": 453102630, "next_block": ["00000000000116d33823c5d9f8ead201edc6abf99004ae1d70c63f446746a0a5"], "fee": 0, "nonce": 3172022496, "n_tx": 12, "size": 3049, "block_index": 110002, "main_chain": true, "height": 110002, "weight": 12196, "tx": [{"hash": "42d7c01dcba3237c43eaf825782f180244e7ef2d934da91dd5c84fa4431a9ae2", "ver": 1, "vin_sz": 1, "vout_sz": 1, "size": 134, "weight": 536, "fee": 0, "relayed_by": "0.0.0.0", "lock_time": 0, "tx_index": 7972847791409657, "double_spend": false, "time": 1298492133, "block_index": 110002, "block_height": 110002, "inputs": [{"sequence": 4294967295, "witness": "", "script": "0426cc011b0170", "index": 0, "prev_out": null}], "out": [{"type": 0, "spent": false, "value": 5000000000, "spending_outpoints": [], "n": 0, "tx_index": 7972847791409657, "script": "41042f961831e934ca1738b2e46687fb56170f63eb114e33596bfd4489b5467f7f1053989c76bbcd3b1ae3ae979beecf0aae005e4057d34e1dca620f450c06bbaef7ac", "addr": "1E4W44BJ2VqMCmVMwp9oRLe8wqWhSLdBqj"}], "hex": "01000000010000000000000000000000000000000000000000000000000000000000000000ffffffff070426cc011b0170ffffffff0100f2052a010000004341042f961831e934ca1738b2e46687fb56170f63eb114e33596bfd4489b5467f7f1053989c76bbcd3b1ae3ae979beecf0aae005e4057d34e1dca620f450c06bbaef7ac00000000"}, {"hash": "18e540c021d86382c0d70119c6ae96bae3bc6bb0da15b00a9d95079f82ad071c", "ver": 1, "vin_sz": 1, "vout_sz": 2, "size": 258, "weight": 1032, "fee": 0, "relayed_by": "0.0.0.0", "lock_time": 0, "tx_index": 986217643761906, "double_spend": false, "time": 1298492133, "block_index": 110002, "block_height": 110002, "inputs": [{"sequence": 4294967295, "witness": "", "script": "483045022100ad2d7c5127c6197b1c3b04da61ff04e21fccff5a3c560a38fe31f1fb06720a7502205c10ebd0e0be2ea3b32b2d6efc58916fb0c378d4d641041fb1d25f7ced41f55b014104cfe58d26e7bd63e90fb0615fabda2fa6fa8f38c98bcc50df8146795593e9da2d37ae3bdb1eeb5e03de437e90c8856db931264349f0a0bbe0f74ee1201f5f3868", "index": 0, "prev_out": {"spent": true, "script": "76a9141662b826d30ecbb7a013806032b932448448f09f88ac", "spending_outpoints": [{"tx_index": 986217643761906, "n": 0}], "tx_index": 2288492515651694, "value": 38648000000, "addr": "133N8MuV1uYdCEkuRDQNbBa7hBNzqnUkMt", "n": 1, "type": 0}}], "out": [{"type": 0, "spent": true, "value": 30570000000, "spending_outpoints": [{"tx_index": 3115799092422413, "n": 0}], "n": 0, "tx_index": 986217643761906, "script": "76a91485f34a64815e7b6e61ecba6bb5b6abb890af1cc588ac", "addr": "1DDGKe9LwwarZVpRpr4KfHRwfR5oBvp8xJ"}, {"type": 0, "spent": true, "value": 8078000000, "spending_outpoints": [{"tx_index": 1401007542746965, "n": 2}], "n": 1, "tx_index": 986217643761906, "script": "76a91422a2fde16408a99bddadd14e081442b3392de9c188ac", "addr": "14A9EPMrMsRqjfYsVdvAFFW17yw2xMVn74"}], "hex": "0100000001410af97bbb83704c5891de7891d400535348d6861b5a95cbc0d24c0f8a8ce6d0010000008b483045022100ad2d7c5127c6197b1c3b04da61ff04e21fccff5a3c560a38fe31f1fb06720a7502205c10ebd0e0be2ea3b32b2d6efc58916fb0c378d4d641041fb1d25f7ced41f55b014104cfe58d26e7bd63e90fb0615fabda2fa6fa8f38c98bcc50df8146795593e9da2d37ae3bdb1eeb5e03de437e90c8856db931264349f0a0bbe0f74ee1201f5f3868ffffffff02802e1d1e070000001976a91485f34a64815e7b6e61ecba6bb5b6abb890af1cc588ac807f7ce1010000001976a91422a2fde16408a99bddadd14e081442b3392de9c188ac00000000"}, {"hash": "de6bcffafa0abcba24e06200caf5363fae9378622a741b37a8b47d8ab7e2bd79", "ver": 1, "vin_sz": 1, "vout_sz": 2, "size": 257, "weight": 1028, "fee": 0, "relayed_by": "0.0.0.0", "lock_time": 0, "tx_index": 4283406702694326, "double_spend": false, "time": 1298492133, "block_index": 110002, "block_height": 110002, "inputs": [{"sequence": 4294967295, "witness": "", "script": "4730440220747195a0ebe059a65550793db2e8ac3ee1332db71a76423fdc481ec7acdf4c9f0220111746e7afaa9a53974741dd32f5b2f9a66bf418cfc5bf95b9ef87d8a7ef5a50014104313550cbc288c6af3e26a560b9314c8943332f8cedca8cc68c7fa0a8a66211da4fd1def6b6bf34ce7419773a3cda63e10a9af1015a51a6b27b6ee2a3290250c4", "index": 0, "prev_out": {"spent": true, "script": "76a914811c8083fb7053dfed8f7273aa9d2ea683b5c5cd88ac", "spending_outpoints": [{"tx_index": 4283406702694326, "n": 0}], "tx_index": 6532217957793846, "value": 19630000000, "addr": "1CmgK6qyroorCsuYDsc1J4ZfLpcAhkeK5k", "n": 1, "type": 0}}], "out": [{"type": 0, "spent": true, "value": 19625000000, "spending_outpoints": [{"tx_index": 1073267420309018, "n": 0}], "n": 0, "tx_index": 4283406702694326, "script": "76a914bc6a0f351ab95c44cb5b953fa39066e00335266f88ac", "addr": "1JBF6CeAUQUnLCbU4mFwgLb9wVYHuLMEgp"}, {"type": 0, "spent": false, "value": 5000000, "spending_outpoints": [], "n": 1, "tx_index": 4283406702694326, "script": "76a9144882305e261b3251dcb6b2781a2b0dfca05fc30988ac", "addr": "17cPcVsDcfHeYSTZiiqgRxFn4i2jnKK8Qh"}], "hex": "0100000001b9a82417c201b39a0acd9dc427a650d3bc7046a26480a105a3647016b17f23f4010000008a4730440220747195a0ebe059a65550793db2e8ac3ee1332db71a76423fdc481ec7acdf4c9f0220111746e7afaa9a53974741dd32f5b2f9a66bf418cfc5bf95b9ef87d8a7ef5a50014104313550cbc288c6af3e26a560b9314c8943332f8cedca8cc68c7fa0a8a66211da4fd1def6b6bf34ce7419773a3cda63e10a9af1015a51a6b27b6ee2a3290250c4ffffffff0240bcbd91040000001976a914bc6a0f351ab95c44cb5b953fa39066e00335266f88ac404b4c00000000001976a9144882305e261b3251dcb6b2781a2b0dfca05fc30988ac00000000"}, {"hash": "017286dadced8560a1786fc23f6c732b126fd518e3439771b9cb9ba950a5b8c3", "ver": 1, "vin_sz": 1, "vout_sz": 2, "size": 258, "weight": 1032, "fee": 0, "relayed_by": "0.0.0.0", "lock_time": 0, "tx_index": 6886330077623161, "double_spend": false, "time": 1298492133, "block_index": 110002, "block_height": 110002, "inputs": [{"sequence": 4294967295, "witness": "", "script": "483045022100dedab8353bdda6c1c7d1476211480011e1feb52b0a39cf8b9102375d692e647802206ed0fc0016a1617a5ad78885f9865b432ac19c57b4f8dc283a1ecaf781d0bde0014104ad58c940305ae9eceb6d72c0464ee990a578eaa8b72be961ee4f465f03516d6f4a28999362c70b91e8bbbfaa7a6089dff3446d38e74c926279e47300231d18b3", "index": 0, "prev_out": {"spent": true, "script": "76a91449d7581b21a1ecebf507cc883b43e65e3db47ab888ac", "spending_outpoints": [{"tx_index": 6886330077623161, "n": 0}], "tx_index": 7266349892781239, "value": 3264000000, "addr": "17jSJNx5jx1pUYKHXUJd8Mj11s5cgDBJ1P", "n": 0, "type": 0}}], "out": [{"type": 0, "spent": true, "value": 3254000000, "spending_outpoints": [{"tx_index": 1867226040601225, "n": 0}], "n": 0, "tx_index": 6886330077623161, "script": "76a914db181c6819237b61a8aba794f173cf9d0f1815d188ac", "addr": "1LyTsGfBCohFdsV3mVmw84gJFgMcS6Nm6G"}, {"type": 0, "spent": true, "value": 10000000, "spending_outpoints": [{"tx_index": 4656897678144625, "n": 7}], "n": 1, "tx_index": 6886330077623161, "script": "76a914acb7bc96bff97ace6b3c57b5f9eb621d86635e3a88ac", "addr": "1GkFLF5uMBtESKZ4JkrPTkSMwFRJDo8SUK"}], "hex": "0100000001ce85a7616225b8241077e855f8506157f4dbd18139f50ded333b89b9d1e7373d000000008b483045022100dedab8353bdda6c1c7d1476211480011e1feb52b0a39cf8b9102375d692e647802206ed0fc0016a1617a5ad78885f9865b432ac19c57b4f8dc283a1ecaf781d0bde0014104ad58c940305ae9eceb6d72c0464ee990a578eaa8b72be961ee4f465f03516d6f4a28999362c70b91e8bbbfaa7a6089dff3446d38e74c926279e47300231d18b3ffffffff028019f4c1000000001976a914db181c6819237b61a8aba794f173cf9d0f1815d188ac80969800000000001976a914acb7bc96bff97ace6b3c57b5f9eb621d86635e3a88ac00000000"}, {"hash": "1583230726446107184f1df385d9f3f5a1199b56c90236e771d230b15a0c811e", "ver": 1, "vin_sz": 1, "vout_sz": 2, "size": 257, "weight": 1028, "fee": 0, "relayed_by": "0.0.0.0", "lock_time": 0, "tx_index": 1073267420309018, "double_spend": false, "time": 1298492133, "block_index": 110002, "block_height": 110002, "inputs": [{"sequence": 4294967295, "witness": "", "script": "4730440220797ec09c07d5476c46f739287d3a81dd1a2a12ccf25e3c1a540690794f200a6f022033e1092e4333df8e959d09eac928c1e64ea4b1a70f7482add831eb06a727e9da014104f11fa9d2961b5cdc0a83dcea248d4482a54a095431020e3a193b5013c55f52dfd0982e917332d5f3017023a6baf71bf4bf38ab54e2bcb41587a271d280db56c4", "index": 0, "prev_out": {"spent": true, "script": "76a914bc6a0f351ab95c44cb5b953fa39066e00335266f88ac", "spending_outpoints": [{"tx_index": 1073267420309018, "n": 0}], "tx_index": 4283406702694326, "value": 19625000000, "addr": "1JBF6CeAUQUnLCbU4mFwgLb9wVYHuLMEgp", "n": 0, "type": 0}}], "out": [{"type": 0, "spent": true, "value": 19620000000, "spending_outpoints": [{"tx_index": 8275240658639623, "n": 0}], "n": 0, "tx_index": 1073267420309018, "script": "76a9141f7e229a4ecdd78357436f7316722cf12e82d2b688ac", "addr": "13sX3yN7YizSGENYbomuxwMg1RvrowPmZa"}, {"type": 0, "spent": true, "value": 5000000, "spending_outpoints": [{"tx_index": 80239896509082, "n": 16}], "n": 1, "tx_index": 1073267420309018, "script": "76a914667056104e8fbecdae7d2187f9170561789eb5e088ac", "addr": "1ALeVpfQzPLHEdBmN3ssBNPpqxobACHGz8"}], "hex": "010000000179bde2b78a7db4a8371b742a627893ae3f36f5ca0062e024babc0afafacf6bde000000008a4730440220797ec09c07d5476c46f739287d3a81dd1a2a12ccf25e3c1a540690794f200a6f022033e1092e4333df8e959d09eac928c1e64ea4b1a70f7482add831eb06a727e9da014104f11fa9d2961b5cdc0a83dcea248d4482a54a095431020e3a193b5013c55f52dfd0982e917332d5f3017023a6baf71bf4bf38ab54e2bcb41587a271d280db56c4ffffffff0200717191040000001976a9141f7e229a4ecdd78357436f7316722cf12e82d2b688ac404b4c00000000001976a914667056104e8fbecdae7d2187f9170561789eb5e088ac00000000"}, {"hash": "b7a82d1827af16380f0a23d26d586037e7e0185a71f8e7231e4d54ec86db1135", "ver": 1, "vin_sz": 1, "vout_sz": 2, "size": 258, "weight": 1032, "fee": 0, "relayed_by": "0.0.0.0", "lock_time": 0, "tx_index": 1867226040601225, "double_spend": false, "time": 1298492133, "block_index": 110002, "block_height": 110002, "inputs": [{"sequence": 4294967295, "witness": "", "script": "48304502200764c33e160656ea88d7dbd9bae5a989ad7fd23d8d74e384a2f586ea31c81207022100ad677f3c05e5970978ad7becab57396f317e3f17e24af3a28e30579fb314023d01410425516b7f9f94b335455b2143a84c85d7c32f32462aa936136fb7496ee8696038c31d790f5ace8a958731c55a2375b9369eeb4d99793417aac3b00f8c8aa53a1a", "index": 0, "prev_out": {"spent": true, "script": "76a914db181c6819237b61a8aba794f173cf9d0f1815d188ac", "spending_outpoints": [{"tx_index": 1867226040601225, "n": 0}], "tx_index": 6886330077623161, "value": 3254000000, "addr": "1LyTsGfBCohFdsV3mVmw84gJFgMcS6Nm6G", "n": 0, "type": 0}}], "out": [{"type": 0, "spent": false, "value": 7000000, "spending_outpoints": [], "n": 0, "tx_index": 1867226040601225, "script": "76a914a00d0ae852d4ec024d7a61307f4cd7427309127988ac", "addr": "1FbGjujHYG8p5qjaqkJzMwhZ4LwUacmYPG"}, {"type": 0, "spent": true, "value": 3247000000, "spending_outpoints": [{"tx_index": 8340145021820935, "n": 0}], "n": 1, "tx_index": 1867226040601225, "script": "76a9144c00e8e4c1e394c3f7fdb8bf151fa7baaceb236b88ac", "addr": "17vsSnmBEYn2J3as4sF2ibwW39X8KxbpCf"}], "hex": "0100000001c3b8a550a99bcbb9719743e318d56f122b736c3fc26f78a16085eddcda867201000000008b48304502200764c33e160656ea88d7dbd9bae5a989ad7fd23d8d74e384a2f586ea31c81207022100ad677f3c05e5970978ad7becab57396f317e3f17e24af3a28e30579fb314023d01410425516b7f9f94b335455b2143a84c85d7c32f32462aa936136fb7496ee8696038c31d790f5ace8a958731c55a2375b9369eeb4d99793417aac3b00f8c8aa53a1affffffff02c0cf6a00000000001976a914a00d0ae852d4ec024d7a61307f4cd7427309127988acc04989c1000000001976a9144c00e8e4c1e394c3f7fdb8bf151fa7baaceb236b88ac00000000"}, {"hash": "b1075aa5d32b0a54abab873317e2171cc180fdc321f2bae0f93ad81cdf4c32eb", "ver": 1, "vin_sz": 1, "vout_sz": 2, "size": 257, "weight": 1028, "fee": 0, "relayed_by": "0.0.0.0", "lock_time": 0, "tx_index": 8275240658639623, "double_spend": false, "time": 1298492133, "block_index": 110002, "block_height": 110002, "inputs": [{"sequence": 4294967295, "witness": "", "script": "47304402200d26d528858f1f886f7827a3be5a374f86bdca3c709b2aad6191cb0390b329ba022006b2306e800fd67f106201c1c22e7ca5afdda79b0694b3621026dde19fae529301410463ec9a90848152ac1488ae15ce3ebb1351a6d08a40b482923870a8517fdc0a148fb2674cb5f03f17e6723b85aaf1a5d387e442a2558cce2278ef36120adfcc88", "index": 0, "prev_out": {"spent": true, "script": "76a9141f7e229a4ecdd78357436f7316722cf12e82d2b688ac", "spending_outpoints": [{"tx_index": 8275240658639623, "n": 0}], "tx_index": 1073267420309018, "value": 19620000000, "addr": "13sX3yN7YizSGENYbomuxwMg1RvrowPmZa", "n": 0, "type": 0}}], "out": [{"type": 0, "spent": true, "value": 19615000000, "spending_outpoints": [{"tx_index": 2436381057113224, "n": 0}], "n": 0, "tx_index": 8275240658639623, "script": "76a9145a88b63965968562a1c803fad86543e3a3b1b3eb88ac", "addr": "19FhbAkLCmj3PEGRf7KaMt3ZrXJdCZZMyL"}, {"type": 0, "spent": true, "value": 5000000, "spending_outpoints": [{"tx_index": 4086130423388664, "n": 106}], "n": 1, "tx_index": 8275240658639623, "script": "76a914fdf214b2e0c96c4731dabd26cde6d04b6f54ba1a88ac", "addr": "1Q9jxc8i8RisF6k5XsH3bmpQAgCL9Jt7vk"}], "hex": "01000000011e810c5ab130d271e73602c9569b19a1f5f3d985f31d4f180761442607238315000000008a47304402200d26d528858f1f886f7827a3be5a374f86bdca3c709b2aad6191cb0390b329ba022006b2306e800fd67f106201c1c22e7ca5afdda79b0694b3621026dde19fae529301410463ec9a90848152ac1488ae15ce3ebb1351a6d08a40b482923870a8517fdc0a148fb2674cb5f03f17e6723b85aaf1a5d387e442a2558cce2278ef36120adfcc88ffffffff02c0252591040000001976a9145a88b63965968562a1c803fad86543e3a3b1b3eb88ac404b4c00000000001976a914fdf214b2e0c96c4731dabd26cde6d04b6f54ba1a88ac00000000"}, {"hash": "51986935bd68b9c2e5f4ae462e5f26545de44ec7b7eafbb1843d0035ab8a0aed", "ver": 1, "vin_sz": 1, "vout_sz": 2, "size": 258, "weight": 1032, "fee": 0, "relayed_by": "0.0.0.0", "lock_time": 0, "tx_index": 8340145021820935, "double_spend": false, "time": 1298492133, "block_index": 110002, "block_height": 110002, "inputs": [{"sequence": 4294967295, "witness": "", "script": "483045022100e480551978eaa24a8c0762613cdafb51313ed12c13e3b578a31748572336b53902200329bdff973465965c73425630035ed0625a19eb379f5ccee5f975241ae6a64c0141045cdb97b86bfeb852fb066dec972069c193ab6e8e7970d418df3562c80061b1daae2d0097de3367c8922f94283e972caca3053ce86edd60e26fa223e92cbc76af", "index": 0, "prev_out": {"spent": true, "script": "76a9144c00e8e4c1e394c3f7fdb8bf151fa7baaceb236b88ac", "spending_outpoints": [{"tx_index": 8340145021820935, "n": 0}], "tx_index": 1867226040601225, "value": 3247000000, "addr": "17vsSnmBEYn2J3as4sF2ibwW39X8KxbpCf", "n": 1, "type": 0}}], "out": [{"type": 0, "spent": true, "value": 3240000000, "spending_outpoints": [{"tx_index": 595226675772449, "n": 0}], "n": 0, "tx_index": 8340145021820935, "script": "76a914f627e662b21ac203a662e66b8470482aa323766088ac", "addr": "1PSZ2VF8HJjr5SjXs2FXpzXBcTX1WBPd1B"}, {"type": 0, "spent": true, "value": 7000000, "spending_outpoints": [{"tx_index": 8730264671170728, "n": 453}], "n": 1, "tx_index": 8340145021820935, "script": "76a9144b1cf54d4a8268953acc50d6d486017e7c4ef1f788ac", "addr": "17rANSTto6WCqLRooP1qp4vVSbUvMh6Ks5"}], "hex": "01000000013511db86ec544d1e23e7f8715a18e0e73760586dd2230a0f3816af27182da8b7010000008b483045022100e480551978eaa24a8c0762613cdafb51313ed12c13e3b578a31748572336b53902200329bdff973465965c73425630035ed0625a19eb379f5ccee5f975241ae6a64c0141045cdb97b86bfeb852fb066dec972069c193ab6e8e7970d418df3562c80061b1daae2d0097de3367c8922f94283e972caca3053ce86edd60e26fa223e92cbc76afffffffff02007a1ec1000000001976a914f627e662b21ac203a662e66b8470482aa323766088acc0cf6a00000000001976a9144b1cf54d4a8268953acc50d6d486017e7c4ef1f788ac00000000"}, {"hash": "4ad9f76c34a565f9557afd78cd0334ec6caeeba39b9bfdaaf540e4925b013f45", "ver": 1, "vin_sz": 1, "vout_sz": 2, "size": 257, "weight": 1028, "fee": 0, "relayed_by": "0.0.0.0", "lock_time": 0, "tx_index": 2436381057113224, "double_spend": false, "time": 1298492133, "block_index": 110002, "block_height": 110002, "inputs": [{"sequence": 4294967295, "witness": "", "script": "47304402207c3971877d5c93123b2895f66967e36b1b85e95a599efcaa2ec20a3474ab7f9c02203c83ef55fe247474a95cedb5cb70fa7a01ffe605a2b036c30763592f2155a25b01410494757232214df86e75059e9cb7fa1bfb39a0cd171627a859d0057a446e1db6ca96770f872de84f11b86ab40c4df42e5987b82b78e421f3621c59afdd2e188ce7", "index": 0, "prev_out": {"spent": true, "script": "76a9145a88b63965968562a1c803fad86543e3a3b1b3eb88ac", "spending_outpoints": [{"tx_index": 2436381057113224, "n": 0}], "tx_index": 8275240658639623, "value": 19615000000, "addr": "19FhbAkLCmj3PEGRf7KaMt3ZrXJdCZZMyL", "n": 0, "type": 0}}], "out": [{"type": 0, "spent": false, "value": 5000000, "spending_outpoints": [], "n": 0, "tx_index": 2436381057113224, "script": "76a91455e3cd6f0b757d352d5bcb57a3abe5170616c85388ac", "addr": "18q9LJM6fexdwQk1DEzj5xoSyrei2JU3f7"}, {"type": 0, "spent": true, "value": 19610000000, "spending_outpoints": [{"tx_index": 6870049150200650, "n": 0}], "n": 1, "tx_index": 2436381057113224, "script": "76a9140108a38c36b8950807097e546f5b80df9edcf3db88ac", "addr": "16U2RxGro5ZseGxbi59iJzDmTLphWcX8j"}], "hex": "0100000001eb324cdf1cd83af9e0baf221c3fd80c11c17e2173387abab540a2bd3a55a07b1000000008a47304402207c3971877d5c93123b2895f66967e36b1b85e95a599efcaa2ec20a3474ab7f9c02203c83ef55fe247474a95cedb5cb70fa7a01ffe605a2b036c30763592f2155a25b01410494757232214df86e75059e9cb7fa1bfb39a0cd171627a859d0057a446e1db6ca96770f872de84f11b86ab40c4df42e5987b82b78e421f3621c59afdd2e188ce7ffffffff02404b4c00000000001976a91455e3cd6f0b757d352d5bcb57a3abe5170616c85388ac80dad890040000001976a9140108a38c36b8950807097e546f5b80df9edcf3db88ac00000000"}, {"hash": "3d018a2d88e7dc98b68ec9c80b9781d45b643c106943cf8ded0be18f14d8ea10", "ver": 1, "vin_sz": 1, "vout_sz": 2, "size": 257, "weight": 1028, "fee": 0, "relayed_by": "0.0.0.0", "lock_time": 0, "tx_index": 595226675772449, "double_spend": false, "time": 1298492133, "block_index": 110002, "block_height": 110002, "inputs": [{"sequence": 4294967295, "witness": "", "script": "473044022067ec0a38d4287506e0a30b955a83932af1f159973ef05e90da1b92c17cfba82402200fa42b846aee8ac55077daf1bdd7b20793f22f2f4c0905945eb595e2ebe3b104014104f4f0fe490a88ad346d549c2dd5cc2c2623d784cdfa6ad621afea079c45e37f24ecc99cabd24f9d888db21fe9b02d36004e7281dd9dd72f8bac9f8ecd6baaaf41", "index": 0, "prev_out": {"spent": true, "script": "76a914f627e662b21ac203a662e66b8470482aa323766088ac", "spending_outpoints": [{"tx_index": 595226675772449, "n": 0}], "tx_index": 8340145021820935, "value": 3240000000, "addr": "1PSZ2VF8HJjr5SjXs2FXpzXBcTX1WBPd1B", "n": 0, "type": 0}}], "out": [{"type": 0, "spent": true, "value": 6000000, "spending_outpoints": [{"tx_index": 6493601510809581, "n": 1}], "n": 0, "tx_index": 595226675772449, "script": "76a9145551365c123e06af13d654aa2d85a3cd9f1a2b5088ac", "addr": "18n7j3D2nTbojv6m2rXbh7DmTBWzHyLwWw"}, {"type": 0, "spent": true, "value": 3234000000, "spending_outpoints": [{"tx_index": 7471676226302051, "n": 0}], "n": 1, "tx_index": 595226675772449, "script": "76a914e9976e9a075a37236fed31dcfea4893d6b1a95a188ac", "addr": "1NJ7rNyizVCEhfAfRGbZ9YE3267r8ooNum"}], "hex": "0100000001ed0a8aab35003d84b1fbeab7c74ee45d54265f2e46aef4e5c2b968bd35699851000000008a473044022067ec0a38d4287506e0a30b955a83932af1f159973ef05e90da1b92c17cfba82402200fa42b846aee8ac55077daf1bdd7b20793f22f2f4c0905945eb595e2ebe3b104014104f4f0fe490a88ad346d549c2dd5cc2c2623d784cdfa6ad621afea079c45e37f24ecc99cabd24f9d888db21fe9b02d36004e7281dd9dd72f8bac9f8ecd6baaaf41ffffffff02808d5b00000000001976a9145551365c123e06af13d654aa2d85a3cd9f1a2b5088ac80ecc2c0000000001976a914e9976e9a075a37236fed31dcfea4893d6b1a95a188ac00000000"}, {"hash": "defa288f6c7a53b6f97a4a2428eeae36b076b1986e0c6ca436525a7fb92f42c3", "ver": 1, "vin_sz": 1, "vout_sz": 2, "size": 259, "weight": 1036, "fee": 0, "relayed_by": "0.0.0.0", "lock_time": 0, "tx_index": 6870049150200650, "double_spend": false, "time": 1298492133, "block_index": 110002, "block_height": 110002, "inputs": [{"sequence": 4294967295, "witness": "", "script": "493046022100b52ac383e61432055c22f4720f7ab3f0814dfd0b9abda6e14a64d5c5651bac5102210096c86f7c56d3fec3b9410a214370aaeb4262909151f3d5905338632e66a0777d014104258b284bd38fb9b3655196599332bc9d448f284ccb39eac0ed1bb4b7ab256877b1254023add50d71ee2514cf37704dc502d1791b2bf49bdce6f777df11662de4", "index": 0, "prev_out": {"spent": true, "script": "76a9140108a38c36b8950807097e546f5b80df9edcf3db88ac", "spending_outpoints": [{"tx_index": 6870049150200650, "n": 0}], "tx_index": 2436381057113224, "value": 19610000000, "addr": "16U2RxGro5ZseGxbi59iJzDmTLphWcX8j", "n": 1, "type": 0}}], "out": [{"type": 0, "spent": true, "value": 5000000, "spending_outpoints": [{"tx_index": 4086130423388664, "n": 112}], "n": 0, "tx_index": 6870049150200650, "script": "76a91483ca12e6bfcc7d03c288fa011364960a2f93159a88ac", "addr": "1D1qbU2DBgMuM28G4NrXiTRW9XvQ7Smifp"}, {"type": 0, "spent": true, "value": 19605000000, "spending_outpoints": [{"tx_index": 689211544982701, "n": 0}], "n": 1, "tx_index": 6870049150200650, "script": "76a914852c9b206dd8eff48ce357d6ca059f6aec8c68c488ac", "addr": "1D9AJnpzhExiXh3VcAntW1iimubUnJYao3"}], "hex": "0100000001453f015b92e440f5aafd9b9ba3ebae6cec3403cd78fd7a55f965a5346cf7d94a010000008c493046022100b52ac383e61432055c22f4720f7ab3f0814dfd0b9abda6e14a64d5c5651bac5102210096c86f7c56d3fec3b9410a214370aaeb4262909151f3d5905338632e66a0777d014104258b284bd38fb9b3655196599332bc9d448f284ccb39eac0ed1bb4b7ab256877b1254023add50d71ee2514cf37704dc502d1791b2bf49bdce6f777df11662de4ffffffff02404b4c00000000001976a91483ca12e6bfcc7d03c288fa011364960a2f93159a88ac408f8c90040000001976a914852c9b206dd8eff48ce357d6ca059f6aec8c68c488ac00000000"}, {"hash": "c6a87e1ca4282e7682414c8f405a11222ddac461d29c012ab41f83c37a995bd4", "ver": 1, "vin_sz": 1, "vout_sz": 2, "size": 258, "weight": 1032, "fee": 0, "relayed_by": "0.0.0.0", "lock_time": 0, "tx_index": 7471676226302051, "double_spend": false, "time": 1298492133, "block_index": 110002, "block_height": 110002, "inputs": [{"sequence": 4294967295, "witness": "", "script": "483045022100bc4e6337ba73e230dd08753b55d64223c585bd827a1e9abb626938087b52af3e02200ac81c9a7fc4ffad75d26795368c090fa001fdac1f7a30aad01bef38e62bf72b0141041c330500fe5c1e7fc96d9169bb79540782bf76bdb08d571577dd29469fc11decc3d5d09fde48e5fb61860d0cb557e6fec563dc0ed1c1ab195b0813156f9d3c48", "index": 0, "prev_out": {"spent": true, "script": "76a914e9976e9a075a37236fed31dcfea4893d6b1a95a188ac", "spending_outpoints": [{"tx_index": 7471676226302051, "n": 0}], "tx_index": 595226675772449, "value": 3234000000, "addr": "1NJ7rNyizVCEhfAfRGbZ9YE3267r8ooNum", "n": 1, "type": 0}}], "out": [{"type": 0, "spent": true, "value": 6000000, "spending_outpoints": [{"tx_index": 299048307074404, "n": 4}], "n": 0, "tx_index": 7471676226302051, "script": "76a914358f6fe4f57b165c4b0dffe2879a012f74ceccbe88ac", "addr": "15tCeMLHzmk3tEYapu1uS1PjHZtCNCAMwt"}, {"type": 0, "spent": true, "value": 3228000000, "spending_outpoints": [{"tx_index": 8746735510439007, "n": 0}], "n": 1, "tx_index": 7471676226302051, "script": "76a91458fbaf8d733102546f548883725e37e76ee3e78688ac", "addr": "197VyKCKHpWX2w65wpcQxUWQcHjyzHWm3h"}], "hex": "010000000110ead8148fe10bed8dcf4369103c645bd481970bc8c98eb698dce7882d8a013d010000008b483045022100bc4e6337ba73e230dd08753b55d64223c585bd827a1e9abb626938087b52af3e02200ac81c9a7fc4ffad75d26795368c090fa001fdac1f7a30aad01bef38e62bf72b0141041c330500fe5c1e7fc96d9169bb79540782bf76bdb08d571577dd29469fc11decc3d5d09fde48e5fb61860d0cb557e6fec563dc0ed1c1ab195b0813156f9d3c48ffffffff02808d5b00000000001976a914358f6fe4f57b165c4b0dffe2879a012f74ceccbe88ac005f67c0000000001976a91458fbaf8d733102546f548883725e37e76ee3e78688ac00000000"}]}