{"hash": "000000000000280cfd23ed286227c56e0cb90fff176394d768177137f31051fe", "ver": 1, "prev_block": "000000000001553ff938a76b3648611ba635dffe501a002384e51617d4206867", "mrkl_root": "7dee2aeeb68519791ef9ab24ddeff5aa1d9e90fac78ea93231c16e4eaf840d06", "time": 1298494000, "bits": 453102630, "next_block": ["000000000001071029794f956353c4f44cf831dc6931e815f3a7503292c8e50d"], "fee": 0, "nonce": 2872013551, "n_tx": 13, "size": 3212, "block_index": 110005, "main_chain": true, "height": 110005, "weight": 12848, "tx": [{"hash": "14bf09d99afb01d56a024c6c4428258e197e2518dbc1b0af65f28318a326df5c", "ver": 1, "vin_sz": 1, "vout_sz": 1, "size": 135, "weight": 540, "fee": 0, "relayed_by": "0.0.0.0", "lock_time": 0, "tx_index": 3267631861928062, "double_spend": false, "time": 1298494000, "block_index": 110005, "block_height": 110005, "inputs": [{"sequence": 4294967295, "witness": "", "script": "0426cc011b02ab00", "index": 0, "prev_out": null}], "out": [{"type": 0, "spent": true, "value": 5000000000, "spending_outpoints": [{"tx_index": 1203652862269651, "n": 0}], "n": 0, "tx_index": 3267631861928062, "script": "410408b321cbb1b286d53e6be28ee143165366100e4b9230394e8cee446f9109abfa4f8016fa1cfa40c04ee173ad37b7df1614d4646c553d028f84aa61a46a1bcdebac", "addr": "17gFPG2pqKEX9DtbCWhKAetWte4JgCWp8C"}], "hex": "01000000010000000000000000000000000000000000000000000000000000000000000000ffffffff080426cc011b02ab00ffffffff0100f2052a0100000043410408b321cbb1b286d53e6be28ee143165366100e4b9230394e8cee446f9109abfa4f8016fa1cfa40c04ee173ad37b7df1614d4646c553d028f84aa61a46a1bcdebac00000000"}, {"hash": "71361ddfec0c4001c137d2fd9cd5986b206b879e1d64fbb4abe285982dd3dbb7", "ver": 1, "vin_sz": 1, "vout_sz": 2, "size": 257, "weight": 1028, "fee": 0, "relayed_by": "0.0.0.0", "lock_time": 0, "tx_index": 6468952598450364, "double_spend": false, "time": 1298494000, "block_index": 110005, "block_height": 110005, "inputs": [{"sequence": 4294967295, "witness": "", "script": "473044022008531b05c02b6f060e7ba8d67fbad118751b572770c70f7492b3ccc7cc58c6fe0220649f7c51c85d8203d57000ebd4920bedb0a4b33c4a23c93594dc0e94a057f618014104743f05eee5cf394a97606204b07a5874e5818d0ff04f4cdae7205571ef7e622fa85f91ad167afa99f98d4ee9c790d904204de8c90e3c6e2835d05cfcf5b13777", "index": 0, "prev_out": {"spent": true, "script": "76a914a6a4afe0541f1f128634ae7fc5480c50c6118d4588ac", "spending_outpoints": [{"tx_index": 6468952598450364, "n": 0}], "tx_index": 4323721878949754, "value": 994000000, "addr": "1GC8TVuY2vugTrVVHQvF2Wm5QC748FYceV", "n": 1, "type": 0}}], "out": [{"type": 0, "spent": true, "value": 494000000, "spending_outpoints": [{"tx_index": 6078151270458796, "n": 4}], "n": 0, "tx_index": 6468952598450364, "script": "76a9146e3b046aa12f65e97fd356a8715f909cfb8c05a788ac", "addr": "1B3r2h8aAdMT91gxknvW7yJDgTZADYWckk"}, {"type": 0, "spent": true, "value": 500000000, "spending_outpoints": [{"tx_index": 622627686670837, "n": 4}], "n": 1, "tx_index": 6468952598450364, "script": "76a914ed279112c9bf184eb033f6bcac90a589fabf265888ac", "addr": "1NcxYc91jVEkog3Dv8ENmbHwfxuqTifWNw"}], "hex": "01000000017ae337959e7bd7d04756f6f81046d773776df7241b2484fd4b40e6e256eed06c010000008a473044022008531b05c02b6f060e7ba8d67fbad118751b572770c70f7492b3ccc7cc58c6fe0220649f7c51c85d8203d57000ebd4920bedb0a4b33c4a23c93594dc0e94a057f618014104743f05eee5cf394a97606204b07a5874e5818d0ff04f4cdae7205571ef7e622fa85f91ad167afa99f98d4ee9c790d904204de8c90e3c6e2835d05cfcf5b13777ffffffff0280d7711d000000001976a9146e3b046aa12f65e97fd356a8715f909cfb8c05a788ac0065cd1d000000001976a914ed279112c9bf184eb033f6bcac90a589fabf265888ac00000000"}, {"hash": "077f60bcd7f9d9dc8533f104bbb936e574d8417a917a487887b46390c3e760c3", "ver": 1, "vin_sz": 1, "vout_sz": 1, "size": 158, "weight": 632, "fee": 0, "relayed_by": "0.0.0.0", "lock_time": 0, "tx_index": 6874271124163702, "double_spend": false, "time": 1298494000, "block_index": 110005, "block_height": 110005, "inputs": [{"sequence": 4294967295, "witness": "", "script": "48304502207da1e170fe3b0dce0e3723d81d4cda98416440d048fd542576a0480746c2ffbc022100fae8e439ce40e51010bc214f28c58d12aee4fc65b161cd6c1cd57421f222b39201", "index": 0, "prev_out": {"spent": true, "script": "4104cfc1534b0a8207b810389d0f14063f2e8e991d2ab0f40220b3fabd784d0a61d28d415a11d204d20182bfa0ee24b53d0adbd5765e96b35bb08ccca318e8f4351cac", "spending_outpoints": [{"tx_index": 6874271124163702, "n": 0}], "tx_index": 1979400267836712, "value": 5000000000, "addr": "1LnmohtpJzGJGzYyCBDRjskVRg52zwzmJ", "n": 0, "type": 0}}], "out": [{"type": 0, "spent": true, "value": 5000000000, "spending_outpoints": [{"tx_index": 4014154775278262, "n": 0}], "n": 0, "tx_index": 6874271124163702, "script": "76a91410809d22c0e8bdc6b3d9f5d0217a89b8278bbad788ac", "addr": "12WFtKBsRLtV8p1NwRqe7YwYdi1rjwTZhA"}], "hex": "01000000013842084ea969457fcc194b64ca63d8d1ab4e3de10c94cdcf6412b9145f2f4a14000000004948304502207da1e170fe3b0dce0e3723d81d4cda98416440d048fd542576a0480746c2ffbc022100fae8e439ce40e51010bc214f28c58d12aee4fc65b161cd6c1cd57421f222b39201ffffffff0100f2052a010000001976a91410809d22c0e8bdc6b3d9f5d0217a89b8278bbad788ac00000000"}, {"hash": "e36cd80ebb8ac366771c4e1b5ea890a15e5fc06fb7d1ec39a317b476b00f195d", "ver": 1, "vin_sz": 1, "vout_sz": 2, "size": 259, "weight": 1036, "fee": 0, "relayed_by": "0.0.0.0", "lock_time": 0, "tx_index": 3275591001233026, "double_spend": false, "time": 1298494000, "block_index": 110005, "block_height": 110005, "inputs": [{"sequence": 4294967295, "witness": "", "script": "493046022100f2a7c3a8ea0c73b3e3b0007c3b434b405d4d151695620b9029c5b0446e0c63a1022100dbe07558dfaf68bda0257d6d17db3eb4306169ba67315cfc956a89f7ee43439a014104ad36e3b5350d6df5a9db532ee177eb5423014977d2ecc5e28ca1ae8e6fe8ac887a7840eae46e7b6f956f91ff1efba3643f6bdb90f15c0091015c6aeb32bd882d", "index": 0, "prev_out": {"spent": true, "script": "76a9148f09b571844fd3874de51f2529ad59b29de0af2388ac", "spending_outpoints": [{"tx_index": 3275591001233026, "n": 0}], "tx_index": 3840620817394660, "value": 19560000000, "addr": "1E3KG1VSpPp9pZjCaS92RUaMo9zbM4NVbb", "n": 1, "type": 0}}], "out": [{"type": 0, "spent": true, "value": 5000000, "spending_outpoints": [{"tx_index": 4627239724611514, "n": 13}], "n": 0, "tx_index": 3275591001233026, "script": "76a914726bc1d597654a203d32bd392b8c7f8ec4124a0988ac", "addr": "1BS17y8bwyFpSj9PYZ5FXeoC78QdfmiZuG"}, {"type": 0, "spent": true, "value": 19555000000, "spending_outpoints": [{"tx_index": 1900245820960089, "n": 0}], "n": 1, "tx_index": 3275591001233026, "script": "76a91411aa36ae848d35492167b273e0d26a098baafb6a88ac", "addr": "12cQPukFpYpjAgSRQ3xjc2eC91uAfobP9z"}], "hex": "01000000016d2831bc4d5f20f25d6c0782691a62dc3232db4784d78501333c1097fcd1d61e010000008c493046022100f2a7c3a8ea0c73b3e3b0007c3b434b405d4d151695620b9029c5b0446e0c63a1022100dbe07558dfaf68bda0257d6d17db3eb4306169ba67315cfc956a89f7ee43439a014104ad36e3b5350d6df5a9db532ee177eb5423014977d2ecc5e28ca1ae8e6fe8ac887a7840eae46e7b6f956f91ff1efba3643f6bdb90f15c0091015c6aeb32bd882dffffffff02404b4c00000000001976a914726bc1d597654a203d32bd392b8c7f8ec4124a0988acc09e918d040000001976a91411aa36ae848d35492167b273e0d26a098baafb6a88ac00000000"}, {"hash": "8e96237579de6fb07731c52d2a746f5bcf2b007a285e1d9cc09bff63fabba4de", "ver": 1, "vin_sz": 1, "vout_sz": 2, "size": 258, "weight": 1032, "fee": 0, "relayed_by": "0.0.0.0", "lock_time": 0, "tx_index": 7833571512057843, "double_spend": false, "time": 1298494000, "block_index": 110005, "block_height": 110005, "inputs": [{"sequence": 4294967295, "witness": "", "script": "4830450221009124f94221c05b7eceaead36e1c01b100c42cf61f5756671086ddcaff5d46882022066171375460ea6d06ccb59869dc53147d2e5b4e5166020dc0ea3e14478e2d927014104e05825eda6804bf883e000f00b9ce58cf5d02dce0296bc6c059cdcae8758cc37b69a3577ab09d5bc19cadc4cecc47645c06c7459b8607b10ce306aa90bb50fbf", "index": 0, "prev_out": {"spent": true, "script": "76a914dcf79ad28635c371306934866f5e47d84f6a424388ac", "spending_outpoints": [{"tx_index": 7833571512057843, "n": 0}], "tx_index": 2016840763278135, "value": 3218000000, "addr": "1M9NH5skiwUbu37NMyD1diPTY37i2SY15m", "n": 1, "type": 0}}], "out": [{"type": 0, "spent": true, "value": 3213000000, "spending_outpoints": [{"tx_index": 4782475204808550, "n": 0}], "n": 0, "tx_index": 7833571512057843, "script": "76a914d913cffbea9e2c60235c3efae44f7627196b47e888ac", "addr": "1LnoNDjR5GdRBPAkAEW4N74neyQxaJkmfQ"}, {"type": 0, "spent": true, "value": 5000000, "spending_outpoints": [{"tx_index": 668240656378353, "n": 250}], "n": 1, "tx_index": 7833571512057843, "script": "76a914e84b6f911944b94eeaeec0cc13f094ce98ab7d2188ac", "addr": "1NBG8sqSh632Fa81HRm39tsMEvmgpU9rgZ"}], "hex": "0100000001395272aa1c19bae4b2f1f2a52185f06b868474ca22207024753c34fb9b0f3163010000008b4830450221009124f94221c05b7eceaead36e1c01b100c42cf61f5756671086ddcaff5d46882022066171375460ea6d06ccb59869dc53147d2e5b4e5166020dc0ea3e14478e2d927014104e05825eda6804bf883e000f00b9ce58cf5d02dce0296bc6c059cdcae8758cc37b69a3577ab09d5bc19cadc4cecc47645c06c7459b8607b10ce306aa90bb50fbfffffffff02407d82bf000000001976a914d913cffbea9e2c60235c3efae44f7627196b47e888ac404b4c00000000001976a914e84b6f911944b94eeaeec0cc13f094ce98ab7d2188ac00000000"}, {"hash": "81c9c2013b47a9038ca40843378737f944ca77ca138112eb33ca6a27a91b0236", "ver": 1, "vin_sz": 1, "vout_sz": 2, "size": 257, "weight": 1028, "fee": 0, "relayed_by": "0.0.0.0", "lock_time": 0, "tx_index": 1900245820960089, "double_spend": false, "time": 1298494000, "block_index": 110005, "block_height": 110005, "inputs": [{"sequence": 4294967295, "witness": "", "script": "47304402206685e57cabb581d23cd70816e64c04aec3dddfb28b4aeff85fe9d937d8407db102204fe3a61a110cebfda46d2c81b0162b83c293909d0023a939070600bc63fe94d5014104d1f237732a5e7507eca204153ee3e402012a3e1616a7f956e352de90f055782aaeb7c1df02445560f17a9a1b601f95334a5d32d474362020a6e9f4df96787bd2", "index": 0, "prev_out": {"spent": true, "script": "76a91411aa36ae848d35492167b273e0d26a098baafb6a88ac", "spending_outpoints": [{"tx_index": 1900245820960089, "n": 0}], "tx_index": 3275591001233026, "value": 19555000000, "addr": "12cQPukFpYpjAgSRQ3xjc2eC91uAfobP9z", "n": 1, "type": 0}}], "out": [{"type": 0, "spent": true, "value": 19550000000, "spending_outpoints": [{"tx_index": 2530472452100960, "n": 0}], "n": 0, "tx_index": 1900245820960089, "script": "76a914474b22ecb040d55dfd2d798296743c5eb577d59988ac", "addr": "17VxzC2vgrojYNnqwiGxCsojUdF8sSHxHc"}, {"type": 0, "spent": false, "value": 5000000, "spending_outpoints": [], "n": 1, "tx_index": 1900245820960089, "script": "76a9142e06dbf3e52c66d83a5d0e6b78662f34babd150188ac", "addr": "15CNJQjCZk5dViCYibaCyJ8zPqwtNZPVi2"}], "hex": "01000000015d190fb076b417a339ecd1b76fc05f5ea190a85e1b4e1c7766c38abb0ed86ce3010000008a47304402206685e57cabb581d23cd70816e64c04aec3dddfb28b4aeff85fe9d937d8407db102204fe3a61a110cebfda46d2c81b0162b83c293909d0023a939070600bc63fe94d5014104d1f237732a5e7507eca204153ee3e402012a3e1616a7f956e352de90f055782aaeb7c1df02445560f17a9a1b601f95334a5d32d474362020a6e9f4df96787bd2ffffffff028053458d040000001976a914474b22ecb040d55dfd2d798296743c5eb577d59988ac404b4c00000000001976a9142e06dbf3e52c66d83a5d0e6b78662f34babd150188ac00000000"}, {"hash": "ee95c81b537112be90d4f4502f83847aea16986493b1d2d828307bd63d16ed87", "ver": 1, "vin_sz": 1, "vout_sz": 2, "size": 257, "weight": 1028, "fee": 0, "relayed_by": "0.0.0.0", "lock_time": 0, "tx_index": 4782475204808550, "double_spend": false, "time": 1298494000, "block_index": 110005, "block_height": 110005, "inputs": [{"sequence": 4294967295, "witness": "", "script": "47304402206f08c894bb75ea2187940c23f66fe92df19dea182342d0ba23390fd4052c513f0220723ad07adfdb8bf1a616847b50cd6aadc9026e38fe27c3faa8237431fb98f701014104716f84e165f666f83704ab96ee70281f4ad95de388de441623c37993e199571c4194f1a2e03866939955bfb2a44b28e198930ef7787277aacb41311cc6ab2371", "index": 0, "prev_out": {"spent": true, "script": "76a914d913cffbea9e2c60235c3efae44f7627196b47e888ac", "spending_outpoints": [{"tx_index": 4782475204808550, "n": 0}], "tx_index": 7833571512057843, "value": 3213000000, "addr": "1LnoNDjR5GdRBPAkAEW4N74neyQxaJkmfQ", "n": 0, "type": 0}}], "out": [{"type": 0, "spent": true, "value": 3000000, "spending_outpoints": [{"tx_index": 3982312534350556, "n": 6}], "n": 0, "tx_index": 4782475204808550, "script": "76a9142bba8688d867e67bf28fd97258e43068497cfca788ac", "addr": "14zDWGdNAzBsfs5aXJV52tHeuocntv6Yd2"}, {"type": 0, "spent": true, "value": 3210000000, "spending_outpoints": [{"tx_index": 1406340812632344, "n": 0}], "n": 1, "tx_index": 4782475204808550, "script": "76a9142e5248e703b5850962f929f156290a197fa01eda88ac", "addr": "15Dvf56VDYqi1hfikerzNqnAYzNeGirzwj"}], "hex": "0100000001dea4bbfa63ff9bc09c1d5e287a002bcf5b6f742a2dc53177b06fde797523968e000000008a47304402206f08c894bb75ea2187940c23f66fe92df19dea182342d0ba23390fd4052c513f0220723ad07adfdb8bf1a616847b50cd6aadc9026e38fe27c3faa8237431fb98f701014104716f84e165f666f83704ab96ee70281f4ad95de388de441623c37993e199571c4194f1a2e03866939955bfb2a44b28e198930ef7787277aacb41311cc6ab2371ffffffff02c0c62d00000000001976a9142bba8688d867e67bf28fd97258e43068497cfca788ac80b654bf000000001976a9142e5248e703b5850962f929f156290a197fa01eda88ac00000000"}, {"hash": "e0b6fb8214baee78ed358411601deee9634df024071b464756029bf83c9ceb47", "ver": 1, "vin_sz": 1, "vout_sz": 2, "size": 258, "weight": 1032, "fee": 0, "relayed_by": "0.0.0.0", "lock_time": 0, "tx_index": 2530472452100960, "double_spend": false, "time": 1298494000, "block_index": 110005, "block_height": 110005, "inputs": [{"sequence": 4294967295, "witness": "", "script": "48304502204f1678edb170b1c7fe8ddf8ba3695afb83c725120ef7aaac7717c45e786fcb91022100ef04158484a7c1064105e9255d684749e6a556a618ac3ffb4acc00a0c193468c0141049191dbc75a9a532da1eb4a732f660e60d00a19f2d39a5049ab90b2ea814ad7317c1dc40e2688eaf53e4d363497d5ae99cc6e64f27af47281822f7ec736a82ae3", "index": 0, "prev_out": {"spent": true, "script": "76a914474b22ecb040d55dfd2d798296743c5eb577d59988ac", "spending_outpoints": [{"tx_index": 2530472452100960, "n": 0}], "tx_index": 1900245820960089, "value": 19550000000, "addr": "17VxzC2vgrojYNnqwiGxCsojUdF8sSHxHc", "n": 0, "type": 0}}], "out": [{"type": 0, "spent": true, "value": 19545000000, "spending_outpoints": [{"tx_index": 1380367915459842, "n": 0}], "n": 0, "tx_index": 2530472452100960, "script": "76a9144707f943042c962b28c0439fd4d5613cfd2e92cb88ac", "addr": "17UaXeAv1AaBFZme2hQuW8TLD4QjXC7ipq"}, {"type": 0, "spent": true, "value": 5000000, "spending_outpoints": [{"tx_index": 713599093572055, "n": 15}], "n": 1, "tx_index": 2530472452100960, "script": "76a914fe1dcc95825242678b309b1acc715d0db4791a5c88ac", "addr": "1QAeLCz2M9bKNaW4jGssyGSRXi9di3i7S8"}], "hex": "010000000136021ba9276aca33eb128113ca77ca44f93787374308a48c03a9473b01c2c981000000008b48304502204f1678edb170b1c7fe8ddf8ba3695afb83c725120ef7aaac7717c45e786fcb91022100ef04158484a7c1064105e9255d684749e6a556a618ac3ffb4acc00a0c193468c0141049191dbc75a9a532da1eb4a732f660e60d00a19f2d39a5049ab90b2ea814ad7317c1dc40e2688eaf53e4d363497d5ae99cc6e64f27af47281822f7ec736a82ae3ffffffff024008f98c040000001976a9144707f943042c962b28c0439fd4d5613cfd2e92cb88ac404b4c00000000001976a914fe1dcc95825242678b309b1acc715d0db4791a5c88ac00000000"}, {"hash": "d2510b17fc2e66ca37daaea3ec31f8d97012e9ac8355dd1c9bc1888fe479f827", "ver": 1, "vin_sz": 1, "vout_sz": 2, "size": 259, "weight": 1036, "fee": 0, "relayed_by": "0.0.0.0", "lock_time": 0, "tx_index": 1406340812632344, "double_spend": false, "time": 1298494000, "block_index": 110005, "block_height": 110005, "inputs": [{"sequence": 4294967295, "witness": "", "script": "493046022100a6c80d81ed21a6ba1f6b0e2776ee58abaa062a7bd29e4f7e0d18b8a8107dda13022100ff8427d1725f6e041390442f908531f1a04680d9bda91c195635af5549706b46014104a022acdc09c330a567c81c87c30cad33255a2919be22ca32d1ec583f7e2bdf1411b1b50bb4c7e8067da73d7dafc2e873c9c9a35535f49b906b71309a19a87982", "index": 0, "prev_out": {"spent": true, "script": "76a9142e5248e703b5850962f929f156290a197fa01eda88ac", "spending_outpoints": [{"tx_index": 1406340812632344, "n": 0}], "tx_index": 4782475204808550, "value": 3210000000, "addr": "15Dvf56VDYqi1hfikerzNqnAYzNeGirzwj", "n": 1, "type": 0}}], "out": [{"type": 0, "spent": true, "value": 3208000000, "spending_outpoints": [{"tx_index": 7540909546297544, "n": 0}], "n": 0, "tx_index": 1406340812632344, "script": "76a914e810a3b1645afdf2a9f422d36e64471940ac510c88ac", "addr": "1NA3hdfm9BSYLM686ibXMWrAi7saDLJxGR"}, {"type": 0, "spent": true, "value": 2000000, "spending_outpoints": [{"tx_index": 6610073226463094, "n": 45}], "n": 1, "tx_index": 1406340812632344, "script": "76a914e25707e6992eb84c8db9edcc61d6877acb14d62688ac", "addr": "1MdmyN7WtQqoz6DNADDJq7wpdRYWure2Yz"}], "hex": "010000000187ed163dd67b3028d8d2b193649816ea7a84832f50f4d490be1271531bc895ee010000008c493046022100a6c80d81ed21a6ba1f6b0e2776ee58abaa062a7bd29e4f7e0d18b8a8107dda13022100ff8427d1725f6e041390442f908531f1a04680d9bda91c195635af5549706b46014104a022acdc09c330a567c81c87c30cad33255a2919be22ca32d1ec583f7e2bdf1411b1b50bb4c7e8067da73d7dafc2e873c9c9a35535f49b906b71309a19a87982ffffffff02003236bf000000001976a914e810a3b1645afdf2a9f422d36e64471940ac510c88ac80841e00000000001976a914e25707e6992eb84c8db9edcc61d6877acb14d62688ac00000000"}, {"hash": "0685abf7f5d964db92f38bb786c1fece9dd4c54097fa50161a1528159a7f3b27", "ver": 1, "vin_sz": 1, "vout_sz": 2, "size": 259, "weight": 1036, "fee": 0, "relayed_by": "0.0.0.0", "lock_time": 0, "tx_index": 1380367915459842, "double_spend": false, "time": 1298494000, "block_index": 110005, "block_height": 110005, "inputs": [{"sequence": 4294967295, "witness": "", "script": "493046022100b9e6a3e08a6c4211563b200f1c1b188ae42dbf064751c4cb8bf9660bf0fd8b72022100855eee485a85573b3106a485528fda0df2b00cc5ffe34c83fc5f3a1224d9c7fc014104582ad490f367356c10423fce2e560484a1456e20b7722b9dea5b0ab2e9ce6cebf0cda15c5265238064453b8a31ddefe3e641eb9a64e72663102b84fbd9e82925", "index": 0, "prev_out": {"spent": true, "script": "76a9144707f943042c962b28c0439fd4d5613cfd2e92cb88ac", "spending_outpoints": [{"tx_index": 1380367915459842, "n": 0}], "tx_index": 2530472452100960, "value": 19545000000, "addr": "17UaXeAv1AaBFZme2hQuW8TLD4QjXC7ipq", "n": 0, "type": 0}}], "out": [{"type": 0, "spent": true, "value": 19540000000, "spending_outpoints": [{"tx_index": 5464697212052646, "n": 0}], "n": 0, "tx_index": 1380367915459842, "script": "76a9143ce0c11c21211ed00b63362a639e5359445eb41c88ac", "addr": "16YtniTfmdyLrTFyzAKJa1wbQzRjS8tnJb"}, {"type": 0, "spent": true, "value": 5000000, "spending_outpoints": [{"tx_index": 502907270909547, "n": 10}], "n": 1, "tx_index": 1380367915459842, "script": "76a9145ba95e30eb5df03d55e84428f55e8154e883178388ac", "addr": "19MfPM843paKqpo9R3sAoFL2BF4kQLYYVp"}], "hex": "010000000147eb9c3cf89b025647461b0724f04d63e9ee1d60118435ed78eeba1482fbb6e0000000008c493046022100b9e6a3e08a6c4211563b200f1c1b188ae42dbf064751c4cb8bf9660bf0fd8b72022100855eee485a85573b3106a485528fda0df2b00cc5ffe34c83fc5f3a1224d9c7fc014104582ad490f367356c10423fce2e560484a1456e20b7722b9dea5b0ab2e9ce6cebf0cda15c5265238064453b8a31ddefe3e641eb9a64e72663102b84fbd9e82925ffffffff0200bdac8c040000001976a9143ce0c11c21211ed00b63362a639e5359445eb41c88ac404b4c00000000001976a9145ba95e30eb5df03d55e84428f55e8154e883178388ac00000000"}, {"hash": "8a93c7d272383d1b2c97c8bcb5a507f3de99e3b3190516895041c652965653d6", "ver": 1, "vin_sz": 1, "vout_sz": 2, "size": 259, "weight": 1036, "fee": 0, "relayed_by": "0.0.0.0", "lock_time": 0, "tx_index": 7540909546297544, "double_spend": false, "time": 1298494000, "block_index": 110005, "block_height": 110005, "inputs": [{"sequence": 4294967295, "witness": "", "script": "4930460221009f51ca9f314c3044902c740c2c7a548485d514540351874f8470395a2d45836602210093a75fd1a55a3800b74d26597735faa9d37ad1a419e137dc1739551efb390ca9014104f6533eb9cfac01fb59bc416e04de23f67a4da6d2f45a1cd4fd0283774dcacfde28d090dad3b760d98ba5471e0330110ec66558cc7e58c68e8dff7d74b6d9922e", "index": 0, "prev_out": {"spent": true, "script": "76a914e810a3b1645afdf2a9f422d36e64471940ac510c88ac", "spending_outpoints": [{"tx_index": 7540909546297544, "n": 0}], "tx_index": 1406340812632344, "value": 3208000000, "addr": "1NA3hdfm9BSYLM686ibXMWrAi7saDLJxGR", "n": 0, "type": 0}}], "out": [{"type": 0, "spent": true, "value": 2000000, "spending_outpoints": [{"tx_index": 1517248251836887, "n": 85}], "n": 0, "tx_index": 7540909546297544, "script": "76a9143f1f6f3830ecd09964f0348acee86ddcc86c400688ac", "addr": "16kmEByiQGHCT4dKoe24woLwEGMG1qQtMs"}, {"type": 0, "spent": true, "value": 3206000000, "spending_outpoints": [{"tx_index": 3055987409717046, "n": 0}], "n": 1, "tx_index": 7540909546297544, "script": "76a91463a83bc72f32a2ff8f0d6fc760192e03c3aa031388ac", "addr": "1A5wS4VmM9KhU9hFwCu8jiJjvB2pCe8365"}], "hex": "010000000127f879e48f88c19b1cdd5583ace91270d9f831eca3aeda37ca662efc170b51d2000000008c4930460221009f51ca9f314c3044902c740c2c7a548485d514540351874f8470395a2d45836602210093a75fd1a55a3800b74d26597735faa9d37ad1a419e137dc1739551efb390ca9014104f6533eb9cfac01fb59bc416e04de23f67a4da6d2f45a1cd4fd0283774dcacfde28d090dad3b760d98ba5471e0330110ec66558cc7e58c68e8dff7d74b6d9922effffffff0280841e00000000001976a9143f1f6f3830ecd09964f0348acee86ddcc86c400688ac80ad17bf000000001976a91463a83bc72f32a2ff8f0d6fc760192e03c3aa031388ac00000000"}, {"hash": "b8d3e5964e9a50c9c56da10b52e68bb9b432422ebaf497b939372509c1e7509b", "ver": 1, "vin_sz": 1, "vout_sz": 2, "size": 257, "weight": 1028, "fee": 0, "relayed_by": "0.0.0.0", "lock_time": 0, "tx_index": 5464697212052646, "double_spend": false, "time": 1298494000, "block_index": 110005, "block_height": 110005, "inputs": [{"sequence": 4294967295, "witness": "", "script": "473044022051709b4d353060cf6203a5220fd602aa9bfe531f0864e113236678477d1cb324022059f0395679670122aa6090dbd3c0ef4ce7df73d21a08af03d0fc6f38e0251e66014104bd2b1c81572cb0a1762dce2348d242ffa8605e4fe95e8a18fe24920d12a6ffd1ea326cfa2cac5bbcbfdac89197b86d567f52927301a1b3bc3b72312c21a6b534", "index": 0, "prev_out": {"spent": true, "script": "76a9143ce0c11c21211ed00b63362a639e5359445eb41c88ac", "spending_outpoints": [{"tx_index": 5464697212052646, "n": 0}], "tx_index": 1380367915459842, "value": 19540000000, "addr": "16YtniTfmdyLrTFyzAKJa1wbQzRjS8tnJb", "n": 0, "type": 0}}], "out": [{"type": 0, "spent": true, "value": 19535000000, "spending_outpoints": [{"tx_index": 5094707144126637, "n": 0}], "n": 0, "tx_index": 5464697212052646, "script": "76a914a3e2b08654e90a9901c4226362835eaf0266cc1888ac", "addr": "1FwYhwCL3DjP1yk5VbpspSSDLRBbXouhHf"}, {"type": 0, "spent": true, "value": 5000000, "spending_outpoints": [{"tx_index": 7592704573801873, "n": 8}], "n": 1, "tx_index": 5464697212052646, "script": "76a9140ad0c3c7673f3283dc79702724721a2eaf7019f788ac", "addr": "1zBr9bcYkqKzU97SvcryXygLneNfSKxYG"}], "hex": "0100000001273b7f9a1528151a1650fa9740c5d49dcefec186b78bf392db64d9f5f7ab8506000000008a473044022051709b4d353060cf6203a5220fd602aa9bfe531f0864e113236678477d1cb324022059f0395679670122aa6090dbd3c0ef4ce7df73d21a08af03d0fc6f38e0251e66014104bd2b1c81572cb0a1762dce2348d242ffa8605e4fe95e8a18fe24920d12a6ffd1ea326cfa2cac5bbcbfdac89197b86d567f52927301a1b3bc3b72312c21a6b534ffffffff02c071608c040000001976a914a3e2b08654e90a9901c4226362835eaf0266cc1888ac404b4c00000000001976a9140ad0c3c7673f3283dc79702724721a2eaf7019f788ac00000000"}, {"hash": "dab5d150bdcf0f58b04e4ef4af7178edbd71609c4438ebed2db339f41f3cdb56", "ver": 1, "vin_sz": 1, "vout_sz": 2, "size": 258, "weight": 1032, "fee": 0, "relayed_by": "0.0.0.0", "lock_time": 0, "tx_index": 3055987409717046, "double_spend": false, "time": 1298494000, "block_index": 110005, "block_height": 110005, "inputs": [{"sequence": 4294967295, "witness": "", "script": "48304502210086a899a09d2a8ce6df56265f1dbacfddd3a24d88d80ce1bd3e05def3d4410b120220108453c6b802e2f103dcdad0e1235c7bd422f1c0191dc9ffa124743794e71e0901410474d7b924e443b9a063c623d5e01bc086057272d13ad829e1eb52cf30f6cbe245f307acf073fe1fb9038369b9902dfbced5e20fb778c20259faafc8fe8f7e17f4", "index": 0, "prev_out": {"spent": true, "script": "76a91463a83bc72f32a2ff8f0d6fc760192e03c3aa031388ac", "spending_outpoints": [{"tx_index": 3055987409717046, "n": 0}], "tx_index": 7540909546297544, "value": 3206000000, "addr": "1A5wS4VmM9KhU9hFwCu8jiJjvB2pCe8365", "n": 1, "type": 0}}], "out": [{"type": 0, "spent": false, "value": 1000000, "spending_outpoints": [], "n": 0, "tx_index": 3055987409717046, "script": "76a914062ef898554e3c4933564cdd0dbb0d3d138ef45488ac", "addr": "1ZhKkzRLLfpNGNHf8qDDH7uRZtaMue7tR"}, {"type": 0, "spent": true, "value": 3205000000, "spending_outpoints": [{"tx_index": 5742195990607216, "n": 0}], "n": 1, "tx_index": 3055987409717046, "script": "76a914e4e4a763465b47fdde90dabbeb4534568bb7fcb688ac", "addr": "1MsGytPLJXUJ5FpR9eXywEfGpa6qoiQapR"}], "hex": "0100000001d653569652c6415089160519b3e399def307a5b5bcc8972c1b3d3872d2c7938a010000008b48304502210086a899a09d2a8ce6df56265f1dbacfddd3a24d88d80ce1bd3e05def3d4410b120220108453c6b802e2f103dcdad0e1235c7bd422f1c0191dc9ffa124743794e71e0901410474d7b924e443b9a063c623d5e01bc086057272d13ad829e1eb52cf30f6cbe245f307acf073fe1fb9038369b9902dfbced5e20fb778c20259faafc8fe8f7e17f4ffffffff0240420f00000000001976a914062ef898554e3c4933564cdd0dbb0d3d138ef45488ac406b08bf000000001976a914e4e4a763465b47fdde90dabbeb4534568bb7fcb688ac00000000"}]}