{"hash": "00000000000031ebfd5a84d81b6c46af0c1ad8b416bb1046e099813f358df282", "ver": 1, "prev_block": "0000000000007868de6236d3105ac6ba7b82631d92f8cfa740ec0c9e3ff8aaaf", "mrkl_root": "3709fbc8ee7a26a655787006351b04125218701d66ef6b70a3b0015f7bd1d20f", "time": 1298499741, "bits": 453102630, "next_block": ["0000000000000535e87e5a8cfc6607a95bb62435e073640939516091551623e1"], "fee": 0, "nonce": 1612447561, "n_tx": 11, "size": 2696, "block_index": 110020, "main_chain": true, "height": 110020, "weight": 10784, "tx": [{"hash": "781e4470ebcf0c8bfc38622c0ebdf3451a66f27c7c6dc941ed5453a25c626a74", "ver": 1, "vin_sz": 1, "vout_sz": 1, "size": 134, "weight": 536, "fee": 0, "relayed_by": "0.0.0.0", "lock_time": 0, "tx_index": 4096008498989674, "double_spend": false, "time": 1298499741, "block_index": 110020, "block_height": 110020, "inputs": [{"sequence": 4294967295, "witness": "", "script": "0426cc011b0112", "index": 0, "prev_out": null}], "out": [{"type": 0, "spent": true, "value": 5000000000, "spending_outpoints": [{"tx_index": 5306142881330803, "n": 0}], "n": 0, "tx_index": 4096008498989674, "script": "4104592225a8fc64f726422bda90db9033d41de5b5fe24b06260e9201d3dc60bd7f7daa9609946f09a9c240ac233a52c54f50778b459bfc966b430ba6207b11b1fcaac", "addr": "1DKU3Bbfji8aoAmhu24LYBmnsBoQn5FMZ1"}], "hex": "01000000010000000000000000000000000000000000000000000000000000000000000000ffffffff070426cc011b0112ffffffff0100f2052a01000000434104592225a8fc64f726422bda90db9033d41de5b5fe24b06260e9201d3dc60bd7f7daa9609946f09a9c240ac233a52c54f50778b459bfc966b430ba6207b11b1fcaac00000000"}, {"hash": "d5628bfa91a5832f5e9dc0aaf2a4ef14e5e36cb29db2b4775348d4e72b47712a", "ver": 1, "vin_sz": 1, "vout_sz": 2, "size": 258, "weight": 1032, "fee": 0, "relayed_by": "0.0.0.0", "lock_time": 0, "tx_index": 1493312439384713, "double_spend": false, "time": 1298499741, "block_index": 110020, "block_height": 110020, "inputs": [{"sequence": 4294967295, "witness": "", "script": "483045022030e3389a4ae244ebd8d6c7dd23a026e8f7531b31b96b578b44c23adb2eb47f29022100b43849812e65214d969d6631b00f883e057830eb7a8d68d2bd288af21d8fda13014104629f8e855c3e4bb2735fa8978db9738014cf95414164da9b0f1f35da7e615637271fb4921b3c8da56b8132d3d28b2957d20c3ce726a1663bc07eaeda1c59a767", "index": 0, "prev_out": {"spent": true, "script": "76a91407219e238d6a70d2ef812d6efb09663341dcb20e88ac", "spending_outpoints": [{"tx_index": 1493312439384713, "n": 0}], "tx_index": 1966943909150062, "value": 690000000, "addr": "1ei19LDEHSJiu888kJ8BA2VtBvcCpEykA", "n": 1, "type": 0}}], "out": [{"type": 0, "spent": true, "value": 50000000, "spending_outpoints": [{"tx_index": 1717582427373008, "n": 3}], "n": 0, "tx_index": 1493312439384713, "script": "76a914fc06280d286b0b49b96a7a33e6502c0b6394595588ac", "addr": "1Pyaf6jvBFWqtqwbuohggoW9GBoyhETZF4"}, {"type": 0, "spent": true, "value": 640000000, "spending_outpoints": [{"tx_index": 3512171576215758, "n": 0}], "n": 1, "tx_index": 1493312439384713, "script": "76a9147773d0d8790dfa65ad0e0dfbe2edace96d6084fb88ac", "addr": "1Btc9rMQeS55vTWrNwdLQssJhdfjToe7B4"}], "hex": "010000000137e76687fbeb73ece9a41476b3a4da4d8c3fde9a1e13746c43b03a9fb6d9e1c3010000008b483045022030e3389a4ae244ebd8d6c7dd23a026e8f7531b31b96b578b44c23adb2eb47f29022100b43849812e65214d969d6631b00f883e057830eb7a8d68d2bd288af21d8fda13014104629f8e855c3e4bb2735fa8978db9738014cf95414164da9b0f1f35da7e615637271fb4921b3c8da56b8132d3d28b2957d20c3ce726a1663bc07eaeda1c59a767ffffffff0280f0fa02000000001976a914fc06280d286b0b49b96a7a33e6502c0b6394595588ac00a02526000000001976a9147773d0d8790dfa65ad0e0dfbe2edace96d6084fb88ac00000000"}, {"hash": "1e1f3708d5e370f6815f61e2fdb6b68670c4b0e2f3aa74d495f2e9286aafa97a", "ver": 1, "vin_sz": 1, "vout_sz": 1, "size": 159, "weight": 636, "fee": 0, "relayed_by": "0.0.0.0", "lock_time": 0, "tx_index": 4315814753017150, "double_spend": false, "time": 1298499741, "block_index": 110020, "block_height": 110020, "inputs": [{"sequence": 4294967295, "witness": "", "script": "493046022100a5de1a70ea798e4e63a5258e754f83daf315bca98734ca6ff7ed7ccc4574705c022100d526b8434383753167e4cc510a3944f54ef2cbab84e02e65f78a991cdea7c10b01", "index": 0, "prev_out": {"spent": true, "script": "4104cace979b7d062d0d7a3f3b4dbfb3c72eeadcb60fe994363d91216501000e2d367d8db0e5ee3736854fac701b20c262707528bc82f748c4e43ddfc89b6603a013ac", "spending_outpoints": [{"tx_index": 4315814753017150, "n": 0}], "tx_index": 3396142288064327, "value": 5000000000, "addr": "17JMcSVGv4oe8M4Cd4DN7GihiZQbevhjU2", "n": 0, "type": 0}}], "out": [{"type": 0, "spent": true, "value": 5000000000, "spending_outpoints": [{"tx_index": 7455112574126950, "n": 0}], "n": 0, "tx_index": 4315814753017150, "script": "76a91410809d22c0e8bdc6b3d9f5d0217a89b8278bbad788ac", "addr": "12WFtKBsRLtV8p1NwRqe7YwYdi1rjwTZhA"}], "hex": "010000000160862ff57e7a3c4481e350593ed681e4db3343c0e818ed98adcc3ac44398380d000000004a493046022100a5de1a70ea798e4e63a5258e754f83daf315bca98734ca6ff7ed7ccc4574705c022100d526b8434383753167e4cc510a3944f54ef2cbab84e02e65f78a991cdea7c10b01ffffffff0100f2052a010000001976a91410809d22c0e8bdc6b3d9f5d0217a89b8278bbad788ac00000000"}, {"hash": "aec3c06d7ff1ea60e2b862d78aee231b12ef787cce4808d022758cfef9924764", "ver": 1, "vin_sz": 1, "vout_sz": 2, "size": 257, "weight": 1028, "fee": 0, "relayed_by": "0.0.0.0", "lock_time": 0, "tx_index": 3528274282008974, "double_spend": false, "time": 1298499741, "block_index": 110020, "block_height": 110020, "inputs": [{"sequence": 4294967295, "witness": "", "script": "47304402207354953929154cd567da9cc66e0ef108d8fa4393a95e8b89869ac62481f64bf402205df7ae4c43369f7592c9eb9c0d89b397e43a74bf7f409b8fd5cf3dd9a33b4c9e014104ca482dec06d01e461c55f50b51eb700e6a63bf71b5c5f0986129367ba2102dd8f8cf4ab14ee99c912523c28b354d9e74916457dbf3a47ee4e9e82b62ff590584", "index": 0, "prev_out": {"spent": true, "script": "76a914b53fc235b852e5fb70553e3c202eea560ec2851688ac", "spending_outpoints": [{"tx_index": 3528274282008974, "n": 0}], "tx_index": 6290263121380086, "value": 19355000000, "addr": "1HXMgkRkBKwXJggJBz1WHLtKtbsKLefiQd", "n": 1, "type": 0}}], "out": [{"type": 0, "spent": true, "value": 5000000, "spending_outpoints": [{"tx_index": 4207740677848212, "n": 13}], "n": 0, "tx_index": 3528274282008974, "script": "76a914bc392c9712428167fbdb09bea7a39ad3e24d01d488ac", "addr": "1JAEXbZGikftuk9AFwPqk6EXcYee1kVGXG"}, {"type": 0, "spent": true, "value": 19350000000, "spending_outpoints": [{"tx_index": 8893357478611575, "n": 0}], "n": 1, "tx_index": 3528274282008974, "script": "76a9145d95a66344efb53e4ee1fb5bb037546b9d9fddca88ac", "addr": "19Xq7hfpt4UdmihVeRwGU14zLDijTBitdk"}], "hex": "0100000001b2c7b0172617b6d4e1ebe9a3e73f5a456f30221bcf6f815ecbc05ea7c7c3e19c010000008a47304402207354953929154cd567da9cc66e0ef108d8fa4393a95e8b89869ac62481f64bf402205df7ae4c43369f7592c9eb9c0d89b397e43a74bf7f409b8fd5cf3dd9a33b4c9e014104ca482dec06d01e461c55f50b51eb700e6a63bf71b5c5f0986129367ba2102dd8f8cf4ab14ee99c912523c28b354d9e74916457dbf3a47ee4e9e82b62ff590584ffffffff02404b4c00000000001976a914bc392c9712428167fbdb09bea7a39ad3e24d01d488ac80915981040000001976a9145d95a66344efb53e4ee1fb5bb037546b9d9fddca88ac00000000"}, {"hash": "8beb90d69ec2626a3c091ccc6176492879a58208752b47cb65be53fc2ab1c3fc", "ver": 1, "vin_sz": 1, "vout_sz": 2, "size": 259, "weight": 1036, "fee": 0, "relayed_by": "0.0.0.0", "lock_time": 0, "tx_index": 8893357478611575, "double_spend": false, "time": 1298499741, "block_index": 110020, "block_height": 110020, "inputs": [{"sequence": 4294967295, "witness": "", "script": "493046022100c481303526b70042ce82fa0b119bd87c8ad07d0e23a212036e66a5693549d93e022100dad6546cbb3ba9a59d6bb1418b4a719d847d4df2d0615ccd0cb88fb010dc108d01410458f8eb3ac1c6b66af0e9f0b6c68e383b28438deb10966a278ac09c4d16b8700c39402be0969ee30c8758795730d6d79d8d43363feb876082f74161e529aa8cc6", "index": 0, "prev_out": {"spent": true, "script": "76a9145d95a66344efb53e4ee1fb5bb037546b9d9fddca88ac", "spending_outpoints": [{"tx_index": 8893357478611575, "n": 0}], "tx_index": 3528274282008974, "value": 19350000000, "addr": "19Xq7hfpt4UdmihVeRwGU14zLDijTBitdk", "n": 1, "type": 0}}], "out": [{"type": 0, "spent": true, "value": 19345000000, "spending_outpoints": [{"tx_index": 1954664366305979, "n": 0}], "n": 0, "tx_index": 8893357478611575, "script": "76a914357505288095ea73fc76135c1101cfd934d8f36788ac", "addr": "15sezsS5a8KoQdr1xthoXkvJ3w49mhMTDV"}, {"type": 0, "spent": true, "value": 5000000, "spending_outpoints": [{"tx_index": 5667329546403519, "n": 7}], "n": 1, "tx_index": 8893357478611575, "script": "76a91430ce5b00213e70be928f264555e69897ca6cfd6388ac", "addr": "15T4e3AZg2NUP9pWHHUxf65MFG5LNi5FXV"}], "hex": "0100000001644792f9fe8c7522d00848ce7c78ef121b23ee8ad762b8e260eaf17f6dc0c3ae010000008c493046022100c481303526b70042ce82fa0b119bd87c8ad07d0e23a212036e66a5693549d93e022100dad6546cbb3ba9a59d6bb1418b4a719d847d4df2d0615ccd0cb88fb010dc108d01410458f8eb3ac1c6b66af0e9f0b6c68e383b28438deb10966a278ac09c4d16b8700c39402be0969ee30c8758795730d6d79d8d43363feb876082f74161e529aa8cc6ffffffff0240460d81040000001976a914357505288095ea73fc76135c1101cfd934d8f36788ac404b4c00000000001976a91430ce5b00213e70be928f264555e69897ca6cfd6388ac00000000"}, {"hash": "3d030a9ec2bc0f4fb59b3e235a75e422d43c3c44b79cc54ed7d895ab190e8e37", "ver": 1, "vin_sz": 1, "vout_sz": 2, "size": 258, "weight": 1032, "fee": 0, "relayed_by": "0.0.0.0", "lock_time": 0, "tx_index": 1954664366305979, "double_spend": false, "time": 1298499741, "block_index": 110020, "block_height": 110020, "inputs": [{"sequence": 4294967295, "witness": "", "script": "483045022047307b2f6d2c222815fddf9a63c5ae9e64757ae4d7cd65fb85ed3a72329a8260022100f4355823cce5aaad84af9d917be78b648ceacb8e736e8e7446ced8c19fdd43d1014104200097f5b97f3f4484aa4841b104bec38a405625299bc08f6c512524e9271da9fa6312430fb0723d64dbd1cefa6621a622c11c4f016764f1b0b3421ed2b81dbd", "index": 0, "prev_out": {"spent": true, "script": "76a914357505288095ea73fc76135c1101cfd934d8f36788ac", "spending_outpoints": [{"tx_index": 1954664366305979, "n": 0}], "tx_index": 8893357478611575, "value": 19345000000, "addr": "15sezsS5a8KoQdr1xthoXkvJ3w49mhMTDV", "n": 0, "type": 0}}], "out": [{"type": 0, "spent": true, "value": 5000000, "spending_outpoints": [{"tx_index": 4987692770827213, "n": 3}], "n": 0, "tx_index": 1954664366305979, "script": "76a91480a6d52f675f15a0a2795409bfb1ce6d37424dcd88ac", "addr": "1CjFMJF7VnRuCofqcgrxmxZDk93RMJBXo9"}, {"type": 0, "spent": true, "value": 19340000000, "spending_outpoints": [{"tx_index": 4137410508043096, "n": 0}], "n": 1, "tx_index": 1954664366305979, "script": "76a9143b6fab7e0e06acfda644860916e8c54cba8f3b0788ac", "addr": "16RGeH8d8AGBKgxCHRnhZf9K1FWRdcLd5E"}], "hex": "0100000001fcc3b12afc53be65cb472b750882a57928497661cc1c093c6a62c29ed690eb8b000000008b483045022047307b2f6d2c222815fddf9a63c5ae9e64757ae4d7cd65fb85ed3a72329a8260022100f4355823cce5aaad84af9d917be78b648ceacb8e736e8e7446ced8c19fdd43d1014104200097f5b97f3f4484aa4841b104bec38a405625299bc08f6c512524e9271da9fa6312430fb0723d64dbd1cefa6621a622c11c4f016764f1b0b3421ed2b81dbdffffffff02404b4c00000000001976a91480a6d52f675f15a0a2795409bfb1ce6d37424dcd88ac00fbc080040000001976a9143b6fab7e0e06acfda644860916e8c54cba8f3b0788ac00000000"}, {"hash": "c0305f2b3605dfb0343cdc6364d5427863f9cfbb58e7c4cec5c29af99c9f9775", "ver": 1, "vin_sz": 1, "vout_sz": 2, "size": 259, "weight": 1036, "fee": 0, "relayed_by": "0.0.0.0", "lock_time": 0, "tx_index": 4137410508043096, "double_spend": false, "time": 1298499741, "block_index": 110020, "block_height": 110020, "inputs": [{"sequence": 4294967295, "witness": "", "script": "493046022100c6b5ed77eb1ec0947bce1cac9f89dc0d82761fc7a745254906fdb8e946651801022100f816831e8973bc80cb4ebf40a253e7206d32c460df60110ad4a665cc20a89b950141040f5513ad05b56428f2295db41c5d7c53ea083b1e5025fa257830887610241f9770897352dd2bd73d4b1a0a0487d3563092c90e6318833502de0264d3e6218432", "index": 0, "prev_out": {"spent": true, "script": "76a9143b6fab7e0e06acfda644860916e8c54cba8f3b0788ac", "spending_outpoints": [{"tx_index": 4137410508043096, "n": 0}], "tx_index": 1954664366305979, "value": 19340000000, "addr": "16RGeH8d8AGBKgxCHRnhZf9K1FWRdcLd5E", "n": 1, "type": 0}}], "out": [{"type": 0, "spent": true, "value": 19335000000, "spending_outpoints": [{"tx_index": 7059174296333310, "n": 0}], "n": 0, "tx_index": 4137410508043096, "script": "76a91424a4e46a4fa59dffcd62d078031005767a34852088ac", "addr": "14LkrpZku4XAzU98vg1LXKY4DdHcbhyFWH"}, {"type": 0, "spent": true, "value": 5000000, "spending_outpoints": [{"tx_index": 3118624087915049, "n": 0}], "n": 1, "tx_index": 4137410508043096, "script": "76a914b55a6d1469e94caab81ea5fdac13d9ad679bd54488ac", "addr": "1HXuddumfD5RPKC1RNHYP6trFWYsyE6rQz"}], "hex": "0100000001378e0e19ab95d8d74ec59cb7443c3cd422e4755a233e9bb54f0fbcc29e0a033d010000008c493046022100c6b5ed77eb1ec0947bce1cac9f89dc0d82761fc7a745254906fdb8e946651801022100f816831e8973bc80cb4ebf40a253e7206d32c460df60110ad4a665cc20a89b950141040f5513ad05b56428f2295db41c5d7c53ea083b1e5025fa257830887610241f9770897352dd2bd73d4b1a0a0487d3563092c90e6318833502de0264d3e6218432ffffffff02c0af7480040000001976a91424a4e46a4fa59dffcd62d078031005767a34852088ac404b4c00000000001976a914b55a6d1469e94caab81ea5fdac13d9ad679bd54488ac00000000"}, {"hash": "15c44bef474ea9e57dbfa06c3692270d44f5a94e67b0108071f55fb9c240a2c8", "ver": 1, "vin_sz": 1, "vout_sz": 2, "size": 258, "weight": 1032, "fee": 0, "relayed_by": "0.0.0.0", "lock_time": 0, "tx_index": 7059174296333310, "double_spend": false, "time": 1298499741, "block_index": 110020, "block_height": 110020, "inputs": [{"sequence": 4294967295, "witness": "", "script": "483045022026d9e1975c7462673d24d8b712aaf53537436e5328c232839548c2a05af343cc022100bebfd681674484f01dcf0043bc338707548d65d061b8f720f0c5be3d12a8e0a001410494b42a52b81ad14f15f8d46f4248f88f50287f7079906d7f039ffc24dd3d038b143f0febf087a4dbd3782e6d52c9aad40cd1dcf8d12620f6a95a90b62b514632", "index": 0, "prev_out": {"spent": true, "script": "76a91424a4e46a4fa59dffcd62d078031005767a34852088ac", "spending_outpoints": [{"tx_index": 7059174296333310, "n": 0}], "tx_index": 4137410508043096, "value": 19335000000, "addr": "14LkrpZku4XAzU98vg1LXKY4DdHcbhyFWH", "n": 0, "type": 0}}], "out": [{"type": 0, "spent": true, "value": 19330000000, "spending_outpoints": [{"tx_index": 5453092434611998, "n": 0}], "n": 0, "tx_index": 7059174296333310, "script": "76a914c85b5bf89ddaa945e8963c9832e256bd8e25ad9388ac", "addr": "1KGPb7u2hkaQJgYQrEc7tZaNbF5HKHGkX9"}, {"type": 0, "spent": true, "value": 5000000, "spending_outpoints": [{"tx_index": 1612992994622717, "n": 0}], "n": 1, "tx_index": 7059174296333310, "script": "76a91425b2d19d6eda1048a9b75e3c3e7b8947fdd42b9e88ac", "addr": "14SLDeVLrAqMrWZkgzNAnTYnWDzxs6W6pu"}], "hex": "010000000175979f9cf99ac2c5cec4e758bbcff9637842d56463dc3c34b0df05362b5f30c0000000008b483045022026d9e1975c7462673d24d8b712aaf53537436e5328c232839548c2a05af343cc022100bebfd681674484f01dcf0043bc338707548d65d061b8f720f0c5be3d12a8e0a001410494b42a52b81ad14f15f8d46f4248f88f50287f7079906d7f039ffc24dd3d038b143f0febf087a4dbd3782e6d52c9aad40cd1dcf8d12620f6a95a90b62b514632ffffffff0280642880040000001976a914c85b5bf89ddaa945e8963c9832e256bd8e25ad9388ac404b4c00000000001976a91425b2d19d6eda1048a9b75e3c3e7b8947fdd42b9e88ac00000000"}, {"hash": "5062aca33ccb6f013052f34006e961c7787b1fceac2d79d27df278f02b78fc9a", "ver": 1, "vin_sz": 1, "vout_sz": 2, "size": 258, "weight": 1032, "fee": 0, "relayed_by": "0.0.0.0", "lock_time": 0, "tx_index": 5453092434611998, "double_spend": false, "time": 1298499741, "block_index": 110020, "block_height": 110020, "inputs": [{"sequence": 4294967295, "witness": "", "script": "483045022100bbb96bc2b2da0940390307552b5a767693bea3f55fd93ef10114941853ea7092022023716829a67738f40b9193818d33120937a9cdde85bfff2c1862395ecd1dce95014104ad8f10cf6b8a283bc50b2df80388f1aa5141eb00e9e8d41226fd6e4176473ec964757cac0b4a6e6b8ebfd450c3cfa48e31a269474f72cde4c99b0a06ca9637d7", "index": 0, "prev_out": {"spent": true, "script": "76a914c85b5bf89ddaa945e8963c9832e256bd8e25ad9388ac", "spending_outpoints": [{"tx_index": 5453092434611998, "n": 0}], "tx_index": 7059174296333310, "value": 19330000000, "addr": "1KGPb7u2hkaQJgYQrEc7tZaNbF5HKHGkX9", "n": 0, "type": 0}}], "out": [{"type": 0, "spent": true, "value": 5000000, "spending_outpoints": [{"tx_index": 4008297057175216, "n": 33}], "n": 0, "tx_index": 5453092434611998, "script": "76a9146db23313172ccb8639296591c603dc7b61e3c3f588ac", "addr": "1B128Rrbcg4BZG9GtHH9ngmm5dm6LzoEyv"}, {"type": 0, "spent": true, "value": 19325000000, "spending_outpoints": [{"tx_index": 3633268163062384, "n": 0}], "n": 1, "tx_index": 5453092434611998, "script": "76a91442752fd90f3b9c0ee96114b09c8c280aacf3c4ca88ac", "addr": "174Pyx624o6FQekJCT92LYoev4vmFhqYhE"}], "hex": "0100000001c8a240c2b95ff5718010b0674ea9f5440d2792366ca0bf7de5a94e47ef4bc415000000008b483045022100bbb96bc2b2da0940390307552b5a767693bea3f55fd93ef10114941853ea7092022023716829a67738f40b9193818d33120937a9cdde85bfff2c1862395ecd1dce95014104ad8f10cf6b8a283bc50b2df80388f1aa5141eb00e9e8d41226fd6e4176473ec964757cac0b4a6e6b8ebfd450c3cfa48e31a269474f72cde4c99b0a06ca9637d7ffffffff02404b4c00000000001976a9146db23313172ccb8639296591c603dc7b61e3c3f588ac4019dc7f040000001976a91442752fd90f3b9c0ee96114b09c8c280aacf3c4ca88ac00000000"}, {"hash": "7da61f2987bc0e1278e32bc689104f3a97ad345c008130bfb98753dd51814367", "ver": 1, "vin_sz": 1, "vout_sz": 2, "size": 257, "weight": 1028, "fee": 0, "relayed_by": "0.0.0.0", "lock_time": 0, "tx_index": 3633268163062384, "double_spend": false, "time": 1298499741, "block_index": 110020, "block_height": 110020, "inputs": [{"sequence": 4294967295, "witness": "", "script": "47304402205ca834b32c037c3babb75d7124841572d861dd5032336c547f70f9bbd8c929a602203481feaf691dc6f058bcf8a76dde47532a90dfe865ed65536f293d792492b745014104a0461c8079ab613be3cbdbc065c7cfe51d6370abebea648d18e14a7ade0c7826961ee33cb900a3050931b6dbe7d2f65431fe801a9df92635764222c021dfd743", "index": 0, "prev_out": {"spent": true, "script": "76a91442752fd90f3b9c0ee96114b09c8c280aacf3c4ca88ac", "spending_outpoints": [{"tx_index": 3633268163062384, "n": 0}], "tx_index": 5453092434611998, "value": 19325000000, "addr": "174Pyx624o6FQekJCT92LYoev4vmFhqYhE", "n": 1, "type": 0}}], "out": [{"type": 0, "spent": true, "value": 5000000, "spending_outpoints": [{"tx_index": 8703722832043381, "n": 0}], "n": 0, "tx_index": 3633268163062384, "script": "76a9141c305422e2816b5c6e7a9b0c4ae75ec4b5f0814388ac", "addr": "13a3pJhnw1MtAkdS3vhD5hAcF8oYBsHYro"}, {"type": 0, "spent": true, "value": 19320000000, "spending_outpoints": [{"tx_index": 2827845025305840, "n": 0}], "n": 1, "tx_index": 3633268163062384, "script": "76a914cf18bb96dde82e5c82dec455f24404ad61057ced88ac", "addr": "1Kt2WAyQF3mdVJCuqqxGj9huETn3ucL3e2"}], "hex": "01000000019afc782bf078f27dd2792dacce1f7b78c761e90640f35230016fcb3ca3ac6250010000008a47304402205ca834b32c037c3babb75d7124841572d861dd5032336c547f70f9bbd8c929a602203481feaf691dc6f058bcf8a76dde47532a90dfe865ed65536f293d792492b745014104a0461c8079ab613be3cbdbc065c7cfe51d6370abebea648d18e14a7ade0c7826961ee33cb900a3050931b6dbe7d2f65431fe801a9df92635764222c021dfd743ffffffff02404b4c00000000001976a9141c305422e2816b5c6e7a9b0c4ae75ec4b5f0814388ac00ce8f7f040000001976a914cf18bb96dde82e5c82dec455f24404ad61057ced88ac00000000"}, {"hash": "6f9379b14c702a5a17a0752d08e8f253413ee9d3298217e6f681a7b4d1475f50", "ver": 1, "vin_sz": 1, "vout_sz": 2, "size": 258, "weight": 1032, "fee": 0, "relayed_by": "0.0.0.0", "lock_time": 0, "tx_index": 2827845025305840, "double_spend": false, "time": 1298499741, "block_index": 110020, "block_height": 110020, "inputs": [{"sequence": 4294967295, "witness": "", "script": "4830450221009f63de69152e1e3a09706662e1dcbe659e6b7cabe3a8cbaf17fb82fb7bc0ad3b02202546a122a95671041a051fde6ee65aecca0c8ccbe5cdfd57d40b83af912dacb0014104d6dc7adb06d4953ca39edd7974aca3e327e97caa3cdfd7d4a242c1faa8b5c5d7c16d6ca295a6c85381eb5162bad93fbdc2507685f3df348b65ead8a08540c7af", "index": 0, "prev_out": {"spent": true, "script": "76a914cf18bb96dde82e5c82dec455f24404ad61057ced88ac", "spending_outpoints": [{"tx_index": 2827845025305840, "n": 0}], "tx_index": 3633268163062384, "value": 19320000000, "addr": "1Kt2WAyQF3mdVJCuqqxGj9huETn3ucL3e2", "n": 1, "type": 0}}], "out": [{"type": 0, "spent": true, "value": 19315000000, "spending_outpoints": [{"tx_index": 5884848897745593, "n": 0}], "n": 0, "tx_index": 2827845025305840, "script": "76a9149ddecf4194caf2258985676115e456faef34ee8088ac", "addr": "1FPk1CZnAy1ZaQM68b3VQP71cm8xispxkA"}, {"type": 0, "spent": true, "value": 5000000, "spending_outpoints": [{"tx_index": 4008297057175216, "n": 11}], "n": 1, "tx_index": 2827845025305840, "script": "76a9143e05f0be438fac336e52cecbedf852ad050408d688ac", "addr": "16ex1e7kCxWGMNWUDXzL6p63jHBYZTd9oa"}], "hex": "010000000167438151dd5387b9bf3081005c34ad973a4f1089c62be378120ebc87291fa67d010000008b4830450221009f63de69152e1e3a09706662e1dcbe659e6b7cabe3a8cbaf17fb82fb7bc0ad3b02202546a122a95671041a051fde6ee65aecca0c8ccbe5cdfd57d40b83af912dacb0014104d6dc7adb06d4953ca39edd7974aca3e327e97caa3cdfd7d4a242c1faa8b5c5d7c16d6ca295a6c85381eb5162bad93fbdc2507685f3df348b65ead8a08540c7afffffffff02c082437f040000001976a9149ddecf4194caf2258985676115e456faef34ee8088ac404b4c00000000001976a9143e05f0be438fac336e52cecbedf852ad050408d688ac00000000"}]}