{"hash": "0000000000000535e87e5a8cfc6607a95bb62435e073640939516091551623e1", "ver": 1, "prev_block": "00000000000031ebfd5a84d81b6c46af0c1ad8b416bb1046e099813f358df282", "mrkl_root": "b724c59ae742006ad40a45ccd0caa9a38b114d3be09c20da5c214901ea0fa692", "time": 1298500635, "bits": 453102630, "next_block": ["00000000000010a71acbb137ff92babb31f4cec6ef98cca9abf143b875414a80"], "fee": 0, "nonce": 2912467556, "n_tx": 9, "size": 3114, "block_index": 110021, "main_chain": true, "height": 110021, "weight": 12456, "tx": [{"hash": "4e579ca2cae311dce97af59641090173053a0f3059ce1903810e4f302130e8ef", "ver": 1, "vin_sz": 1, "vout_sz": 1, "size": 134, "weight": 536, "fee": 0, "relayed_by": "0.0.0.0", "lock_time": 0, "tx_index": 8440976605841889, "double_spend": false, "time": 1298500635, "block_index": 110021, "block_height": 110021, "inputs": [{"sequence": 4294967295, "witness": "", "script": "0426cc011b0123", "index": 0, "prev_out": null}], "out": [{"type": 0, "spent": true, "value": 5000000000, "spending_outpoints": [{"tx_index": 3976716643895675, "n": 21}], "n": 0, "tx_index": 8440976605841889, "script": "4104cfd8bf551b431a9a813deab6b591318c2e75a874406a583d3e39c561b2d805fa335f6b3cd18907178e28ed2cff2f3f4a79adc12e3edcaa9d7658f222500e148eac", "addr": "1AggLr9b66yAiwrg5pitzFBWJD6s1XSc1p"}], "hex": "01000000010000000000000000000000000000000000000000000000000000000000000000ffffffff070426cc011b0123ffffffff0100f2052a01000000434104cfd8bf551b431a9a813deab6b591318c2e75a874406a583d3e39c561b2d805fa335f6b3cd18907178e28ed2cff2f3f4a79adc12e3edcaa9d7658f222500e148eac00000000"}, {"hash": "41af1ca8c9b0658ea5c42fc79786dbe30a20121c5575948dff76513eb32356af", "ver": 1, "vin_sz": 1, "vout_sz": 2, "size": 257, "weight": 1028, "fee": 0, "relayed_by": "0.0.0.0", "lock_time": 0, "tx_index": 6169104031926830, "double_spend": false, "time": 1298500635, "block_index": 110021, "block_height": 110021, "inputs": [{"sequence": 4294967295, "witness": "", "script": "4730440220054c7c9567541f17ccee7243bb0e37bed26774f0555b8183f0c5477716c52bf8022012740e88b099874ca644069201e5c7a077317581aa13bc8768735d040a56db46014104e54fbc9ba825bf64438f98dffb9a92b0962b8f0b681b47f4e8c5b42b9cd5c5aed004e6db38aa8cab035606b6b8b917d5c503b0208f949ba9e1bd12ef7a45b1a3", "index": 0, "prev_out": {"spent": true, "script": "76a9148ea7f1b11634465d81c10b9a3370bf88ae0292c488ac", "spending_outpoints": [{"tx_index": 6169104031926830, "n": 0}], "tx_index": 1179572792326489, "value": 123057000000, "addr": "1E1J9CfduZf2PdMRhTPf4XSoG4g75mwqaZ", "n": 0, "type": 0}}], "out": [{"type": 0, "spent": true, "value": 46114000000, "spending_outpoints": [{"tx_index": 8295936397341141, "n": 2}], "n": 0, "tx_index": 6169104031926830, "script": "76a9146ac6ff407c59eca9c05fc6148f5f140c6248aac588ac", "addr": "1Ajb1tpLHTdvXRizhx4AHHFHqUpRaHBy6k"}, {"type": 0, "spent": true, "value": 76943000000, "spending_outpoints": [{"tx_index": 5301781670117080, "n": 0}], "n": 1, "tx_index": 6169104031926830, "script": "76a9141cc1891b3ff9a56157092440e87f11514022decd88ac", "addr": "13d3mTbXsUp9Cv9Ew1n1F7im3zVMYfKxDa"}], "hex": "01000000012186858a2fcaca7d1e0dd1e285da97952de686dfa7a4c8490f4a07fb3cd5bd0b000000008a4730440220054c7c9567541f17ccee7243bb0e37bed26774f0555b8183f0c5477716c52bf8022012740e88b099874ca644069201e5c7a077317581aa13bc8768735d040a56db46014104e54fbc9ba825bf64438f98dffb9a92b0962b8f0b681b47f4e8c5b42b9cd5c5aed004e6db38aa8cab035606b6b8b917d5c503b0208f949ba9e1bd12ef7a45b1a3ffffffff0280cc9bbc0a0000001976a9146ac6ff407c59eca9c05fc6148f5f140c6248aac588acc00129ea110000001976a9141cc1891b3ff9a56157092440e87f11514022decd88ac00000000"}, {"hash": "7d3fa9ac19efbc2353970c153f9d9b3a007809d12f0e00dd8cc7ec50f0e2c367", "ver": 1, "vin_sz": 4, "vout_sz": 1, "size": 765, "weight": 3060, "fee": 0, "relayed_by": "0.0.0.0", "lock_time": 0, "tx_index": 3650912757882264, "double_spend": false, "time": 1298500635, "block_index": 110021, "block_height": 110021, "inputs": [{"sequence": 4294967295, "witness": "", "script": "493046022100ad17585183d39a25c5ab3900daeb13021e38f2b8adb9dc128c41cb23803741bf022100e6b9b1eca45029f1443f19e6c375373bfe378ab91f990761bf2f63e029d8fd8401410452dcfb60a1a3ffea38d64c9f50da1a2d8b38aef541190bf78907d084261e52d04a14b3f37376e8e5735a8be07fdf8b28358c036c8871db1a9713be1b18e33889", "index": 0, "prev_out": {"spent": true, "script": "76a9142bb3bbefa25e8f1ef58428a3f9b46d61725903a088ac", "spending_outpoints": [{"tx_index": 3650912757882264, "n": 0}], "tx_index": 2123957909242227, "value": 2000000, "addr": "14z5NPtek1e8621bMNLiRsP93EDjCtGA6Z", "n": 0, "type": 0}}, {"sequence": 4294967295, "witness": "", "script": "473044022043b6f4656afa281a290130410ef71e09f34212d4f2799eb04712e31fdeb46f0b022016546110c7a3e73aafb6d314e288d6d442caff027180dfe2f220ef48021ca1c2014104ad5d7f4691c0376ed60f64084163e97f17ea597c4ee08c1c8edca6fdacd7d1e849d1dfc04e4f6f8d79c9a2b2ba9378e9ff04ff1478226fd2750207f6419bd61f", "index": 1, "prev_out": {"spent": true, "script": "76a9148947e60a10eb1435dfd539f81094a369843bf67588ac", "spending_outpoints": [{"tx_index": 3650912757882264, "n": 1}], "tx_index": 3844461278333747, "value": 40000000000, "addr": "1DWshtBagjmSDnWQNb4pLPxVhkvUPmu9YA", "n": 0, "type": 0}}, {"sequence": 4294967295, "witness": "", "script": "483045022100c2a7f16e52fb24226bead9bb4e13a871d1885bd4b2c16166d774187786f6a8f502203d1fc155757fe194c891b8f7de1fcea4115ba165d313da714807025bd796d9de014104e76a602a784976a04a49732895c276bdcd8417ed67d663c987bfa2fc11ee9f3f90e45c61124ccbcb032880dcf182938e6f905d652861c205b6a1219aedf5b44a", "index": 2, "prev_out": {"spent": true, "script": "76a91472ede0ab93395b6a3d5018bf6dadce3d3d87eddc88ac", "spending_outpoints": [{"tx_index": 3650912757882264, "n": 2}], "tx_index": 2466744809890009, "value": 123000000, "addr": "1BUgztvsVohAuroBwPFCLsgi8oLLVkamtY", "n": 1, "type": 0}}, {"sequence": 4294967295, "witness": "", "script": "493046022100b6fa30f4adff602ee948703a73787e8e8abb7ba5e188536a97cf3fe54a46fe87022100c93174e0c3cb11679a1abfcb69cbf1557dd852ff63de762fdf54723f190200fb0141042054bde290063f2c34fc0251cbe8b1bca9c31befce16f4df15d676f236411557e5d3c37f5504cc8e40a8d560a4d72f015fc202cc7584ee8c5f57e94fed30091d", "index": 3, "prev_out": {"spent": true, "script": "76a9144ebdebb9a35e832753c2de7c971eca078f92c0c888ac", "spending_outpoints": [{"tx_index": 3650912757882264, "n": 3}], "tx_index": 4390725885289454, "value": 5000000, "addr": "18BMDtheCvBTuqiyCM9zyr1zFvEvMW5kV2", "n": 0, "type": 0}}], "out": [{"type": 0, "spent": true, "value": 40130000000, "spending_outpoints": [{"tx_index": 1411289357639533, "n": 12}], "n": 0, "tx_index": 3650912757882264, "script": "76a9141a165bd2bbff903a1fdd9147a2b39e95cb4af4a188ac", "addr": "13NwMVnFinLRTYRRuWcwbP66Y2cU8ev8UY"}], "hex": "01000000043c5dd3e5960b9fb73cb64df4de9da881c00c2a8de893c15dd6923bd14483448d000000008c493046022100ad17585183d39a25c5ab3900daeb13021e38f2b8adb9dc128c41cb23803741bf022100e6b9b1eca45029f1443f19e6c375373bfe378ab91f990761bf2f63e029d8fd8401410452dcfb60a1a3ffea38d64c9f50da1a2d8b38aef541190bf78907d084261e52d04a14b3f37376e8e5735a8be07fdf8b28358c036c8871db1a9713be1b18e33889ffffffff6d442326c8599c9fc29f303a43af0c00959f3457615ebc971491835fb1723dc5000000008a473044022043b6f4656afa281a290130410ef71e09f34212d4f2799eb04712e31fdeb46f0b022016546110c7a3e73aafb6d314e288d6d442caff027180dfe2f220ef48021ca1c2014104ad5d7f4691c0376ed60f64084163e97f17ea597c4ee08c1c8edca6fdacd7d1e849d1dfc04e4f6f8d79c9a2b2ba9378e9ff04ff1478226fd2750207f6419bd61fffffffff461bee412906cbf279bde3cbcc741cda39a6a8b92186b9fa03db5090f09a56a9010000008b483045022100c2a7f16e52fb24226bead9bb4e13a871d1885bd4b2c16166d774187786f6a8f502203d1fc155757fe194c891b8f7de1fcea4115ba165d313da714807025bd796d9de014104e76a602a784976a04a49732895c276bdcd8417ed67d663c987bfa2fc11ee9f3f90e45c61124ccbcb032880dcf182938e6f905d652861c205b6a1219aedf5b44affffffff7ccabc45971f766e0dc6ef97b7ffd414f7fdc9bb3cd435a95aeaf1120667e20c000000008c493046022100b6fa30f4adff602ee948703a73787e8e8abb7ba5e188536a97cf3fe54a46fe87022100c93174e0c3cb11679a1abfcb69cbf1557dd852ff63de762fdf54723f190200fb0141042054bde290063f2c34fc0251cbe8b1bca9c31befce16f4df15d676f236411557e5d3c37f5504cc8e40a8d560a4d72f015fc202cc7584ee8c5f57e94fed30091dffffffff018034ef57090000001976a9141a165bd2bbff903a1fdd9147a2b39e95cb4af4a188ac00000000"}, {"hash": "af5d2dbb7d8cce33271d288aff29d26d0abc5ac4662ac5c80215436f78874374", "ver": 1, "vin_sz": 3, "vout_sz": 1, "size": 586, "weight": 2344, "fee": 0, "relayed_by": "0.0.0.0", "lock_time": 0, "tx_index": 4090668302329954, "double_spend": false, "time": 1298500635, "block_index": 110021, "block_height": 110021, "inputs": [{"sequence": 4294967295, "witness": "", "script": "493046022100cf4ffdf2e986bccc2812f78ad8e2ffb8d225c1fa41cb79e2e96b81baba8e74f8022100cb427d3f2cfe082dccbdf0113f53d02b7323cf229831046910bf7537d8b53bbf014104984b3162299309396b65854f683e7b24f49780dee7730cc9d15253a4a12f1d866e36ddade751045a61437aa80f6fe5582fbc3e44864495a9708ce59ac4633a36", "index": 0, "prev_out": {"spent": true, "script": "76a91451ebf4db03faf0500614a3d892e35157815e8ece88ac", "spending_outpoints": [{"tx_index": 4090668302329954, "n": 0}], "tx_index": 1334823402857725, "value": 70000000, "addr": "18UAQ5hVCsmNqf5v7fghnVxcjZJTrJkY6z", "n": 0, "type": 0}}, {"sequence": 4294967295, "witness": "", "script": "493046022100d2e9ede18476e4f59cbb1953944a0e535dde2c8755eabc23c77fb3a3142279a80221009987ba692384374904209e7d893792e4acc4db4c2f0eef73a3c6ecaa0aaeea7a0141048acde813e53755bf4f0587aae5fc646db6e7ac9c423cd81b5adaff395e8cac07ce3f5ace3548d25717fae19cda8f583923c44c6aec0ed22e818f2734a5b763ac", "index": 1, "prev_out": {"spent": true, "script": "76a91480241c73b8cf44c781e263f67bc663ccd703a42a88ac", "spending_outpoints": [{"tx_index": 4090668302329954, "n": 1}], "tx_index": 4585805280872682, "value": 60000000, "addr": "1CgYkbpYopacZNJSc567ep5Zu7zfvFqdYg", "n": 1, "type": 0}}, {"sequence": 4294967295, "witness": "", "script": "483045022100b484f2d783ee09802160b81565d3b7ddcae4c8268fa904813690b9a2670ddc75022039bbe9efd30c200acb87fe06570375a4b301ad0bc79caee5903a6d6e484896e3014104d4f838bef32a8c0f059723f218d8606089e06550ce31c63f55af54234e10c625fc135e3fbfd18876dc3b5387f3e5d8790b21ae48c191a9471b95995b1a81c242", "index": 2, "prev_out": {"spent": true, "script": "76a914abb3b4a7c32b01532ec94bd178bd434b7db6a37588ac", "spending_outpoints": [{"tx_index": 4090668302329954, "n": 2}], "tx_index": 8496718186699881, "value": 20000000, "addr": "1GespyRn3JtEvuxKLU5qiNPNenmJ8Uf52h", "n": 0, "type": 0}}], "out": [{"type": 0, "spent": true, "value": 150000000, "spending_outpoints": [{"tx_index": 2295411361298656, "n": 1}], "n": 0, "tx_index": 4090668302329954, "script": "76a914e8d00c41082b49703b9270cd59f2fb6352780a5e88ac", "addr": "1NDzzvazg8y5kLL8juhvgdAGXo6PfAUucJ"}], "hex": "010000000325f01e561f27eb94b24ea78e9612b9ebf25f98f13fdee75ce5b20ee5ea803fc6000000008c493046022100cf4ffdf2e986bccc2812f78ad8e2ffb8d225c1fa41cb79e2e96b81baba8e74f8022100cb427d3f2cfe082dccbdf0113f53d02b7323cf229831046910bf7537d8b53bbf014104984b3162299309396b65854f683e7b24f49780dee7730cc9d15253a4a12f1d866e36ddade751045a61437aa80f6fe5582fbc3e44864495a9708ce59ac4633a36ffffffff82561ff6344751f0f87d6c52ee78f65eb8e26950b24087d6cdb61b157aaea1c4010000008c493046022100d2e9ede18476e4f59cbb1953944a0e535dde2c8755eabc23c77fb3a3142279a80221009987ba692384374904209e7d893792e4acc4db4c2f0eef73a3c6ecaa0aaeea7a0141048acde813e53755bf4f0587aae5fc646db6e7ac9c423cd81b5adaff395e8cac07ce3f5ace3548d25717fae19cda8f583923c44c6aec0ed22e818f2734a5b763acfffffffff17dc2ea32e34daa275ea18c1ba69065fea69628e71a7cc0fdccf647b67de044000000008b483045022100b484f2d783ee09802160b81565d3b7ddcae4c8268fa904813690b9a2670ddc75022039bbe9efd30c200acb87fe06570375a4b301ad0bc79caee5903a6d6e484896e3014104d4f838bef32a8c0f059723f218d8606089e06550ce31c63f55af54234e10c625fc135e3fbfd18876dc3b5387f3e5d8790b21ae48c191a9471b95995b1a81c242ffffffff0180d1f008000000001976a914e8d00c41082b49703b9270cd59f2fb6352780a5e88ac00000000"}, {"hash": "3f540f2bc970668118f43748637d3d88830ea1eda6b598b4becc15db40e941a7", "ver": 1, "vin_sz": 1, "vout_sz": 2, "size": 258, "weight": 1032, "fee": 0, "relayed_by": "0.0.0.0", "lock_time": 0, "tx_index": 5884848897745593, "double_spend": false, "time": 1298500635, "block_index": 110021, "block_height": 110021, "inputs": [{"sequence": 4294967295, "witness": "", "script": "48304502203982763d87c97aa21845a5146db236b225fb9cc4fcd6ed38e6b332b3443f6839022100effb07bc587bd5365c65a210c003938891305f2e708d4bb20a3a2f478e1f87960141043b3057a8336841e8c2aa94612d4df83776143352d516774fa74c71b50f043548eb72617526e7a6ffe1537429338e501108ec95ec651cd99c3edf8672e4260398", "index": 0, "prev_out": {"spent": true, "script": "76a9149ddecf4194caf2258985676115e456faef34ee8088ac", "spending_outpoints": [{"tx_index": 5884848897745593, "n": 0}], "tx_index": 2827845025305840, "value": 19315000000, "addr": "1FPk1CZnAy1ZaQM68b3VQP71cm8xispxkA", "n": 0, "type": 0}}], "out": [{"type": 0, "spent": false, "value": 5000000, "spending_outpoints": [], "n": 0, "tx_index": 5884848897745593, "script": "76a914e4a1032e0668f386853424bbc9d2e46e1b1c4a0188ac", "addr": "1Mqsx5SGV9viVTrQadL7g3ZVmfRDV1Xt7J"}, {"type": 0, "spent": true, "value": 19310000000, "spending_outpoints": [{"tx_index": 2136797187678300, "n": 0}], "n": 1, "tx_index": 5884848897745593, "script": "76a914f32ac0393a95571d574e8fcdee6b99768596ae7f88ac", "addr": "1PAkQzrisFhQjcmbtZgsfnjFhh6jQ1uSaL"}], "hex": "0100000001505f47d1b4a781f6e6178229d3e93e4153f2e8082d75a0175a2a704cb179936f000000008b48304502203982763d87c97aa21845a5146db236b225fb9cc4fcd6ed38e6b332b3443f6839022100effb07bc587bd5365c65a210c003938891305f2e708d4bb20a3a2f478e1f87960141043b3057a8336841e8c2aa94612d4df83776143352d516774fa74c71b50f043548eb72617526e7a6ffe1537429338e501108ec95ec651cd99c3edf8672e4260398ffffffff02404b4c00000000001976a914e4a1032e0668f386853424bbc9d2e46e1b1c4a0188ac8037f77e040000001976a914f32ac0393a95571d574e8fcdee6b99768596ae7f88ac00000000"}, {"hash": "57cee9d47b8c18dbd07e00a7f995635115783e3ba08d6f98e8ea492d42d59b4a", "ver": 1, "vin_sz": 1, "vout_sz": 2, "size": 259, "weight": 1036, "fee": 0, "relayed_by": "0.0.0.0", "lock_time": 0, "tx_index": 2625061064649021, "double_spend": false, "time": 1298500635, "block_index": 110021, "block_height": 110021, "inputs": [{"sequence": 4294967295, "witness": "", "script": "493046022100ffd4bd29f39b6e9511684115241783afb22e01f468f3b91a86ac109ab34a6073022100b07011d25ab6e1725f803f594999935d6afcb3cd756fb5a7c612da809f66d5a60141048acde813e53755bf4f0587aae5fc646db6e7ac9c423cd81b5adaff395e8cac07ce3f5ace3548d25717fae19cda8f583923c44c6aec0ed22e818f2734a5b763ac", "index": 0, "prev_out": {"spent": true, "script": "76a91480241c73b8cf44c781e263f67bc663ccd703a42a88ac", "spending_outpoints": [{"tx_index": 2625061064649021, "n": 0}], "tx_index": 3638196286830250, "value": 180000000, "addr": "1CgYkbpYopacZNJSc567ep5Zu7zfvFqdYg", "n": 0, "type": 0}}], "out": [{"type": 0, "spent": true, "value": 160000000, "spending_outpoints": [{"tx_index": 4909891585245518, "n": 1}], "n": 0, "tx_index": 2625061064649021, "script": "76a9142b0dd3d77124ea598b2424daf0934d3add3df64988ac", "addr": "14ved13H9sKbK8h8f3baCCD1Ea5oPsX9Sb"}, {"type": 0, "spent": true, "value": 20000000, "spending_outpoints": [{"tx_index": 8093243527602124, "n": 0}], "n": 1, "tx_index": 2625061064649021, "script": "76a9149d8f36805e8a21f0e74e0383562c4866e45d09f388ac", "addr": "1FN6eiz3aWNDcfgJqtVXgQiAsVvJH1Fhzf"}], "hex": "010000000167675caa65b553df782329f8001a23b260155a7cb1431efbdeeb3cac20cee8e1000000008c493046022100ffd4bd29f39b6e9511684115241783afb22e01f468f3b91a86ac109ab34a6073022100b07011d25ab6e1725f803f594999935d6afcb3cd756fb5a7c612da809f66d5a60141048acde813e53755bf4f0587aae5fc646db6e7ac9c423cd81b5adaff395e8cac07ce3f5ace3548d25717fae19cda8f583923c44c6aec0ed22e818f2734a5b763acffffffff0200688909000000001976a9142b0dd3d77124ea598b2424daf0934d3add3df64988ac002d3101000000001976a9149d8f36805e8a21f0e74e0383562c4866e45d09f388ac00000000"}, {"hash": "9eebf6226f506f974926248a2a94ea8b160d5a4d4c4f65b0a4e002a1ea3ebb3c", "ver": 1, "vin_sz": 1, "vout_sz": 2, "size": 257, "weight": 1028, "fee": 0, "relayed_by": "0.0.0.0", "lock_time": 0, "tx_index": 2136797187678300, "double_spend": false, "time": 1298500635, "block_index": 110021, "block_height": 110021, "inputs": [{"sequence": 4294967295, "witness": "", "script": "47304402207c9b580d45100f526a425811b1b3f64346b8214d067b4a1a93ec092b4d72497002204c6badbd105124ac26103152d167544c6c36a46008a51e4b3b6291b2760f2dd10141044523526621d6e66a2e166e9c422360d645e9362ab2a88e813ed41fbd7d620e22ca18e6027479c203f1342acaf3a7bcb59bcb32970600e9b421fb0e82c0692a8c", "index": 0, "prev_out": {"spent": true, "script": "76a914f32ac0393a95571d574e8fcdee6b99768596ae7f88ac", "spending_outpoints": [{"tx_index": 2136797187678300, "n": 0}], "tx_index": 5884848897745593, "value": 19310000000, "addr": "1PAkQzrisFhQjcmbtZgsfnjFhh6jQ1uSaL", "n": 1, "type": 0}}], "out": [{"type": 0, "spent": true, "value": 5000000, "spending_outpoints": [{"tx_index": 4530730567509611, "n": 9}], "n": 0, "tx_index": 2136797187678300, "script": "76a914aa5b8b0a7d49b2a26fd0ba737ec9efe4233d549888ac", "addr": "1GXmY95VvB4SCpfmLDFpeyR6c23JCR87FD"}, {"type": 0, "spent": true, "value": 19305000000, "spending_outpoints": [{"tx_index": 1658846280472635, "n": 0}], "n": 1, "tx_index": 2136797187678300, "script": "76a91451872a78e089bc69257d507fef37993eabf05bc288ac", "addr": "18S5f2kLA8sCZvhy4gSMSDQUgp2R3KdYT6"}], "hex": "0100000001a741e940db15ccbeb498b5a6eda10e83883d7d634837f418816670c92b0f543f010000008a47304402207c9b580d45100f526a425811b1b3f64346b8214d067b4a1a93ec092b4d72497002204c6badbd105124ac26103152d167544c6c36a46008a51e4b3b6291b2760f2dd10141044523526621d6e66a2e166e9c422360d645e9362ab2a88e813ed41fbd7d620e22ca18e6027479c203f1342acaf3a7bcb59bcb32970600e9b421fb0e82c0692a8cffffffff02404b4c00000000001976a914aa5b8b0a7d49b2a26fd0ba737ec9efe4233d549888ac40ecaa7e040000001976a91451872a78e089bc69257d507fef37993eabf05bc288ac00000000"}, {"hash": "676b98d3e933afab4971b58afb2af21f0b4bf7e14b9e501547dac146fab1252f", "ver": 1, "vin_sz": 1, "vout_sz": 2, "size": 258, "weight": 1032, "fee": 0, "relayed_by": "0.0.0.0", "lock_time": 0, "tx_index": 1658846280472635, "double_spend": false, "time": 1298500635, "block_index": 110021, "block_height": 110021, "inputs": [{"sequence": 4294967295, "witness": "", "script": "483045022100e1cc9728b25f99c446c511dcbad4215473d48683bc1058e0df8ea3e3c61ad8b3022005ea237fe0786ac99374a01239b4ad2ec494c9f3a4479ca15979a04635b6c185014104a81fb487e57351c060dcb6bc6ac14dcd45cd2047c3a797212eb361a4b243e11675b2bf2508d9f19f159038496d527556db104e4e2d33c054d4562014bca16102", "index": 0, "prev_out": {"spent": true, "script": "76a91451872a78e089bc69257d507fef37993eabf05bc288ac", "spending_outpoints": [{"tx_index": 1658846280472635, "n": 0}], "tx_index": 2136797187678300, "value": 19305000000, "addr": "18S5f2kLA8sCZvhy4gSMSDQUgp2R3KdYT6", "n": 1, "type": 0}}], "out": [{"type": 0, "spent": true, "value": 19300000000, "spending_outpoints": [{"tx_index": 8977688109773647, "n": 0}], "n": 0, "tx_index": 1658846280472635, "script": "76a914b84607984dec9dd28033696908f83176617ef31988ac", "addr": "1HoME3X3UbVHkpCiHWzPRVRUGR8fgg3FLc"}, {"type": 0, "spent": true, "value": 5000000, "spending_outpoints": [{"tx_index": 5015486707928202, "n": 10}], "n": 1, "tx_index": 1658846280472635, "script": "76a91440dd308e9d3f148422f69b5c3b7527d0cff6157388ac", "addr": "16uyDohwFh2s5zELKZ48D5cNp5M4WMEPFo"}], "hex": "01000000013cbb3eeaa102e0a4b0654f4c4d5a0d168bea942a8a242649976f506f22f6eb9e010000008b483045022100e1cc9728b25f99c446c511dcbad4215473d48683bc1058e0df8ea3e3c61ad8b3022005ea237fe0786ac99374a01239b4ad2ec494c9f3a4479ca15979a04635b6c185014104a81fb487e57351c060dcb6bc6ac14dcd45cd2047c3a797212eb361a4b243e11675b2bf2508d9f19f159038496d527556db104e4e2d33c054d4562014bca16102ffffffff0200a15e7e040000001976a914b84607984dec9dd28033696908f83176617ef31988ac404b4c00000000001976a91440dd308e9d3f148422f69b5c3b7527d0cff6157388ac00000000"}, {"hash": "517c0e29a430d92e890d6772ae43c57b26ee0448678d8c348a7e9a7f354729ff", "ver": 1, "vin_sz": 1, "vout_sz": 2, "size": 259, "weight": 1036, "fee": 0, "relayed_by": "0.0.0.0", "lock_time": 0, "tx_index": 8977688109773647, "double_spend": false, "time": 1298500635, "block_index": 110021, "block_height": 110021, "inputs": [{"sequence": 4294967295, "witness": "", "script": "493046022100a37efbbfd689f376c7f21673380f5be8e9e26254f53d30b4b408216591ae5e41022100dcf3d3423df9ff599e0083913951520ea11a41092783fb1f67b50990b77f8692014104d0353ac58bd103cf4d5ee84458b2381f13822cd7121a35d9c847f275469e9b8ed31dca2c85a66968effffd2cb516959772bbcc22bf802cc7462bb83962d8ebcf", "index": 0, "prev_out": {"spent": true, "script": "76a914b84607984dec9dd28033696908f83176617ef31988ac", "spending_outpoints": [{"tx_index": 8977688109773647, "n": 0}], "tx_index": 1658846280472635, "value": 19300000000, "addr": "1HoME3X3UbVHkpCiHWzPRVRUGR8fgg3FLc", "n": 0, "type": 0}}], "out": [{"type": 0, "spent": true, "value": 19295000000, "spending_outpoints": [{"tx_index": 872514802616625, "n": 0}], "n": 0, "tx_index": 8977688109773647, "script": "76a914438f56eae06385547cbd81f796f4a6b647b88c5188ac", "addr": "17ADzFvBKUjqq4Uwjwyw2jbUCFwryfPKvA"}, {"type": 0, "spent": true, "value": 5000000, "spending_outpoints": [{"tx_index": 518341865744563, "n": 33}], "n": 1, "tx_index": 8977688109773647, "script": "76a914dac0bd71cb0200aa13ab5134e70ab741cc3ab6d688ac", "addr": "1LwfCdZ64egNtVosT4E7aLmULJ8McbAtrf"}], "hex": "01000000012f25b1fa46c1da4715509e4be1f74b0b1ff22afb8ab57149abaf33e9d3986b67000000008c493046022100a37efbbfd689f376c7f21673380f5be8e9e26254f53d30b4b408216591ae5e41022100dcf3d3423df9ff599e0083913951520ea11a41092783fb1f67b50990b77f8692014104d0353ac58bd103cf4d5ee84458b2381f13822cd7121a35d9c847f275469e9b8ed31dca2c85a66968effffd2cb516959772bbcc22bf802cc7462bb83962d8ebcfffffffff02c055127e040000001976a914438f56eae06385547cbd81f796f4a6b647b88c5188ac404b4c00000000001976a914dac0bd71cb0200aa13ab5134e70ab741cc3ab6d688ac00000000"}]}