{"hash": "000000004d6a6dd8b882deec7b54421949dddd2c166bd51ee7f62a52091a6c35", "ver": 1, "prev_block": "00000000a30e366158a1813a6fda9f913497000a68f1c008b9f935b866cee55b", "mrkl_root": "e7a3e246c6f2d582b089d7d6c2f925e8aae46ef0c0ce97d3dd3afe3016a44e97", "time": 1231669673, "bits": 486604799, "next_block": ["00000000ce2780c9640fde662ffbb07a10c9e96a226718875225a9a0fe6ac337"], "fee": 0, "nonce": 4076340484, "n_tx": 1, "size": 216, "block_index": 111, "main_chain": true, "height": 111, "weight": 864, "tx": [{"hash": "e7a3e246c6f2d582b089d7d6c2f925e8aae46ef0c0ce97d3dd3afe3016a44e97", "ver": 1, "vin_sz": 1, "vout_sz": 1, "size": 135, "weight": 540, "fee": 0, "relayed_by": "0.0.0.0", "lock_time": 0, "tx_index": 5323648517152711, "double_spend": false, "time": 1231669673, "block_index": 111, "block_height": 111, "inputs": [{"sequence": 4294967295, "witness": "", "script": "04ffff001d02a700", "index": 0, "prev_out": null}], "out": [{"type": 0, "spent": false, "value": 5000000000, "spending_outpoints": [], "n": 0, "tx_index": 5323648517152711, "script": "4104a75502d3670b14b7e5640591191c05868da841699d52f9752a70dc891183a2b9a00f7a5893389f3b973a8ac5e30c20041ccbd99a3889b7ae7a705203d0991498ac", "addr": "1HCeeU957J4NTXDer2fGvDsb7mVjU9TtLb"}], "hex": "01000000010000000000000000000000000000000000000000000000000000000000000000ffffffff0804ffff001d02a700ffffffff0100f2052a01000000434104a75502d3670b14b7e5640591191c05868da841699d52f9752a70dc891183a2b9a00f7a5893389f3b973a8ac5e30c20041ccbd99a3889b7ae7a705203d0991498ac00000000"}]}