{"hash": "00000000ce2780c9640fde662ffbb07a10c9e96a226718875225a9a0fe6ac337", "ver": 1, "prev_block": "000000004d6a6dd8b882deec7b54421949dddd2c166bd51ee7f62a52091a6c35", "mrkl_root": "3438117001eedca26a917571b11e684ab3a4b1ca172fdc0ccaa3cc439b211ead", "time": 1231670137, "bits": 486604799, "next_block": ["00000000019176838de40606d70738084f2fbc48a50548eeeac3ceb857677c6d"], "fee": 0, "nonce": 2067062792, "n_tx": 1, "size": 216, "block_index": 112, "main_chain": true, "height": 112, "weight": 864, "tx": [{"hash": "3438117001eedca26a917571b11e684ab3a4b1ca172fdc0ccaa3cc439b211ead", "ver": 1, "vin_sz": 1, "vout_sz": 1, "size": 135, "weight": 540, "fee": 0, "relayed_by": "0.0.0.0", "lock_time": 0, "tx_index": 6091037582326164, "double_spend": false, "time": 1231670137, "block_index": 112, "block_height": 112, "inputs": [{"sequence": 4294967295, "witness": "", "script": "04ffff001d02aa00", "index": 0, "prev_out": null}], "out": [{"type": 0, "spent": false, "value": 5000000000, "spending_outpoints": [], "n": 0, "tx_index": 6091037582326164, "script": "4104bb12c362f9e454b2766affdc2bdcad548cb7e62202372365a38463798b47fcfc4f20321adb48c16a010dfb43fa5c80bc49d62a23d375d4c5a91cf29529266fe4ac", "addr": "1JNWvsrDf8mdH82Y7xp8yACDfm6TpVwZeM"}], "hex": "01000000010000000000000000000000000000000000000000000000000000000000000000ffffffff0804ffff001d02aa00ffffffff0100f2052a01000000434104bb12c362f9e454b2766affdc2bdcad548cb7e62202372365a38463798b47fcfc4f20321adb48c16a010dfb43fa5c80bc49d62a23d375d4c5a91cf29529266fe4ac00000000"}]}