{"hash": "00000000019176838de40606d70738084f2fbc48a50548eeeac3ceb857677c6d", "ver": 1, "prev_block": "00000000ce2780c9640fde662ffbb07a10c9e96a226718875225a9a0fe6ac337", "mrkl_root": "2190266c257e569eb34062471fd3d2327252ab5bdc6427dbc4531e2c8ac4e5e1", "time": 1231670975, "bits": 486604799, "next_block": ["000000005d7dd40c24c4b6334812f48d4386c7756fb9006d6c74300837c91ebd"], "fee": 0, "nonce": 18053892, "n_tx": 1, "size": 216, "block_index": 113, "main_chain": true, "height": 113, "weight": 864, "tx": [{"hash": "2190266c257e569eb34062471fd3d2327252ab5bdc6427dbc4531e2c8ac4e5e1", "ver": 1, "vin_sz": 1, "vout_sz": 1, "size": 135, "weight": 540, "fee": 0, "relayed_by": "0.0.0.0", "lock_time": 0, "tx_index": 7948062756799434, "double_spend": false, "time": 1231670975, "block_index": 113, "block_height": 113, "inputs": [{"sequence": 4294967295, "witness": "", "script": "04ffff001d02ab00", "index": 0, "prev_out": null}], "out": [{"type": 0, "spent": false, "value": 5000000000, "spending_outpoints": [], "n": 0, "tx_index": 7948062756799434, "script": "4104d8fc18bbf716dfdfe6775d83b1b91bdd6ae3fb07093788e96d36c65cff5812f2705e99228bc31e3338011359d96f7419a084d317431ce8a8103dcdc752716d43ac", "addr": "19K4cNVYVyNiwZ5xkzjW9ZtMb8XvBS2LkT"}], "hex": "01000000010000000000000000000000000000000000000000000000000000000000000000ffffffff0804ffff001d02ab00ffffffff0100f2052a01000000434104d8fc18bbf716dfdfe6775d83b1b91bdd6ae3fb07093788e96d36c65cff5812f2705e99228bc31e3338011359d96f7419a084d317431ce8a8103dcdc752716d43ac00000000"}]}