{"hash": "000000005d7dd40c24c4b6334812f48d4386c7756fb9006d6c74300837c91ebd", "ver": 1, "prev_block": "00000000019176838de40606d70738084f2fbc48a50548eeeac3ceb857677c6d", "mrkl_root": "ca7b0295546806c9b6631f8bc89ed0b55434ee5f8ce6198a918af18c6da9237c", "time": 1231671619, "bits": 486604799, "next_block": ["000000002c49a539fd73c253dbcd8afaa392bb36e02863bcca3e84456e05aec8"], "fee": 0, "nonce": 2979771436, "n_tx": 1, "size": 216, "block_index": 114, "main_chain": true, "height": 114, "weight": 864, "tx": [{"hash": "ca7b0295546806c9b6631f8bc89ed0b55434ee5f8ce6198a918af18c6da9237c", "ver": 1, "vin_sz": 1, "vout_sz": 1, "size": 135, "weight": 540, "fee": 0, "relayed_by": "0.0.0.0", "lock_time": 0, "tx_index": 4367763463314993, "double_spend": false, "time": 1231671619, "block_index": 114, "block_height": 114, "inputs": [{"sequence": 4294967295, "witness": "", "script": "04ffff001d02ae00", "index": 0, "prev_out": null}], "out": [{"type": 0, "spent": false, "value": 5000000000, "spending_outpoints": [], "n": 0, "tx_index": 4367763463314993, "script": "4104cd10ce592a9c4918948a5b4e92e9702e6c36eed1a627594f67066792b3a227cedba7be9df6e8117bee0499e243e4df90e13efdd8e14e1778e2247c0e16661057ac", "addr": "1NG4uecvtRyRx9eWxUaw6PVLPKMfDE7nz4"}], "hex": "01000000010000000000000000000000000000000000000000000000000000000000000000ffffffff0804ffff001d02ae00ffffffff0100f2052a01000000434104cd10ce592a9c4918948a5b4e92e9702e6c36eed1a627594f67066792b3a227cedba7be9df6e8117bee0499e243e4df90e13efdd8e14e1778e2247c0e16661057ac00000000"}]}