{"hash": "000000002c49a539fd73c253dbcd8afaa392bb36e02863bcca3e84456e05aec8", "ver": 1, "prev_block": "000000005d7dd40c24c4b6334812f48d4386c7756fb9006d6c74300837c91ebd", "mrkl_root": "3ed59485d7b1e1ded9c35a5a098611f5ddd7c1581923de11165b759b5fc8e0a4", "time": 1231671963, "bits": 486604799, "next_block": ["000000007bf2805ee06ee9d6eb1197a8818e7c36e47d9fb081ce8ae1206c3c71"], "fee": 0, "nonce": 2823413539, "n_tx": 1, "size": 216, "block_index": 115, "main_chain": true, "height": 115, "weight": 864, "tx": [{"hash": "3ed59485d7b1e1ded9c35a5a098611f5ddd7c1581923de11165b759b5fc8e0a4", "ver": 1, "vin_sz": 1, "vout_sz": 1, "size": 135, "weight": 540, "fee": 0, "relayed_by": "0.0.0.0", "lock_time": 0, "tx_index": 5801130922831531, "double_spend": false, "time": 1231671963, "block_index": 115, "block_height": 115, "inputs": [{"sequence": 4294967295, "witness": "", "script": "04ffff001d02af00", "index": 0, "prev_out": null}], "out": [{"type": 0, "spent": false, "value": 5000000000, "spending_outpoints": [], "n": 0, "tx_index": 5801130922831531, "script": "41047a36cf0b12caed035efce9c21f8067afb25c76f008d7f88071618691b3e1bc7be198d74a81f0e5bf37444024beb345d57d1be245cc1516eae397aeac49c02221ac", "addr": "14w8FgPQhPRuP4wnVpER9p9Cb7kYQWkzwY"}], "hex": "01000000010000000000000000000000000000000000000000000000000000000000000000ffffffff0804ffff001d02af00ffffffff0100f2052a010000004341047a36cf0b12caed035efce9c21f8067afb25c76f008d7f88071618691b3e1bc7be198d74a81f0e5bf37444024beb345d57d1be245cc1516eae397aeac49c02221ac00000000"}]}