{"hash": "000000007bf2805ee06ee9d6eb1197a8818e7c36e47d9fb081ce8ae1206c3c71", "ver": 1, "prev_block": "000000002c49a539fd73c253dbcd8afaa392bb36e02863bcca3e84456e05aec8", "mrkl_root": "5c8605699ca5c4ab9a4ff4054d04c253331f20e8f338a7482cde878f5b63bea9", "time": 1231672548, "bits": 486604799, "next_block": ["0000000099bf32f17e8d5103e990c108c6f2caa6bd17283a77ca026a8c3bc4c8"], "fee": 0, "nonce": 283744295, "n_tx": 1, "size": 216, "block_index": 116, "main_chain": true, "height": 116, "weight": 864, "tx": [{"hash": "5c8605699ca5c4ab9a4ff4054d04c253331f20e8f338a7482cde878f5b63bea9", "ver": 1, "vin_sz": 1, "vout_sz": 1, "size": 135, "weight": 540, "fee": 0, "relayed_by": "0.0.0.0", "lock_time": 0, "tx_index": 5972325626409211, "double_spend": false, "time": 1231672548, "block_index": 116, "block_height": 116, "inputs": [{"sequence": 4294967295, "witness": "", "script": "04ffff001d02b100", "index": 0, "prev_out": null}], "out": [{"type": 0, "spent": false, "value": 5000000000, "spending_outpoints": [], "n": 0, "tx_index": 5972325626409211, "script": "41048bdd0ed16efa3601791aa2eed35fb3706a5ed49696f2dccf768ac98673f28560c595dc064c752002c2ca4928348edc20d62499c5f8f5b1ec0225ceb4259368a9ac", "addr": "1MF2sw6Zan5p4ViuGdxRoNr48M5rFvHkqn"}], "hex": "01000000010000000000000000000000000000000000000000000000000000000000000000ffffffff0804ffff001d02b100ffffffff0100f2052a010000004341048bdd0ed16efa3601791aa2eed35fb3706a5ed49696f2dccf768ac98673f28560c595dc064c752002c2ca4928348edc20d62499c5f8f5b1ec0225ceb4259368a9ac00000000"}]}