{"hash": "0000000099bf32f17e8d5103e990c108c6f2caa6bd17283a77ca026a8c3bc4c8", "ver": 1, "prev_block": "000000007bf2805ee06ee9d6eb1197a8818e7c36e47d9fb081ce8ae1206c3c71", "mrkl_root": "bbbf6ee73ce663f04f74b2847f39f1ac6ecff085f6bad7b6a20bfd15f06143fb", "time": 1231673147, "bits": 486604799, "next_block": ["0000000054584932c3ac880b5dab1d76043eeb5df437ef468f627791cb1541f3"], "fee": 0, "nonce": 3339640109, "n_tx": 1, "size": 216, "block_index": 117, "main_chain": true, "height": 117, "weight": 864, "tx": [{"hash": "bbbf6ee73ce663f04f74b2847f39f1ac6ecff085f6bad7b6a20bfd15f06143fb", "ver": 1, "vin_sz": 1, "vout_sz": 1, "size": 135, "weight": 540, "fee": 0, "relayed_by": "0.0.0.0", "lock_time": 0, "tx_index": 8840538384154529, "double_spend": false, "time": 1231673147, "block_index": 117, "block_height": 117, "inputs": [{"sequence": 4294967295, "witness": "", "script": "04ffff001d02b800", "index": 0, "prev_out": null}], "out": [{"type": 0, "spent": false, "value": 5000000000, "spending_outpoints": [], "n": 0, "tx_index": 8840538384154529, "script": "4104f8f1b66e48a29fd15aa26741128bcf731646161b1603861526216c12ec3e89d2b3d34c3d747afccdfd4704a0972a5184151d9ce0776aab237e46f464c145fa04ac", "addr": "18NmcVxBKf5tZXuV5KijPTgbdguGohnBCV"}], "hex": "01000000010000000000000000000000000000000000000000000000000000000000000000ffffffff0804ffff001d02b800ffffffff0100f2052a01000000434104f8f1b66e48a29fd15aa26741128bcf731646161b1603861526216c12ec3e89d2b3d34c3d747afccdfd4704a0972a5184151d9ce0776aab237e46f464c145fa04ac00000000"}]}