{"hash": "0000000054584932c3ac880b5dab1d76043eeb5df437ef468f627791cb1541f3", "ver": 1, "prev_block": "0000000099bf32f17e8d5103e990c108c6f2caa6bd17283a77ca026a8c3bc4c8", "mrkl_root": "4451cf99a232a9f43f7726989789a4fa62e4ab14af507cbe864bf9bac64281c2", "time": 1231673484, "bits": 486604799, "next_block": ["00000000874690df6c40179f473fbe73aca69963823cc6b886e250bae690466a"], "fee": 0, "nonce": 819593243, "n_tx": 1, "size": 216, "block_index": 118, "main_chain": true, "height": 118, "weight": 864, "tx": [{"hash": "4451cf99a232a9f43f7726989789a4fa62e4ab14af507cbe864bf9bac64281c2", "ver": 1, "vin_sz": 1, "vout_sz": 1, "size": 135, "weight": 540, "fee": 0, "relayed_by": "0.0.0.0", "lock_time": 0, "tx_index": 6843533660479273, "double_spend": false, "time": 1231673484, "block_index": 118, "block_height": 118, "inputs": [{"sequence": 4294967295, "witness": "", "script": "04ffff001d02bf00", "index": 0, "prev_out": null}], "out": [{"type": 0, "spent": false, "value": 5000000000, "spending_outpoints": [], "n": 0, "tx_index": 6843533660479273, "script": "4104e6ee7fdd0e774bd612f713f46383da9a6a9d101f5a2c0f3fd7b370e0bbf016265466e06e0f9339882b6ef217e3f0cc319cbbddc604fbd70da4fb17f1ece3de85ac", "addr": "1N24Lobvo9BN4iGrm4SRhCUwpwd273dSfq"}], "hex": "01000000010000000000000000000000000000000000000000000000000000000000000000ffffffff0804ffff001d02bf00ffffffff0100f2052a01000000434104e6ee7fdd0e774bd612f713f46383da9a6a9d101f5a2c0f3fd7b370e0bbf016265466e06e0f9339882b6ef217e3f0cc319cbbddc604fbd70da4fb17f1ece3de85ac00000000"}]}