{"hash": "00000000874690df6c40179f473fbe73aca69963823cc6b886e250bae690466a", "ver": 1, "prev_block": "0000000054584932c3ac880b5dab1d76043eeb5df437ef468f627791cb1541f3", "mrkl_root": "3797c09006aaad367f7342e215820e499bfbb809f042c690fb7a71b8537c0868", "time": 1231674557, "bits": 486604799, "next_block": ["0000000068e1ce37e6d50d1e960255c00047d9c808146b77df2dc186ab1bc92a"], "fee": 0, "nonce": 1766761990, "n_tx": 1, "size": 216, "block_index": 119, "main_chain": true, "height": 119, "weight": 864, "tx": [{"hash": "3797c09006aaad367f7342e215820e499bfbb809f042c690fb7a71b8537c0868", "ver": 1, "vin_sz": 1, "vout_sz": 1, "size": 135, "weight": 540, "fee": 0, "relayed_by": "0.0.0.0", "lock_time": 0, "tx_index": 3660340956433967, "double_spend": false, "time": 1231674557, "block_index": 119, "block_height": 119, "inputs": [{"sequence": 4294967295, "witness": "", "script": "04ffff001d02c400", "index": 0, "prev_out": null}], "out": [{"type": 0, "spent": false, "value": 5000000000, "spending_outpoints": [], "n": 0, "tx_index": 3660340956433967, "script": "4104a1e6391bf1c13349210f9cc74788d4f07ee5051d92a039436ca42bb607017ac0e773ab7c2f91541f57e8323e84c2a61f10b8d1fa7762417ba099a745224a8e06ac", "addr": "1AUR9CVmm5wH8xc2EufyDpuA8HEZcSamhY"}], "hex": "01000000010000000000000000000000000000000000000000000000000000000000000000ffffffff0804ffff001d02c400ffffffff0100f2052a01000000434104a1e6391bf1c13349210f9cc74788d4f07ee5051d92a039436ca42bb607017ac0e773ab7c2f91541f57e8323e84c2a61f10b8d1fa7762417ba099a745224a8e06ac00000000"}]}