{"hash": "0000000027c2488e2510d1acf4369787784fa20ee084c258b58d9fbd43802b5e", "ver": 1, "prev_block": "0000000097be56d606cdd9c54b04d4747e957d3608abe69198c661f2add73073", "mrkl_root": "3b96bb7e197ef276b85131afd4a09c059cc368133a26ca04ebffb0ab4f75c8b8", "time": 1231474888, "bits": 486604799, "next_block": ["000000005c51de2031a895adc145ee2242e919a01c6d61fb222a54a54b4d3089"], "fee": 0, "nonce": 208296255, "n_tx": 1, "size": 215, "block_index": 12, "main_chain": true, "height": 12, "weight": 860, "tx": [{"hash": "3b96bb7e197ef276b85131afd4a09c059cc368133a26ca04ebffb0ab4f75c8b8", "ver": 1, "vin_sz": 1, "vout_sz": 1, "size": 134, "weight": 536, "fee": 0, "relayed_by": "0.0.0.0", "lock_time": 0, "tx_index": 6501475236017695, "double_spend": false, "time": 1231474888, "block_index": 12, "block_height": 12, "inputs": [{"sequence": 4294967295, "witness": "", "script": "04ffff001d010c", "index": 0, "prev_out": null}], "out": [{"type": 0, "spent": false, "value": 5000000000, "spending_outpoints": [], "n": 0, "tx_index": 6501475236017695, "script": "410478ebe2c28660cd2fa1ba17cc04e58d6312679005a7cad1fd56a7b7f4630bd700bcdb84a888a43fe1a2738ea1f3d2301d02faef357e8a5c35a706e4ae0352a6adac", "addr": "1PYELM7jXHy5HhatbXGXfRpGrgMMxmpobu"}], "hex": "01000000010000000000000000000000000000000000000000000000000000000000000000ffffffff0704ffff001d010cffffffff0100f2052a0100000043410478ebe2c28660cd2fa1ba17cc04e58d6312679005a7cad1fd56a7b7f4630bd700bcdb84a888a43fe1a2738ea1f3d2301d02faef357e8a5c35a706e4ae0352a6adac00000000"}]}