{"hash": "0000000068e1ce37e6d50d1e960255c00047d9c808146b77df2dc186ab1bc92a", "ver": 1, "prev_block": "00000000874690df6c40179f473fbe73aca69963823cc6b886e250bae690466a", "mrkl_root": "41d65efc188d9394e47987b39891254cdb35cdfbbcc5876193685994e8a6e6f5", "time": 1231675623, "bits": 486604799, "next_block": ["000000008a6086520151f1385c6f5a148572b0c36156d713b48e6e5b6330529b"], "fee": 0, "nonce": 4019953974, "n_tx": 1, "size": 216, "block_index": 120, "main_chain": true, "height": 120, "weight": 864, "tx": [{"hash": "41d65efc188d9394e47987b39891254cdb35cdfbbcc5876193685994e8a6e6f5", "ver": 1, "vin_sz": 1, "vout_sz": 1, "size": 135, "weight": 540, "fee": 0, "relayed_by": "0.0.0.0", "lock_time": 0, "tx_index": 8651871729388333, "double_spend": false, "time": 1231675623, "block_index": 120, "block_height": 120, "inputs": [{"sequence": 4294967295, "witness": "", "script": "04ffff001d02cc00", "index": 0, "prev_out": null}], "out": [{"type": 0, "spent": false, "value": 5000000000, "spending_outpoints": [], "n": 0, "tx_index": 8651871729388333, "script": "410414f296079b181ab76cd817f8583761d9ba5b00ca46f16eadfab8e0bb3a2b0420831cfea00b5cfcd97a12fd14b469d9385140d187d2bd8add9a1044685db9552bac", "addr": "1FeGetWU2tR2QSrxnpRwHGXGcxzhN6zQza"}], "hex": "01000000010000000000000000000000000000000000000000000000000000000000000000ffffffff0804ffff001d02cc00ffffffff0100f2052a0100000043410414f296079b181ab76cd817f8583761d9ba5b00ca46f16eadfab8e0bb3a2b0420831cfea00b5cfcd97a12fd14b469d9385140d187d2bd8add9a1044685db9552bac00000000"}]}