{"hash": "000000008a6086520151f1385c6f5a148572b0c36156d713b48e6e5b6330529b", "ver": 1, "prev_block": "0000000068e1ce37e6d50d1e960255c00047d9c808146b77df2dc186ab1bc92a", "mrkl_root": "38d907cc08db97a47c2a6e789daeaf6343fa107c5e03297a8bb709373ac17eff", "time": 1231676281, "bits": 486604799, "next_block": ["000000008d98d186565441057e87cc03251b95b9042956c9fb11325e2d4a847a"], "fee": 0, "nonce": 187514400, "n_tx": 1, "size": 216, "block_index": 121, "main_chain": true, "height": 121, "weight": 864, "tx": [{"hash": "38d907cc08db97a47c2a6e789daeaf6343fa107c5e03297a8bb709373ac17eff", "ver": 1, "vin_sz": 1, "vout_sz": 1, "size": 135, "weight": 540, "fee": 0, "relayed_by": "0.0.0.0", "lock_time": 0, "tx_index": 8989435928961334, "double_spend": false, "time": 1231676281, "block_index": 121, "block_height": 121, "inputs": [{"sequence": 4294967295, "witness": "", "script": "04ffff001d02d100", "index": 0, "prev_out": null}], "out": [{"type": 0, "spent": false, "value": 5000000000, "spending_outpoints": [], "n": 0, "tx_index": 8989435928961334, "script": "4104a1cf0c83c93ca840f97db5ceb2302c494afc81c75cb29ea1b42c8f7d6b94d8dbbc3f20521999f8d90ad0c83231fe6e9bfd4e6e1c88396ebeeb5260c467651e4fac", "addr": "1B7CyZF8e6TYzhNBSHy8yYuTRJNpMtNChg"}], "hex": "01000000010000000000000000000000000000000000000000000000000000000000000000ffffffff0804ffff001d02d100ffffffff0100f2052a01000000434104a1cf0c83c93ca840f97db5ceb2302c494afc81c75cb29ea1b42c8f7d6b94d8dbbc3f20521999f8d90ad0c83231fe6e9bfd4e6e1c88396ebeeb5260c467651e4fac00000000"}]}