{"hash": "000000008d98d186565441057e87cc03251b95b9042956c9fb11325e2d4a847a", "ver": 1, "prev_block": "000000008a6086520151f1385c6f5a148572b0c36156d713b48e6e5b6330529b", "mrkl_root": "d637b6d9c9847fb9fad159f6a60d6d8c93fc546f9fd61c317d61315bea9fdbef", "time": 1231676873, "bits": 486604799, "next_block": ["00000000a3bbe4fd1da16a29dbdaba01cc35d6fc74ee17f794cf3aab94f7aaa0"], "fee": 0, "nonce": 3487994399, "n_tx": 1, "size": 216, "block_index": 122, "main_chain": true, "height": 122, "weight": 864, "tx": [{"hash": "d637b6d9c9847fb9fad159f6a60d6d8c93fc546f9fd61c317d61315bea9fdbef", "ver": 1, "vin_sz": 1, "vout_sz": 1, "size": 135, "weight": 540, "fee": 0, "relayed_by": "0.0.0.0", "lock_time": 0, "tx_index": 8439249913996844, "double_spend": false, "time": 1231676873, "block_index": 122, "block_height": 122, "inputs": [{"sequence": 4294967295, "witness": "", "script": "04ffff001d02da00", "index": 0, "prev_out": null}], "out": [{"type": 0, "spent": false, "value": 5000000000, "spending_outpoints": [], "n": 0, "tx_index": 8439249913996844, "script": "41049345479778f20f34e515b68e02e3ed614ffc5f08b226ef1bbb7f6b9550dc0e753ba54b8842dfb290fdd5089928673118a546536f5275a18f5c243e6a9766f642ac", "addr": "1nQ5KafzA4DWGa327n8JnZ29q4PKg5Y7m"}], "hex": "01000000010000000000000000000000000000000000000000000000000000000000000000ffffffff0804ffff001d02da00ffffffff0100f2052a010000004341049345479778f20f34e515b68e02e3ed614ffc5f08b226ef1bbb7f6b9550dc0e753ba54b8842dfb290fdd5089928673118a546536f5275a18f5c243e6a9766f642ac00000000"}]}