{"hash": "00000000a3bbe4fd1da16a29dbdaba01cc35d6fc74ee17f794cf3aab94f7aaa0", "ver": 1, "prev_block": "000000008d98d186565441057e87cc03251b95b9042956c9fb11325e2d4a847a", "mrkl_root": "b944ef8c77f9b5f4a4276880f17256988bba4d0125abc54391548061a688ae09", "time": 1231677823, "bits": 486604799, "next_block": ["00000000ceae2b1cb578f066bd08c672fe87814880671c205febb2d624184f21"], "fee": 0, "nonce": 4094077204, "n_tx": 1, "size": 216, "block_index": 123, "main_chain": true, "height": 123, "weight": 864, "tx": [{"hash": "b944ef8c77f9b5f4a4276880f17256988bba4d0125abc54391548061a688ae09", "ver": 1, "vin_sz": 1, "vout_sz": 1, "size": 135, "weight": 540, "fee": 0, "relayed_by": "0.0.0.0", "lock_time": 0, "tx_index": 340647090073610, "double_spend": false, "time": 1231677823, "block_index": 123, "block_height": 123, "inputs": [{"sequence": 4294967295, "witness": "", "script": "04ffff001d02df00", "index": 0, "prev_out": null}], "out": [{"type": 0, "spent": false, "value": 5000000000, "spending_outpoints": [], "n": 0, "tx_index": 340647090073610, "script": "4104b715afd59b31be928e073e375a6196d654a78d9aa709789665dd4aecf1b85ebc850ffb90a1c04f18565afe0be4a042ff6629c398f674a5c632b017d793dc8e04ac", "addr": "1CT9huFgxMFveRvzZ7zPPJNoaMm2Fo64VH"}], "hex": "01000000010000000000000000000000000000000000000000000000000000000000000000ffffffff0804ffff001d02df00ffffffff0100f2052a01000000434104b715afd59b31be928e073e375a6196d654a78d9aa709789665dd4aecf1b85ebc850ffb90a1c04f18565afe0be4a042ff6629c398f674a5c632b017d793dc8e04ac00000000"}]}