{"hash": "00000000ceae2b1cb578f066bd08c672fe87814880671c205febb2d624184f21", "ver": 1, "prev_block": "00000000a3bbe4fd1da16a29dbdaba01cc35d6fc74ee17f794cf3aab94f7aaa0", "mrkl_root": "611b40973fe68cc42b70ae5af365a449af458d76086415c6fa6c45364c36278e", "time": 1231678278, "bits": 486604799, "next_block": ["000000002f4afd677b14f17a19ef5f9584155e7a43b0375c85a5d52b43959916"], "fee": 0, "nonce": 1878174981, "n_tx": 1, "size": 216, "block_index": 124, "main_chain": true, "height": 124, "weight": 864, "tx": [{"hash": "611b40973fe68cc42b70ae5af365a449af458d76086415c6fa6c45364c36278e", "ver": 1, "vin_sz": 1, "vout_sz": 1, "size": 135, "weight": 540, "fee": 0, "relayed_by": "0.0.0.0", "lock_time": 0, "tx_index": 5001570106656941, "double_spend": false, "time": 1231678278, "block_index": 124, "block_height": 124, "inputs": [{"sequence": 4294967295, "witness": "", "script": "04ffff001d02e900", "index": 0, "prev_out": null}], "out": [{"type": 0, "spent": false, "value": 5000000000, "spending_outpoints": [], "n": 0, "tx_index": 5001570106656941, "script": "41041fd091cdf05a34ffa28103adf83f399437d5bcf79fa07f55fe98f65a43a82e0ce5adbe6a3abb597d39573693453d8c1fac40ffb2ff2c9d9405940964d7cd6134ac", "addr": "1M7U7kbW9CY7znW6sSRzycgPCxr5LkJy2r"}], "hex": "01000000010000000000000000000000000000000000000000000000000000000000000000ffffffff0804ffff001d02e900ffffffff0100f2052a010000004341041fd091cdf05a34ffa28103adf83f399437d5bcf79fa07f55fe98f65a43a82e0ce5adbe6a3abb597d39573693453d8c1fac40ffb2ff2c9d9405940964d7cd6134ac00000000"}]}