{"hash": "000000002f4afd677b14f17a19ef5f9584155e7a43b0375c85a5d52b43959916", "ver": 1, "prev_block": "00000000ceae2b1cb578f066bd08c672fe87814880671c205febb2d624184f21", "mrkl_root": "0d4fe37aeb52ff6c01f119fe0cd42ee8f2366d9bf55c50ba8fe52e760dcbc96a", "time": 1231679255, "bits": 486604799, "next_block": ["000000007f5e80d3196ea9e3f0c0c0dc9d2b75af2d432df5ffe49956d34723fa"], "fee": 0, "nonce": 945837568, "n_tx": 1, "size": 216, "block_index": 125, "main_chain": true, "height": 125, "weight": 864, "tx": [{"hash": "0d4fe37aeb52ff6c01f119fe0cd42ee8f2366d9bf55c50ba8fe52e760dcbc96a", "ver": 1, "vin_sz": 1, "vout_sz": 1, "size": 135, "weight": 540, "fee": 0, "relayed_by": "0.0.0.0", "lock_time": 0, "tx_index": 3757277684090332, "double_spend": false, "time": 1231679255, "block_index": 125, "block_height": 125, "inputs": [{"sequence": 4294967295, "witness": "", "script": "04ffff001d02ed00", "index": 0, "prev_out": null}], "out": [{"type": 0, "spent": false, "value": 5000000000, "spending_outpoints": [], "n": 0, "tx_index": 3757277684090332, "script": "4104327083161527baf5626445d5e795665b260adf7ecc38b000ffba904a9377de16e77e8d3988ef86ba7d2e3faedc3813eebb9821b045d0f3ef0e6d2eacc2867e2cac", "addr": "1JRiK5gbEjTEAdFU2kYoQJRCMZgVCQgbpQ"}], "hex": "01000000010000000000000000000000000000000000000000000000000000000000000000ffffffff0804ffff001d02ed00ffffffff0100f2052a01000000434104327083161527baf5626445d5e795665b260adf7ecc38b000ffba904a9377de16e77e8d3988ef86ba7d2e3faedc3813eebb9821b045d0f3ef0e6d2eacc2867e2cac00000000"}]}