{"hash": "000000007f5e80d3196ea9e3f0c0c0dc9d2b75af2d432df5ffe49956d34723fa", "ver": 1, "prev_block": "000000002f4afd677b14f17a19ef5f9584155e7a43b0375c85a5d52b43959916", "mrkl_root": "28614aedbf551e1e4c0ba85cfae326a0b17c7fe0812a7e814d8612d9936e19c8", "time": 1231679899, "bits": 486604799, "next_block": ["00000000467a752a3365c86f267d340635e66703ad4071c61e9b394ef172665b"], "fee": 0, "nonce": 4127185952, "n_tx": 1, "size": 216, "block_index": 126, "main_chain": true, "height": 126, "weight": 864, "tx": [{"hash": "28614aedbf551e1e4c0ba85cfae326a0b17c7fe0812a7e814d8612d9936e19c8", "ver": 1, "vin_sz": 1, "vout_sz": 1, "size": 135, "weight": 540, "fee": 0, "relayed_by": "0.0.0.0", "lock_time": 0, "tx_index": 7040369757463120, "double_spend": false, "time": 1231679899, "block_index": 126, "block_height": 126, "inputs": [{"sequence": 4294967295, "witness": "", "script": "04ffff001d02f400", "index": 0, "prev_out": null}], "out": [{"type": 0, "spent": false, "value": 5000000000, "spending_outpoints": [], "n": 0, "tx_index": 7040369757463120, "script": "4104ddfeb7173ed20ae658efa0618fc2f0297f7e0345566bd936e6199807b3fe0560dd1a27d8f7e4b7b8a944653df5c55bc50ab563b5346ac21deffd1a1701564164ac", "addr": "1PwcmHdjVFfQgXpd6V4BGzRY7yLBvGb4eK"}], "hex": "01000000010000000000000000000000000000000000000000000000000000000000000000ffffffff0804ffff001d02f400ffffffff0100f2052a01000000434104ddfeb7173ed20ae658efa0618fc2f0297f7e0345566bd936e6199807b3fe0560dd1a27d8f7e4b7b8a944653df5c55bc50ab563b5346ac21deffd1a1701564164ac00000000"}]}