{"hash": "00000000467a752a3365c86f267d340635e66703ad4071c61e9b394ef172665b", "ver": 1, "prev_block": "000000007f5e80d3196ea9e3f0c0c0dc9d2b75af2d432df5ffe49956d34723fa", "mrkl_root": "0a4820413c11c1b9d28bff885a155da7ed1fcaf784d22f5b46796e2c4e83ace1", "time": 1231681965, "bits": 486604799, "next_block": ["00000000dda07b33ea6dc860805e868c05f8ffa2e8d35a8157a51ec64f0818f0"], "fee": 0, "nonce": 397110364, "n_tx": 1, "size": 215, "block_index": 127, "main_chain": true, "height": 127, "weight": 860, "tx": [{"hash": "0a4820413c11c1b9d28bff885a155da7ed1fcaf784d22f5b46796e2c4e83ace1", "ver": 1, "vin_sz": 1, "vout_sz": 1, "size": 134, "weight": 536, "fee": 0, "relayed_by": "0.0.0.0", "lock_time": 0, "tx_index": 7940193714015695, "double_spend": false, "time": 1231681965, "block_index": 127, "block_height": 127, "inputs": [{"sequence": 4294967295, "witness": "", "script": "04ffff001d0106", "index": 0, "prev_out": null}], "out": [{"type": 0, "spent": false, "value": 5000000000, "spending_outpoints": [], "n": 0, "tx_index": 7940193714015695, "script": "4104b2b6f8c1d7e46577bd0fa1357cd5fb900a05f07838e6e0c61e04944c2878e96cc4eefcfaeb2bf9fc15e9a460d3a9fc1e3468d16a254ce0e2d38768be729f604dac", "addr": "15kHBARv1ZaCrmyExVUn6Uh7wnJVXveF8A"}], "hex": "01000000010000000000000000000000000000000000000000000000000000000000000000ffffffff0704ffff001d0106ffffffff0100f2052a01000000434104b2b6f8c1d7e46577bd0fa1357cd5fb900a05f07838e6e0c61e04944c2878e96cc4eefcfaeb2bf9fc15e9a460d3a9fc1e3468d16a254ce0e2d38768be729f604dac00000000"}]}