{"hash": "00000000dda07b33ea6dc860805e868c05f8ffa2e8d35a8157a51ec64f0818f0", "ver": 1, "prev_block": "00000000467a752a3365c86f267d340635e66703ad4071c61e9b394ef172665b", "mrkl_root": "5f9aa6e1717102b9a059c223901fa36842c8a9db462d58a0ba71177c9ed9febc", "time": 1231682091, "bits": 486604799, "next_block": ["000000001884b26b0a2482be00f3dc03131154430462453c7193b6079daaf0eb"], "fee": 0, "nonce": 711997478, "n_tx": 1, "size": 215, "block_index": 128, "main_chain": true, "height": 128, "weight": 860, "tx": [{"hash": "5f9aa6e1717102b9a059c223901fa36842c8a9db462d58a0ba71177c9ed9febc", "ver": 1, "vin_sz": 1, "vout_sz": 1, "size": 134, "weight": 536, "fee": 0, "relayed_by": "0.0.0.0", "lock_time": 0, "tx_index": 6649688280236782, "double_spend": false, "time": 1231682091, "block_index": 128, "block_height": 128, "inputs": [{"sequence": 4294967295, "witness": "", "script": "04ffff001d0109", "index": 0, "prev_out": null}], "out": [{"type": 0, "spent": false, "value": 5000000000, "spending_outpoints": [], "n": 0, "tx_index": 6649688280236782, "script": "4104076258c08254b7a4d8765afe658ca545827e9bfbc0c31c90377cf3459f2b4d83ef008867a1d28cee7f7ee40d6a47fcb2f271934762d23b44576125e87ce6bc03ac", "addr": "135S6YvALYCydS6R82hWi967f3xUnWVQ3S"}], "hex": "01000000010000000000000000000000000000000000000000000000000000000000000000ffffffff0704ffff001d0109ffffffff0100f2052a01000000434104076258c08254b7a4d8765afe658ca545827e9bfbc0c31c90377cf3459f2b4d83ef008867a1d28cee7f7ee40d6a47fcb2f271934762d23b44576125e87ce6bc03ac00000000"}]}