{"hash": "000000001884b26b0a2482be00f3dc03131154430462453c7193b6079daaf0eb", "ver": 1, "prev_block": "00000000dda07b33ea6dc860805e868c05f8ffa2e8d35a8157a51ec64f0818f0", "mrkl_root": "9a1f38fa9f25bb77504cfda998c4742b5a22466acb32ebedb247bd284682a5be", "time": 1231683160, "bits": 486604799, "next_block": ["00000000a639917e11de9c36aa5d2e5f3352c2fcef06729ac9540b84837c59a1"], "fee": 0, "nonce": 1805656598, "n_tx": 1, "size": 215, "block_index": 129, "main_chain": true, "height": 129, "weight": 860, "tx": [{"hash": "9a1f38fa9f25bb77504cfda998c4742b5a22466acb32ebedb247bd284682a5be", "ver": 1, "vin_sz": 1, "vout_sz": 1, "size": 134, "weight": 536, "fee": 0, "relayed_by": "0.0.0.0", "lock_time": 0, "tx_index": 6707778064553896, "double_spend": false, "time": 1231683160, "block_index": 129, "block_height": 129, "inputs": [{"sequence": 4294967295, "witness": "", "script": "04ffff001d010c", "index": 0, "prev_out": null}], "out": [{"type": 0, "spent": false, "value": 5000000000, "spending_outpoints": [], "n": 0, "tx_index": 6707778064553896, "script": "410406e1974e271c855216c07ebf6594c18e06e73d99bfd7a54b391b24a8a29536fc7ce68b349bf098c623a6b219ca83f0422bc20653c3e201fa5a7e820abed4f30fac", "addr": "1BF5nbuKF3UTYCQTpxuH62UA8WJWAqQKo5"}], "hex": "01000000010000000000000000000000000000000000000000000000000000000000000000ffffffff0704ffff001d010cffffffff0100f2052a0100000043410406e1974e271c855216c07ebf6594c18e06e73d99bfd7a54b391b24a8a29536fc7ce68b349bf098c623a6b219ca83f0422bc20653c3e201fa5a7e820abed4f30fac00000000"}]}