{"hash": "00000000a639917e11de9c36aa5d2e5f3352c2fcef06729ac9540b84837c59a1", "ver": 1, "prev_block": "000000001884b26b0a2482be00f3dc03131154430462453c7193b6079daaf0eb", "mrkl_root": "9200bf5bccb0e27e20939be38d83e4b1d337e219e0e254a4d0c57a1a9973ba36", "time": 1231684125, "bits": 486604799, "next_block": ["00000000c022945291aca0d76b730dccbb0161ac83fa86feaea192d5c70cce67"], "fee": 0, "nonce": 4112489989, "n_tx": 1, "size": 215, "block_index": 130, "main_chain": true, "height": 130, "weight": 860, "tx": [{"hash": "9200bf5bccb0e27e20939be38d83e4b1d337e219e0e254a4d0c57a1a9973ba36", "ver": 1, "vin_sz": 1, "vout_sz": 1, "size": 134, "weight": 536, "fee": 0, "relayed_by": "0.0.0.0", "lock_time": 0, "tx_index": 1925581799378776, "double_spend": false, "time": 1231684125, "block_index": 130, "block_height": 130, "inputs": [{"sequence": 4294967295, "witness": "", "script": "04ffff001d0115", "index": 0, "prev_out": null}], "out": [{"type": 0, "spent": false, "value": 5000000000, "spending_outpoints": [], "n": 0, "tx_index": 1925581799378776, "script": "41046a69b845c9932aec279e8be18bb5a634f281e403e5a4d2acae4bafd91a50d07324fa27e8d514dddc94d7a4c2cd93514a928390cc260ff6b834190077d09879ecac", "addr": "1PZnnfPq3EpcGZZyiX8WCbEhm9amzpjTYr"}], "hex": "01000000010000000000000000000000000000000000000000000000000000000000000000ffffffff0704ffff001d0115ffffffff0100f2052a010000004341046a69b845c9932aec279e8be18bb5a634f281e403e5a4d2acae4bafd91a50d07324fa27e8d514dddc94d7a4c2cd93514a928390cc260ff6b834190077d09879ecac00000000"}]}