{"hash": "00000000c022945291aca0d76b730dccbb0161ac83fa86feaea192d5c70cce67", "ver": 1, "prev_block": "00000000a639917e11de9c36aa5d2e5f3352c2fcef06729ac9540b84837c59a1", "mrkl_root": "9a9699147493e8528df46eb9a3216ad1ab64fd733fa3f8f3d55908ad7ec41ff9", "time": 1231684725, "bits": 486604799, "next_block": ["000000007fa3a39f556782005d5f041b9e6e0e8c1bfbbfc9be81437e5537ba17"], "fee": 0, "nonce": 237559704, "n_tx": 1, "size": 215, "block_index": 131, "main_chain": true, "height": 131, "weight": 860, "tx": [{"hash": "9a9699147493e8528df46eb9a3216ad1ab64fd733fa3f8f3d55908ad7ec41ff9", "ver": 1, "vin_sz": 1, "vout_sz": 1, "size": 134, "weight": 536, "fee": 0, "relayed_by": "0.0.0.0", "lock_time": 0, "tx_index": 8765274750034187, "double_spend": false, "time": 1231684725, "block_index": 131, "block_height": 131, "inputs": [{"sequence": 4294967295, "witness": "", "script": "04ffff001d010a", "index": 0, "prev_out": null}], "out": [{"type": 0, "spent": false, "value": 5000000000, "spending_outpoints": [], "n": 0, "tx_index": 8765274750034187, "script": "410412b101ed7705dadd2e40ba19c393fa8bf148665f12b03c22e26633452933078acc0aee85f81705ac43aab5f286024917444b117a420435a0839a65e67360639eac", "addr": "13aK6boaLbWkyLsDBmNZnUGhzh4iL2vQky"}], "hex": "01000000010000000000000000000000000000000000000000000000000000000000000000ffffffff0704ffff001d010affffffff0100f2052a0100000043410412b101ed7705dadd2e40ba19c393fa8bf148665f12b03c22e26633452933078acc0aee85f81705ac43aab5f286024917444b117a420435a0839a65e67360639eac00000000"}]}