{"hash": "000000007fa3a39f556782005d5f041b9e6e0e8c1bfbbfc9be81437e5537ba17", "ver": 1, "prev_block": "00000000c022945291aca0d76b730dccbb0161ac83fa86feaea192d5c70cce67", "mrkl_root": "0f1bb85ed4cdf6bc13491b23afb924bb9ac556fb1db246d09252443a66a2a9e4", "time": 1231685008, "bits": 486604799, "next_block": ["00000000f07b7bf9f822bbf60da65ca37459597023c8f128642fec83c13ee9f8"], "fee": 0, "nonce": 2357454617, "n_tx": 1, "size": 215, "block_index": 132, "main_chain": true, "height": 132, "weight": 860, "tx": [{"hash": "0f1bb85ed4cdf6bc13491b23afb924bb9ac556fb1db246d09252443a66a2a9e4", "ver": 1, "vin_sz": 1, "vout_sz": 1, "size": 134, "weight": 536, "fee": 0, "relayed_by": "0.0.0.0", "lock_time": 0, "tx_index": 8045351206865034, "double_spend": false, "time": 1231685008, "block_index": 132, "block_height": 132, "inputs": [{"sequence": 4294967295, "witness": "", "script": "04ffff001d0120", "index": 0, "prev_out": null}], "out": [{"type": 0, "spent": false, "value": 5000000000, "spending_outpoints": [], "n": 0, "tx_index": 8045351206865034, "script": "41047305f4965c82a34e51e02de3f85dd5bdd70a8436fb32eb3faf44254efad9229153df556ec2c9c6afe9743a39057323c728102ea7ef6c51fbf29d6d8d8156fd0dac", "addr": "1GPhCZpM72YrpkZVqQECpT6eKprKFEwkSH"}], "hex": "01000000010000000000000000000000000000000000000000000000000000000000000000ffffffff0704ffff001d0120ffffffff0100f2052a010000004341047305f4965c82a34e51e02de3f85dd5bdd70a8436fb32eb3faf44254efad9229153df556ec2c9c6afe9743a39057323c728102ea7ef6c51fbf29d6d8d8156fd0dac00000000"}]}