{"hash": "00000000f07b7bf9f822bbf60da65ca37459597023c8f128642fec83c13ee9f8", "ver": 1, "prev_block": "000000007fa3a39f556782005d5f041b9e6e0e8c1bfbbfc9be81437e5537ba17", "mrkl_root": "08648614555595f23ea51c8c018777ac0601e328d7784e41a18408863d98500d", "time": 1231685667, "bits": 486604799, "next_block": ["000000008b531a4e66ea3065d1f3368f27780b97b5070c1498dc43497a473c3a"], "fee": 0, "nonce": 1507157762, "n_tx": 1, "size": 215, "block_index": 133, "main_chain": true, "height": 133, "weight": 860, "tx": [{"hash": "08648614555595f23ea51c8c018777ac0601e328d7784e41a18408863d98500d", "ver": 1, "vin_sz": 1, "vout_sz": 1, "size": 134, "weight": 536, "fee": 0, "relayed_by": "0.0.0.0", "lock_time": 0, "tx_index": 468473686835472, "double_spend": false, "time": 1231685667, "block_index": 133, "block_height": 133, "inputs": [{"sequence": 4294967295, "witness": "", "script": "04ffff001d0121", "index": 0, "prev_out": null}], "out": [{"type": 0, "spent": false, "value": 5000000000, "spending_outpoints": [], "n": 0, "tx_index": 468473686835472, "script": "41047d2efa0dd72e9626e0b1daa5815c6830d4373e204c38c94a8264d7189b0d5e4221ef298e8f0e39ced8200f1b663ea91002d8dbc08e5ac1bf1a388798e287a679ac", "addr": "1PpU2yx6CSruakyYjckH8eUJWAH1XUQ7ZM"}], "hex": "01000000010000000000000000000000000000000000000000000000000000000000000000ffffffff0704ffff001d0121ffffffff0100f2052a010000004341047d2efa0dd72e9626e0b1daa5815c6830d4373e204c38c94a8264d7189b0d5e4221ef298e8f0e39ced8200f1b663ea91002d8dbc08e5ac1bf1a388798e287a679ac00000000"}]}