{"hash": "000000008b531a4e66ea3065d1f3368f27780b97b5070c1498dc43497a473c3a", "ver": 1, "prev_block": "00000000f07b7bf9f822bbf60da65ca37459597023c8f128642fec83c13ee9f8", "mrkl_root": "0531b1aae949e997105507732ed7c76eae5c9ea987d7a4f7c45e7a28c36cab28", "time": 1231686121, "bits": 486604799, "next_block": ["000000007dabe608fd4225d279d268f431eed773f03d0a524f1cb079989ff93a"], "fee": 0, "nonce": 3601960728, "n_tx": 1, "size": 215, "block_index": 134, "main_chain": true, "height": 134, "weight": 860, "tx": [{"hash": "0531b1aae949e997105507732ed7c76eae5c9ea987d7a4f7c45e7a28c36cab28", "ver": 1, "vin_sz": 1, "vout_sz": 1, "size": 134, "weight": 536, "fee": 0, "relayed_by": "0.0.0.0", "lock_time": 0, "tx_index": 1430935335931723, "double_spend": false, "time": 1231686121, "block_index": 134, "block_height": 134, "inputs": [{"sequence": 4294967295, "witness": "", "script": "04ffff001d0123", "index": 0, "prev_out": null}], "out": [{"type": 0, "spent": false, "value": 5000000000, "spending_outpoints": [], "n": 0, "tx_index": 1430935335931723, "script": "4104c6b07a546993c948cbddf21bfa3585a9ca65fbcee25ef44c4f298442b2363b738318975158d390c9f56870ddbc50118d391b35d01db25b7931f305d0deda73f3ac", "addr": "13pS5WuihmpE7WMQAZkFdvfvVo1NDp7R7V"}], "hex": "01000000010000000000000000000000000000000000000000000000000000000000000000ffffffff0704ffff001d0123ffffffff0100f2052a01000000434104c6b07a546993c948cbddf21bfa3585a9ca65fbcee25ef44c4f298442b2363b738318975158d390c9f56870ddbc50118d391b35d01db25b7931f305d0deda73f3ac00000000"}]}