{"hash": "000000007dabe608fd4225d279d268f431eed773f03d0a524f1cb079989ff93a", "ver": 1, "prev_block": "000000008b531a4e66ea3065d1f3368f27780b97b5070c1498dc43497a473c3a", "mrkl_root": "f2a9c8b6b9361b21ee2f28672053ba0080b2bbbcb767ad34eb0c4d614d54014a", "time": 1231686376, "bits": 486604799, "next_block": ["00000000b8885739dee79a5530ff50fceaea8db5d863507420aa0ef21f84ba79"], "fee": 0, "nonce": 2356769316, "n_tx": 1, "size": 215, "block_index": 135, "main_chain": true, "height": 135, "weight": 860, "tx": [{"hash": "f2a9c8b6b9361b21ee2f28672053ba0080b2bbbcb767ad34eb0c4d614d54014a", "ver": 1, "vin_sz": 1, "vout_sz": 1, "size": 134, "weight": 536, "fee": 0, "relayed_by": "0.0.0.0", "lock_time": 0, "tx_index": 2603826232961441, "double_spend": false, "time": 1231686376, "block_index": 135, "block_height": 135, "inputs": [{"sequence": 4294967295, "witness": "", "script": "04ffff001d0124", "index": 0, "prev_out": null}], "out": [{"type": 0, "spent": false, "value": 5000000000, "spending_outpoints": [], "n": 0, "tx_index": 2603826232961441, "script": "41041deab4b7de0843e4550430b01dfc20540ac1f44dec5d93238afefafd19e963dfa984f35a4750223b03f60c1539b8fa752048a6a465e00915ebd99fe5906fe966ac", "addr": "1EDV8iD4cDZbKxZu6UGAPW5i2ytQmR5xoQ"}], "hex": "01000000010000000000000000000000000000000000000000000000000000000000000000ffffffff0704ffff001d0124ffffffff0100f2052a010000004341041deab4b7de0843e4550430b01dfc20540ac1f44dec5d93238afefafd19e963dfa984f35a4750223b03f60c1539b8fa752048a6a465e00915ebd99fe5906fe966ac00000000"}]}