{"hash": "00000000b8885739dee79a5530ff50fceaea8db5d863507420aa0ef21f84ba79", "ver": 1, "prev_block": "000000007dabe608fd4225d279d268f431eed773f03d0a524f1cb079989ff93a", "mrkl_root": "503b849e628ef733ee0b0d9dc152f96e78a083afaee5c84298c2855e1d80c9f1", "time": 1231686868, "bits": 486604799, "next_block": ["0000000064cc28514d6152b3c1c111424ad227fadff41da947a99535a83a824a"], "fee": 0, "nonce": 1131179545, "n_tx": 1, "size": 215, "block_index": 136, "main_chain": true, "height": 136, "weight": 860, "tx": [{"hash": "503b849e628ef733ee0b0d9dc152f96e78a083afaee5c84298c2855e1d80c9f1", "ver": 1, "vin_sz": 1, "vout_sz": 1, "size": 134, "weight": 536, "fee": 0, "relayed_by": "0.0.0.0", "lock_time": 0, "tx_index": 8507127684124856, "double_spend": false, "time": 1231686868, "block_index": 136, "block_height": 136, "inputs": [{"sequence": 4294967295, "witness": "", "script": "04ffff001d0127", "index": 0, "prev_out": null}], "out": [{"type": 0, "spent": false, "value": 5000000000, "spending_outpoints": [], "n": 0, "tx_index": 8507127684124856, "script": "4104d0bfd22f75e7b082538b756300ace24ecbb752956f3cde8851a8e1e14259cf5c91c98e437f099b0f3302a2997e456c819debb007a235ee7d0a2d07b4f0c7e7efac", "addr": "1MMFzwh3r5fxNwpTZvm6iZReX7RUwZxnaY"}], "hex": "01000000010000000000000000000000000000000000000000000000000000000000000000ffffffff0704ffff001d0127ffffffff0100f2052a01000000434104d0bfd22f75e7b082538b756300ace24ecbb752956f3cde8851a8e1e14259cf5c91c98e437f099b0f3302a2997e456c819debb007a235ee7d0a2d07b4f0c7e7efac00000000"}]}