{"hash": "0000000064cc28514d6152b3c1c111424ad227fadff41da947a99535a83a824a", "ver": 1, "prev_block": "00000000b8885739dee79a5530ff50fceaea8db5d863507420aa0ef21f84ba79", "mrkl_root": "882b98507359823f93cf9830ee90e192c62d4964c16297c6dc3bf525d27a53cb", "time": 1231687155, "bits": 486604799, "next_block": ["00000000499c3e522e95be30db6826524905e3bd95910e8011c4f624e35bd0fa"], "fee": 0, "nonce": 2359070776, "n_tx": 1, "size": 215, "block_index": 137, "main_chain": true, "height": 137, "weight": 860, "tx": [{"hash": "882b98507359823f93cf9830ee90e192c62d4964c16297c6dc3bf525d27a53cb", "ver": 1, "vin_sz": 1, "vout_sz": 1, "size": 134, "weight": 536, "fee": 0, "relayed_by": "0.0.0.0", "lock_time": 0, "tx_index": 7153900906135207, "double_spend": false, "time": 1231687155, "block_index": 137, "block_height": 137, "inputs": [{"sequence": 4294967295, "witness": "", "script": "04ffff001d0129", "index": 0, "prev_out": null}], "out": [{"type": 0, "spent": false, "value": 5000000000, "spending_outpoints": [], "n": 0, "tx_index": 7153900906135207, "script": "4104fb2748e60e5c8e202d15e3576194c81c19e49e2a2ef7976ef2bf1443ea66fc3e36f1299bc57b5b242424240d75e00a951880c93b871d6a262222dae42a1a374fac", "addr": "1FdgjwkXbQc1gpHjpHyZNY85vdyQyFfBbg"}], "hex": "01000000010000000000000000000000000000000000000000000000000000000000000000ffffffff0704ffff001d0129ffffffff0100f2052a01000000434104fb2748e60e5c8e202d15e3576194c81c19e49e2a2ef7976ef2bf1443ea66fc3e36f1299bc57b5b242424240d75e00a951880c93b871d6a262222dae42a1a374fac00000000"}]}