{"hash": "00000000499c3e522e95be30db6826524905e3bd95910e8011c4f624e35bd0fa", "ver": 1, "prev_block": "0000000064cc28514d6152b3c1c111424ad227fadff41da947a99535a83a824a", "mrkl_root": "d813666ec8d5d1b7ec5fb99e69b4d669470b43c1ee0218ecec0b2238d8f8a7d9", "time": 1231687693, "bits": 486604799, "next_block": ["00000000d8b8cf67b07679b59e46aeaedd7358f0fa70e2ef8ac347fdcb731f1d"], "fee": 0, "nonce": 2099528988, "n_tx": 1, "size": 215, "block_index": 138, "main_chain": true, "height": 138, "weight": 860, "tx": [{"hash": "d813666ec8d5d1b7ec5fb99e69b4d669470b43c1ee0218ecec0b2238d8f8a7d9", "ver": 1, "vin_sz": 1, "vout_sz": 1, "size": 134, "weight": 536, "fee": 0, "relayed_by": "0.0.0.0", "lock_time": 0, "tx_index": 7658094645937217, "double_spend": false, "time": 1231687693, "block_index": 138, "block_height": 138, "inputs": [{"sequence": 4294967295, "witness": "", "script": "04ffff001d012c", "index": 0, "prev_out": null}], "out": [{"type": 0, "spent": false, "value": 5000000000, "spending_outpoints": [], "n": 0, "tx_index": 7658094645937217, "script": "4104313655b2aed748f03cf6e718fa87ce259f35033b5f0933bf990019f5b7a5e1725c5388686186b2bda9512d90d920fdfd998d690622f2e9e43005942f80e205ccac", "addr": "1HRRURSfxj8NntfzcPT4ajz7uBefLuwLmB"}], "hex": "01000000010000000000000000000000000000000000000000000000000000000000000000ffffffff0704ffff001d012cffffffff0100f2052a01000000434104313655b2aed748f03cf6e718fa87ce259f35033b5f0933bf990019f5b7a5e1725c5388686186b2bda9512d90d920fdfd998d690622f2e9e43005942f80e205ccac00000000"}]}