{"hash": "00000000d8b8cf67b07679b59e46aeaedd7358f0fa70e2ef8ac347fdcb731f1d", "ver": 1, "prev_block": "00000000499c3e522e95be30db6826524905e3bd95910e8011c4f624e35bd0fa", "mrkl_root": "65874fda54b304d965905765a590fac1ba46585a38e3e5e48db216476caf011d", "time": 1231688158, "bits": 486604799, "next_block": ["00000000b09816342f1f080ca651552cd7d5ac3cf23e28ebe1af416ebd3b0395"], "fee": 0, "nonce": 3799014406, "n_tx": 1, "size": 215, "block_index": 139, "main_chain": true, "height": 139, "weight": 860, "tx": [{"hash": "65874fda54b304d965905765a590fac1ba46585a38e3e5e48db216476caf011d", "ver": 1, "vin_sz": 1, "vout_sz": 1, "size": 134, "weight": 536, "fee": 0, "relayed_by": "0.0.0.0", "lock_time": 0, "tx_index": 1020578409013974, "double_spend": false, "time": 1231688158, "block_index": 139, "block_height": 139, "inputs": [{"sequence": 4294967295, "witness": "", "script": "04ffff001d012d", "index": 0, "prev_out": null}], "out": [{"type": 0, "spent": false, "value": 5000000000, "spending_outpoints": [], "n": 0, "tx_index": 1020578409013974, "script": "4104a624f45c0b4b75bc784748ce8affe84de70556cfdb9cb69f861363699047701b9336ecc9f34eab351b28b2691bf69e5afc2e40b05cc6fa4a8ff377cff0d9dfb2ac", "addr": "1G6RMmurphMJg6wyobQSzC2az9zZ3VipXE"}], "hex": "01000000010000000000000000000000000000000000000000000000000000000000000000ffffffff0704ffff001d012dffffffff0100f2052a01000000434104a624f45c0b4b75bc784748ce8affe84de70556cfdb9cb69f861363699047701b9336ecc9f34eab351b28b2691bf69e5afc2e40b05cc6fa4a8ff377cff0d9dfb2ac00000000"}]}