{"hash": "0000000080f17a0c5a67f663a9bc9969eb37e81666d9321125f0e293656f8a37", "ver": 1, "prev_block": "000000005c51de2031a895adc145ee2242e919a01c6d61fb222a54a54b4d3089", "mrkl_root": "e1afd89295b68bc5247fe0ca2885dd4b8818d7ce430faa615067d7bab8640156", "time": 1231475589, "bits": 486604799, "next_block": ["00000000b3322c8c3ef7d2cf6da009a776e6a99ee65ec5a32f3f345712238473"], "fee": 0, "nonce": 615369513, "n_tx": 1, "size": 215, "block_index": 14, "main_chain": true, "height": 14, "weight": 860, "tx": [{"hash": "e1afd89295b68bc5247fe0ca2885dd4b8818d7ce430faa615067d7bab8640156", "ver": 1, "vin_sz": 1, "vout_sz": 1, "size": 134, "weight": 536, "fee": 0, "relayed_by": "0.0.0.0", "lock_time": 0, "tx_index": 3026047513090796, "double_spend": false, "time": 1231475589, "block_index": 14, "block_height": 14, "inputs": [{"sequence": 4294967295, "witness": "", "script": "04ffff001d013e", "index": 0, "prev_out": null}], "out": [{"type": 0, "spent": false, "value": 5000000000, "spending_outpoints": [], "n": 0, "tx_index": 3026047513090796, "script": "41043e8ac6b8ea64e85928b6469f17db0096de0bcae7d09a4497413d9bba49c00ffdf9cb0ce07c404784928b3976f0beea42fe2691a8f0430bcb2b0daaf5aa02b30eac", "addr": "1DMGtVnRrgZaji7C9noZS3a1QtoaAN2uRG"}], "hex": "01000000010000000000000000000000000000000000000000000000000000000000000000ffffffff0704ffff001d013effffffff0100f2052a010000004341043e8ac6b8ea64e85928b6469f17db0096de0bcae7d09a4497413d9bba49c00ffdf9cb0ce07c404784928b3976f0beea42fe2691a8f0430bcb2b0daaf5aa02b30eac00000000"}]}