{"hash": "00000000b09816342f1f080ca651552cd7d5ac3cf23e28ebe1af416ebd3b0395", "ver": 1, "prev_block": "00000000d8b8cf67b07679b59e46aeaedd7358f0fa70e2ef8ac347fdcb731f1d", "mrkl_root": "0e9639e3e6161c7c2917aa114fd6695e92c35f1c6acc6ad8489e3e44683727d5", "time": 1231689563, "bits": 486604799, "next_block": ["00000000a83dac69280eec98d9e650a3c69f0db88a3abf68b4c008b373af0ee5"], "fee": 0, "nonce": 2576990506, "n_tx": 1, "size": 215, "block_index": 140, "main_chain": true, "height": 140, "weight": 860, "tx": [{"hash": "0e9639e3e6161c7c2917aa114fd6695e92c35f1c6acc6ad8489e3e44683727d5", "ver": 1, "vin_sz": 1, "vout_sz": 1, "size": 134, "weight": 536, "fee": 0, "relayed_by": "0.0.0.0", "lock_time": 0, "tx_index": 7499661120669651, "double_spend": false, "time": 1231689563, "block_index": 140, "block_height": 140, "inputs": [{"sequence": 4294967295, "witness": "", "script": "04ffff001d014d", "index": 0, "prev_out": null}], "out": [{"type": 0, "spent": false, "value": 5000000000, "spending_outpoints": [], "n": 0, "tx_index": 7499661120669651, "script": "41040890f2990714393514c898eaa61353163aa4c2ac5be0cb78c8ffe0b3486d580c5c3ec584f303c04429ecb537144ca28def1a61e0213fbb3c15de9572f8cacdc0ac", "addr": "1ArDoL42A6ZZdudpogut2NUGcwxhRj42S8"}], "hex": "01000000010000000000000000000000000000000000000000000000000000000000000000ffffffff0704ffff001d014dffffffff0100f2052a010000004341040890f2990714393514c898eaa61353163aa4c2ac5be0cb78c8ffe0b3486d580c5c3ec584f303c04429ecb537144ca28def1a61e0213fbb3c15de9572f8cacdc0ac00000000"}]}