{"hash": "00000000a83dac69280eec98d9e650a3c69f0db88a3abf68b4c008b373af0ee5", "ver": 1, "prev_block": "00000000b09816342f1f080ca651552cd7d5ac3cf23e28ebe1af416ebd3b0395", "mrkl_root": "b0a8291efa1dcd99cf58b5216c4105283b9a482b2f2d821ce00a52ced4908444", "time": 1231690260, "bits": 486604799, "next_block": ["00000000d93e4c9b4340fae149648a7abc4c914f95a77458dafe03bc211900a0"], "fee": 0, "nonce": 1815278891, "n_tx": 1, "size": 215, "block_index": 141, "main_chain": true, "height": 141, "weight": 860, "tx": [{"hash": "b0a8291efa1dcd99cf58b5216c4105283b9a482b2f2d821ce00a52ced4908444", "ver": 1, "vin_sz": 1, "vout_sz": 1, "size": 134, "weight": 536, "fee": 0, "relayed_by": "0.0.0.0", "lock_time": 0, "tx_index": 2410756999596609, "double_spend": false, "time": 1231690260, "block_index": 141, "block_height": 141, "inputs": [{"sequence": 4294967295, "witness": "", "script": "04ffff001d014e", "index": 0, "prev_out": null}], "out": [{"type": 0, "spent": false, "value": 5000000000, "spending_outpoints": [], "n": 0, "tx_index": 2410756999596609, "script": "4104f435a4df01fa9a93b3051eaf12357927e0b314816edc5b76ef1f96aaf04b833bbb4ba44072dac924ef37795dcf23a2e0e525550e4ea2bbe24d6ac3b045afc100ac", "addr": "12dRaqF6c7n8rvbhCWsQysKmNKPgDJfepK"}], "hex": "01000000010000000000000000000000000000000000000000000000000000000000000000ffffffff0704ffff001d014effffffff0100f2052a01000000434104f435a4df01fa9a93b3051eaf12357927e0b314816edc5b76ef1f96aaf04b833bbb4ba44072dac924ef37795dcf23a2e0e525550e4ea2bbe24d6ac3b045afc100ac00000000"}]}