{"hash": "00000000d93e4c9b4340fae149648a7abc4c914f95a77458dafe03bc211900a0", "ver": 1, "prev_block": "00000000a83dac69280eec98d9e650a3c69f0db88a3abf68b4c008b373af0ee5", "mrkl_root": "73a4ce71aab2077ce17239c9f31922571e703a26d2c212daffae2bb15bb898ba", "time": 1231691038, "bits": 486604799, "next_block": ["0000000049ec23bf6bfc47b5c8560b15dd52fb57db15ef185d78d4af12871861"], "fee": 0, "nonce": 2583072288, "n_tx": 1, "size": 215, "block_index": 142, "main_chain": true, "height": 142, "weight": 860, "tx": [{"hash": "73a4ce71aab2077ce17239c9f31922571e703a26d2c212daffae2bb15bb898ba", "ver": 1, "vin_sz": 1, "vout_sz": 1, "size": 134, "weight": 536, "fee": 0, "relayed_by": "0.0.0.0", "lock_time": 0, "tx_index": 6565282905990517, "double_spend": false, "time": 1231691038, "block_index": 142, "block_height": 142, "inputs": [{"sequence": 4294967295, "witness": "", "script": "04ffff001d0153", "index": 0, "prev_out": null}], "out": [{"type": 0, "spent": false, "value": 5000000000, "spending_outpoints": [], "n": 0, "tx_index": 6565282905990517, "script": "41047bff1aa919559a9dc8f040ba59e45760f157e46bba653171e34aa45cd1e60872ab910651666fd7c5784a8eb496796e1732573ac5c33e40b5c01e4d428c4c8765ac", "addr": "17B3kpD6d9SSaoKATBgGqDn25dFnSvjcVE"}], "hex": "01000000010000000000000000000000000000000000000000000000000000000000000000ffffffff0704ffff001d0153ffffffff0100f2052a010000004341047bff1aa919559a9dc8f040ba59e45760f157e46bba653171e34aa45cd1e60872ab910651666fd7c5784a8eb496796e1732573ac5c33e40b5c01e4d428c4c8765ac00000000"}]}