{"hash": "000000007f47b4ef1a99f9a961199a5878852e7695ef07820de4b7fa45bda802", "ver": 1, "prev_block": "0000000049ec23bf6bfc47b5c8560b15dd52fb57db15ef185d78d4af12871861", "mrkl_root": "70b8b6b9f6b4989ad63a19001c311c141dbb6ecdd060c56ae4f05bb507f95836", "time": 1231693144, "bits": 486604799, "next_block": ["000000002e76e88e6ca526f324505fae2cc8245af31e92279f031a6019270512"], "fee": 0, "nonce": 412551206, "n_tx": 1, "size": 215, "block_index": 144, "main_chain": true, "height": 144, "weight": 860, "tx": [{"hash": "70b8b6b9f6b4989ad63a19001c311c141dbb6ecdd060c56ae4f05bb507f95836", "ver": 1, "vin_sz": 1, "vout_sz": 1, "size": 134, "weight": 536, "fee": 0, "relayed_by": "0.0.0.0", "lock_time": 0, "tx_index": 1912184417725310, "double_spend": false, "time": 1231693144, "block_index": 144, "block_height": 144, "inputs": [{"sequence": 4294967295, "witness": "", "script": "04ffff001d0172", "index": 0, "prev_out": null}], "out": [{"type": 0, "spent": false, "value": 5000000000, "spending_outpoints": [], "n": 0, "tx_index": 1912184417725310, "script": "410440a92015df9284b2ce38644cd761abd99566af0d998c3f67b760b1c1534f17cc44602abe879eb01fe19f01c42e8d49047bf112bf122b35fab1f16255f93fe87cac", "addr": "1Jd2omwPAZq3egSS8HsxFMxhWmKdonG9Lz"}], "hex": "01000000010000000000000000000000000000000000000000000000000000000000000000ffffffff0704ffff001d0172ffffffff0100f2052a0100000043410440a92015df9284b2ce38644cd761abd99566af0d998c3f67b760b1c1534f17cc44602abe879eb01fe19f01c42e8d49047bf112bf122b35fab1f16255f93fe87cac00000000"}]}