{"hash": "000000002e76e88e6ca526f324505fae2cc8245af31e92279f031a6019270512", "ver": 1, "prev_block": "000000007f47b4ef1a99f9a961199a5878852e7695ef07820de4b7fa45bda802", "mrkl_root": "3f44efc23687edae461827db9545731ec7232b1d681f1562911a25c0159e3539", "time": 1231693700, "bits": 486604799, "next_block": ["000000006e7fe1ebbae18fd9ea0c8b696f1fec8e5de738ef47af1299374a081c"], "fee": 0, "nonce": 495243799, "n_tx": 1, "size": 216, "block_index": 145, "main_chain": true, "height": 145, "weight": 864, "tx": [{"hash": "3f44efc23687edae461827db9545731ec7232b1d681f1562911a25c0159e3539", "ver": 1, "vin_sz": 1, "vout_sz": 1, "size": 135, "weight": 540, "fee": 0, "relayed_by": "0.0.0.0", "lock_time": 0, "tx_index": 2012878344815779, "double_spend": false, "time": 1231693700, "block_index": 145, "block_height": 145, "inputs": [{"sequence": 4294967295, "witness": "", "script": "04ffff001d028700", "index": 0, "prev_out": null}], "out": [{"type": 0, "spent": false, "value": 5000000000, "spending_outpoints": [], "n": 0, "tx_index": 2012878344815779, "script": "41048b5f7c6e17394fa995cd22c387de26362f26aa2bd524581d2a76d5aaf7d540b825fbab64db7a537b05ba68c90471d9ed49cf97bef6c9d4b4d7c48b37cbab3193ac", "addr": "1CwoMxSXitseAKdNgfaHtzaUB7mUhcrmMp"}], "hex": "01000000010000000000000000000000000000000000000000000000000000000000000000ffffffff0804ffff001d028700ffffffff0100f2052a010000004341048b5f7c6e17394fa995cd22c387de26362f26aa2bd524581d2a76d5aaf7d540b825fbab64db7a537b05ba68c90471d9ed49cf97bef6c9d4b4d7c48b37cbab3193ac00000000"}]}