{"hash": "000000006e7fe1ebbae18fd9ea0c8b696f1fec8e5de738ef47af1299374a081c", "ver": 1, "prev_block": "000000002e76e88e6ca526f324505fae2cc8245af31e92279f031a6019270512", "mrkl_root": "429cb6f783a85f46b55ae3066d01dad772c14a53abcab4973182eb24413783a6", "time": 1231694075, "bits": 486604799, "next_block": ["000000001a7a484e9f1e96f2c103162cc0146ca7ce648c2498726a2dbb51967e"], "fee": 0, "nonce": 245945608, "n_tx": 1, "size": 216, "block_index": 146, "main_chain": true, "height": 146, "weight": 864, "tx": [{"hash": "429cb6f783a85f46b55ae3066d01dad772c14a53abcab4973182eb24413783a6", "ver": 1, "vin_sz": 1, "vout_sz": 1, "size": 135, "weight": 540, "fee": 0, "relayed_by": "0.0.0.0", "lock_time": 0, "tx_index": 5858639934168432, "double_spend": false, "time": 1231694075, "block_index": 146, "block_height": 146, "inputs": [{"sequence": 4294967295, "witness": "", "script": "04ffff001d028800", "index": 0, "prev_out": null}], "out": [{"type": 0, "spent": false, "value": 5000000000, "spending_outpoints": [], "n": 0, "tx_index": 5858639934168432, "script": "41049ffcef9e42d9c8ba9394ff3a105810e8eccfb014bdb34d425a2df526be8de06c554311f92ac36904ddadc93cdef0d666aee8a9fc7b51c471836bd6d1efeb62deac", "addr": "18xph1cecYkJwD81bHSKZ3SrUsPqinU2bA"}], "hex": "01000000010000000000000000000000000000000000000000000000000000000000000000ffffffff0804ffff001d028800ffffffff0100f2052a010000004341049ffcef9e42d9c8ba9394ff3a105810e8eccfb014bdb34d425a2df526be8de06c554311f92ac36904ddadc93cdef0d666aee8a9fc7b51c471836bd6d1efeb62deac00000000"}]}