{"hash": "000000001a7a484e9f1e96f2c103162cc0146ca7ce648c2498726a2dbb51967e", "ver": 1, "prev_block": "000000006e7fe1ebbae18fd9ea0c8b696f1fec8e5de738ef47af1299374a081c", "mrkl_root": "ae44c01fafeb75098a9bb331c5e541ac5a2ad27e08282a10ab189c80c568616f", "time": 1231695120, "bits": 486604799, "next_block": ["00000000e7b834752cbd32d559550f71f62b2d23c3facd7b7a4024e5dd3ba835"], "fee": 0, "nonce": 524366868, "n_tx": 1, "size": 216, "block_index": 147, "main_chain": true, "height": 147, "weight": 864, "tx": [{"hash": "ae44c01fafeb75098a9bb331c5e541ac5a2ad27e08282a10ab189c80c568616f", "ver": 1, "vin_sz": 1, "vout_sz": 1, "size": 135, "weight": 540, "fee": 0, "relayed_by": "0.0.0.0", "lock_time": 0, "tx_index": 3918853129114499, "double_spend": false, "time": 1231695120, "block_index": 147, "block_height": 147, "inputs": [{"sequence": 4294967295, "witness": "", "script": "04ffff001d028a00", "index": 0, "prev_out": null}], "out": [{"type": 0, "spent": false, "value": 5000000000, "spending_outpoints": [], "n": 0, "tx_index": 3918853129114499, "script": "410457e68d6407f0e0a5c3d25a76954f8319b5b7b1bac58fefde3404f3deeb3f0a9d5201e6e891ce592a19bf90e6cad362df09929f6e2bace8820d279a569c3eb2b1ac", "addr": "1Pqrx3NMF9VmMW6ikLZST3veBkUmY6be15"}], "hex": "01000000010000000000000000000000000000000000000000000000000000000000000000ffffffff0804ffff001d028a00ffffffff0100f2052a0100000043410457e68d6407f0e0a5c3d25a76954f8319b5b7b1bac58fefde3404f3deeb3f0a9d5201e6e891ce592a19bf90e6cad362df09929f6e2bace8820d279a569c3eb2b1ac00000000"}]}