{"hash": "00000000e7b834752cbd32d559550f71f62b2d23c3facd7b7a4024e5dd3ba835", "ver": 1, "prev_block": "000000001a7a484e9f1e96f2c103162cc0146ca7ce648c2498726a2dbb51967e", "mrkl_root": "55a6ec0df293a3bf380c094981f44d2a402798dc39dc6a4a0cd29f70bf1bc18a", "time": 1231695528, "bits": 486604799, "next_block": ["0000000011c8275cbb5dc8010892e10415c9550ed4513945f96452fe38903d93"], "fee": 0, "nonce": 2926984503, "n_tx": 1, "size": 216, "block_index": 148, "main_chain": true, "height": 148, "weight": 864, "tx": [{"hash": "55a6ec0df293a3bf380c094981f44d2a402798dc39dc6a4a0cd29f70bf1bc18a", "ver": 1, "vin_sz": 1, "vout_sz": 1, "size": 135, "weight": 540, "fee": 0, "relayed_by": "0.0.0.0", "lock_time": 0, "tx_index": 4881983963272186, "double_spend": false, "time": 1231695528, "block_index": 148, "block_height": 148, "inputs": [{"sequence": 4294967295, "witness": "", "script": "04ffff001d028c00", "index": 0, "prev_out": null}], "out": [{"type": 0, "spent": false, "value": 5000000000, "spending_outpoints": [], "n": 0, "tx_index": 4881983963272186, "script": "4104c024196cfc6ad36800b5522ffba6dd1c4d58c96cae378bdcddb52c081d742eb219d0cabdd7ef00f0010e18aba03483767ecbcf0bbe428dc92285d7f072c68379ac", "addr": "15EMUiFD7XoHpzCA4sErNmqCT4krsQzgKx"}], "hex": "01000000010000000000000000000000000000000000000000000000000000000000000000ffffffff0804ffff001d028c00ffffffff0100f2052a01000000434104c024196cfc6ad36800b5522ffba6dd1c4d58c96cae378bdcddb52c081d742eb219d0cabdd7ef00f0010e18aba03483767ecbcf0bbe428dc92285d7f072c68379ac00000000"}]}