{"hash": "0000000011c8275cbb5dc8010892e10415c9550ed4513945f96452fe38903d93", "ver": 1, "prev_block": "00000000e7b834752cbd32d559550f71f62b2d23c3facd7b7a4024e5dd3ba835", "mrkl_root": "5acba2e13fcd823b5541403a2e3e1b7e96ced0663b957710f370842776bb4f47", "time": 1231696366, "bits": 486604799, "next_block": ["000000009ca75733b4cf527fe193b919201a2ed38c9e147a5665fdfade551f4d"], "fee": 0, "nonce": 2997900291, "n_tx": 1, "size": 216, "block_index": 149, "main_chain": true, "height": 149, "weight": 864, "tx": [{"hash": "5acba2e13fcd823b5541403a2e3e1b7e96ced0663b957710f370842776bb4f47", "ver": 1, "vin_sz": 1, "vout_sz": 1, "size": 135, "weight": 540, "fee": 0, "relayed_by": "0.0.0.0", "lock_time": 0, "tx_index": 2509048738279566, "double_spend": false, "time": 1231696366, "block_index": 149, "block_height": 149, "inputs": [{"sequence": 4294967295, "witness": "", "script": "04ffff001d029100", "index": 0, "prev_out": null}], "out": [{"type": 0, "spent": false, "value": 5000000000, "spending_outpoints": [], "n": 0, "tx_index": 2509048738279566, "script": "4104f3ac806f3c4afdcac540251e2cd7b61f0d60b1195bf6f7a7ce7bae5d966bcfdb17d0ba62190a162aafe7538df373b92c7037e5a8ac820e928498d341240706e4ac", "addr": "18xzfpkj8cNz8NdmU7eumVjpeDfQSJ1CHR"}], "hex": "01000000010000000000000000000000000000000000000000000000000000000000000000ffffffff0804ffff001d029100ffffffff0100f2052a01000000434104f3ac806f3c4afdcac540251e2cd7b61f0d60b1195bf6f7a7ce7bae5d966bcfdb17d0ba62190a162aafe7538df373b92c7037e5a8ac820e928498d341240706e4ac00000000"}]}