{"hash": "00000000174a25bb399b009cc8deff1c4b3ea84df7e93affaaf60dc3416cc4f5", "ver": 1, "prev_block": "00000000b3322c8c3ef7d2cf6da009a776e6a99ee65ec5a32f3f345712238473", "mrkl_root": "e79fc1dad370e628614702f048edc8e98829cf8ea8f6615db19f992b1be92e44", "time": 1231562758, "bits": 486604799, "next_block": ["000000003ff1d0d70147acfbef5d6a87460ff5bcfce807c2d5b6f0a66bfdf809"], "fee": 0, "nonce": 3591544324, "n_tx": 1, "size": 215, "block_index": 16, "main_chain": true, "height": 16, "weight": 860, "tx": [{"hash": "e79fc1dad370e628614702f048edc8e98829cf8ea8f6615db19f992b1be92e44", "ver": 1, "vin_sz": 1, "vout_sz": 1, "size": 134, "weight": 536, "fee": 0, "relayed_by": "0.0.0.0", "lock_time": 0, "tx_index": 2398984641803059, "double_spend": false, "time": 1231562758, "block_index": 16, "block_height": 16, "inputs": [{"sequence": 4294967295, "witness": "", "script": "04ffff001d010b", "index": 0, "prev_out": null}], "out": [{"type": 0, "spent": false, "value": 5000000000, "spending_outpoints": [], "n": 0, "tx_index": 2398984641803059, "script": "4104977367164ca24f1f2de2e2cfb9e5c3f22d510d3f33683de200283100af0c8667dba7e4e389fa9953c6cb83d6ea72990e139f529b58cfbbac27607a28207b2a37ac", "addr": "16kktFTqsruEfPPphW4YgjktRF28iT8Dby"}], "hex": "01000000010000000000000000000000000000000000000000000000000000000000000000ffffffff0704ffff001d010bffffffff0100f2052a01000000434104977367164ca24f1f2de2e2cfb9e5c3f22d510d3f33683de200283100af0c8667dba7e4e389fa9953c6cb83d6ea72990e139f529b58cfbbac27607a28207b2a37ac00000000"}]}