{"hash": "000000000f3e94b228bd4e233396f402bd1f715ab046eab6b44ed9ab89ae7ed7", "ver": 1, "prev_block": "0000000066fd802a02909e8918fb85943836ce5d99000bdcd8128a06070d140a", "mrkl_root": "053664b11b14df95e7e183450cb594fe6c3348e3981c183a0e5fb93da0da24fa", "time": 1231715347, "bits": 486604799, "next_block": ["000000006f6977de3707ea42c892677d9f841f4c2fc449814f45ed2cec7f618f"], "fee": 0, "nonce": 672269844, "n_tx": 1, "size": 215, "block_index": 164, "main_chain": true, "height": 164, "weight": 860, "tx": [{"hash": "053664b11b14df95e7e183450cb594fe6c3348e3981c183a0e5fb93da0da24fa", "ver": 1, "vin_sz": 1, "vout_sz": 1, "size": 134, "weight": 536, "fee": 0, "relayed_by": "0.0.0.0", "lock_time": 0, "tx_index": 8801158198441771, "double_spend": false, "time": 1231715347, "block_index": 164, "block_height": 164, "inputs": [{"sequence": 4294967295, "witness": "", "script": "04ffff001d0108", "index": 0, "prev_out": null}], "out": [{"type": 0, "spent": false, "value": 5000000000, "spending_outpoints": [], "n": 0, "tx_index": 8801158198441771, "script": "41042bd821d9a4e5338eb1298173d75302f3403e778051419dacea3017702ee0d8b9386077b9ac64e36d9e55313c2c2485a5eb2832f9e84a80ca3a3630d717d8ce31ac", "addr": "1Lh4fvU1NAEdZTuTqoe4c3cPMv3sgkFWbM"}], "hex": "01000000010000000000000000000000000000000000000000000000000000000000000000ffffffff0704ffff001d0108ffffffff0100f2052a010000004341042bd821d9a4e5338eb1298173d75302f3403e778051419dacea3017702ee0d8b9386077b9ac64e36d9e55313c2c2485a5eb2832f9e84a80ca3a3630d717d8ce31ac00000000"}]}