{"hash": "00000000567e95797f93675ac23683ae3787b183bb36859c18d9220f3fa66a69", "ver": 1, "prev_block": "0000000019735037752be2927084cf026224254e01e4b1223a37c18bd92561de", "mrkl_root": "6a8226ad9980693ffbf41a15a1118fb73a9f68cda9c0b9951490bd03cb70d1d8", "time": 1231717181, "bits": 486604799, "next_block": ["000000002a22cfee1f2c846adbd12b3e183d4f97683f85dad08a79780a84bd55"], "fee": 0, "nonce": 1647037482, "n_tx": 1, "size": 215, "block_index": 168, "main_chain": true, "height": 168, "weight": 860, "tx": [{"hash": "6a8226ad9980693ffbf41a15a1118fb73a9f68cda9c0b9951490bd03cb70d1d8", "ver": 1, "vin_sz": 1, "vout_sz": 1, "size": 134, "weight": 536, "fee": 0, "relayed_by": "0.0.0.0", "lock_time": 0, "tx_index": 7628609667758002, "double_spend": false, "time": 1231717181, "block_index": 168, "block_height": 168, "inputs": [{"sequence": 4294967295, "witness": "", "script": "04ffff001d0103", "index": 0, "prev_out": null}], "out": [{"type": 0, "spent": false, "value": 5000000000, "spending_outpoints": [], "n": 0, "tx_index": 7628609667758002, "script": "41040c5e37183d6161304c00a1bdf933822f8f0e7a219e70b931fc28cf3bc41e24c86133041f29f1d90dcdfceeaaacb7a203f5fc2bda7149e58c88de66adbe87c69fac", "addr": "1NZz1UN616LfyX87zGRnVifiWRSN5xm9ht"}], "hex": "01000000010000000000000000000000000000000000000000000000000000000000000000ffffffff0704ffff001d0103ffffffff0100f2052a010000004341040c5e37183d6161304c00a1bdf933822f8f0e7a219e70b931fc28cf3bc41e24c86133041f29f1d90dcdfceeaaacb7a203f5fc2bda7149e58c88de66adbe87c69fac00000000"}]}