{"hash": "00000000c9ec538cab7f38ef9c67a95742f56ab07b0a37c5be6b02808dbfb4e0", "ver": 1, "prev_block": "00000000d1145790a8694403d4063f323d499e655c83426834d4ce2f8dd4a2ee", "mrkl_root": "d5f2d21453a6f0e67b5c42959c9700853e4c4d46fa7519d1cc58e77369c893f2", "time": 1231731401, "bits": 486604799, "next_block": ["00000000e3efabf60693ecc2519c5f761801ccac25c2ac89e32d11dd92686854"], "fee": 0, "nonce": 653436935, "n_tx": 1, "size": 215, "block_index": 171, "main_chain": true, "height": 171, "weight": 860, "tx": [{"hash": "d5f2d21453a6f0e67b5c42959c9700853e4c4d46fa7519d1cc58e77369c893f2", "ver": 1, "vin_sz": 1, "vout_sz": 1, "size": 134, "weight": 536, "fee": 0, "relayed_by": "0.0.0.0", "lock_time": 0, "tx_index": 8534929166990571, "double_spend": false, "time": 1231731401, "block_index": 171, "block_height": 171, "inputs": [{"sequence": 4294967295, "witness": "", "script": "04ffff001d010e", "index": 0, "prev_out": null}], "out": [{"type": 0, "spent": false, "value": 5000000000, "spending_outpoints": [], "n": 0, "tx_index": 8534929166990571, "script": "4104566824c312073315df60e5aa6490b6cdd80cd90f6a8f02e022ca3c2d52968c253006c9c602e03aed7be52d6ac55f5b557c72529bcc3899ace7eb4227153eb44bac", "addr": "1JhxuRHf7FiJYb8Ymc9czohwm9cJn2WaQW"}], "hex": "01000000010000000000000000000000000000000000000000000000000000000000000000ffffffff0704ffff001d010effffffff0100f2052a01000000434104566824c312073315df60e5aa6490b6cdd80cd90f6a8f02e022ca3c2d52968c253006c9c602e03aed7be52d6ac55f5b557c72529bcc3899ace7eb4227153eb44bac00000000"}]}