{"hash": "00000000e3efabf60693ecc2519c5f761801ccac25c2ac89e32d11dd92686854", "ver": 1, "prev_block": "00000000c9ec538cab7f38ef9c67a95742f56ab07b0a37c5be6b02808dbfb4e0", "mrkl_root": "389cf9b9fc51d668dafb9dc6b9a24b8fddec5f035235a58d4a62919b39b078d5", "time": 1231731853, "bits": 486604799, "next_block": ["00000000dce9d69decc221c128ef78c2ae3d0b43267891f1f078586b47ac85c5"], "fee": 0, "nonce": 1565279797, "n_tx": 1, "size": 215, "block_index": 172, "main_chain": true, "height": 172, "weight": 860, "tx": [{"hash": "389cf9b9fc51d668dafb9dc6b9a24b8fddec5f035235a58d4a62919b39b078d5", "ver": 1, "vin_sz": 1, "vout_sz": 1, "size": 134, "weight": 536, "fee": 0, "relayed_by": "0.0.0.0", "lock_time": 0, "tx_index": 7510858539430444, "double_spend": false, "time": 1231731853, "block_index": 172, "block_height": 172, "inputs": [{"sequence": 4294967295, "witness": "", "script": "04ffff001d0106", "index": 0, "prev_out": null}], "out": [{"type": 0, "spent": false, "value": 5000000000, "spending_outpoints": [], "n": 0, "tx_index": 7510858539430444, "script": "41044c718603ac207940cfce606b414b42b7cb10abbc714fe44f42f1c10a9990fb0f7202838cfb4fb8512f884ee3e2f47d55992d916880a2c6b46e254d86cd5952b3ac", "addr": "19d4S14KCEDXi1Xyt9x98feD9SxWPXYYNm"}], "hex": "01000000010000000000000000000000000000000000000000000000000000000000000000ffffffff0704ffff001d0106ffffffff0100f2052a010000004341044c718603ac207940cfce606b414b42b7cb10abbc714fe44f42f1c10a9990fb0f7202838cfb4fb8512f884ee3e2f47d55992d916880a2c6b46e254d86cd5952b3ac00000000"}]}