{"hash": "00000000a7d8beee715bbcd62dc818573a8ae9fe398c7d39487e9e776e2852c0", "ver": 1, "prev_block": "00000000dce9d69decc221c128ef78c2ae3d0b43267891f1f078586b47ac85c5", "mrkl_root": "ccb97113d5c2156d938edfaff425e301d1b862c9986714d443ab43070f119581", "time": 1231732861, "bits": 486604799, "next_block": ["00000000fd4afcc15f0fdda9b24be4c62068d8cf82fe6277730fd096712d9d08"], "fee": 0, "nonce": 257790258, "n_tx": 1, "size": 215, "block_index": 174, "main_chain": true, "height": 174, "weight": 860, "tx": [{"hash": "ccb97113d5c2156d938edfaff425e301d1b862c9986714d443ab43070f119581", "ver": 1, "vin_sz": 1, "vout_sz": 1, "size": 134, "weight": 536, "fee": 0, "relayed_by": "0.0.0.0", "lock_time": 0, "tx_index": 4559271561848949, "double_spend": false, "time": 1231732861, "block_index": 174, "block_height": 174, "inputs": [{"sequence": 4294967295, "witness": "", "script": "04ffff001d0113", "index": 0, "prev_out": null}], "out": [{"type": 0, "spent": false, "value": 5000000000, "spending_outpoints": [], "n": 0, "tx_index": 4559271561848949, "script": "410462cf7569d095ce66c37347e648e553ed5ecbbe145bff328d48a6853ce9394eb100a4bbd294b65308d71024f6eec175fecce22ed5e8acf0e8425c8362921184e8ac", "addr": "1FWcb8Ddw3BXearNaWugikvEfK7gViRde7"}], "hex": "01000000010000000000000000000000000000000000000000000000000000000000000000ffffffff0704ffff001d0113ffffffff0100f2052a0100000043410462cf7569d095ce66c37347e648e553ed5ecbbe145bff328d48a6853ce9394eb100a4bbd294b65308d71024f6eec175fecce22ed5e8acf0e8425c8362921184e8ac00000000"}]}