{"hash": "00000000fd4afcc15f0fdda9b24be4c62068d8cf82fe6277730fd096712d9d08", "ver": 1, "prev_block": "00000000a7d8beee715bbcd62dc818573a8ae9fe398c7d39487e9e776e2852c0", "mrkl_root": "48fb3d15e828a31aab6ae17b6f5b14333d0701a9358f9d2ea57655c32cb53b90", "time": 1231733876, "bits": 486604799, "next_block": ["0000000016a9f3ddedb8e850941f6981623c7721302a32ca8548dff1f7bd6e58"], "fee": 0, "nonce": 2262400290, "n_tx": 1, "size": 215, "block_index": 175, "main_chain": true, "height": 175, "weight": 860, "tx": [{"hash": "48fb3d15e828a31aab6ae17b6f5b14333d0701a9358f9d2ea57655c32cb53b90", "ver": 1, "vin_sz": 1, "vout_sz": 1, "size": 134, "weight": 536, "fee": 0, "relayed_by": "0.0.0.0", "lock_time": 0, "tx_index": 5074755746556590, "double_spend": false, "time": 1231733876, "block_index": 175, "block_height": 175, "inputs": [{"sequence": 4294967295, "witness": "", "script": "04ffff001d0107", "index": 0, "prev_out": null}], "out": [{"type": 0, "spent": false, "value": 5000000000, "spending_outpoints": [], "n": 0, "tx_index": 5074755746556590, "script": "41042d5b363ff00d911478e80cd101f7b0fca09126b9a6c98979fa15b251f3accebfd390ffe1132b97d73f37f79da7fdb747b2942d6f7f78c5da9401fd19120f00ceac", "addr": "1917k1LUodPbbjJenczkVaGyJpSj8CqYTC"}], "hex": "01000000010000000000000000000000000000000000000000000000000000000000000000ffffffff0704ffff001d0107ffffffff0100f2052a010000004341042d5b363ff00d911478e80cd101f7b0fca09126b9a6c98979fa15b251f3accebfd390ffe1132b97d73f37f79da7fdb747b2942d6f7f78c5da9401fd19120f00ceac00000000"}]}