{"hash": "0000000016a9f3ddedb8e850941f6981623c7721302a32ca8548dff1f7bd6e58", "ver": 1, "prev_block": "00000000fd4afcc15f0fdda9b24be4c62068d8cf82fe6277730fd096712d9d08", "mrkl_root": "64c195ad911554d3cbfbed05f78b5aa9379a0f98600305b03469cbb70ce13d5c", "time": 1231735142, "bits": 486604799, "next_block": ["00000000480c9799dd2b35009ff1833f69690f76c26a9bea7e00cd0042f67db1"], "fee": 0, "nonce": 1720267529, "n_tx": 1, "size": 215, "block_index": 176, "main_chain": true, "height": 176, "weight": 860, "tx": [{"hash": "64c195ad911554d3cbfbed05f78b5aa9379a0f98600305b03469cbb70ce13d5c", "ver": 1, "vin_sz": 1, "vout_sz": 1, "size": 134, "weight": 536, "fee": 0, "relayed_by": "0.0.0.0", "lock_time": 0, "tx_index": 3245466830961005, "double_spend": false, "time": 1231735142, "block_index": 176, "block_height": 176, "inputs": [{"sequence": 4294967295, "witness": "", "script": "04ffff001d0112", "index": 0, "prev_out": null}], "out": [{"type": 0, "spent": false, "value": 5000000000, "spending_outpoints": [], "n": 0, "tx_index": 3245466830961005, "script": "41046d1078f58caef4a77119f7762342d31b1a3ed6b6db4086cf612811fa4141e08df18c0d351727204f54ad428ae7b53007c4f3868a28f91144eabd0c42a9bacc45ac", "addr": "1H5BMx61bxfseTU9jUPZgit5B9D3AVviX5"}], "hex": "01000000010000000000000000000000000000000000000000000000000000000000000000ffffffff0704ffff001d0112ffffffff0100f2052a010000004341046d1078f58caef4a77119f7762342d31b1a3ed6b6db4086cf612811fa4141e08df18c0d351727204f54ad428ae7b53007c4f3868a28f91144eabd0c42a9bacc45ac00000000"}]}