{"hash": "00000000480c9799dd2b35009ff1833f69690f76c26a9bea7e00cd0042f67db1", "ver": 1, "prev_block": "0000000016a9f3ddedb8e850941f6981623c7721302a32ca8548dff1f7bd6e58", "mrkl_root": "07b4b23fca39e9b263fd214d9274335231c3b025aa3d817860fc214a84365e88", "time": 1231736557, "bits": 486604799, "next_block": ["00000000ca6de0be6c908a7c11f6f1335550824b37408d4a332225a329a65b0d"], "fee": 0, "nonce": 150024457, "n_tx": 1, "size": 215, "block_index": 177, "main_chain": true, "height": 177, "weight": 860, "tx": [{"hash": "07b4b23fca39e9b263fd214d9274335231c3b025aa3d817860fc214a84365e88", "ver": 1, "vin_sz": 1, "vout_sz": 1, "size": 134, "weight": 536, "fee": 0, "relayed_by": "0.0.0.0", "lock_time": 0, "tx_index": 4798023134168127, "double_spend": false, "time": 1231736557, "block_index": 177, "block_height": 177, "inputs": [{"sequence": 4294967295, "witness": "", "script": "04ffff001d0116", "index": 0, "prev_out": null}], "out": [{"type": 0, "spent": false, "value": 5000000000, "spending_outpoints": [], "n": 0, "tx_index": 4798023134168127, "script": "4104c8a740992e68870a1c31f4b5232ea3c6d21c03b989c28ad50ef2e68ef320780ee3d0c759a369a1d1d7e36b37be9ba4513fb2a3d0840373551a5437536a54db61ac", "addr": "1PA4XBfKLjACMQUUupBEDzwhSsLRKriAkr"}], "hex": "01000000010000000000000000000000000000000000000000000000000000000000000000ffffffff0704ffff001d0116ffffffff0100f2052a01000000434104c8a740992e68870a1c31f4b5232ea3c6d21c03b989c28ad50ef2e68ef320780ee3d0c759a369a1d1d7e36b37be9ba4513fb2a3d0840373551a5437536a54db61ac00000000"}]}