{"hash": "00000000ca6de0be6c908a7c11f6f1335550824b37408d4a332225a329a65b0d", "ver": 1, "prev_block": "00000000480c9799dd2b35009ff1833f69690f76c26a9bea7e00cd0042f67db1", "mrkl_root": "672778aca436894888bb63d7a37d2f67c5942caca93942ee2e98143c08f1f46b", "time": 1231737131, "bits": 486604799, "next_block": ["00000000c0ab5a6b27502869414c5b004fbca3ba8f291d2c8b2d8dbd6225e170"], "fee": 0, "nonce": 4117295153, "n_tx": 1, "size": 215, "block_index": 178, "main_chain": true, "height": 178, "weight": 860, "tx": [{"hash": "672778aca436894888bb63d7a37d2f67c5942caca93942ee2e98143c08f1f46b", "ver": 1, "vin_sz": 1, "vout_sz": 1, "size": 134, "weight": 536, "fee": 0, "relayed_by": "0.0.0.0", "lock_time": 0, "tx_index": 3798392321311379, "double_spend": false, "time": 1231737131, "block_index": 178, "block_height": 178, "inputs": [{"sequence": 4294967295, "witness": "", "script": "04ffff001d0105", "index": 0, "prev_out": null}], "out": [{"type": 0, "spent": false, "value": 5000000000, "spending_outpoints": [], "n": 0, "tx_index": 3798392321311379, "script": "4104c0207ee90e4f760d9839a5049189cc375cc25766588933e5828d6e4395e82522d51526af0c3f45f7c4337dffea82a4899f4277ba734359070fe6dd68abae87a6ac", "addr": "128KyT3PMB3WLcZVu48asfaTwtb6tZE2dm"}], "hex": "01000000010000000000000000000000000000000000000000000000000000000000000000ffffffff0704ffff001d0105ffffffff0100f2052a01000000434104c0207ee90e4f760d9839a5049189cc375cc25766588933e5828d6e4395e82522d51526af0c3f45f7c4337dffea82a4899f4277ba734359070fe6dd68abae87a6ac00000000"}]}