{"hash": "00000000b5ef0ea215becad97402ce59d1416fe554261405cda943afd2a8c8f2", "ver": 1, "prev_block": "00000000c0ab5a6b27502869414c5b004fbca3ba8f291d2c8b2d8dbd6225e170", "mrkl_root": "bd8cfe1837c88caa4ca37df77380d5b0af9692ed92ddbc247cd2aef388691d4f", "time": 1231739452, "bits": 486604799, "next_block": ["00000000dc55860c8a29c58d45209318fa9e9dc2c1833a7226d86bc465afc6e5"], "fee": 0, "nonce": 800571155, "n_tx": 1, "size": 215, "block_index": 180, "main_chain": true, "height": 180, "weight": 860, "tx": [{"hash": "bd8cfe1837c88caa4ca37df77380d5b0af9692ed92ddbc247cd2aef388691d4f", "ver": 1, "vin_sz": 1, "vout_sz": 1, "size": 134, "weight": 536, "fee": 0, "relayed_by": "0.0.0.0", "lock_time": 0, "tx_index": 2783607783323098, "double_spend": false, "time": 1231739452, "block_index": 180, "block_height": 180, "inputs": [{"sequence": 4294967295, "witness": "", "script": "04ffff001d011f", "index": 0, "prev_out": null}], "out": [{"type": 0, "spent": false, "value": 5000000000, "spending_outpoints": [], "n": 0, "tx_index": 2783607783323098, "script": "4104547bd2940927dfa17ecf168496be4a9ad452784750addf355c0d9a43f12b98404376c7b062d2eb739d481da106f96a44b877bbb8203e204c9798c22db6eca7c0ac", "addr": "1Pudc88gyFynBVZccRJeYyEV7ZnjfXnfKn"}], "hex": "01000000010000000000000000000000000000000000000000000000000000000000000000ffffffff0704ffff001d011fffffffff0100f2052a01000000434104547bd2940927dfa17ecf168496be4a9ad452784750addf355c0d9a43f12b98404376c7b062d2eb739d481da106f96a44b877bbb8203e204c9798c22db6eca7c0ac00000000"}]}