{"hash": "0000000054487811fc4ff7a95be738aa5ad9320c394c482b27c0da28b227ad5d", "ver": 1, "prev_block": "00000000dc55860c8a29c58d45209318fa9e9dc2c1833a7226d86bc465afc6e5", "mrkl_root": "2f0f017f1991a1393798ff851bfc02ce7ba3f5e066815ed3104afb4bd3a0c230", "time": 1231740736, "bits": 486604799, "next_block": ["00000000f46e513f038baf6f2d9a95b2a28d8a6c985bcf24b9e07f0f63a29888"], "fee": 0, "nonce": 2662131500, "n_tx": 2, "size": 490, "block_index": 182, "main_chain": true, "height": 182, "weight": 1960, "tx": [{"hash": "09e5c4a5a089928bbe368cd0f2b09abafb3ebf328cd0d262d06ec35bdda1077f", "ver": 1, "vin_sz": 1, "vout_sz": 1, "size": 134, "weight": 536, "fee": 0, "relayed_by": "0.0.0.0", "lock_time": 0, "tx_index": 4469464228395117, "double_spend": false, "time": 1231740736, "block_index": 182, "block_height": 182, "inputs": [{"sequence": 4294967295, "witness": "", "script": "04ffff001d0129", "index": 0, "prev_out": null}], "out": [{"type": 0, "spent": false, "value": 5000000000, "spending_outpoints": [], "n": 0, "tx_index": 4469464228395117, "script": "4104b10dd882c04204481116bd4b41510e98c05a869af51376807341fc7e3892c9034835954782295784bfc763d9736ed4122c8bb13d6e02c0882cb7502ce1ae8287ac", "addr": "1Fr947YZyEWZd2JPcvDJbsYN6Po5gXRyau"}], "hex": "01000000010000000000000000000000000000000000000000000000000000000000000000ffffffff0704ffff001d0129ffffffff0100f2052a01000000434104b10dd882c04204481116bd4b41510e98c05a869af51376807341fc7e3892c9034835954782295784bfc763d9736ed4122c8bb13d6e02c0882cb7502ce1ae8287ac00000000"}, {"hash": "591e91f809d716912ca1d4a9295e70c3e78bab077683f79350f101da64588073", "ver": 1, "vin_sz": 1, "vout_sz": 2, "size": 275, "weight": 1100, "fee": 0, "relayed_by": "0.0.0.0", "lock_time": 0, "tx_index": 4063842432401470, "double_spend": false, "time": 1231740736, "block_index": 182, "block_height": 182, "inputs": [{"sequence": 4294967295, "witness": "", "script": "47304402201f27e51caeb9a0988a1e50799ff0af94a3902403c3ad4068b063e7b4d1b0a76702206713f69bd344058b0dee55a9798759092d0916dbbc3e592fee43060005ddc17401", "index": 0, "prev_out": {"spent": true, "script": "410411db93e1dcdb8a016b49840f8c53bc1eb68a382e97b1482ecad7b148a6909a5cb2e0eaddfb84ccf9744464f82e160bfa9b8b64f9d4c03f999b8643f656b412a3ac", "spending_outpoints": [{"tx_index": 4063842432401470, "n": 0}], "tx_index": 6687795960110968, "value": 3000000000, "addr": "12cbQLTFMXRnSzktFkuoG3eHoMeFtpTu3S", "n": 1, "type": 0}}], "out": [{"type": 0, "spent": true, "value": 100000000, "spending_outpoints": [{"tx_index": 3391095309349408, "n": 0}], "n": 0, "tx_index": 4063842432401470, "script": "410401518fa1d1e1e3e162852d68d9be1c0abad5e3d6297ec95f1f91b909dc1afe616d6876f92918451ca387c4387609ae1a895007096195a824baf9c38ea98c09c3ac", "addr": "1LzBzVqEeuQyjD2mRWHes3dgWrT9titxvq"}, {"type": 0, "spent": true, "value": 2900000000, "spending_outpoints": [{"tx_index": 6564325921434451, "n": 0}], "n": 1, "tx_index": 4063842432401470, "script": "410411db93e1dcdb8a016b49840f8c53bc1eb68a382e97b1482ecad7b148a6909a5cb2e0eaddfb84ccf9744464f82e160bfa9b8b64f9d4c03f999b8643f656b412a3ac", "addr": "12cbQLTFMXRnSzktFkuoG3eHoMeFtpTu3S"}], "hex": "0100000001be141eb442fbc446218b708f40caeb7507affe8acff58ed992eb5ddde43c6fa1010000004847304402201f27e51caeb9a0988a1e50799ff0af94a3902403c3ad4068b063e7b4d1b0a76702206713f69bd344058b0dee55a9798759092d0916dbbc3e592fee43060005ddc17401ffffffff0200e1f5050000000043410401518fa1d1e1e3e162852d68d9be1c0abad5e3d6297ec95f1f91b909dc1afe616d6876f92918451ca387c4387609ae1a895007096195a824baf9c38ea98c09c3ac007ddaac0000000043410411db93e1dcdb8a016b49840f8c53bc1eb68a382e97b1482ecad7b148a6909a5cb2e0eaddfb84ccf9744464f82e160bfa9b8b64f9d4c03f999b8643f656b412a3ac00000000"}]}