{"hash": "00000000f46e513f038baf6f2d9a95b2a28d8a6c985bcf24b9e07f0f63a29888", "ver": 1, "prev_block": "0000000054487811fc4ff7a95be738aa5ad9320c394c482b27c0da28b227ad5d", "mrkl_root": "df25983b51d84d40b4efcb5556cdd6d524ac2d21bca49037494e413ae0712529", "time": 1231742062, "bits": 486604799, "next_block": ["00000000ff862f4e3c760fee9666defe2ac0ff026171953558b14421840a2446"], "fee": 0, "nonce": 3235118355, "n_tx": 2, "size": 491, "block_index": 183, "main_chain": true, "height": 183, "weight": 1964, "tx": [{"hash": "b2e561eb278f5aba7a2c78d46422f496f4998003635cc65807e230407190a355", "ver": 1, "vin_sz": 1, "vout_sz": 1, "size": 134, "weight": 536, "fee": 0, "relayed_by": "0.0.0.0", "lock_time": 0, "tx_index": 3013151723882012, "double_spend": false, "time": 1231742062, "block_index": 183, "block_height": 183, "inputs": [{"sequence": 4294967295, "witness": "", "script": "04ffff001d012a", "index": 0, "prev_out": null}], "out": [{"type": 0, "spent": false, "value": 5000000000, "spending_outpoints": [], "n": 0, "tx_index": 3013151723882012, "script": "41041915d670aa55621ed1c438477c5da654344e10eecea90ede3a048103fc3cf4beccda70ddf71ce55a5083b7bade4319d159b44374234590e9296cbe08c67774b2ac", "addr": "1642o19pahkkdwHuPSx6uxk9HMmC243Bu7"}], "hex": "01000000010000000000000000000000000000000000000000000000000000000000000000ffffffff0704ffff001d012affffffff0100f2052a010000004341041915d670aa55621ed1c438477c5da654344e10eecea90ede3a048103fc3cf4beccda70ddf71ce55a5083b7bade4319d159b44374234590e9296cbe08c67774b2ac00000000"}, {"hash": "12b5633bad1f9c167d523ad1aa1947b2732a865bf5414eab2f9e5ae5d5c191ba", "ver": 1, "vin_sz": 1, "vout_sz": 2, "size": 276, "weight": 1104, "fee": 0, "relayed_by": "0.0.0.0", "lock_time": 0, "tx_index": 6564325921434451, "double_spend": false, "time": 1231742062, "block_index": 183, "block_height": 183, "inputs": [{"sequence": 4294967295, "witness": "", "script": "483045022052ffc1929a2d8bd365c6a2a4e3421711b4b1e1b8781698ca9075807b4227abcb0221009984107ddb9e3813782b095d0d84361ed4c76e5edaf6561d252ae162c2341cfb01", "index": 0, "prev_out": {"spent": true, "script": "410411db93e1dcdb8a016b49840f8c53bc1eb68a382e97b1482ecad7b148a6909a5cb2e0eaddfb84ccf9744464f82e160bfa9b8b64f9d4c03f999b8643f656b412a3ac", "spending_outpoints": [{"tx_index": 6564325921434451, "n": 0}], "tx_index": 4063842432401470, "value": 2900000000, "addr": "12cbQLTFMXRnSzktFkuoG3eHoMeFtpTu3S", "n": 1, "type": 0}}], "out": [{"type": 0, "spent": true, "value": 100000000, "spending_outpoints": [{"tx_index": 4285570218664044, "n": 0}], "n": 0, "tx_index": 6564325921434451, "script": "4104baa9d36653155627c740b3409a734d4eaf5dcca9fb4f736622ee18efcf0aec2b758b2ec40db18fbae708f691edb2d4a2a3775eb413d16e2e3c0f8d4c69119fd1ac", "addr": "13HtsYzne8xVPdGDnmJX8gHgBZerAfJGEf"}, {"type": 0, "spent": true, "value": 2800000000, "spending_outpoints": [{"tx_index": 8938199527718782, "n": 0}], "n": 1, "tx_index": 6564325921434451, "script": "410411db93e1dcdb8a016b49840f8c53bc1eb68a382e97b1482ecad7b148a6909a5cb2e0eaddfb84ccf9744464f82e160bfa9b8b64f9d4c03f999b8643f656b412a3ac", "addr": "12cbQLTFMXRnSzktFkuoG3eHoMeFtpTu3S"}], "hex": "010000000173805864da01f15093f7837607ab8be7c3705e29a9d4a12c9116d709f8911e590100000049483045022052ffc1929a2d8bd365c6a2a4e3421711b4b1e1b8781698ca9075807b4227abcb0221009984107ddb9e3813782b095d0d84361ed4c76e5edaf6561d252ae162c2341cfb01ffffffff0200e1f50500000000434104baa9d36653155627c740b3409a734d4eaf5dcca9fb4f736622ee18efcf0aec2b758b2ec40db18fbae708f691edb2d4a2a3775eb413d16e2e3c0f8d4c69119fd1ac009ce4a60000000043410411db93e1dcdb8a016b49840f8c53bc1eb68a382e97b1482ecad7b148a6909a5cb2e0eaddfb84ccf9744464f82e160bfa9b8b64f9d4c03f999b8643f656b412a3ac00000000"}]}