{"hash": "00000000ff862f4e3c760fee9666defe2ac0ff026171953558b14421840a2446", "ver": 1, "prev_block": "00000000f46e513f038baf6f2d9a95b2a28d8a6c985bcf24b9e07f0f63a29888", "mrkl_root": "7261a156ddd561c8144eed6956ada63bf53fa015ef84f8f2b06d9928caf320bf", "time": 1231742949, "bits": 486604799, "next_block": ["00000000e24b8df3f63b67e6f803950a6bbfee804e21072f891b4257319273ef"], "fee": 0, "nonce": 169414958, "n_tx": 1, "size": 215, "block_index": 184, "main_chain": true, "height": 184, "weight": 860, "tx": [{"hash": "7261a156ddd561c8144eed6956ada63bf53fa015ef84f8f2b06d9928caf320bf", "ver": 1, "vin_sz": 1, "vout_sz": 1, "size": 134, "weight": 536, "fee": 0, "relayed_by": "0.0.0.0", "lock_time": 0, "tx_index": 6724743999066925, "double_spend": false, "time": 1231742949, "block_index": 184, "block_height": 184, "inputs": [{"sequence": 4294967295, "witness": "", "script": "04ffff001d0102", "index": 0, "prev_out": null}], "out": [{"type": 0, "spent": false, "value": 5000000000, "spending_outpoints": [], "n": 0, "tx_index": 6724743999066925, "script": "4104b03e3014aba0d36e8444e20f93c0b03de4e5eb18aad8311191bce383cf84fa4dc76c28bb3d8e95b5e2267a307d87843db3fc3f7cb772f1dd16234295f08ad199ac", "addr": "1PNF7mJ2VrgZCMSfUjiWxDteNBHEm15kMg"}], "hex": "01000000010000000000000000000000000000000000000000000000000000000000000000ffffffff0704ffff001d0102ffffffff0100f2052a01000000434104b03e3014aba0d36e8444e20f93c0b03de4e5eb18aad8311191bce383cf84fa4dc76c28bb3d8e95b5e2267a307d87843db3fc3f7cb772f1dd16234295f08ad199ac00000000"}]}