{"hash": "00000000e24b8df3f63b67e6f803950a6bbfee804e21072f891b4257319273ef", "ver": 1, "prev_block": "00000000ff862f4e3c760fee9666defe2ac0ff026171953558b14421840a2446", "mrkl_root": "31df41cb92e000cfa5f0403bdbe41e5a693b01821b0ee9b9583afeffaf47dcee", "time": 1231743578, "bits": 486604799, "next_block": ["000000008b3ff2aaf3427f2a624cb9978e687d9fbba5000dc2f52bb4cc82d4be"], "fee": 0, "nonce": 2153544987, "n_tx": 1, "size": 215, "block_index": 185, "main_chain": true, "height": 185, "weight": 860, "tx": [{"hash": "31df41cb92e000cfa5f0403bdbe41e5a693b01821b0ee9b9583afeffaf47dcee", "ver": 1, "vin_sz": 1, "vout_sz": 1, "size": 134, "weight": 536, "fee": 0, "relayed_by": "0.0.0.0", "lock_time": 0, "tx_index": 8404155613839303, "double_spend": false, "time": 1231743578, "block_index": 185, "block_height": 185, "inputs": [{"sequence": 4294967295, "witness": "", "script": "04ffff001d0111", "index": 0, "prev_out": null}], "out": [{"type": 0, "spent": false, "value": 5000000000, "spending_outpoints": [], "n": 0, "tx_index": 8404155613839303, "script": "4104002170255782f1405cc0fd2253d15e8561930efcc0aaa6481487f2e799be7b3cca68f50628c10ae963e044c4eb66c1055a84b303fa9fb068700e2af070cfe07eac", "addr": "1H4Urq49poTRfszssMDT12dMnoDxSBEs7e"}], "hex": "01000000010000000000000000000000000000000000000000000000000000000000000000ffffffff0704ffff001d0111ffffffff0100f2052a01000000434104002170255782f1405cc0fd2253d15e8561930efcc0aaa6481487f2e799be7b3cca68f50628c10ae963e044c4eb66c1055a84b303fa9fb068700e2af070cfe07eac00000000"}]}