{"hash": "000000008b3ff2aaf3427f2a624cb9978e687d9fbba5000dc2f52bb4cc82d4be", "ver": 1, "prev_block": "00000000e24b8df3f63b67e6f803950a6bbfee804e21072f891b4257319273ef", "mrkl_root": "21cb91349d6403cd296d60f94a52a2da4cc47c70fd7fb7f2ee33bd580c7b7c2f", "time": 1231743669, "bits": 486604799, "next_block": ["00000000b2cde2159116889837ecf300bd77d229d49b138c55366b54626e495d"], "fee": 0, "nonce": 14496688, "n_tx": 1, "size": 215, "block_index": 186, "main_chain": true, "height": 186, "weight": 860, "tx": [{"hash": "21cb91349d6403cd296d60f94a52a2da4cc47c70fd7fb7f2ee33bd580c7b7c2f", "ver": 1, "vin_sz": 1, "vout_sz": 1, "size": 134, "weight": 536, "fee": 0, "relayed_by": "0.0.0.0", "lock_time": 0, "tx_index": 1670773979420582, "double_spend": false, "time": 1231743669, "block_index": 186, "block_height": 186, "inputs": [{"sequence": 4294967295, "witness": "", "script": "04ffff001d0102", "index": 0, "prev_out": null}], "out": [{"type": 0, "spent": false, "value": 5000000000, "spending_outpoints": [], "n": 0, "tx_index": 1670773979420582, "script": "4104a8c5bdf4b5a4d77da3782aa5434b8418811b1dbe269fb05614c556c58d53a927c6ca41909ae493ac68b5e9495900ff378805b638e12b582f60a694b3bf892323ac", "addr": "16RGBFEHfNqjzN6UQ95imqtM91PBcQUMCF"}], "hex": "01000000010000000000000000000000000000000000000000000000000000000000000000ffffffff0704ffff001d0102ffffffff0100f2052a01000000434104a8c5bdf4b5a4d77da3782aa5434b8418811b1dbe269fb05614c556c58d53a927c6ca41909ae493ac68b5e9495900ff378805b638e12b582f60a694b3bf892323ac00000000"}]}