{"hash": "00000000b2cde2159116889837ecf300bd77d229d49b138c55366b54626e495d", "ver": 1, "prev_block": "000000008b3ff2aaf3427f2a624cb9978e687d9fbba5000dc2f52bb4cc82d4be", "mrkl_root": "52478db532c594119845eb8260d640d78798e4b7fcb77fed4e2bad4c3ecbaf1c", "time": 1231744600, "bits": 486604799, "next_block": ["000000009a940db389f3a7cbb8405f4ec14342bed36073b60ee63ed7e117f193"], "fee": 0, "nonce": 853721115, "n_tx": 2, "size": 414, "block_index": 187, "main_chain": true, "height": 187, "weight": 1656, "tx": [{"hash": "70587f1780ccd2ebbace28a7b33d83d19f4362f10ff7a4ad88f8c413883f94b7", "ver": 1, "vin_sz": 1, "vout_sz": 1, "size": 134, "weight": 536, "fee": 0, "relayed_by": "0.0.0.0", "lock_time": 0, "tx_index": 6459115165612191, "double_spend": false, "time": 1231744600, "block_index": 187, "block_height": 187, "inputs": [{"sequence": 4294967295, "witness": "", "script": "04ffff001d011a", "index": 0, "prev_out": null}], "out": [{"type": 0, "spent": false, "value": 5000000000, "spending_outpoints": [], "n": 0, "tx_index": 6459115165612191, "script": "410435d66d6cef63a3461110c810975b8816308372b58274d88436a974b478d98d8d972f7233ea8a5242d151de9d4b1ac11a6f7f8460e8f9b146d97c7bad980cc5ceac", "addr": "1FDMwEo8qNa9icVcooBUoGvA6NriePtJJ3"}], "hex": "01000000010000000000000000000000000000000000000000000000000000000000000000ffffffff0704ffff001d011affffffff0100f2052a0100000043410435d66d6cef63a3461110c810975b8816308372b58274d88436a974b478d98d8d972f7233ea8a5242d151de9d4b1ac11a6f7f8460e8f9b146d97c7bad980cc5ceac00000000"}, {"hash": "4385fcf8b14497d0659adccfe06ae7e38e0b5dc95ff8a13d7c62035994a0cd79", "ver": 1, "vin_sz": 1, "vout_sz": 1, "size": 199, "weight": 796, "fee": 0, "relayed_by": "0.0.0.0", "lock_time": 0, "tx_index": 4285570218664044, "double_spend": false, "time": 1231744600, "block_index": 187, "block_height": 187, "inputs": [{"sequence": 4294967295, "witness": "", "script": "473044022041d56d649e3ca8a06ffc10dbc6ba37cb958d1177cc8a155e83d0646cd5852634022047fd6a02e26b00de9f60fb61326856e66d7a0d5e2bc9d01fb95f689fc705c04b01", "index": 0, "prev_out": {"spent": true, "script": "4104baa9d36653155627c740b3409a734d4eaf5dcca9fb4f736622ee18efcf0aec2b758b2ec40db18fbae708f691edb2d4a2a3775eb413d16e2e3c0f8d4c69119fd1ac", "spending_outpoints": [{"tx_index": 4285570218664044, "n": 0}], "tx_index": 6564325921434451, "value": 100000000, "addr": "13HtsYzne8xVPdGDnmJX8gHgBZerAfJGEf", "n": 0, "type": 0}}], "out": [{"type": 0, "spent": true, "value": 100000000, "spending_outpoints": [{"tx_index": 1816063685936491, "n": 1}], "n": 0, "tx_index": 4285570218664044, "script": "4104fe1b9ccf732e1f6b760c5ed3152388eeeadd4a073e621f741eb157e6a62e3547c8e939abbd6a513bf3a1fbe28f9ea85a4e64c526702435d726f7ff14da40bae4ac", "addr": "15NUwyBYrZcnUgTagsm1A7M2yL2GntpuaZ"}], "hex": "0100000001ba91c1d5e55a9e2fab4e41f55b862a73b24719aad13a527d169c1fad3b63b5120000000048473044022041d56d649e3ca8a06ffc10dbc6ba37cb958d1177cc8a155e83d0646cd5852634022047fd6a02e26b00de9f60fb61326856e66d7a0d5e2bc9d01fb95f689fc705c04b01ffffffff0100e1f50500000000434104fe1b9ccf732e1f6b760c5ed3152388eeeadd4a073e621f741eb157e6a62e3547c8e939abbd6a513bf3a1fbe28f9ea85a4e64c526702435d726f7ff14da40bae4ac00000000"}]}