{"hash": "000000009a940db389f3a7cbb8405f4ec14342bed36073b60ee63ed7e117f193", "ver": 1, "prev_block": "00000000b2cde2159116889837ecf300bd77d229d49b138c55366b54626e495d", "mrkl_root": "3a6d490a7cf40819cdd826729d921ad5ab4b8347dfbec81179dd09aba0d25b37", "time": 1231744937, "bits": 486604799, "next_block": ["000000008bb30dccc10c56c339c8aaacbe0c71051dc51ee10cc84db945db2978"], "fee": 0, "nonce": 3644554265, "n_tx": 1, "size": 215, "block_index": 188, "main_chain": true, "height": 188, "weight": 860, "tx": [{"hash": "3a6d490a7cf40819cdd826729d921ad5ab4b8347dfbec81179dd09aba0d25b37", "ver": 1, "vin_sz": 1, "vout_sz": 1, "size": 134, "weight": 536, "fee": 0, "relayed_by": "0.0.0.0", "lock_time": 0, "tx_index": 1947760489488699, "double_spend": false, "time": 1231744937, "block_index": 188, "block_height": 188, "inputs": [{"sequence": 4294967295, "witness": "", "script": "04ffff001d0103", "index": 0, "prev_out": null}], "out": [{"type": 0, "spent": false, "value": 5000000000, "spending_outpoints": [], "n": 0, "tx_index": 1947760489488699, "script": "410449fff9665bfda43017a27b3d32e986378befdd6fa5d4eb097626701ace807a2b3a43e74375dce4ed9028b3b62ba8485358cd48967e854a857a38ecdbfe5b62f8ac", "addr": "176n9Cx6LKri6YUxFNBr7aUzb2TbLzJbsM"}], "hex": "01000000010000000000000000000000000000000000000000000000000000000000000000ffffffff0704ffff001d0103ffffffff0100f2052a0100000043410449fff9665bfda43017a27b3d32e986378befdd6fa5d4eb097626701ace807a2b3a43e74375dce4ed9028b3b62ba8485358cd48967e854a857a38ecdbfe5b62f8ac00000000"}]}