{"hash": "000000008bb30dccc10c56c339c8aaacbe0c71051dc51ee10cc84db945db2978", "ver": 1, "prev_block": "000000009a940db389f3a7cbb8405f4ec14342bed36073b60ee63ed7e117f193", "mrkl_root": "5f6c6965593c19c55ea077d820dc1b49172e92e7179ac02491396c96292b6f5e", "time": 1231745189, "bits": 486604799, "next_block": ["000000007d31c3592c3fd6f4571c14870f06150028320dda7c847e1869881535"], "fee": 0, "nonce": 1723050534, "n_tx": 1, "size": 215, "block_index": 189, "main_chain": true, "height": 189, "weight": 860, "tx": [{"hash": "5f6c6965593c19c55ea077d820dc1b49172e92e7179ac02491396c96292b6f5e", "ver": 1, "vin_sz": 1, "vout_sz": 1, "size": 134, "weight": 536, "fee": 0, "relayed_by": "0.0.0.0", "lock_time": 0, "tx_index": 3322609872850311, "double_spend": false, "time": 1231745189, "block_index": 189, "block_height": 189, "inputs": [{"sequence": 4294967295, "witness": "", "script": "04ffff001d010b", "index": 0, "prev_out": null}], "out": [{"type": 0, "spent": false, "value": 5000000000, "spending_outpoints": [], "n": 0, "tx_index": 3322609872850311, "script": "410468b02e8cc3c5905dff8f831cdcf8dc47a093f820163bb62efc12bd0dd6cdd63ec6dcc7c121e4fb7795f5ae241d00167390eeb0fed7d6154e2a21da50d8f977a8ac", "addr": "1EPeRrfFgn8Dm7mbfaFHUNUpD5UnKkeSNQ"}], "hex": "01000000010000000000000000000000000000000000000000000000000000000000000000ffffffff0704ffff001d010bffffffff0100f2052a0100000043410468b02e8cc3c5905dff8f831cdcf8dc47a093f820163bb62efc12bd0dd6cdd63ec6dcc7c121e4fb7795f5ae241d00167390eeb0fed7d6154e2a21da50d8f977a8ac00000000"}]}