{"hash": "00000000841cb802ca97cf20fb9470480cae9e5daa5d06b4a18ae2d5dd7f186f", "ver": 1, "prev_block": "000000008693e98cf893e4c85a446b410bb4dfa129bd1be582c09ed3f0261116", "mrkl_root": "9b9e461221e5284f3bfe5656efdc8c7cc633b2f1beef54a86316bf2ae3a3e230", "time": 1231564974, "bits": 486604799, "next_block": ["0000000067a97a2a37b8f190a17f0221e9c3f4fa824ddffdc2e205eae834c8d7"], "fee": 0, "nonce": 766824726, "n_tx": 1, "size": 215, "block_index": 19, "main_chain": true, "height": 19, "weight": 860, "tx": [{"hash": "9b9e461221e5284f3bfe5656efdc8c7cc633b2f1beef54a86316bf2ae3a3e230", "ver": 1, "vin_sz": 1, "vout_sz": 1, "size": 134, "weight": 536, "fee": 0, "relayed_by": "0.0.0.0", "lock_time": 0, "tx_index": 1719999050110946, "double_spend": false, "time": 1231564974, "block_index": 19, "block_height": 19, "inputs": [{"sequence": 4294967295, "witness": "", "script": "04ffff001d0116", "index": 0, "prev_out": null}], "out": [{"type": 0, "spent": false, "value": 5000000000, "spending_outpoints": [], "n": 0, "tx_index": 1719999050110946, "script": "4104f5efde0c2d30ab28e3dbe804c1a4aaf13066f9b198a4159c76f8f79b3b20caf99f7c979ed6c71481061277a6fc8666977c249da99960c97c8d8714fda9f0e883ac", "addr": "1P9VmZogiic8d5ZUVZofrdtzXgtpbG9fop"}], "hex": "01000000010000000000000000000000000000000000000000000000000000000000000000ffffffff0704ffff001d0116ffffffff0100f2052a01000000434104f5efde0c2d30ab28e3dbe804c1a4aaf13066f9b198a4159c76f8f79b3b20caf99f7c979ed6c71481061277a6fc8666977c249da99960c97c8d8714fda9f0e883ac00000000"}]}