{"hash": "000000007d31c3592c3fd6f4571c14870f06150028320dda7c847e1869881535", "ver": 1, "prev_block": "000000008bb30dccc10c56c339c8aaacbe0c71051dc51ee10cc84db945db2978", "mrkl_root": "03754cb5d97171f404f7e298cd9a01933ec6581483757d79bebd4c226d962f35", "time": 1231745501, "bits": 486604799, "next_block": ["00000000520bf3614f3f3f312491bcce9ae820cfcf8393cf1e7aecb0db4932ab"], "fee": 0, "nonce": 3810841349, "n_tx": 1, "size": 215, "block_index": 190, "main_chain": true, "height": 190, "weight": 860, "tx": [{"hash": "03754cb5d97171f404f7e298cd9a01933ec6581483757d79bebd4c226d962f35", "ver": 1, "vin_sz": 1, "vout_sz": 1, "size": 134, "weight": 536, "fee": 0, "relayed_by": "0.0.0.0", "lock_time": 0, "tx_index": 1871312111028631, "double_spend": false, "time": 1231745501, "block_index": 190, "block_height": 190, "inputs": [{"sequence": 4294967295, "witness": "", "script": "04ffff001d010a", "index": 0, "prev_out": null}], "out": [{"type": 0, "spent": false, "value": 5000000000, "spending_outpoints": [], "n": 0, "tx_index": 1871312111028631, "script": "41043c13da0878491a5ec1b31490c22c79cab18b43feff1cb0bf7a8c39c5446f60dac4ac0f1a62e230aaf72368fdb57e9cb3eb58fd019600ff41f3df0192f1da2e19ac", "addr": "1MNHWu6JeCrtFyjEPcR6bJSrfQ3kJ3Hyin"}], "hex": "01000000010000000000000000000000000000000000000000000000000000000000000000ffffffff0704ffff001d010affffffff0100f2052a010000004341043c13da0878491a5ec1b31490c22c79cab18b43feff1cb0bf7a8c39c5446f60dac4ac0f1a62e230aaf72368fdb57e9cb3eb58fd019600ff41f3df0192f1da2e19ac00000000"}]}