{"hash": "00000000520bf3614f3f3f312491bcce9ae820cfcf8393cf1e7aecb0db4932ab", "ver": 1, "prev_block": "000000007d31c3592c3fd6f4571c14870f06150028320dda7c847e1869881535", "mrkl_root": "eb0050c15250c0cae3248d4989c84b45495aeb3d8434627fb8d217deb399adb1", "time": 1231745534, "bits": 486604799, "next_block": ["000000000a35a6104f17dc5dedb6ef250ef412f4fbf67f5dd77f964aa1c10b36"], "fee": 0, "nonce": 2966469413, "n_tx": 1, "size": 215, "block_index": 191, "main_chain": true, "height": 191, "weight": 860, "tx": [{"hash": "eb0050c15250c0cae3248d4989c84b45495aeb3d8434627fb8d217deb399adb1", "ver": 1, "vin_sz": 1, "vout_sz": 1, "size": 134, "weight": 536, "fee": 0, "relayed_by": "0.0.0.0", "lock_time": 0, "tx_index": 6251493317133050, "double_spend": false, "time": 1231745534, "block_index": 191, "block_height": 191, "inputs": [{"sequence": 4294967295, "witness": "", "script": "04ffff001d0121", "index": 0, "prev_out": null}], "out": [{"type": 0, "spent": false, "value": 5000000000, "spending_outpoints": [], "n": 0, "tx_index": 6251493317133050, "script": "4104ef870ee124a68e999508eda763ddf0152c2684a9d74d7f07d0af3b8c7192e98277d0dc3247f10b75fc32207f71cfeadb01337d0c8c540970679102a5f9547c76ac", "addr": "1QEDtTS36hrcJuv6SvhqoUvVrfMLdkaN7C"}], "hex": "01000000010000000000000000000000000000000000000000000000000000000000000000ffffffff0704ffff001d0121ffffffff0100f2052a01000000434104ef870ee124a68e999508eda763ddf0152c2684a9d74d7f07d0af3b8c7192e98277d0dc3247f10b75fc32207f71cfeadb01337d0c8c540970679102a5f9547c76ac00000000"}]}