{"hash": "000000000a35a6104f17dc5dedb6ef250ef412f4fbf67f5dd77f964aa1c10b36", "ver": 1, "prev_block": "00000000520bf3614f3f3f312491bcce9ae820cfcf8393cf1e7aecb0db4932ab", "mrkl_root": "16293da6d4078f636b691448b57f96d5af32d7ca3fb15a20cc74845b224a44bd", "time": 1231747164, "bits": 486604799, "next_block": ["00000000833cccbec543914a96b4994669205444c85d9e4f5268d808910b9696"], "fee": 0, "nonce": 4261059103, "n_tx": 1, "size": 215, "block_index": 192, "main_chain": true, "height": 192, "weight": 860, "tx": [{"hash": "16293da6d4078f636b691448b57f96d5af32d7ca3fb15a20cc74845b224a44bd", "ver": 1, "vin_sz": 1, "vout_sz": 1, "size": 134, "weight": 536, "fee": 0, "relayed_by": "0.0.0.0", "lock_time": 0, "tx_index": 6659231974125710, "double_spend": false, "time": 1231747164, "block_index": 192, "block_height": 192, "inputs": [{"sequence": 4294967295, "witness": "", "script": "04ffff001d010d", "index": 0, "prev_out": null}], "out": [{"type": 0, "spent": false, "value": 5000000000, "spending_outpoints": [], "n": 0, "tx_index": 6659231974125710, "script": "4104688a6734155a81a8fd9093a55b16bc5c50242f7ead7e0070c91db438fd15f80bd2841af71ee62213bd2022276edf646957546537a54ceb3a7b478e7c07be213bac", "addr": "15HWA4SmQ9zm9iYGyxPK7r1oDugPXeWwDk"}], "hex": "01000000010000000000000000000000000000000000000000000000000000000000000000ffffffff0704ffff001d010dffffffff0100f2052a01000000434104688a6734155a81a8fd9093a55b16bc5c50242f7ead7e0070c91db438fd15f80bd2841af71ee62213bd2022276edf646957546537a54ceb3a7b478e7c07be213bac00000000"}]}