{"hash": "00000000833cccbec543914a96b4994669205444c85d9e4f5268d808910b9696", "ver": 1, "prev_block": "000000000a35a6104f17dc5dedb6ef250ef412f4fbf67f5dd77f964aa1c10b36", "mrkl_root": "10470e2c3c443863ea2e84684f7f6021539f518d3246ad97125d348ea1a75964", "time": 1231747455, "bits": 486604799, "next_block": ["0000000095680bb7be29ad8e6838ccb3eb3af464b813ccf31b4ea717fcc93ee7"], "fee": 0, "nonce": 4006026267, "n_tx": 1, "size": 215, "block_index": 193, "main_chain": true, "height": 193, "weight": 860, "tx": [{"hash": "10470e2c3c443863ea2e84684f7f6021539f518d3246ad97125d348ea1a75964", "ver": 1, "vin_sz": 1, "vout_sz": 1, "size": 134, "weight": 536, "fee": 0, "relayed_by": "0.0.0.0", "lock_time": 0, "tx_index": 3530759271990923, "double_spend": false, "time": 1231747455, "block_index": 193, "block_height": 193, "inputs": [{"sequence": 4294967295, "witness": "", "script": "04ffff001d010f", "index": 0, "prev_out": null}], "out": [{"type": 0, "spent": false, "value": 5000000000, "spending_outpoints": [], "n": 0, "tx_index": 3530759271990923, "script": "4104a8cb399580117eb940d0fe7d1f7ec3f8bd0b13b9cc3d2e01df5072a000534f7713a7d57dc06e4538a62784688e83ec77a062cc2d404ac9f9a70774935edce4cbac", "addr": "1NEAg9cRUBUmTV8FG5ed33nPiXwEKaCxra"}], "hex": "01000000010000000000000000000000000000000000000000000000000000000000000000ffffffff0704ffff001d010fffffffff0100f2052a01000000434104a8cb399580117eb940d0fe7d1f7ec3f8bd0b13b9cc3d2e01df5072a000534f7713a7d57dc06e4538a62784688e83ec77a062cc2d404ac9f9a70774935edce4cbac00000000"}]}