{"hash": "0000000095680bb7be29ad8e6838ccb3eb3af464b813ccf31b4ea717fcc93ee7", "ver": 1, "prev_block": "00000000833cccbec543914a96b4994669205444c85d9e4f5268d808910b9696", "mrkl_root": "a7edd1f5436d5867b26cbf0bff7663329198b1d4ab41beb8a3b9b36836dd1429", "time": 1231747844, "bits": 486604799, "next_block": ["0000000068b997ae9d5c9c63ecf643bb4cff3c4e4cf765ec2479ecd8b1cfc8fe"], "fee": 0, "nonce": 2193620277, "n_tx": 1, "size": 215, "block_index": 194, "main_chain": true, "height": 194, "weight": 860, "tx": [{"hash": "a7edd1f5436d5867b26cbf0bff7663329198b1d4ab41beb8a3b9b36836dd1429", "ver": 1, "vin_sz": 1, "vout_sz": 1, "size": 134, "weight": 536, "fee": 0, "relayed_by": "0.0.0.0", "lock_time": 0, "tx_index": 1445426797287031, "double_spend": false, "time": 1231747844, "block_index": 194, "block_height": 194, "inputs": [{"sequence": 4294967295, "witness": "", "script": "04ffff001d0111", "index": 0, "prev_out": null}], "out": [{"type": 0, "spent": false, "value": 5000000000, "spending_outpoints": [], "n": 0, "tx_index": 1445426797287031, "script": "410436a50bc64a0d10e2f7cbdac937aa2b5c01b4d275026b1cd95d71960a3fb95599155e43fb7e27ca3ac3b9c423be8e8a3aa1ab81873d15819e0d1fa8dbacde24c1ac", "addr": "12RyzPinkywNAN1L78tpBS14QTFQCBhuLE"}], "hex": "01000000010000000000000000000000000000000000000000000000000000000000000000ffffffff0704ffff001d0111ffffffff0100f2052a0100000043410436a50bc64a0d10e2f7cbdac937aa2b5c01b4d275026b1cd95d71960a3fb95599155e43fb7e27ca3ac3b9c423be8e8a3aa1ab81873d15819e0d1fa8dbacde24c1ac00000000"}]}