{"hash": "0000000091206177d68fee7a5a6b4a0747c39061c2eb82f800b447a077bfe310", "ver": 1, "prev_block": "0000000068b997ae9d5c9c63ecf643bb4cff3c4e4cf765ec2479ecd8b1cfc8fe", "mrkl_root": "3f3c3521288c32c85172217f6dc0275740425e28d517f4b6638d7b282c409221", "time": 1231750046, "bits": 486604799, "next_block": ["00000000ef271937f59286dc81d6b28196ff099bf266e12a3442c4b82c9db814"], "fee": 0, "nonce": 806943026, "n_tx": 1, "size": 215, "block_index": 196, "main_chain": true, "height": 196, "weight": 860, "tx": [{"hash": "3f3c3521288c32c85172217f6dc0275740425e28d517f4b6638d7b282c409221", "ver": 1, "vin_sz": 1, "vout_sz": 1, "size": 134, "weight": 536, "fee": 0, "relayed_by": "0.0.0.0", "lock_time": 0, "tx_index": 1181184818483057, "double_spend": false, "time": 1231750046, "block_index": 196, "block_height": 196, "inputs": [{"sequence": 4294967295, "witness": "", "script": "04ffff001d011c", "index": 0, "prev_out": null}], "out": [{"type": 0, "spent": false, "value": 5000000000, "spending_outpoints": [], "n": 0, "tx_index": 1181184818483057, "script": "41045111f442ff6e4a80d31a127a77e9bfa33652bb719d1df7a59cdbae51de312d1a80ddd343f579ca4b2146a47b492ce6600ec53a9e5a7936e9af16ccf1dd7072ffac", "addr": "1Dw5XyQk2pFDNLQUsc2Eknq5ikQAwfRqsR"}], "hex": "01000000010000000000000000000000000000000000000000000000000000000000000000ffffffff0704ffff001d011cffffffff0100f2052a010000004341045111f442ff6e4a80d31a127a77e9bfa33652bb719d1df7a59cdbae51de312d1a80ddd343f579ca4b2146a47b492ce6600ec53a9e5a7936e9af16ccf1dd7072ffac00000000"}]}