{"hash": "00000000ef271937f59286dc81d6b28196ff099bf266e12a3442c4b82c9db814", "ver": 1, "prev_block": "0000000091206177d68fee7a5a6b4a0747c39061c2eb82f800b447a077bfe310", "mrkl_root": "7a98238d69b473e82a4ccfa62463064379c0c96fa890a951ccdbb924f5572dcb", "time": 1231751312, "bits": 486604799, "next_block": ["00000000e85458c1467176b04a65d5efaccfecaaab717b17a587b4069276e143"], "fee": 0, "nonce": 2505039909, "n_tx": 1, "size": 215, "block_index": 197, "main_chain": true, "height": 197, "weight": 860, "tx": [{"hash": "7a98238d69b473e82a4ccfa62463064379c0c96fa890a951ccdbb924f5572dcb", "ver": 1, "vin_sz": 1, "vout_sz": 1, "size": 134, "weight": 536, "fee": 0, "relayed_by": "0.0.0.0", "lock_time": 0, "tx_index": 7148659508811579, "double_spend": false, "time": 1231751312, "block_index": 197, "block_height": 197, "inputs": [{"sequence": 4294967295, "witness": "", "script": "04ffff001d011f", "index": 0, "prev_out": null}], "out": [{"type": 0, "spent": false, "value": 5000000000, "spending_outpoints": [], "n": 0, "tx_index": 7148659508811579, "script": "410441f84af9b0d434a654d041e22314144621b395f166e01abb2df9d603d7d838fc44a2a52276fe747833d737e80edd5ba0b9d5b5000985e5392463337e129ea676ac", "addr": "1F22VKzwQWf2LoSziz78Zc5e7owfrHDRCy"}], "hex": "01000000010000000000000000000000000000000000000000000000000000000000000000ffffffff0704ffff001d011fffffffff0100f2052a0100000043410441f84af9b0d434a654d041e22314144621b395f166e01abb2df9d603d7d838fc44a2a52276fe747833d737e80edd5ba0b9d5b5000985e5392463337e129ea676ac00000000"}]}