{"hash": "00000000e85458c1467176b04a65d5efaccfecaaab717b17a587b4069276e143", "ver": 1, "prev_block": "00000000ef271937f59286dc81d6b28196ff099bf266e12a3442c4b82c9db814", "mrkl_root": "8453119b70f9a2b31aa32c64b5cade25fea8b67fb3437cb90a2332463f03250c", "time": 1231752161, "bits": 486604799, "next_block": ["00000000b7691ccc084542565697eca256e56bb7f67e560b48789db27f0468eb"], "fee": 0, "nonce": 798850333, "n_tx": 1, "size": 215, "block_index": 198, "main_chain": true, "height": 198, "weight": 860, "tx": [{"hash": "8453119b70f9a2b31aa32c64b5cade25fea8b67fb3437cb90a2332463f03250c", "ver": 1, "vin_sz": 1, "vout_sz": 1, "size": 134, "weight": 536, "fee": 0, "relayed_by": "0.0.0.0", "lock_time": 0, "tx_index": 427299449652804, "double_spend": false, "time": 1231752161, "block_index": 198, "block_height": 198, "inputs": [{"sequence": 4294967295, "witness": "", "script": "04ffff001d0124", "index": 0, "prev_out": null}], "out": [{"type": 0, "spent": false, "value": 5000000000, "spending_outpoints": [], "n": 0, "tx_index": 427299449652804, "script": "41040b91eef9fcaea65e13c2821ae70f1aa428e0c9f2406f371f862309247f8a842ad7d9b72c95d7f556da274c9afdf6cfd238be861e77cf760fd99de3f67dff9142ac", "addr": "1AL11Yfw2ZP9C4wGiWf99jwZyTjWWY4JVn"}], "hex": "01000000010000000000000000000000000000000000000000000000000000000000000000ffffffff0704ffff001d0124ffffffff0100f2052a010000004341040b91eef9fcaea65e13c2821ae70f1aa428e0c9f2406f371f862309247f8a842ad7d9b72c95d7f556da274c9afdf6cfd238be861e77cf760fd99de3f67dff9142ac00000000"}]}