{"hash": "00000000b7691ccc084542565697eca256e56bb7f67e560b48789db27f0468eb", "ver": 1, "prev_block": "00000000e85458c1467176b04a65d5efaccfecaaab717b17a587b4069276e143", "mrkl_root": "7794b939df62305460eb1b03adbf4a0cc1e1b43a3670e5272b7c71bf6574fa28", "time": 1231752757, "bits": 486604799, "next_block": ["000000008f1a7008320c16b8402b7f11e82951f44ca2663caf6860ab2eeef320"], "fee": 0, "nonce": 2306272536, "n_tx": 1, "size": 215, "block_index": 199, "main_chain": true, "height": 199, "weight": 860, "tx": [{"hash": "7794b939df62305460eb1b03adbf4a0cc1e1b43a3670e5272b7c71bf6574fa28", "ver": 1, "vin_sz": 1, "vout_sz": 1, "size": 134, "weight": 536, "fee": 0, "relayed_by": "0.0.0.0", "lock_time": 0, "tx_index": 1441797112327727, "double_spend": false, "time": 1231752757, "block_index": 199, "block_height": 199, "inputs": [{"sequence": 4294967295, "witness": "", "script": "04ffff001d0130", "index": 0, "prev_out": null}], "out": [{"type": 0, "spent": false, "value": 5000000000, "spending_outpoints": [], "n": 0, "tx_index": 1441797112327727, "script": "41044ab32bf7291275b7e615a79c9a22a63631a131bb926db5c1fc6c4986ad02800bbf19c275377da071bb37fbbc50cf7a2e95b5b8ab68240ae2ec9a9c094a771359ac", "addr": "1LKriCmDaBz4SfCoDjcjR1b9CmQTHibCcr"}], "hex": "01000000010000000000000000000000000000000000000000000000000000000000000000ffffffff0704ffff001d0130ffffffff0100f2052a010000004341044ab32bf7291275b7e615a79c9a22a63631a131bb926db5c1fc6c4986ad02800bbf19c275377da071bb37fbbc50cf7a2e95b5b8ab68240ae2ec9a9c094a771359ac00000000"}]}