{"hash": "000000006a625f06636b8bb6ac7b960a8d03705d1ace08b1a19da3fdcc99ddbd", "ver": 1, "prev_block": "00000000839a8e6886ab5951d76f411475428afc90947ee320161bbf18eb6048", "mrkl_root": "9b0fc92260312ce44e74ef369f5c66bbb85848f2eddd5a7a1cde251e54ccfdd5", "time": 1231469744, "bits": 486604799, "next_block": ["0000000082b5015589a3fdf2d4baff403e6f0be035a5d9742c1cae6295464449"], "fee": 0, "nonce": 1639830024, "n_tx": 1, "size": 215, "block_index": 2, "main_chain": true, "height": 2, "weight": 860, "tx": [{"hash": "9b0fc92260312ce44e74ef369f5c66bbb85848f2eddd5a7a1cde251e54ccfdd5", "ver": 1, "vin_sz": 1, "vout_sz": 1, "size": 134, "weight": 536, "fee": 0, "relayed_by": "0.0.0.0", "lock_time": 0, "tx_index": 7529153008223419, "double_spend": false, "time": 1231469744, "block_index": 2, "block_height": 2, "inputs": [{"sequence": 4294967295, "witness": "", "script": "04ffff001d010b", "index": 0, "prev_out": null}], "out": [{"type": 0, "spent": false, "value": 5000000000, "spending_outpoints": [], "n": 0, "tx_index": 7529153008223419, "script": "41047211a824f55b505228e4c3d5194c1fcfaa15a456abdf37f9b9d97a4040afc073dee6c89064984f03385237d92167c13e236446b417ab79a0fcae412ae3316b77ac", "addr": "1HLoD9E4SDFFPDiYfNYnkBLQ85Y51J3Zb1"}], "hex": "01000000010000000000000000000000000000000000000000000000000000000000000000ffffffff0704ffff001d010bffffffff0100f2052a010000004341047211a824f55b505228e4c3d5194c1fcfaa15a456abdf37f9b9d97a4040afc073dee6c89064984f03385237d92167c13e236446b417ab79a0fcae412ae3316b77ac00000000"}]}