{"hash": "000000008f1a7008320c16b8402b7f11e82951f44ca2663caf6860ab2eeef320", "ver": 1, "prev_block": "00000000b7691ccc084542565697eca256e56bb7f67e560b48789db27f0468eb", "mrkl_root": "2b1f06c2401d3b49a33c3f5ad5864c0bc70044c4068f9174546f3cfc1887d5ba", "time": 1231753120, "bits": 486604799, "next_block": ["000000002b50d5963806b024fa09d296a3d8762713536eba9e5bdfa7596f814a"], "fee": 0, "nonce": 1832536838, "n_tx": 1, "size": 215, "block_index": 200, "main_chain": true, "height": 200, "weight": 860, "tx": [{"hash": "2b1f06c2401d3b49a33c3f5ad5864c0bc70044c4068f9174546f3cfc1887d5ba", "ver": 1, "vin_sz": 1, "vout_sz": 1, "size": 134, "weight": 536, "fee": 0, "relayed_by": "0.0.0.0", "lock_time": 0, "tx_index": 6573640235583373, "double_spend": false, "time": 1231753120, "block_index": 200, "block_height": 200, "inputs": [{"sequence": 4294967295, "witness": "", "script": "04ffff001d0138", "index": 0, "prev_out": null}], "out": [{"type": 0, "spent": false, "value": 5000000000, "spending_outpoints": [], "n": 0, "tx_index": 6573640235583373, "script": "41045e071dedd1ed03721c6e9bba28fc276795421a378637fb41090192bb9f208630dcbac5862a3baeb9df3ca6e4e256b7fd2404824c20198ca1b004ee2197866433ac", "addr": "1HwmP33SaknLYShXfjVU8KmVThU3JiuVgH"}], "hex": "01000000010000000000000000000000000000000000000000000000000000000000000000ffffffff0704ffff001d0138ffffffff0100f2052a010000004341045e071dedd1ed03721c6e9bba28fc276795421a378637fb41090192bb9f208630dcbac5862a3baeb9df3ca6e4e256b7fd2404824c20198ca1b004ee2197866433ac00000000"}]}