{"hash": "000000002b50d5963806b024fa09d296a3d8762713536eba9e5bdfa7596f814a", "ver": 1, "prev_block": "000000008f1a7008320c16b8402b7f11e82951f44ca2663caf6860ab2eeef320", "mrkl_root": "864b69193eb78695cc6990d65c37877ede30dbddbe1a5a81a5a0bfb370c6ce1d", "time": 1231753837, "bits": 486604799, "next_block": ["0000000009c730652f9bacbf750723245979b5978dd8332fb3581a90c3a5bda8"], "fee": 0, "nonce": 4003448086, "n_tx": 1, "size": 215, "block_index": 201, "main_chain": true, "height": 201, "weight": 860, "tx": [{"hash": "864b69193eb78695cc6990d65c37877ede30dbddbe1a5a81a5a0bfb370c6ce1d", "ver": 1, "vin_sz": 1, "vout_sz": 1, "size": 134, "weight": 536, "fee": 0, "relayed_by": "0.0.0.0", "lock_time": 0, "tx_index": 1048765751785460, "double_spend": false, "time": 1231753837, "block_index": 201, "block_height": 201, "inputs": [{"sequence": 4294967295, "witness": "", "script": "04ffff001d013b", "index": 0, "prev_out": null}], "out": [{"type": 0, "spent": false, "value": 5000000000, "spending_outpoints": [], "n": 0, "tx_index": 1048765751785460, "script": "4104caa6b189180c0135f5ffc43a41b5bec593d7baf94240a3076ffce63679e550df3c01ce91c1bfb82498a3f4fecd884d137101bbcdd70dbdd7b457a63252b614f2ac", "addr": "1PAL9ZNuwAcufS8xSnGMCpQqECFF9g9QN1"}], "hex": "01000000010000000000000000000000000000000000000000000000000000000000000000ffffffff0704ffff001d013bffffffff0100f2052a01000000434104caa6b189180c0135f5ffc43a41b5bec593d7baf94240a3076ffce63679e550df3c01ce91c1bfb82498a3f4fecd884d137101bbcdd70dbdd7b457a63252b614f2ac00000000"}]}