{"hash": "0000000009c730652f9bacbf750723245979b5978dd8332fb3581a90c3a5bda8", "ver": 1, "prev_block": "000000002b50d5963806b024fa09d296a3d8762713536eba9e5bdfa7596f814a", "mrkl_root": "3eb409c61a3314558d8355a9f2e5ab4470cd12cac3d3eb48c1f76282e8fee468", "time": 1231754944, "bits": 486604799, "next_block": ["000000001ee5a7a841a87b59245aa36f03b5d7d3d43963d0f2bf76f3d1fc2172"], "fee": 0, "nonce": 2320706856, "n_tx": 1, "size": 215, "block_index": 202, "main_chain": true, "height": 202, "weight": 860, "tx": [{"hash": "3eb409c61a3314558d8355a9f2e5ab4470cd12cac3d3eb48c1f76282e8fee468", "ver": 1, "vin_sz": 1, "vout_sz": 1, "size": 134, "weight": 536, "fee": 0, "relayed_by": "0.0.0.0", "lock_time": 0, "tx_index": 3690647631449182, "double_spend": false, "time": 1231754944, "block_index": 202, "block_height": 202, "inputs": [{"sequence": 4294967295, "witness": "", "script": "04ffff001d013c", "index": 0, "prev_out": null}], "out": [{"type": 0, "spent": false, "value": 5000000000, "spending_outpoints": [], "n": 0, "tx_index": 3690647631449182, "script": "4104bc2a9a9b73e3bc77c70a4dee07899eb65923e7535cd615e962ce7691f7d22733c50859b5d75bc58d9d0774c7a8c4f8c43fadc6a150c690ec7dd42e28f05d35a1ac", "addr": "1P8BjGr7JG8zfDTZBE4Kat2KthsDJ9xg5e"}], "hex": "01000000010000000000000000000000000000000000000000000000000000000000000000ffffffff0704ffff001d013cffffffff0100f2052a01000000434104bc2a9a9b73e3bc77c70a4dee07899eb65923e7535cd615e962ce7691f7d22733c50859b5d75bc58d9d0774c7a8c4f8c43fadc6a150c690ec7dd42e28f05d35a1ac00000000"}]}