{"hash": "000000001ee5a7a841a87b59245aa36f03b5d7d3d43963d0f2bf76f3d1fc2172", "ver": 1, "prev_block": "0000000009c730652f9bacbf750723245979b5978dd8332fb3581a90c3a5bda8", "mrkl_root": "1c3b9c8a47f3f6f29a1580df8478cfc692c5a2f6ba3bcbe0f9251f32170fd665", "time": 1231756296, "bits": 486604799, "next_block": ["000000009e50091c12aa8dc002a193522a5781a1a526ea96c77fb14f75aac9cf"], "fee": 0, "nonce": 1469397546, "n_tx": 1, "size": 215, "block_index": 203, "main_chain": true, "height": 203, "weight": 860, "tx": [{"hash": "1c3b9c8a47f3f6f29a1580df8478cfc692c5a2f6ba3bcbe0f9251f32170fd665", "ver": 1, "vin_sz": 1, "vout_sz": 1, "size": 134, "weight": 536, "fee": 0, "relayed_by": "0.0.0.0", "lock_time": 0, "tx_index": 3583041618723812, "double_spend": false, "time": 1231756296, "block_index": 203, "block_height": 203, "inputs": [{"sequence": 4294967295, "witness": "", "script": "04ffff001d0144", "index": 0, "prev_out": null}], "out": [{"type": 0, "spent": false, "value": 5000000000, "spending_outpoints": [], "n": 0, "tx_index": 3583041618723812, "script": "41046a48e797022dbf0a9222fe72fee2e19e99af1c5023a9e773df3703450aae5a45ab7087283d58930b3a34c68ca9e95793ff3e41bf47131d7b80753119cb0186bbac", "addr": "14fKXAX9CFFGVE2txHtTbLX5owb6x9dYh3"}], "hex": "01000000010000000000000000000000000000000000000000000000000000000000000000ffffffff0704ffff001d0144ffffffff0100f2052a010000004341046a48e797022dbf0a9222fe72fee2e19e99af1c5023a9e773df3703450aae5a45ab7087283d58930b3a34c68ca9e95793ff3e41bf47131d7b80753119cb0186bbac00000000"}]}