{"hash": "000000009e50091c12aa8dc002a193522a5781a1a526ea96c77fb14f75aac9cf", "ver": 1, "prev_block": "000000001ee5a7a841a87b59245aa36f03b5d7d3d43963d0f2bf76f3d1fc2172", "mrkl_root": "4b2eaa4a5da7d929fc652e089d7d1b86948fdf920ef430c03b93172fd4e6a721", "time": 1231756638, "bits": 486604799, "next_block": ["00000000d7e3261b16abe2fc1811150812ee0d6f6fc3727cadd8821df2d96c45"], "fee": 0, "nonce": 15280487, "n_tx": 1, "size": 215, "block_index": 204, "main_chain": true, "height": 204, "weight": 860, "tx": [{"hash": "4b2eaa4a5da7d929fc652e089d7d1b86948fdf920ef430c03b93172fd4e6a721", "ver": 1, "vin_sz": 1, "vout_sz": 1, "size": 134, "weight": 536, "fee": 0, "relayed_by": "0.0.0.0", "lock_time": 0, "tx_index": 1184160509453042, "double_spend": false, "time": 1231756638, "block_index": 204, "block_height": 204, "inputs": [{"sequence": 4294967295, "witness": "", "script": "04ffff001d010d", "index": 0, "prev_out": null}], "out": [{"type": 0, "spent": false, "value": 5000000000, "spending_outpoints": [], "n": 0, "tx_index": 1184160509453042, "script": "41042d4d1210d911e3195282c10c0904dd17ae8f88d28ad77b5be9483b24af3419b87840d0a1796f32e4b16a4d5593abcc17d8654a8fe12a5cc3d7efc40255a42a01ac", "addr": "1ExG3uFvQJ12uXotnp78enyMZbfEizWzRn"}], "hex": "01000000010000000000000000000000000000000000000000000000000000000000000000ffffffff0704ffff001d010dffffffff0100f2052a010000004341042d4d1210d911e3195282c10c0904dd17ae8f88d28ad77b5be9483b24af3419b87840d0a1796f32e4b16a4d5593abcc17d8654a8fe12a5cc3d7efc40255a42a01ac00000000"}]}