{"hash": "00000000d7e3261b16abe2fc1811150812ee0d6f6fc3727cadd8821df2d96c45", "ver": 1, "prev_block": "000000009e50091c12aa8dc002a193522a5781a1a526ea96c77fb14f75aac9cf", "mrkl_root": "b4789eff05c89c1b396c05f13a4b93e14295d15afda191e108dac8a1a292f126", "time": 1231757171, "bits": 486604799, "next_block": ["000000007986095d6dce2f41fd76e8008e828282400e46d3b49f39d19e2b7a78"], "fee": 0, "nonce": 1567119367, "n_tx": 1, "size": 215, "block_index": 205, "main_chain": true, "height": 205, "weight": 860, "tx": [{"hash": "b4789eff05c89c1b396c05f13a4b93e14295d15afda191e108dac8a1a292f126", "ver": 1, "vin_sz": 1, "vout_sz": 1, "size": 134, "weight": 536, "fee": 0, "relayed_by": "0.0.0.0", "lock_time": 0, "tx_index": 1370207651379483, "double_spend": false, "time": 1231757171, "block_index": 205, "block_height": 205, "inputs": [{"sequence": 4294967295, "witness": "", "script": "04ffff001d0146", "index": 0, "prev_out": null}], "out": [{"type": 0, "spent": false, "value": 5000000000, "spending_outpoints": [], "n": 0, "tx_index": 1370207651379483, "script": "4104bb234bf92a7711339336aa62019853f170a4550286143cba21692a6794094f1d15b0d937f0283c24654e57eca200ab6b5c932eacd3ecbf1e286d011cf1de7988ac", "addr": "1AxA6X2FSY5NSZzWS25RXA7j6uhTGEZ9eD"}], "hex": "01000000010000000000000000000000000000000000000000000000000000000000000000ffffffff0704ffff001d0146ffffffff0100f2052a01000000434104bb234bf92a7711339336aa62019853f170a4550286143cba21692a6794094f1d15b0d937f0283c24654e57eca200ab6b5c932eacd3ecbf1e286d011cf1de7988ac00000000"}]}