{"hash": "000000007986095d6dce2f41fd76e8008e828282400e46d3b49f39d19e2b7a78", "ver": 1, "prev_block": "00000000d7e3261b16abe2fc1811150812ee0d6f6fc3727cadd8821df2d96c45", "mrkl_root": "32cbb7e4d08f02fdd78368a7a03ff54c13191d1023aa1e3f157027241d9840ae", "time": 1231757577, "bits": 486604799, "next_block": ["00000000f5714fa64e1f16186d5afe7100ca4393320cef8298e0f59e64c3b008"], "fee": 0, "nonce": 125825145, "n_tx": 1, "size": 215, "block_index": 206, "main_chain": true, "height": 206, "weight": 860, "tx": [{"hash": "32cbb7e4d08f02fdd78368a7a03ff54c13191d1023aa1e3f157027241d9840ae", "ver": 1, "vin_sz": 1, "vout_sz": 1, "size": 134, "weight": 536, "fee": 0, "relayed_by": "0.0.0.0", "lock_time": 0, "tx_index": 6130958501971182, "double_spend": false, "time": 1231757577, "block_index": 206, "block_height": 206, "inputs": [{"sequence": 4294967295, "witness": "", "script": "04ffff001d010e", "index": 0, "prev_out": null}], "out": [{"type": 0, "spent": false, "value": 5000000000, "spending_outpoints": [], "n": 0, "tx_index": 6130958501971182, "script": "4104bc184a82d824a8ff59576e8b6843767407e4f35edb5ad725460764a30ddf91479fd0eb1b0c2b4371a06b3fdae3453262fcf3358afafe3dbebccf2fdefcd0853cac", "addr": "12zBX15JrZjgxLkvr3rVUcVcD6323rZ3bY"}], "hex": "01000000010000000000000000000000000000000000000000000000000000000000000000ffffffff0704ffff001d010effffffff0100f2052a01000000434104bc184a82d824a8ff59576e8b6843767407e4f35edb5ad725460764a30ddf91479fd0eb1b0c2b4371a06b3fdae3453262fcf3358afafe3dbebccf2fdefcd0853cac00000000"}]}