{"hash": "00000000f5714fa64e1f16186d5afe7100ca4393320cef8298e0f59e64c3b008", "ver": 1, "prev_block": "000000007986095d6dce2f41fd76e8008e828282400e46d3b49f39d19e2b7a78", "mrkl_root": "10213d32652ab07be761d88a33ead6a159fa9bc60456843bbd3ab9583b9dc383", "time": 1231757909, "bits": 486604799, "next_block": ["00000000fe5020fa736e81aa601b61c4c8007c171a92fdc802649970b81f82ff"], "fee": 0, "nonce": 2948075804, "n_tx": 1, "size": 215, "block_index": 207, "main_chain": true, "height": 207, "weight": 860, "tx": [{"hash": "10213d32652ab07be761d88a33ead6a159fa9bc60456843bbd3ab9583b9dc383", "ver": 1, "vin_sz": 1, "vout_sz": 1, "size": 134, "weight": 536, "fee": 0, "relayed_by": "0.0.0.0", "lock_time": 0, "tx_index": 4636037752756007, "double_spend": false, "time": 1231757909, "block_index": 207, "block_height": 207, "inputs": [{"sequence": 4294967295, "witness": "", "script": "04ffff001d0154", "index": 0, "prev_out": null}], "out": [{"type": 0, "spent": false, "value": 5000000000, "spending_outpoints": [], "n": 0, "tx_index": 4636037752756007, "script": "41049fe85ac14399698da9f37468d6d4a3adb3a9e3f9422ff8e76854e72ca952da88a3fac8628710908f240ff4a32486ccd8aaaf721394dbdedb5f387aedbb843aa7ac", "addr": "13QWmek3hEUhhcXL6PkyaQvW8cYuZwGFpM"}], "hex": "01000000010000000000000000000000000000000000000000000000000000000000000000ffffffff0704ffff001d0154ffffffff0100f2052a010000004341049fe85ac14399698da9f37468d6d4a3adb3a9e3f9422ff8e76854e72ca952da88a3fac8628710908f240ff4a32486ccd8aaaf721394dbdedb5f387aedbb843aa7ac00000000"}]}