{"hash": "00000000fe5020fa736e81aa601b61c4c8007c171a92fdc802649970b81f82ff", "ver": 1, "prev_block": "00000000f5714fa64e1f16186d5afe7100ca4393320cef8298e0f59e64c3b008", "mrkl_root": "3e0700022ee439f07d77033161449339f46a90e408290af3f65259ad5e724977", "time": 1231758547, "bits": 486604799, "next_block": ["000000000e478132f5d6451cdb061aa1b639b7a375d566a68702984124ae6b03"], "fee": 0, "nonce": 3675638062, "n_tx": 1, "size": 215, "block_index": 208, "main_chain": true, "height": 208, "weight": 860, "tx": [{"hash": "3e0700022ee439f07d77033161449339f46a90e408290af3f65259ad5e724977", "ver": 1, "vin_sz": 1, "vout_sz": 1, "size": 134, "weight": 536, "fee": 0, "relayed_by": "0.0.0.0", "lock_time": 0, "tx_index": 4197034724010794, "double_spend": false, "time": 1231758547, "block_index": 208, "block_height": 208, "inputs": [{"sequence": 4294967295, "witness": "", "script": "04ffff001d0158", "index": 0, "prev_out": null}], "out": [{"type": 0, "spent": false, "value": 5000000000, "spending_outpoints": [], "n": 0, "tx_index": 4197034724010794, "script": "4104369afb5ed5869f1ba368edf61759668bf454abbc1e2ea3494e99e3c68dd7263f3f1a8176304c5b3b3865ef3c497e3a3548a97c275aaf48bd10417b605a9ded65ac", "addr": "1F7RYd4KM2AesmFx83JYgLKibYrfxcWYaV"}], "hex": "01000000010000000000000000000000000000000000000000000000000000000000000000ffffffff0704ffff001d0158ffffffff0100f2052a01000000434104369afb5ed5869f1ba368edf61759668bf454abbc1e2ea3494e99e3c68dd7263f3f1a8176304c5b3b3865ef3c497e3a3548a97c275aaf48bd10417b605a9ded65ac00000000"}]}