{"hash": "000000000e478132f5d6451cdb061aa1b639b7a375d566a68702984124ae6b03", "ver": 1, "prev_block": "00000000fe5020fa736e81aa601b61c4c8007c171a92fdc802649970b81f82ff", "mrkl_root": "15ca7e3d03d9866a335400244e71dfc405c551c2854fc8d8edfa82729438357d", "time": 1231759316, "bits": 486604799, "next_block": ["00000000101932342af01908230784689a23deff717dcfe16552d673ff30f16b"], "fee": 0, "nonce": 3263482903, "n_tx": 1, "size": 215, "block_index": 209, "main_chain": true, "height": 209, "weight": 860, "tx": [{"hash": "15ca7e3d03d9866a335400244e71dfc405c551c2854fc8d8edfa82729438357d", "ver": 1, "vin_sz": 1, "vout_sz": 1, "size": 134, "weight": 536, "fee": 0, "relayed_by": "0.0.0.0", "lock_time": 0, "tx_index": 4405361151725663, "double_spend": false, "time": 1231759316, "block_index": 209, "block_height": 209, "inputs": [{"sequence": 4294967295, "witness": "", "script": "04ffff001d015a", "index": 0, "prev_out": null}], "out": [{"type": 0, "spent": false, "value": 5000000000, "spending_outpoints": [], "n": 0, "tx_index": 4405361151725663, "script": "410455e9025039b22972e660e10558ec81449ae4ff659a7f09c82ce5595bc804f72bf2b9015e7ea80b560c7226b9d88912626b044e046bd54e01ccc90b530ba684c9ac", "addr": "1GpHVwFv8Qnxov68HxZwdfvMDtEaYucGcR"}], "hex": "01000000010000000000000000000000000000000000000000000000000000000000000000ffffffff0704ffff001d015affffffff0100f2052a0100000043410455e9025039b22972e660e10558ec81449ae4ff659a7f09c82ce5595bc804f72bf2b9015e7ea80b560c7226b9d88912626b044e046bd54e01ccc90b530ba684c9ac00000000"}]}