{"hash": "000000006f016342d1275be946166cff975c8b27542de70a7113ac6d1ef3294f", "ver": 1, "prev_block": "0000000067a97a2a37b8f190a17f0221e9c3f4fa824ddffdc2e205eae834c8d7", "mrkl_root": "e0175970efb4417950921bfcba2a3a1e88c007c21232ff706009cc70b89210b4", "time": 1231566553, "bits": 486604799, "next_block": ["0000000098b58d427a10c860335a21c1a9a7639e96c3d6f1a03d8c8c885b5e3b"], "fee": 0, "nonce": 3592540203, "n_tx": 1, "size": 215, "block_index": 21, "main_chain": true, "height": 21, "weight": 860, "tx": [{"hash": "e0175970efb4417950921bfcba2a3a1e88c007c21232ff706009cc70b89210b4", "ver": 1, "vin_sz": 1, "vout_sz": 1, "size": 134, "weight": 536, "fee": 0, "relayed_by": "0.0.0.0", "lock_time": 0, "tx_index": 6335464769198465, "double_spend": false, "time": 1231566553, "block_index": 21, "block_height": 21, "inputs": [{"sequence": 4294967295, "witness": "", "script": "04ffff001d0125", "index": 0, "prev_out": null}], "out": [{"type": 0, "spent": false, "value": 5000000000, "spending_outpoints": [], "n": 0, "tx_index": 6335464769198465, "script": "41042b08ebb6ada0057e47a125d0a2e99dd2b86c201d41aaf7aa295c625c2c2f1997a8bc6cb9dbda889669989b8d12804c400168e54b093ad05d1170c516abca7d28ac", "addr": "1Fi7o3BKMcT82NVtnMRNqsj8aE5CWbAo4z"}], "hex": "01000000010000000000000000000000000000000000000000000000000000000000000000ffffffff0704ffff001d0125ffffffff0100f2052a010000004341042b08ebb6ada0057e47a125d0a2e99dd2b86c201d41aaf7aa295c625c2c2f1997a8bc6cb9dbda889669989b8d12804c400168e54b093ad05d1170c516abca7d28ac00000000"}]}