{"hash": "00000000101932342af01908230784689a23deff717dcfe16552d673ff30f16b", "ver": 1, "prev_block": "000000000e478132f5d6451cdb061aa1b639b7a375d566a68702984124ae6b03", "mrkl_root": "4cfff6b0df4bb66e6ff4d4bfeebf25b61425a81ff9b590603955ec6f840756c6", "time": 1231759513, "bits": 486604799, "next_block": ["0000000036a2d643bd78d457cab4320877a24303cc567c8ca84f6937802d0bc4"], "fee": 0, "nonce": 60921210, "n_tx": 1, "size": 215, "block_index": 210, "main_chain": true, "height": 210, "weight": 860, "tx": [{"hash": "4cfff6b0df4bb66e6ff4d4bfeebf25b61425a81ff9b590603955ec6f840756c6", "ver": 1, "vin_sz": 1, "vout_sz": 1, "size": 134, "weight": 536, "fee": 0, "relayed_by": "0.0.0.0", "lock_time": 0, "tx_index": 6978329459424650, "double_spend": false, "time": 1231759513, "block_index": 210, "block_height": 210, "inputs": [{"sequence": 4294967295, "witness": "", "script": "04ffff001d0112", "index": 0, "prev_out": null}], "out": [{"type": 0, "spent": false, "value": 5000000000, "spending_outpoints": [], "n": 0, "tx_index": 6978329459424650, "script": "410490172aa2b34471d42d7ac5dfeaf34b24fcf018409eca0eb4424c388839df8a6d388dde423e6285479db1f5f9ab32924766b9c4555dc7766fdada6beaefec0bb9ac", "addr": "16hWr6twFK4Rt5tAJmoqDeSVQsxZ1tFuJa"}], "hex": "01000000010000000000000000000000000000000000000000000000000000000000000000ffffffff0704ffff001d0112ffffffff0100f2052a0100000043410490172aa2b34471d42d7ac5dfeaf34b24fcf018409eca0eb4424c388839df8a6d388dde423e6285479db1f5f9ab32924766b9c4555dc7766fdada6beaefec0bb9ac00000000"}]}