{"hash": "0000000036a2d643bd78d457cab4320877a24303cc567c8ca84f6937802d0bc4", "ver": 1, "prev_block": "00000000101932342af01908230784689a23deff717dcfe16552d673ff30f16b", "mrkl_root": "17b5dd11f3672e2eae1b5b5bdd7804eb6ca4e780c46745a0c5d2d79ddb9aaa1b", "time": 1231760107, "bits": 486604799, "next_block": ["000000008664fb07a9bcdc7298e0c70ed577f2915d6eb06a934921cb7fbb2aec"], "fee": 0, "nonce": 4018430728, "n_tx": 1, "size": 215, "block_index": 211, "main_chain": true, "height": 211, "weight": 860, "tx": [{"hash": "17b5dd11f3672e2eae1b5b5bdd7804eb6ca4e780c46745a0c5d2d79ddb9aaa1b", "ver": 1, "vin_sz": 1, "vout_sz": 1, "size": 134, "weight": 536, "fee": 0, "relayed_by": "0.0.0.0", "lock_time": 0, "tx_index": 973425807178490, "double_spend": false, "time": 1231760107, "block_index": 211, "block_height": 211, "inputs": [{"sequence": 4294967295, "witness": "", "script": "04ffff001d015b", "index": 0, "prev_out": null}], "out": [{"type": 0, "spent": false, "value": 5000000000, "spending_outpoints": [], "n": 0, "tx_index": 973425807178490, "script": "4104beb7bc7b2f665837c4c9e20baea772216bec2eb6794f7eaa9585bb9ccbbe9b22681a2c711d0bca4451e06e0bbf3e391bbcde23dc32cd02c7712d72bec6f4e5adac", "addr": "12vhcB2bfspTua6XLpLcZPP4zpkudmw2re"}], "hex": "01000000010000000000000000000000000000000000000000000000000000000000000000ffffffff0704ffff001d015bffffffff0100f2052a01000000434104beb7bc7b2f665837c4c9e20baea772216bec2eb6794f7eaa9585bb9ccbbe9b22681a2c711d0bca4451e06e0bbf3e391bbcde23dc32cd02c7712d72bec6f4e5adac00000000"}]}