{"hash": "000000008664fb07a9bcdc7298e0c70ed577f2915d6eb06a934921cb7fbb2aec", "ver": 1, "prev_block": "0000000036a2d643bd78d457cab4320877a24303cc567c8ca84f6937802d0bc4", "mrkl_root": "70a7de774e7ce62e55460baab990608f9b9564615846aaaa3c6cd7e93af73f7a", "time": 1231760777, "bits": 486604799, "next_block": ["00000000fd69a5ef7d33e19d8eeab6e88f9345fdf3faddb650a988deb876e827"], "fee": 0, "nonce": 1521743917, "n_tx": 1, "size": 215, "block_index": 212, "main_chain": true, "height": 212, "weight": 860, "tx": [{"hash": "70a7de774e7ce62e55460baab990608f9b9564615846aaaa3c6cd7e93af73f7a", "ver": 1, "vin_sz": 1, "vout_sz": 1, "size": 134, "weight": 536, "fee": 0, "relayed_by": "0.0.0.0", "lock_time": 0, "tx_index": 4301284779571949, "double_spend": false, "time": 1231760777, "block_index": 212, "block_height": 212, "inputs": [{"sequence": 4294967295, "witness": "", "script": "04ffff001d015c", "index": 0, "prev_out": null}], "out": [{"type": 0, "spent": false, "value": 5000000000, "spending_outpoints": [], "n": 0, "tx_index": 4301284779571949, "script": "410430e8f33616de199ff4298a3ef1bc27c12f6b209f33551c3793bcc5f561844ecf4332559170d5af7f419d1cfa54e22ff37945a7f01de4a8185f73ff6cd761c488ac", "addr": "1EvRbs7Fc6R6V8LsnoD3Ntng9vWfmreeRT"}], "hex": "01000000010000000000000000000000000000000000000000000000000000000000000000ffffffff0704ffff001d015cffffffff0100f2052a0100000043410430e8f33616de199ff4298a3ef1bc27c12f6b209f33551c3793bcc5f561844ecf4332559170d5af7f419d1cfa54e22ff37945a7f01de4a8185f73ff6cd761c488ac00000000"}]}