{"hash": "00000000fd69a5ef7d33e19d8eeab6e88f9345fdf3faddb650a988deb876e827", "ver": 1, "prev_block": "000000008664fb07a9bcdc7298e0c70ed577f2915d6eb06a934921cb7fbb2aec", "mrkl_root": "f2f1c70f29204fdf71f8f158b5f0e8f56aa6bc9a7978d44a4b481b5622a00c2f", "time": 1231762221, "bits": 486604799, "next_block": ["00000000ce6a645a076668ffee89c52a85834cb8b30dff55c76418230601d42a"], "fee": 0, "nonce": 3802708773, "n_tx": 1, "size": 215, "block_index": 213, "main_chain": true, "height": 213, "weight": 860, "tx": [{"hash": "f2f1c70f29204fdf71f8f158b5f0e8f56aa6bc9a7978d44a4b481b5622a00c2f", "ver": 1, "vin_sz": 1, "vout_sz": 1, "size": 134, "weight": 536, "fee": 0, "relayed_by": "0.0.0.0", "lock_time": 0, "tx_index": 1655400726971241, "double_spend": false, "time": 1231762221, "block_index": 213, "block_height": 213, "inputs": [{"sequence": 4294967295, "witness": "", "script": "04ffff001d0167", "index": 0, "prev_out": null}], "out": [{"type": 0, "spent": false, "value": 5000000000, "spending_outpoints": [], "n": 0, "tx_index": 1655400726971241, "script": "41048df35924b8a32cc839bd46cebf11ed2e341d5692dd39eb681ba4813c3e87710c57405ad6b38b85652a1f024ccf42bc36b2850dabe1a7e7f659ce7a520bd397d9ac", "addr": "16DvfwUBRqaZGaMWnzSnX8TPUantMKXhjV"}], "hex": "01000000010000000000000000000000000000000000000000000000000000000000000000ffffffff0704ffff001d0167ffffffff0100f2052a010000004341048df35924b8a32cc839bd46cebf11ed2e341d5692dd39eb681ba4813c3e87710c57405ad6b38b85652a1f024ccf42bc36b2850dabe1a7e7f659ce7a520bd397d9ac00000000"}]}