{"hash": "00000000ce6a645a076668ffee89c52a85834cb8b30dff55c76418230601d42a", "ver": 1, "prev_block": "00000000fd69a5ef7d33e19d8eeab6e88f9345fdf3faddb650a988deb876e827", "mrkl_root": "e483dbbeff3ed483b5cf783fb858dc517b389578d5d7dd64ae760abcd7a0f7c9", "time": 1231762662, "bits": 486604799, "next_block": ["000000008be0adfe9b6bd5925ead94276b68a15467c4547e0ba532f5994ca574"], "fee": 0, "nonce": 3485831977, "n_tx": 1, "size": 215, "block_index": 214, "main_chain": true, "height": 214, "weight": 860, "tx": [{"hash": "e483dbbeff3ed483b5cf783fb858dc517b389578d5d7dd64ae760abcd7a0f7c9", "ver": 1, "vin_sz": 1, "vout_sz": 1, "size": 134, "weight": 536, "fee": 0, "relayed_by": "0.0.0.0", "lock_time": 0, "tx_index": 7106092563136846, "double_spend": false, "time": 1231762662, "block_index": 214, "block_height": 214, "inputs": [{"sequence": 4294967295, "witness": "", "script": "04ffff001d016d", "index": 0, "prev_out": null}], "out": [{"type": 0, "spent": false, "value": 5000000000, "spending_outpoints": [], "n": 0, "tx_index": 7106092563136846, "script": "4104e1c1abb151eb6528017ca34a58bd4e4e4dec2124c8723e4d033bdc64fa63f721805ed89053daa03855f3e409c0afb1f802807040691085da303766bd6c009d07ac", "addr": "1Po1b27dVXkmyQdKXk5AvHUzdgEk5MvMvC"}], "hex": "01000000010000000000000000000000000000000000000000000000000000000000000000ffffffff0704ffff001d016dffffffff0100f2052a01000000434104e1c1abb151eb6528017ca34a58bd4e4e4dec2124c8723e4d033bdc64fa63f721805ed89053daa03855f3e409c0afb1f802807040691085da303766bd6c009d07ac00000000"}]}