{"hash": "000000008be0adfe9b6bd5925ead94276b68a15467c4547e0ba532f5994ca574", "ver": 1, "prev_block": "00000000ce6a645a076668ffee89c52a85834cb8b30dff55c76418230601d42a", "mrkl_root": "dc97de0dc82410ad3d32fe6f4f82ecc17ab544893830f6c802f9e31e0050a0f8", "time": 1231763114, "bits": 486604799, "next_block": ["00000000faa2c21da83bb2a3151964f03e381cba49db5a0edf83dc834de8c90c"], "fee": 0, "nonce": 204154117, "n_tx": 1, "size": 215, "block_index": 215, "main_chain": true, "height": 215, "weight": 860, "tx": [{"hash": "dc97de0dc82410ad3d32fe6f4f82ecc17ab544893830f6c802f9e31e0050a0f8", "ver": 1, "vin_sz": 1, "vout_sz": 1, "size": 134, "weight": 536, "fee": 0, "relayed_by": "0.0.0.0", "lock_time": 0, "tx_index": 8747757460511871, "double_spend": false, "time": 1231763114, "block_index": 215, "block_height": 215, "inputs": [{"sequence": 4294967295, "witness": "", "script": "04ffff001d0176", "index": 0, "prev_out": null}], "out": [{"type": 0, "spent": false, "value": 5000000000, "spending_outpoints": [], "n": 0, "tx_index": 8747757460511871, "script": "4104c14600860eaf9960cdbc72fa9d9cba31ddc26481399ab2981d631d90d03f2b6593978fe06d618a97f7873560e7ad52b3c96946b3464ac1900b501bdb8cb6e9b3ac", "addr": "1GB9LgiyE6Upg2qbVGy2phKfgVZB681WhC"}], "hex": "01000000010000000000000000000000000000000000000000000000000000000000000000ffffffff0704ffff001d0176ffffffff0100f2052a01000000434104c14600860eaf9960cdbc72fa9d9cba31ddc26481399ab2981d631d90d03f2b6593978fe06d618a97f7873560e7ad52b3c96946b3464ac1900b501bdb8cb6e9b3ac00000000"}]}