{"hash": "00000000faa2c21da83bb2a3151964f03e381cba49db5a0edf83dc834de8c90c", "ver": 1, "prev_block": "000000008be0adfe9b6bd5925ead94276b68a15467c4547e0ba532f5994ca574", "mrkl_root": "6057ddaf5005be3a205bacc8faf97e3fd6348d655e5ce98917ee116ce47c9b01", "time": 1231764594, "bits": 486604799, "next_block": ["00000000727d3ef6e04b7ebbf19a4d294a58be8f9cf91c4204eb36bfb5f35964"], "fee": 0, "nonce": 4116110337, "n_tx": 1, "size": 216, "block_index": 216, "main_chain": true, "height": 216, "weight": 864, "tx": [{"hash": "6057ddaf5005be3a205bacc8faf97e3fd6348d655e5ce98917ee116ce47c9b01", "ver": 1, "vin_sz": 1, "vout_sz": 1, "size": 135, "weight": 540, "fee": 0, "relayed_by": "0.0.0.0", "lock_time": 0, "tx_index": 56554460906045, "double_spend": false, "time": 1231764594, "block_index": 216, "block_height": 216, "inputs": [{"sequence": 4294967295, "witness": "", "script": "04ffff001d028300", "index": 0, "prev_out": null}], "out": [{"type": 0, "spent": false, "value": 5000000000, "spending_outpoints": [], "n": 0, "tx_index": 56554460906045, "script": "41047f90252aa60ec73e41b56dae96aa6ee3715e367189a8cdbdfdf325fc2faf3041a0e9098e839c6e841e3bd7911d45dddbc77cbd1c41a22102380c28a05663ccb5ac", "addr": "1NZA1LZDbyeE9qdHWeJnN5DN7ZDJShsssU"}], "hex": "01000000010000000000000000000000000000000000000000000000000000000000000000ffffffff0804ffff001d028300ffffffff0100f2052a010000004341047f90252aa60ec73e41b56dae96aa6ee3715e367189a8cdbdfdf325fc2faf3041a0e9098e839c6e841e3bd7911d45dddbc77cbd1c41a22102380c28a05663ccb5ac00000000"}]}