{"hash": "00000000727d3ef6e04b7ebbf19a4d294a58be8f9cf91c4204eb36bfb5f35964", "ver": 1, "prev_block": "00000000faa2c21da83bb2a3151964f03e381cba49db5a0edf83dc834de8c90c", "mrkl_root": "56a198d8fa14f10e6f7d7df7b14ea3bf90cf20f98bd4bce89a41e423b78f5236", "time": 1231766029, "bits": 486604799, "next_block": ["000000002f7550e9eb1985a17e3bba31c302f1743d1cf45060445255021d0c6b"], "fee": 0, "nonce": 451608323, "n_tx": 1, "size": 216, "block_index": 217, "main_chain": true, "height": 217, "weight": 864, "tx": [{"hash": "56a198d8fa14f10e6f7d7df7b14ea3bf90cf20f98bd4bce89a41e423b78f5236", "ver": 1, "vin_sz": 1, "vout_sz": 1, "size": 135, "weight": 540, "fee": 0, "relayed_by": "0.0.0.0", "lock_time": 0, "tx_index": 1911303243594888, "double_spend": false, "time": 1231766029, "block_index": 217, "block_height": 217, "inputs": [{"sequence": 4294967295, "witness": "", "script": "04ffff001d028500", "index": 0, "prev_out": null}], "out": [{"type": 0, "spent": false, "value": 5000000000, "spending_outpoints": [], "n": 0, "tx_index": 1911303243594888, "script": "410463fb60e1a0d96adfbbb1581532dc5c452811c3748dff915dd0057a325841977805af542c03db7661303af023bf8bd1dc3cceb6fa282a7ddc73c10a18d25251e7ac", "addr": "1CRtj3XYXjtmHNw44QLZ63AGEM6SFa6wob"}], "hex": "01000000010000000000000000000000000000000000000000000000000000000000000000ffffffff0804ffff001d028500ffffffff0100f2052a0100000043410463fb60e1a0d96adfbbb1581532dc5c452811c3748dff915dd0057a325841977805af542c03db7661303af023bf8bd1dc3cceb6fa282a7ddc73c10a18d25251e7ac00000000"}]}