{"hash": "000000002f7550e9eb1985a17e3bba31c302f1743d1cf45060445255021d0c6b", "ver": 1, "prev_block": "00000000727d3ef6e04b7ebbf19a4d294a58be8f9cf91c4204eb36bfb5f35964", "mrkl_root": "46e421bd0d33659cf4be11abfa1b864c25a0e5671a646ed6e7c81d3a69211700", "time": 1231766966, "bits": 486604799, "next_block": ["00000000d2c813c67875fb331f4b4c1cf3cd7e96a53e6dd1f3808d8502535a84"], "fee": 0, "nonce": 3679723823, "n_tx": 1, "size": 216, "block_index": 218, "main_chain": true, "height": 218, "weight": 864, "tx": [{"hash": "46e421bd0d33659cf4be11abfa1b864c25a0e5671a646ed6e7c81d3a69211700", "ver": 1, "vin_sz": 1, "vout_sz": 1, "size": 135, "weight": 540, "fee": 0, "relayed_by": "0.0.0.0", "lock_time": 0, "tx_index": 3179033347001, "double_spend": false, "time": 1231766966, "block_index": 218, "block_height": 218, "inputs": [{"sequence": 4294967295, "witness": "", "script": "04ffff001d029400", "index": 0, "prev_out": null}], "out": [{"type": 0, "spent": false, "value": 5000000000, "spending_outpoints": [], "n": 0, "tx_index": 3179033347001, "script": "41040ff56cd7a4ca2a8a14b802335451ed6e684e7ad3750dabdd6fde75e541a264d8b3c2b27573b12afabd321224fa4cc68723fd16042ac66faf5448a7c34551e184ac", "addr": "1FyiELmwtmD2mrN6hRzw6P76zLg3WJoCwB"}], "hex": "01000000010000000000000000000000000000000000000000000000000000000000000000ffffffff0804ffff001d029400ffffffff0100f2052a010000004341040ff56cd7a4ca2a8a14b802335451ed6e684e7ad3750dabdd6fde75e541a264d8b3c2b27573b12afabd321224fa4cc68723fd16042ac66faf5448a7c34551e184ac00000000"}]}