{"hash": "00000000d2c813c67875fb331f4b4c1cf3cd7e96a53e6dd1f3808d8502535a84", "ver": 1, "prev_block": "000000002f7550e9eb1985a17e3bba31c302f1743d1cf45060445255021d0c6b", "mrkl_root": "909d55b144aab663ccbcdbc1440c05e00bc94447b7fbc44a1c148e8ecdaeaf82", "time": 1231767990, "bits": 486604799, "next_block": ["00000000b66ac539d2cdfebdd4720cb08603b48edec56cc07273c40b082b1d58"], "fee": 0, "nonce": 1924265266, "n_tx": 1, "size": 216, "block_index": 219, "main_chain": true, "height": 219, "weight": 864, "tx": [{"hash": "909d55b144aab663ccbcdbc1440c05e00bc94447b7fbc44a1c148e8ecdaeaf82", "ver": 1, "vin_sz": 1, "vout_sz": 1, "size": 135, "weight": 540, "fee": 0, "relayed_by": "0.0.0.0", "lock_time": 0, "tx_index": 4598114035028418, "double_spend": false, "time": 1231767990, "block_index": 219, "block_height": 219, "inputs": [{"sequence": 4294967295, "witness": "", "script": "04ffff001d029600", "index": 0, "prev_out": null}], "out": [{"type": 0, "spent": false, "value": 5000000000, "spending_outpoints": [], "n": 0, "tx_index": 4598114035028418, "script": "41049c594ec23afb75a6cfbf7a67c1799582e25ab98b542cc3961fe1b37bfbf3e2e29527c500eb7e9fb5ac358a4f53abadb3bf24a3436b20bebb98151fadb99bb938ac", "addr": "1HL3xqCGJwCcME5wgjz1NJLj5o79zp3W7y"}], "hex": "01000000010000000000000000000000000000000000000000000000000000000000000000ffffffff0804ffff001d029600ffffffff0100f2052a010000004341049c594ec23afb75a6cfbf7a67c1799582e25ab98b542cc3961fe1b37bfbf3e2e29527c500eb7e9fb5ac358a4f53abadb3bf24a3436b20bebb98151fadb99bb938ac00000000"}]}