{"hash": "0000000098b58d427a10c860335a21c1a9a7639e96c3d6f1a03d8c8c885b5e3b", "ver": 1, "prev_block": "000000006f016342d1275be946166cff975c8b27542de70a7113ac6d1ef3294f", "mrkl_root": "9e2eaf1d7e5178a2d116f331c340f1f7fd6de7540783ac36a7054fe9a4d64943", "time": 1231567467, "bits": 486604799, "next_block": ["000000000cd339982e556dfffa9de94744a4135c53eeef15b7bcc9bdeb9c2182"], "fee": 0, "nonce": 1645155368, "n_tx": 1, "size": 215, "block_index": 22, "main_chain": true, "height": 22, "weight": 860, "tx": [{"hash": "9e2eaf1d7e5178a2d116f331c340f1f7fd6de7540783ac36a7054fe9a4d64943", "ver": 1, "vin_sz": 1, "vout_sz": 1, "size": 134, "weight": 536, "fee": 0, "relayed_by": "0.0.0.0", "lock_time": 0, "tx_index": 2367501209774560, "double_spend": false, "time": 1231567467, "block_index": 22, "block_height": 22, "inputs": [{"sequence": 4294967295, "witness": "", "script": "04ffff001d0130", "index": 0, "prev_out": null}], "out": [{"type": 0, "spent": false, "value": 5000000000, "spending_outpoints": [], "n": 0, "tx_index": 2367501209774560, "script": "4104aef905809d1004da2b0187dd5198e0f5b11ab291230cdcd9606bbc99acd15bc91f951de6307f5adae03f2e18d523ec8778e7d8e9b7c24ba282c8eaa9bcded840ac", "addr": "1DmKBaveG8iQA7nTGpRQ1bf8cJ7zqSMCjJ"}], "hex": "01000000010000000000000000000000000000000000000000000000000000000000000000ffffffff0704ffff001d0130ffffffff0100f2052a01000000434104aef905809d1004da2b0187dd5198e0f5b11ab291230cdcd9606bbc99acd15bc91f951de6307f5adae03f2e18d523ec8778e7d8e9b7c24ba282c8eaa9bcded840ac00000000"}]}