{"hash": "00000000b66ac539d2cdfebdd4720cb08603b48edec56cc07273c40b082b1d58", "ver": 1, "prev_block": "00000000d2c813c67875fb331f4b4c1cf3cd7e96a53e6dd1f3808d8502535a84", "mrkl_root": "d09e93200dd6d2a1343001b0b2755da288f31c291abd42b134d3b3ac24920513", "time": 1231768665, "bits": 486604799, "next_block": ["0000000066356691a4353dd8bdc2c60da20d68ad34fff93d8839a133b2a6d42a"], "fee": 0, "nonce": 3119993365, "n_tx": 1, "size": 216, "block_index": 220, "main_chain": true, "height": 220, "weight": 864, "tx": [{"hash": "d09e93200dd6d2a1343001b0b2755da288f31c291abd42b134d3b3ac24920513", "ver": 1, "vin_sz": 1, "vout_sz": 1, "size": 135, "weight": 540, "fee": 0, "relayed_by": "0.0.0.0", "lock_time": 0, "tx_index": 669268724520570, "double_spend": false, "time": 1231768665, "block_index": 220, "block_height": 220, "inputs": [{"sequence": 4294967295, "witness": "", "script": "04ffff001d029a00", "index": 0, "prev_out": null}], "out": [{"type": 0, "spent": false, "value": 5000000000, "spending_outpoints": [], "n": 0, "tx_index": 669268724520570, "script": "41046dbcbc038aef99adc831e404ad50d852126448d68069fd97ea248a42f90e75d87dc5ec54f89975eeb4669812ed9ee06972985cdc853b161c3381c5bbc0c0401cac", "addr": "1MUuVeuS6DDS5QKR2BNZ9fipXCEsFujaMH"}], "hex": "01000000010000000000000000000000000000000000000000000000000000000000000000ffffffff0804ffff001d029a00ffffffff0100f2052a010000004341046dbcbc038aef99adc831e404ad50d852126448d68069fd97ea248a42f90e75d87dc5ec54f89975eeb4669812ed9ee06972985cdc853b161c3381c5bbc0c0401cac00000000"}]}