{"hash": "0000000066356691a4353dd8bdc2c60da20d68ad34fff93d8839a133b2a6d42a", "ver": 1, "prev_block": "00000000b66ac539d2cdfebdd4720cb08603b48edec56cc07273c40b082b1d58", "mrkl_root": "67f445c708d28c16aeb6eaa81d7ccff29a0c39ff48c6d6298c9ff1e0b6899f07", "time": 1231770060, "bits": 486604799, "next_block": ["000000004da68466ee873c7095c766baf62df93a16df579350e01e7f78911616"], "fee": 0, "nonce": 1772122369, "n_tx": 2, "size": 417, "block_index": 221, "main_chain": true, "height": 221, "weight": 1668, "tx": [{"hash": "264e7238ddc574d5d6ded85d77bfcb69d99a0de17dfcdef0b7e97d430c4f202d", "ver": 1, "vin_sz": 1, "vout_sz": 1, "size": 135, "weight": 540, "fee": 0, "relayed_by": "0.0.0.0", "lock_time": 0, "tx_index": 1587737229029309, "double_spend": false, "time": 1231770060, "block_index": 221, "block_height": 221, "inputs": [{"sequence": 4294967295, "witness": "", "script": "04ffff001d029e00", "index": 0, "prev_out": null}], "out": [{"type": 0, "spent": false, "value": 5000000000, "spending_outpoints": [], "n": 0, "tx_index": 1587737229029309, "script": "4104b089ed9912db1edb2e7338154e2ba9c4eaac2ea1b9f95600005aac1fde07315ef3c16125cc387373232ac6fa6453f2046e317e2295321a58f244d6d2692d597eac", "addr": "1BW3idasrBsovBWDzauf1yTh6QWK9UUEj5"}], "hex": "01000000010000000000000000000000000000000000000000000000000000000000000000ffffffff0804ffff001d029e00ffffffff0100f2052a01000000434104b089ed9912db1edb2e7338154e2ba9c4eaac2ea1b9f95600005aac1fde07315ef3c16125cc387373232ac6fa6453f2046e317e2295321a58f244d6d2692d597eac00000000"}, {"hash": "298ca2045d174f8a158961806ffc4ef96fad02d71a6b84d9fa0491813a776160", "ver": 1, "vin_sz": 1, "vout_sz": 1, "size": 201, "weight": 804, "fee": 0, "relayed_by": "0.0.0.0", "lock_time": 0, "tx_index": 3391095309349408, "double_spend": false, "time": 1231770060, "block_index": 221, "block_height": 221, "inputs": [{"sequence": 4294967295, "witness": "", "script": "493046022100f493d504a670e6280bc76ee285accf2796fd6a630659d4fa55dccb793fc9346402210080ecfbe069101993eb01320bb1d6029c138b27835e20ad54c232c36ffe10786301", "index": 0, "prev_out": {"spent": true, "script": "410401518fa1d1e1e3e162852d68d9be1c0abad5e3d6297ec95f1f91b909dc1afe616d6876f92918451ca387c4387609ae1a895007096195a824baf9c38ea98c09c3ac", "spending_outpoints": [{"tx_index": 3391095309349408, "n": 0}], "tx_index": 4063842432401470, "value": 100000000, "addr": "1LzBzVqEeuQyjD2mRWHes3dgWrT9titxvq", "n": 0, "type": 0}}], "out": [{"type": 0, "spent": false, "value": 100000000, "spending_outpoints": [], "n": 0, "tx_index": 3391095309349408, "script": "4104ea0d6650c8305f1213a89c65fc8f4343a5dac8e985c869e51d3aa02879b57c60cff49fcb99314d02dfc612d654e4333150ef61fa569c1c66415602cae387baf7ac", "addr": "1BDvQZjaAJH4ecZ8aL3fYgTi7rnn3o2thE"}], "hex": "010000000173805864da01f15093f7837607ab8be7c3705e29a9d4a12c9116d709f8911e59000000004a493046022100f493d504a670e6280bc76ee285accf2796fd6a630659d4fa55dccb793fc9346402210080ecfbe069101993eb01320bb1d6029c138b27835e20ad54c232c36ffe10786301ffffffff0100e1f50500000000434104ea0d6650c8305f1213a89c65fc8f4343a5dac8e985c869e51d3aa02879b57c60cff49fcb99314d02dfc612d654e4333150ef61fa569c1c66415602cae387baf7ac00000000"}]}