{"hash": "000000004da68466ee873c7095c766baf62df93a16df579350e01e7f78911616", "ver": 1, "prev_block": "0000000066356691a4353dd8bdc2c60da20d68ad34fff93d8839a133b2a6d42a", "mrkl_root": "2589399db3e7beda1003703a99e366ea227b6b0d84480f0a0c00283abece0ded", "time": 1231770653, "bits": 486604799, "next_block": ["00000000b9938ade2272609da8a83179d919aa80774c5f2577168dfb1eb51a8f"], "fee": 0, "nonce": 3602730793, "n_tx": 1, "size": 216, "block_index": 222, "main_chain": true, "height": 222, "weight": 864, "tx": [{"hash": "2589399db3e7beda1003703a99e366ea227b6b0d84480f0a0c00283abece0ded", "ver": 1, "vin_sz": 1, "vout_sz": 1, "size": 135, "weight": 540, "fee": 0, "relayed_by": "0.0.0.0", "lock_time": 0, "tx_index": 8340593885791488, "double_spend": false, "time": 1231770653, "block_index": 222, "block_height": 222, "inputs": [{"sequence": 4294967295, "witness": "", "script": "04ffff001d02a100", "index": 0, "prev_out": null}], "out": [{"type": 0, "spent": false, "value": 5000000000, "spending_outpoints": [], "n": 0, "tx_index": 8340593885791488, "script": "410498f5c63326ea7caba0ddcb074d070689a6cdf5e742ba20fe975f5a3245ecace7eda87fa04cc0cb1e68ef341593503002f8c5a88c6f1476442e8c841b9de13d3bac", "addr": "12wm668ySFxjAPGnZHPBR4uWqUmNdXg2kP"}], "hex": "01000000010000000000000000000000000000000000000000000000000000000000000000ffffffff0804ffff001d02a100ffffffff0100f2052a0100000043410498f5c63326ea7caba0ddcb074d070689a6cdf5e742ba20fe975f5a3245ecace7eda87fa04cc0cb1e68ef341593503002f8c5a88c6f1476442e8c841b9de13d3bac00000000"}]}