{"hash": "00000000b9938ade2272609da8a83179d919aa80774c5f2577168dfb1eb51a8f", "ver": 1, "prev_block": "000000004da68466ee873c7095c766baf62df93a16df579350e01e7f78911616", "mrkl_root": "2038fd408bb42f6c8a0484c82e6ad2d11756cf7d6b47716ed663fa2addeeb1b4", "time": 1231771213, "bits": 486604799, "next_block": ["000000003c29d5cb24584ddb079dd51cf9ecd02a96de0aecf05f8c2bcfa709f2"], "fee": 0, "nonce": 2776679704, "n_tx": 1, "size": 216, "block_index": 223, "main_chain": true, "height": 223, "weight": 864, "tx": [{"hash": "2038fd408bb42f6c8a0484c82e6ad2d11756cf7d6b47716ed663fa2addeeb1b4", "ver": 1, "vin_sz": 1, "vout_sz": 1, "size": 135, "weight": 540, "fee": 0, "relayed_by": "0.0.0.0", "lock_time": 0, "tx_index": 6357641909854028, "double_spend": false, "time": 1231771213, "block_index": 223, "block_height": 223, "inputs": [{"sequence": 4294967295, "witness": "", "script": "04ffff001d02a300", "index": 0, "prev_out": null}], "out": [{"type": 0, "spent": false, "value": 5000000000, "spending_outpoints": [], "n": 0, "tx_index": 6357641909854028, "script": "4104840625cc27ae2cf9792d2a42ad091e729ee6ae09784126ca676453d9196bfcc88bf7c8958a8bebbae043f7863d2f9254d81222de0263ae1283a3ec28cf9e41bdac", "addr": "1G5Gp7b1u5cTN5xjypETNpmCTpbDdoXJMA"}], "hex": "01000000010000000000000000000000000000000000000000000000000000000000000000ffffffff0804ffff001d02a300ffffffff0100f2052a01000000434104840625cc27ae2cf9792d2a42ad091e729ee6ae09784126ca676453d9196bfcc88bf7c8958a8bebbae043f7863d2f9254d81222de0263ae1283a3ec28cf9e41bdac00000000"}]}