{"hash": "00000000c665269a9d5cf61af5fd43e73840d933179c55a6d681957d3d214f28", "ver": 1, "prev_block": "000000003c29d5cb24584ddb079dd51cf9ecd02a96de0aecf05f8c2bcfa709f2", "mrkl_root": "1b1ae506a3cf0cf2e190e8c88fd45646b8a5f95e69c7cb0cd0b6de4bef5f4dad", "time": 1231773076, "bits": 486604799, "next_block": ["000000005153e11361b28644ee63887e11f0b4b5a14d8e3da826d215dc1ce364"], "fee": 0, "nonce": 4084879389, "n_tx": 1, "size": 216, "block_index": 225, "main_chain": true, "height": 225, "weight": 864, "tx": [{"hash": "1b1ae506a3cf0cf2e190e8c88fd45646b8a5f95e69c7cb0cd0b6de4bef5f4dad", "ver": 1, "vin_sz": 1, "vout_sz": 1, "size": 135, "weight": 540, "fee": 0, "relayed_by": "0.0.0.0", "lock_time": 0, "tx_index": 6097530675362774, "double_spend": false, "time": 1231773076, "block_index": 225, "block_height": 225, "inputs": [{"sequence": 4294967295, "witness": "", "script": "04ffff001d02b100", "index": 0, "prev_out": null}], "out": [{"type": 0, "spent": false, "value": 5000000000, "spending_outpoints": [], "n": 0, "tx_index": 6097530675362774, "script": "4104cb335cf14b41bee210c316d22c2bbac7cb3a97a664f49420fd31e409d808bd7ecb09a5a4c9e2e6698d52600abc42adda3dd60ada703610698137ce8eb29fe941ac", "addr": "13zrE76hjXh1wwtUFE6WsCbrG7NPWgRBVW"}], "hex": "01000000010000000000000000000000000000000000000000000000000000000000000000ffffffff0804ffff001d02b100ffffffff0100f2052a01000000434104cb335cf14b41bee210c316d22c2bbac7cb3a97a664f49420fd31e409d808bd7ecb09a5a4c9e2e6698d52600abc42adda3dd60ada703610698137ce8eb29fe941ac00000000"}]}