{"hash": "000000005153e11361b28644ee63887e11f0b4b5a14d8e3da826d215dc1ce364", "ver": 1, "prev_block": "00000000c665269a9d5cf61af5fd43e73840d933179c55a6d681957d3d214f28", "mrkl_root": "9e493f9683043a91ab533f50919339eb8c35756e8c2b82372b53217a73d3826b", "time": 1231773794, "bits": 486604799, "next_block": ["00000000fa8b0d2c835156455cee090212192ab289d5233aaf4c39ada1741f63"], "fee": 0, "nonce": 434958616, "n_tx": 1, "size": 216, "block_index": 226, "main_chain": true, "height": 226, "weight": 864, "tx": [{"hash": "9e493f9683043a91ab533f50919339eb8c35756e8c2b82372b53217a73d3826b", "ver": 1, "vin_sz": 1, "vout_sz": 1, "size": 135, "weight": 540, "fee": 0, "relayed_by": "0.0.0.0", "lock_time": 0, "tx_index": 3782708399391786, "double_spend": false, "time": 1231773794, "block_index": 226, "block_height": 226, "inputs": [{"sequence": 4294967295, "witness": "", "script": "04ffff001d02bd00", "index": 0, "prev_out": null}], "out": [{"type": 0, "spent": false, "value": 5000000000, "spending_outpoints": [], "n": 0, "tx_index": 3782708399391786, "script": "4104f1954e04cc08c836b2bd9dac3127b9cbba0b7b7ff92bc0ea9b2532931381fd9da5b918cc7018b224bafcb78e38bb2a46ad6bcee99879d6972f0dc6134c8c48c3ac", "addr": "1MBTMZxy2g1shi2Sx37AwGpo6o5if7iq5F"}], "hex": "01000000010000000000000000000000000000000000000000000000000000000000000000ffffffff0804ffff001d02bd00ffffffff0100f2052a01000000434104f1954e04cc08c836b2bd9dac3127b9cbba0b7b7ff92bc0ea9b2532931381fd9da5b918cc7018b224bafcb78e38bb2a46ad6bcee99879d6972f0dc6134c8c48c3ac00000000"}]}