{"hash": "00000000fa8b0d2c835156455cee090212192ab289d5233aaf4c39ada1741f63", "ver": 1, "prev_block": "000000005153e11361b28644ee63887e11f0b4b5a14d8e3da826d215dc1ce364", "mrkl_root": "b0dfeb4cfd4ece7d367bc6eec66af2a49c9c5aa4e12f90d728da63adbe18540f", "time": 1231774735, "bits": 486604799, "next_block": ["0000000057fe26eebfbe0d0b7bfca14afee147973eef16350c8e6b9fde49343a"], "fee": 0, "nonce": 650652928, "n_tx": 1, "size": 216, "block_index": 227, "main_chain": true, "height": 227, "weight": 864, "tx": [{"hash": "b0dfeb4cfd4ece7d367bc6eec66af2a49c9c5aa4e12f90d728da63adbe18540f", "ver": 1, "vin_sz": 1, "vout_sz": 1, "size": 135, "weight": 540, "fee": 0, "relayed_by": "0.0.0.0", "lock_time": 0, "tx_index": 539323738205307, "double_spend": false, "time": 1231774735, "block_index": 227, "block_height": 227, "inputs": [{"sequence": 4294967295, "witness": "", "script": "04ffff001d02c500", "index": 0, "prev_out": null}], "out": [{"type": 0, "spent": false, "value": 5000000000, "spending_outpoints": [], "n": 0, "tx_index": 539323738205307, "script": "4104cb3af80067cec806c926a101c06f04b0db6ef761659293578327a226eb5f6e017df58d6f0c7eb8e3ea42b1c58e81f85d02d4ce6e2105ac12e52f167e183c154dac", "addr": "1MVXEbi7xErjRaszVDwycUbeR8dYBVNKnE"}], "hex": "01000000010000000000000000000000000000000000000000000000000000000000000000ffffffff0804ffff001d02c500ffffffff0100f2052a01000000434104cb3af80067cec806c926a101c06f04b0db6ef761659293578327a226eb5f6e017df58d6f0c7eb8e3ea42b1c58e81f85d02d4ce6e2105ac12e52f167e183c154dac00000000"}]}