{"hash": "0000000057fe26eebfbe0d0b7bfca14afee147973eef16350c8e6b9fde49343a", "ver": 1, "prev_block": "00000000fa8b0d2c835156455cee090212192ab289d5233aaf4c39ada1741f63", "mrkl_root": "9941bbca58bc438e2eeafbda59e6ce63428cda348b8e961983e5bc9381a3ba85", "time": 1231775125, "bits": 486604799, "next_block": ["00000000dc854870a02ac502cdd732644eea099008b518985da6d76015db2bdf"], "fee": 0, "nonce": 1602999590, "n_tx": 1, "size": 216, "block_index": 228, "main_chain": true, "height": 228, "weight": 864, "tx": [{"hash": "9941bbca58bc438e2eeafbda59e6ce63428cda348b8e961983e5bc9381a3ba85", "ver": 1, "vin_sz": 1, "vout_sz": 1, "size": 135, "weight": 540, "fee": 0, "relayed_by": "0.0.0.0", "lock_time": 0, "tx_index": 4705172914861980, "double_spend": false, "time": 1231775125, "block_index": 228, "block_height": 228, "inputs": [{"sequence": 4294967295, "witness": "", "script": "04ffff001d02c700", "index": 0, "prev_out": null}], "out": [{"type": 0, "spent": false, "value": 5000000000, "spending_outpoints": [], "n": 0, "tx_index": 4705172914861980, "script": "41045b4a0f4b37cc82e614a79913a02dfdd25d9d0a841847305c6aa30ee44be67b143f53304a382960471399f42eacb3bf79498b2ebe8da3b3a7d5649b067d448fb8ac", "addr": "1DcgZPFErBcASaPqsqyB42dUFjCJEro4A2"}], "hex": "01000000010000000000000000000000000000000000000000000000000000000000000000ffffffff0804ffff001d02c700ffffffff0100f2052a010000004341045b4a0f4b37cc82e614a79913a02dfdd25d9d0a841847305c6aa30ee44be67b143f53304a382960471399f42eacb3bf79498b2ebe8da3b3a7d5649b067d448fb8ac00000000"}]}