{"hash": "00000000dc854870a02ac502cdd732644eea099008b518985da6d76015db2bdf", "ver": 1, "prev_block": "0000000057fe26eebfbe0d0b7bfca14afee147973eef16350c8e6b9fde49343a", "mrkl_root": "d82145d84af01f21077245f83081d0367e366c359d052a648eec97a51152e952", "time": 1231775577, "bits": 486604799, "next_block": ["00000000a7494fded2b0cc826dd1c58f1c383714f2de0449a3a3643ead5452c2"], "fee": 0, "nonce": 628211764, "n_tx": 1, "size": 216, "block_index": 229, "main_chain": true, "height": 229, "weight": 864, "tx": [{"hash": "d82145d84af01f21077245f83081d0367e366c359d052a648eec97a51152e952", "ver": 1, "vin_sz": 1, "vout_sz": 1, "size": 135, "weight": 540, "fee": 0, "relayed_by": "0.0.0.0", "lock_time": 0, "tx_index": 2917185847866109, "double_spend": false, "time": 1231775577, "block_index": 229, "block_height": 229, "inputs": [{"sequence": 4294967295, "witness": "", "script": "04ffff001d02c900", "index": 0, "prev_out": null}], "out": [{"type": 0, "spent": false, "value": 5000000000, "spending_outpoints": [], "n": 0, "tx_index": 2917185847866109, "script": "41043be958963585c925180a4330d7f845275c7021957f17176b21f94d2660132ee4237cd1aa83f4dae4c030700590985f9418913e4829a5552c9ca268e1bb21b821ac", "addr": "1HRGtCwm8vxA3GUobDLDGo7Wya6FXhwuDe"}], "hex": "01000000010000000000000000000000000000000000000000000000000000000000000000ffffffff0804ffff001d02c900ffffffff0100f2052a010000004341043be958963585c925180a4330d7f845275c7021957f17176b21f94d2660132ee4237cd1aa83f4dae4c030700590985f9418913e4829a5552c9ca268e1bb21b821ac00000000"}]}