{"hash": "000000000cd339982e556dfffa9de94744a4135c53eeef15b7bcc9bdeb9c2182", "ver": 1, "prev_block": "0000000098b58d427a10c860335a21c1a9a7639e96c3d6f1a03d8c8c885b5e3b", "mrkl_root": "e1cf3476234d8446653ad52a8939ed792003eefdcd0e897319ab9d2cb4c14c8c", "time": 1231567611, "bits": 486604799, "next_block": ["00000000fc051fbbce89a487e811a5d4319d209785ea4f4b27fc83770d1e415f"], "fee": 0, "nonce": 1437882917, "n_tx": 1, "size": 215, "block_index": 23, "main_chain": true, "height": 23, "weight": 860, "tx": [{"hash": "e1cf3476234d8446653ad52a8939ed792003eefdcd0e897319ab9d2cb4c14c8c", "ver": 1, "vin_sz": 1, "vout_sz": 1, "size": 134, "weight": 536, "fee": 0, "relayed_by": "0.0.0.0", "lock_time": 0, "tx_index": 4936361446839221, "double_spend": false, "time": 1231567611, "block_index": 23, "block_height": 23, "inputs": [{"sequence": 4294967295, "witness": "", "script": "04ffff001d0131", "index": 0, "prev_out": null}], "out": [{"type": 0, "spent": false, "value": 5000000000, "spending_outpoints": [], "n": 0, "tx_index": 4936361446839221, "script": "41041a24b5639c12b2b0a612011eb780a682020b6312782fef0bc29a75eee7cf66abd081121a0b7b5c3076e055648379c25ed52eff8d2b11871e5a7e0c8604f4053fac", "addr": "1AqC4PhwYf7QAyGBhThcyQCKHJyyyLyAwc"}], "hex": "01000000010000000000000000000000000000000000000000000000000000000000000000ffffffff0704ffff001d0131ffffffff0100f2052a010000004341041a24b5639c12b2b0a612011eb780a682020b6312782fef0bc29a75eee7cf66abd081121a0b7b5c3076e055648379c25ed52eff8d2b11871e5a7e0c8604f4053fac00000000"}]}