{"hash": "00000000a7494fded2b0cc826dd1c58f1c383714f2de0449a3a3643ead5452c2", "ver": 1, "prev_block": "00000000dc854870a02ac502cdd732644eea099008b518985da6d76015db2bdf", "mrkl_root": "aa94ee85a999c699a2972ab9c225ed108ded4253cba3dc05e246ad776ef261ee", "time": 1231776531, "bits": 486604799, "next_block": ["00000000b6ee1bc8ef48268ca7fbd243cf2d4c4792620ebfc5933cf08c487bdb"], "fee": 0, "nonce": 25939201, "n_tx": 1, "size": 216, "block_index": 230, "main_chain": true, "height": 230, "weight": 864, "tx": [{"hash": "aa94ee85a999c699a2972ab9c225ed108ded4253cba3dc05e246ad776ef261ee", "ver": 1, "vin_sz": 1, "vout_sz": 1, "size": 135, "weight": 540, "fee": 0, "relayed_by": "0.0.0.0", "lock_time": 0, "tx_index": 8387342290056616, "double_spend": false, "time": 1231776531, "block_index": 230, "block_height": 230, "inputs": [{"sequence": 4294967295, "witness": "", "script": "04ffff001d02ca00", "index": 0, "prev_out": null}], "out": [{"type": 0, "spent": false, "value": 5000000000, "spending_outpoints": [], "n": 0, "tx_index": 8387342290056616, "script": "4104dcc938807543662feff7fb60c352eaf752fd877626671e99566d9e562e80917966471e26a866b9e3e0395d94400fbf73f5553de6784496292abe9afb5931a95aac", "addr": "184wTUutRt5geVhpCzhnp8vmKJWjUQGeah"}], "hex": "01000000010000000000000000000000000000000000000000000000000000000000000000ffffffff0804ffff001d02ca00ffffffff0100f2052a01000000434104dcc938807543662feff7fb60c352eaf752fd877626671e99566d9e562e80917966471e26a866b9e3e0395d94400fbf73f5553de6784496292abe9afb5931a95aac00000000"}]}