{"hash": "00000000b6ee1bc8ef48268ca7fbd243cf2d4c4792620ebfc5933cf08c487bdb", "ver": 1, "prev_block": "00000000a7494fded2b0cc826dd1c58f1c383714f2de0449a3a3643ead5452c2", "mrkl_root": "6229511483becd964893b5994aa7a2876d7435bc0c70cab7bfdb1c6eb3703d8c", "time": 1231777403, "bits": 486604799, "next_block": ["0000000098e453043107b29a58db813021640b3def7c1e659742ddf56420d6ca"], "fee": 0, "nonce": 1430124568, "n_tx": 1, "size": 216, "block_index": 231, "main_chain": true, "height": 231, "weight": 864, "tx": [{"hash": "6229511483becd964893b5994aa7a2876d7435bc0c70cab7bfdb1c6eb3703d8c", "ver": 1, "vin_sz": 1, "vout_sz": 1, "size": 135, "weight": 540, "fee": 0, "relayed_by": "0.0.0.0", "lock_time": 0, "tx_index": 4934256374432667, "double_spend": false, "time": 1231777403, "block_index": 231, "block_height": 231, "inputs": [{"sequence": 4294967295, "witness": "", "script": "04ffff001d02d400", "index": 0, "prev_out": null}], "out": [{"type": 0, "spent": false, "value": 5000000000, "spending_outpoints": [], "n": 0, "tx_index": 4934256374432667, "script": "410461dd47c89a0e383fa63ffce43db26c72ec568c6c98ee89334bc37655d70490392fdb16ef848b3f1865230a86e9c6780625e3075a328a750da6e170c78a70aae4ac", "addr": "19PVrVqTjMaAUXxNZKytffiebVM9U1S9Dy"}], "hex": "01000000010000000000000000000000000000000000000000000000000000000000000000ffffffff0804ffff001d02d400ffffffff0100f2052a0100000043410461dd47c89a0e383fa63ffce43db26c72ec568c6c98ee89334bc37655d70490392fdb16ef848b3f1865230a86e9c6780625e3075a328a750da6e170c78a70aae4ac00000000"}]}