{"hash": "0000000098e453043107b29a58db813021640b3def7c1e659742ddf56420d6ca", "ver": 1, "prev_block": "00000000b6ee1bc8ef48268ca7fbd243cf2d4c4792620ebfc5933cf08c487bdb", "mrkl_root": "bdccc4d6bce7254baff1457931cc20976f91ac8721f8b8f44eeb4fc5c7146ca1", "time": 1231778080, "bits": 486604799, "next_block": ["0000000016c7dad613635ae08f697c10935476b49dc67fdb6ef08b1143d01a3e"], "fee": 0, "nonce": 2914525958, "n_tx": 1, "size": 216, "block_index": 232, "main_chain": true, "height": 232, "weight": 864, "tx": [{"hash": "bdccc4d6bce7254baff1457931cc20976f91ac8721f8b8f44eeb4fc5c7146ca1", "ver": 1, "vin_sz": 1, "vout_sz": 1, "size": 135, "weight": 540, "fee": 0, "relayed_by": "0.0.0.0", "lock_time": 0, "tx_index": 5679538469644797, "double_spend": false, "time": 1231778080, "block_index": 232, "block_height": 232, "inputs": [{"sequence": 4294967295, "witness": "", "script": "04ffff001d02d600", "index": 0, "prev_out": null}], "out": [{"type": 0, "spent": false, "value": 5000000000, "spending_outpoints": [], "n": 0, "tx_index": 5679538469644797, "script": "4104cef9232d03fa86b2d50f9d884e5856d3fb2064da950891d08804323edbf99fcdeb8c4ba46de6d9b8e2a4d9202695f0e5458728da157e99fabe68e2b1e9afe952ac", "addr": "15WV17J7pbDKdZ6eeGBg5yZ9jb26TaW8GB"}], "hex": "01000000010000000000000000000000000000000000000000000000000000000000000000ffffffff0804ffff001d02d600ffffffff0100f2052a01000000434104cef9232d03fa86b2d50f9d884e5856d3fb2064da950891d08804323edbf99fcdeb8c4ba46de6d9b8e2a4d9202695f0e5458728da157e99fabe68e2b1e9afe952ac00000000"}]}