{"hash": "0000000016c7dad613635ae08f697c10935476b49dc67fdb6ef08b1143d01a3e", "ver": 1, "prev_block": "0000000098e453043107b29a58db813021640b3def7c1e659742ddf56420d6ca", "mrkl_root": "b06bf2c935e4b9853feffd9be25ac744206667e9c99b233f58098deeef7975bd", "time": 1231779468, "bits": 486604799, "next_block": ["00000000c2edc9f0ed8e33627247bbf78b89ee62b23ae48e6201debc28ff208e"], "fee": 0, "nonce": 730983722, "n_tx": 1, "size": 216, "block_index": 233, "main_chain": true, "height": 233, "weight": 864, "tx": [{"hash": "b06bf2c935e4b9853feffd9be25ac744206667e9c99b233f58098deeef7975bd", "ver": 1, "vin_sz": 1, "vout_sz": 1, "size": 135, "weight": 540, "fee": 0, "relayed_by": "0.0.0.0", "lock_time": 0, "tx_index": 6665992146899361, "double_spend": false, "time": 1231779468, "block_index": 233, "block_height": 233, "inputs": [{"sequence": 4294967295, "witness": "", "script": "04ffff001d02d800", "index": 0, "prev_out": null}], "out": [{"type": 0, "spent": false, "value": 5000000000, "spending_outpoints": [], "n": 0, "tx_index": 6665992146899361, "script": "4104db0403709aeffa2c18c4be29fc4f68ad7451789945d7a2a3ebc8975bce605511c27f9a2b496b5921a18821fdd35d5b3a5558e4c2f7a1fd7919b03a9c27871820ac", "addr": "1DecGxfc8DuoLjV75WdNE7BfjVRGE5ACqi"}], "hex": "01000000010000000000000000000000000000000000000000000000000000000000000000ffffffff0804ffff001d02d800ffffffff0100f2052a01000000434104db0403709aeffa2c18c4be29fc4f68ad7451789945d7a2a3ebc8975bce605511c27f9a2b496b5921a18821fdd35d5b3a5558e4c2f7a1fd7919b03a9c27871820ac00000000"}]}