{"hash": "00000000c2edc9f0ed8e33627247bbf78b89ee62b23ae48e6201debc28ff208e", "ver": 1, "prev_block": "0000000016c7dad613635ae08f697c10935476b49dc67fdb6ef08b1143d01a3e", "mrkl_root": "0f00a4718228d0e7338695a96dba43dcf371cbe37d315395c8d60e516f5e5235", "time": 1231780094, "bits": 486604799, "next_block": ["000000006006272b61243f806117f2b4d4482e1d3e83ee799b00015e551b81d2"], "fee": 0, "nonce": 2140423963, "n_tx": 1, "size": 216, "block_index": 234, "main_chain": true, "height": 234, "weight": 864, "tx": [{"hash": "0f00a4718228d0e7338695a96dba43dcf371cbe37d315395c8d60e516f5e5235", "ver": 1, "vin_sz": 1, "vout_sz": 1, "size": 135, "weight": 540, "fee": 0, "relayed_by": "0.0.0.0", "lock_time": 0, "tx_index": 1876092414206426, "double_spend": false, "time": 1231780094, "block_index": 234, "block_height": 234, "inputs": [{"sequence": 4294967295, "witness": "", "script": "04ffff001d02dc00", "index": 0, "prev_out": null}], "out": [{"type": 0, "spent": false, "value": 5000000000, "spending_outpoints": [], "n": 0, "tx_index": 1876092414206426, "script": "4104e130d7447b8e0ad391300eb62cf0725b32da98e8015806988e5a59beac8cb07bf00103b146796f60fe2e41fd603b8ea8a1ef24d161a9c7af9f3bd9d1e2fd361eac", "addr": "12bAezJkUhUxUDVZUypN9HP7obfWm58hSw"}], "hex": "01000000010000000000000000000000000000000000000000000000000000000000000000ffffffff0804ffff001d02dc00ffffffff0100f2052a01000000434104e130d7447b8e0ad391300eb62cf0725b32da98e8015806988e5a59beac8cb07bf00103b146796f60fe2e41fd603b8ea8a1ef24d161a9c7af9f3bd9d1e2fd361eac00000000"}]}