{"hash": "000000006006272b61243f806117f2b4d4482e1d3e83ee799b00015e551b81d2", "ver": 1, "prev_block": "00000000c2edc9f0ed8e33627247bbf78b89ee62b23ae48e6201debc28ff208e", "mrkl_root": "0cc917bf15f8807f224e7524c1eca22c3740ddefb7bf6694f7c2262b490cc706", "time": 1231780771, "bits": 486604799, "next_block": ["00000000297e095567db935fefecb1d495b3fbcbbe5ce37dee325a98ba357a2b"], "fee": 0, "nonce": 140056530, "n_tx": 1, "size": 215, "block_index": 235, "main_chain": true, "height": 235, "weight": 860, "tx": [{"hash": "0cc917bf15f8807f224e7524c1eca22c3740ddefb7bf6694f7c2262b490cc706", "ver": 1, "vin_sz": 1, "vout_sz": 1, "size": 134, "weight": 536, "fee": 0, "relayed_by": "0.0.0.0", "lock_time": 0, "tx_index": 238463180170456, "double_spend": false, "time": 1231780771, "block_index": 235, "block_height": 235, "inputs": [{"sequence": 4294967295, "witness": "", "script": "04ffff001d0109", "index": 0, "prev_out": null}], "out": [{"type": 0, "spent": true, "value": 5000000000, "spending_outpoints": [{"tx_index": 1567896291740461, "n": 1}], "n": 0, "tx_index": 238463180170456, "script": "410437949b7f3c4358c5d9c2211f7ab10d10d3a034d250d26388ad89a67709c43130c3208cbe7a438a34a90d75fc5d9a1934c812bebf67d0b7e8aa09093dea1f129cac", "addr": "1PmhUgoVLtTgdcvfi1cwwSTvPvFC67bCQs"}], "hex": "01000000010000000000000000000000000000000000000000000000000000000000000000ffffffff0704ffff001d0109ffffffff0100f2052a0100000043410437949b7f3c4358c5d9c2211f7ab10d10d3a034d250d26388ad89a67709c43130c3208cbe7a438a34a90d75fc5d9a1934c812bebf67d0b7e8aa09093dea1f129cac00000000"}]}