{"hash": "00000000297e095567db935fefecb1d495b3fbcbbe5ce37dee325a98ba357a2b", "ver": 1, "prev_block": "000000006006272b61243f806117f2b4d4482e1d3e83ee799b00015e551b81d2", "mrkl_root": "8cda9b1663ae15d9f8b3da2e3e5335e2ced509f9d36eb36206dc5845eef65d35", "time": 1231781159, "bits": 486604799, "next_block": ["000000003ee212a38ae0326c5982e3012754bb6a730f885bd955673982df83ca"], "fee": 0, "nonce": 30447564, "n_tx": 1, "size": 215, "block_index": 236, "main_chain": true, "height": 236, "weight": 860, "tx": [{"hash": "8cda9b1663ae15d9f8b3da2e3e5335e2ced509f9d36eb36206dc5845eef65d35", "ver": 1, "vin_sz": 1, "vout_sz": 1, "size": 134, "weight": 536, "fee": 0, "relayed_by": "0.0.0.0", "lock_time": 0, "tx_index": 1877686113315611, "double_spend": false, "time": 1231781159, "block_index": 236, "block_height": 236, "inputs": [{"sequence": 4294967295, "witness": "", "script": "04ffff001d0107", "index": 0, "prev_out": null}], "out": [{"type": 0, "spent": false, "value": 5000000000, "spending_outpoints": [], "n": 0, "tx_index": 1877686113315611, "script": "4104d37dbaaee3a1a9b675113b49e6368d4ad7692f721ef319e8fd0f36d5bea224a3885cc8c565c5f55362f274f059b92e24a1a5fd25ac6aeeb61cf5ad20207dbf81ac", "addr": "1FhKNo8JmNrPKnqJv5rTFMrw98H7soXTXu"}], "hex": "01000000010000000000000000000000000000000000000000000000000000000000000000ffffffff0704ffff001d0107ffffffff0100f2052a01000000434104d37dbaaee3a1a9b675113b49e6368d4ad7692f721ef319e8fd0f36d5bea224a3885cc8c565c5f55362f274f059b92e24a1a5fd25ac6aeeb61cf5ad20207dbf81ac00000000"}]}