{"hash": "000000003ee212a38ae0326c5982e3012754bb6a730f885bd955673982df83ca", "ver": 1, "prev_block": "00000000297e095567db935fefecb1d495b3fbcbbe5ce37dee325a98ba357a2b", "mrkl_root": "516ddeb08d48ddce1682a0a81f8f1b73fcc4483978d2798d00bdd4a525204ef6", "time": 1231781185, "bits": 486604799, "next_block": ["00000000d153d95cdb1fbdc9bd7f4e9fdbd784af7e0b0536a390d8d5b2c38a8d"], "fee": 0, "nonce": 3312748288, "n_tx": 1, "size": 216, "block_index": 237, "main_chain": true, "height": 237, "weight": 864, "tx": [{"hash": "516ddeb08d48ddce1682a0a81f8f1b73fcc4483978d2798d00bdd4a525204ef6", "ver": 1, "vin_sz": 1, "vout_sz": 1, "size": 135, "weight": 540, "fee": 0, "relayed_by": "0.0.0.0", "lock_time": 0, "tx_index": 8666093031045783, "double_spend": false, "time": 1231781185, "block_index": 237, "block_height": 237, "inputs": [{"sequence": 4294967295, "witness": "", "script": "04ffff001d02dd00", "index": 0, "prev_out": null}], "out": [{"type": 0, "spent": false, "value": 5000000000, "spending_outpoints": [], "n": 0, "tx_index": 8666093031045783, "script": "410495dadac2ffc3742c6cfe0c253860cc8155d4c62fb644e7f3d8ce16372e194e2bfc0a49e920d7f57e62345495381412909f980753c72455abbefe5dbf23f41cefac", "addr": "15z1nJqsrAUchqwQ4hsWnyPru2nUjuuDhR"}], "hex": "01000000010000000000000000000000000000000000000000000000000000000000000000ffffffff0804ffff001d02dd00ffffffff0100f2052a0100000043410495dadac2ffc3742c6cfe0c253860cc8155d4c62fb644e7f3d8ce16372e194e2bfc0a49e920d7f57e62345495381412909f980753c72455abbefe5dbf23f41cefac00000000"}]}