{"hash": "00000000d153d95cdb1fbdc9bd7f4e9fdbd784af7e0b0536a390d8d5b2c38a8d", "ver": 1, "prev_block": "000000003ee212a38ae0326c5982e3012754bb6a730f885bd955673982df83ca", "mrkl_root": "4231776c56a97967417881a329f44232d5fdd952d01b597a265a331af859cce5", "time": 1231782035, "bits": 486604799, "next_block": ["00000000ea67fe5a0ff9587f7a814c6b13fe902f386b53a62ac5728e8e58a16d"], "fee": 0, "nonce": 3230543156, "n_tx": 1, "size": 216, "block_index": 238, "main_chain": true, "height": 238, "weight": 864, "tx": [{"hash": "4231776c56a97967417881a329f44232d5fdd952d01b597a265a331af859cce5", "ver": 1, "vin_sz": 1, "vout_sz": 1, "size": 135, "weight": 540, "fee": 0, "relayed_by": "0.0.0.0", "lock_time": 0, "tx_index": 8085307056670315, "double_spend": false, "time": 1231782035, "block_index": 238, "block_height": 238, "inputs": [{"sequence": 4294967295, "witness": "", "script": "04ffff001d02e200", "index": 0, "prev_out": null}], "out": [{"type": 0, "spent": false, "value": 5000000000, "spending_outpoints": [], "n": 0, "tx_index": 8085307056670315, "script": "4104be25e3be98fe60103032bb5b919784b24d2d1ef585df73f2ae55ce1c02e4de54ab2e2d149a9997818113245ae31d7ac56cc305c6a37e7c8e917c14f33510f906ac", "addr": "1ALp4qPqGju9gmupfdRwAEyREN38Uqipyv"}], "hex": "01000000010000000000000000000000000000000000000000000000000000000000000000ffffffff0804ffff001d02e200ffffffff0100f2052a01000000434104be25e3be98fe60103032bb5b919784b24d2d1ef585df73f2ae55ce1c02e4de54ab2e2d149a9997818113245ae31d7ac56cc305c6a37e7c8e917c14f33510f906ac00000000"}]}