{"hash": "00000000ea67fe5a0ff9587f7a814c6b13fe902f386b53a62ac5728e8e58a16d", "ver": 1, "prev_block": "00000000d153d95cdb1fbdc9bd7f4e9fdbd784af7e0b0536a390d8d5b2c38a8d", "mrkl_root": "ec520e569d7630f859ee8eb716ffdd4c910d6b64db1579c38620ff1a69b52198", "time": 1231783052, "bits": 486604799, "next_block": ["00000000bdb3f5b06d2b5a55b85758d1df4a7cf49afe075f94fff5d1bbea4aa8"], "fee": 0, "nonce": 4102559785, "n_tx": 1, "size": 216, "block_index": 239, "main_chain": true, "height": 239, "weight": 864, "tx": [{"hash": "ec520e569d7630f859ee8eb716ffdd4c910d6b64db1579c38620ff1a69b52198", "ver": 1, "vin_sz": 1, "vout_sz": 1, "size": 135, "weight": 540, "fee": 0, "relayed_by": "0.0.0.0", "lock_time": 0, "tx_index": 5352657437024228, "double_spend": false, "time": 1231783052, "block_index": 239, "block_height": 239, "inputs": [{"sequence": 4294967295, "witness": "", "script": "04ffff001d02e300", "index": 0, "prev_out": null}], "out": [{"type": 0, "spent": false, "value": 5000000000, "spending_outpoints": [], "n": 0, "tx_index": 5352657437024228, "script": "4104f5b90ed4c581c0d7d11e6066e56a1f4c5bf9602f3c47e8c4f0196f3b794a60cd3cc62fea6aa332657b2a379356bca0888af7a3b2f5d5eab9265e288cb56c3e32ac", "addr": "1Dk9PekCU6BkLy5pRHfWvSw791BiVdKBXj"}], "hex": "01000000010000000000000000000000000000000000000000000000000000000000000000ffffffff0804ffff001d02e300ffffffff0100f2052a01000000434104f5b90ed4c581c0d7d11e6066e56a1f4c5bf9602f3c47e8c4f0196f3b794a60cd3cc62fea6aa332657b2a379356bca0888af7a3b2f5d5eab9265e288cb56c3e32ac00000000"}]}