{"hash": "00000000fc051fbbce89a487e811a5d4319d209785ea4f4b27fc83770d1e415f", "ver": 1, "prev_block": "000000000cd339982e556dfffa9de94744a4135c53eeef15b7bcc9bdeb9c2182", "mrkl_root": "43c39b8b3728c6cb26fae0fc18803ca6cf43e15fde218e3dfbd54e633cf6753e", "time": 1231568277, "bits": 486604799, "next_block": ["000000008e35a1d59ea1be8d76683662f47fd13c62a9e347ad5845a26f762026"], "fee": 0, "nonce": 2969614887, "n_tx": 1, "size": 215, "block_index": 24, "main_chain": true, "height": 24, "weight": 860, "tx": [{"hash": "43c39b8b3728c6cb26fae0fc18803ca6cf43e15fde218e3dfbd54e633cf6753e", "ver": 1, "vin_sz": 1, "vout_sz": 1, "size": 134, "weight": 536, "fee": 0, "relayed_by": "0.0.0.0", "lock_time": 0, "tx_index": 2197643623950810, "double_spend": false, "time": 1231568277, "block_index": 24, "block_height": 24, "inputs": [{"sequence": 4294967295, "witness": "", "script": "04ffff001d013f", "index": 0, "prev_out": null}], "out": [{"type": 0, "spent": false, "value": 5000000000, "spending_outpoints": [], "n": 0, "tx_index": 2197643623950810, "script": "41049523af765da5408d0a4f9d33af2e103c57b8b31877969173e7a7c313bf09a9803dcceec9b29d0fab4737173e3cb6dcc11ab7f233d8b1d715748ca4d715770ac3ac", "addr": "1JXLFv719ec3bzTXaSq7vqRFS634LErtJu"}], "hex": "01000000010000000000000000000000000000000000000000000000000000000000000000ffffffff0704ffff001d013fffffffff0100f2052a010000004341049523af765da5408d0a4f9d33af2e103c57b8b31877969173e7a7c313bf09a9803dcceec9b29d0fab4737173e3cb6dcc11ab7f233d8b1d715748ca4d715770ac3ac00000000"}]}