{"hash": "00000000bdb3f5b06d2b5a55b85758d1df4a7cf49afe075f94fff5d1bbea4aa8", "ver": 1, "prev_block": "00000000ea67fe5a0ff9587f7a814c6b13fe902f386b53a62ac5728e8e58a16d", "mrkl_root": "435264846bafdb75b931b2b1c01285432d957d70190e51a73c1565a7afbb1a5b", "time": 1231783494, "bits": 486604799, "next_block": ["000000000a827cddf4a562109923ca8102421e7f3affcfd88c66c87d63959180"], "fee": 0, "nonce": 80963888, "n_tx": 1, "size": 215, "block_index": 240, "main_chain": true, "height": 240, "weight": 860, "tx": [{"hash": "435264846bafdb75b931b2b1c01285432d957d70190e51a73c1565a7afbb1a5b", "ver": 1, "vin_sz": 1, "vout_sz": 1, "size": 134, "weight": 536, "fee": 0, "relayed_by": "0.0.0.0", "lock_time": 0, "tx_index": 3205452036107426, "double_spend": false, "time": 1231783494, "block_index": 240, "block_height": 240, "inputs": [{"sequence": 4294967295, "witness": "", "script": "04ffff001d010b", "index": 0, "prev_out": null}], "out": [{"type": 0, "spent": false, "value": 5000000000, "spending_outpoints": [], "n": 0, "tx_index": 3205452036107426, "script": "4104851659a1420612c046fcd0085d884f185ce8b5da448c1b5e8735b4b13c5626841a2a172ba770df5e0ea0354562d939284fad9baef0cd1dbc43b69a5a963409c5ac", "addr": "19B32mm7b5x6HiBCRVpgQZUswbQ29b9YTo"}], "hex": "01000000010000000000000000000000000000000000000000000000000000000000000000ffffffff0704ffff001d010bffffffff0100f2052a01000000434104851659a1420612c046fcd0085d884f185ce8b5da448c1b5e8735b4b13c5626841a2a172ba770df5e0ea0354562d939284fad9baef0cd1dbc43b69a5a963409c5ac00000000"}]}