{"hash": "000000000a827cddf4a562109923ca8102421e7f3affcfd88c66c87d63959180", "ver": 1, "prev_block": "00000000bdb3f5b06d2b5a55b85758d1df4a7cf49afe075f94fff5d1bbea4aa8", "mrkl_root": "4cb9f652eff11c0ca4d91950540f82f7aaf0d3dfa2b650234633640149915b3e", "time": 1231784201, "bits": 486604799, "next_block": ["00000000bd0f11ce95423513cc30ed6990fe8170b9a2edfcc1cbd9b89bbcf0df"], "fee": 0, "nonce": 518024505, "n_tx": 1, "size": 216, "block_index": 241, "main_chain": true, "height": 241, "weight": 864, "tx": [{"hash": "4cb9f652eff11c0ca4d91950540f82f7aaf0d3dfa2b650234633640149915b3e", "ver": 1, "vin_sz": 1, "vout_sz": 1, "size": 135, "weight": 540, "fee": 0, "relayed_by": "0.0.0.0", "lock_time": 0, "tx_index": 2194016013659270, "double_spend": false, "time": 1231784201, "block_index": 241, "block_height": 241, "inputs": [{"sequence": 4294967295, "witness": "", "script": "04ffff001d02e400", "index": 0, "prev_out": null}], "out": [{"type": 0, "spent": false, "value": 5000000000, "spending_outpoints": [], "n": 0, "tx_index": 2194016013659270, "script": "4104f5f17b29cbb1dc3b9041011f364a0254a201480248350d9bb18acd9cd435b99ef4dccd964e571d1bb6d43a3699001a24b8cf11322fb99b268a9f8d16639930adac", "addr": "13kjsBfe8D7bwmT938DxCLHzjvae6uvHPg"}], "hex": "01000000010000000000000000000000000000000000000000000000000000000000000000ffffffff0804ffff001d02e400ffffffff0100f2052a01000000434104f5f17b29cbb1dc3b9041011f364a0254a201480248350d9bb18acd9cd435b99ef4dccd964e571d1bb6d43a3699001a24b8cf11322fb99b268a9f8d16639930adac00000000"}]}