{"hash": "00000000bd0f11ce95423513cc30ed6990fe8170b9a2edfcc1cbd9b89bbcf0df", "ver": 1, "prev_block": "000000000a827cddf4a562109923ca8102421e7f3affcfd88c66c87d63959180", "mrkl_root": "15f09c3978221c2a92e6469b1b82762f21b70c216944a63c9a821d8f846bb48f", "time": 1231785773, "bits": 486604799, "next_block": ["000000008d6d1be4e26d9ec16b8f719bc2f7befaeff7b3cc208b100ca7abc982"], "fee": 0, "nonce": 3922074661, "n_tx": 1, "size": 216, "block_index": 242, "main_chain": true, "height": 242, "weight": 864, "tx": [{"hash": "15f09c3978221c2a92e6469b1b82762f21b70c216944a63c9a821d8f846bb48f", "ver": 1, "vin_sz": 1, "vout_sz": 1, "size": 135, "weight": 540, "fee": 0, "relayed_by": "0.0.0.0", "lock_time": 0, "tx_index": 5056161943511984, "double_spend": false, "time": 1231785773, "block_index": 242, "block_height": 242, "inputs": [{"sequence": 4294967295, "witness": "", "script": "04ffff001d02f500", "index": 0, "prev_out": null}], "out": [{"type": 0, "spent": false, "value": 5000000000, "spending_outpoints": [], "n": 0, "tx_index": 5056161943511984, "script": "4104d4c8189f402a6e6e45bde966cbcba58c24019b1cb4d7b878a6a22d1897b5ba92661838e317b09b5425376af07fab95cce80268a1b126376a1eac050ead26a1fdac", "addr": "1SLkiCeQwBe56cvKMXmo8dYAe8SmjfrwX"}], "hex": "01000000010000000000000000000000000000000000000000000000000000000000000000ffffffff0804ffff001d02f500ffffffff0100f2052a01000000434104d4c8189f402a6e6e45bde966cbcba58c24019b1cb4d7b878a6a22d1897b5ba92661838e317b09b5425376af07fab95cce80268a1b126376a1eac050ead26a1fdac00000000"}]}