{"hash": "000000008d6d1be4e26d9ec16b8f719bc2f7befaeff7b3cc208b100ca7abc982", "ver": 1, "prev_block": "00000000bd0f11ce95423513cc30ed6990fe8170b9a2edfcc1cbd9b89bbcf0df", "mrkl_root": "1bf65bfe16dba06a386e229bb07c8d5e3f36cf8740aa306709a4d7923b2793d7", "time": 1231786898, "bits": 486604799, "next_block": ["0000000047ebf1f452225ac287d79dcc8e4a840c2a097efa407679a213f9e5ba"], "fee": 0, "nonce": 279254043, "n_tx": 1, "size": 216, "block_index": 243, "main_chain": true, "height": 243, "weight": 864, "tx": [{"hash": "1bf65bfe16dba06a386e229bb07c8d5e3f36cf8740aa306709a4d7923b2793d7", "ver": 1, "vin_sz": 1, "vout_sz": 1, "size": 135, "weight": 540, "fee": 0, "relayed_by": "0.0.0.0", "lock_time": 0, "tx_index": 7584864588159732, "double_spend": false, "time": 1231786898, "block_index": 243, "block_height": 243, "inputs": [{"sequence": 4294967295, "witness": "", "script": "04ffff001d02fc00", "index": 0, "prev_out": null}], "out": [{"type": 0, "spent": false, "value": 5000000000, "spending_outpoints": [], "n": 0, "tx_index": 7584864588159732, "script": "41047482b2aac014dbebd1fc93842db3175cd34ad7875c5be3ee7b385f913e62fd6c805b9578f0f9feefc9b08aa4fd898c67cb52b4d32f2769d7ce1190367fce6ff1ac", "addr": "1JKb22MuD4BhZMru2jpdpy8iRATyEDpy33"}], "hex": "01000000010000000000000000000000000000000000000000000000000000000000000000ffffffff0804ffff001d02fc00ffffffff0100f2052a010000004341047482b2aac014dbebd1fc93842db3175cd34ad7875c5be3ee7b385f913e62fd6c805b9578f0f9feefc9b08aa4fd898c67cb52b4d32f2769d7ce1190367fce6ff1ac00000000"}]}