{"hash": "0000000047ebf1f452225ac287d79dcc8e4a840c2a097efa407679a213f9e5ba", "ver": 1, "prev_block": "000000008d6d1be4e26d9ec16b8f719bc2f7befaeff7b3cc208b100ca7abc982", "mrkl_root": "67ce99e1604be37cd67d18779a3fa7cbe758fd20f56978f6fc94077c7955aaff", "time": 1231787524, "bits": 486604799, "next_block": ["0000000031714f49ff442632ef45b0e7148752e7e0a6c373ef6c857093e7036f"], "fee": 0, "nonce": 1900919327, "n_tx": 1, "size": 216, "block_index": 244, "main_chain": true, "height": 244, "weight": 864, "tx": [{"hash": "67ce99e1604be37cd67d18779a3fa7cbe758fd20f56978f6fc94077c7955aaff", "ver": 1, "vin_sz": 1, "vout_sz": 1, "size": 135, "weight": 540, "fee": 0, "relayed_by": "0.0.0.0", "lock_time": 0, "tx_index": 8995425393541362, "double_spend": false, "time": 1231787524, "block_index": 244, "block_height": 244, "inputs": [{"sequence": 4294967295, "witness": "", "script": "04ffff001d02fd00", "index": 0, "prev_out": null}], "out": [{"type": 0, "spent": false, "value": 5000000000, "spending_outpoints": [], "n": 0, "tx_index": 8995425393541362, "script": "4104b9318b58ee70b75c7b12434b7bf6e729d14d624ccf0290093b2bb7086ee183883c0bcdf0e7e2b0ab6ed3663af27beb37744479340e559c2598dd1243a4e180a4ac", "addr": "1CbGkbGuvdoZGnywSfq6iV5MBQuaFQZfKb"}], "hex": "01000000010000000000000000000000000000000000000000000000000000000000000000ffffffff0804ffff001d02fd00ffffffff0100f2052a01000000434104b9318b58ee70b75c7b12434b7bf6e729d14d624ccf0290093b2bb7086ee183883c0bcdf0e7e2b0ab6ed3663af27beb37744479340e559c2598dd1243a4e180a4ac00000000"}]}