{"hash": "0000000031714f49ff442632ef45b0e7148752e7e0a6c373ef6c857093e7036f", "ver": 1, "prev_block": "0000000047ebf1f452225ac287d79dcc8e4a840c2a097efa407679a213f9e5ba", "mrkl_root": "f7126304f9e03c82c7c5ec4347c6c4e7ea9eb765a431307cb60d81c2c1b671b9", "time": 1231788397, "bits": 486604799, "next_block": ["00000000ccc62f72d2e8e34c750d9ab72b6f2557d3b249b619d3e7f1860f1a32"], "fee": 0, "nonce": 2115289634, "n_tx": 1, "size": 216, "block_index": 245, "main_chain": true, "height": 245, "weight": 864, "tx": [{"hash": "f7126304f9e03c82c7c5ec4347c6c4e7ea9eb765a431307cb60d81c2c1b671b9", "ver": 1, "vin_sz": 1, "vout_sz": 1, "size": 135, "weight": 540, "fee": 0, "relayed_by": "0.0.0.0", "lock_time": 0, "tx_index": 6524737555025953, "double_spend": false, "time": 1231788397, "block_index": 245, "block_height": 245, "inputs": [{"sequence": 4294967295, "witness": "", "script": "04ffff001d02fe00", "index": 0, "prev_out": null}], "out": [{"type": 0, "spent": false, "value": 5000000000, "spending_outpoints": [], "n": 0, "tx_index": 6524737555025953, "script": "41043a19e774e0e436b70e6440aea899da467589a5b061f765adf6cf6f990d358d9d7e7d5620d8c179b37da0d84933eeedc1022cdb5bb51270953bd958058b64e02cac", "addr": "1PQhPpysTvkYRpjpHL48KuQTRW7yS2k9Hx"}], "hex": "01000000010000000000000000000000000000000000000000000000000000000000000000ffffffff0804ffff001d02fe00ffffffff0100f2052a010000004341043a19e774e0e436b70e6440aea899da467589a5b061f765adf6cf6f990d358d9d7e7d5620d8c179b37da0d84933eeedc1022cdb5bb51270953bd958058b64e02cac00000000"}]}