{"hash": "00000000ccc62f72d2e8e34c750d9ab72b6f2557d3b249b619d3e7f1860f1a32", "ver": 1, "prev_block": "0000000031714f49ff442632ef45b0e7148752e7e0a6c373ef6c857093e7036f", "mrkl_root": "6f80ca7441710cf0942cf99e3e8aa59d38d73b124730306afeb1aec8f08fd76b", "time": 1231788910, "bits": 486604799, "next_block": ["000000005fae7d3d06fc898ccdc1d9435b917dd2db63ecf0a0bc2b3f4210b831"], "fee": 0, "nonce": 2553069568, "n_tx": 1, "size": 216, "block_index": 246, "main_chain": true, "height": 246, "weight": 864, "tx": [{"hash": "6f80ca7441710cf0942cf99e3e8aa59d38d73b124730306afeb1aec8f08fd76b", "ver": 1, "vin_sz": 1, "vout_sz": 1, "size": 135, "weight": 540, "fee": 0, "relayed_by": "0.0.0.0", "lock_time": 0, "tx_index": 3794354466002390, "double_spend": false, "time": 1231788910, "block_index": 246, "block_height": 246, "inputs": [{"sequence": 4294967295, "witness": "", "script": "04ffff001d020001", "index": 0, "prev_out": null}], "out": [{"type": 0, "spent": false, "value": 5000000000, "spending_outpoints": [], "n": 0, "tx_index": 3794354466002390, "script": "41049c2e002ba8107d67f7f9c2cad063a4a8a7f23e171c9a6b364b73ceb84ad192e61f09df6b5d073e9f9046c5627669142e4cefa3f186d4aae9f52d6f1709ce41f8ac", "addr": "1J9HkGKPDd7ek9DA1V4NDEma1F1h7vHi8u"}], "hex": "01000000010000000000000000000000000000000000000000000000000000000000000000ffffffff0804ffff001d020001ffffffff0100f2052a010000004341049c2e002ba8107d67f7f9c2cad063a4a8a7f23e171c9a6b364b73ceb84ad192e61f09df6b5d073e9f9046c5627669142e4cefa3f186d4aae9f52d6f1709ce41f8ac00000000"}]}