{"hash": "000000005fae7d3d06fc898ccdc1d9435b917dd2db63ecf0a0bc2b3f4210b831", "ver": 1, "prev_block": "00000000ccc62f72d2e8e34c750d9ab72b6f2557d3b249b619d3e7f1860f1a32", "mrkl_root": "5f7694d702a9cf2ea6d3f0ddda1a4c488c507709b5440ab5a7aed4a74f4e5401", "time": 1231789563, "bits": 486604799, "next_block": ["00000000fb5b44edc7a1aa105075564a179d65506e2bd25f55f1629251d0f6b0"], "fee": 0, "nonce": 2121910810, "n_tx": 1, "size": 216, "block_index": 247, "main_chain": true, "height": 247, "weight": 864, "tx": [{"hash": "5f7694d702a9cf2ea6d3f0ddda1a4c488c507709b5440ab5a7aed4a74f4e5401", "ver": 1, "vin_sz": 1, "vout_sz": 1, "size": 135, "weight": 540, "fee": 0, "relayed_by": "0.0.0.0", "lock_time": 0, "tx_index": 46771287161493, "double_spend": false, "time": 1231789563, "block_index": 247, "block_height": 247, "inputs": [{"sequence": 4294967295, "witness": "", "script": "04ffff001d020501", "index": 0, "prev_out": null}], "out": [{"type": 0, "spent": false, "value": 5000000000, "spending_outpoints": [], "n": 0, "tx_index": 46771287161493, "script": "410474f197b0b43d284cc13cdf60d46f7e5a5fd2db8b6b0c4e21040c1b0207790c67b67245a494bff78e0a0fe8467622b4d704e7da650ad3af39071d3ffb315959f0ac", "addr": "14pBXdFvEaPy6t4gbnrrQWu86ZYPTivEx3"}], "hex": "01000000010000000000000000000000000000000000000000000000000000000000000000ffffffff0804ffff001d020501ffffffff0100f2052a0100000043410474f197b0b43d284cc13cdf60d46f7e5a5fd2db8b6b0c4e21040c1b0207790c67b67245a494bff78e0a0fe8467622b4d704e7da650ad3af39071d3ffb315959f0ac00000000"}]}