{"hash": "00000000fb5b44edc7a1aa105075564a179d65506e2bd25f55f1629251d0f6b0", "ver": 1, "prev_block": "000000005fae7d3d06fc898ccdc1d9435b917dd2db63ecf0a0bc2b3f4210b831", "mrkl_root": "ae64c2dea1d5ccd2a156dc0cb0c6ac66d9726d573d63962df61412145232c100", "time": 1231790660, "bits": 486604799, "next_block": ["000000001a483a866ad69445e03a31db4ed5a9ea3f1cfec388fc18092f242155"], "fee": 0, "nonce": 3552595225, "n_tx": 2, "size": 492, "block_index": 248, "main_chain": true, "height": 248, "weight": 1968, "tx": [{"hash": "cf7bddc54f693c94a852a93e80ce971358d47b478929772b60cd84a41e0b3451", "ver": 1, "vin_sz": 1, "vout_sz": 1, "size": 135, "weight": 540, "fee": 0, "relayed_by": "0.0.0.0", "lock_time": 0, "tx_index": 2857086934618265, "double_spend": false, "time": 1231790660, "block_index": 248, "block_height": 248, "inputs": [{"sequence": 4294967295, "witness": "", "script": "04ffff001d020a01", "index": 0, "prev_out": null}], "out": [{"type": 0, "spent": false, "value": 5000000000, "spending_outpoints": [], "n": 0, "tx_index": 2857086934618265, "script": "4104bd3265658992c717ffe9e3db0707ff7880821efead40454751e6be1a8c4d28829a99001d8b4b024e64d6f6b6da18a3c0ac74df4eae33ec8dc360ed320acba233ac", "addr": "16NEqTQenDpSAn18utw6sYD631Cq9znZf7"}], "hex": "01000000010000000000000000000000000000000000000000000000000000000000000000ffffffff0804ffff001d020a01ffffffff0100f2052a01000000434104bd3265658992c717ffe9e3db0707ff7880821efead40454751e6be1a8c4d28829a99001d8b4b024e64d6f6b6da18a3c0ac74df4eae33ec8dc360ed320acba233ac00000000"}, {"hash": "828ef3b079f9c23829c56fe86e85b4a69d9e06e5b54ea597eef5fb3ffef509fe", "ver": 1, "vin_sz": 1, "vout_sz": 2, "size": 276, "weight": 1104, "fee": 0, "relayed_by": "0.0.0.0", "lock_time": 0, "tx_index": 8938199527718782, "double_spend": false, "time": 1231790660, "block_index": 248, "block_height": 248, "inputs": [{"sequence": 4294967295, "witness": "", "script": "483045022100c12a7d54972f26d14cb311339b5122f8c187417dde1e8efb6841f55c34220ae0022066632c5cd4161efa3a2837764eee9eb84975dd54c2de2865e9752585c53e7cce01", "index": 0, "prev_out": {"spent": true, "script": "410411db93e1dcdb8a016b49840f8c53bc1eb68a382e97b1482ecad7b148a6909a5cb2e0eaddfb84ccf9744464f82e160bfa9b8b64f9d4c03f999b8643f656b412a3ac", "spending_outpoints": [{"tx_index": 8938199527718782, "n": 0}], "tx_index": 6564325921434451, "value": 2800000000, "addr": "12cbQLTFMXRnSzktFkuoG3eHoMeFtpTu3S", "n": 1, "type": 0}}], "out": [{"type": 0, "spent": true, "value": 1000000000, "spending_outpoints": [{"tx_index": 1816063685936491, "n": 2}], "n": 0, "tx_index": 8938199527718782, "script": "4104bed827d37474beffb37efe533701ac1f7c600957a4487be8b371346f016826ee6f57ba30d88a472a0e4ecd2f07599a795f1f01de78d791b382e65ee1c58b4508ac", "addr": "1ByLSV2gLRcuqUmfdYcpPQH8Npm8cccsFg"}, {"type": 0, "spent": false, "value": 1800000000, "spending_outpoints": [], "n": 1, "tx_index": 8938199527718782, "script": "410411db93e1dcdb8a016b49840f8c53bc1eb68a382e97b1482ecad7b148a6909a5cb2e0eaddfb84ccf9744464f82e160bfa9b8b64f9d4c03f999b8643f656b412a3ac", "addr": "12cbQLTFMXRnSzktFkuoG3eHoMeFtpTu3S"}], "hex": "0100000001ba91c1d5e55a9e2fab4e41f55b862a73b24719aad13a527d169c1fad3b63b5120100000049483045022100c12a7d54972f26d14cb311339b5122f8c187417dde1e8efb6841f55c34220ae0022066632c5cd4161efa3a2837764eee9eb84975dd54c2de2865e9752585c53e7cce01ffffffff0200ca9a3b00000000434104bed827d37474beffb37efe533701ac1f7c600957a4487be8b371346f016826ee6f57ba30d88a472a0e4ecd2f07599a795f1f01de78d791b382e65ee1c58b4508ac00d2496b0000000043410411db93e1dcdb8a016b49840f8c53bc1eb68a382e97b1482ecad7b148a6909a5cb2e0eaddfb84ccf9744464f82e160bfa9b8b64f9d4c03f999b8643f656b412a3ac00000000"}]}