{"hash": "000000001a483a866ad69445e03a31db4ed5a9ea3f1cfec388fc18092f242155", "ver": 1, "prev_block": "00000000fb5b44edc7a1aa105075564a179d65506e2bd25f55f1629251d0f6b0", "mrkl_root": "b415569ce5c39e7397dbea33c02eb9c632cb22ed771b20be5bf0fd0e0256897d", "time": 1231791095, "bits": 486604799, "next_block": ["000000004e833644bc7fb021abd3da831c64ec82bae73042cfa63923d47d3303"], "fee": 0, "nonce": 2215285783, "n_tx": 1, "size": 216, "block_index": 249, "main_chain": true, "height": 249, "weight": 864, "tx": [{"hash": "b415569ce5c39e7397dbea33c02eb9c632cb22ed771b20be5bf0fd0e0256897d", "ver": 1, "vin_sz": 1, "vout_sz": 1, "size": 135, "weight": 540, "fee": 0, "relayed_by": "0.0.0.0", "lock_time": 0, "tx_index": 4416921822945214, "double_spend": false, "time": 1231791095, "block_index": 249, "block_height": 249, "inputs": [{"sequence": 4294967295, "witness": "", "script": "04ffff001d021501", "index": 0, "prev_out": null}], "out": [{"type": 0, "spent": false, "value": 5000000000, "spending_outpoints": [], "n": 0, "tx_index": 4416921822945214, "script": "4104cf28e086fa36ef2f5961a207725020bc8eccfdcba23099d7dc12ac161ee6e7374fe9990d944dcea987db56490c75836b227287ab076ebf06f804e7cb56bb7534ac", "addr": "1PLgv319qXvnmiCAL3pH1dydVQSwrr2F5W"}], "hex": "01000000010000000000000000000000000000000000000000000000000000000000000000ffffffff0804ffff001d021501ffffffff0100f2052a01000000434104cf28e086fa36ef2f5961a207725020bc8eccfdcba23099d7dc12ac161ee6e7374fe9990d944dcea987db56490c75836b227287ab076ebf06f804e7cb56bb7534ac00000000"}]}