{"hash": "000000008e35a1d59ea1be8d76683662f47fd13c62a9e347ad5845a26f762026", "ver": 1, "prev_block": "00000000fc051fbbce89a487e811a5d4319d209785ea4f4b27fc83770d1e415f", "mrkl_root": "9b0f52332d7d013b49016416c4818b5abb80b01ca526b7b813830348ad2321be", "time": 1231568646, "bits": 486604799, "next_block": ["0000000041438e52d25bccab8798a92cabafdaad69a071d3d2a41718faf01098"], "fee": 0, "nonce": 837891875, "n_tx": 1, "size": 215, "block_index": 25, "main_chain": true, "height": 25, "weight": 860, "tx": [{"hash": "9b0f52332d7d013b49016416c4818b5abb80b01ca526b7b813830348ad2321be", "ver": 1, "vin_sz": 1, "vout_sz": 1, "size": 134, "weight": 536, "fee": 0, "relayed_by": "0.0.0.0", "lock_time": 0, "tx_index": 6689585336221808, "double_spend": false, "time": 1231568646, "block_index": 25, "block_height": 25, "inputs": [{"sequence": 4294967295, "witness": "", "script": "04ffff001d0141", "index": 0, "prev_out": null}], "out": [{"type": 0, "spent": false, "value": 5000000000, "spending_outpoints": [], "n": 0, "tx_index": 6689585336221808, "script": "4104bff063a080c07aa9d8e7038c9d1bd7e5076fc28dd3e905b76517ad958e9df65e83abefcdbdcd7310231aaaf16a53e9bc24598826a3291e5dab338675618e7f12ac", "addr": "15VF3MsCzjHmFQ3wK3SMrTEBTmFY8zhJnU"}], "hex": "01000000010000000000000000000000000000000000000000000000000000000000000000ffffffff0704ffff001d0141ffffffff0100f2052a01000000434104bff063a080c07aa9d8e7038c9d1bd7e5076fc28dd3e905b76517ad958e9df65e83abefcdbdcd7310231aaaf16a53e9bc24598826a3291e5dab338675618e7f12ac00000000"}]}