{"hash": "000000004e833644bc7fb021abd3da831c64ec82bae73042cfa63923d47d3303", "ver": 1, "prev_block": "000000001a483a866ad69445e03a31db4ed5a9ea3f1cfec388fc18092f242155", "mrkl_root": "d4f94674f0e13387b84e8b3d877e9c458bf00f170a2707ce5fc202084c5d2d0e", "time": 1231792456, "bits": 486604799, "next_block": ["00000000eddf09d9b36274faf45b4b4629a28266ff952a69d554c1ed0b988dff"], "fee": 0, "nonce": 3264821810, "n_tx": 1, "size": 216, "block_index": 250, "main_chain": true, "height": 250, "weight": 864, "tx": [{"hash": "d4f94674f0e13387b84e8b3d877e9c458bf00f170a2707ce5fc202084c5d2d0e", "ver": 1, "vin_sz": 1, "vout_sz": 1, "size": 135, "weight": 540, "fee": 0, "relayed_by": "0.0.0.0", "lock_time": 0, "tx_index": 498816050593880, "double_spend": false, "time": 1231792456, "block_index": 250, "block_height": 250, "inputs": [{"sequence": 4294967295, "witness": "", "script": "04ffff001d021701", "index": 0, "prev_out": null}], "out": [{"type": 0, "spent": false, "value": 5000000000, "spending_outpoints": [], "n": 0, "tx_index": 498816050593880, "script": "4104066881c5e8aecf0f7db7254d105add6937feee5354922d3d74cbac744ffbed3351e218fc515f497f3f0d07daed5fe4ee6f250b05b8e7b2e6b320c88d337d855cac", "addr": "13iDhZNq6ejzR4GcRZo8F9A9oYR4GgXV3q"}], "hex": "01000000010000000000000000000000000000000000000000000000000000000000000000ffffffff0804ffff001d021701ffffffff0100f2052a01000000434104066881c5e8aecf0f7db7254d105add6937feee5354922d3d74cbac744ffbed3351e218fc515f497f3f0d07daed5fe4ee6f250b05b8e7b2e6b320c88d337d855cac00000000"}]}