{"hash": "00000000eddf09d9b36274faf45b4b4629a28266ff952a69d554c1ed0b988dff", "ver": 1, "prev_block": "000000004e833644bc7fb021abd3da831c64ec82bae73042cfa63923d47d3303", "mrkl_root": "ee36d141029ce5c0583c1d78b51d703b6da87279219d1fcf2e3cb21ca35f361c", "time": 1231793759, "bits": 486604799, "next_block": ["00000000c8fd8e47245760fc2d164013cf60b6b73a5f3ed9ed21c5c1289e65aa"], "fee": 0, "nonce": 3589524243, "n_tx": 1, "size": 216, "block_index": 251, "main_chain": true, "height": 251, "weight": 864, "tx": [{"hash": "ee36d141029ce5c0583c1d78b51d703b6da87279219d1fcf2e3cb21ca35f361c", "ver": 1, "vin_sz": 1, "vout_sz": 1, "size": 135, "weight": 540, "fee": 0, "relayed_by": "0.0.0.0", "lock_time": 0, "tx_index": 992635466782279, "double_spend": false, "time": 1231793759, "block_index": 251, "block_height": 251, "inputs": [{"sequence": 4294967295, "witness": "", "script": "04ffff001d021901", "index": 0, "prev_out": null}], "out": [{"type": 0, "spent": false, "value": 5000000000, "spending_outpoints": [], "n": 0, "tx_index": 992635466782279, "script": "41048d7229028f33da6a87be8ddee0ed9f385cf5312480405af7e3ffd8f8d93c1a348bb0a018c69bc5a5d21679b3af3242b21ceca31da829efbc242846912b006508ac", "addr": "1CQrDCsUkuvB5SUa9G2eAc8xqYZeK68x7j"}], "hex": "01000000010000000000000000000000000000000000000000000000000000000000000000ffffffff0804ffff001d021901ffffffff0100f2052a010000004341048d7229028f33da6a87be8ddee0ed9f385cf5312480405af7e3ffd8f8d93c1a348bb0a018c69bc5a5d21679b3af3242b21ceca31da829efbc242846912b006508ac00000000"}]}