{"hash": "00000000c8fd8e47245760fc2d164013cf60b6b73a5f3ed9ed21c5c1289e65aa", "ver": 1, "prev_block": "00000000eddf09d9b36274faf45b4b4629a28266ff952a69d554c1ed0b988dff", "mrkl_root": "242aaea6008ac8c852d6b785748cc46c8dfe1578d94a411fac3c5bd714b4838a", "time": 1231795114, "bits": 486604799, "next_block": ["00000000d1c33e314501b8e8ad742afe030dd2eb8ac41affa0149ccc702f440b"], "fee": 0, "nonce": 2644663328, "n_tx": 1, "size": 216, "block_index": 252, "main_chain": true, "height": 252, "weight": 864, "tx": [{"hash": "242aaea6008ac8c852d6b785748cc46c8dfe1578d94a411fac3c5bd714b4838a", "ver": 1, "vin_sz": 1, "vout_sz": 1, "size": 135, "weight": 540, "fee": 0, "relayed_by": "0.0.0.0", "lock_time": 0, "tx_index": 4873544531635047, "double_spend": false, "time": 1231795114, "block_index": 252, "block_height": 252, "inputs": [{"sequence": 4294967295, "witness": "", "script": "04ffff001d021e01", "index": 0, "prev_out": null}], "out": [{"type": 0, "spent": false, "value": 5000000000, "spending_outpoints": [], "n": 0, "tx_index": 4873544531635047, "script": "4104eb686f9436f4dec3ecd94fecdea9c52a3ad9fa97a572ba37cdc7778b7725df4dac6a4b3ee9589660d8dab09b3305ff0e4d5464e26cb4cc2a85cbfb2900ee31b2ac", "addr": "1MTKWKTfG1Gxc1sH955eob7kp5cQ3CcexB"}], "hex": "01000000010000000000000000000000000000000000000000000000000000000000000000ffffffff0804ffff001d021e01ffffffff0100f2052a01000000434104eb686f9436f4dec3ecd94fecdea9c52a3ad9fa97a572ba37cdc7778b7725df4dac6a4b3ee9589660d8dab09b3305ff0e4d5464e26cb4cc2a85cbfb2900ee31b2ac00000000"}]}