{"hash": "00000000d1c33e314501b8e8ad742afe030dd2eb8ac41affa0149ccc702f440b", "ver": 1, "prev_block": "00000000c8fd8e47245760fc2d164013cf60b6b73a5f3ed9ed21c5c1289e65aa", "mrkl_root": "658ccc93eb264b6df511e8ade85712e353ddea5e0cfba4658d9836e111f8996d", "time": 1231795882, "bits": 486604799, "next_block": ["0000000065c3ca6a832e4dd696185c2e6bf1e982b275ce6fb86df555f71a379c"], "fee": 0, "nonce": 3084759603, "n_tx": 1, "size": 216, "block_index": 253, "main_chain": true, "height": 253, "weight": 864, "tx": [{"hash": "658ccc93eb264b6df511e8ade85712e353ddea5e0cfba4658d9836e111f8996d", "ver": 1, "vin_sz": 1, "vout_sz": 1, "size": 135, "weight": 540, "fee": 0, "relayed_by": "0.0.0.0", "lock_time": 0, "tx_index": 3856257899046611, "double_spend": false, "time": 1231795882, "block_index": 253, "block_height": 253, "inputs": [{"sequence": 4294967295, "witness": "", "script": "04ffff001d022201", "index": 0, "prev_out": null}], "out": [{"type": 0, "spent": false, "value": 5000000000, "spending_outpoints": [], "n": 0, "tx_index": 3856257899046611, "script": "4104e2e06efa7bde0d6e183c881b3bb8f764ff18927262ef130eb3bce0097c91b5ad49ca1f8e47f274a3bd2b9d2cbf0523bd1bd4687d167256a55adea01badddf995ac", "addr": "1Hr9AYxjsDUTuq8d1c6tCbVpYWBCvHUupm"}], "hex": "01000000010000000000000000000000000000000000000000000000000000000000000000ffffffff0804ffff001d022201ffffffff0100f2052a01000000434104e2e06efa7bde0d6e183c881b3bb8f764ff18927262ef130eb3bce0097c91b5ad49ca1f8e47f274a3bd2b9d2cbf0523bd1bd4687d167256a55adea01badddf995ac00000000"}]}