{"hash": "0000000065c3ca6a832e4dd696185c2e6bf1e982b275ce6fb86df555f71a379c", "ver": 1, "prev_block": "00000000d1c33e314501b8e8ad742afe030dd2eb8ac41affa0149ccc702f440b", "mrkl_root": "3949d0ae1e01cce3b6073389b628a320eabf93cbc34afebbea1315a397403b50", "time": 1231796561, "bits": 486604799, "next_block": ["00000000d0a75c861fabf9ff7b92022f60e4afeed9331fe5aa073d8e4706fe3c"], "fee": 0, "nonce": 1094333482, "n_tx": 1, "size": 216, "block_index": 254, "main_chain": true, "height": 254, "weight": 864, "tx": [{"hash": "3949d0ae1e01cce3b6073389b628a320eabf93cbc34afebbea1315a397403b50", "ver": 1, "vin_sz": 1, "vout_sz": 1, "size": 135, "weight": 540, "fee": 0, "relayed_by": "0.0.0.0", "lock_time": 0, "tx_index": 2822893343105698, "double_spend": false, "time": 1231796561, "block_index": 254, "block_height": 254, "inputs": [{"sequence": 4294967295, "witness": "", "script": "04ffff001d022901", "index": 0, "prev_out": null}], "out": [{"type": 0, "spent": false, "value": 5000000000, "spending_outpoints": [], "n": 0, "tx_index": 2822893343105698, "script": "4104aa8586521d66633ffd4335031b123102e1cb05d12bae1ad1c300c30134a95c6eb81433be13e2e23f89d3b367abb22b537fe5934df6180a102c05e00a23feeb06ac", "addr": "17uiEVD2d9U33YzfYJ2vZ9BrUhmMYVnK8M"}], "hex": "01000000010000000000000000000000000000000000000000000000000000000000000000ffffffff0804ffff001d022901ffffffff0100f2052a01000000434104aa8586521d66633ffd4335031b123102e1cb05d12bae1ad1c300c30134a95c6eb81433be13e2e23f89d3b367abb22b537fe5934df6180a102c05e00a23feeb06ac00000000"}]}