{"hash": "00000000d0a75c861fabf9ff7b92022f60e4afeed9331fe5aa073d8e4706fe3c", "ver": 1, "prev_block": "0000000065c3ca6a832e4dd696185c2e6bf1e982b275ce6fb86df555f71a379c", "mrkl_root": "4309bfeed77a70f309da08bcf8948906b9cc26120c0b0ef86e0ac67284bbd79e", "time": 1231797290, "bits": 486604799, "next_block": ["0000000092b1d848c608c64f9f764623432855007593e596258bb40daffa8fe7"], "fee": 0, "nonce": 1861718836, "n_tx": 1, "size": 216, "block_index": 255, "main_chain": true, "height": 255, "weight": 864, "tx": [{"hash": "4309bfeed77a70f309da08bcf8948906b9cc26120c0b0ef86e0ac67284bbd79e", "ver": 1, "vin_sz": 1, "vout_sz": 1, "size": 135, "weight": 540, "fee": 0, "relayed_by": "0.0.0.0", "lock_time": 0, "tx_index": 5588780837656769, "double_spend": false, "time": 1231797290, "block_index": 255, "block_height": 255, "inputs": [{"sequence": 4294967295, "witness": "", "script": "04ffff001d023001", "index": 0, "prev_out": null}], "out": [{"type": 0, "spent": false, "value": 5000000000, "spending_outpoints": [], "n": 0, "tx_index": 5588780837656769, "script": "4104f5b542d4bf77ee2bc434a031554e73389593406bd44b5e9dfcf440536e00431fa62ffc5b2786777e0d8e50801e1f337776565a16e1ae0c81b6754df6d7cac17bac", "addr": "1N8Q8bSJPLkoZUkdREsQA1dGsHTPrQ9X3j"}], "hex": "01000000010000000000000000000000000000000000000000000000000000000000000000ffffffff0804ffff001d023001ffffffff0100f2052a01000000434104f5b542d4bf77ee2bc434a031554e73389593406bd44b5e9dfcf440536e00431fa62ffc5b2786777e0d8e50801e1f337776565a16e1ae0c81b6754df6d7cac17bac00000000"}]}