{"hash": "0000000092b1d848c608c64f9f764623432855007593e596258bb40daffa8fe7", "ver": 1, "prev_block": "00000000d0a75c861fabf9ff7b92022f60e4afeed9331fe5aa073d8e4706fe3c", "mrkl_root": "12b2f144a461e73183571a52332fa727e7b76ee49e212e0695446b7ac78cd3e8", "time": 1231798073, "bits": 486604799, "next_block": ["00000000613da6433c0f6c61d8bcb17c39603dd4a8595142359905b18b84edcd"], "fee": 0, "nonce": 569014838, "n_tx": 1, "size": 216, "block_index": 256, "main_chain": true, "height": 256, "weight": 864, "tx": [{"hash": "12b2f144a461e73183571a52332fa727e7b76ee49e212e0695446b7ac78cd3e8", "ver": 1, "vin_sz": 1, "vout_sz": 1, "size": 135, "weight": 540, "fee": 0, "relayed_by": "0.0.0.0", "lock_time": 0, "tx_index": 8191849524055400, "double_spend": false, "time": 1231798073, "block_index": 256, "block_height": 256, "inputs": [{"sequence": 4294967295, "witness": "", "script": "04ffff001d023201", "index": 0, "prev_out": null}], "out": [{"type": 0, "spent": false, "value": 5000000000, "spending_outpoints": [], "n": 0, "tx_index": 8191849524055400, "script": "4104d9dccb46ed1fc106395078840aef11b5152eae172d322db332a6ec00dcaf4606884b07083bbd8785e6e402dd292f1638261278050137dd3a2b1c9d5e645fde67ac", "addr": "1BwV17G9AyRuPocPeonRTx7VdCAXga43rn"}], "hex": "01000000010000000000000000000000000000000000000000000000000000000000000000ffffffff0804ffff001d023201ffffffff0100f2052a01000000434104d9dccb46ed1fc106395078840aef11b5152eae172d322db332a6ec00dcaf4606884b07083bbd8785e6e402dd292f1638261278050137dd3a2b1c9d5e645fde67ac00000000"}]}