{"hash": "00000000613da6433c0f6c61d8bcb17c39603dd4a8595142359905b18b84edcd", "ver": 1, "prev_block": "0000000092b1d848c608c64f9f764623432855007593e596258bb40daffa8fe7", "mrkl_root": "214cf5e003c073e162120b143f84b5552816fc27248205533f00b7e5042f2737", "time": 1231799163, "bits": 486604799, "next_block": ["000000001a748e1c97226c59b9ddf79a54e0857116808a1b5610a52aef4ed5b5"], "fee": 0, "nonce": 3714811674, "n_tx": 1, "size": 216, "block_index": 257, "main_chain": true, "height": 257, "weight": 864, "tx": [{"hash": "214cf5e003c073e162120b143f84b5552816fc27248205533f00b7e5042f2737", "ver": 1, "vin_sz": 1, "vout_sz": 1, "size": 135, "weight": 540, "fee": 0, "relayed_by": "0.0.0.0", "lock_time": 0, "tx_index": 1940525827274464, "double_spend": false, "time": 1231799163, "block_index": 257, "block_height": 257, "inputs": [{"sequence": 4294967295, "witness": "", "script": "04ffff001d023601", "index": 0, "prev_out": null}], "out": [{"type": 0, "spent": false, "value": 5000000000, "spending_outpoints": [], "n": 0, "tx_index": 1940525827274464, "script": "4104e633633ec2315d752bb0aa34d84a8a718bd7eb05ca8ea462d88c7a255813f85b8eaaba6fe1ee43886eb1b4ff7ba47535d9abcb0398ab41e46dd68f2baee9cd3cac", "addr": "1PWPk2buWhozxYUE3vnb7MnobjCMkEmagU"}], "hex": "01000000010000000000000000000000000000000000000000000000000000000000000000ffffffff0804ffff001d023601ffffffff0100f2052a01000000434104e633633ec2315d752bb0aa34d84a8a718bd7eb05ca8ea462d88c7a255813f85b8eaaba6fe1ee43886eb1b4ff7ba47535d9abcb0398ab41e46dd68f2baee9cd3cac00000000"}]}