{"hash": "000000001a748e1c97226c59b9ddf79a54e0857116808a1b5610a52aef4ed5b5", "ver": 1, "prev_block": "00000000613da6433c0f6c61d8bcb17c39603dd4a8595142359905b18b84edcd", "mrkl_root": "b8bcf3466dca324bca7f3a81e992a14afcce310adc290e786aa7ec78b89b8f19", "time": 1231800349, "bits": 486604799, "next_block": ["00000000054c9ef1411c5a90efe18651625620737bd73e61e33ca5046907efd1"], "fee": 0, "nonce": 320395568, "n_tx": 1, "size": 216, "block_index": 258, "main_chain": true, "height": 258, "weight": 864, "tx": [{"hash": "b8bcf3466dca324bca7f3a81e992a14afcce310adc290e786aa7ec78b89b8f19", "ver": 1, "vin_sz": 1, "vout_sz": 1, "size": 135, "weight": 540, "fee": 0, "relayed_by": "0.0.0.0", "lock_time": 0, "tx_index": 899346674425236, "double_spend": false, "time": 1231800349, "block_index": 258, "block_height": 258, "inputs": [{"sequence": 4294967295, "witness": "", "script": "04ffff001d023d01", "index": 0, "prev_out": null}], "out": [{"type": 0, "spent": false, "value": 5000000000, "spending_outpoints": [], "n": 0, "tx_index": 899346674425236, "script": "410405e30c26088b6f8ad6f45773646b4cdc5cc2dc26dcab9aa436286e9547b9127cd436f8a81116d6033397f266761f66ebfa7b532e95142389f00c430cc533e1e6ac", "addr": "1KyUEsMMKw6MNW8RZKehJpyKNyS8ZmXerX"}], "hex": "01000000010000000000000000000000000000000000000000000000000000000000000000ffffffff0804ffff001d023d01ffffffff0100f2052a0100000043410405e30c26088b6f8ad6f45773646b4cdc5cc2dc26dcab9aa436286e9547b9127cd436f8a81116d6033397f266761f66ebfa7b532e95142389f00c430cc533e1e6ac00000000"}]}