{"hash": "00000000054c9ef1411c5a90efe18651625620737bd73e61e33ca5046907efd1", "ver": 1, "prev_block": "000000001a748e1c97226c59b9ddf79a54e0857116808a1b5610a52aef4ed5b5", "mrkl_root": "d776eb69b1729316753621f55d83fd1d29964dcad0a9443bb6c2a5349e28e345", "time": 1231801541, "bits": 486604799, "next_block": ["0000000032501f50fe47fd32d16bc632c04170255d407b7d15652c32d119397f"], "fee": 0, "nonce": 1076708902, "n_tx": 1, "size": 216, "block_index": 259, "main_chain": true, "height": 259, "weight": 864, "tx": [{"hash": "d776eb69b1729316753621f55d83fd1d29964dcad0a9443bb6c2a5349e28e345", "ver": 1, "vin_sz": 1, "vout_sz": 1, "size": 135, "weight": 540, "fee": 0, "relayed_by": "0.0.0.0", "lock_time": 0, "tx_index": 2458942123185336, "double_spend": false, "time": 1231801541, "block_index": 259, "block_height": 259, "inputs": [{"sequence": 4294967295, "witness": "", "script": "04ffff001d024e01", "index": 0, "prev_out": null}], "out": [{"type": 0, "spent": false, "value": 5000000000, "spending_outpoints": [], "n": 0, "tx_index": 2458942123185336, "script": "41045f2732362dba9576f027e190ac95c438bf43d49c8ef225e7fe072b452fce37096cab2a74a24f2db86fcc7dc3ee147fa067853f2251a6dd9980275db96113c513ac", "addr": "1Mdioqy6kR75YvHhf7eqhTsRxoYfQfhbgn"}], "hex": "01000000010000000000000000000000000000000000000000000000000000000000000000ffffffff0804ffff001d024e01ffffffff0100f2052a010000004341045f2732362dba9576f027e190ac95c438bf43d49c8ef225e7fe072b452fce37096cab2a74a24f2db86fcc7dc3ee147fa067853f2251a6dd9980275db96113c513ac00000000"}]}