{"hash": "0000000041438e52d25bccab8798a92cabafdaad69a071d3d2a41718faf01098", "ver": 1, "prev_block": "000000008e35a1d59ea1be8d76683662f47fd13c62a9e347ad5845a26f762026", "mrkl_root": "67c1e8143bb6ad221a4ce77d6c8be68f2e25e0743f51b2db1a7b22bab59014dc", "time": 1231570450, "bits": 486604799, "next_block": ["0000000071350772f98f84babf35502b33d42ee8466d3dde0f376c4120352081"], "fee": 0, "nonce": 1555516980, "n_tx": 1, "size": 215, "block_index": 26, "main_chain": true, "height": 26, "weight": 860, "tx": [{"hash": "67c1e8143bb6ad221a4ce77d6c8be68f2e25e0743f51b2db1a7b22bab59014dc", "ver": 1, "vin_sz": 1, "vout_sz": 1, "size": 134, "weight": 536, "fee": 0, "relayed_by": "0.0.0.0", "lock_time": 0, "tx_index": 7743388329133135, "double_spend": false, "time": 1231570450, "block_index": 26, "block_height": 26, "inputs": [{"sequence": 4294967295, "witness": "", "script": "04ffff001d0105", "index": 0, "prev_out": null}], "out": [{"type": 0, "spent": false, "value": 5000000000, "spending_outpoints": [], "n": 0, "tx_index": 7743388329133135, "script": "41040baf81984793a57324f886d6a9a040513258dc310fd95e66955f9890d51a4efcc9d5bf69da30be69e16e426770b9927c18d0a06c610c6d7ebfbc6a59023a4ad0ac", "addr": "1KDnp5D9sEUNGFY2z4JiKhwfbm7zqYp4Bz"}], "hex": "01000000010000000000000000000000000000000000000000000000000000000000000000ffffffff0704ffff001d0105ffffffff0100f2052a010000004341040baf81984793a57324f886d6a9a040513258dc310fd95e66955f9890d51a4efcc9d5bf69da30be69e16e426770b9927c18d0a06c610c6d7ebfbc6a59023a4ad0ac00000000"}]}