{"hash": "0000000032501f50fe47fd32d16bc632c04170255d407b7d15652c32d119397f", "ver": 1, "prev_block": "00000000054c9ef1411c5a90efe18651625620737bd73e61e33ca5046907efd1", "mrkl_root": "4d8ff7ae5fc60f67069f0b4dd5da0d85ae9b64676c05cc01ffc500cf345b14f3", "time": 1231802728, "bits": 486604799, "next_block": ["00000000054aad44afc89e1f4e0ee9561568629273df16153e425a2eb9cbbcb9"], "fee": 0, "nonce": 51169568, "n_tx": 1, "size": 216, "block_index": 260, "main_chain": true, "height": 260, "weight": 864, "tx": [{"hash": "4d8ff7ae5fc60f67069f0b4dd5da0d85ae9b64676c05cc01ffc500cf345b14f3", "ver": 1, "vin_sz": 1, "vout_sz": 1, "size": 135, "weight": 540, "fee": 0, "relayed_by": "0.0.0.0", "lock_time": 0, "tx_index": 8552600162656280, "double_spend": false, "time": 1231802728, "block_index": 260, "block_height": 260, "inputs": [{"sequence": 4294967295, "witness": "", "script": "04ffff001d025601", "index": 0, "prev_out": null}], "out": [{"type": 0, "spent": false, "value": 5000000000, "spending_outpoints": [], "n": 0, "tx_index": 8552600162656280, "script": "4104381e11f6c847c7c6b9efe03c7de209b0e7256caeb2e46164f15722a16052f2c594d2ed6001ed27ed02f0e8c2ac29424cea035847a28a1e17f9471d175b614ea6ac", "addr": "13F1h7nLa4bgwgvjnRnBYh5cn1kpT4Mo2p"}], "hex": "01000000010000000000000000000000000000000000000000000000000000000000000000ffffffff0804ffff001d025601ffffffff0100f2052a01000000434104381e11f6c847c7c6b9efe03c7de209b0e7256caeb2e46164f15722a16052f2c594d2ed6001ed27ed02f0e8c2ac29424cea035847a28a1e17f9471d175b614ea6ac00000000"}]}