{"hash": "00000000054aad44afc89e1f4e0ee9561568629273df16153e425a2eb9cbbcb9", "ver": 1, "prev_block": "0000000032501f50fe47fd32d16bc632c04170255d407b7d15652c32d119397f", "mrkl_root": "fa015e93b37ffe1314bcd6d821fca951978138ee5f417ab1a460ddf34b1943f5", "time": 1231803223, "bits": 486604799, "next_block": ["0000000062e646293e5f21e2ef1e2099b048cfb58a81081d4e4035a4e19e47a8"], "fee": 0, "nonce": 1438666019, "n_tx": 1, "size": 216, "block_index": 261, "main_chain": true, "height": 261, "weight": 864, "tx": [{"hash": "fa015e93b37ffe1314bcd6d821fca951978138ee5f417ab1a460ddf34b1943f5", "ver": 1, "vin_sz": 1, "vout_sz": 1, "size": 135, "weight": 540, "fee": 0, "relayed_by": "0.0.0.0", "lock_time": 0, "tx_index": 8629393152703404, "double_spend": false, "time": 1231803223, "block_index": 261, "block_height": 261, "inputs": [{"sequence": 4294967295, "witness": "", "script": "04ffff001d025801", "index": 0, "prev_out": null}], "out": [{"type": 0, "spent": false, "value": 5000000000, "spending_outpoints": [], "n": 0, "tx_index": 8629393152703404, "script": "4104c03099311f6abeea03d4fa1a281c5f83f46590658bb5e6531f231ca8f4dc1238b45e0ef31ed08ca5176a904c1cf02e31694925ae3f9f112efb5117d0edc83bc4ac", "addr": "14kbZs9yn2k5r6R5Tkf6gDKp3b3MDu1eGk"}], "hex": "01000000010000000000000000000000000000000000000000000000000000000000000000ffffffff0804ffff001d025801ffffffff0100f2052a01000000434104c03099311f6abeea03d4fa1a281c5f83f46590658bb5e6531f231ca8f4dc1238b45e0ef31ed08ca5176a904c1cf02e31694925ae3f9f112efb5117d0edc83bc4ac00000000"}]}