{"hash": "0000000062e646293e5f21e2ef1e2099b048cfb58a81081d4e4035a4e19e47a8", "ver": 1, "prev_block": "00000000054aad44afc89e1f4e0ee9561568629273df16153e425a2eb9cbbcb9", "mrkl_root": "8a1289e68161330fdc167aedb8ff464b537d2ed1fcd40bdc6a264694b66581a1", "time": 1231803947, "bits": 486604799, "next_block": ["00000000803cec62b96ccbb70affe0f05f351ada18d14a16960783aeafe0d8fc"], "fee": 0, "nonce": 3334731318, "n_tx": 1, "size": 216, "block_index": 262, "main_chain": true, "height": 262, "weight": 864, "tx": [{"hash": "8a1289e68161330fdc167aedb8ff464b537d2ed1fcd40bdc6a264694b66581a1", "ver": 1, "vin_sz": 1, "vout_sz": 1, "size": 135, "weight": 540, "fee": 0, "relayed_by": "0.0.0.0", "lock_time": 0, "tx_index": 5682468138158276, "double_spend": false, "time": 1231803947, "block_index": 262, "block_height": 262, "inputs": [{"sequence": 4294967295, "witness": "", "script": "04ffff001d025d01", "index": 0, "prev_out": null}], "out": [{"type": 0, "spent": false, "value": 5000000000, "spending_outpoints": [], "n": 0, "tx_index": 5682468138158276, "script": "410406cfa37f85cb22da282bef2517b1222e0de7f95850a9f68e78bb230d7d01ec52368e10fd7b164d1f44be41c141d79937ebd04b7b0289b02a26136ccb1f211adeac", "addr": "1FUgiNk7jjSeNaA3KCoYmdXdhcd7CWrjGh"}], "hex": "01000000010000000000000000000000000000000000000000000000000000000000000000ffffffff0804ffff001d025d01ffffffff0100f2052a0100000043410406cfa37f85cb22da282bef2517b1222e0de7f95850a9f68e78bb230d7d01ec52368e10fd7b164d1f44be41c141d79937ebd04b7b0289b02a26136ccb1f211adeac00000000"}]}