{"hash": "00000000803cec62b96ccbb70affe0f05f351ada18d14a16960783aeafe0d8fc", "ver": 1, "prev_block": "0000000062e646293e5f21e2ef1e2099b048cfb58a81081d4e4035a4e19e47a8", "mrkl_root": "2b361348f1b00810ae521de7912a199d4e184a03b389892d3a89ad021eb9322c", "time": 1231805421, "bits": 486604799, "next_block": ["00000000641f9b99064bda263144a08761757b566357f49e95f516b0b5a4b778"], "fee": 0, "nonce": 1088237061, "n_tx": 1, "size": 216, "block_index": 263, "main_chain": true, "height": 263, "weight": 864, "tx": [{"hash": "2b361348f1b00810ae521de7912a199d4e184a03b389892d3a89ad021eb9322c", "ver": 1, "vin_sz": 1, "vout_sz": 1, "size": 135, "weight": 540, "fee": 0, "relayed_by": "0.0.0.0", "lock_time": 0, "tx_index": 1555083703637425, "double_spend": false, "time": 1231805421, "block_index": 263, "block_height": 263, "inputs": [{"sequence": 4294967295, "witness": "", "script": "04ffff001d026201", "index": 0, "prev_out": null}], "out": [{"type": 0, "spent": false, "value": 5000000000, "spending_outpoints": [], "n": 0, "tx_index": 1555083703637425, "script": "4104189edf6376f8cd15e250eee131264ccc2ffa7a7b17894dfd11d95b7ddb6582266e0b36451eafb5463542b34e1debd4222333e8306d0be536d6e1944b4ac7949eac", "addr": "1NeBSpCzbNML5EZDBAgwT1BQQtMRe1c2Ui"}], "hex": "01000000010000000000000000000000000000000000000000000000000000000000000000ffffffff0804ffff001d026201ffffffff0100f2052a01000000434104189edf6376f8cd15e250eee131264ccc2ffa7a7b17894dfd11d95b7ddb6582266e0b36451eafb5463542b34e1debd4222333e8306d0be536d6e1944b4ac7949eac00000000"}]}