{"hash": "00000000641f9b99064bda263144a08761757b566357f49e95f516b0b5a4b778", "ver": 1, "prev_block": "00000000803cec62b96ccbb70affe0f05f351ada18d14a16960783aeafe0d8fc", "mrkl_root": "afb22d24e466012b7bf38b0cc46b48551d9cc0834875e122513c788b9a370c26", "time": 1231805980, "bits": 486604799, "next_block": ["000000001cd3ea335cdf6fbffe7fa954f761d16ff19893f04465916a3f5f5dc3"], "fee": 0, "nonce": 655303724, "n_tx": 1, "size": 216, "block_index": 264, "main_chain": true, "height": 264, "weight": 864, "tx": [{"hash": "afb22d24e466012b7bf38b0cc46b48551d9cc0834875e122513c788b9a370c26", "ver": 1, "vin_sz": 1, "vout_sz": 1, "size": 135, "weight": 540, "fee": 0, "relayed_by": "0.0.0.0", "lock_time": 0, "tx_index": 1338685258821383, "double_spend": false, "time": 1231805980, "block_index": 264, "block_height": 264, "inputs": [{"sequence": 4294967295, "witness": "", "script": "04ffff001d026901", "index": 0, "prev_out": null}], "out": [{"type": 0, "spent": false, "value": 5000000000, "spending_outpoints": [], "n": 0, "tx_index": 1338685258821383, "script": "41042ecd5eb8bf25555f4ee1276cf80031307f87d31f1ea928fede578fe2c33665f116239f256c131055b546743c523fc593be8b5631802eb5c5254046d8bca14788ac", "addr": "1CFBdvaiZgZPTZERqnezAtDQJuGHKoHSzg"}], "hex": "01000000010000000000000000000000000000000000000000000000000000000000000000ffffffff0804ffff001d026901ffffffff0100f2052a010000004341042ecd5eb8bf25555f4ee1276cf80031307f87d31f1ea928fede578fe2c33665f116239f256c131055b546743c523fc593be8b5631802eb5c5254046d8bca14788ac00000000"}]}