{"hash": "000000001cd3ea335cdf6fbffe7fa954f761d16ff19893f04465916a3f5f5dc3", "ver": 1, "prev_block": "00000000641f9b99064bda263144a08761757b566357f49e95f516b0b5a4b778", "mrkl_root": "3cbcfdf7fa3c6312ee0c38dc2263cdba176a0012ea818ef99f833115f363ab11", "time": 1231806051, "bits": 486604799, "next_block": ["0000000054de543828fb973ecf9302291426f1e99189b03c97f618f79eebf4b3"], "fee": 0, "nonce": 9678169, "n_tx": 1, "size": 215, "block_index": 265, "main_chain": true, "height": 265, "weight": 860, "tx": [{"hash": "3cbcfdf7fa3c6312ee0c38dc2263cdba176a0012ea818ef99f833115f363ab11", "ver": 1, "vin_sz": 1, "vout_sz": 1, "size": 134, "weight": 536, "fee": 0, "relayed_by": "0.0.0.0", "lock_time": 0, "tx_index": 621690046555696, "double_spend": false, "time": 1231806051, "block_index": 265, "block_height": 265, "inputs": [{"sequence": 4294967295, "witness": "", "script": "04ffff001d0124", "index": 0, "prev_out": null}], "out": [{"type": 0, "spent": false, "value": 5000000000, "spending_outpoints": [], "n": 0, "tx_index": 621690046555696, "script": "410462d178dd982f4fe3428cf6101ec138c5d42ac62b02ce8ce1cd1e2ff1e304c9a330009c64d7f30da61e7a5af9fd1d05a992477596512275657336403aa65f3885ac", "addr": "185ML6h3Ee3CmbXkXRsv9nK6uDbFubNJYv"}], "hex": "01000000010000000000000000000000000000000000000000000000000000000000000000ffffffff0704ffff001d0124ffffffff0100f2052a0100000043410462d178dd982f4fe3428cf6101ec138c5d42ac62b02ce8ce1cd1e2ff1e304c9a330009c64d7f30da61e7a5af9fd1d05a992477596512275657336403aa65f3885ac00000000"}]}