{"hash": "0000000054de543828fb973ecf9302291426f1e99189b03c97f618f79eebf4b3", "ver": 1, "prev_block": "000000001cd3ea335cdf6fbffe7fa954f761d16ff19893f04465916a3f5f5dc3", "mrkl_root": "06271e4f803593c477b084788e9d98bd5e3a17389a107de4e2f7ef37afc30010", "time": 1231806170, "bits": 486604799, "next_block": ["0000000007e162784d52a035bfebf67d0b73813c09e2e23e6710fa237b301f0f"], "fee": 0, "nonce": 38500562, "n_tx": 1, "size": 215, "block_index": 266, "main_chain": true, "height": 266, "weight": 860, "tx": [{"hash": "06271e4f803593c477b084788e9d98bd5e3a17389a107de4e2f7ef37afc30010", "ver": 1, "vin_sz": 1, "vout_sz": 1, "size": 134, "weight": 536, "fee": 0, "relayed_by": "0.0.0.0", "lock_time": 0, "tx_index": 563055010708990, "double_spend": false, "time": 1231806170, "block_index": 266, "block_height": 266, "inputs": [{"sequence": 4294967295, "witness": "", "script": "04ffff001d0125", "index": 0, "prev_out": null}], "out": [{"type": 0, "spent": false, "value": 5000000000, "spending_outpoints": [], "n": 0, "tx_index": 563055010708990, "script": "4104f891112435449a22336d9502173e87e6b20eac4aff8dc496658e97fa64d650d9186718bf180e41994e823f4c12cffc9524cfe64be1d5ccddf6a871678f892fa7ac", "addr": "1GFoQ9wGSgRkE2NYNnmyTufJUbPdKTuqcU"}], "hex": "01000000010000000000000000000000000000000000000000000000000000000000000000ffffffff0704ffff001d0125ffffffff0100f2052a01000000434104f891112435449a22336d9502173e87e6b20eac4aff8dc496658e97fa64d650d9186718bf180e41994e823f4c12cffc9524cfe64be1d5ccddf6a871678f892fa7ac00000000"}]}