{"hash": "0000000007e162784d52a035bfebf67d0b73813c09e2e23e6710fa237b301f0f", "ver": 1, "prev_block": "0000000054de543828fb973ecf9302291426f1e99189b03c97f618f79eebf4b3", "mrkl_root": "ee8a69fe827fa3519b9fe8704eeb5923e655943b21f46f070935f8febbe6433d", "time": 1231806964, "bits": 486604799, "next_block": ["00000000f4226696e8eec65149a5d7bedc22200e0b9526b1bf6ba7ee5e66d126"], "fee": 0, "nonce": 268450930, "n_tx": 1, "size": 215, "block_index": 267, "main_chain": true, "height": 267, "weight": 860, "tx": [{"hash": "ee8a69fe827fa3519b9fe8704eeb5923e655943b21f46f070935f8febbe6433d", "ver": 1, "vin_sz": 1, "vout_sz": 1, "size": 134, "weight": 536, "fee": 0, "relayed_by": "0.0.0.0", "lock_time": 0, "tx_index": 2155578981867270, "double_spend": false, "time": 1231806964, "block_index": 267, "block_height": 267, "inputs": [{"sequence": 4294967295, "witness": "", "script": "04ffff001d0126", "index": 0, "prev_out": null}], "out": [{"type": 0, "spent": false, "value": 5000000000, "spending_outpoints": [], "n": 0, "tx_index": 2155578981867270, "script": "410495e4452231085185e3aab1c2d624b32d8aea91db72e1fc761d4837f17056f457f4b1a9869086fe934b09f8ee25b2b6caec6f1bf24e9a08f3808fe5c8d270240bac", "addr": "16nRh2GxsbDDV9uvPVRUXSyjyWhiDsWMZD"}], "hex": "01000000010000000000000000000000000000000000000000000000000000000000000000ffffffff0704ffff001d0126ffffffff0100f2052a0100000043410495e4452231085185e3aab1c2d624b32d8aea91db72e1fc761d4837f17056f457f4b1a9869086fe934b09f8ee25b2b6caec6f1bf24e9a08f3808fe5c8d270240bac00000000"}]}