{"hash": "00000000f4226696e8eec65149a5d7bedc22200e0b9526b1bf6ba7ee5e66d126", "ver": 1, "prev_block": "0000000007e162784d52a035bfebf67d0b73813c09e2e23e6710fa237b301f0f", "mrkl_root": "c3f0bb699bcc8a4e0716de45aef74c40aabeb80f7f00b3bdb45e115ee6f5400f", "time": 1231807132, "bits": 486604799, "next_block": ["00000000a167a34dd8823317ccda6036d0a243161464e3e67fc01a543ce62b7f"], "fee": 0, "nonce": 16146797, "n_tx": 1, "size": 215, "block_index": 268, "main_chain": true, "height": 268, "weight": 860, "tx": [{"hash": "c3f0bb699bcc8a4e0716de45aef74c40aabeb80f7f00b3bdb45e115ee6f5400f", "ver": 1, "vin_sz": 1, "vout_sz": 1, "size": 134, "weight": 536, "fee": 0, "relayed_by": "0.0.0.0", "lock_time": 0, "tx_index": 536693690843691, "double_spend": false, "time": 1231807132, "block_index": 268, "block_height": 268, "inputs": [{"sequence": 4294967295, "witness": "", "script": "04ffff001d010e", "index": 0, "prev_out": null}], "out": [{"type": 0, "spent": true, "value": 5000000000, "spending_outpoints": [{"tx_index": 8533851111427933, "n": 0}], "n": 0, "tx_index": 536693690843691, "script": "4104f623076844c4828d1af72e37f0142f8c00aabf070d95225493b081daec8a482f6c79b94ca0978f9457ddd9ea70bec76c98bced76be55f3af225febc9b9791ae9ac", "addr": "1DNdPgBZRWjDj1JbVZQEYMv7jvqJF7R4Py"}], "hex": "01000000010000000000000000000000000000000000000000000000000000000000000000ffffffff0704ffff001d010effffffff0100f2052a01000000434104f623076844c4828d1af72e37f0142f8c00aabf070d95225493b081daec8a482f6c79b94ca0978f9457ddd9ea70bec76c98bced76be55f3af225febc9b9791ae9ac00000000"}]}