{"hash": "00000000a167a34dd8823317ccda6036d0a243161464e3e67fc01a543ce62b7f", "ver": 1, "prev_block": "00000000f4226696e8eec65149a5d7bedc22200e0b9526b1bf6ba7ee5e66d126", "mrkl_root": "04a0d7c4a8c7a8a0598730f0ebcf0e7bae213576aa104da30d82ea38cc1b34e3", "time": 1231807293, "bits": 486604799, "next_block": ["00000000c88cd451d53ba12b50e85e2c1d0381458e22813012bbd571b86f7920"], "fee": 0, "nonce": 308613157, "n_tx": 1, "size": 216, "block_index": 269, "main_chain": true, "height": 269, "weight": 864, "tx": [{"hash": "04a0d7c4a8c7a8a0598730f0ebcf0e7bae213576aa104da30d82ea38cc1b34e3", "ver": 1, "vin_sz": 1, "vout_sz": 1, "size": 135, "weight": 540, "fee": 0, "relayed_by": "0.0.0.0", "lock_time": 0, "tx_index": 7994014213545296, "double_spend": false, "time": 1231807293, "block_index": 269, "block_height": 269, "inputs": [{"sequence": 4294967295, "witness": "", "script": "04ffff001d027101", "index": 0, "prev_out": null}], "out": [{"type": 0, "spent": false, "value": 5000000000, "spending_outpoints": [], "n": 0, "tx_index": 7994014213545296, "script": "4104df4aff1d2a9989a108a714d13baa15ea60a4d288d9c1842dd8b435de640172d3591ef903d3a2571ac6a9814a19b490b99ec880be2cfd380e9545dc5b5168217aac", "addr": "1CKdw5GAp7vrh4Je2xRftmsJR2zWqpiGmG"}], "hex": "01000000010000000000000000000000000000000000000000000000000000000000000000ffffffff0804ffff001d027101ffffffff0100f2052a01000000434104df4aff1d2a9989a108a714d13baa15ea60a4d288d9c1842dd8b435de640172d3591ef903d3a2571ac6a9814a19b490b99ec880be2cfd380e9545dc5b5168217aac00000000"}]}