{"hash": "0000000071350772f98f84babf35502b33d42ee8466d3dde0f376c4120352081", "ver": 1, "prev_block": "0000000041438e52d25bccab8798a92cabafdaad69a071d3d2a41718faf01098", "mrkl_root": "230cf03a6ce420eaa42e3c64feebb47920f3470efb4323b4574b4b6e5a004f65", "time": 1231570573, "bits": 486604799, "next_block": ["00000000bb0d9430d3d1bab474be5050342161efcca9f7e45b151bff9a700944"], "fee": 0, "nonce": 3012316214, "n_tx": 1, "size": 215, "block_index": 27, "main_chain": true, "height": 27, "weight": 860, "tx": [{"hash": "230cf03a6ce420eaa42e3c64feebb47920f3470efb4323b4574b4b6e5a004f65", "ver": 1, "vin_sz": 1, "vout_sz": 1, "size": 134, "weight": 536, "fee": 0, "relayed_by": "0.0.0.0", "lock_time": 0, "tx_index": 3564479447943529, "double_spend": false, "time": 1231570573, "block_index": 27, "block_height": 27, "inputs": [{"sequence": 4294967295, "witness": "", "script": "04ffff001d0110", "index": 0, "prev_out": null}], "out": [{"type": 0, "spent": false, "value": 5000000000, "spending_outpoints": [], "n": 0, "tx_index": 3564479447943529, "script": "4104a43f4de451f220ee2606ed79883797000e57a17ad8d418eb2de21339a045fd1e399953a0b9474b2e1fa510696c1eb4812dcd0ea4fda1932344bbd914f52e4e2fac", "addr": "1G43MvhzCqRz1ctsQUmgU4LgLuSVdfU557"}], "hex": "01000000010000000000000000000000000000000000000000000000000000000000000000ffffffff0704ffff001d0110ffffffff0100f2052a01000000434104a43f4de451f220ee2606ed79883797000e57a17ad8d418eb2de21339a045fd1e399953a0b9474b2e1fa510696c1eb4812dcd0ea4fda1932344bbd914f52e4e2fac00000000"}]}