{"hash": "00000000c88cd451d53ba12b50e85e2c1d0381458e22813012bbd571b86f7920", "ver": 1, "prev_block": "00000000a167a34dd8823317ccda6036d0a243161464e3e67fc01a543ce62b7f", "mrkl_root": "746f072f376eb17dd3699c9589e5a020bdde959146a063a3113a0b72767f9b78", "time": 1231808778, "bits": 486604799, "next_block": ["0000000035981d26f072cea02a0cb67897b896229b1436e0009cb9c4c20a4ee9"], "fee": 0, "nonce": 3999369255, "n_tx": 1, "size": 216, "block_index": 270, "main_chain": true, "height": 270, "weight": 864, "tx": [{"hash": "746f072f376eb17dd3699c9589e5a020bdde959146a063a3113a0b72767f9b78", "ver": 1, "vin_sz": 1, "vout_sz": 1, "size": 135, "weight": 540, "fee": 0, "relayed_by": "0.0.0.0", "lock_time": 0, "tx_index": 4243496119452007, "double_spend": false, "time": 1231808778, "block_index": 270, "block_height": 270, "inputs": [{"sequence": 4294967295, "witness": "", "script": "04ffff001d027801", "index": 0, "prev_out": null}], "out": [{"type": 0, "spent": false, "value": 5000000000, "spending_outpoints": [], "n": 0, "tx_index": 4243496119452007, "script": "4104cbcf82a2da8fd5bb24955e6a39ccf8d6a8aec7ed2824130c84f21dd5699222733a4fd2c1312a8900b853f2b04fcd6ade11b7ab6f9f42f41662d7d28c4de4ed3bac", "addr": "1G582FH1b5NFScavscH8UgMki683NpTTa6"}], "hex": "01000000010000000000000000000000000000000000000000000000000000000000000000ffffffff0804ffff001d027801ffffffff0100f2052a01000000434104cbcf82a2da8fd5bb24955e6a39ccf8d6a8aec7ed2824130c84f21dd5699222733a4fd2c1312a8900b853f2b04fcd6ade11b7ab6f9f42f41662d7d28c4de4ed3bac00000000"}]}