{"hash": "0000000035981d26f072cea02a0cb67897b896229b1436e0009cb9c4c20a4ee9", "ver": 1, "prev_block": "00000000c88cd451d53ba12b50e85e2c1d0381458e22813012bbd571b86f7920", "mrkl_root": "2279d42002c293eeed5f24f5235ab8c417d6d7995fd99f435664e60a49fb615f", "time": 1231809900, "bits": 486604799, "next_block": ["00000000d4e581b02a90ab3f2f45723aea64f341908a767c33968219b9900ef1"], "fee": 0, "nonce": 504715776, "n_tx": 1, "size": 216, "block_index": 271, "main_chain": true, "height": 271, "weight": 864, "tx": [{"hash": "2279d42002c293eeed5f24f5235ab8c417d6d7995fd99f435664e60a49fb615f", "ver": 1, "vin_sz": 1, "vout_sz": 1, "size": 135, "weight": 540, "fee": 0, "relayed_by": "0.0.0.0", "lock_time": 0, "tx_index": 3355981834706124, "double_spend": false, "time": 1231809900, "block_index": 271, "block_height": 271, "inputs": [{"sequence": 4294967295, "witness": "", "script": "04ffff001d027a01", "index": 0, "prev_out": null}], "out": [{"type": 0, "spent": false, "value": 5000000000, "spending_outpoints": [], "n": 0, "tx_index": 3355981834706124, "script": "41044372a94454424e60b5a948762118564395796e90e41fc8e16320f7a529bb28c2d677cba16645b5dda191b649ac71c14068730c2d6d13731c807282221f902c2bac", "addr": "1AKQFY7YcDFj4xpGpYQ2GnpyGu1YGyUHcF"}], "hex": "01000000010000000000000000000000000000000000000000000000000000000000000000ffffffff0804ffff001d027a01ffffffff0100f2052a010000004341044372a94454424e60b5a948762118564395796e90e41fc8e16320f7a529bb28c2d677cba16645b5dda191b649ac71c14068730c2d6d13731c807282221f902c2bac00000000"}]}