{"hash": "00000000d4e581b02a90ab3f2f45723aea64f341908a767c33968219b9900ef1", "ver": 1, "prev_block": "0000000035981d26f072cea02a0cb67897b896229b1436e0009cb9c4c20a4ee9", "mrkl_root": "c639baa3634a88990d1756a284883ab42b6057a0c3a359fd782e61b64ca0a0f3", "time": 1231810641, "bits": 486604799, "next_block": ["000000009ed94f7234f1c82c7874b938dc2e3e09551eed7ae86c2295d4ac7dd0"], "fee": 0, "nonce": 1527481369, "n_tx": 1, "size": 216, "block_index": 272, "main_chain": true, "height": 272, "weight": 864, "tx": [{"hash": "c639baa3634a88990d1756a284883ab42b6057a0c3a359fd782e61b64ca0a0f3", "ver": 1, "vin_sz": 1, "vout_sz": 1, "size": 135, "weight": 540, "fee": 0, "relayed_by": "0.0.0.0", "lock_time": 0, "tx_index": 8571878710365221, "double_spend": false, "time": 1231810641, "block_index": 272, "block_height": 272, "inputs": [{"sequence": 4294967295, "witness": "", "script": "04ffff001d027d01", "index": 0, "prev_out": null}], "out": [{"type": 0, "spent": false, "value": 5000000000, "spending_outpoints": [], "n": 0, "tx_index": 8571878710365221, "script": "4104820aaa83593d4bc8797150de9ae101e5438ebc90c27690cf6c17ef4b7c64211c9dfcc61f76d5d1942e649a36b5ac96f7eb2a844688f951cae4deb2902b2ac6acac", "addr": "1LjsyzV318tptLPUNfs6w2jUi6niFXLJuE"}], "hex": "01000000010000000000000000000000000000000000000000000000000000000000000000ffffffff0804ffff001d027d01ffffffff0100f2052a01000000434104820aaa83593d4bc8797150de9ae101e5438ebc90c27690cf6c17ef4b7c64211c9dfcc61f76d5d1942e649a36b5ac96f7eb2a844688f951cae4deb2902b2ac6acac00000000"}]}