{"hash": "000000009ed94f7234f1c82c7874b938dc2e3e09551eed7ae86c2295d4ac7dd0", "ver": 1, "prev_block": "00000000d4e581b02a90ab3f2f45723aea64f341908a767c33968219b9900ef1", "mrkl_root": "e3445e3e66b0f7fcf98e7b6543efb27b6bcd7e144afbe0208ca5be0c0390d287", "time": 1231811219, "bits": 486604799, "next_block": ["000000003c1432390c69b55b7797cc61d73c1c26b78eaa0d46796b1c6ccaf8c8"], "fee": 0, "nonce": 276478976, "n_tx": 1, "size": 216, "block_index": 273, "main_chain": true, "height": 273, "weight": 864, "tx": [{"hash": "e3445e3e66b0f7fcf98e7b6543efb27b6bcd7e144afbe0208ca5be0c0390d287", "ver": 1, "vin_sz": 1, "vout_sz": 1, "size": 135, "weight": 540, "fee": 0, "relayed_by": "0.0.0.0", "lock_time": 0, "tx_index": 4778829728028628, "double_spend": false, "time": 1231811219, "block_index": 273, "block_height": 273, "inputs": [{"sequence": 4294967295, "witness": "", "script": "04ffff001d028801", "index": 0, "prev_out": null}], "out": [{"type": 0, "spent": false, "value": 5000000000, "spending_outpoints": [], "n": 0, "tx_index": 4778829728028628, "script": "41045abf2aa2c2f03ae5de8486e69c90eaef24c92ca1ebf951bd03cfee17542bb303da1951cb6a9fc9fcc701b2121b09b51c3a65dfae136924f4d968e255f38b14e8ac", "addr": "14QFGVvDKJZEBMagGyDctfvboG2bgboBAU"}], "hex": "01000000010000000000000000000000000000000000000000000000000000000000000000ffffffff0804ffff001d028801ffffffff0100f2052a010000004341045abf2aa2c2f03ae5de8486e69c90eaef24c92ca1ebf951bd03cfee17542bb303da1951cb6a9fc9fcc701b2121b09b51c3a65dfae136924f4d968e255f38b14e8ac00000000"}]}