{"hash": "000000003c1432390c69b55b7797cc61d73c1c26b78eaa0d46796b1c6ccaf8c8", "ver": 1, "prev_block": "000000009ed94f7234f1c82c7874b938dc2e3e09551eed7ae86c2295d4ac7dd0", "mrkl_root": "9e8c82aed2631cc68d823f7e753b906cf26a5f2d1ce089d147de4d2175cbcb22", "time": 1231811622, "bits": 486604799, "next_block": ["00000000cb9259bda1b43bb1bc7ee46f1f04ddea0afe7ab542193b3c8761f918"], "fee": 0, "nonce": 2011367712, "n_tx": 1, "size": 216, "block_index": 274, "main_chain": true, "height": 274, "weight": 864, "tx": [{"hash": "9e8c82aed2631cc68d823f7e753b906cf26a5f2d1ce089d147de4d2175cbcb22", "ver": 1, "vin_sz": 1, "vout_sz": 1, "size": 135, "weight": 540, "fee": 0, "relayed_by": "0.0.0.0", "lock_time": 0, "tx_index": 1224277989009851, "double_spend": false, "time": 1231811622, "block_index": 274, "block_height": 274, "inputs": [{"sequence": 4294967295, "witness": "", "script": "04ffff001d028901", "index": 0, "prev_out": null}], "out": [{"type": 0, "spent": false, "value": 5000000000, "spending_outpoints": [], "n": 0, "tx_index": 1224277989009851, "script": "4104eaf79a39f52571f66fe621e20a94679cc05c9aba52e8a468c1cd39192f50e8e969da47be611d2a74bd02c36fdb8cb4317b530976055663fd9195f2f8d7c35e87ac", "addr": "13Pqi765raqA9mFW4q2KormB5B5huYbHbs"}], "hex": "01000000010000000000000000000000000000000000000000000000000000000000000000ffffffff0804ffff001d028901ffffffff0100f2052a01000000434104eaf79a39f52571f66fe621e20a94679cc05c9aba52e8a468c1cd39192f50e8e969da47be611d2a74bd02c36fdb8cb4317b530976055663fd9195f2f8d7c35e87ac00000000"}]}