{"hash": "00000000cb9259bda1b43bb1bc7ee46f1f04ddea0afe7ab542193b3c8761f918", "ver": 1, "prev_block": "000000003c1432390c69b55b7797cc61d73c1c26b78eaa0d46796b1c6ccaf8c8", "mrkl_root": "58bc6146b3977c03d5b89de31d7041b5e52151d36b388c4e55603f5440f45a9b", "time": 1231812926, "bits": 486604799, "next_block": ["00000000913eac3ab8630e663e9c9a127a810a27fcac2e19aed6864b3eb349aa"], "fee": 0, "nonce": 3038467882, "n_tx": 1, "size": 216, "block_index": 275, "main_chain": true, "height": 275, "weight": 864, "tx": [{"hash": "58bc6146b3977c03d5b89de31d7041b5e52151d36b388c4e55603f5440f45a9b", "ver": 1, "vin_sz": 1, "vout_sz": 1, "size": 135, "weight": 540, "fee": 0, "relayed_by": "0.0.0.0", "lock_time": 0, "tx_index": 5466078310991852, "double_spend": false, "time": 1231812926, "block_index": 275, "block_height": 275, "inputs": [{"sequence": 4294967295, "witness": "", "script": "04ffff001d028d01", "index": 0, "prev_out": null}], "out": [{"type": 0, "spent": false, "value": 5000000000, "spending_outpoints": [], "n": 0, "tx_index": 5466078310991852, "script": "4104853d54822ee27b62c4d7b569edb30418ce79273044fa109cf6c294c932b0a4a80c948d8b4d6aca62f20432ff84de0acdad4a521131160aca5cb9c2e3feb78692ac", "addr": "15QFLqNG398Qwhv8DjkERVpY5fXnaJbLu6"}], "hex": "01000000010000000000000000000000000000000000000000000000000000000000000000ffffffff0804ffff001d028d01ffffffff0100f2052a01000000434104853d54822ee27b62c4d7b569edb30418ce79273044fa109cf6c294c932b0a4a80c948d8b4d6aca62f20432ff84de0acdad4a521131160aca5cb9c2e3feb78692ac00000000"}]}