{"hash": "00000000913eac3ab8630e663e9c9a127a810a27fcac2e19aed6864b3eb349aa", "ver": 1, "prev_block": "00000000cb9259bda1b43bb1bc7ee46f1f04ddea0afe7ab542193b3c8761f918", "mrkl_root": "5a3280bf1c7027dd9767a87605d8163c975f3ca684d9fc4449515efc67e98111", "time": 1231813196, "bits": 486604799, "next_block": ["00000000cc3eeb36e3db7ce323b021abad084efdc7e4de0c5a652cc74ebe2b1d"], "fee": 0, "nonce": 1592204293, "n_tx": 1, "size": 215, "block_index": 276, "main_chain": true, "height": 276, "weight": 860, "tx": [{"hash": "5a3280bf1c7027dd9767a87605d8163c975f3ca684d9fc4449515efc67e98111", "ver": 1, "vin_sz": 1, "vout_sz": 1, "size": 134, "weight": 536, "fee": 0, "relayed_by": "0.0.0.0", "lock_time": 0, "tx_index": 615989259504586, "double_spend": false, "time": 1231813196, "block_index": 276, "block_height": 276, "inputs": [{"sequence": 4294967295, "witness": "", "script": "04ffff001d0102", "index": 0, "prev_out": null}], "out": [{"type": 0, "spent": false, "value": 5000000000, "spending_outpoints": [], "n": 0, "tx_index": 615989259504586, "script": "4104fe0db0c87cf9cf93c4b27aebe0ec82a70435e202e5e2b0eed9bec1a357c23390e06073342747a4a933101761c6ff050b7dfaf380aff4fa98bac7f5af06040e73ac", "addr": "16SneNM9p582qaeuLgdvaJy1pK16awe6se"}], "hex": "01000000010000000000000000000000000000000000000000000000000000000000000000ffffffff0704ffff001d0102ffffffff0100f2052a01000000434104fe0db0c87cf9cf93c4b27aebe0ec82a70435e202e5e2b0eed9bec1a357c23390e06073342747a4a933101761c6ff050b7dfaf380aff4fa98bac7f5af06040e73ac00000000"}]}