{"hash": "00000000cc3eeb36e3db7ce323b021abad084efdc7e4de0c5a652cc74ebe2b1d", "ver": 1, "prev_block": "00000000913eac3ab8630e663e9c9a127a810a27fcac2e19aed6864b3eb349aa", "mrkl_root": "d9ba6ef4da1415fc845f44364543a7c2b523e1969afa77fd4e76bf558c253fd3", "time": 1231815025, "bits": 486604799, "next_block": ["0000000060070572bf6b7516ab5d89dd50168ee7994d960057303e3bb838f08a"], "fee": 0, "nonce": 1406327083, "n_tx": 1, "size": 215, "block_index": 277, "main_chain": true, "height": 277, "weight": 860, "tx": [{"hash": "d9ba6ef4da1415fc845f44364543a7c2b523e1969afa77fd4e76bf558c253fd3", "ver": 1, "vin_sz": 1, "vout_sz": 1, "size": 134, "weight": 536, "fee": 0, "relayed_by": "0.0.0.0", "lock_time": 0, "tx_index": 7432581323339758, "double_spend": false, "time": 1231815025, "block_index": 277, "block_height": 277, "inputs": [{"sequence": 4294967295, "witness": "", "script": "04ffff001d0107", "index": 0, "prev_out": null}], "out": [{"type": 0, "spent": false, "value": 5000000000, "spending_outpoints": [], "n": 0, "tx_index": 7432581323339758, "script": "4104a90b5370174e66b487f4c7d097865324902996053668e9ace7b4e4d1fc7bdeddb92703e2af049e342628ad2cfd206483ce43c8a1cbd77b2d8e04f84fd9dcea6aac", "addr": "1MeYKCPYiMbA9CD1moK2RE7Pb47mgK2grD"}], "hex": "01000000010000000000000000000000000000000000000000000000000000000000000000ffffffff0704ffff001d0107ffffffff0100f2052a01000000434104a90b5370174e66b487f4c7d097865324902996053668e9ace7b4e4d1fc7bdeddb92703e2af049e342628ad2cfd206483ce43c8a1cbd77b2d8e04f84fd9dcea6aac00000000"}]}