{"hash": "0000000060070572bf6b7516ab5d89dd50168ee7994d960057303e3bb838f08a", "ver": 1, "prev_block": "00000000cc3eeb36e3db7ce323b021abad084efdc7e4de0c5a652cc74ebe2b1d", "mrkl_root": "004ed5d4e3dbb1100299798bac8be35aad6e67035b227fd913e963f4e08c7da4", "time": 1231815925, "bits": 486604799, "next_block": ["00000000509137829bac76e336618e21ab34d34f23d8b73c4699854bcc557afc"], "fee": 0, "nonce": 297380049, "n_tx": 1, "size": 215, "block_index": 278, "main_chain": true, "height": 278, "weight": 860, "tx": [{"hash": "004ed5d4e3dbb1100299798bac8be35aad6e67035b227fd913e963f4e08c7da4", "ver": 1, "vin_sz": 1, "vout_sz": 1, "size": 134, "weight": 536, "fee": 0, "relayed_by": "0.0.0.0", "lock_time": 0, "tx_index": 5787492525444221, "double_spend": false, "time": 1231815925, "block_index": 278, "block_height": 278, "inputs": [{"sequence": 4294967295, "witness": "", "script": "04ffff001d0130", "index": 0, "prev_out": null}], "out": [{"type": 0, "spent": false, "value": 5000000000, "spending_outpoints": [], "n": 0, "tx_index": 5787492525444221, "script": "41045f847011433af3535a35a9cd040fe999c4138897ed71cad0d20f9b1306610a14e6aafed07aed95f175ee3cbf8c346a74fc948df8f74eb31c8210c71c01841bd5ac", "addr": "17kMwyZ1zPHasVyeo9L7vnpnH6WuxNteMG"}], "hex": "01000000010000000000000000000000000000000000000000000000000000000000000000ffffffff0704ffff001d0130ffffffff0100f2052a010000004341045f847011433af3535a35a9cd040fe999c4138897ed71cad0d20f9b1306610a14e6aafed07aed95f175ee3cbf8c346a74fc948df8f74eb31c8210c71c01841bd5ac00000000"}]}