{"hash": "00000000509137829bac76e336618e21ab34d34f23d8b73c4699854bcc557afc", "ver": 1, "prev_block": "0000000060070572bf6b7516ab5d89dd50168ee7994d960057303e3bb838f08a", "mrkl_root": "5702928a472bcf4818940fb65575c9d2819ab840005ab998fa17b1741ed86357", "time": 1231816169, "bits": 486604799, "next_block": ["00000000b7686b0bbdcdbbc233c818e60afd3a62564ec7a672836d609b50c718"], "fee": 0, "nonce": 2547523612, "n_tx": 1, "size": 215, "block_index": 279, "main_chain": true, "height": 279, "weight": 860, "tx": [{"hash": "5702928a472bcf4818940fb65575c9d2819ab840005ab998fa17b1741ed86357", "ver": 1, "vin_sz": 1, "vout_sz": 1, "size": 134, "weight": 536, "fee": 0, "relayed_by": "0.0.0.0", "lock_time": 0, "tx_index": 3074762856109602, "double_spend": false, "time": 1231816169, "block_index": 279, "block_height": 279, "inputs": [{"sequence": 4294967295, "witness": "", "script": "04ffff001d0108", "index": 0, "prev_out": null}], "out": [{"type": 0, "spent": false, "value": 5000000000, "spending_outpoints": [], "n": 0, "tx_index": 3074762856109602, "script": "41044b5ac75f9e18386270fb4a2fdad1e7f8cefb9a4a2f6e0070e06f230595a78c069390cc3cf13796dc9805f6a41e1103ceb9c667da456b57bf2e322d43524194e3ac", "addr": "17c7Q8CbP3o2iLXfgBB3tqnbf2qET1vDe4"}], "hex": "01000000010000000000000000000000000000000000000000000000000000000000000000ffffffff0704ffff001d0108ffffffff0100f2052a010000004341044b5ac75f9e18386270fb4a2fdad1e7f8cefb9a4a2f6e0070e06f230595a78c069390cc3cf13796dc9805f6a41e1103ceb9c667da456b57bf2e322d43524194e3ac00000000"}]}