{"hash": "00000000bb0d9430d3d1bab474be5050342161efcca9f7e45b151bff9a700944", "ver": 1, "prev_block": "0000000071350772f98f84babf35502b33d42ee8466d3dde0f376c4120352081", "mrkl_root": "f399cb6c5bed7bb36d44f361c29dd5ecf12deba163470d8835b7ba0c4ed8aebd", "time": 1231601457, "bits": 486604799, "next_block": ["00000000c57a1b6351208c592eef8eff015d93c899a047fe35b35252a4a59bcb"], "fee": 0, "nonce": 2396281646, "n_tx": 1, "size": 215, "block_index": 28, "main_chain": true, "height": 28, "weight": 860, "tx": [{"hash": "f399cb6c5bed7bb36d44f361c29dd5ecf12deba163470d8835b7ba0c4ed8aebd", "ver": 1, "vin_sz": 1, "vout_sz": 1, "size": 134, "weight": 536, "fee": 0, "relayed_by": "0.0.0.0", "lock_time": 0, "tx_index": 6673876830492502, "double_spend": false, "time": 1231601457, "block_index": 28, "block_height": 28, "inputs": [{"sequence": 4294967295, "witness": "", "script": "04ffff001d0109", "index": 0, "prev_out": null}], "out": [{"type": 0, "spent": false, "value": 5000000000, "spending_outpoints": [], "n": 0, "tx_index": 6673876830492502, "script": "4104d3a4fd2722f5754102b96cd8b8ec7ea870c10ed5363290b8ac92eaf6b1202a569ed95ed4957c644df7fc0794774b03bf9f63baf7a55cde9e5076774f67987b34ac", "addr": "18a3JX7ZZvu5CdaqY33RxzXB3ytEjspsGq"}], "hex": "01000000010000000000000000000000000000000000000000000000000000000000000000ffffffff0704ffff001d0109ffffffff0100f2052a01000000434104d3a4fd2722f5754102b96cd8b8ec7ea870c10ed5363290b8ac92eaf6b1202a569ed95ed4957c644df7fc0794774b03bf9f63baf7a55cde9e5076774f67987b34ac00000000"}]}