{"hash": "00000000b7686b0bbdcdbbc233c818e60afd3a62564ec7a672836d609b50c718", "ver": 1, "prev_block": "00000000509137829bac76e336618e21ab34d34f23d8b73c4699854bcc557afc", "mrkl_root": "a7e36c86964e8c8e796d752129f57d1705044eb3c5cc1ce0a345a219c4732c33", "time": 1231817139, "bits": 486604799, "next_block": ["000000007964a0e8b97bbea93e937c63d4097c42ccb4db464b1ab3047c62869c"], "fee": 0, "nonce": 1558675205, "n_tx": 1, "size": 215, "block_index": 280, "main_chain": true, "height": 280, "weight": 860, "tx": [{"hash": "a7e36c86964e8c8e796d752129f57d1705044eb3c5cc1ce0a345a219c4732c33", "ver": 1, "vin_sz": 1, "vout_sz": 1, "size": 134, "weight": 536, "fee": 0, "relayed_by": "0.0.0.0", "lock_time": 0, "tx_index": 1800512441889864, "double_spend": false, "time": 1231817139, "block_index": 280, "block_height": 280, "inputs": [{"sequence": 4294967295, "witness": "", "script": "04ffff001d0109", "index": 0, "prev_out": null}], "out": [{"type": 0, "spent": false, "value": 5000000000, "spending_outpoints": [], "n": 0, "tx_index": 1800512441889864, "script": "41040977acff91378bc2f5e2474ca6154942dd0eabe1e334c97427a55393593a439f9b1e0ebc9e7fdf8c6f1cfa483c0b23411d512c3bbbf9d7484eec4fb1121e1cfbac", "addr": "1EgsjUzDP1C2G3JTMLcC9qX6N6JNDoKDPt"}], "hex": "01000000010000000000000000000000000000000000000000000000000000000000000000ffffffff0704ffff001d0109ffffffff0100f2052a010000004341040977acff91378bc2f5e2474ca6154942dd0eabe1e334c97427a55393593a439f9b1e0ebc9e7fdf8c6f1cfa483c0b23411d512c3bbbf9d7484eec4fb1121e1cfbac00000000"}]}