{"hash": "000000007964a0e8b97bbea93e937c63d4097c42ccb4db464b1ab3047c62869c", "ver": 1, "prev_block": "00000000b7686b0bbdcdbbc233c818e60afd3a62564ec7a672836d609b50c718", "mrkl_root": "b87618c8c871b2566e0dfab21358beab731a47e13e029acc9ecd7318aa73777f", "time": 1231817659, "bits": 486604799, "next_block": ["0000000025f2bb2ee58597083e13079899ecc6f2bb7e8bfd57e66b324b05d654"], "fee": 0, "nonce": 3579397684, "n_tx": 1, "size": 215, "block_index": 281, "main_chain": true, "height": 281, "weight": 860, "tx": [{"hash": "b87618c8c871b2566e0dfab21358beab731a47e13e029acc9ecd7318aa73777f", "ver": 1, "vin_sz": 1, "vout_sz": 1, "size": 134, "weight": 536, "fee": 0, "relayed_by": "0.0.0.0", "lock_time": 0, "tx_index": 4484832587615865, "double_spend": false, "time": 1231817659, "block_index": 281, "block_height": 281, "inputs": [{"sequence": 4294967295, "witness": "", "script": "04ffff001d010d", "index": 0, "prev_out": null}], "out": [{"type": 0, "spent": false, "value": 5000000000, "spending_outpoints": [], "n": 0, "tx_index": 4484832587615865, "script": "410432b7920f5d152c3ba4342b6510a58dfc3a8868c9c0027c906f03643141b3f640b812b2e76ff68154bb26bfbf8daba1f4f14d0ace988ae3f6889145a28d47f17dac", "addr": "1P8pSG7v3dQ8DSj42tUeUP9RQX7u52jCSh"}], "hex": "01000000010000000000000000000000000000000000000000000000000000000000000000ffffffff0704ffff001d010dffffffff0100f2052a0100000043410432b7920f5d152c3ba4342b6510a58dfc3a8868c9c0027c906f03643141b3f640b812b2e76ff68154bb26bfbf8daba1f4f14d0ace988ae3f6889145a28d47f17dac00000000"}]}