{"hash": "0000000025f2bb2ee58597083e13079899ecc6f2bb7e8bfd57e66b324b05d654", "ver": 1, "prev_block": "000000007964a0e8b97bbea93e937c63d4097c42ccb4db464b1ab3047c62869c", "mrkl_root": "bed934e8ab0ce624c5ad6fb57cb71a41546b4098b2feec8faa75944d65cc3586", "time": 1231818395, "bits": 486604799, "next_block": ["000000001a6017f168bfbe3ef01807bec73ce61a72216d90381871e56bbcb386"], "fee": 0, "nonce": 1312046121, "n_tx": 1, "size": 215, "block_index": 282, "main_chain": true, "height": 282, "weight": 860, "tx": [{"hash": "bed934e8ab0ce624c5ad6fb57cb71a41546b4098b2feec8faa75944d65cc3586", "ver": 1, "vin_sz": 1, "vout_sz": 1, "size": 134, "weight": 536, "fee": 0, "relayed_by": "0.0.0.0", "lock_time": 0, "tx_index": 4722099858551438, "double_spend": false, "time": 1231818395, "block_index": 282, "block_height": 282, "inputs": [{"sequence": 4294967295, "witness": "", "script": "04ffff001d0111", "index": 0, "prev_out": null}], "out": [{"type": 0, "spent": false, "value": 5000000000, "spending_outpoints": [], "n": 0, "tx_index": 4722099858551438, "script": "4104c5b5ec75d0916de9cb52c69e68e991381468be26a780752f48a789009560970c9f62a18237dc963c74bf24b7ef0a65e5383c866afd3351092f2d8d828ac7948fac", "addr": "1DsXxztYCB7EC1rqExZAMNrCYpQhpntx9z"}], "hex": "01000000010000000000000000000000000000000000000000000000000000000000000000ffffffff0704ffff001d0111ffffffff0100f2052a01000000434104c5b5ec75d0916de9cb52c69e68e991381468be26a780752f48a789009560970c9f62a18237dc963c74bf24b7ef0a65e5383c866afd3351092f2d8d828ac7948fac00000000"}]}