{"hash": "000000001a6017f168bfbe3ef01807bec73ce61a72216d90381871e56bbcb386", "ver": 1, "prev_block": "0000000025f2bb2ee58597083e13079899ecc6f2bb7e8bfd57e66b324b05d654", "mrkl_root": "36f436ef77b69423d639aa6159aaebc036de5054a309afc21d4927ae4b5417b8", "time": 1231819157, "bits": 486604799, "next_block": ["000000006d9d200789fb91267030be9b46ba351f28090f1c0693fed96be15467"], "fee": 0, "nonce": 545755422, "n_tx": 1, "size": 215, "block_index": 283, "main_chain": true, "height": 283, "weight": 860, "tx": [{"hash": "36f436ef77b69423d639aa6159aaebc036de5054a309afc21d4927ae4b5417b8", "ver": 1, "vin_sz": 1, "vout_sz": 1, "size": 134, "weight": 536, "fee": 0, "relayed_by": "0.0.0.0", "lock_time": 0, "tx_index": 6477130816144617, "double_spend": false, "time": 1231819157, "block_index": 283, "block_height": 283, "inputs": [{"sequence": 4294967295, "witness": "", "script": "04ffff001d0117", "index": 0, "prev_out": null}], "out": [{"type": 0, "spent": false, "value": 5000000000, "spending_outpoints": [], "n": 0, "tx_index": 6477130816144617, "script": "410404ea87b4abe989dfcef0673c3716ba6b94844c4f8eb34e3a36fedffcad918b0737b315bdf3c92ec9e283ff50bca0b3bdea198c4aec063754682e450f43440079ac", "addr": "13fpwAyzcbNJ2UDFWnoeQ2D2tVgvLMCjmd"}], "hex": "01000000010000000000000000000000000000000000000000000000000000000000000000ffffffff0704ffff001d0117ffffffff0100f2052a0100000043410404ea87b4abe989dfcef0673c3716ba6b94844c4f8eb34e3a36fedffcad918b0737b315bdf3c92ec9e283ff50bca0b3bdea198c4aec063754682e450f43440079ac00000000"}]}