{"hash": "000000006d9d200789fb91267030be9b46ba351f28090f1c0693fed96be15467", "ver": 1, "prev_block": "000000001a6017f168bfbe3ef01807bec73ce61a72216d90381871e56bbcb386", "mrkl_root": "1d282d062f4f90a2663d274c818ad6068d63ae7a13c98bfb79c93207424924e0", "time": 1231820141, "bits": 486604799, "next_block": ["00000000afa4394f2bb4ee92d55fa857f7ade86c79257a89c33dba8c4a04006b"], "fee": 0, "nonce": 3319176505, "n_tx": 1, "size": 215, "block_index": 284, "main_chain": true, "height": 284, "weight": 860, "tx": [{"hash": "1d282d062f4f90a2663d274c818ad6068d63ae7a13c98bfb79c93207424924e0", "ver": 1, "vin_sz": 1, "vout_sz": 1, "size": 134, "weight": 536, "fee": 0, "relayed_by": "0.0.0.0", "lock_time": 0, "tx_index": 7886286480270937, "double_spend": false, "time": 1231820141, "block_index": 284, "block_height": 284, "inputs": [{"sequence": 4294967295, "witness": "", "script": "04ffff001d011c", "index": 0, "prev_out": null}], "out": [{"type": 0, "spent": false, "value": 5000000000, "spending_outpoints": [], "n": 0, "tx_index": 7886286480270937, "script": "4104c6007c5f5a5c02100095ed312d23a3216a944ecff81a626b8189c355e1ce1b7d744eece3d0041610103662a750f4fac3b2c3427c8566d673d419d21990c3ddb3ac", "addr": "1Go27SzmXaedChNgyUYgPREn8Q7Cp7qqzq"}], "hex": "01000000010000000000000000000000000000000000000000000000000000000000000000ffffffff0704ffff001d011cffffffff0100f2052a01000000434104c6007c5f5a5c02100095ed312d23a3216a944ecff81a626b8189c355e1ce1b7d744eece3d0041610103662a750f4fac3b2c3427c8566d673d419d21990c3ddb3ac00000000"}]}