{"hash": "00000000afa4394f2bb4ee92d55fa857f7ade86c79257a89c33dba8c4a04006b", "ver": 1, "prev_block": "000000006d9d200789fb91267030be9b46ba351f28090f1c0693fed96be15467", "mrkl_root": "d8fe27ce8417be1a3fdad7c5fedbf258413a3cffd2035e9c704a22fab0ac915c", "time": 1231821417, "bits": 486604799, "next_block": ["00000000bad3f4791d4984e041ec55acf6f7b38a63b220b33f703ec2f6af049a"], "fee": 0, "nonce": 2034375177, "n_tx": 1, "size": 215, "block_index": 285, "main_chain": true, "height": 285, "weight": 860, "tx": [{"hash": "d8fe27ce8417be1a3fdad7c5fedbf258413a3cffd2035e9c704a22fab0ac915c", "ver": 1, "vin_sz": 1, "vout_sz": 1, "size": 134, "weight": 536, "fee": 0, "relayed_by": "0.0.0.0", "lock_time": 0, "tx_index": 3256983593370697, "double_spend": false, "time": 1231821417, "block_index": 285, "block_height": 285, "inputs": [{"sequence": 4294967295, "witness": "", "script": "04ffff001d012b", "index": 0, "prev_out": null}], "out": [{"type": 0, "spent": false, "value": 5000000000, "spending_outpoints": [], "n": 0, "tx_index": 3256983593370697, "script": "410487136b1a4e2b6e8e815e0931454143fba82e24c23fe98e997c01092abbd542075a8ea072b01b31ff263f2153e8e9151c55a36f72389b4d926e4138bbfef622d3ac", "addr": "1LQZn83Uo13UXXvvTWvwE93wgdE4uKSdAU"}], "hex": "01000000010000000000000000000000000000000000000000000000000000000000000000ffffffff0704ffff001d012bffffffff0100f2052a0100000043410487136b1a4e2b6e8e815e0931454143fba82e24c23fe98e997c01092abbd542075a8ea072b01b31ff263f2153e8e9151c55a36f72389b4d926e4138bbfef622d3ac00000000"}]}