{"hash": "00000000bad3f4791d4984e041ec55acf6f7b38a63b220b33f703ec2f6af049a", "ver": 1, "prev_block": "00000000afa4394f2bb4ee92d55fa857f7ade86c79257a89c33dba8c4a04006b", "mrkl_root": "00ff9e64c9a2e7793e6f8c2b04072b4b22648cdedd46cd1c3ae3d6a23c8ec1eb", "time": 1231822498, "bits": 486604799, "next_block": ["0000000025f15576bf5734fa2e6b93a00593a969955f210aeae10c7f0733b81b"], "fee": 0, "nonce": 1429335591, "n_tx": 1, "size": 215, "block_index": 286, "main_chain": true, "height": 286, "weight": 860, "tx": [{"hash": "00ff9e64c9a2e7793e6f8c2b04072b4b22648cdedd46cd1c3ae3d6a23c8ec1eb", "ver": 1, "vin_sz": 1, "vout_sz": 1, "size": 134, "weight": 536, "fee": 0, "relayed_by": "0.0.0.0", "lock_time": 0, "tx_index": 8294929521728220, "double_spend": false, "time": 1231822498, "block_index": 286, "block_height": 286, "inputs": [{"sequence": 4294967295, "witness": "", "script": "04ffff001d0133", "index": 0, "prev_out": null}], "out": [{"type": 0, "spent": true, "value": 5000000000, "spending_outpoints": [{"tx_index": 4211940695077034, "n": 0}], "n": 0, "tx_index": 8294929521728220, "script": "41048b48e109f432a490522f8d0e9e833443809f65b8aa2558b94c1c15eb0fd3e24f32d58a088a2b0e5e694d05e7b981e5c9750827646eb81debc816c3c667eea5fdac", "addr": "1Jhk2DHosaaZx1E4CbnTGcKM7FC88YHYv9"}], "hex": "01000000010000000000000000000000000000000000000000000000000000000000000000ffffffff0704ffff001d0133ffffffff0100f2052a010000004341048b48e109f432a490522f8d0e9e833443809f65b8aa2558b94c1c15eb0fd3e24f32d58a088a2b0e5e694d05e7b981e5c9750827646eb81debc816c3c667eea5fdac00000000"}]}