{"hash": "0000000025f15576bf5734fa2e6b93a00593a969955f210aeae10c7f0733b81b", "ver": 1, "prev_block": "00000000bad3f4791d4984e041ec55acf6f7b38a63b220b33f703ec2f6af049a", "mrkl_root": "8e760e3250339c2d14c064082e6d5e968d1d8ce356d40156a965d2790db3b3b2", "time": 1231822967, "bits": 486604799, "next_block": ["00000000dc16c2db339f647ab31cad9d5639ba064272083debddebd2dcfb44ef"], "fee": 0, "nonce": 2239573784, "n_tx": 1, "size": 215, "block_index": 287, "main_chain": true, "height": 287, "weight": 860, "tx": [{"hash": "8e760e3250339c2d14c064082e6d5e968d1d8ce356d40156a965d2790db3b3b2", "ver": 1, "vin_sz": 1, "vout_sz": 1, "size": 134, "weight": 536, "fee": 0, "relayed_by": "0.0.0.0", "lock_time": 0, "tx_index": 6287515932637772, "double_spend": false, "time": 1231822967, "block_index": 287, "block_height": 287, "inputs": [{"sequence": 4294967295, "witness": "", "script": "04ffff001d013b", "index": 0, "prev_out": null}], "out": [{"type": 0, "spent": false, "value": 5000000000, "spending_outpoints": [], "n": 0, "tx_index": 6287515932637772, "script": "41042511baf88708c08fe9afdd74fe0cf3db8c20e8ddc73f3e1c4105d45f71d3249609d934c6afe7d07050591604084ab3ada44b337dc5a3f97f877b6aa37458da6aac", "addr": "1Mar5RmTWn6Hh7L2NvaCUQ28t56wvm1h2w"}], "hex": "01000000010000000000000000000000000000000000000000000000000000000000000000ffffffff0704ffff001d013bffffffff0100f2052a010000004341042511baf88708c08fe9afdd74fe0cf3db8c20e8ddc73f3e1c4105d45f71d3249609d934c6afe7d07050591604084ab3ada44b337dc5a3f97f877b6aa37458da6aac00000000"}]}