{"hash": "00000000dc16c2db339f647ab31cad9d5639ba064272083debddebd2dcfb44ef", "ver": 1, "prev_block": "0000000025f15576bf5734fa2e6b93a00593a969955f210aeae10c7f0733b81b", "mrkl_root": "254169b806e05b3b2564127c3d6fb1e16d920bfd76a8b7876e0635fea53138ed", "time": 1231823695, "bits": 486604799, "next_block": ["0000000098efe4e81ec5fd517ba429722d776ae5fd04aceae90a2e43bc0572b7"], "fee": 0, "nonce": 3779808798, "n_tx": 1, "size": 215, "block_index": 288, "main_chain": true, "height": 288, "weight": 860, "tx": [{"hash": "254169b806e05b3b2564127c3d6fb1e16d920bfd76a8b7876e0635fea53138ed", "ver": 1, "vin_sz": 1, "vout_sz": 1, "size": 134, "weight": 536, "fee": 0, "relayed_by": "0.0.0.0", "lock_time": 0, "tx_index": 8346419421234848, "double_spend": false, "time": 1231823695, "block_index": 288, "block_height": 288, "inputs": [{"sequence": 4294967295, "witness": "", "script": "04ffff001d013d", "index": 0, "prev_out": null}], "out": [{"type": 0, "spent": false, "value": 5000000000, "spending_outpoints": [], "n": 0, "tx_index": 8346419421234848, "script": "41042be595e656979146df0d9206591ea71d33dab5769ea1ff921b0e3659eff0736f01d7281f0cff8c9b834c7f131124bd934c59ece3861b5aedf9d24ed0f63071a3ac", "addr": "1BUk7k22W5o8TgU9UMPbueGAUZFYXrKFfe"}], "hex": "01000000010000000000000000000000000000000000000000000000000000000000000000ffffffff0704ffff001d013dffffffff0100f2052a010000004341042be595e656979146df0d9206591ea71d33dab5769ea1ff921b0e3659eff0736f01d7281f0cff8c9b834c7f131124bd934c59ece3861b5aedf9d24ed0f63071a3ac00000000"}]}