{"hash": "0000000098efe4e81ec5fd517ba429722d776ae5fd04aceae90a2e43bc0572b7", "ver": 1, "prev_block": "00000000dc16c2db339f647ab31cad9d5639ba064272083debddebd2dcfb44ef", "mrkl_root": "98dea46312e3d10984695fc127056ffd266b607ef4018bc65cd9576013a4bdd3", "time": 1231824272, "bits": 486604799, "next_block": ["00000000d3e87c5021f142864817c02b5fd52b8f271d26740f1fe629b13b5333"], "fee": 0, "nonce": 2762012209, "n_tx": 1, "size": 215, "block_index": 289, "main_chain": true, "height": 289, "weight": 860, "tx": [{"hash": "98dea46312e3d10984695fc127056ffd266b607ef4018bc65cd9576013a4bdd3", "ver": 1, "vin_sz": 1, "vout_sz": 1, "size": 134, "weight": 536, "fee": 0, "relayed_by": "0.0.0.0", "lock_time": 0, "tx_index": 7449966560414459, "double_spend": false, "time": 1231824272, "block_index": 289, "block_height": 289, "inputs": [{"sequence": 4294967295, "witness": "", "script": "04ffff001d013f", "index": 0, "prev_out": null}], "out": [{"type": 0, "spent": false, "value": 5000000000, "spending_outpoints": [], "n": 0, "tx_index": 7449966560414459, "script": "41045ab2622eda3d5668d3faaafce720df50ea3f9d41220be902216c6e794a2549e8fadb67aee7151abbd13da9830a586dfa7a29e2a2480c9cf61ee44726076977dfac", "addr": "1CSx3HZR5LDSTJCirk3xZuubJ5wF5c3YdA"}], "hex": "01000000010000000000000000000000000000000000000000000000000000000000000000ffffffff0704ffff001d013fffffffff0100f2052a010000004341045ab2622eda3d5668d3faaafce720df50ea3f9d41220be902216c6e794a2549e8fadb67aee7151abbd13da9830a586dfa7a29e2a2480c9cf61ee44726076977dfac00000000"}]}