{"hash": "00000000c57a1b6351208c592eef8eff015d93c899a047fe35b35252a4a59bcb", "ver": 1, "prev_block": "00000000bb0d9430d3d1bab474be5050342161efcca9f7e45b151bff9a700944", "mrkl_root": "c361e2f4581f035dd58b99788347884e046e47b4c17ec347344ff8b24cd377ec", "time": 1231601503, "bits": 486604799, "next_block": ["00000000bc919cfb64f62de736d55cf79e3d535b474ace256b4fbb56073f64db"], "fee": 0, "nonce": 2688142130, "n_tx": 1, "size": 215, "block_index": 29, "main_chain": true, "height": 29, "weight": 860, "tx": [{"hash": "c361e2f4581f035dd58b99788347884e046e47b4c17ec347344ff8b24cd377ec", "ver": 1, "vin_sz": 1, "vout_sz": 1, "size": 134, "weight": 536, "fee": 0, "relayed_by": "0.0.0.0", "lock_time": 0, "tx_index": 8319980489039625, "double_spend": false, "time": 1231601503, "block_index": 29, "block_height": 29, "inputs": [{"sequence": 4294967295, "witness": "", "script": "04ffff001d010d", "index": 0, "prev_out": null}], "out": [{"type": 0, "spent": false, "value": 5000000000, "spending_outpoints": [], "n": 0, "tx_index": 8319980489039625, "script": "41048e2c3ad3142a375ee969eccb3e14470971d898bc67077f28293245b97afbc509d180829f4cd419c208c8302728dd51a6d88392fb30a09d3ec27dd23fb2346d03ac", "addr": "1GnYgH4V4kHdYEdHwAczRHXwqxdY7xars1"}], "hex": "01000000010000000000000000000000000000000000000000000000000000000000000000ffffffff0704ffff001d010dffffffff0100f2052a010000004341048e2c3ad3142a375ee969eccb3e14470971d898bc67077f28293245b97afbc509d180829f4cd419c208c8302728dd51a6d88392fb30a09d3ec27dd23fb2346d03ac00000000"}]}