{"hash": "00000000d3e87c5021f142864817c02b5fd52b8f271d26740f1fe629b13b5333", "ver": 1, "prev_block": "0000000098efe4e81ec5fd517ba429722d776ae5fd04aceae90a2e43bc0572b7", "mrkl_root": "a5d3474ea57191b1c00742684448a065d24acf79226b504592db8657dce18d3b", "time": 1231825046, "bits": 486604799, "next_block": ["0000000004c43b1ba070fd83c0f34673d6b166c608b0ec733357b75b4c65fc1f"], "fee": 0, "nonce": 575090998, "n_tx": 1, "size": 215, "block_index": 290, "main_chain": true, "height": 290, "weight": 860, "tx": [{"hash": "a5d3474ea57191b1c00742684448a065d24acf79226b504592db8657dce18d3b", "ver": 1, "vin_sz": 1, "vout_sz": 1, "size": 134, "weight": 536, "fee": 0, "relayed_by": "0.0.0.0", "lock_time": 0, "tx_index": 2095378103726299, "double_spend": false, "time": 1231825046, "block_index": 290, "block_height": 290, "inputs": [{"sequence": 4294967295, "witness": "", "script": "04ffff001d0143", "index": 0, "prev_out": null}], "out": [{"type": 0, "spent": false, "value": 5000000000, "spending_outpoints": [], "n": 0, "tx_index": 2095378103726299, "script": "4104c5e171972b0a8b6705d3c4bbede3d07ccf6842c0667ca1ea711e3be17bb47bdcf66bafd95cc2d88928e597e280d529537e18e1934f4b71e48e30515baae76387ac", "addr": "15hzwjHLsh6KrZA8TUfQaAZ5o2yTPAuKfW"}], "hex": "01000000010000000000000000000000000000000000000000000000000000000000000000ffffffff0704ffff001d0143ffffffff0100f2052a01000000434104c5e171972b0a8b6705d3c4bbede3d07ccf6842c0667ca1ea711e3be17bb47bdcf66bafd95cc2d88928e597e280d529537e18e1934f4b71e48e30515baae76387ac00000000"}]}