{"hash": "0000000004c43b1ba070fd83c0f34673d6b166c608b0ec733357b75b4c65fc1f", "ver": 1, "prev_block": "00000000d3e87c5021f142864817c02b5fd52b8f271d26740f1fe629b13b5333", "mrkl_root": "eb82621de40f57f1d30612da0054f05e0ea5eb632951a6447098d0de02f7d721", "time": 1231825707, "bits": 486604799, "next_block": ["000000007716a1f58c0ac514031e7657a7cdbee9188545495558d3078375ee76"], "fee": 0, "nonce": 4217167624, "n_tx": 1, "size": 215, "block_index": 291, "main_chain": true, "height": 291, "weight": 860, "tx": [{"hash": "eb82621de40f57f1d30612da0054f05e0ea5eb632951a6447098d0de02f7d721", "ver": 1, "vin_sz": 1, "vout_sz": 1, "size": 134, "weight": 536, "fee": 0, "relayed_by": "0.0.0.0", "lock_time": 0, "tx_index": 1190766267062803, "double_spend": false, "time": 1231825707, "block_index": 291, "block_height": 291, "inputs": [{"sequence": 4294967295, "witness": "", "script": "04ffff001d0149", "index": 0, "prev_out": null}], "out": [{"type": 0, "spent": false, "value": 5000000000, "spending_outpoints": [], "n": 0, "tx_index": 1190766267062803, "script": "4104e4f9036d570bcfc3a0de4ebe15f39fa6cac3aa3437261586be41c814747aed85744edfe681623a38a64c64c5782c4cd461346683ab8fade075a40357385b452aac", "addr": "1EAogPN6gFH9wnVdRz47MwG3W5zC2Qwmgm"}], "hex": "01000000010000000000000000000000000000000000000000000000000000000000000000ffffffff0704ffff001d0149ffffffff0100f2052a01000000434104e4f9036d570bcfc3a0de4ebe15f39fa6cac3aa3437261586be41c814747aed85744edfe681623a38a64c64c5782c4cd461346683ab8fade075a40357385b452aac00000000"}]}