{"hash": "000000007716a1f58c0ac514031e7657a7cdbee9188545495558d3078375ee76", "ver": 1, "prev_block": "0000000004c43b1ba070fd83c0f34673d6b166c608b0ec733357b75b4c65fc1f", "mrkl_root": "5b3f0a651529bde1ea8f2368d631752be0e28d1fd5f287cc86d63ae0983a1ac2", "time": 1231826633, "bits": 486604799, "next_block": ["000000008f106f9bbd4d9d5dd412e4aeab83203d10a4125d03ec60bbad295c21"], "fee": 0, "nonce": 4195347763, "n_tx": 1, "size": 215, "block_index": 292, "main_chain": true, "height": 292, "weight": 860, "tx": [{"hash": "5b3f0a651529bde1ea8f2368d631752be0e28d1fd5f287cc86d63ae0983a1ac2", "ver": 1, "vin_sz": 1, "vout_sz": 1, "size": 134, "weight": 536, "fee": 0, "relayed_by": "0.0.0.0", "lock_time": 0, "tx_index": 6829373057140570, "double_spend": false, "time": 1231826633, "block_index": 292, "block_height": 292, "inputs": [{"sequence": 4294967295, "witness": "", "script": "04ffff001d014f", "index": 0, "prev_out": null}], "out": [{"type": 0, "spent": false, "value": 5000000000, "spending_outpoints": [], "n": 0, "tx_index": 6829373057140570, "script": "4104570e9ceaddb8d3ef5732c099891312d949716699bce582301221d74fe4595e91f04a0379bfa893def05fc02477206c72e02f4fe2ee8f133e27d30c072489ae82ac", "addr": "1LvoT1k6zyAgnaywhQ3D86gHLoFyok2VuP"}], "hex": "01000000010000000000000000000000000000000000000000000000000000000000000000ffffffff0704ffff001d014fffffffff0100f2052a01000000434104570e9ceaddb8d3ef5732c099891312d949716699bce582301221d74fe4595e91f04a0379bfa893def05fc02477206c72e02f4fe2ee8f133e27d30c072489ae82ac00000000"}]}