{"hash": "000000008f106f9bbd4d9d5dd412e4aeab83203d10a4125d03ec60bbad295c21", "ver": 1, "prev_block": "000000007716a1f58c0ac514031e7657a7cdbee9188545495558d3078375ee76", "mrkl_root": "065fab4aac42671a74eee036873d71fd209102b0e2c7a0bd5910e1a31d507c98", "time": 1231827489, "bits": 486604799, "next_block": ["0000000036b2f63a6f2e070dafbb6e47259d3ae00d4d2d0c7df4ec6a2271a7bc"], "fee": 0, "nonce": 3567640611, "n_tx": 1, "size": 215, "block_index": 293, "main_chain": true, "height": 293, "weight": 860, "tx": [{"hash": "065fab4aac42671a74eee036873d71fd209102b0e2c7a0bd5910e1a31d507c98", "ver": 1, "vin_sz": 1, "vout_sz": 1, "size": 134, "weight": 536, "fee": 0, "relayed_by": "0.0.0.0", "lock_time": 0, "tx_index": 5365109999565858, "double_spend": false, "time": 1231827489, "block_index": 293, "block_height": 293, "inputs": [{"sequence": 4294967295, "witness": "", "script": "04ffff001d0152", "index": 0, "prev_out": null}], "out": [{"type": 0, "spent": false, "value": 5000000000, "spending_outpoints": [], "n": 0, "tx_index": 5365109999565858, "script": "410470d1423c0b381f9aca46f7394c893a2aa4dbee6739acd6bd2c228976e13446ba88254032b12425cd6bde5a65615af24a954e4feb65e2332c488dee6767848042ac", "addr": "17toKvqM63FwvpveEBrNt8qNGd3WYA9rwK"}], "hex": "01000000010000000000000000000000000000000000000000000000000000000000000000ffffffff0704ffff001d0152ffffffff0100f2052a0100000043410470d1423c0b381f9aca46f7394c893a2aa4dbee6739acd6bd2c228976e13446ba88254032b12425cd6bde5a65615af24a954e4feb65e2332c488dee6767848042ac00000000"}]}