{"hash": "0000000036b2f63a6f2e070dafbb6e47259d3ae00d4d2d0c7df4ec6a2271a7bc", "ver": 1, "prev_block": "000000008f106f9bbd4d9d5dd412e4aeab83203d10a4125d03ec60bbad295c21", "mrkl_root": "5fd9ffe4c3092162852b3befd8bf1115fc8d5f707d51dacde01e32f586a7ad07", "time": 1231828541, "bits": 486604799, "next_block": ["0000000038b1083b5e97f9fe1d9b18f53bbebcd95dfe4025ae4ebced103a17ba"], "fee": 0, "nonce": 3967345439, "n_tx": 1, "size": 215, "block_index": 294, "main_chain": true, "height": 294, "weight": 860, "tx": [{"hash": "5fd9ffe4c3092162852b3befd8bf1115fc8d5f707d51dacde01e32f586a7ad07", "ver": 1, "vin_sz": 1, "vout_sz": 1, "size": 134, "weight": 536, "fee": 0, "relayed_by": "0.0.0.0", "lock_time": 0, "tx_index": 270157484041795, "double_spend": false, "time": 1231828541, "block_index": 294, "block_height": 294, "inputs": [{"sequence": 4294967295, "witness": "", "script": "04ffff001d015a", "index": 0, "prev_out": null}], "out": [{"type": 0, "spent": false, "value": 5000000000, "spending_outpoints": [], "n": 0, "tx_index": 270157484041795, "script": "4104076a602145c7223e8c3819a05b19d23bdb1e1fa405c3b344fd6669350955a8070593f084b872652db84c3553cbb4cdeee6e0eb48dcf44b37be02c1279e6149f5ac", "addr": "12AXzKtoBd98ZnVUoDs7yH82wqZWennFiU"}], "hex": "01000000010000000000000000000000000000000000000000000000000000000000000000ffffffff0704ffff001d015affffffff0100f2052a01000000434104076a602145c7223e8c3819a05b19d23bdb1e1fa405c3b344fd6669350955a8070593f084b872652db84c3553cbb4cdeee6e0eb48dcf44b37be02c1279e6149f5ac00000000"}]}