{"hash": "0000000038b1083b5e97f9fe1d9b18f53bbebcd95dfe4025ae4ebced103a17ba", "ver": 1, "prev_block": "0000000036b2f63a6f2e070dafbb6e47259d3ae00d4d2d0c7df4ec6a2271a7bc", "mrkl_root": "7e0112d69dcf86bdbb0fc74243751d7ba7c1984e898685994054c17fb156688e", "time": 1231829183, "bits": 486604799, "next_block": ["000000006c6d02760d64950b1ef3565fc9195fd758c4f9b3cf1037c055c95dcc"], "fee": 0, "nonce": 266405687, "n_tx": 1, "size": 215, "block_index": 295, "main_chain": true, "height": 295, "weight": 860, "tx": [{"hash": "7e0112d69dcf86bdbb0fc74243751d7ba7c1984e898685994054c17fb156688e", "ver": 1, "vin_sz": 1, "vout_sz": 1, "size": 134, "weight": 536, "fee": 0, "relayed_by": "0.0.0.0", "lock_time": 0, "tx_index": 5010521030916138, "double_spend": false, "time": 1231829183, "block_index": 295, "block_height": 295, "inputs": [{"sequence": 4294967295, "witness": "", "script": "04ffff001d015d", "index": 0, "prev_out": null}], "out": [{"type": 0, "spent": false, "value": 5000000000, "spending_outpoints": [], "n": 0, "tx_index": 5010521030916138, "script": "4104a75011f22ef038bc437ba8c30c4deaf7ba4c8b105f54419a302f1b4e650b5d76db4d9dee5cb2701c10dda613e722183b7b157617e1032b9eb5f2a407695c82b2ac", "addr": "1P288r1CHfCRcHh4hqKzrYP2dohbGHmCLk"}], "hex": "01000000010000000000000000000000000000000000000000000000000000000000000000ffffffff0704ffff001d015dffffffff0100f2052a01000000434104a75011f22ef038bc437ba8c30c4deaf7ba4c8b105f54419a302f1b4e650b5d76db4d9dee5cb2701c10dda613e722183b7b157617e1032b9eb5f2a407695c82b2ac00000000"}]}