{"hash": "000000006c6d02760d64950b1ef3565fc9195fd758c4f9b3cf1037c055c95dcc", "ver": 1, "prev_block": "0000000038b1083b5e97f9fe1d9b18f53bbebcd95dfe4025ae4ebced103a17ba", "mrkl_root": "eda65f77e1d65f6c8f168fcfd7c2187db499f5d077027be9f001d0446a9f73a5", "time": 1231829684, "bits": 486604799, "next_block": ["00000000d80530efa37319e4b4508b0759fdab8ea8a81272cbe8986881489507"], "fee": 0, "nonce": 91557334, "n_tx": 1, "size": 215, "block_index": 296, "main_chain": true, "height": 296, "weight": 860, "tx": [{"hash": "eda65f77e1d65f6c8f168fcfd7c2187db499f5d077027be9f001d0446a9f73a5", "ver": 1, "vin_sz": 1, "vout_sz": 1, "size": 134, "weight": 536, "fee": 0, "relayed_by": "0.0.0.0", "lock_time": 0, "tx_index": 5821312459643392, "double_spend": false, "time": 1231829684, "block_index": 296, "block_height": 296, "inputs": [{"sequence": 4294967295, "witness": "", "script": "04ffff001d0126", "index": 0, "prev_out": null}], "out": [{"type": 0, "spent": false, "value": 5000000000, "spending_outpoints": [], "n": 0, "tx_index": 5821312459643392, "script": "41044d4d78c0e46abc30e614f31181fbd7ce49b0676662b60996dc0b1a1e19490bf069b67ef7ae17a6f78b07a938d1b475a77b0f1fbe9527db6af51e5a7fbddf4d57ac", "addr": "1HcXn87cPhmspgBPw4hN6tzELshYMxRuE1"}], "hex": "01000000010000000000000000000000000000000000000000000000000000000000000000ffffffff0704ffff001d0126ffffffff0100f2052a010000004341044d4d78c0e46abc30e614f31181fbd7ce49b0676662b60996dc0b1a1e19490bf069b67ef7ae17a6f78b07a938d1b475a77b0f1fbe9527db6af51e5a7fbddf4d57ac00000000"}]}