{"hash": "00000000d80530efa37319e4b4508b0759fdab8ea8a81272cbe8986881489507", "ver": 1, "prev_block": "000000006c6d02760d64950b1ef3565fc9195fd758c4f9b3cf1037c055c95dcc", "mrkl_root": "049fa60fe6206f36ceef739b5c1ef92b330a2c5a32da9e6e0f338133170662cc", "time": 1231829772, "bits": 486604799, "next_block": ["00000000db29ac0d2a702411bd9ed3972ed81fedc25a9a84635b09949f077ca9"], "fee": 0, "nonce": 1607530807, "n_tx": 1, "size": 215, "block_index": 297, "main_chain": true, "height": 297, "weight": 860, "tx": [{"hash": "049fa60fe6206f36ceef739b5c1ef92b330a2c5a32da9e6e0f338133170662cc", "ver": 1, "vin_sz": 1, "vout_sz": 1, "size": 134, "weight": 536, "fee": 0, "relayed_by": "0.0.0.0", "lock_time": 0, "tx_index": 7191084193443878, "double_spend": false, "time": 1231829772, "block_index": 297, "block_height": 297, "inputs": [{"sequence": 4294967295, "witness": "", "script": "04ffff001d015e", "index": 0, "prev_out": null}], "out": [{"type": 0, "spent": false, "value": 5000000000, "spending_outpoints": [], "n": 0, "tx_index": 7191084193443878, "script": "4104730438d4e0c729dc2d2558de12d2a815798ab9af63c77af569bbd5b05bcfb8652f8f75b539e53e9da9397ff7d2054053de093e9105723e63be782255773e1f5fac", "addr": "1AXJrJMX3B5B9vd1hRv9w52ns8fAtMNSwM"}], "hex": "01000000010000000000000000000000000000000000000000000000000000000000000000ffffffff0704ffff001d015effffffff0100f2052a01000000434104730438d4e0c729dc2d2558de12d2a815798ab9af63c77af569bbd5b05bcfb8652f8f75b539e53e9da9397ff7d2054053de093e9105723e63be782255773e1f5fac00000000"}]}