{"hash": "00000000db29ac0d2a702411bd9ed3972ed81fedc25a9a84635b09949f077ca9", "ver": 1, "prev_block": "00000000d80530efa37319e4b4508b0759fdab8ea8a81272cbe8986881489507", "mrkl_root": "4c90008a759d98f976225da08edf81e8b80f4dbf399e74d6d7574587b90129ce", "time": 1231830791, "bits": 486604799, "next_block": ["00000000b9b003c04b2fe21b4f7a2fa809eb643852573c3a1748653e2019f01c"], "fee": 0, "nonce": 2788586270, "n_tx": 1, "size": 215, "block_index": 298, "main_chain": true, "height": 298, "weight": 860, "tx": [{"hash": "4c90008a759d98f976225da08edf81e8b80f4dbf399e74d6d7574587b90129ce", "ver": 1, "vin_sz": 1, "vout_sz": 1, "size": 134, "weight": 536, "fee": 0, "relayed_by": "0.0.0.0", "lock_time": 0, "tx_index": 7253616573343914, "double_spend": false, "time": 1231830791, "block_index": 298, "block_height": 298, "inputs": [{"sequence": 4294967295, "witness": "", "script": "04ffff001d0160", "index": 0, "prev_out": null}], "out": [{"type": 0, "spent": false, "value": 5000000000, "spending_outpoints": [], "n": 0, "tx_index": 7253616573343914, "script": "4104ce950edadb77b12530d1fd439b4c006f0e2b42ec7a0197ecd014c668a3f6e786517ace8b0a247da15928a8069c6a8f1536c3abe728886b9e9ccbfa4ff83fc602ac", "addr": "1H3i2DL3rDKWsbTSqXHDU3YkeDT5TGP3cy"}], "hex": "01000000010000000000000000000000000000000000000000000000000000000000000000ffffffff0704ffff001d0160ffffffff0100f2052a01000000434104ce950edadb77b12530d1fd439b4c006f0e2b42ec7a0197ecd014c668a3f6e786517ace8b0a247da15928a8069c6a8f1536c3abe728886b9e9ccbfa4ff83fc602ac00000000"}]}