{"hash": "00000000b9b003c04b2fe21b4f7a2fa809eb643852573c3a1748653e2019f01c", "ver": 1, "prev_block": "00000000db29ac0d2a702411bd9ed3972ed81fedc25a9a84635b09949f077ca9", "mrkl_root": "4f730d9ea9f3217440df67d200d74f49b2f6f5f794674ba3b24b5c905c1c937e", "time": 1231831694, "bits": 486604799, "next_block": ["0000000062b69e4a2c3312a5782d7798b0711e9ebac065cd5d19f946439f8609"], "fee": 0, "nonce": 2492032789, "n_tx": 1, "size": 215, "block_index": 299, "main_chain": true, "height": 299, "weight": 860, "tx": [{"hash": "4f730d9ea9f3217440df67d200d74f49b2f6f5f794674ba3b24b5c905c1c937e", "ver": 1, "vin_sz": 1, "vout_sz": 1, "size": 134, "weight": 536, "fee": 0, "relayed_by": "0.0.0.0", "lock_time": 0, "tx_index": 4453449635859337, "double_spend": false, "time": 1231831694, "block_index": 299, "block_height": 299, "inputs": [{"sequence": 4294967295, "witness": "", "script": "04ffff001d0164", "index": 0, "prev_out": null}], "out": [{"type": 0, "spent": false, "value": 5000000000, "spending_outpoints": [], "n": 0, "tx_index": 4453449635859337, "script": "4104f1d8aedbb24f698b2fde2266671f792367fa55e88d8071ebe67cdb8778123c4714091d4a833a2f5bd23015e45ac258e001d1ffac52cec6ec5ebfd3974439d74fac", "addr": "1HtKKEB428rBJxQ6pGMusuGH6SxVjruydf"}], "hex": "01000000010000000000000000000000000000000000000000000000000000000000000000ffffffff0704ffff001d0164ffffffff0100f2052a01000000434104f1d8aedbb24f698b2fde2266671f792367fa55e88d8071ebe67cdb8778123c4714091d4a833a2f5bd23015e45ac258e001d1ffac52cec6ec5ebfd3974439d74fac00000000"}]}