{"hash": "0000000082b5015589a3fdf2d4baff403e6f0be035a5d9742c1cae6295464449", "ver": 1, "prev_block": "000000006a625f06636b8bb6ac7b960a8d03705d1ace08b1a19da3fdcc99ddbd", "mrkl_root": "999e1c837c76a1b7fbb7e57baf87b309960f5ffefbf2a9b95dd890602272f644", "time": 1231470173, "bits": 486604799, "next_block": ["000000004ebadb55ee9096c9a2f8880e09da59c0d68b1c228da88e48844a1485"], "fee": 0, "nonce": 1844305925, "n_tx": 1, "size": 215, "block_index": 3, "main_chain": true, "height": 3, "weight": 860, "tx": [{"hash": "999e1c837c76a1b7fbb7e57baf87b309960f5ffefbf2a9b95dd890602272f644", "ver": 1, "vin_sz": 1, "vout_sz": 1, "size": 134, "weight": 536, "fee": 0, "relayed_by": "0.0.0.0", "lock_time": 0, "tx_index": 2426408559972891, "double_spend": false, "time": 1231470173, "block_index": 3, "block_height": 3, "inputs": [{"sequence": 4294967295, "witness": "", "script": "04ffff001d010e", "index": 0, "prev_out": null}], "out": [{"type": 0, "spent": false, "value": 5000000000, "spending_outpoints": [], "n": 0, "tx_index": 2426408559972891, "script": "410494b9d3e76c5b1629ecf97fff95d7a4bbdac87cc26099ada28066c6ff1eb9191223cd897194a08d0c2726c5747f1db49e8cf90e75dc3e3550ae9b30086f3cd5aaac", "addr": "1FvzCLoTPGANNjWoUo6jUGuAG3wg1w4YjR"}], "hex": "01000000010000000000000000000000000000000000000000000000000000000000000000ffffffff0704ffff001d010effffffff0100f2052a0100000043410494b9d3e76c5b1629ecf97fff95d7a4bbdac87cc26099ada28066c6ff1eb9191223cd897194a08d0c2726c5747f1db49e8cf90e75dc3e3550ae9b30086f3cd5aaac00000000"}]}