{"hash": "00000000bc919cfb64f62de736d55cf79e3d535b474ace256b4fbb56073f64db", "ver": 1, "prev_block": "00000000c57a1b6351208c592eef8eff015d93c899a047fe35b35252a4a59bcb", "mrkl_root": "f5e26c8b82401c585235c572ba8265f16f7d9304ed8e31c198eab571754f5331", "time": 1231602122, "bits": 486604799, "next_block": ["000000009700ff3494f215c412cd8c0ceabf1deb0df03ce39bcfc223b769d3c4"], "fee": 0, "nonce": 3893691144, "n_tx": 1, "size": 215, "block_index": 30, "main_chain": true, "height": 30, "weight": 860, "tx": [{"hash": "f5e26c8b82401c585235c572ba8265f16f7d9304ed8e31c198eab571754f5331", "ver": 1, "vin_sz": 1, "vout_sz": 1, "size": 134, "weight": 536, "fee": 0, "relayed_by": "0.0.0.0", "lock_time": 0, "tx_index": 1735484324591293, "double_spend": false, "time": 1231602122, "block_index": 30, "block_height": 30, "inputs": [{"sequence": 4294967295, "witness": "", "script": "04ffff001d0121", "index": 0, "prev_out": null}], "out": [{"type": 0, "spent": false, "value": 5000000000, "spending_outpoints": [], "n": 0, "tx_index": 1735484324591293, "script": "41042cf59fafd089a348c5834283573608e89a305c60a034604c7d22dde50998f1b9bb74681986ca1884a6b1df8ce7f1b79a2277057de855a634626e7a5851c1e716ac", "addr": "17x23dNjXJLzGMev6R63uyRhMWP1VHawKc"}], "hex": "01000000010000000000000000000000000000000000000000000000000000000000000000ffffffff0704ffff001d0121ffffffff0100f2052a010000004341042cf59fafd089a348c5834283573608e89a305c60a034604c7d22dde50998f1b9bb74681986ca1884a6b1df8ce7f1b79a2277057de855a634626e7a5851c1e716ac00000000"}]}