{"hash": "0000000062b69e4a2c3312a5782d7798b0711e9ebac065cd5d19f946439f8609", "ver": 1, "prev_block": "00000000b9b003c04b2fe21b4f7a2fa809eb643852573c3a1748653e2019f01c", "mrkl_root": "bc15f9dcbe637c187bb94247057b14637316613630126fc396c22e08b89006ea", "time": 1231832435, "bits": 486604799, "next_block": ["00000000a23332a5740d8676baabcbffe490fd8849b6d30f7399b83aedd733f6"], "fee": 0, "nonce": 951842076, "n_tx": 1, "size": 215, "block_index": 300, "main_chain": true, "height": 300, "weight": 860, "tx": [{"hash": "bc15f9dcbe637c187bb94247057b14637316613630126fc396c22e08b89006ea", "ver": 1, "vin_sz": 1, "vout_sz": 1, "size": 134, "weight": 536, "fee": 0, "relayed_by": "0.0.0.0", "lock_time": 0, "tx_index": 8234045397861848, "double_spend": false, "time": 1231832435, "block_index": 300, "block_height": 300, "inputs": [{"sequence": 4294967295, "witness": "", "script": "04ffff001d016a", "index": 0, "prev_out": null}], "out": [{"type": 0, "spent": false, "value": 5000000000, "spending_outpoints": [], "n": 0, "tx_index": 8234045397861848, "script": "41043d44d78421a180a22042e60da571124100de0fa09534279ae8599abf8e46207a9d64330b27c3a3e9736ab6f3c88e6c18c2386966dc3845c7b22178557e86baf7ac", "addr": "1Pi8agZKamjLJxfeGRUpGWGQimb8N21Hig"}], "hex": "01000000010000000000000000000000000000000000000000000000000000000000000000ffffffff0704ffff001d016affffffff0100f2052a010000004341043d44d78421a180a22042e60da571124100de0fa09534279ae8599abf8e46207a9d64330b27c3a3e9736ab6f3c88e6c18c2386966dc3845c7b22178557e86baf7ac00000000"}]}