{"hash": "00000000a23332a5740d8676baabcbffe490fd8849b6d30f7399b83aedd733f6", "ver": 1, "prev_block": "0000000062b69e4a2c3312a5782d7798b0711e9ebac065cd5d19f946439f8609", "mrkl_root": "a6bfbb7c1fdddcf4a356f0e23a4d141020d6308027c2edc2313ca2399cae2474", "time": 1231833175, "bits": 486604799, "next_block": ["000000007eff6cf2aaf401206860911f5c41565162de63e687d627e20335ef0a"], "fee": 0, "nonce": 573037870, "n_tx": 1, "size": 215, "block_index": 301, "main_chain": true, "height": 301, "weight": 860, "tx": [{"hash": "a6bfbb7c1fdddcf4a356f0e23a4d141020d6308027c2edc2313ca2399cae2474", "ver": 1, "vin_sz": 1, "vout_sz": 1, "size": 134, "weight": 536, "fee": 0, "relayed_by": "0.0.0.0", "lock_time": 0, "tx_index": 4086428707796039, "double_spend": false, "time": 1231833175, "block_index": 301, "block_height": 301, "inputs": [{"sequence": 4294967295, "witness": "", "script": "04ffff001d016f", "index": 0, "prev_out": null}], "out": [{"type": 0, "spent": false, "value": 5000000000, "spending_outpoints": [], "n": 0, "tx_index": 4086428707796039, "script": "4104775188a177293003d8f00a903450f9446d26b24667422fbd200325b2b0acd4d2abf9ca8802bb77d8e5da92803ef988261eafcc95959206b12fa02a8c720f6539ac", "addr": "1NFvr69GyzW3GLGdsNKZ8vW5yRa5Ndy8D"}], "hex": "01000000010000000000000000000000000000000000000000000000000000000000000000ffffffff0704ffff001d016fffffffff0100f2052a01000000434104775188a177293003d8f00a903450f9446d26b24667422fbd200325b2b0acd4d2abf9ca8802bb77d8e5da92803ef988261eafcc95959206b12fa02a8c720f6539ac00000000"}]}