{"hash": "000000007eff6cf2aaf401206860911f5c41565162de63e687d627e20335ef0a", "ver": 1, "prev_block": "00000000a23332a5740d8676baabcbffe490fd8849b6d30f7399b83aedd733f6", "mrkl_root": "e3571250e3f925ce7af635e1b049db5a7f3d10ab43f8961b3e5c8d4a8845cae1", "time": 1231833861, "bits": 486604799, "next_block": ["000000006be00235ed1d0b71d20f33c3daaba0a3ebd8169967ce94e32b288860"], "fee": 0, "nonce": 4007265592, "n_tx": 1, "size": 215, "block_index": 302, "main_chain": true, "height": 302, "weight": 860, "tx": [{"hash": "e3571250e3f925ce7af635e1b049db5a7f3d10ab43f8961b3e5c8d4a8845cae1", "ver": 1, "vin_sz": 1, "vout_sz": 1, "size": 134, "weight": 536, "fee": 0, "relayed_by": "0.0.0.0", "lock_time": 0, "tx_index": 7944283718504875, "double_spend": false, "time": 1231833861, "block_index": 302, "block_height": 302, "inputs": [{"sequence": 4294967295, "witness": "", "script": "04ffff001d0170", "index": 0, "prev_out": null}], "out": [{"type": 0, "spent": false, "value": 5000000000, "spending_outpoints": [], "n": 0, "tx_index": 7944283718504875, "script": "4104b6546b932e5fbb27ba58d4b7466275ca16bb365b635e440ce38d81661addf4a5c9cd32b08963c69d4c35ae512a6dbcf981cd503929b582f827abb0ceb6fe07b3ac", "addr": "1ELTDVM85P22TdMkK6asC5Sxzywafi1JKL"}], "hex": "01000000010000000000000000000000000000000000000000000000000000000000000000ffffffff0704ffff001d0170ffffffff0100f2052a01000000434104b6546b932e5fbb27ba58d4b7466275ca16bb365b635e440ce38d81661addf4a5c9cd32b08963c69d4c35ae512a6dbcf981cd503929b582f827abb0ceb6fe07b3ac00000000"}]}