{"hash": "000000006be00235ed1d0b71d20f33c3daaba0a3ebd8169967ce94e32b288860", "ver": 1, "prev_block": "000000007eff6cf2aaf401206860911f5c41565162de63e687d627e20335ef0a", "mrkl_root": "509cbf04b709f7f643fe71be1a97f8c494fd103bbb06809ac84ec2a4c3332d27", "time": 1231835108, "bits": 486604799, "next_block": ["00000000375cc7513d56fdbba5c1e1adb0d69e662fd09dd14238bc627b66aadc"], "fee": 0, "nonce": 908414002, "n_tx": 1, "size": 215, "block_index": 303, "main_chain": true, "height": 303, "weight": 860, "tx": [{"hash": "509cbf04b709f7f643fe71be1a97f8c494fd103bbb06809ac84ec2a4c3332d27", "ver": 1, "vin_sz": 1, "vout_sz": 1, "size": 134, "weight": 536, "fee": 0, "relayed_by": "0.0.0.0", "lock_time": 0, "tx_index": 1378403055081545, "double_spend": false, "time": 1231835108, "block_index": 303, "block_height": 303, "inputs": [{"sequence": 4294967295, "witness": "", "script": "04ffff001d017a", "index": 0, "prev_out": null}], "out": [{"type": 0, "spent": false, "value": 5000000000, "spending_outpoints": [], "n": 0, "tx_index": 1378403055081545, "script": "4104fc4acadc6722fe57af749e4f708159d2aab95a98b46699cf3b72a536ddd536b5a4ee3dfd6e04e20b73d48769f2f1df55f37e56528aa4e37b6237ab745ebca23aac", "addr": "1CKpZiWmAKZywrXx2ocrP58NMUnupUhKbG"}], "hex": "01000000010000000000000000000000000000000000000000000000000000000000000000ffffffff0704ffff001d017affffffff0100f2052a01000000434104fc4acadc6722fe57af749e4f708159d2aab95a98b46699cf3b72a536ddd536b5a4ee3dfd6e04e20b73d48769f2f1df55f37e56528aa4e37b6237ab745ebca23aac00000000"}]}