{"hash": "00000000375cc7513d56fdbba5c1e1adb0d69e662fd09dd14238bc627b66aadc", "ver": 1, "prev_block": "000000006be00235ed1d0b71d20f33c3daaba0a3ebd8169967ce94e32b288860", "mrkl_root": "59a89b39a39db71b950be0dc8677be71a853260fc0250ef25e71fb0ad8196fdf", "time": 1231835642, "bits": 486604799, "next_block": ["0000000055650460d2d0c657bfbc52cac36a01a95bc5296446b50b79269cde67"], "fee": 0, "nonce": 416173622, "n_tx": 1, "size": 216, "block_index": 304, "main_chain": true, "height": 304, "weight": 864, "tx": [{"hash": "59a89b39a39db71b950be0dc8677be71a853260fc0250ef25e71fb0ad8196fdf", "ver": 1, "vin_sz": 1, "vout_sz": 1, "size": 135, "weight": 540, "fee": 0, "relayed_by": "0.0.0.0", "lock_time": 0, "tx_index": 7861384574492526, "double_spend": false, "time": 1231835642, "block_index": 304, "block_height": 304, "inputs": [{"sequence": 4294967295, "witness": "", "script": "04ffff001d028200", "index": 0, "prev_out": null}], "out": [{"type": 0, "spent": false, "value": 5000000000, "spending_outpoints": [], "n": 0, "tx_index": 7861384574492526, "script": "41044c34930120df2c6dbef3a8ee768c69b40fe664291796e575f363bda1728876ac3b77c56a69c053014ea8bf79aba2f15faa60707bca2e125ded287dc8be2fb0acac", "addr": "13ZhaKAv6Rb73ycrL868x3LA5xfnmE7Xyj"}], "hex": "01000000010000000000000000000000000000000000000000000000000000000000000000ffffffff0804ffff001d028200ffffffff0100f2052a010000004341044c34930120df2c6dbef3a8ee768c69b40fe664291796e575f363bda1728876ac3b77c56a69c053014ea8bf79aba2f15faa60707bca2e125ded287dc8be2fb0acac00000000"}]}