{"hash": "0000000055650460d2d0c657bfbc52cac36a01a95bc5296446b50b79269cde67", "ver": 1, "prev_block": "00000000375cc7513d56fdbba5c1e1adb0d69e662fd09dd14238bc627b66aadc", "mrkl_root": "ffe47b80afe6581bfb31bd0a184276a1c23906d324b56ec2d2a349e115910216", "time": 1231836755, "bits": 486604799, "next_block": ["00000000ef3b918293d5b533a43ef16d95742b39f9a0372996814a180543c3b8"], "fee": 0, "nonce": 3221452319, "n_tx": 1, "size": 216, "block_index": 305, "main_chain": true, "height": 305, "weight": 864, "tx": [{"hash": "ffe47b80afe6581bfb31bd0a184276a1c23906d324b56ec2d2a349e115910216", "ver": 1, "vin_sz": 1, "vout_sz": 1, "size": 135, "weight": 540, "fee": 0, "relayed_by": "0.0.0.0", "lock_time": 0, "tx_index": 774408956029236, "double_spend": false, "time": 1231836755, "block_index": 305, "block_height": 305, "inputs": [{"sequence": 4294967295, "witness": "", "script": "04ffff001d028800", "index": 0, "prev_out": null}], "out": [{"type": 0, "spent": false, "value": 5000000000, "spending_outpoints": [], "n": 0, "tx_index": 774408956029236, "script": "4104a5d40aa3a8a0553e226043dc0a8e00f74c83c5fadddf6050a7201a7a3ce725787f0c3fdb3f584581c1185eb7f920dbfed226e6e0382b0a73e30139a80fe0e2b7ac", "addr": "1HMvTfyWMdJ6rP2LjQ92tPL6Qmt53fBScr"}], "hex": "01000000010000000000000000000000000000000000000000000000000000000000000000ffffffff0804ffff001d028800ffffffff0100f2052a01000000434104a5d40aa3a8a0553e226043dc0a8e00f74c83c5fadddf6050a7201a7a3ce725787f0c3fdb3f584581c1185eb7f920dbfed226e6e0382b0a73e30139a80fe0e2b7ac00000000"}]}