{"hash": "00000000ef3b918293d5b533a43ef16d95742b39f9a0372996814a180543c3b8", "ver": 1, "prev_block": "0000000055650460d2d0c657bfbc52cac36a01a95bc5296446b50b79269cde67", "mrkl_root": "c860f14427dd40ca724600f78effce48aa0937e3300946903149276af9ea634b", "time": 1231837946, "bits": 486604799, "next_block": ["0000000011d68e7505461a2ae9aa7a9e4b4d3a010e6de8ae1d4e3bbcca98409b"], "fee": 0, "nonce": 3507606049, "n_tx": 1, "size": 216, "block_index": 306, "main_chain": true, "height": 306, "weight": 864, "tx": [{"hash": "c860f14427dd40ca724600f78effce48aa0937e3300946903149276af9ea634b", "ver": 1, "vin_sz": 1, "vout_sz": 1, "size": 135, "weight": 540, "fee": 0, "relayed_by": "0.0.0.0", "lock_time": 0, "tx_index": 2652560513909993, "double_spend": false, "time": 1231837946, "block_index": 306, "block_height": 306, "inputs": [{"sequence": 4294967295, "witness": "", "script": "04ffff001d029400", "index": 0, "prev_out": null}], "out": [{"type": 0, "spent": false, "value": 5000000000, "spending_outpoints": [], "n": 0, "tx_index": 2652560513909993, "script": "41045c3046714f11270f239aaa035519d13dd12f84c7f8103bf7554dde0867cb9aa6300563373362baa19cf4eefd105c3f6027cc1660bf1f607ca765dd3df82e3b90ac", "addr": "1C2XQeritz4rkdff9kiUtL9MPUrH3KXkd2"}], "hex": "01000000010000000000000000000000000000000000000000000000000000000000000000ffffffff0804ffff001d029400ffffffff0100f2052a010000004341045c3046714f11270f239aaa035519d13dd12f84c7f8103bf7554dde0867cb9aa6300563373362baa19cf4eefd105c3f6027cc1660bf1f607ca765dd3df82e3b90ac00000000"}]}