{"hash": "0000000011d68e7505461a2ae9aa7a9e4b4d3a010e6de8ae1d4e3bbcca98409b", "ver": 1, "prev_block": "00000000ef3b918293d5b533a43ef16d95742b39f9a0372996814a180543c3b8", "mrkl_root": "edcf0176cfbb5c2f69f881f921c11405c3350173769a5cf8d10f6352fbecf085", "time": 1231838493, "bits": 486604799, "next_block": ["000000008a2d970d0e70426780035154342a0416903899925cf9283e815da494"], "fee": 0, "nonce": 3175039514, "n_tx": 1, "size": 216, "block_index": 307, "main_chain": true, "height": 307, "weight": 864, "tx": [{"hash": "edcf0176cfbb5c2f69f881f921c11405c3350173769a5cf8d10f6352fbecf085", "ver": 1, "vin_sz": 1, "vout_sz": 1, "size": 135, "weight": 540, "fee": 0, "relayed_by": "0.0.0.0", "lock_time": 0, "tx_index": 4712634065243233, "double_spend": false, "time": 1231838493, "block_index": 307, "block_height": 307, "inputs": [{"sequence": 4294967295, "witness": "", "script": "04ffff001d02a000", "index": 0, "prev_out": null}], "out": [{"type": 0, "spent": false, "value": 5000000000, "spending_outpoints": [], "n": 0, "tx_index": 4712634065243233, "script": "41041de9657ed4a975949f04deba8bace1ed6db61fec36cc909ce1c7ebb99d745e630a9d5c105606f3bb98479ad0d73ad7c7e25f99dc7b6357dae7928300bd131712ac", "addr": "1F69kZBVERfCmMzj8MvXm8U8p27isphqtY"}], "hex": "01000000010000000000000000000000000000000000000000000000000000000000000000ffffffff0804ffff001d02a000ffffffff0100f2052a010000004341041de9657ed4a975949f04deba8bace1ed6db61fec36cc909ce1c7ebb99d745e630a9d5c105606f3bb98479ad0d73ad7c7e25f99dc7b6357dae7928300bd131712ac00000000"}]}