{"hash": "000000008a2d970d0e70426780035154342a0416903899925cf9283e815da494", "ver": 1, "prev_block": "0000000011d68e7505461a2ae9aa7a9e4b4d3a010e6de8ae1d4e3bbcca98409b", "mrkl_root": "06c3a86183a526c1e1f4f3b743471ae08a642b5a0361f639f4f10b60b3a8932b", "time": 1231839461, "bits": 486604799, "next_block": ["00000000d3ec2f50772c2d42d4afb054c283555766a0ca1d8da65b9b5058a49e"], "fee": 0, "nonce": 3104981281, "n_tx": 1, "size": 216, "block_index": 308, "main_chain": true, "height": 308, "weight": 864, "tx": [{"hash": "06c3a86183a526c1e1f4f3b743471ae08a642b5a0361f639f4f10b60b3a8932b", "ver": 1, "vin_sz": 1, "vout_sz": 1, "size": 135, "weight": 540, "fee": 0, "relayed_by": "0.0.0.0", "lock_time": 0, "tx_index": 1533222096470398, "double_spend": false, "time": 1231839461, "block_index": 308, "block_height": 308, "inputs": [{"sequence": 4294967295, "witness": "", "script": "04ffff001d02a600", "index": 0, "prev_out": null}], "out": [{"type": 0, "spent": false, "value": 5000000000, "spending_outpoints": [], "n": 0, "tx_index": 1533222096470398, "script": "4104e2257e75e6b189f3123d59e638b2e2c80df0240e2ce9c2c7f421aca6f2f3aca4043752fb7b52e9dd175546da0b07f02f9a87d0b84403b2d5e0fb388ed9494722ac", "addr": "1KsYkCquJGy8nofXCRSmKWyLzeSqUogDXy"}], "hex": "01000000010000000000000000000000000000000000000000000000000000000000000000ffffffff0804ffff001d02a600ffffffff0100f2052a01000000434104e2257e75e6b189f3123d59e638b2e2c80df0240e2ce9c2c7f421aca6f2f3aca4043752fb7b52e9dd175546da0b07f02f9a87d0b84403b2d5e0fb388ed9494722ac00000000"}]}