{"hash": "00000000d3ec2f50772c2d42d4afb054c283555766a0ca1d8da65b9b5058a49e", "ver": 1, "prev_block": "000000008a2d970d0e70426780035154342a0416903899925cf9283e815da494", "mrkl_root": "f2d386c0632e927c343cff451a81a8a03eaa6e9316dab79e56d83e218e329bd3", "time": 1231839504, "bits": 486604799, "next_block": ["00000000ee59cb43445c8e4533582ef5a1b69be6a23eb496efc1cc6767b994f7"], "fee": 0, "nonce": 3675115, "n_tx": 1, "size": 215, "block_index": 309, "main_chain": true, "height": 309, "weight": 860, "tx": [{"hash": "f2d386c0632e927c343cff451a81a8a03eaa6e9316dab79e56d83e218e329bd3", "ver": 1, "vin_sz": 1, "vout_sz": 1, "size": 134, "weight": 536, "fee": 0, "relayed_by": "0.0.0.0", "lock_time": 0, "tx_index": 7445232690145243, "double_spend": false, "time": 1231839504, "block_index": 309, "block_height": 309, "inputs": [{"sequence": 4294967295, "witness": "", "script": "04ffff001d0124", "index": 0, "prev_out": null}], "out": [{"type": 0, "spent": true, "value": 5000000000, "spending_outpoints": [{"tx_index": 5373225675035943, "n": 14}], "n": 0, "tx_index": 7445232690145243, "script": "4104e35e21961245dff98fca4f831cb67253cc8413ca04f71366b87e7e389be0e3f66ea351e5d5229c11f474f4e4452ea6409e87d1846f425c17b2239390e26db713ac", "addr": "1627A2DbCtVVykWVJmdQz2ERwkw4uiEL22"}], "hex": "01000000010000000000000000000000000000000000000000000000000000000000000000ffffffff0704ffff001d0124ffffffff0100f2052a01000000434104e35e21961245dff98fca4f831cb67253cc8413ca04f71366b87e7e389be0e3f66ea351e5d5229c11f474f4e4452ea6409e87d1846f425c17b2239390e26db713ac00000000"}]}