{"hash": "000000009700ff3494f215c412cd8c0ceabf1deb0df03ce39bcfc223b769d3c4", "ver": 1, "prev_block": "00000000bc919cfb64f62de736d55cf79e3d535b474ace256b4fbb56073f64db", "mrkl_root": "86b33edba8ff663b0f73ef487e4433f34d26ef91de15659d2cc09594d27b52cb", "time": 1231602736, "bits": 486604799, "next_block": ["00000000e5cb7c6c273547b0c9421b01e23310ed83f934b96270f35a4d66f6e3"], "fee": 0, "nonce": 716922133, "n_tx": 1, "size": 215, "block_index": 31, "main_chain": true, "height": 31, "weight": 860, "tx": [{"hash": "86b33edba8ff663b0f73ef487e4433f34d26ef91de15659d2cc09594d27b52cb", "ver": 1, "vin_sz": 1, "vout_sz": 1, "size": 134, "weight": 536, "fee": 0, "relayed_by": "0.0.0.0", "lock_time": 0, "tx_index": 7153764004958904, "double_spend": false, "time": 1231602736, "block_index": 31, "block_height": 31, "inputs": [{"sequence": 4294967295, "witness": "", "script": "04ffff001d0129", "index": 0, "prev_out": null}], "out": [{"type": 0, "spent": false, "value": 5000000000, "spending_outpoints": [], "n": 0, "tx_index": 7153764004958904, "script": "4104c26035a5e1e1db8b18043d1b31cef10a8fe6f58757e2b3e5147154df627ae020f39720adc9a623857db379217063896ef28ea6b8a0a43e7f1bec4a36dc68185cac", "addr": "1PHB5i7JMEZCKvcjYSQXPbi5oSK8DoJucS"}], "hex": "01000000010000000000000000000000000000000000000000000000000000000000000000ffffffff0704ffff001d0129ffffffff0100f2052a01000000434104c26035a5e1e1db8b18043d1b31cef10a8fe6f58757e2b3e5147154df627ae020f39720adc9a623857db379217063896ef28ea6b8a0a43e7f1bec4a36dc68185cac00000000"}]}