{"hash": "00000000ee59cb43445c8e4533582ef5a1b69be6a23eb496efc1cc6767b994f7", "ver": 1, "prev_block": "00000000d3ec2f50772c2d42d4afb054c283555766a0ca1d8da65b9b5058a49e", "mrkl_root": "c6b6f786bbef7a4b76811360368ed009e33dff898fd0a174a2253d60494bb109", "time": 1231840002, "bits": 486604799, "next_block": ["000000006dafd39a923d401a734f4654489b8194459aac53ab52493776f7d031"], "fee": 0, "nonce": 3571970348, "n_tx": 1, "size": 216, "block_index": 310, "main_chain": true, "height": 310, "weight": 864, "tx": [{"hash": "c6b6f786bbef7a4b76811360368ed009e33dff898fd0a174a2253d60494bb109", "ver": 1, "vin_sz": 1, "vout_sz": 1, "size": 135, "weight": 540, "fee": 0, "relayed_by": "0.0.0.0", "lock_time": 0, "tx_index": 341026462762916, "double_spend": false, "time": 1231840002, "block_index": 310, "block_height": 310, "inputs": [{"sequence": 4294967295, "witness": "", "script": "04ffff001d02a800", "index": 0, "prev_out": null}], "out": [{"type": 0, "spent": false, "value": 5000000000, "spending_outpoints": [], "n": 0, "tx_index": 341026462762916, "script": "41042a09a236b21fa43778ac1b429f5be1895129e4fbe769105db3aa582df57f751c97b7094e75762ee3712c4abd215a294afbdabe4af8e73df62bfe6dd0e2609afbac", "addr": "1JJbYrEQmkFnhqYPKxDDQSRgiXmfGAHGSf"}], "hex": "01000000010000000000000000000000000000000000000000000000000000000000000000ffffffff0804ffff001d02a800ffffffff0100f2052a010000004341042a09a236b21fa43778ac1b429f5be1895129e4fbe769105db3aa582df57f751c97b7094e75762ee3712c4abd215a294afbdabe4af8e73df62bfe6dd0e2609afbac00000000"}]}