{"hash": "000000006dafd39a923d401a734f4654489b8194459aac53ab52493776f7d031", "ver": 1, "prev_block": "00000000ee59cb43445c8e4533582ef5a1b69be6a23eb496efc1cc6767b994f7", "mrkl_root": "e0f2a6a8e73dbdcb500db515e100c86177aba952656e4b2f3c4311a38ab7b77e", "time": 1231840140, "bits": 486604799, "next_block": ["000000007dfc6054330e1b046f5f1aae82f5ed04097809faba5ca0aa9e91e35e"], "fee": 0, "nonce": 22511269, "n_tx": 1, "size": 215, "block_index": 311, "main_chain": true, "height": 311, "weight": 860, "tx": [{"hash": "e0f2a6a8e73dbdcb500db515e100c86177aba952656e4b2f3c4311a38ab7b77e", "ver": 1, "vin_sz": 1, "vout_sz": 1, "size": 134, "weight": 536, "fee": 0, "relayed_by": "0.0.0.0", "lock_time": 0, "tx_index": 4458480749797928, "double_spend": false, "time": 1231840140, "block_index": 311, "block_height": 311, "inputs": [{"sequence": 4294967295, "witness": "", "script": "04ffff001d0135", "index": 0, "prev_out": null}], "out": [{"type": 0, "spent": false, "value": 5000000000, "spending_outpoints": [], "n": 0, "tx_index": 4458480749797928, "script": "41047c98db81ea675b86718b375d73200d953bb601016acee4ba5e56c3463c4602b0823897cae4dea808f912d7ec005e5a02049e59b6d7bd89d89192ef711d859862ac", "addr": "1PdNEdE4zCpMw7ZJx5xyTmSfXCBvSV1gd2"}], "hex": "01000000010000000000000000000000000000000000000000000000000000000000000000ffffffff0704ffff001d0135ffffffff0100f2052a010000004341047c98db81ea675b86718b375d73200d953bb601016acee4ba5e56c3463c4602b0823897cae4dea808f912d7ec005e5a02049e59b6d7bd89d89192ef711d859862ac00000000"}]}