{"hash": "000000007dfc6054330e1b046f5f1aae82f5ed04097809faba5ca0aa9e91e35e", "ver": 1, "prev_block": "000000006dafd39a923d401a734f4654489b8194459aac53ab52493776f7d031", "mrkl_root": "66b2b260ae4964b7756725729b8b6d56b1d4cd19e3ffdaba2cdbec3babaed948", "time": 1231841124, "bits": 486604799, "next_block": ["00000000d9d81a18ab18a373998df7230e8248d077612a6ac6f947cc02900889"], "fee": 0, "nonce": 1096026653, "n_tx": 1, "size": 216, "block_index": 312, "main_chain": true, "height": 312, "weight": 864, "tx": [{"hash": "66b2b260ae4964b7756725729b8b6d56b1d4cd19e3ffdaba2cdbec3babaed948", "ver": 1, "vin_sz": 1, "vout_sz": 1, "size": 135, "weight": 540, "fee": 0, "relayed_by": "0.0.0.0", "lock_time": 0, "tx_index": 2563192817941915, "double_spend": false, "time": 1231841124, "block_index": 312, "block_height": 312, "inputs": [{"sequence": 4294967295, "witness": "", "script": "04ffff001d02b000", "index": 0, "prev_out": null}], "out": [{"type": 0, "spent": false, "value": 5000000000, "spending_outpoints": [], "n": 0, "tx_index": 2563192817941915, "script": "4104343435ef9025309815f5f7bedce06a4e7cdfd555f25029a685da9ff129964af80dfe8adb573c02a6d0f59389bcaa76db3efdc346aa372d96a319fb2bc3e6d762ac", "addr": "1KeKbw9x6urEdT8MTAqbepwVg1Z6esxM5e"}], "hex": "01000000010000000000000000000000000000000000000000000000000000000000000000ffffffff0804ffff001d02b000ffffffff0100f2052a01000000434104343435ef9025309815f5f7bedce06a4e7cdfd555f25029a685da9ff129964af80dfe8adb573c02a6d0f59389bcaa76db3efdc346aa372d96a319fb2bc3e6d762ac00000000"}]}