{"hash": "00000000d9d81a18ab18a373998df7230e8248d077612a6ac6f947cc02900889", "ver": 1, "prev_block": "000000007dfc6054330e1b046f5f1aae82f5ed04097809faba5ca0aa9e91e35e", "mrkl_root": "abe00821cc74ba9c323cee4dba547eb101a7848130aa0646f4bdeae37d8b1cca", "time": 1231841699, "bits": 486604799, "next_block": ["00000000c1d6c5079f4f15ca5d70c4e2726a0cbadb7af5e846259dbda57fab70"], "fee": 0, "nonce": 2813346048, "n_tx": 1, "size": 216, "block_index": 313, "main_chain": true, "height": 313, "weight": 864, "tx": [{"hash": "abe00821cc74ba9c323cee4dba547eb101a7848130aa0646f4bdeae37d8b1cca", "ver": 1, "vin_sz": 1, "vout_sz": 1, "size": 135, "weight": 540, "fee": 0, "relayed_by": "0.0.0.0", "lock_time": 0, "tx_index": 7111166341709143, "double_spend": false, "time": 1231841699, "block_index": 313, "block_height": 313, "inputs": [{"sequence": 4294967295, "witness": "", "script": "04ffff001d02b100", "index": 0, "prev_out": null}], "out": [{"type": 0, "spent": false, "value": 5000000000, "spending_outpoints": [], "n": 0, "tx_index": 7111166341709143, "script": "4104237a2500f2263d686e7482030d549515899192f3627604d6bd1d2269dbf285e368fe502c84e110c6e31083c1f6f09d796ffcf99304303b3aed90d5c67ccbe56bac", "addr": "17oK57YwK6C2kAF8WE4azAJandBFSe1noK"}], "hex": "01000000010000000000000000000000000000000000000000000000000000000000000000ffffffff0804ffff001d02b100ffffffff0100f2052a01000000434104237a2500f2263d686e7482030d549515899192f3627604d6bd1d2269dbf285e368fe502c84e110c6e31083c1f6f09d796ffcf99304303b3aed90d5c67ccbe56bac00000000"}]}