{"hash": "00000000c1d6c5079f4f15ca5d70c4e2726a0cbadb7af5e846259dbda57fab70", "ver": 1, "prev_block": "00000000d9d81a18ab18a373998df7230e8248d077612a6ac6f947cc02900889", "mrkl_root": "199608a11d1886752321567fefa3f4199ef4fffc72112a40ff69d186a46b0143", "time": 1231842444, "bits": 486604799, "next_block": ["00000000a165e7fd7ed07f753fea6acda46f374003c7acf3e0fc508b65376b6a"], "fee": 0, "nonce": 4251447849, "n_tx": 1, "size": 216, "block_index": 314, "main_chain": true, "height": 314, "weight": 864, "tx": [{"hash": "199608a11d1886752321567fefa3f4199ef4fffc72112a40ff69d186a46b0143", "ver": 1, "vin_sz": 1, "vout_sz": 1, "size": 135, "weight": 540, "fee": 0, "relayed_by": "0.0.0.0", "lock_time": 0, "tx_index": 2357548159130157, "double_spend": false, "time": 1231842444, "block_index": 314, "block_height": 314, "inputs": [{"sequence": 4294967295, "witness": "", "script": "04ffff001d02ba00", "index": 0, "prev_out": null}], "out": [{"type": 0, "spent": false, "value": 5000000000, "spending_outpoints": [], "n": 0, "tx_index": 2357548159130157, "script": "4104d3de0dfe51ed7df095fce045ce58fabdd45c9cfa917a117e31a80102659547c7944df803477e1025ebe3fd75a74abd0bcda788956a6d8f41c46506625f88b46dac", "addr": "19SokuYu8wkKVvxjE7fQySJBxA7DvW2cvn"}], "hex": "01000000010000000000000000000000000000000000000000000000000000000000000000ffffffff0804ffff001d02ba00ffffffff0100f2052a01000000434104d3de0dfe51ed7df095fce045ce58fabdd45c9cfa917a117e31a80102659547c7944df803477e1025ebe3fd75a74abd0bcda788956a6d8f41c46506625f88b46dac00000000"}]}