{"hash": "00000000a165e7fd7ed07f753fea6acda46f374003c7acf3e0fc508b65376b6a", "ver": 1, "prev_block": "00000000c1d6c5079f4f15ca5d70c4e2726a0cbadb7af5e846259dbda57fab70", "mrkl_root": "4db3c5ee3446c90c30841d1c0ae3c82fd7e9b2e870d2e6dc26cb2bfd45b32425", "time": 1231843597, "bits": 486604799, "next_block": ["00000000790a957603fc7b301dfca1c8dd93837a6af49c87c85119e9335478ab"], "fee": 0, "nonce": 4010322950, "n_tx": 1, "size": 216, "block_index": 315, "main_chain": true, "height": 315, "weight": 864, "tx": [{"hash": "4db3c5ee3446c90c30841d1c0ae3c82fd7e9b2e870d2e6dc26cb2bfd45b32425", "ver": 1, "vin_sz": 1, "vout_sz": 1, "size": 135, "weight": 540, "fee": 0, "relayed_by": "0.0.0.0", "lock_time": 0, "tx_index": 1306865816282489, "double_spend": false, "time": 1231843597, "block_index": 315, "block_height": 315, "inputs": [{"sequence": 4294967295, "witness": "", "script": "04ffff001d02bd00", "index": 0, "prev_out": null}], "out": [{"type": 0, "spent": false, "value": 5000000000, "spending_outpoints": [], "n": 0, "tx_index": 1306865816282489, "script": "4104c2bc064c46daa7817e8136801305f0da508443556cea17ee3746045834be8e8be6741f17e1a729adcccf13f4306473f79ca8bf9e3c1b3028bcc3f00780fb5239ac", "addr": "13Vt63i4G1uMhfnkK62abVNtKwYDpNf3qz"}], "hex": "01000000010000000000000000000000000000000000000000000000000000000000000000ffffffff0804ffff001d02bd00ffffffff0100f2052a01000000434104c2bc064c46daa7817e8136801305f0da508443556cea17ee3746045834be8e8be6741f17e1a729adcccf13f4306473f79ca8bf9e3c1b3028bcc3f00780fb5239ac00000000"}]}