{"hash": "00000000790a957603fc7b301dfca1c8dd93837a6af49c87c85119e9335478ab", "ver": 1, "prev_block": "00000000a165e7fd7ed07f753fea6acda46f374003c7acf3e0fc508b65376b6a", "mrkl_root": "7a21e4f7b21ebdcf4be47933e732ad6b2232bce85b7dfc1a922d53363018289b", "time": 1231844245, "bits": 486604799, "next_block": ["000000004929d251b3802ccff6876d044ac68e0bedd37edb2ac735f771ffb04a"], "fee": 0, "nonce": 2522577445, "n_tx": 1, "size": 216, "block_index": 316, "main_chain": true, "height": 316, "weight": 864, "tx": [{"hash": "7a21e4f7b21ebdcf4be47933e732ad6b2232bce85b7dfc1a922d53363018289b", "ver": 1, "vin_sz": 1, "vout_sz": 1, "size": 135, "weight": 540, "fee": 0, "relayed_by": "0.0.0.0", "lock_time": 0, "tx_index": 5459088217918053, "double_spend": false, "time": 1231844245, "block_index": 316, "block_height": 316, "inputs": [{"sequence": 4294967295, "witness": "", "script": "04ffff001d02c800", "index": 0, "prev_out": null}], "out": [{"type": 0, "spent": false, "value": 5000000000, "spending_outpoints": [], "n": 0, "tx_index": 5459088217918053, "script": "410459e36c0db3d04feb44a906cf5508a7ce5812c0e3f1dddc31a3e121407a030bd8c0e45969b10e0778f2e32474bd27740258bacda5411c498793e64a66a9911146ac", "addr": "1Kx5jZqcrc5xoYxz1CnWMNQSKK7GfSBNC5"}], "hex": "01000000010000000000000000000000000000000000000000000000000000000000000000ffffffff0804ffff001d02c800ffffffff0100f2052a0100000043410459e36c0db3d04feb44a906cf5508a7ce5812c0e3f1dddc31a3e121407a030bd8c0e45969b10e0778f2e32474bd27740258bacda5411c498793e64a66a9911146ac00000000"}]}