{"hash": "000000004929d251b3802ccff6876d044ac68e0bedd37edb2ac735f771ffb04a", "ver": 1, "prev_block": "00000000790a957603fc7b301dfca1c8dd93837a6af49c87c85119e9335478ab", "mrkl_root": "e7caf9a784751643f7b71881aaf96e2b3e041950b42638b4fcfe82ff57ba260d", "time": 1231844715, "bits": 486604799, "next_block": ["0000000074072a95ca7158d9f16a349f9b70f5ac67a2b0a5ff3d2753663d3784"], "fee": 0, "nonce": 12217557, "n_tx": 1, "size": 216, "block_index": 317, "main_chain": true, "height": 317, "weight": 864, "tx": [{"hash": "e7caf9a784751643f7b71881aaf96e2b3e041950b42638b4fcfe82ff57ba260d", "ver": 1, "vin_sz": 1, "vout_sz": 1, "size": 135, "weight": 540, "fee": 0, "relayed_by": "0.0.0.0", "lock_time": 0, "tx_index": 462719559921759, "double_spend": false, "time": 1231844715, "block_index": 317, "block_height": 317, "inputs": [{"sequence": 4294967295, "witness": "", "script": "04ffff001d028000", "index": 0, "prev_out": null}], "out": [{"type": 0, "spent": true, "value": 5000000000, "spending_outpoints": [{"tx_index": 5625658413079279, "n": 0}], "n": 0, "tx_index": 462719559921759, "script": "410445aa26ca9ec2c37b81699317a0ee8c160aacdf7f717b67f1ab98432de1e5a954ffff5af7107ebc20ca11639367318d9f7529945c7efe171280993af7da9798c4ac", "addr": "1E5npMTmh9PnBHxCacuqzAZRGEybkxPMAq"}], "hex": "01000000010000000000000000000000000000000000000000000000000000000000000000ffffffff0804ffff001d028000ffffffff0100f2052a0100000043410445aa26ca9ec2c37b81699317a0ee8c160aacdf7f717b67f1ab98432de1e5a954ffff5af7107ebc20ca11639367318d9f7529945c7efe171280993af7da9798c4ac00000000"}]}