{"hash": "0000000074072a95ca7158d9f16a349f9b70f5ac67a2b0a5ff3d2753663d3784", "ver": 1, "prev_block": "000000004929d251b3802ccff6876d044ac68e0bedd37edb2ac735f771ffb04a", "mrkl_root": "485b1a237ec9ae57051e37ea4f2db852373cef6ed32d7f18869c0359e5972296", "time": 1231845101, "bits": 486604799, "next_block": ["0000000062a9ed638b7297dcb39d7fafe4f5185f2777269f4f9cafa3560da318"], "fee": 0, "nonce": 2007980055, "n_tx": 1, "size": 216, "block_index": 318, "main_chain": true, "height": 318, "weight": 864, "tx": [{"hash": "485b1a237ec9ae57051e37ea4f2db852373cef6ed32d7f18869c0359e5972296", "ver": 1, "vin_sz": 1, "vout_sz": 1, "size": 135, "weight": 540, "fee": 0, "relayed_by": "0.0.0.0", "lock_time": 0, "tx_index": 5282410286227571, "double_spend": false, "time": 1231845101, "block_index": 318, "block_height": 318, "inputs": [{"sequence": 4294967295, "witness": "", "script": "04ffff001d02d400", "index": 0, "prev_out": null}], "out": [{"type": 0, "spent": false, "value": 5000000000, "spending_outpoints": [], "n": 0, "tx_index": 5282410286227571, "script": "41043bbbc4f769156c71999e8a6fb97910093bcb152891db8d49a12110dddec23e226d1a308573721d0004ccae976979521ea9762d7479756ba9ce6809d4d64c94acac", "addr": "1DobHRwghQkKgLg9ZDSRP5veTyKhJ4xq7h"}], "hex": "01000000010000000000000000000000000000000000000000000000000000000000000000ffffffff0804ffff001d02d400ffffffff0100f2052a010000004341043bbbc4f769156c71999e8a6fb97910093bcb152891db8d49a12110dddec23e226d1a308573721d0004ccae976979521ea9762d7479756ba9ce6809d4d64c94acac00000000"}]}