{"hash": "0000000062a9ed638b7297dcb39d7fafe4f5185f2777269f4f9cafa3560da318", "ver": 1, "prev_block": "0000000074072a95ca7158d9f16a349f9b70f5ac67a2b0a5ff3d2753663d3784", "mrkl_root": "3c25b20d4959008a6c0d204696a7540ca3e66f6ca146c69230e3034c67781ac9", "time": 1231846048, "bits": 486604799, "next_block": ["000000003f100bcb2790fbf45f69b6825094d75adf5ae9dbf8f4072fe2ff2ea7"], "fee": 0, "nonce": 3748451840, "n_tx": 1, "size": 216, "block_index": 319, "main_chain": true, "height": 319, "weight": 864, "tx": [{"hash": "3c25b20d4959008a6c0d204696a7540ca3e66f6ca146c69230e3034c67781ac9", "ver": 1, "vin_sz": 1, "vout_sz": 1, "size": 135, "weight": 540, "fee": 0, "relayed_by": "0.0.0.0", "lock_time": 0, "tx_index": 7075696843784316, "double_spend": false, "time": 1231846048, "block_index": 319, "block_height": 319, "inputs": [{"sequence": 4294967295, "witness": "", "script": "04ffff001d02d800", "index": 0, "prev_out": null}], "out": [{"type": 0, "spent": false, "value": 5000000000, "spending_outpoints": [], "n": 0, "tx_index": 7075696843784316, "script": "41045f3f83b219045157c84461e0dd7641ffd2e97958dbafe71d021ae720dd29a6f06a56dd73a040699d30285a6b8f86fc4d0b471f3e3f7bfde257b8e5dba6c42f4dac", "addr": "1KvPSnCYQQeKDiyxZ1uD5MuFBWk1u1G4zv"}], "hex": "01000000010000000000000000000000000000000000000000000000000000000000000000ffffffff0804ffff001d02d800ffffffff0100f2052a010000004341045f3f83b219045157c84461e0dd7641ffd2e97958dbafe71d021ae720dd29a6f06a56dd73a040699d30285a6b8f86fc4d0b471f3e3f7bfde257b8e5dba6c42f4dac00000000"}]}