{"hash": "00000000e5cb7c6c273547b0c9421b01e23310ed83f934b96270f35a4d66f6e3", "ver": 1, "prev_block": "000000009700ff3494f215c412cd8c0ceabf1deb0df03ce39bcfc223b769d3c4", "mrkl_root": "2b9905f06583c01454f10f720b5709e3b667c9dd3d9efc423c97b7e70afdc0c9", "time": 1231603171, "bits": 486604799, "next_block": ["00000000a87073ea3d7af299e02a434598b9c92094afa552e0711afcc0857962"], "fee": 0, "nonce": 230744328, "n_tx": 1, "size": 215, "block_index": 32, "main_chain": true, "height": 32, "weight": 860, "tx": [{"hash": "2b9905f06583c01454f10f720b5709e3b667c9dd3d9efc423c97b7e70afdc0c9", "ver": 1, "vin_sz": 1, "vout_sz": 1, "size": 134, "weight": 536, "fee": 0, "relayed_by": "0.0.0.0", "lock_time": 0, "tx_index": 7098582920132338, "double_spend": false, "time": 1231603171, "block_index": 32, "block_height": 32, "inputs": [{"sequence": 4294967295, "witness": "", "script": "04ffff001d0136", "index": 0, "prev_out": null}], "out": [{"type": 0, "spent": false, "value": 5000000000, "spending_outpoints": [], "n": 0, "tx_index": 7098582920132338, "script": "4104b949980bb46aee11510519b4af0dfcc3cc7464b3ede15f184b7c8126a98bf6d6e698eaf16b938814174a002ba24daa03e59a7c0927248517b581c09ec70f216eac", "addr": "1Bw7RG9a19SjCNszmXQZhBwe1gEj4Vb2JZ"}], "hex": "01000000010000000000000000000000000000000000000000000000000000000000000000ffffffff0704ffff001d0136ffffffff0100f2052a01000000434104b949980bb46aee11510519b4af0dfcc3cc7464b3ede15f184b7c8126a98bf6d6e698eaf16b938814174a002ba24daa03e59a7c0927248517b581c09ec70f216eac00000000"}]}