{"hash": "000000003f100bcb2790fbf45f69b6825094d75adf5ae9dbf8f4072fe2ff2ea7", "ver": 1, "prev_block": "0000000062a9ed638b7297dcb39d7fafe4f5185f2777269f4f9cafa3560da318", "mrkl_root": "6a71cea2c4e66ea163932b1ea199c1056f6728f3e1287946ed2a0892b918bf0e", "time": 1231846218, "bits": 486604799, "next_block": ["000000007ec3a2daeb2fda267d4c5520c5588aac135aae9e5f01eada28e15d6f"], "fee": 0, "nonce": 43154644, "n_tx": 1, "size": 215, "block_index": 320, "main_chain": true, "height": 320, "weight": 860, "tx": [{"hash": "6a71cea2c4e66ea163932b1ea199c1056f6728f3e1287946ed2a0892b918bf0e", "ver": 1, "vin_sz": 1, "vout_sz": 1, "size": 134, "weight": 536, "fee": 0, "relayed_by": "0.0.0.0", "lock_time": 0, "tx_index": 518845323428101, "double_spend": false, "time": 1231846218, "block_index": 320, "block_height": 320, "inputs": [{"sequence": 4294967295, "witness": "", "script": "04ffff001d0157", "index": 0, "prev_out": null}], "out": [{"type": 0, "spent": true, "value": 5000000000, "spending_outpoints": [{"tx_index": 6203573039099042, "n": 0}], "n": 0, "tx_index": 518845323428101, "script": "4104bb22a7645f95e06934024492c2428419b2160bb8379f2fec41bb2966be07b463340d1f9178934672cad9d4fb31067627e8e28566c3793f064a16970d1da4bc9eac", "addr": "12V3D1ytYGZgYTgmuNh8JLAiKMF9chUoDd"}], "hex": "01000000010000000000000000000000000000000000000000000000000000000000000000ffffffff0704ffff001d0157ffffffff0100f2052a01000000434104bb22a7645f95e06934024492c2428419b2160bb8379f2fec41bb2966be07b463340d1f9178934672cad9d4fb31067627e8e28566c3793f064a16970d1da4bc9eac00000000"}]}