{"hash": "000000007ec3a2daeb2fda267d4c5520c5588aac135aae9e5f01eada28e15d6f", "ver": 1, "prev_block": "000000003f100bcb2790fbf45f69b6825094d75adf5ae9dbf8f4072fe2ff2ea7", "mrkl_root": "295fad4bfc338409b3fbce82f53a2e6e16a627475dd9aea38d856fcfa0228753", "time": 1231846990, "bits": 486604799, "next_block": ["00000000d79d0587bc2af68c3c51a43b22b6a7f274f488377187985641d4786d"], "fee": 0, "nonce": 2081122853, "n_tx": 1, "size": 216, "block_index": 321, "main_chain": true, "height": 321, "weight": 864, "tx": [{"hash": "295fad4bfc338409b3fbce82f53a2e6e16a627475dd9aea38d856fcfa0228753", "ver": 1, "vin_sz": 1, "vout_sz": 1, "size": 135, "weight": 540, "fee": 0, "relayed_by": "0.0.0.0", "lock_time": 0, "tx_index": 2938875732946416, "double_spend": false, "time": 1231846990, "block_index": 321, "block_height": 321, "inputs": [{"sequence": 4294967295, "witness": "", "script": "04ffff001d02da00", "index": 0, "prev_out": null}], "out": [{"type": 0, "spent": false, "value": 5000000000, "spending_outpoints": [], "n": 0, "tx_index": 2938875732946416, "script": "41043f37c6357328a3bb1def2f895f3e0fe8322be914b6afdd654b034fddedb54edaa784aa54ce437d3aa35c9e4cba78232edc3c9bcedbb1c9ad69a3adfed5f8185aac", "addr": "14CSP7wTwnse4FXfbqY7XNu89w3Ns7GwiX"}], "hex": "01000000010000000000000000000000000000000000000000000000000000000000000000ffffffff0804ffff001d02da00ffffffff0100f2052a010000004341043f37c6357328a3bb1def2f895f3e0fe8322be914b6afdd654b034fddedb54edaa784aa54ce437d3aa35c9e4cba78232edc3c9bcedbb1c9ad69a3adfed5f8185aac00000000"}]}