{"hash": "00000000d79d0587bc2af68c3c51a43b22b6a7f274f488377187985641d4786d", "ver": 1, "prev_block": "000000007ec3a2daeb2fda267d4c5520c5588aac135aae9e5f01eada28e15d6f", "mrkl_root": "fc0d1d73901ee27a693e55959f5e20fc913bba86e336a384def3210684d9484e", "time": 1231847669, "bits": 486604799, "next_block": ["00000000900d1e70b9606b562b92b62c0dafb82e14068aef08f0e5694fd433d4"], "fee": 0, "nonce": 3583629356, "n_tx": 1, "size": 216, "block_index": 322, "main_chain": true, "height": 322, "weight": 864, "tx": [{"hash": "fc0d1d73901ee27a693e55959f5e20fc913bba86e336a384def3210684d9484e", "ver": 1, "vin_sz": 1, "vout_sz": 1, "size": 135, "weight": 540, "fee": 0, "relayed_by": "0.0.0.0", "lock_time": 0, "tx_index": 2754393405441086, "double_spend": false, "time": 1231847669, "block_index": 322, "block_height": 322, "inputs": [{"sequence": 4294967295, "witness": "", "script": "04ffff001d02dd00", "index": 0, "prev_out": null}], "out": [{"type": 0, "spent": false, "value": 5000000000, "spending_outpoints": [], "n": 0, "tx_index": 2754393405441086, "script": "410409f1d88473b88dad315255af6698c57a6d0264df90246bc7745e554e23d665ad5f7aafcf59306e002fa19c4d4fd6566d9445922d7d37c6c64eb8b2edb11718ddac", "addr": "1GyeTSnLLJGjMEwTtbKAyKszt9K4iUuYjH"}], "hex": "01000000010000000000000000000000000000000000000000000000000000000000000000ffffffff0804ffff001d02dd00ffffffff0100f2052a0100000043410409f1d88473b88dad315255af6698c57a6d0264df90246bc7745e554e23d665ad5f7aafcf59306e002fa19c4d4fd6566d9445922d7d37c6c64eb8b2edb11718ddac00000000"}]}