{"hash": "00000000900d1e70b9606b562b92b62c0dafb82e14068aef08f0e5694fd433d4", "ver": 1, "prev_block": "00000000d79d0587bc2af68c3c51a43b22b6a7f274f488377187985641d4786d", "mrkl_root": "46b82623f888167d7dce3ec250aed703f5e2cf4b2b3737803d23c5be9e2136d0", "time": 1231848372, "bits": 486604799, "next_block": ["000000008c503c6c56dfee6a4ce1091875c8d7d9defe2c72f9eb5db0454f00c7"], "fee": 0, "nonce": 1579679266, "n_tx": 1, "size": 216, "block_index": 323, "main_chain": true, "height": 323, "weight": 864, "tx": [{"hash": "46b82623f888167d7dce3ec250aed703f5e2cf4b2b3737803d23c5be9e2136d0", "ver": 1, "vin_sz": 1, "vout_sz": 1, "size": 135, "weight": 540, "fee": 0, "relayed_by": "0.0.0.0", "lock_time": 0, "tx_index": 7325789147617444, "double_spend": false, "time": 1231848372, "block_index": 323, "block_height": 323, "inputs": [{"sequence": 4294967295, "witness": "", "script": "04ffff001d02de00", "index": 0, "prev_out": null}], "out": [{"type": 0, "spent": false, "value": 5000000000, "spending_outpoints": [], "n": 0, "tx_index": 7325789147617444, "script": "4104b29df33207682eeb5ba4258ccf25cb6363436622f2df91d442d630816614d8744596d66c37e3fb1f6bbd71ddab305f0721bfc15d4253712783d1cb3eda561af8ac", "addr": "1QCL4pVUEPMQQ792MEnLPdX7ZDUmyySc3a"}], "hex": "01000000010000000000000000000000000000000000000000000000000000000000000000ffffffff0804ffff001d02de00ffffffff0100f2052a01000000434104b29df33207682eeb5ba4258ccf25cb6363436622f2df91d442d630816614d8744596d66c37e3fb1f6bbd71ddab305f0721bfc15d4253712783d1cb3eda561af8ac00000000"}]}