{"hash": "000000008c503c6c56dfee6a4ce1091875c8d7d9defe2c72f9eb5db0454f00c7", "ver": 1, "prev_block": "00000000900d1e70b9606b562b92b62c0dafb82e14068aef08f0e5694fd433d4", "mrkl_root": "9350f8022ba85d248c58719692d374e0198689b84e8f2b108760be4c6d78a01f", "time": 1231849416, "bits": 486604799, "next_block": ["00000000b4e2799499c9e64dfbe13fc772be5e9c1eb284eac1b501710fb48ccb"], "fee": 0, "nonce": 1686297623, "n_tx": 1, "size": 216, "block_index": 324, "main_chain": true, "height": 324, "weight": 864, "tx": [{"hash": "9350f8022ba85d248c58719692d374e0198689b84e8f2b108760be4c6d78a01f", "ver": 1, "vin_sz": 1, "vout_sz": 1, "size": 135, "weight": 540, "fee": 0, "relayed_by": "0.0.0.0", "lock_time": 0, "tx_index": 1112770421037004, "double_spend": false, "time": 1231849416, "block_index": 324, "block_height": 324, "inputs": [{"sequence": 4294967295, "witness": "", "script": "04ffff001d02e300", "index": 0, "prev_out": null}], "out": [{"type": 0, "spent": false, "value": 5000000000, "spending_outpoints": [], "n": 0, "tx_index": 1112770421037004, "script": "41040b78fd185d49d3159005a4ae4e34163bc4f083c4f7151e146091e38abf14d3e2c85f13ea39304351bf4a125d9b828ea9e07b99b2aa7c86ca0510937cbb835202ac", "addr": "13FnhkPLznaoRYPB34LFtU33dDnZxe1eze"}], "hex": "01000000010000000000000000000000000000000000000000000000000000000000000000ffffffff0804ffff001d02e300ffffffff0100f2052a010000004341040b78fd185d49d3159005a4ae4e34163bc4f083c4f7151e146091e38abf14d3e2c85f13ea39304351bf4a125d9b828ea9e07b99b2aa7c86ca0510937cbb835202ac00000000"}]}