{"hash": "00000000b4e2799499c9e64dfbe13fc772be5e9c1eb284eac1b501710fb48ccb", "ver": 1, "prev_block": "000000008c503c6c56dfee6a4ce1091875c8d7d9defe2c72f9eb5db0454f00c7", "mrkl_root": "5f24c920f03072d0e021d1130b6714ecaa3c2c82ac220bfd96db68922675a82f", "time": 1231849987, "bits": 486604799, "next_block": ["00000000197fab9874dc712a61ca3a9544c9919e299d030851c978bab2dcb4e3"], "fee": 0, "nonce": 591732780, "n_tx": 1, "size": 216, "block_index": 325, "main_chain": true, "height": 325, "weight": 864, "tx": [{"hash": "5f24c920f03072d0e021d1130b6714ecaa3c2c82ac220bfd96db68922675a82f", "ver": 1, "vin_sz": 1, "vout_sz": 1, "size": 135, "weight": 540, "fee": 0, "relayed_by": "0.0.0.0", "lock_time": 0, "tx_index": 1676818127146267, "double_spend": false, "time": 1231849987, "block_index": 325, "block_height": 325, "inputs": [{"sequence": 4294967295, "witness": "", "script": "04ffff001d02f300", "index": 0, "prev_out": null}], "out": [{"type": 0, "spent": false, "value": 5000000000, "spending_outpoints": [], "n": 0, "tx_index": 1676818127146267, "script": "4104fea8a907e86941b48b19f0fcfa33d824d0caaf6beb5fead26e37434190900c93a4bda01eb9cf9b2e1cbd3eb6be12f562dc9b584f4189aef424ba4c250108a1c0ac", "addr": "1GxmPv6ojoDmxucsYKL3Hra4Nu7CqxQNmW"}], "hex": "01000000010000000000000000000000000000000000000000000000000000000000000000ffffffff0804ffff001d02f300ffffffff0100f2052a01000000434104fea8a907e86941b48b19f0fcfa33d824d0caaf6beb5fead26e37434190900c93a4bda01eb9cf9b2e1cbd3eb6be12f562dc9b584f4189aef424ba4c250108a1c0ac00000000"}]}