{"hash": "00000000197fab9874dc712a61ca3a9544c9919e299d030851c978bab2dcb4e3", "ver": 1, "prev_block": "00000000b4e2799499c9e64dfbe13fc772be5e9c1eb284eac1b501710fb48ccb", "mrkl_root": "cf0ce82b3cacec1b56c157dc432c234a765cf47e6284bffd930bf50964728b16", "time": 1231850712, "bits": 486604799, "next_block": ["00000000704779006e444bbfb928cd324da7c62685e7b4f120301e3ad59be0da"], "fee": 0, "nonce": 3865518887, "n_tx": 1, "size": 216, "block_index": 326, "main_chain": true, "height": 326, "weight": 864, "tx": [{"hash": "cf0ce82b3cacec1b56c157dc432c234a765cf47e6284bffd930bf50964728b16", "ver": 1, "vin_sz": 1, "vout_sz": 1, "size": 135, "weight": 540, "fee": 0, "relayed_by": "0.0.0.0", "lock_time": 0, "tx_index": 793221613567649, "double_spend": false, "time": 1231850712, "block_index": 326, "block_height": 326, "inputs": [{"sequence": 4294967295, "witness": "", "script": "04ffff001d02f600", "index": 0, "prev_out": null}], "out": [{"type": 0, "spent": false, "value": 5000000000, "spending_outpoints": [], "n": 0, "tx_index": 793221613567649, "script": "41041b45c61f70088883b1d54e3de8247e6acc731029599ff04be28fd0afca12ff7807049d433b48e3da1db42f4293bb8e1efda4b6d276588bc598f0abcd2f757c48ac", "addr": "1KudEnDg6gcb2Qxiz9PWFzxqdgrcDVWA4Y"}], "hex": "01000000010000000000000000000000000000000000000000000000000000000000000000ffffffff0804ffff001d02f600ffffffff0100f2052a010000004341041b45c61f70088883b1d54e3de8247e6acc731029599ff04be28fd0afca12ff7807049d433b48e3da1db42f4293bb8e1efda4b6d276588bc598f0abcd2f757c48ac00000000"}]}