{"hash": "00000000704779006e444bbfb928cd324da7c62685e7b4f120301e3ad59be0da", "ver": 1, "prev_block": "00000000197fab9874dc712a61ca3a9544c9919e299d030851c978bab2dcb4e3", "mrkl_root": "58becca2c848749afc28feba09088b6dc2968a95be41f2109ded23be0fb8ad75", "time": 1231851531, "bits": 486604799, "next_block": ["00000000a3ea820f0c258b8379b6f6c2ef0260e19aa78f60aae160caf2a8abd5"], "fee": 0, "nonce": 3320722200, "n_tx": 1, "size": 216, "block_index": 327, "main_chain": true, "height": 327, "weight": 864, "tx": [{"hash": "58becca2c848749afc28feba09088b6dc2968a95be41f2109ded23be0fb8ad75", "ver": 1, "vin_sz": 1, "vout_sz": 1, "size": 135, "weight": 540, "fee": 0, "relayed_by": "0.0.0.0", "lock_time": 0, "tx_index": 4140447290606717, "double_spend": false, "time": 1231851531, "block_index": 327, "block_height": 327, "inputs": [{"sequence": 4294967295, "witness": "", "script": "04ffff001d021b01", "index": 0, "prev_out": null}], "out": [{"type": 0, "spent": false, "value": 5000000000, "spending_outpoints": [], "n": 0, "tx_index": 4140447290606717, "script": "4104a38bd1fdc62676ba92c7d3d1326ebcc305e9eec6888c91c5df1588916fb4555be6bc128787f59c14504471b0c23d2cc6f4c5b25b516868de8e07e051b65174d2ac", "addr": "1ATiXZcTkgnBzDBZ1T1cX3b1fNvAQ7Qmin"}], "hex": "01000000010000000000000000000000000000000000000000000000000000000000000000ffffffff0804ffff001d021b01ffffffff0100f2052a01000000434104a38bd1fdc62676ba92c7d3d1326ebcc305e9eec6888c91c5df1588916fb4555be6bc128787f59c14504471b0c23d2cc6f4c5b25b516868de8e07e051b65174d2ac00000000"}]}