{"hash": "00000000a3ea820f0c258b8379b6f6c2ef0260e19aa78f60aae160caf2a8abd5", "ver": 1, "prev_block": "00000000704779006e444bbfb928cd324da7c62685e7b4f120301e3ad59be0da", "mrkl_root": "963f584442e40298d9631f4b03c90e6bf4be6c934d7cea764848e1bd645de5cf", "time": 1231851944, "bits": 486604799, "next_block": ["000000000b9cd32f191a1b3538127a93726f0ed20a21871d962eff0d655a1875"], "fee": 0, "nonce": 2355115016, "n_tx": 1, "size": 216, "block_index": 328, "main_chain": true, "height": 328, "weight": 864, "tx": [{"hash": "963f584442e40298d9631f4b03c90e6bf4be6c934d7cea764848e1bd645de5cf", "ver": 1, "vin_sz": 1, "vout_sz": 1, "size": 135, "weight": 540, "fee": 0, "relayed_by": "0.0.0.0", "lock_time": 0, "tx_index": 7314688682998825, "double_spend": false, "time": 1231851944, "block_index": 328, "block_height": 328, "inputs": [{"sequence": 4294967295, "witness": "", "script": "04ffff001d021c01", "index": 0, "prev_out": null}], "out": [{"type": 0, "spent": false, "value": 5000000000, "spending_outpoints": [], "n": 0, "tx_index": 7314688682998825, "script": "4104870ee5e972cd85ebb6aa8d843fe6c407afb9bc6b7a843eaf588afcd98d6f1e8bbb10903ff902ba14bf0fd4193ea3a75e59012acc202ebb73489cde60ef601dc8ac", "addr": "1ELjm88xyqdU5cd5o5JpJuuWbdQfakRaKD"}], "hex": "01000000010000000000000000000000000000000000000000000000000000000000000000ffffffff0804ffff001d021c01ffffffff0100f2052a01000000434104870ee5e972cd85ebb6aa8d843fe6c407afb9bc6b7a843eaf588afcd98d6f1e8bbb10903ff902ba14bf0fd4193ea3a75e59012acc202ebb73489cde60ef601dc8ac00000000"}]}