{"hash": "000000000b9cd32f191a1b3538127a93726f0ed20a21871d962eff0d655a1875", "ver": 1, "prev_block": "00000000a3ea820f0c258b8379b6f6c2ef0260e19aa78f60aae160caf2a8abd5", "mrkl_root": "04256336e9287f3b46508888cf3539dc0ab2fc8803cbe9668749fd18fc5dee85", "time": 1231852306, "bits": 486604799, "next_block": ["00000000931292b665ecaadb744af46f877df2144d240e11e76f16cb1f6531c0"], "fee": 0, "nonce": 96426764, "n_tx": 1, "size": 215, "block_index": 329, "main_chain": true, "height": 329, "weight": 860, "tx": [{"hash": "04256336e9287f3b46508888cf3539dc0ab2fc8803cbe9668749fd18fc5dee85", "ver": 1, "vin_sz": 1, "vout_sz": 1, "size": 134, "weight": 536, "fee": 0, "relayed_by": "0.0.0.0", "lock_time": 0, "tx_index": 4712282416422825, "double_spend": false, "time": 1231852306, "block_index": 329, "block_height": 329, "inputs": [{"sequence": 4294967295, "witness": "", "script": "04ffff001d0160", "index": 0, "prev_out": null}], "out": [{"type": 0, "spent": true, "value": 5000000000, "spending_outpoints": [{"tx_index": 4627474215807929, "n": 0}], "n": 0, "tx_index": 4712282416422825, "script": "410406fbce9111c572added1d16b36132b04bb5c577a1e4194815a20608d2be99b98fbfd045c48c95c1e37d415d1b1c46a172653fb563ed1aa18a45864edd2322c64ac", "addr": "153h6eE6xRhXuN3pE53gWVfXacAtfyBF8g"}], "hex": "01000000010000000000000000000000000000000000000000000000000000000000000000ffffffff0704ffff001d0160ffffffff0100f2052a0100000043410406fbce9111c572added1d16b36132b04bb5c577a1e4194815a20608d2be99b98fbfd045c48c95c1e37d415d1b1c46a172653fb563ed1aa18a45864edd2322c64ac00000000"}]}