{"hash": "00000000a87073ea3d7af299e02a434598b9c92094afa552e0711afcc0857962", "ver": 1, "prev_block": "00000000e5cb7c6c273547b0c9421b01e23310ed83f934b96270f35a4d66f6e3", "mrkl_root": "bdeaa0089cd84670da5e6385f0185c2d7978bf57a1aa5540d3ff3b3eabaa1210", "time": 1231603939, "bits": 486604799, "next_block": ["00000000a73fb23b6c42b18b3253ed29c5d0c80d84624efa12c2cf05c4b4318f"], "fee": 0, "nonce": 1076005922, "n_tx": 1, "size": 215, "block_index": 33, "main_chain": true, "height": 33, "weight": 860, "tx": [{"hash": "bdeaa0089cd84670da5e6385f0185c2d7978bf57a1aa5540d3ff3b3eabaa1210", "ver": 1, "vin_sz": 1, "vout_sz": 1, "size": 134, "weight": 536, "fee": 0, "relayed_by": "0.0.0.0", "lock_time": 0, "tx_index": 565515481761663, "double_spend": false, "time": 1231603939, "block_index": 33, "block_height": 33, "inputs": [{"sequence": 4294967295, "witness": "", "script": "04ffff001d0138", "index": 0, "prev_out": null}], "out": [{"type": 0, "spent": false, "value": 5000000000, "spending_outpoints": [], "n": 0, "tx_index": 565515481761663, "script": "4104804d71f6a91c908a973cae7ef4363f7689520116b995d6936328de00be56f92baee0dabf3a240e0ed2dce7f374f12cbba7649808528236cb04c558f028dd61edac", "addr": "1MKRkcXG7cUb83EGNjK5TSHcKgVjVMTou5"}], "hex": "01000000010000000000000000000000000000000000000000000000000000000000000000ffffffff0704ffff001d0138ffffffff0100f2052a01000000434104804d71f6a91c908a973cae7ef4363f7689520116b995d6936328de00be56f92baee0dabf3a240e0ed2dce7f374f12cbba7649808528236cb04c558f028dd61edac00000000"}]}