{"hash": "00000000931292b665ecaadb744af46f877df2144d240e11e76f16cb1f6531c0", "ver": 1, "prev_block": "000000000b9cd32f191a1b3538127a93726f0ed20a21871d962eff0d655a1875", "mrkl_root": "0b885d4090e4874d8abd274a722c9c2dd08c27ee92f385cf786f0a3833c79882", "time": 1231853108, "bits": 486604799, "next_block": ["000000009f5056791a32a8428ff4077fb5fe3c264fbdb72a10310ca3c6ee8d70"], "fee": 0, "nonce": 2621926147, "n_tx": 1, "size": 216, "block_index": 330, "main_chain": true, "height": 330, "weight": 864, "tx": [{"hash": "0b885d4090e4874d8abd274a722c9c2dd08c27ee92f385cf786f0a3833c79882", "ver": 1, "vin_sz": 1, "vout_sz": 1, "size": 135, "weight": 540, "fee": 0, "relayed_by": "0.0.0.0", "lock_time": 0, "tx_index": 4594966037201229, "double_spend": false, "time": 1231853108, "block_index": 330, "block_height": 330, "inputs": [{"sequence": 4294967295, "witness": "", "script": "04ffff001d022a01", "index": 0, "prev_out": null}], "out": [{"type": 0, "spent": false, "value": 5000000000, "spending_outpoints": [], "n": 0, "tx_index": 4594966037201229, "script": "41044e9dfd38fd1878020547f2ec5cc55860c01124138caeb85d0084d4560a7c3b7497d072ea26dc2388b6ecfdf2ccdf30aa8c439f7794458227555844be32446c38ac", "addr": "1CSJo2CFEyN7Pzcnzd7JRLv5WUAfZZ1AWB"}], "hex": "01000000010000000000000000000000000000000000000000000000000000000000000000ffffffff0804ffff001d022a01ffffffff0100f2052a010000004341044e9dfd38fd1878020547f2ec5cc55860c01124138caeb85d0084d4560a7c3b7497d072ea26dc2388b6ecfdf2ccdf30aa8c439f7794458227555844be32446c38ac00000000"}]}