{"hash": "000000009f5056791a32a8428ff4077fb5fe3c264fbdb72a10310ca3c6ee8d70", "ver": 1, "prev_block": "00000000931292b665ecaadb744af46f877df2144d240e11e76f16cb1f6531c0", "mrkl_root": "ace381ede0930705a2b99f836fae6555872297fb8167b59d153de387160d4d4b", "time": 1231854172, "bits": 486604799, "next_block": ["000000001728a65efe3fe56198dd6112d7f76cc8e967d4fb958a0b4d3a08fb15"], "fee": 0, "nonce": 1912508199, "n_tx": 1, "size": 216, "block_index": 331, "main_chain": true, "height": 331, "weight": 864, "tx": [{"hash": "ace381ede0930705a2b99f836fae6555872297fb8167b59d153de387160d4d4b", "ver": 1, "vin_sz": 1, "vout_sz": 1, "size": 135, "weight": 540, "fee": 0, "relayed_by": "0.0.0.0", "lock_time": 0, "tx_index": 2649417732652135, "double_spend": false, "time": 1231854172, "block_index": 331, "block_height": 331, "inputs": [{"sequence": 4294967295, "witness": "", "script": "04ffff001d022b01", "index": 0, "prev_out": null}], "out": [{"type": 0, "spent": false, "value": 5000000000, "spending_outpoints": [], "n": 0, "tx_index": 2649417732652135, "script": "4104b1c56cc9ba528cab08ec184aab2a4c165d52c5ef2db88169e3396b269327b1f69f43d3c5eb21c1b196874d24ed84a6b35750feaf889f0e43c026f74f865eea0eac", "addr": "1CRVKdW1nJrZSGUfZU6iSXhK1MQqsnjpz3"}], "hex": "01000000010000000000000000000000000000000000000000000000000000000000000000ffffffff0804ffff001d022b01ffffffff0100f2052a01000000434104b1c56cc9ba528cab08ec184aab2a4c165d52c5ef2db88169e3396b269327b1f69f43d3c5eb21c1b196874d24ed84a6b35750feaf889f0e43c026f74f865eea0eac00000000"}]}