{"hash": "000000001728a65efe3fe56198dd6112d7f76cc8e967d4fb958a0b4d3a08fb15", "ver": 1, "prev_block": "000000009f5056791a32a8428ff4077fb5fe3c264fbdb72a10310ca3c6ee8d70", "mrkl_root": "c21ec58e759f197c12d5701c1bab2df8639d2d4a2b1715d98eb7284b82c7dfd8", "time": 1231854604, "bits": 486604799, "next_block": ["000000009a5a1f98edaafdae4c0dd90e1b03833b97c5f45e130a6a0210cd9081"], "fee": 0, "nonce": 281873705, "n_tx": 1, "size": 216, "block_index": 332, "main_chain": true, "height": 332, "weight": 864, "tx": [{"hash": "c21ec58e759f197c12d5701c1bab2df8639d2d4a2b1715d98eb7284b82c7dfd8", "ver": 1, "vin_sz": 1, "vout_sz": 1, "size": 135, "weight": 540, "fee": 0, "relayed_by": "0.0.0.0", "lock_time": 0, "tx_index": 7630580368368918, "double_spend": false, "time": 1231854604, "block_index": 332, "block_height": 332, "inputs": [{"sequence": 4294967295, "witness": "", "script": "04ffff001d023401", "index": 0, "prev_out": null}], "out": [{"type": 0, "spent": false, "value": 5000000000, "spending_outpoints": [], "n": 0, "tx_index": 7630580368368918, "script": "4104b30fe080b9104ad86323cef6aca6ecd89b3c76c4df3523eb0ac252ea265f117403dd92dd73d59930b2419f1e84416e15ed05a2a5e6f72ecebdfc8c7c440a3b52ac", "addr": "19TmydgkVKcuBPrNauXc9XSusG3brEMXxh"}], "hex": "01000000010000000000000000000000000000000000000000000000000000000000000000ffffffff0804ffff001d023401ffffffff0100f2052a01000000434104b30fe080b9104ad86323cef6aca6ecd89b3c76c4df3523eb0ac252ea265f117403dd92dd73d59930b2419f1e84416e15ed05a2a5e6f72ecebdfc8c7c440a3b52ac00000000"}]}