{"hash": "000000009a5a1f98edaafdae4c0dd90e1b03833b97c5f45e130a6a0210cd9081", "ver": 1, "prev_block": "000000001728a65efe3fe56198dd6112d7f76cc8e967d4fb958a0b4d3a08fb15", "mrkl_root": "38b5528efdf657b6be24e80e57bb097e65bde74bc653c8f2cf0b9bb6bba51d1d", "time": 1231855081, "bits": 486604799, "next_block": ["000000006b94ae33d29db8abaf5a088f748ee835dd4509ac70d698a9f8376211"], "fee": 0, "nonce": 1063810612, "n_tx": 1, "size": 216, "block_index": 333, "main_chain": true, "height": 333, "weight": 864, "tx": [{"hash": "38b5528efdf657b6be24e80e57bb097e65bde74bc653c8f2cf0b9bb6bba51d1d", "ver": 1, "vin_sz": 1, "vout_sz": 1, "size": 135, "weight": 540, "fee": 0, "relayed_by": "0.0.0.0", "lock_time": 0, "tx_index": 1024421497590625, "double_spend": false, "time": 1231855081, "block_index": 333, "block_height": 333, "inputs": [{"sequence": 4294967295, "witness": "", "script": "04ffff001d023801", "index": 0, "prev_out": null}], "out": [{"type": 0, "spent": false, "value": 5000000000, "spending_outpoints": [], "n": 0, "tx_index": 1024421497590625, "script": "41042bcad3b2c15dcaf253b060d33ce0ad60396daba1b07fa3866947ab3d8f2ccf9fd3f19e253452ddc872567a87ee273885afdef6939f8a149ca356819a713f97bcac", "addr": "16WDW7nE6pfAyZkrCdkgFmeMAKrESaB1un"}], "hex": "01000000010000000000000000000000000000000000000000000000000000000000000000ffffffff0804ffff001d023801ffffffff0100f2052a010000004341042bcad3b2c15dcaf253b060d33ce0ad60396daba1b07fa3866947ab3d8f2ccf9fd3f19e253452ddc872567a87ee273885afdef6939f8a149ca356819a713f97bcac00000000"}]}