{"hash": "000000006b94ae33d29db8abaf5a088f748ee835dd4509ac70d698a9f8376211", "ver": 1, "prev_block": "000000009a5a1f98edaafdae4c0dd90e1b03833b97c5f45e130a6a0210cd9081", "mrkl_root": "520913b56d1afaede2eeda719e81b5b85ef943f0ffd6d367848c7e83063180be", "time": 1231855781, "bits": 486604799, "next_block": ["00000000b104104dfc538d175f3caa313dffc06607fc06e4737e0c3abcd085d8"], "fee": 0, "nonce": 211252462, "n_tx": 1, "size": 215, "block_index": 334, "main_chain": true, "height": 334, "weight": 860, "tx": [{"hash": "520913b56d1afaede2eeda719e81b5b85ef943f0ffd6d367848c7e83063180be", "ver": 1, "vin_sz": 1, "vout_sz": 1, "size": 134, "weight": 536, "fee": 0, "relayed_by": "0.0.0.0", "lock_time": 0, "tx_index": 6702649203257297, "double_spend": false, "time": 1231855781, "block_index": 334, "block_height": 334, "inputs": [{"sequence": 4294967295, "witness": "", "script": "04ffff001d014e", "index": 0, "prev_out": null}], "out": [{"type": 0, "spent": false, "value": 5000000000, "spending_outpoints": [], "n": 0, "tx_index": 6702649203257297, "script": "41046b23e09eb88ac06e9a98b553768b4fec46bfb4dab7d8c3ff3111cd705ca0e4114c74ee58450ff31e395029a33ca1c6b2ae62d50609fd9cfac600dbcb1f138a52ac", "addr": "19JFpHzaW4pKyeSWUYS6qtoZYyfgSdJDrC"}], "hex": "01000000010000000000000000000000000000000000000000000000000000000000000000ffffffff0704ffff001d014effffffff0100f2052a010000004341046b23e09eb88ac06e9a98b553768b4fec46bfb4dab7d8c3ff3111cd705ca0e4114c74ee58450ff31e395029a33ca1c6b2ae62d50609fd9cfac600dbcb1f138a52ac00000000"}]}