{"hash": "00000000b104104dfc538d175f3caa313dffc06607fc06e4737e0c3abcd085d8", "ver": 1, "prev_block": "000000006b94ae33d29db8abaf5a088f748ee835dd4509ac70d698a9f8376211", "mrkl_root": "c2b03396c3e8b17a6392f9c9994633ba04bbde60328dfa63e0d1a69cc75bcb1e", "time": 1231856031, "bits": 486604799, "next_block": ["00000000306b5009d2a9efa54aaec49a0ce1e992b0079c3f2e54fc49871d7956"], "fee": 0, "nonce": 3114084136, "n_tx": 1, "size": 216, "block_index": 335, "main_chain": true, "height": 335, "weight": 864, "tx": [{"hash": "c2b03396c3e8b17a6392f9c9994633ba04bbde60328dfa63e0d1a69cc75bcb1e", "ver": 1, "vin_sz": 1, "vout_sz": 1, "size": 135, "weight": 540, "fee": 0, "relayed_by": "0.0.0.0", "lock_time": 0, "tx_index": 1083480544089306, "double_spend": false, "time": 1231856031, "block_index": 335, "block_height": 335, "inputs": [{"sequence": 4294967295, "witness": "", "script": "04ffff001d023901", "index": 0, "prev_out": null}], "out": [{"type": 0, "spent": false, "value": 5000000000, "spending_outpoints": [], "n": 0, "tx_index": 1083480544089306, "script": "4104e62518736ba8027a181f3b316f401d61d758f3c49011474ab2bfbea8d952e0a542d85c70ab63cf76449f1c2cb9db288bc48d65026c78dc74cbab5438ec47f57aac", "addr": "127xfzeX9eAVVUWsjGgNDgQdVMBFtcJXEg"}], "hex": "01000000010000000000000000000000000000000000000000000000000000000000000000ffffffff0804ffff001d023901ffffffff0100f2052a01000000434104e62518736ba8027a181f3b316f401d61d758f3c49011474ab2bfbea8d952e0a542d85c70ab63cf76449f1c2cb9db288bc48d65026c78dc74cbab5438ec47f57aac00000000"}]}