{"hash": "00000000306b5009d2a9efa54aaec49a0ce1e992b0079c3f2e54fc49871d7956", "ver": 1, "prev_block": "00000000b104104dfc538d175f3caa313dffc06607fc06e4737e0c3abcd085d8", "mrkl_root": "1e3d32020b8dfb2b46adbf9be1a006b45b056e14874114bf0253acc4e39b411e", "time": 1231856644, "bits": 486604799, "next_block": ["000000005f8dbc254ba41890b98e5a9e218c220a3476455539db27f642db3673"], "fee": 0, "nonce": 330980379, "n_tx": 1, "size": 216, "block_index": 336, "main_chain": true, "height": 336, "weight": 864, "tx": [{"hash": "1e3d32020b8dfb2b46adbf9be1a006b45b056e14874114bf0253acc4e39b411e", "ver": 1, "vin_sz": 1, "vout_sz": 1, "size": 135, "weight": 540, "fee": 0, "relayed_by": "0.0.0.0", "lock_time": 0, "tx_index": 1064548387296650, "double_spend": false, "time": 1231856644, "block_index": 336, "block_height": 336, "inputs": [{"sequence": 4294967295, "witness": "", "script": "04ffff001d023f01", "index": 0, "prev_out": null}], "out": [{"type": 0, "spent": false, "value": 5000000000, "spending_outpoints": [], "n": 0, "tx_index": 1064548387296650, "script": "41042679cf38324a546c674cd60c40c77c6bc1414ad665bca1eb54ecdf23c5676de644104a11386a001c233e5aa75ba56bf6c72a8f15464d426bc93ca28d2526f842ac", "addr": "1FmLy39wYNs2XwcLxRAVhQFm15smygrL2V"}], "hex": "01000000010000000000000000000000000000000000000000000000000000000000000000ffffffff0804ffff001d023f01ffffffff0100f2052a010000004341042679cf38324a546c674cd60c40c77c6bc1414ad665bca1eb54ecdf23c5676de644104a11386a001c233e5aa75ba56bf6c72a8f15464d426bc93ca28d2526f842ac00000000"}]}