{"hash": "000000005f8dbc254ba41890b98e5a9e218c220a3476455539db27f642db3673", "ver": 1, "prev_block": "00000000306b5009d2a9efa54aaec49a0ce1e992b0079c3f2e54fc49871d7956", "mrkl_root": "2902a7464e53e63787a6ad8fca1e4b85b566bbf0064bbf28ce1ae183ee84d791", "time": 1231857108, "bits": 486604799, "next_block": ["0000000004b7c0bdbf2d818f3e4d441d8db5fd2e8168d0150edda83dc59b7da6"], "fee": 0, "nonce": 2670684464, "n_tx": 1, "size": 216, "block_index": 337, "main_chain": true, "height": 337, "weight": 864, "tx": [{"hash": "2902a7464e53e63787a6ad8fca1e4b85b566bbf0064bbf28ce1ae183ee84d791", "ver": 1, "vin_sz": 1, "vout_sz": 1, "size": 135, "weight": 540, "fee": 0, "relayed_by": "0.0.0.0", "lock_time": 0, "tx_index": 5131354695040035, "double_spend": false, "time": 1231857108, "block_index": 337, "block_height": 337, "inputs": [{"sequence": 4294967295, "witness": "", "script": "04ffff001d024601", "index": 0, "prev_out": null}], "out": [{"type": 0, "spent": false, "value": 5000000000, "spending_outpoints": [], "n": 0, "tx_index": 5131354695040035, "script": "4104fb172522087b728b7234c896c3c4c9462ded777c3f7e8f9d2a9939bf4aa54e4fa31016afcc1b32917d1186e2eeb49e973a9d8c268caa58da0d6dc70c59547b93ac", "addr": "19qDF4DVaRv86siDoBzXYaWcAbrvPFYZz7"}], "hex": "01000000010000000000000000000000000000000000000000000000000000000000000000ffffffff0804ffff001d024601ffffffff0100f2052a01000000434104fb172522087b728b7234c896c3c4c9462ded777c3f7e8f9d2a9939bf4aa54e4fa31016afcc1b32917d1186e2eeb49e973a9d8c268caa58da0d6dc70c59547b93ac00000000"}]}