{"hash": "0000000004b7c0bdbf2d818f3e4d441d8db5fd2e8168d0150edda83dc59b7da6", "ver": 1, "prev_block": "000000005f8dbc254ba41890b98e5a9e218c220a3476455539db27f642db3673", "mrkl_root": "66b5989a35a9a50b63617b5d410a6376e2df36fcd6c8355a8b8a56c568c3113a", "time": 1231857528, "bits": 486604799, "next_block": ["000000001122ea7605edc62081cefc267a41e3fe3fd7b86874b3ee6217de23fb"], "fee": 0, "nonce": 299001910, "n_tx": 1, "size": 216, "block_index": 338, "main_chain": true, "height": 338, "weight": 864, "tx": [{"hash": "66b5989a35a9a50b63617b5d410a6376e2df36fcd6c8355a8b8a56c568c3113a", "ver": 1, "vin_sz": 1, "vout_sz": 1, "size": 135, "weight": 540, "fee": 0, "relayed_by": "0.0.0.0", "lock_time": 0, "tx_index": 2043134952909521, "double_spend": false, "time": 1231857528, "block_index": 338, "block_height": 338, "inputs": [{"sequence": 4294967295, "witness": "", "script": "04ffff001d024a01", "index": 0, "prev_out": null}], "out": [{"type": 0, "spent": false, "value": 5000000000, "spending_outpoints": [], "n": 0, "tx_index": 2043134952909521, "script": "4104b6f2ce9b9809acada419246219291e5352a12eae00890da4b82a64dd762a31ffa7f4d738dacb44c032bf5481a94b6bd1323d8e10d19d77e31ac2e322a8c7c0edac", "addr": "1PLPuVjBWd9DWRaVDzFURMSkZmzqCjGedL"}], "hex": "01000000010000000000000000000000000000000000000000000000000000000000000000ffffffff0804ffff001d024a01ffffffff0100f2052a01000000434104b6f2ce9b9809acada419246219291e5352a12eae00890da4b82a64dd762a31ffa7f4d738dacb44c032bf5481a94b6bd1323d8e10d19d77e31ac2e322a8c7c0edac00000000"}]}