{"hash": "000000001122ea7605edc62081cefc267a41e3fe3fd7b86874b3ee6217de23fb", "ver": 1, "prev_block": "0000000004b7c0bdbf2d818f3e4d441d8db5fd2e8168d0150edda83dc59b7da6", "mrkl_root": "256e2b962c907444107d36c26f03ea2d47a265bcd3a20d9bde43203ef3ce1649", "time": 1231857859, "bits": 486604799, "next_block": ["000000005ddf5639bd049b9579d2ff5d1060ed1020a72f927db9c18b106e81b4"], "fee": 0, "nonce": 420027958, "n_tx": 1, "size": 216, "block_index": 339, "main_chain": true, "height": 339, "weight": 864, "tx": [{"hash": "256e2b962c907444107d36c26f03ea2d47a265bcd3a20d9bde43203ef3ce1649", "ver": 1, "vin_sz": 1, "vout_sz": 1, "size": 135, "weight": 540, "fee": 0, "relayed_by": "0.0.0.0", "lock_time": 0, "tx_index": 2571593924985864, "double_spend": false, "time": 1231857859, "block_index": 339, "block_height": 339, "inputs": [{"sequence": 4294967295, "witness": "", "script": "04ffff001d024c01", "index": 0, "prev_out": null}], "out": [{"type": 0, "spent": false, "value": 5000000000, "spending_outpoints": [], "n": 0, "tx_index": 2571593924985864, "script": "4104376c35f734e19012091d32c5949b28b186e0e1c14bedf7e995a6fda0b2d0dfd35008c629ce1341fd56aae27e71097b8ad74e761edcfb4d4b8abdd80e29e9bfb1ac", "addr": "1NLNkBF9rNTKd4efsS71rKKwnmdDqWMA17"}], "hex": "01000000010000000000000000000000000000000000000000000000000000000000000000ffffffff0804ffff001d024c01ffffffff0100f2052a01000000434104376c35f734e19012091d32c5949b28b186e0e1c14bedf7e995a6fda0b2d0dfd35008c629ce1341fd56aae27e71097b8ad74e761edcfb4d4b8abdd80e29e9bfb1ac00000000"}]}