{"hash": "00000000a73fb23b6c42b18b3253ed29c5d0c80d84624efa12c2cf05c4b4318f", "ver": 1, "prev_block": "00000000a87073ea3d7af299e02a434598b9c92094afa552e0711afcc0857962", "mrkl_root": "223b0620a8f1c1f23a2ebf8032ed11321b921017d01974e74cddd651319b5474", "time": 1231604338, "bits": 486604799, "next_block": ["00000000b572a465b4e816420d47a16274557b3573b7924b64808a82c7322d9b"], "fee": 0, "nonce": 616579874, "n_tx": 1, "size": 215, "block_index": 34, "main_chain": true, "height": 34, "weight": 860, "tx": [{"hash": "223b0620a8f1c1f23a2ebf8032ed11321b921017d01974e74cddd651319b5474", "ver": 1, "vin_sz": 1, "vout_sz": 1, "size": 134, "weight": 536, "fee": 0, "relayed_by": "0.0.0.0", "lock_time": 0, "tx_index": 4093015352818395, "double_spend": false, "time": 1231604338, "block_index": 34, "block_height": 34, "inputs": [{"sequence": 4294967295, "witness": "", "script": "04ffff001d0147", "index": 0, "prev_out": null}], "out": [{"type": 0, "spent": false, "value": 5000000000, "spending_outpoints": [], "n": 0, "tx_index": 4093015352818395, "script": "4104180bfa57bff462c7641fa0b91efe29344a77086b073cd9c5f769cb2393acc151a4e7377eaabacc39f5b2bd2cd4bcb5ed1855939619e491c79c0bb5793d4edbf3ac", "addr": "1BTsxjF9rXtFvUZ2UFditbeUpohGgKCxUt"}], "hex": "01000000010000000000000000000000000000000000000000000000000000000000000000ffffffff0704ffff001d0147ffffffff0100f2052a01000000434104180bfa57bff462c7641fa0b91efe29344a77086b073cd9c5f769cb2393acc151a4e7377eaabacc39f5b2bd2cd4bcb5ed1855939619e491c79c0bb5793d4edbf3ac00000000"}]}