{"hash": "000000005ddf5639bd049b9579d2ff5d1060ed1020a72f927db9c18b106e81b4", "ver": 1, "prev_block": "000000001122ea7605edc62081cefc267a41e3fe3fd7b86874b3ee6217de23fb", "mrkl_root": "9dffd6b18857fcde50faa1d4f328d5e84af7ad671adafcdbcf7d1a7d566e78b7", "time": 1231858635, "bits": 486604799, "next_block": ["0000000082a38ff5b06379fe8898e516e4b9158c6b3e4bf07dae998ac3e8699c"], "fee": 0, "nonce": 4294267944, "n_tx": 1, "size": 216, "block_index": 340, "main_chain": true, "height": 340, "weight": 864, "tx": [{"hash": "9dffd6b18857fcde50faa1d4f328d5e84af7ad671adafcdbcf7d1a7d566e78b7", "ver": 1, "vin_sz": 1, "vout_sz": 1, "size": 135, "weight": 540, "fee": 0, "relayed_by": "0.0.0.0", "lock_time": 0, "tx_index": 6455292003853135, "double_spend": false, "time": 1231858635, "block_index": 340, "block_height": 340, "inputs": [{"sequence": 4294967295, "witness": "", "script": "04ffff001d024f01", "index": 0, "prev_out": null}], "out": [{"type": 0, "spent": false, "value": 5000000000, "spending_outpoints": [], "n": 0, "tx_index": 6455292003853135, "script": "4104289ba4aab143e2e034c8b7b3e3f4d13dabfff93fdfffb705552dd89bbc02861ca6bcc3e5c12c5ab98cf930853e5e3b409b1fae05fe7ddfed6e3b6c31691f0293ac", "addr": "1PonKTKjsFUkUm7RwxejxPtzcX9M3YzQY4"}], "hex": "01000000010000000000000000000000000000000000000000000000000000000000000000ffffffff0804ffff001d024f01ffffffff0100f2052a01000000434104289ba4aab143e2e034c8b7b3e3f4d13dabfff93fdfffb705552dd89bbc02861ca6bcc3e5c12c5ab98cf930853e5e3b409b1fae05fe7ddfed6e3b6c31691f0293ac00000000"}]}