{"hash": "0000000082a38ff5b06379fe8898e516e4b9158c6b3e4bf07dae998ac3e8699c", "ver": 1, "prev_block": "000000005ddf5639bd049b9579d2ff5d1060ed1020a72f927db9c18b106e81b4", "mrkl_root": "2b2a848c2224f3c82c2d09f9da4082912037b30a74afa031f47cad49363cd509", "time": 1231859159, "bits": 486604799, "next_block": ["0000000030d317436271d42f336d26387b284fed7c84e02f8d951d1a865b052b"], "fee": 0, "nonce": 1040006677, "n_tx": 1, "size": 216, "block_index": 341, "main_chain": true, "height": 341, "weight": 864, "tx": [{"hash": "2b2a848c2224f3c82c2d09f9da4082912037b30a74afa031f47cad49363cd509", "ver": 1, "vin_sz": 1, "vout_sz": 1, "size": 135, "weight": 540, "fee": 0, "relayed_by": "0.0.0.0", "lock_time": 0, "tx_index": 345966171993519, "double_spend": false, "time": 1231859159, "block_index": 341, "block_height": 341, "inputs": [{"sequence": 4294967295, "witness": "", "script": "04ffff001d025701", "index": 0, "prev_out": null}], "out": [{"type": 0, "spent": false, "value": 5000000000, "spending_outpoints": [], "n": 0, "tx_index": 345966171993519, "script": "41043cfced644d64623571fbd55543907004a5a834a4870401ec898f5c022599a4cdcb2897f3923a08d249e355161fad11b93232a1198398e96d69951a74c59a105eac", "addr": "19hEejxnZPpzLNGc2BbAmpbkxpjwqhbejy"}], "hex": "01000000010000000000000000000000000000000000000000000000000000000000000000ffffffff0804ffff001d025701ffffffff0100f2052a010000004341043cfced644d64623571fbd55543907004a5a834a4870401ec898f5c022599a4cdcb2897f3923a08d249e355161fad11b93232a1198398e96d69951a74c59a105eac00000000"}]}