{"hash": "0000000030d317436271d42f336d26387b284fed7c84e02f8d951d1a865b052b", "ver": 1, "prev_block": "0000000082a38ff5b06379fe8898e516e4b9158c6b3e4bf07dae998ac3e8699c", "mrkl_root": "88d5c23cdb2843057397159dddfefbab00da2b4a4f94a45ea5679bca2e38f009", "time": 1231860068, "bits": 486604799, "next_block": ["00000000da99d2a1a9a5b005143254481a8a37c28ef845e9cbe07e8bd3727c6e"], "fee": 0, "nonce": 2771976212, "n_tx": 1, "size": 216, "block_index": 342, "main_chain": true, "height": 342, "weight": 864, "tx": [{"hash": "88d5c23cdb2843057397159dddfefbab00da2b4a4f94a45ea5679bca2e38f009", "ver": 1, "vin_sz": 1, "vout_sz": 1, "size": 135, "weight": 540, "fee": 0, "relayed_by": "0.0.0.0", "lock_time": 0, "tx_index": 349674860532588, "double_spend": false, "time": 1231860068, "block_index": 342, "block_height": 342, "inputs": [{"sequence": 4294967295, "witness": "", "script": "04ffff001d025a01", "index": 0, "prev_out": null}], "out": [{"type": 0, "spent": false, "value": 5000000000, "spending_outpoints": [], "n": 0, "tx_index": 349674860532588, "script": "410403e810b35f5b97957ad94bd3619f25384f5bcf403c57776921af38de5737f85e43257c9bacc247d63fe67e62d884d8987437033f553d6182d98313ca39c00eb6ac", "addr": "1LH4HM3m9K53kpZ8w3sPeEYmMd6z1z6DhG"}], "hex": "01000000010000000000000000000000000000000000000000000000000000000000000000ffffffff0804ffff001d025a01ffffffff0100f2052a0100000043410403e810b35f5b97957ad94bd3619f25384f5bcf403c57776921af38de5737f85e43257c9bacc247d63fe67e62d884d8987437033f553d6182d98313ca39c00eb6ac00000000"}]}