{"hash": "00000000da99d2a1a9a5b005143254481a8a37c28ef845e9cbe07e8bd3727c6e", "ver": 1, "prev_block": "0000000030d317436271d42f336d26387b284fed7c84e02f8d951d1a865b052b", "mrkl_root": "e0c91e7218e8caa0b339743b426825c0092845c7c24415290510d735870c45b9", "time": 1231860987, "bits": 486604799, "next_block": ["000000008cc122c5d35497371c6a0ac9b1659781848445be29bd9e2d1cf00d14"], "fee": 0, "nonce": 1260667924, "n_tx": 1, "size": 216, "block_index": 343, "main_chain": true, "height": 343, "weight": 864, "tx": [{"hash": "e0c91e7218e8caa0b339743b426825c0092845c7c24415290510d735870c45b9", "ver": 1, "vin_sz": 1, "vout_sz": 1, "size": 135, "weight": 540, "fee": 0, "relayed_by": "0.0.0.0", "lock_time": 0, "tx_index": 6518598850231010, "double_spend": false, "time": 1231860987, "block_index": 343, "block_height": 343, "inputs": [{"sequence": 4294967295, "witness": "", "script": "04ffff001d025b01", "index": 0, "prev_out": null}], "out": [{"type": 0, "spent": false, "value": 5000000000, "spending_outpoints": [], "n": 0, "tx_index": 6518598850231010, "script": "4104ad0d54bcbae50ecb232eabda1bd65e22f65d5ffbbdba0d2ee6ab9df7b0dde89060995438e0c190ff06d53f972dd28331e1335d758d86b02a3d9ec699fad42523ac", "addr": "1LJGRuqGmMp3vjhJQpuRgFTnd7h7v5yDLp"}], "hex": "01000000010000000000000000000000000000000000000000000000000000000000000000ffffffff0804ffff001d025b01ffffffff0100f2052a01000000434104ad0d54bcbae50ecb232eabda1bd65e22f65d5ffbbdba0d2ee6ab9df7b0dde89060995438e0c190ff06d53f972dd28331e1335d758d86b02a3d9ec699fad42523ac00000000"}]}