{"hash": "000000008cc122c5d35497371c6a0ac9b1659781848445be29bd9e2d1cf00d14", "ver": 1, "prev_block": "00000000da99d2a1a9a5b005143254481a8a37c28ef845e9cbe07e8bd3727c6e", "mrkl_root": "ba3a782948227ab5343027f94df1432d6571268912e208b843c783d9726c7b82", "time": 1231861522, "bits": 486604799, "next_block": ["00000000c378c233cf6341ca6f4e7ebfe9fd1324fbbc0e21e0165393e0e83e37"], "fee": 0, "nonce": 1945130241, "n_tx": 1, "size": 216, "block_index": 344, "main_chain": true, "height": 344, "weight": 864, "tx": [{"hash": "ba3a782948227ab5343027f94df1432d6571268912e208b843c783d9726c7b82", "ver": 1, "vin_sz": 1, "vout_sz": 1, "size": 135, "weight": 540, "fee": 0, "relayed_by": "0.0.0.0", "lock_time": 0, "tx_index": 4590931585740920, "double_spend": false, "time": 1231861522, "block_index": 344, "block_height": 344, "inputs": [{"sequence": 4294967295, "witness": "", "script": "04ffff001d026201", "index": 0, "prev_out": null}], "out": [{"type": 0, "spent": false, "value": 5000000000, "spending_outpoints": [], "n": 0, "tx_index": 4590931585740920, "script": "4104de7f5057d2862e9acbbbb5bdda5ac10085184efb6e68c2009f7b27b2b33eb49569c6eb361c175c24c2b02037eb85a3ec5daed8fc639a11b56793bb9bcff008caac", "addr": "1CYqkzUCSCxa2r2wmxmu2xY32y1LxaUEhu"}], "hex": "01000000010000000000000000000000000000000000000000000000000000000000000000ffffffff0804ffff001d026201ffffffff0100f2052a01000000434104de7f5057d2862e9acbbbb5bdda5ac10085184efb6e68c2009f7b27b2b33eb49569c6eb361c175c24c2b02037eb85a3ec5daed8fc639a11b56793bb9bcff008caac00000000"}]}