{"hash": "00000000c378c233cf6341ca6f4e7ebfe9fd1324fbbc0e21e0165393e0e83e37", "ver": 1, "prev_block": "000000008cc122c5d35497371c6a0ac9b1659781848445be29bd9e2d1cf00d14", "mrkl_root": "e9b4eadacc081d16f38cedd90c5a08444caa904e11ec66f056019f4449239e9a", "time": 1231861893, "bits": 486604799, "next_block": ["0000000036d62217cd8364db8ab43303379061f7c1d7eecfe49ce10c6ef9a4b7"], "fee": 0, "nonce": 171250976, "n_tx": 1, "size": 216, "block_index": 345, "main_chain": true, "height": 345, "weight": 864, "tx": [{"hash": "e9b4eadacc081d16f38cedd90c5a08444caa904e11ec66f056019f4449239e9a", "ver": 1, "vin_sz": 1, "vout_sz": 1, "size": 135, "weight": 540, "fee": 0, "relayed_by": "0.0.0.0", "lock_time": 0, "tx_index": 5440127600464864, "double_spend": false, "time": 1231861893, "block_index": 345, "block_height": 345, "inputs": [{"sequence": 4294967295, "witness": "", "script": "04ffff001d026501", "index": 0, "prev_out": null}], "out": [{"type": 0, "spent": false, "value": 5000000000, "spending_outpoints": [], "n": 0, "tx_index": 5440127600464864, "script": "4104ba3ef581dfbb9348a0931cecb2fe9430ffaf84e93ff0cae6d48b6cf221ad92f7a976e2f6809d00b443987516c3eaa030032d81739f18bfddace38c41412c9bf1ac", "addr": "1FzsCEkmp3WRzEHhGSsuhhpkSDuhdbq9hz"}], "hex": "01000000010000000000000000000000000000000000000000000000000000000000000000ffffffff0804ffff001d026501ffffffff0100f2052a01000000434104ba3ef581dfbb9348a0931cecb2fe9430ffaf84e93ff0cae6d48b6cf221ad92f7a976e2f6809d00b443987516c3eaa030032d81739f18bfddace38c41412c9bf1ac00000000"}]}