{"hash": "0000000036d62217cd8364db8ab43303379061f7c1d7eecfe49ce10c6ef9a4b7", "ver": 1, "prev_block": "00000000c378c233cf6341ca6f4e7ebfe9fd1324fbbc0e21e0165393e0e83e37", "mrkl_root": "af0b7b63af0ab11048aa6df0ceb0e82a94a247ddc9db1b0ef5c512ab2b60e27c", "time": 1231862299, "bits": 486604799, "next_block": ["000000003f87de459605bbbbbb06f4207ff09f79c7e516aca650545b374b26be"], "fee": 0, "nonce": 1903675680, "n_tx": 1, "size": 216, "block_index": 346, "main_chain": true, "height": 346, "weight": 864, "tx": [{"hash": "af0b7b63af0ab11048aa6df0ceb0e82a94a247ddc9db1b0ef5c512ab2b60e27c", "ver": 1, "vin_sz": 1, "vout_sz": 1, "size": 135, "weight": 540, "fee": 0, "relayed_by": "0.0.0.0", "lock_time": 0, "tx_index": 4393974973686360, "double_spend": false, "time": 1231862299, "block_index": 346, "block_height": 346, "inputs": [{"sequence": 4294967295, "witness": "", "script": "04ffff001d026701", "index": 0, "prev_out": null}], "out": [{"type": 0, "spent": false, "value": 5000000000, "spending_outpoints": [], "n": 0, "tx_index": 4393974973686360, "script": "4104d496d8320a000709c064ec3fec8f775cb2706e9d9563c0cacff2efc6bb1fe70afcba04534c24bb3665fd78902bf18e94712a4b25aef9f33c9c935bf53be18ee5ac", "addr": "1NG1yMNjJLPnjsXAa7rpQZhCbmM8UUN5mo"}], "hex": "01000000010000000000000000000000000000000000000000000000000000000000000000ffffffff0804ffff001d026701ffffffff0100f2052a01000000434104d496d8320a000709c064ec3fec8f775cb2706e9d9563c0cacff2efc6bb1fe70afcba04534c24bb3665fd78902bf18e94712a4b25aef9f33c9c935bf53be18ee5ac00000000"}]}