{"hash": "000000003f87de459605bbbbbb06f4207ff09f79c7e516aca650545b374b26be", "ver": 1, "prev_block": "0000000036d62217cd8364db8ab43303379061f7c1d7eecfe49ce10c6ef9a4b7", "mrkl_root": "9ca6cdc75db707190ad5dd1286a1969d543474dbc16ceeca22b4b5d841771716", "time": 1231863290, "bits": 486604799, "next_block": ["000000008d47f2e62a4fc29427cae537426c7ff461719e7f0433e785138b751c"], "fee": 0, "nonce": 141973295, "n_tx": 1, "size": 216, "block_index": 347, "main_chain": true, "height": 347, "weight": 864, "tx": [{"hash": "9ca6cdc75db707190ad5dd1286a1969d543474dbc16ceeca22b4b5d841771716", "ver": 1, "vin_sz": 1, "vout_sz": 1, "size": 135, "weight": 540, "fee": 0, "relayed_by": "0.0.0.0", "lock_time": 0, "tx_index": 777281307612854, "double_spend": false, "time": 1231863290, "block_index": 347, "block_height": 347, "inputs": [{"sequence": 4294967295, "witness": "", "script": "04ffff001d026e01", "index": 0, "prev_out": null}], "out": [{"type": 0, "spent": false, "value": 5000000000, "spending_outpoints": [], "n": 0, "tx_index": 777281307612854, "script": "4104234238bd10862bbe823e143ab8934df5b1c01a0506050cf7cc716cd422739e2bbdd687b3094d701f38c0a59d2fa43233f198489ac313af9c5f3598a700347967ac", "addr": "1JxgVi59npkWPPU57Kr9MAb5uwhWj6Gp6w"}], "hex": "01000000010000000000000000000000000000000000000000000000000000000000000000ffffffff0804ffff001d026e01ffffffff0100f2052a01000000434104234238bd10862bbe823e143ab8934df5b1c01a0506050cf7cc716cd422739e2bbdd687b3094d701f38c0a59d2fa43233f198489ac313af9c5f3598a700347967ac00000000"}]}