{"hash": "000000008d47f2e62a4fc29427cae537426c7ff461719e7f0433e785138b751c", "ver": 1, "prev_block": "000000003f87de459605bbbbbb06f4207ff09f79c7e516aca650545b374b26be", "mrkl_root": "9240bc95f391ea1730d8c98b660f7e98fcdbcf84435fd839ee95a83bdfcab0bc", "time": 1231864090, "bits": 486604799, "next_block": ["00000000c4f49e3bffbd95679dc5684e388bf65b0c5160a64b34ab9a22ebc6d3"], "fee": 0, "nonce": 453300999, "n_tx": 1, "size": 216, "block_index": 348, "main_chain": true, "height": 348, "weight": 864, "tx": [{"hash": "9240bc95f391ea1730d8c98b660f7e98fcdbcf84435fd839ee95a83bdfcab0bc", "ver": 1, "vin_sz": 1, "vout_sz": 1, "size": 135, "weight": 540, "fee": 0, "relayed_by": "0.0.0.0", "lock_time": 0, "tx_index": 6638960124589330, "double_spend": false, "time": 1231864090, "block_index": 348, "block_height": 348, "inputs": [{"sequence": 4294967295, "witness": "", "script": "04ffff001d027001", "index": 0, "prev_out": null}], "out": [{"type": 0, "spent": false, "value": 5000000000, "spending_outpoints": [], "n": 0, "tx_index": 6638960124589330, "script": "41044928d0f4eab251eb6d01cbd115319afa4d1a46e816a6b690445760dd00482df3097444de15ff455bf023b98fabb1c841cf5bc544a4a42751020b4f585767bf91ac", "addr": "16oMqP6mFLAAWbpxGf6Bo5F9SHUpgutwxa"}], "hex": "01000000010000000000000000000000000000000000000000000000000000000000000000ffffffff0804ffff001d027001ffffffff0100f2052a010000004341044928d0f4eab251eb6d01cbd115319afa4d1a46e816a6b690445760dd00482df3097444de15ff455bf023b98fabb1c841cf5bc544a4a42751020b4f585767bf91ac00000000"}]}