{"hash": "00000000c4f49e3bffbd95679dc5684e388bf65b0c5160a64b34ab9a22ebc6d3", "ver": 1, "prev_block": "000000008d47f2e62a4fc29427cae537426c7ff461719e7f0433e785138b751c", "mrkl_root": "2053541c3f536a401ccf10b58637168cbccfa040db3527de32b24a4c2178b373", "time": 1231864857, "bits": 486604799, "next_block": ["00000000e286ad94972e44b0532f2823bcda3977661a5136ff4d9d7db107d944"], "fee": 0, "nonce": 4017452592, "n_tx": 1, "size": 216, "block_index": 349, "main_chain": true, "height": 349, "weight": 864, "tx": [{"hash": "2053541c3f536a401ccf10b58637168cbccfa040db3527de32b24a4c2178b373", "ver": 1, "vin_sz": 1, "vout_sz": 1, "size": 135, "weight": 540, "fee": 0, "relayed_by": "0.0.0.0", "lock_time": 0, "tx_index": 4070868857227606, "double_spend": false, "time": 1231864857, "block_index": 349, "block_height": 349, "inputs": [{"sequence": 4294967295, "witness": "", "script": "04ffff001d027401", "index": 0, "prev_out": null}], "out": [{"type": 0, "spent": false, "value": 5000000000, "spending_outpoints": [], "n": 0, "tx_index": 4070868857227606, "script": "4104af361ac6dc7bc7296b8b930742edb42b051d7a67485213cc72bcb713bb6300048baae846730058896a73d4b46da65082037ba40e832a2b5c4a3ce0c7469ad6f0ac", "addr": "18ic1RDi1AjZkrqxgDxnsibEFWSvmVRoZ7"}], "hex": "01000000010000000000000000000000000000000000000000000000000000000000000000ffffffff0804ffff001d027401ffffffff0100f2052a01000000434104af361ac6dc7bc7296b8b930742edb42b051d7a67485213cc72bcb713bb6300048baae846730058896a73d4b46da65082037ba40e832a2b5c4a3ce0c7469ad6f0ac00000000"}]}