{"hash": "00000000b572a465b4e816420d47a16274557b3573b7924b64808a82c7322d9b", "ver": 1, "prev_block": "00000000a73fb23b6c42b18b3253ed29c5d0c80d84624efa12c2cf05c4b4318f", "mrkl_root": "852b1997ed935ba638078998e2d15bc8a91b8ad232e2d988e22c969eba3bafe0", "time": 1231605153, "bits": 486604799, "next_block": ["00000000f824d643f525b4904ea25c92174b8499435f388549a1700f4d3244de"], "fee": 0, "nonce": 3890072084, "n_tx": 1, "size": 215, "block_index": 35, "main_chain": true, "height": 35, "weight": 860, "tx": [{"hash": "852b1997ed935ba638078998e2d15bc8a91b8ad232e2d988e22c969eba3bafe0", "ver": 1, "vin_sz": 1, "vout_sz": 1, "size": 134, "weight": 536, "fee": 0, "relayed_by": "0.0.0.0", "lock_time": 0, "tx_index": 7905383231509189, "double_spend": false, "time": 1231605153, "block_index": 35, "block_height": 35, "inputs": [{"sequence": 4294967295, "witness": "", "script": "04ffff001d014d", "index": 0, "prev_out": null}], "out": [{"type": 0, "spent": false, "value": 5000000000, "spending_outpoints": [], "n": 0, "tx_index": 7905383231509189, "script": "4104bb31566291ceb63ed600b0c29d6825d7924e73c265abac43fa088ad3e1a477c6fd15373fc40229cc895732d4175f6db615e4a2b6e9411e92974b6923d7985518ac", "addr": "16bo8EmUnLJAmtDNavgcs1BQ5rU4YcR9UC"}], "hex": "01000000010000000000000000000000000000000000000000000000000000000000000000ffffffff0704ffff001d014dffffffff0100f2052a01000000434104bb31566291ceb63ed600b0c29d6825d7924e73c265abac43fa088ad3e1a477c6fd15373fc40229cc895732d4175f6db615e4a2b6e9411e92974b6923d7985518ac00000000"}]}