{"hash": "00000000e286ad94972e44b0532f2823bcda3977661a5136ff4d9d7db107d944", "ver": 1, "prev_block": "00000000c4f49e3bffbd95679dc5684e388bf65b0c5160a64b34ab9a22ebc6d3", "mrkl_root": "272da16bce9a03c3aea2b294616e8e72e45dd29557938c10ed0848e62ad76018", "time": 1231865478, "bits": 486604799, "next_block": ["00000000db629e4d40902dc756ee9e3ebb87a76d2750e0846849f3d5e93bb4d6"], "fee": 0, "nonce": 2183056385, "n_tx": 1, "size": 216, "block_index": 350, "main_chain": true, "height": 350, "weight": 864, "tx": [{"hash": "272da16bce9a03c3aea2b294616e8e72e45dd29557938c10ed0848e62ad76018", "ver": 1, "vin_sz": 1, "vout_sz": 1, "size": 135, "weight": 540, "fee": 0, "relayed_by": "0.0.0.0", "lock_time": 0, "tx_index": 857734586878209, "double_spend": false, "time": 1231865478, "block_index": 350, "block_height": 350, "inputs": [{"sequence": 4294967295, "witness": "", "script": "04ffff001d027801", "index": 0, "prev_out": null}], "out": [{"type": 0, "spent": false, "value": 5000000000, "spending_outpoints": [], "n": 0, "tx_index": 857734586878209, "script": "41045c9f13fd0d908e3ace30e8c1897fb2c44ab148aafde957327aadd2dc8c833c8a2c9a94aeb7f2f0885b931b89c7ecb3123287f68538f9370106e7d0af76fe431fac", "addr": "13SxLs9mUbCyXrJ273nJLShaFq5dmDNiJM"}], "hex": "01000000010000000000000000000000000000000000000000000000000000000000000000ffffffff0804ffff001d027801ffffffff0100f2052a010000004341045c9f13fd0d908e3ace30e8c1897fb2c44ab148aafde957327aadd2dc8c833c8a2c9a94aeb7f2f0885b931b89c7ecb3123287f68538f9370106e7d0af76fe431fac00000000"}]}