{"hash": "00000000db629e4d40902dc756ee9e3ebb87a76d2750e0846849f3d5e93bb4d6", "ver": 1, "prev_block": "00000000e286ad94972e44b0532f2823bcda3977661a5136ff4d9d7db107d944", "mrkl_root": "7bb7e39b2db8ca464db731ab5ce9cf8da82c57f85a97b1469646512ea120e736", "time": 1231866358, "bits": 486604799, "next_block": ["0000000090e31ebfb5734092b91f0d8b1dc5f40cd7ff9c18b3f0e999278c7c91"], "fee": 0, "nonce": 3624880917, "n_tx": 1, "size": 216, "block_index": 351, "main_chain": true, "height": 351, "weight": 864, "tx": [{"hash": "7bb7e39b2db8ca464db731ab5ce9cf8da82c57f85a97b1469646512ea120e736", "ver": 1, "vin_sz": 1, "vout_sz": 1, "size": 135, "weight": 540, "fee": 0, "relayed_by": "0.0.0.0", "lock_time": 0, "tx_index": 1931722008939048, "double_spend": false, "time": 1231866358, "block_index": 351, "block_height": 351, "inputs": [{"sequence": 4294967295, "witness": "", "script": "04ffff001d029101", "index": 0, "prev_out": null}], "out": [{"type": 0, "spent": false, "value": 5000000000, "spending_outpoints": [], "n": 0, "tx_index": 1931722008939048, "script": "41044e548abe660b672f494f32dd58c84be584d6d64a7886af924bb32ffee2c156c00c605a2c5cc5be5c7d59bd96ed8220d82673700df0f2d03a434fb318f68ddc1fac", "addr": "1H79k9G7Fcy9NYn62cswr5h1VJPaygs6Gw"}], "hex": "01000000010000000000000000000000000000000000000000000000000000000000000000ffffffff0804ffff001d029101ffffffff0100f2052a010000004341044e548abe660b672f494f32dd58c84be584d6d64a7886af924bb32ffee2c156c00c605a2c5cc5be5c7d59bd96ed8220d82673700df0f2d03a434fb318f68ddc1fac00000000"}]}