{"hash": "0000000090e31ebfb5734092b91f0d8b1dc5f40cd7ff9c18b3f0e999278c7c91", "ver": 1, "prev_block": "00000000db629e4d40902dc756ee9e3ebb87a76d2750e0846849f3d5e93bb4d6", "mrkl_root": "4c4c29d07679bfdad5f037ba429419d206a656782d5aa88ecd728a0033ac1a67", "time": 1231866858, "bits": 486604799, "next_block": ["00000000dec5e5fbf851495db241e624012d675bbef96ec6dab5cdc91fa3b53b"], "fee": 0, "nonce": 633069597, "n_tx": 1, "size": 216, "block_index": 352, "main_chain": true, "height": 352, "weight": 864, "tx": [{"hash": "4c4c29d07679bfdad5f037ba429419d206a656782d5aa88ecd728a0033ac1a67", "ver": 1, "vin_sz": 1, "vout_sz": 1, "size": 135, "weight": 540, "fee": 0, "relayed_by": "0.0.0.0", "lock_time": 0, "tx_index": 3627656186696014, "double_spend": false, "time": 1231866858, "block_index": 352, "block_height": 352, "inputs": [{"sequence": 4294967295, "witness": "", "script": "04ffff001d029201", "index": 0, "prev_out": null}], "out": [{"type": 0, "spent": false, "value": 5000000000, "spending_outpoints": [], "n": 0, "tx_index": 3627656186696014, "script": "41048df180ad653c3040e91b8cf559a04b695fdf7bc250d0431ce73dcc1d074d3605f87f65e18cd18fe6a59453a0aa69c8a2f89b8d7af0b2407da7683e4a0ab23280ac", "addr": "1PdFaLjq38qFWsFqkvUfG7JwBfnsuxLsL6"}], "hex": "01000000010000000000000000000000000000000000000000000000000000000000000000ffffffff0804ffff001d029201ffffffff0100f2052a010000004341048df180ad653c3040e91b8cf559a04b695fdf7bc250d0431ce73dcc1d074d3605f87f65e18cd18fe6a59453a0aa69c8a2f89b8d7af0b2407da7683e4a0ab23280ac00000000"}]}