{"hash": "00000000dec5e5fbf851495db241e624012d675bbef96ec6dab5cdc91fa3b53b", "ver": 1, "prev_block": "0000000090e31ebfb5734092b91f0d8b1dc5f40cd7ff9c18b3f0e999278c7c91", "mrkl_root": "cfca74c0c3b1f8560fbc3866915a161d4fc1c03b85acb9ef3a8bef9c632e0410", "time": 1231867963, "bits": 486604799, "next_block": ["000000009bbc82871dd828a2573d035d05cc2947c7d99668609f6c671779436c"], "fee": 0, "nonce": 3399760157, "n_tx": 1, "size": 216, "block_index": 353, "main_chain": true, "height": 353, "weight": 864, "tx": [{"hash": "cfca74c0c3b1f8560fbc3866915a161d4fc1c03b85acb9ef3a8bef9c632e0410", "ver": 1, "vin_sz": 1, "vout_sz": 1, "size": 135, "weight": 540, "fee": 0, "relayed_by": "0.0.0.0", "lock_time": 0, "tx_index": 563524614200817, "double_spend": false, "time": 1231867963, "block_index": 353, "block_height": 353, "inputs": [{"sequence": 4294967295, "witness": "", "script": "04ffff001d029301", "index": 0, "prev_out": null}], "out": [{"type": 0, "spent": false, "value": 5000000000, "spending_outpoints": [], "n": 0, "tx_index": 563524614200817, "script": "4104072c895ece84f16a6bc34ece1286beaa40c58b8b1a3bd5161d91a597cff68143988fffc2400c7fbfd92a75046c10180eddbc78ad72276fd032a96b654fa4e196ac", "addr": "19P6K24sBGWhT6F6xXE7ppGjJnTjdkiMQS"}], "hex": "01000000010000000000000000000000000000000000000000000000000000000000000000ffffffff0804ffff001d029301ffffffff0100f2052a01000000434104072c895ece84f16a6bc34ece1286beaa40c58b8b1a3bd5161d91a597cff68143988fffc2400c7fbfd92a75046c10180eddbc78ad72276fd032a96b654fa4e196ac00000000"}]}