{"hash": "000000009bbc82871dd828a2573d035d05cc2947c7d99668609f6c671779436c", "ver": 1, "prev_block": "00000000dec5e5fbf851495db241e624012d675bbef96ec6dab5cdc91fa3b53b", "mrkl_root": "987ab2614f1d64bd6315a5e76ca3393716b77cc523be7356d264ee2d9b9b970d", "time": 1231868549, "bits": 486604799, "next_block": ["000000006b6a210ca5b715e587c0155a2524c3d592266bdbd75cf1186172dab8"], "fee": 0, "nonce": 2770300165, "n_tx": 1, "size": 216, "block_index": 354, "main_chain": true, "height": 354, "weight": 864, "tx": [{"hash": "987ab2614f1d64bd6315a5e76ca3393716b77cc523be7356d264ee2d9b9b970d", "ver": 1, "vin_sz": 1, "vout_sz": 1, "size": 135, "weight": 540, "fee": 0, "relayed_by": "0.0.0.0", "lock_time": 0, "tx_index": 478233659555276, "double_spend": false, "time": 1231868549, "block_index": 354, "block_height": 354, "inputs": [{"sequence": 4294967295, "witness": "", "script": "04ffff001d029501", "index": 0, "prev_out": null}], "out": [{"type": 0, "spent": false, "value": 5000000000, "spending_outpoints": [], "n": 0, "tx_index": 478233659555276, "script": "4104485dcd87397fbc6ee9a028b07fb9e06de0b75d125aee1a0fd5eb2caa75c09192425d607ea78495f068c083cb966482935cdcd4258a9a967d8166c8f05b1d2030ac", "addr": "1BjQyJZBf1B4DuQNkrLb9Leu985GPpzZRT"}], "hex": "01000000010000000000000000000000000000000000000000000000000000000000000000ffffffff0804ffff001d029501ffffffff0100f2052a01000000434104485dcd87397fbc6ee9a028b07fb9e06de0b75d125aee1a0fd5eb2caa75c09192425d607ea78495f068c083cb966482935cdcd4258a9a967d8166c8f05b1d2030ac00000000"}]}