{"hash": "000000006b6a210ca5b715e587c0155a2524c3d592266bdbd75cf1186172dab8", "ver": 1, "prev_block": "000000009bbc82871dd828a2573d035d05cc2947c7d99668609f6c671779436c", "mrkl_root": "3caf7b5832b0be3621ec166a3560e90bf267485a987f6d3e99b1e142497f2ae0", "time": 1231869577, "bits": 486604799, "next_block": ["00000000e125dc5a97591697785b3a3cbb9a9c2857d4a0a3a9905461eceb1ddd"], "fee": 0, "nonce": 974193704, "n_tx": 1, "size": 216, "block_index": 355, "main_chain": true, "height": 355, "weight": 864, "tx": [{"hash": "3caf7b5832b0be3621ec166a3560e90bf267485a987f6d3e99b1e142497f2ae0", "ver": 1, "vin_sz": 1, "vout_sz": 1, "size": 135, "weight": 540, "fee": 0, "relayed_by": "0.0.0.0", "lock_time": 0, "tx_index": 7887140120190006, "double_spend": false, "time": 1231869577, "block_index": 355, "block_height": 355, "inputs": [{"sequence": 4294967295, "witness": "", "script": "04ffff001d02a201", "index": 0, "prev_out": null}], "out": [{"type": 0, "spent": false, "value": 5000000000, "spending_outpoints": [], "n": 0, "tx_index": 7887140120190006, "script": "410430b51ef35b3a0df616e5aa73ac0c1e1362a194ac7bb04b76b36f140e8ee9cdecdf0692601f0c9e9028ca8ccef4664b7d30c5276dbeb156064752dcae508b0eeaac", "addr": "1HkNu2cAvgrpg6evAg7KDTo5n7magkMMXh"}], "hex": "01000000010000000000000000000000000000000000000000000000000000000000000000ffffffff0804ffff001d02a201ffffffff0100f2052a0100000043410430b51ef35b3a0df616e5aa73ac0c1e1362a194ac7bb04b76b36f140e8ee9cdecdf0692601f0c9e9028ca8ccef4664b7d30c5276dbeb156064752dcae508b0eeaac00000000"}]}