{"hash": "00000000e125dc5a97591697785b3a3cbb9a9c2857d4a0a3a9905461eceb1ddd", "ver": 1, "prev_block": "000000006b6a210ca5b715e587c0155a2524c3d592266bdbd75cf1186172dab8", "mrkl_root": "7a7bb9e41b524e03081b8114762b3138bd8d0ae7f2469ca68d0d2f5967b894d5", "time": 1231870655, "bits": 486604799, "next_block": ["0000000018271ff4d19879fbe9f94bccf7323965fe1926fb0458ddee8b63c992"], "fee": 0, "nonce": 3061064752, "n_tx": 1, "size": 216, "block_index": 356, "main_chain": true, "height": 356, "weight": 864, "tx": [{"hash": "7a7bb9e41b524e03081b8114762b3138bd8d0ae7f2469ca68d0d2f5967b894d5", "ver": 1, "vin_sz": 1, "vout_sz": 1, "size": 135, "weight": 540, "fee": 0, "relayed_by": "0.0.0.0", "lock_time": 0, "tx_index": 7514711221020129, "double_spend": false, "time": 1231870655, "block_index": 356, "block_height": 356, "inputs": [{"sequence": 4294967295, "witness": "", "script": "04ffff001d02a801", "index": 0, "prev_out": null}], "out": [{"type": 0, "spent": false, "value": 5000000000, "spending_outpoints": [], "n": 0, "tx_index": 7514711221020129, "script": "4104d6d961754e9b251fbce98950bfdcb9d29fd0eb857c74bd601ef1d1ac4185e1ce49d6bce7ba506daba52501a855f05ec15f34d2f17f8d9363a45fa572a36b64f9ac", "addr": "1DKw14Gr3w8rPQV2mHLaami1pzpHy8M1vy"}], "hex": "01000000010000000000000000000000000000000000000000000000000000000000000000ffffffff0804ffff001d02a801ffffffff0100f2052a01000000434104d6d961754e9b251fbce98950bfdcb9d29fd0eb857c74bd601ef1d1ac4185e1ce49d6bce7ba506daba52501a855f05ec15f34d2f17f8d9363a45fa572a36b64f9ac00000000"}]}