{"hash": "0000000032d1692a4b213820a1e668733d72e483188ca3dc64f838cdcf5b2fb9", "ver": 1, "prev_block": "0000000018271ff4d19879fbe9f94bccf7323965fe1926fb0458ddee8b63c992", "mrkl_root": "8e14057a94ffefff7dcc9e8ab9c9f7090ab3877d8cc918641af2a76e1df5b4ac", "time": 1231871671, "bits": 486604799, "next_block": ["0000000092c57e4d0f6f29a83a4072fdea05816199619e60c96867f7df570d5d"], "fee": 0, "nonce": 564240431, "n_tx": 1, "size": 216, "block_index": 358, "main_chain": true, "height": 358, "weight": 864, "tx": [{"hash": "8e14057a94ffefff7dcc9e8ab9c9f7090ab3877d8cc918641af2a76e1df5b4ac", "ver": 1, "vin_sz": 1, "vout_sz": 1, "size": 135, "weight": 540, "fee": 0, "relayed_by": "0.0.0.0", "lock_time": 0, "tx_index": 6076582606001406, "double_spend": false, "time": 1231871671, "block_index": 358, "block_height": 358, "inputs": [{"sequence": 4294967295, "witness": "", "script": "04ffff001d02ae01", "index": 0, "prev_out": null}], "out": [{"type": 0, "spent": false, "value": 5000000000, "spending_outpoints": [], "n": 0, "tx_index": 6076582606001406, "script": "4104e7b01d63a21c3258c02d02e46f2ea9cfd010e70c8722b10d5437e09522073e0ccf5155707a8e0f889c82f6b216afcef13aed3aecd29093f71dcde7a0af0474d2ac", "addr": "1FjA2SSx4xu4q33GgsRnuezZEQVsMH3kg9"}], "hex": "01000000010000000000000000000000000000000000000000000000000000000000000000ffffffff0804ffff001d02ae01ffffffff0100f2052a01000000434104e7b01d63a21c3258c02d02e46f2ea9cfd010e70c8722b10d5437e09522073e0ccf5155707a8e0f889c82f6b216afcef13aed3aecd29093f71dcde7a0af0474d2ac00000000"}]}