{"hash": "0000000092c57e4d0f6f29a83a4072fdea05816199619e60c96867f7df570d5d", "ver": 1, "prev_block": "0000000032d1692a4b213820a1e668733d72e483188ca3dc64f838cdcf5b2fb9", "mrkl_root": "6959b3dad2d2c20625013a464b5acb2442da2096a1243e0034e1e5a984b1e10c", "time": 1231872516, "bits": 486604799, "next_block": ["00000000b3de4f2a07df16131eab4f13aa38f9db2d4468ba25a083f8c0cb2cd6"], "fee": 0, "nonce": 2119252013, "n_tx": 1, "size": 216, "block_index": 359, "main_chain": true, "height": 359, "weight": 864, "tx": [{"hash": "6959b3dad2d2c20625013a464b5acb2442da2096a1243e0034e1e5a984b1e10c", "ver": 1, "vin_sz": 1, "vout_sz": 1, "size": 135, "weight": 540, "fee": 0, "relayed_by": "0.0.0.0", "lock_time": 0, "tx_index": 453231533964476, "double_spend": false, "time": 1231872516, "block_index": 359, "block_height": 359, "inputs": [{"sequence": 4294967295, "witness": "", "script": "04ffff001d02b101", "index": 0, "prev_out": null}], "out": [{"type": 0, "spent": false, "value": 5000000000, "spending_outpoints": [], "n": 0, "tx_index": 453231533964476, "script": "4104df8c5d8ca2404f53ee574702c08602c9a38a7ae05b2b36b06dfc55802d53e58c477bd864a48403396c431681b3466b5a5be53a13ebc2bacb49b4862d31e02096ac", "addr": "1Nyeey2zgSV1bSTFca6zon7z1raoMuHqeZ"}], "hex": "01000000010000000000000000000000000000000000000000000000000000000000000000ffffffff0804ffff001d02b101ffffffff0100f2052a01000000434104df8c5d8ca2404f53ee574702c08602c9a38a7ae05b2b36b06dfc55802d53e58c477bd864a48403396c431681b3466b5a5be53a13ebc2bacb49b4862d31e02096ac00000000"}]}