{"hash": "00000000f824d643f525b4904ea25c92174b8499435f388549a1700f4d3244de", "ver": 1, "prev_block": "00000000b572a465b4e816420d47a16274557b3573b7924b64808a82c7322d9b", "mrkl_root": "d05d256fbd5845b30039e37d48215788a4e438249048c47ddb9c83cd927d4d5a", "time": 1231605789, "bits": 486604799, "next_block": ["00000000ddd96d128e122d1179034ff66c27dc583eb9e8996a0b1779c60c6f86"], "fee": 0, "nonce": 797229870, "n_tx": 1, "size": 215, "block_index": 36, "main_chain": true, "height": 36, "weight": 860, "tx": [{"hash": "d05d256fbd5845b30039e37d48215788a4e438249048c47ddb9c83cd927d4d5a", "ver": 1, "vin_sz": 1, "vout_sz": 1, "size": 134, "weight": 536, "fee": 0, "relayed_by": "0.0.0.0", "lock_time": 0, "tx_index": 3177243704143987, "double_spend": false, "time": 1231605789, "block_index": 36, "block_height": 36, "inputs": [{"sequence": 4294967295, "witness": "", "script": "04ffff001d0150", "index": 0, "prev_out": null}], "out": [{"type": 0, "spent": false, "value": 5000000000, "spending_outpoints": [], "n": 0, "tx_index": 3177243704143987, "script": "4104ce29c26fb59eadf6b9b38a3e7f52646877bcdcd7b5f290a47a7a61668bda2c82c8f13f66e8665cfe7594d7da51f431df4df2f60df08ecfd53d2f2d076b4bc24eac", "addr": "1NHHWnZKTetjZZfAbVjTS9EHQafdH6xn8a"}], "hex": "01000000010000000000000000000000000000000000000000000000000000000000000000ffffffff0704ffff001d0150ffffffff0100f2052a01000000434104ce29c26fb59eadf6b9b38a3e7f52646877bcdcd7b5f290a47a7a61668bda2c82c8f13f66e8665cfe7594d7da51f431df4df2f60df08ecfd53d2f2d076b4bc24eac00000000"}]}