{"hash": "00000000b3de4f2a07df16131eab4f13aa38f9db2d4468ba25a083f8c0cb2cd6", "ver": 1, "prev_block": "0000000092c57e4d0f6f29a83a4072fdea05816199619e60c96867f7df570d5d", "mrkl_root": "264299886446921c89e598ec2b1ec3eab6a2c9b0235b310ff513a039315ff721", "time": 1231872582, "bits": 486604799, "next_block": ["0000000015f33195efd709e45c5de92081fb8fefdf456d5402e15e2d971fb20f"], "fee": 0, "nonce": 4831612, "n_tx": 1, "size": 215, "block_index": 360, "main_chain": true, "height": 360, "weight": 860, "tx": [{"hash": "264299886446921c89e598ec2b1ec3eab6a2c9b0235b310ff513a039315ff721", "ver": 1, "vin_sz": 1, "vout_sz": 1, "size": 134, "weight": 536, "fee": 0, "relayed_by": "0.0.0.0", "lock_time": 0, "tx_index": 1195082806408194, "double_spend": false, "time": 1231872582, "block_index": 360, "block_height": 360, "inputs": [{"sequence": 4294967295, "witness": "", "script": "04ffff001d014b", "index": 0, "prev_out": null}], "out": [{"type": 0, "spent": true, "value": 5000000000, "spending_outpoints": [{"tx_index": 1816063685936491, "n": 0}], "n": 0, "tx_index": 1195082806408194, "script": "41044ca7baf6d8b658abd04223909d82f1764740bdc9317255f54e4910f888bd82950e33236798517591e4c2181f69b5eaa2fa1f21866780a0cc5d8396a04fd36310ac", "addr": "18SH9vwx24L5cTabfkgtGMjF8A56pD9AUJ"}], "hex": "01000000010000000000000000000000000000000000000000000000000000000000000000ffffffff0704ffff001d014bffffffff0100f2052a010000004341044ca7baf6d8b658abd04223909d82f1764740bdc9317255f54e4910f888bd82950e33236798517591e4c2181f69b5eaa2fa1f21866780a0cc5d8396a04fd36310ac00000000"}]}