{"hash": "0000000015f33195efd709e45c5de92081fb8fefdf456d5402e15e2d971fb20f", "ver": 1, "prev_block": "00000000b3de4f2a07df16131eab4f13aa38f9db2d4468ba25a083f8c0cb2cd6", "mrkl_root": "b2e862f2cd9085afd21b5b5df86598c2118a33eee8ac773c01c67026b57b2f40", "time": 1231873025, "bits": 486604799, "next_block": ["00000000d654e9866ad27a9bd3147fcc461fc13d261954f76d1281307883a729"], "fee": 0, "nonce": 78418133, "n_tx": 1, "size": 215, "block_index": 361, "main_chain": true, "height": 361, "weight": 860, "tx": [{"hash": "b2e862f2cd9085afd21b5b5df86598c2118a33eee8ac773c01c67026b57b2f40", "ver": 1, "vin_sz": 1, "vout_sz": 1, "size": 134, "weight": 536, "fee": 0, "relayed_by": "0.0.0.0", "lock_time": 0, "tx_index": 2258325859520024, "double_spend": false, "time": 1231873025, "block_index": 361, "block_height": 361, "inputs": [{"sequence": 4294967295, "witness": "", "script": "04ffff001d010c", "index": 0, "prev_out": null}], "out": [{"type": 0, "spent": true, "value": 5000000000, "spending_outpoints": [{"tx_index": 8751447239957630, "n": 27}], "n": 0, "tx_index": 2258325859520024, "script": "4104082b3089fb89b6044d61fbfd03e041e5c102d467654f872804eb6fdea20719ef5e9849cd9f2bfc9f4108b05378737b2629ba9f9ab2a1fd1a5de5b0b7da2af72dac", "addr": "12wej8tANWruTQFEhWFJtTkjNLt76pE268"}], "hex": "01000000010000000000000000000000000000000000000000000000000000000000000000ffffffff0704ffff001d010cffffffff0100f2052a01000000434104082b3089fb89b6044d61fbfd03e041e5c102d467654f872804eb6fdea20719ef5e9849cd9f2bfc9f4108b05378737b2629ba9f9ab2a1fd1a5de5b0b7da2af72dac00000000"}]}