{"hash": "00000000d654e9866ad27a9bd3147fcc461fc13d261954f76d1281307883a729", "ver": 1, "prev_block": "0000000015f33195efd709e45c5de92081fb8fefdf456d5402e15e2d971fb20f", "mrkl_root": "ec524d8c32fe505dd07eee134d45ba2cedadbce2d77a75dbeac91f1228917203", "time": 1231873610, "bits": 486604799, "next_block": ["00000000128007ab3db907e5142718fe41ee551535e1f68e2931f15f80603f41"], "fee": 0, "nonce": 2656963109, "n_tx": 1, "size": 216, "block_index": 362, "main_chain": true, "height": 362, "weight": 864, "tx": [{"hash": "ec524d8c32fe505dd07eee134d45ba2cedadbce2d77a75dbeac91f1228917203", "ver": 1, "vin_sz": 1, "vout_sz": 1, "size": 135, "weight": 540, "fee": 0, "relayed_by": "0.0.0.0", "lock_time": 0, "tx_index": 121299087279097, "double_spend": false, "time": 1231873610, "block_index": 362, "block_height": 362, "inputs": [{"sequence": 4294967295, "witness": "", "script": "04ffff001d02b501", "index": 0, "prev_out": null}], "out": [{"type": 0, "spent": false, "value": 5000000000, "spending_outpoints": [], "n": 0, "tx_index": 121299087279097, "script": "41042b3ef4f0a85c068aaacea32497338cfa6157e47d7b47d986e38c4ccac0ee9e9b8eb5da0a45272c4d67422b5882606888afba42aa17ee65886b3c4d8fffa61aa2ac", "addr": "1FFEtukmcb23HaeAFHXc5tWEQxJrJcFVoK"}], "hex": "01000000010000000000000000000000000000000000000000000000000000000000000000ffffffff0804ffff001d02b501ffffffff0100f2052a010000004341042b3ef4f0a85c068aaacea32497338cfa6157e47d7b47d986e38c4ccac0ee9e9b8eb5da0a45272c4d67422b5882606888afba42aa17ee65886b3c4d8fffa61aa2ac00000000"}]}