{"hash": "00000000128007ab3db907e5142718fe41ee551535e1f68e2931f15f80603f41", "ver": 1, "prev_block": "00000000d654e9866ad27a9bd3147fcc461fc13d261954f76d1281307883a729", "mrkl_root": "94d1fb56b33424657ca086d8789672ad38cb7ce333da642b9f38568ad3576845", "time": 1231874201, "bits": 486604799, "next_block": ["00000000ad29c3caf774552a757b68a54b55cd0b9ff0bb2eda4c9d0409b26c0d"], "fee": 0, "nonce": 2479128866, "n_tx": 1, "size": 216, "block_index": 363, "main_chain": true, "height": 363, "weight": 864, "tx": [{"hash": "94d1fb56b33424657ca086d8789672ad38cb7ce333da642b9f38568ad3576845", "ver": 1, "vin_sz": 1, "vout_sz": 1, "size": 135, "weight": 540, "fee": 0, "relayed_by": "0.0.0.0", "lock_time": 0, "tx_index": 2442062476692167, "double_spend": false, "time": 1231874201, "block_index": 363, "block_height": 363, "inputs": [{"sequence": 4294967295, "witness": "", "script": "04ffff001d02bd01", "index": 0, "prev_out": null}], "out": [{"type": 0, "spent": false, "value": 5000000000, "spending_outpoints": [], "n": 0, "tx_index": 2442062476692167, "script": "41040d91323ca448663776a4142eba3d449c49f38de07e4aff641ca5524f2855cf4319f4753c5ae679c13f45e74f27d7a2e5e095beee867f8025c0707b08e88bc6c7ac", "addr": "1MWsRH8mA36a4LqzvbqEJi4et2HVcDkKyK"}], "hex": "01000000010000000000000000000000000000000000000000000000000000000000000000ffffffff0804ffff001d02bd01ffffffff0100f2052a010000004341040d91323ca448663776a4142eba3d449c49f38de07e4aff641ca5524f2855cf4319f4753c5ae679c13f45e74f27d7a2e5e095beee867f8025c0707b08e88bc6c7ac00000000"}]}