{"hash": "00000000ad29c3caf774552a757b68a54b55cd0b9ff0bb2eda4c9d0409b26c0d", "ver": 1, "prev_block": "00000000128007ab3db907e5142718fe41ee551535e1f68e2931f15f80603f41", "mrkl_root": "306eb738d2d0cd1f287d919302c8edd5114f03d2ec63b129831b1676bc7f2b83", "time": 1231875152, "bits": 486604799, "next_block": ["00000000c256b2fa2ac9936f8f78dc8a0d88320a6bb0803ae30f82406af13955"], "fee": 0, "nonce": 3676055601, "n_tx": 1, "size": 216, "block_index": 364, "main_chain": true, "height": 364, "weight": 864, "tx": [{"hash": "306eb738d2d0cd1f287d919302c8edd5114f03d2ec63b129831b1676bc7f2b83", "ver": 1, "vin_sz": 1, "vout_sz": 1, "size": 135, "weight": 540, "fee": 0, "relayed_by": "0.0.0.0", "lock_time": 0, "tx_index": 4615131196474051, "double_spend": false, "time": 1231875152, "block_index": 364, "block_height": 364, "inputs": [{"sequence": 4294967295, "witness": "", "script": "04ffff001d02c501", "index": 0, "prev_out": null}], "out": [{"type": 0, "spent": false, "value": 5000000000, "spending_outpoints": [], "n": 0, "tx_index": 4615131196474051, "script": "41047ef0db5d7a56ca637728cfef66aa24c4feb14ad105cffd77cfe3db68ac9137a84d031cb555ecfaa6c9dad604863b27819347c0e77c760a12f27b82a1d2ba2141ac", "addr": "1Kn9FZNVtKs1SGGqa3jnq6zdnopXHhTmpQ"}], "hex": "01000000010000000000000000000000000000000000000000000000000000000000000000ffffffff0804ffff001d02c501ffffffff0100f2052a010000004341047ef0db5d7a56ca637728cfef66aa24c4feb14ad105cffd77cfe3db68ac9137a84d031cb555ecfaa6c9dad604863b27819347c0e77c760a12f27b82a1d2ba2141ac00000000"}]}