{"hash": "00000000c256b2fa2ac9936f8f78dc8a0d88320a6bb0803ae30f82406af13955", "ver": 1, "prev_block": "00000000ad29c3caf774552a757b68a54b55cd0b9ff0bb2eda4c9d0409b26c0d", "mrkl_root": "63722234d931137e97fbd0e76ce4d0b5493cdfd6296fa1b534646c3e61480946", "time": 1231875837, "bits": 486604799, "next_block": ["000000009342a7b5d434088a48d94dc05ca2b8543f11d8042c4fa2a32f3cfad5"], "fee": 0, "nonce": 1380805661, "n_tx": 1, "size": 216, "block_index": 365, "main_chain": true, "height": 365, "weight": 864, "tx": [{"hash": "63722234d931137e97fbd0e76ce4d0b5493cdfd6296fa1b534646c3e61480946", "ver": 1, "vin_sz": 1, "vout_sz": 1, "size": 135, "weight": 540, "fee": 0, "relayed_by": "0.0.0.0", "lock_time": 0, "tx_index": 2464181855440268, "double_spend": false, "time": 1231875837, "block_index": 365, "block_height": 365, "inputs": [{"sequence": 4294967295, "witness": "", "script": "04ffff001d02cb01", "index": 0, "prev_out": null}], "out": [{"type": 0, "spent": false, "value": 5000000000, "spending_outpoints": [], "n": 0, "tx_index": 2464181855440268, "script": "410448cacb52dc017abd7d6124755e3093f2daca88290766a7add8cc68ccc2d370378eb5e58a1499b3ce1e5504942d5cc634c2c2e073e1faf2c512adde78b3519592ac", "addr": "1KtbSCLMna1guMWPjMyQwXNsGdi94rJJAk"}], "hex": "01000000010000000000000000000000000000000000000000000000000000000000000000ffffffff0804ffff001d02cb01ffffffff0100f2052a0100000043410448cacb52dc017abd7d6124755e3093f2daca88290766a7add8cc68ccc2d370378eb5e58a1499b3ce1e5504942d5cc634c2c2e073e1faf2c512adde78b3519592ac00000000"}]}