{"hash": "000000009342a7b5d434088a48d94dc05ca2b8543f11d8042c4fa2a32f3cfad5", "ver": 1, "prev_block": "00000000c256b2fa2ac9936f8f78dc8a0d88320a6bb0803ae30f82406af13955", "mrkl_root": "5131177fea9b1937808d86509587ab3a2de0adc882085531a63dc826cc7618c2", "time": 1231876609, "bits": 486604799, "next_block": ["00000000b4faa2facc1e5f54978b5c4cc770457d0ce921ac7c8a45d766e0858a"], "fee": 0, "nonce": 2335195392, "n_tx": 1, "size": 216, "block_index": 366, "main_chain": true, "height": 366, "weight": 864, "tx": [{"hash": "5131177fea9b1937808d86509587ab3a2de0adc882085531a63dc826cc7618c2", "ver": 1, "vin_sz": 1, "vout_sz": 1, "size": 135, "weight": 540, "fee": 0, "relayed_by": "0.0.0.0", "lock_time": 0, "tx_index": 6829130499021063, "double_spend": false, "time": 1231876609, "block_index": 366, "block_height": 366, "inputs": [{"sequence": 4294967295, "witness": "", "script": "04ffff001d02cd01", "index": 0, "prev_out": null}], "out": [{"type": 0, "spent": false, "value": 5000000000, "spending_outpoints": [], "n": 0, "tx_index": 6829130499021063, "script": "4104279f1340c9ee18865ed7df112e11e58881ee35c0681b73967857336edddcd64f16233deef7748ecf1979f8dc252e8becfbef64adf39e3cb29586eeeee19cbb16ac", "addr": "1BHP5ctS55e6FR4SqidpdeYEzEfmKCfEz9"}], "hex": "01000000010000000000000000000000000000000000000000000000000000000000000000ffffffff0804ffff001d02cd01ffffffff0100f2052a01000000434104279f1340c9ee18865ed7df112e11e58881ee35c0681b73967857336edddcd64f16233deef7748ecf1979f8dc252e8becfbef64adf39e3cb29586eeeee19cbb16ac00000000"}]}