{"hash": "00000000b4faa2facc1e5f54978b5c4cc770457d0ce921ac7c8a45d766e0858a", "ver": 1, "prev_block": "000000009342a7b5d434088a48d94dc05ca2b8543f11d8042c4fa2a32f3cfad5", "mrkl_root": "c0ec5046f2616b7562fcd2b0b9bcbad187486bae9448dc6b49362175b3a1c5ef", "time": 1231877248, "bits": 486604799, "next_block": ["0000000023ead2b9fd8c909248a60bd63b0edca44c10c8a267548f9a6ae9f1b8"], "fee": 0, "nonce": 164959020, "n_tx": 1, "size": 216, "block_index": 367, "main_chain": true, "height": 367, "weight": 864, "tx": [{"hash": "c0ec5046f2616b7562fcd2b0b9bcbad187486bae9448dc6b49362175b3a1c5ef", "ver": 1, "vin_sz": 1, "vout_sz": 1, "size": 135, "weight": 540, "fee": 0, "relayed_by": "0.0.0.0", "lock_time": 0, "tx_index": 8436227215631398, "double_spend": false, "time": 1231877248, "block_index": 367, "block_height": 367, "inputs": [{"sequence": 4294967295, "witness": "", "script": "04ffff001d02ce01", "index": 0, "prev_out": null}], "out": [{"type": 0, "spent": false, "value": 5000000000, "spending_outpoints": [], "n": 0, "tx_index": 8436227215631398, "script": "4104fb49018b6f5d4b8d1731cd01f2af6ea25d1624a7e5af952762346e58c50de7060ee045098ab3e7540fcfddbd442e39167c6f2eaf89ef4637faf2e87c6d2b9d4fac", "addr": "12CnxFWVZq59tbsgoSn6TJWArWLoiJDRNk"}], "hex": "01000000010000000000000000000000000000000000000000000000000000000000000000ffffffff0804ffff001d02ce01ffffffff0100f2052a01000000434104fb49018b6f5d4b8d1731cd01f2af6ea25d1624a7e5af952762346e58c50de7060ee045098ab3e7540fcfddbd442e39167c6f2eaf89ef4637faf2e87c6d2b9d4fac00000000"}]}