{"hash": "0000000023ead2b9fd8c909248a60bd63b0edca44c10c8a267548f9a6ae9f1b8", "ver": 1, "prev_block": "00000000b4faa2facc1e5f54978b5c4cc770457d0ce921ac7c8a45d766e0858a", "mrkl_root": "4a91dc63def53fa07da7f292ca85e221dce97f20f78f41d0a6b0aa1c77021913", "time": 1231878378, "bits": 486604799, "next_block": ["0000000063a7ce9070407aaa02268a35a3eb652b2e083c26630e17c1a5a7a553"], "fee": 0, "nonce": 447066624, "n_tx": 1, "size": 216, "block_index": 368, "main_chain": true, "height": 368, "weight": 864, "tx": [{"hash": "4a91dc63def53fa07da7f292ca85e221dce97f20f78f41d0a6b0aa1c77021913", "ver": 1, "vin_sz": 1, "vout_sz": 1, "size": 135, "weight": 540, "fee": 0, "relayed_by": "0.0.0.0", "lock_time": 0, "tx_index": 671940367062358, "double_spend": false, "time": 1231878378, "block_index": 368, "block_height": 368, "inputs": [{"sequence": 4294967295, "witness": "", "script": "04ffff001d02d101", "index": 0, "prev_out": null}], "out": [{"type": 0, "spent": false, "value": 5000000000, "spending_outpoints": [], "n": 0, "tx_index": 671940367062358, "script": "4104ec4919dfc3abd2ce018a3d419815a8e668b5db54a7fb6eaa1aee778fa42101699a100e448fd7b00c1639b0479b672a554effcf302698b9bad69749ec94c7315bac", "addr": "1B74mH4g8X7xwoxVwpLgCSvbd229KVSEqH"}], "hex": "01000000010000000000000000000000000000000000000000000000000000000000000000ffffffff0804ffff001d02d101ffffffff0100f2052a01000000434104ec4919dfc3abd2ce018a3d419815a8e668b5db54a7fb6eaa1aee778fa42101699a100e448fd7b00c1639b0479b672a554effcf302698b9bad69749ec94c7315bac00000000"}]}