{"hash": "0000000063a7ce9070407aaa02268a35a3eb652b2e083c26630e17c1a5a7a553", "ver": 1, "prev_block": "0000000023ead2b9fd8c909248a60bd63b0edca44c10c8a267548f9a6ae9f1b8", "mrkl_root": "c8c63477f4c63eedae8375b15a11f485fa36f48a0b8a2a1cedf4add92e1627eb", "time": 1231879535, "bits": 486604799, "next_block": ["00000000cad69daaae19df9068b0d4bc8d6999c63bd4fb067958bc8881ab7e5c"], "fee": 0, "nonce": 3657758004, "n_tx": 1, "size": 216, "block_index": 369, "main_chain": true, "height": 369, "weight": 864, "tx": [{"hash": "c8c63477f4c63eedae8375b15a11f485fa36f48a0b8a2a1cedf4add92e1627eb", "ver": 1, "vin_sz": 1, "vout_sz": 1, "size": 135, "weight": 540, "fee": 0, "relayed_by": "0.0.0.0", "lock_time": 0, "tx_index": 8273699469473214, "double_spend": false, "time": 1231879535, "block_index": 369, "block_height": 369, "inputs": [{"sequence": 4294967295, "witness": "", "script": "04ffff001d02d701", "index": 0, "prev_out": null}], "out": [{"type": 0, "spent": false, "value": 5000000000, "spending_outpoints": [], "n": 0, "tx_index": 8273699469473214, "script": "410486f4b2fbbe55b2cd9189a5286e81d78122b132f3299527a09d5d1da1cfb4ad6d6f8784671356dbc225a786b3f7c2886808c5d8de9d4ea8380394cc3077824dc5ac", "addr": "17uH84gEsksgt8dCLsBNozWcau2Xr91LuS"}], "hex": "01000000010000000000000000000000000000000000000000000000000000000000000000ffffffff0804ffff001d02d701ffffffff0100f2052a0100000043410486f4b2fbbe55b2cd9189a5286e81d78122b132f3299527a09d5d1da1cfb4ad6d6f8784671356dbc225a786b3f7c2886808c5d8de9d4ea8380394cc3077824dc5ac00000000"}]}