{"hash": "00000000ddd96d128e122d1179034ff66c27dc583eb9e8996a0b1779c60c6f86", "ver": 1, "prev_block": "00000000f824d643f525b4904ea25c92174b8499435f388549a1700f4d3244de", "mrkl_root": "6d344eb5d67ed329a1c1d7603bba4b85d5916435b49f7a585bb370b76820287d", "time": 1231606762, "bits": 486604799, "next_block": ["000000007c19ee8e924d3024d58efff50f872aadf256140bb1e3d62fea4fd6dd"], "fee": 0, "nonce": 2244623873, "n_tx": 1, "size": 215, "block_index": 37, "main_chain": true, "height": 37, "weight": 860, "tx": [{"hash": "6d344eb5d67ed329a1c1d7603bba4b85d5916435b49f7a585bb370b76820287d", "ver": 1, "vin_sz": 1, "vout_sz": 1, "size": 134, "weight": 536, "fee": 0, "relayed_by": "0.0.0.0", "lock_time": 0, "tx_index": 4403561468718614, "double_spend": false, "time": 1231606762, "block_index": 37, "block_height": 37, "inputs": [{"sequence": 4294967295, "witness": "", "script": "04ffff001d0157", "index": 0, "prev_out": null}], "out": [{"type": 0, "spent": false, "value": 5000000000, "spending_outpoints": [], "n": 0, "tx_index": 4403561468718614, "script": "4104655798e5ce83da2f24955e16396846528d919c223c9c2945b211b722d55a85ccb8930066eaf34c501ac37c4d41c8e579ccc00f54d5a5f1b3c27de525ece5a5d5ac", "addr": "1DpJP16GXSht3hJ5DZDumKcwAFqQQVkffN"}], "hex": "01000000010000000000000000000000000000000000000000000000000000000000000000ffffffff0704ffff001d0157ffffffff0100f2052a01000000434104655798e5ce83da2f24955e16396846528d919c223c9c2945b211b722d55a85ccb8930066eaf34c501ac37c4d41c8e579ccc00f54d5a5f1b3c27de525ece5a5d5ac00000000"}]}