{"hash": "00000000cad69daaae19df9068b0d4bc8d6999c63bd4fb067958bc8881ab7e5c", "ver": 1, "prev_block": "0000000063a7ce9070407aaa02268a35a3eb652b2e083c26630e17c1a5a7a553", "mrkl_root": "8fe8898cda7e9cc974804cc565a08ca62ab5df4fca8245f3474ec5a8ef5a71d1", "time": 1231879977, "bits": 486604799, "next_block": ["00000000ba884fc8047c04bba7068f575e21d4cb953e1f52262a0454c98c5586"], "fee": 0, "nonce": 2548732199, "n_tx": 1, "size": 216, "block_index": 370, "main_chain": true, "height": 370, "weight": 864, "tx": [{"hash": "8fe8898cda7e9cc974804cc565a08ca62ab5df4fca8245f3474ec5a8ef5a71d1", "ver": 1, "vin_sz": 1, "vout_sz": 1, "size": 135, "weight": 540, "fee": 0, "relayed_by": "0.0.0.0", "lock_time": 0, "tx_index": 7369113189292201, "double_spend": false, "time": 1231879977, "block_index": 370, "block_height": 370, "inputs": [{"sequence": 4294967295, "witness": "", "script": "04ffff001d02e001", "index": 0, "prev_out": null}], "out": [{"type": 0, "spent": false, "value": 5000000000, "spending_outpoints": [], "n": 0, "tx_index": 7369113189292201, "script": "410416153f938e0a5843c29fa1e9f40dc63a9a86f43138943454137a1faf579fb1f22ad407d87b17d1788acac0ad95bc46d19e6743dc4976a16c31c7414f1b3d97b0ac", "addr": "1HArN1vwJ1dy8Xv8LqhZJcp63Fwd9f4V2N"}], "hex": "01000000010000000000000000000000000000000000000000000000000000000000000000ffffffff0804ffff001d02e001ffffffff0100f2052a0100000043410416153f938e0a5843c29fa1e9f40dc63a9a86f43138943454137a1faf579fb1f22ad407d87b17d1788acac0ad95bc46d19e6743dc4976a16c31c7414f1b3d97b0ac00000000"}]}