{"hash": "00000000ba884fc8047c04bba7068f575e21d4cb953e1f52262a0454c98c5586", "ver": 1, "prev_block": "00000000cad69daaae19df9068b0d4bc8d6999c63bd4fb067958bc8881ab7e5c", "mrkl_root": "1098da43c20a1e1bdcec45ba53d56460bfe85f4ccb2d63418cff7d18b70afb0d", "time": 1231880431, "bits": 486604799, "next_block": ["000000002612c92d24f533bfc280284354cb4f561c91bfaec2932f6da4e8959b"], "fee": 0, "nonce": 2085404168, "n_tx": 1, "size": 216, "block_index": 371, "main_chain": true, "height": 371, "weight": 864, "tx": [{"hash": "1098da43c20a1e1bdcec45ba53d56460bfe85f4ccb2d63418cff7d18b70afb0d", "ver": 1, "vin_sz": 1, "vout_sz": 1, "size": 135, "weight": 540, "fee": 0, "relayed_by": "0.0.0.0", "lock_time": 0, "tx_index": 491899767164863, "double_spend": false, "time": 1231880431, "block_index": 371, "block_height": 371, "inputs": [{"sequence": 4294967295, "witness": "", "script": "04ffff001d02e101", "index": 0, "prev_out": null}], "out": [{"type": 0, "spent": false, "value": 5000000000, "spending_outpoints": [], "n": 0, "tx_index": 491899767164863, "script": "41040e133c56150de35e1d2113c84c0f9990a18256b9841f26582dfaefe22f4a5c5e2442962c3d2826a2d0895453a7623558422c3fa341f3574b80eb63ae9e6bbca0ac", "addr": "16u9zezdrdYGj4pEp3GQPG2rmoG3yF2jLx"}], "hex": "01000000010000000000000000000000000000000000000000000000000000000000000000ffffffff0804ffff001d02e101ffffffff0100f2052a010000004341040e133c56150de35e1d2113c84c0f9990a18256b9841f26582dfaefe22f4a5c5e2442962c3d2826a2d0895453a7623558422c3fa341f3574b80eb63ae9e6bbca0ac00000000"}]}