{"hash": "000000002612c92d24f533bfc280284354cb4f561c91bfaec2932f6da4e8959b", "ver": 1, "prev_block": "00000000ba884fc8047c04bba7068f575e21d4cb953e1f52262a0454c98c5586", "mrkl_root": "cc1986e44472170499f108be5691ecc7008cbb5ddadf643b13a2becb56f85c5c", "time": 1231880620, "bits": 486604799, "next_block": ["00000000f91934e5f42cb57e2c3241a4bb7c178c85593613e7b2e43c3a9ff2ab"], "fee": 0, "nonce": 30822215, "n_tx": 1, "size": 215, "block_index": 372, "main_chain": true, "height": 372, "weight": 860, "tx": [{"hash": "cc1986e44472170499f108be5691ecc7008cbb5ddadf643b13a2becb56f85c5c", "ver": 1, "vin_sz": 1, "vout_sz": 1, "size": 134, "weight": 536, "fee": 0, "relayed_by": "0.0.0.0", "lock_time": 0, "tx_index": 3249739941902292, "double_spend": false, "time": 1231880620, "block_index": 372, "block_height": 372, "inputs": [{"sequence": 4294967295, "witness": "", "script": "04ffff001d0117", "index": 0, "prev_out": null}], "out": [{"type": 0, "spent": true, "value": 5000000000, "spending_outpoints": [{"tx_index": 7152024406240334, "n": 19}], "n": 0, "tx_index": 3249739941902292, "script": "41043be31de92efe9ddcc783b1ab7c5b5512c47cf55ec6b81a04dd52831eaad158034b0f99cdafc2dd07345e2139f1c0a80f48de53462cd6202e400f173b9045813cac", "addr": "1PQjPXAtSZfUiiQeD4nafQ7HKx7J1kYQ4J"}], "hex": "01000000010000000000000000000000000000000000000000000000000000000000000000ffffffff0704ffff001d0117ffffffff0100f2052a010000004341043be31de92efe9ddcc783b1ab7c5b5512c47cf55ec6b81a04dd52831eaad158034b0f99cdafc2dd07345e2139f1c0a80f48de53462cd6202e400f173b9045813cac00000000"}]}