{"hash": "00000000f91934e5f42cb57e2c3241a4bb7c178c85593613e7b2e43c3a9ff2ab", "ver": 1, "prev_block": "000000002612c92d24f533bfc280284354cb4f561c91bfaec2932f6da4e8959b", "mrkl_root": "a19e4d81067330d49611e94b7046962a259ae2954697d9287de1ddb2046c81e6", "time": 1231880887, "bits": 486604799, "next_block": ["000000007ead0a1b0b1faa566697697600fbc24dadef627cf76169c8631e7453"], "fee": 0, "nonce": 2925680950, "n_tx": 1, "size": 216, "block_index": 373, "main_chain": true, "height": 373, "weight": 864, "tx": [{"hash": "a19e4d81067330d49611e94b7046962a259ae2954697d9287de1ddb2046c81e6", "ver": 1, "vin_sz": 1, "vout_sz": 1, "size": 135, "weight": 540, "fee": 0, "relayed_by": "0.0.0.0", "lock_time": 0, "tx_index": 8110193197341628, "double_spend": false, "time": 1231880887, "block_index": 373, "block_height": 373, "inputs": [{"sequence": 4294967295, "witness": "", "script": "04ffff001d02e201", "index": 0, "prev_out": null}], "out": [{"type": 0, "spent": false, "value": 5000000000, "spending_outpoints": [], "n": 0, "tx_index": 8110193197341628, "script": "4104d5e5528f59178fa0c6ab6c862e4b338f6e6396d29c992759033f8faf4714d48ce9477ec4e4b24bdb21a844199d87815b3e2758acee5327d92cc8256e44083432ac", "addr": "1PELCFMj1gLPYPerRUG8Jo4tdqgaVuzHfp"}], "hex": "01000000010000000000000000000000000000000000000000000000000000000000000000ffffffff0804ffff001d02e201ffffffff0100f2052a01000000434104d5e5528f59178fa0c6ab6c862e4b338f6e6396d29c992759033f8faf4714d48ce9477ec4e4b24bdb21a844199d87815b3e2758acee5327d92cc8256e44083432ac00000000"}]}