{"hash": "000000007ead0a1b0b1faa566697697600fbc24dadef627cf76169c8631e7453", "ver": 1, "prev_block": "00000000f91934e5f42cb57e2c3241a4bb7c178c85593613e7b2e43c3a9ff2ab", "mrkl_root": "3abd3ac1b6062f6393e0c62b4749f38a0acd8e7fba7f6702768553c545655771", "time": 1231881668, "bits": 486604799, "next_block": ["00000000a075a8baeda1ecd9043458877c9cb9abc68ccd035fcbf450b91fd3b5"], "fee": 0, "nonce": 2515417640, "n_tx": 1, "size": 216, "block_index": 374, "main_chain": true, "height": 374, "weight": 864, "tx": [{"hash": "3abd3ac1b6062f6393e0c62b4749f38a0acd8e7fba7f6702768553c545655771", "ver": 1, "vin_sz": 1, "vout_sz": 1, "size": 135, "weight": 540, "fee": 0, "relayed_by": "0.0.0.0", "lock_time": 0, "tx_index": 3987845605272176, "double_spend": false, "time": 1231881668, "block_index": 374, "block_height": 374, "inputs": [{"sequence": 4294967295, "witness": "", "script": "04ffff001d02f201", "index": 0, "prev_out": null}], "out": [{"type": 0, "spent": false, "value": 5000000000, "spending_outpoints": [], "n": 0, "tx_index": 3987845605272176, "script": "410460dd8af4ab699f0162c4de42811a98bfc158f06cf1e70f7365d560e47f270e79969299247944e4f6a4f97bdd3af29f16a4f5379f9574bd287757e9a59ab946b6ac", "addr": "1AGBe9x18wpRiRTY7mUY4VwJWeVAR8WNB7"}], "hex": "01000000010000000000000000000000000000000000000000000000000000000000000000ffffffff0804ffff001d02f201ffffffff0100f2052a0100000043410460dd8af4ab699f0162c4de42811a98bfc158f06cf1e70f7365d560e47f270e79969299247944e4f6a4f97bdd3af29f16a4f5379f9574bd287757e9a59ab946b6ac00000000"}]}