{"hash": "00000000a075a8baeda1ecd9043458877c9cb9abc68ccd035fcbf450b91fd3b5", "ver": 1, "prev_block": "000000007ead0a1b0b1faa566697697600fbc24dadef627cf76169c8631e7453", "mrkl_root": "bb8b5ef6ae34dc5b05089fac252376b871c71f820ccc624ed37f3289dc56cfea", "time": 1231882823, "bits": 486604799, "next_block": ["0000000045c48b53f19d5a3e73ef6d22930737080b6bdea398303e2ae2ba27e2"], "fee": 0, "nonce": 3625391873, "n_tx": 1, "size": 216, "block_index": 375, "main_chain": true, "height": 375, "weight": 864, "tx": [{"hash": "bb8b5ef6ae34dc5b05089fac252376b871c71f820ccc624ed37f3289dc56cfea", "ver": 1, "vin_sz": 1, "vout_sz": 1, "size": 135, "weight": 540, "fee": 0, "relayed_by": "0.0.0.0", "lock_time": 0, "tx_index": 8261639565551183, "double_spend": false, "time": 1231882823, "block_index": 375, "block_height": 375, "inputs": [{"sequence": 4294967295, "witness": "", "script": "04ffff001d02f701", "index": 0, "prev_out": null}], "out": [{"type": 0, "spent": false, "value": 5000000000, "spending_outpoints": [], "n": 0, "tx_index": 8261639565551183, "script": "4104ad43efa156cc43194c8c41d548d26ef97be8eea67fab437d0dfc855212e5e1cf312627315c23406fe7895539425e64ea90899ebfe63cd2b10298784af230537bac", "addr": "1Jfe1uxiuxq6zxeaSnSZGA9CjAh8zrDZCU"}], "hex": "01000000010000000000000000000000000000000000000000000000000000000000000000ffffffff0804ffff001d02f701ffffffff0100f2052a01000000434104ad43efa156cc43194c8c41d548d26ef97be8eea67fab437d0dfc855212e5e1cf312627315c23406fe7895539425e64ea90899ebfe63cd2b10298784af230537bac00000000"}]}