{"hash": "0000000045c48b53f19d5a3e73ef6d22930737080b6bdea398303e2ae2ba27e2", "ver": 1, "prev_block": "00000000a075a8baeda1ecd9043458877c9cb9abc68ccd035fcbf450b91fd3b5", "mrkl_root": "54fd10b70a3a512cc22918142a46efd046e406d965d363495ea78a418e0e44c9", "time": 1231883994, "bits": 486604799, "next_block": ["000000006d7b30cc5c8ccdfdd56417846e3485f42106fbee53e483e571f41c32"], "fee": 0, "nonce": 604858913, "n_tx": 1, "size": 216, "block_index": 376, "main_chain": true, "height": 376, "weight": 864, "tx": [{"hash": "54fd10b70a3a512cc22918142a46efd046e406d965d363495ea78a418e0e44c9", "ver": 1, "vin_sz": 1, "vout_sz": 1, "size": 135, "weight": 540, "fee": 0, "relayed_by": "0.0.0.0", "lock_time": 0, "tx_index": 7081412453216596, "double_spend": false, "time": 1231883994, "block_index": 376, "block_height": 376, "inputs": [{"sequence": 4294967295, "witness": "", "script": "04ffff001d02fd01", "index": 0, "prev_out": null}], "out": [{"type": 0, "spent": false, "value": 5000000000, "spending_outpoints": [], "n": 0, "tx_index": 7081412453216596, "script": "4104d27d29408b48d985a277e1451a0db28ba1a6bb057b01d3b941dcfce99f3d6607301ffc53b240cccaabb061e2ff55d155366e4685db4e034efdef780d190941bbac", "addr": "1FbxJu9Honm2jkE4iFrjxQMqLXutXF9cpV"}], "hex": "01000000010000000000000000000000000000000000000000000000000000000000000000ffffffff0804ffff001d02fd01ffffffff0100f2052a01000000434104d27d29408b48d985a277e1451a0db28ba1a6bb057b01d3b941dcfce99f3d6607301ffc53b240cccaabb061e2ff55d155366e4685db4e034efdef780d190941bbac00000000"}]}