{"hash": "000000006d7b30cc5c8ccdfdd56417846e3485f42106fbee53e483e571f41c32", "ver": 1, "prev_block": "0000000045c48b53f19d5a3e73ef6d22930737080b6bdea398303e2ae2ba27e2", "mrkl_root": "fd1dc8f8f2c916af26ff6dd83bb6c2cb209cce0299061dab686acffe67b5588f", "time": 1231884950, "bits": 486604799, "next_block": ["000000002ad17ed06d467923d29348ee3692c53f24858236818e68820de26ce6"], "fee": 0, "nonce": 578038324, "n_tx": 1, "size": 216, "block_index": 377, "main_chain": true, "height": 377, "weight": 864, "tx": [{"hash": "fd1dc8f8f2c916af26ff6dd83bb6c2cb209cce0299061dab686acffe67b5588f", "ver": 1, "vin_sz": 1, "vout_sz": 1, "size": 135, "weight": 540, "fee": 0, "relayed_by": "0.0.0.0", "lock_time": 0, "tx_index": 5043557228337645, "double_spend": false, "time": 1231884950, "block_index": 377, "block_height": 377, "inputs": [{"sequence": 4294967295, "witness": "", "script": "04ffff001d020102", "index": 0, "prev_out": null}], "out": [{"type": 0, "spent": false, "value": 5000000000, "spending_outpoints": [], "n": 0, "tx_index": 5043557228337645, "script": "41043de2e5337c0354a2c34163827ca18bad43341dcdec928b32b3888df7ff51c92b2b2f3a7c8b670aa375bd7273ab2eafb6525491eda75e997a8a0539391ef2efb3ac", "addr": "1GT4RxAFPJFWVixeirmjARStHwfhwwfjc7"}], "hex": "01000000010000000000000000000000000000000000000000000000000000000000000000ffffffff0804ffff001d020102ffffffff0100f2052a010000004341043de2e5337c0354a2c34163827ca18bad43341dcdec928b32b3888df7ff51c92b2b2f3a7c8b670aa375bd7273ab2eafb6525491eda75e997a8a0539391ef2efb3ac00000000"}]}