{"hash": "000000002ad17ed06d467923d29348ee3692c53f24858236818e68820de26ce6", "ver": 1, "prev_block": "000000006d7b30cc5c8ccdfdd56417846e3485f42106fbee53e483e571f41c32", "mrkl_root": "61d8ffab3efc5d3c107d8bd219c1a00367e386e0a8d625f2575007917619fe95", "time": 1231885847, "bits": 486604799, "next_block": ["00000000ca826763c172f28976c008fcf73f4f2cbac96335d49918162cf3b018"], "fee": 0, "nonce": 1582099233, "n_tx": 1, "size": 216, "block_index": 378, "main_chain": true, "height": 378, "weight": 864, "tx": [{"hash": "61d8ffab3efc5d3c107d8bd219c1a00367e386e0a8d625f2575007917619fe95", "ver": 1, "vin_sz": 1, "vout_sz": 1, "size": 135, "weight": 540, "fee": 0, "relayed_by": "0.0.0.0", "lock_time": 0, "tx_index": 5277394605842666, "double_spend": false, "time": 1231885847, "block_index": 378, "block_height": 378, "inputs": [{"sequence": 4294967295, "witness": "", "script": "04ffff001d020a02", "index": 0, "prev_out": null}], "out": [{"type": 0, "spent": false, "value": 5000000000, "spending_outpoints": [], "n": 0, "tx_index": 5277394605842666, "script": "4104fe705dcffbb60eaea064f5698e0a98776b3129d48b4992080a4e86ce3a895d24a5789fdb44c52284558ce7c30914b264d810303d2de6330da25017e02adb30dcac", "addr": "1Lyr6LaJTG6n9r5imdH4gELxkzJsbQxhAu"}], "hex": "01000000010000000000000000000000000000000000000000000000000000000000000000ffffffff0804ffff001d020a02ffffffff0100f2052a01000000434104fe705dcffbb60eaea064f5698e0a98776b3129d48b4992080a4e86ce3a895d24a5789fdb44c52284558ce7c30914b264d810303d2de6330da25017e02adb30dcac00000000"}]}