{"hash": "00000000ca826763c172f28976c008fcf73f4f2cbac96335d49918162cf3b018", "ver": 1, "prev_block": "000000002ad17ed06d467923d29348ee3692c53f24858236818e68820de26ce6", "mrkl_root": "f1b82a8d9b758c3434391b89dfe44b1606a755ec2744d1570beee37efc7fe509", "time": 1231886424, "bits": 486604799, "next_block": ["000000005c619c5a51f6bfeea9029520d1e05befb6129795e9cb122efd8f4dc8"], "fee": 0, "nonce": 487092519, "n_tx": 1, "size": 216, "block_index": 379, "main_chain": true, "height": 379, "weight": 864, "tx": [{"hash": "f1b82a8d9b758c3434391b89dfe44b1606a755ec2744d1570beee37efc7fe509", "ver": 1, "vin_sz": 1, "vout_sz": 1, "size": 135, "weight": 540, "fee": 0, "relayed_by": "0.0.0.0", "lock_time": 0, "tx_index": 348201581272189, "double_spend": false, "time": 1231886424, "block_index": 379, "block_height": 379, "inputs": [{"sequence": 4294967295, "witness": "", "script": "04ffff001d020c02", "index": 0, "prev_out": null}], "out": [{"type": 0, "spent": false, "value": 5000000000, "spending_outpoints": [], "n": 0, "tx_index": 348201581272189, "script": "41045aa2dd755bf1b0298911925bfb4bc08a179fa91962024d2572ea0e3d24de5f36e8c42cfff5b7665f83cfefffabd35ce5b40945ab9ced50e37e557b4a5aea7580ac", "addr": "13wdUr5phHen1PP1dK8NP9jGQqpk8PZm6A"}], "hex": "01000000010000000000000000000000000000000000000000000000000000000000000000ffffffff0804ffff001d020c02ffffffff0100f2052a010000004341045aa2dd755bf1b0298911925bfb4bc08a179fa91962024d2572ea0e3d24de5f36e8c42cfff5b7665f83cfefffabd35ce5b40945ab9ced50e37e557b4a5aea7580ac00000000"}]}