{"hash": "000000007c19ee8e924d3024d58efff50f872aadf256140bb1e3d62fea4fd6dd", "ver": 1, "prev_block": "00000000ddd96d128e122d1179034ff66c27dc583eb9e8996a0b1779c60c6f86", "mrkl_root": "e690daeb9f73d29d8a22cb4b5ec29970e9b32283d4376adeaad8691ccb449a68", "time": 1231607488, "bits": 486604799, "next_block": ["000000005665d506f6c3ccb5fd98624f9816a8a169f1d2327d1d4d6d3262ad12"], "fee": 0, "nonce": 3941073664, "n_tx": 1, "size": 215, "block_index": 38, "main_chain": true, "height": 38, "weight": 860, "tx": [{"hash": "e690daeb9f73d29d8a22cb4b5ec29970e9b32283d4376adeaad8691ccb449a68", "ver": 1, "vin_sz": 1, "vout_sz": 1, "size": 134, "weight": 536, "fee": 0, "relayed_by": "0.0.0.0", "lock_time": 0, "tx_index": 3680377229249851, "double_spend": false, "time": 1231607488, "block_index": 38, "block_height": 38, "inputs": [{"sequence": 4294967295, "witness": "", "script": "04ffff001d0107", "index": 0, "prev_out": null}], "out": [{"type": 0, "spent": false, "value": 5000000000, "spending_outpoints": [], "n": 0, "tx_index": 3680377229249851, "script": "41046312c744cb65614769150309590257c89cf5d2ee4f048e5a944fa50c768d205ee6083314a55d8b3f9caff539758c13a8f73be4aac6a6e8c5a917dc670e042f11ac", "addr": "1DpSDwF12wX5ogkS2HXabT7iWtCkAqJD9k"}], "hex": "01000000010000000000000000000000000000000000000000000000000000000000000000ffffffff0704ffff001d0107ffffffff0100f2052a010000004341046312c744cb65614769150309590257c89cf5d2ee4f048e5a944fa50c768d205ee6083314a55d8b3f9caff539758c13a8f73be4aac6a6e8c5a917dc670e042f11ac00000000"}]}