{"hash": "000000005c619c5a51f6bfeea9029520d1e05befb6129795e9cb122efd8f4dc8", "ver": 1, "prev_block": "00000000ca826763c172f28976c008fcf73f4f2cbac96335d49918162cf3b018", "mrkl_root": "1d2d4ff87874df163a3ad7d7657f075b6fc97f99537832ab64a4072d1430b386", "time": 1231886972, "bits": 486604799, "next_block": ["00000000539376ba9a1b68e9b803ce7ae280bfbaa0eb62fc462126a6d07feec3"], "fee": 0, "nonce": 615297076, "n_tx": 1, "size": 216, "block_index": 380, "main_chain": true, "height": 380, "weight": 864, "tx": [{"hash": "1d2d4ff87874df163a3ad7d7657f075b6fc97f99537832ab64a4072d1430b386", "ver": 1, "vin_sz": 1, "vout_sz": 1, "size": 135, "weight": 540, "fee": 0, "relayed_by": "0.0.0.0", "lock_time": 0, "tx_index": 4739333244690676, "double_spend": false, "time": 1231886972, "block_index": 380, "block_height": 380, "inputs": [{"sequence": 4294967295, "witness": "", "script": "04ffff001d020e02", "index": 0, "prev_out": null}], "out": [{"type": 0, "spent": false, "value": 5000000000, "spending_outpoints": [], "n": 0, "tx_index": 4739333244690676, "script": "410491dbbb86f260e66c8a6da2c63b338ff4a971a760857ea0ab641210fa810c42f108fbd45c8c7cec72c9ac60c70a0fbb97c4741627f7309317156a963924794d64ac", "addr": "17md2fmB4FenCdGZAQdHkVQLAuaKQ2hnVp"}], "hex": "01000000010000000000000000000000000000000000000000000000000000000000000000ffffffff0804ffff001d020e02ffffffff0100f2052a0100000043410491dbbb86f260e66c8a6da2c63b338ff4a971a760857ea0ab641210fa810c42f108fbd45c8c7cec72c9ac60c70a0fbb97c4741627f7309317156a963924794d64ac00000000"}]}