{"hash": "00000000539376ba9a1b68e9b803ce7ae280bfbaa0eb62fc462126a6d07feec3", "ver": 1, "prev_block": "000000005c619c5a51f6bfeea9029520d1e05befb6129795e9cb122efd8f4dc8", "mrkl_root": "253c15199bbf9b5f7138984b052be13fc59668030d049734792c7fd821e096ee", "time": 1231887806, "bits": 486604799, "next_block": ["0000000018844c2a38f9ff9e018ba5ef9e02780b8d6fe3ce63fd4a6136633ed7"], "fee": 0, "nonce": 3081686297, "n_tx": 1, "size": 216, "block_index": 381, "main_chain": true, "height": 381, "weight": 864, "tx": [{"hash": "253c15199bbf9b5f7138984b052be13fc59668030d049734792c7fd821e096ee", "ver": 1, "vin_sz": 1, "vout_sz": 1, "size": 135, "weight": 540, "fee": 0, "relayed_by": "0.0.0.0", "lock_time": 0, "tx_index": 8394616730226661, "double_spend": false, "time": 1231887806, "block_index": 381, "block_height": 381, "inputs": [{"sequence": 4294967295, "witness": "", "script": "04ffff001d021502", "index": 0, "prev_out": null}], "out": [{"type": 0, "spent": false, "value": 5000000000, "spending_outpoints": [], "n": 0, "tx_index": 8394616730226661, "script": "410421881aa1203269520705845a60a3ae05fb04f0119c476a6fdd4a4957d85060b6282c838c5108f3f461a844207c567338ff7a1018d7161086386b694318638a57ac", "addr": "12giTBKtUMH52G6VUX3RwAcAszDgu3brXF"}], "hex": "01000000010000000000000000000000000000000000000000000000000000000000000000ffffffff0804ffff001d021502ffffffff0100f2052a0100000043410421881aa1203269520705845a60a3ae05fb04f0119c476a6fdd4a4957d85060b6282c838c5108f3f461a844207c567338ff7a1018d7161086386b694318638a57ac00000000"}]}