{"hash": "0000000018844c2a38f9ff9e018ba5ef9e02780b8d6fe3ce63fd4a6136633ed7", "ver": 1, "prev_block": "00000000539376ba9a1b68e9b803ce7ae280bfbaa0eb62fc462126a6d07feec3", "mrkl_root": "20ace51d65bf8324c4f7861eb3521d26732fba1f8a2c9d30b50462c2e8cd8796", "time": 1231888319, "bits": 486604799, "next_block": ["000000002f10da7a6a0c302a3a800722764a863e32fa1730cafacce35cb023b8"], "fee": 0, "nonce": 170671674, "n_tx": 1, "size": 216, "block_index": 382, "main_chain": true, "height": 382, "weight": 864, "tx": [{"hash": "20ace51d65bf8324c4f7861eb3521d26732fba1f8a2c9d30b50462c2e8cd8796", "ver": 1, "vin_sz": 1, "vout_sz": 1, "size": 135, "weight": 540, "fee": 0, "relayed_by": "0.0.0.0", "lock_time": 0, "tx_index": 5296320618712128, "double_spend": false, "time": 1231888319, "block_index": 382, "block_height": 382, "inputs": [{"sequence": 4294967295, "witness": "", "script": "04ffff001d021702", "index": 0, "prev_out": null}], "out": [{"type": 0, "spent": false, "value": 5000000000, "spending_outpoints": [], "n": 0, "tx_index": 5296320618712128, "script": "41043f9bf44ca4a2be0ff065e9d5c1f1010e702c9b6d5581e3410a0b620e9b78320c818934b74e118d7af01409cb708322045da362509e66903b9ee8bfae4364d336ac", "addr": "1CFWnwazRxwEVjzMsvseJPbg19VUZYRQto"}], "hex": "01000000010000000000000000000000000000000000000000000000000000000000000000ffffffff0804ffff001d021702ffffffff0100f2052a010000004341043f9bf44ca4a2be0ff065e9d5c1f1010e702c9b6d5581e3410a0b620e9b78320c818934b74e118d7af01409cb708322045da362509e66903b9ee8bfae4364d336ac00000000"}]}