{"hash": "000000002f10da7a6a0c302a3a800722764a863e32fa1730cafacce35cb023b8", "ver": 1, "prev_block": "0000000018844c2a38f9ff9e018ba5ef9e02780b8d6fe3ce63fd4a6136633ed7", "mrkl_root": "70139795c7d79f2205ebc0092bf0aa19a0ffeab0a6fa0416b986dfb3c3d03fa5", "time": 1231889357, "bits": 486604799, "next_block": ["00000000a82a81f206e2bee2fc10dfcc107ad1a56312e0ebe94cffc1d05e7def"], "fee": 0, "nonce": 3858182956, "n_tx": 1, "size": 216, "block_index": 383, "main_chain": true, "height": 383, "weight": 864, "tx": [{"hash": "70139795c7d79f2205ebc0092bf0aa19a0ffeab0a6fa0416b986dfb3c3d03fa5", "ver": 1, "vin_sz": 1, "vout_sz": 1, "size": 135, "weight": 540, "fee": 0, "relayed_by": "0.0.0.0", "lock_time": 0, "tx_index": 5814192128293872, "double_spend": false, "time": 1231889357, "block_index": 383, "block_height": 383, "inputs": [{"sequence": 4294967295, "witness": "", "script": "04ffff001d022102", "index": 0, "prev_out": null}], "out": [{"type": 0, "spent": false, "value": 5000000000, "spending_outpoints": [], "n": 0, "tx_index": 5814192128293872, "script": "4104b4b28f4ef5a8348961a778b4b67549516c3fe72611a050a643cdc12f0d2977dd5ebc32df20312c724ca3953d60470a19f531c41e512d0390964ad7ef5111a7aaac", "addr": "1FowJFNmVX1mp8P81cvm6HK4Y7tsPyTcRF"}], "hex": "01000000010000000000000000000000000000000000000000000000000000000000000000ffffffff0804ffff001d022102ffffffff0100f2052a01000000434104b4b28f4ef5a8348961a778b4b67549516c3fe72611a050a643cdc12f0d2977dd5ebc32df20312c724ca3953d60470a19f531c41e512d0390964ad7ef5111a7aaac00000000"}]}