{"hash": "00000000a82a81f206e2bee2fc10dfcc107ad1a56312e0ebe94cffc1d05e7def", "ver": 1, "prev_block": "000000002f10da7a6a0c302a3a800722764a863e32fa1730cafacce35cb023b8", "mrkl_root": "2e3b0de1b9a3aa0079751ef19453acfe929805ac18a5b42621186c6b5312e877", "time": 1231890178, "bits": 486604799, "next_block": ["00000000cdaf0290cbd8caac684c2cb2bb32b8153b53c074df8e366ceb647da6"], "fee": 0, "nonce": 2018936869, "n_tx": 1, "size": 216, "block_index": 384, "main_chain": true, "height": 384, "weight": 864, "tx": [{"hash": "2e3b0de1b9a3aa0079751ef19453acfe929805ac18a5b42621186c6b5312e877", "ver": 1, "vin_sz": 1, "vout_sz": 1, "size": 135, "weight": 540, "fee": 0, "relayed_by": "0.0.0.0", "lock_time": 0, "tx_index": 4218835954396547, "double_spend": false, "time": 1231890178, "block_index": 384, "block_height": 384, "inputs": [{"sequence": 4294967295, "witness": "", "script": "04ffff001d022302", "index": 0, "prev_out": null}], "out": [{"type": 0, "spent": false, "value": 5000000000, "spending_outpoints": [], "n": 0, "tx_index": 4218835954396547, "script": "4104f58719b6943bf4afb0860e40b856fd4a61b56a0f17c4bcde69b9eb9f8183c0cdeefb325fe800562b458c6211556109a63fe3addf12a1adae60f399b2a5715bb9ac", "addr": "1Cev2okbpwDPH3jPoHEWJFdrFCrmfodv9N"}], "hex": "01000000010000000000000000000000000000000000000000000000000000000000000000ffffffff0804ffff001d022302ffffffff0100f2052a01000000434104f58719b6943bf4afb0860e40b856fd4a61b56a0f17c4bcde69b9eb9f8183c0cdeefb325fe800562b458c6211556109a63fe3addf12a1adae60f399b2a5715bb9ac00000000"}]}