{"hash": "00000000cdaf0290cbd8caac684c2cb2bb32b8153b53c074df8e366ceb647da6", "ver": 1, "prev_block": "00000000a82a81f206e2bee2fc10dfcc107ad1a56312e0ebe94cffc1d05e7def", "mrkl_root": "d967e6bccb5d3e9db00ab9cfe799b92962afde0f6d3af9923052e21b55605f03", "time": 1231890970, "bits": 486604799, "next_block": ["0000000061d87eca0a039ebdf3f6a7932aa879729b74d64911b9828957a294d9"], "fee": 0, "nonce": 1400409393, "n_tx": 1, "size": 216, "block_index": 385, "main_chain": true, "height": 385, "weight": 864, "tx": [{"hash": "d967e6bccb5d3e9db00ab9cfe799b92962afde0f6d3af9923052e21b55605f03", "ver": 1, "vin_sz": 1, "vout_sz": 1, "size": 135, "weight": 540, "fee": 0, "relayed_by": "0.0.0.0", "lock_time": 0, "tx_index": 118661534940234, "double_spend": false, "time": 1231890970, "block_index": 385, "block_height": 385, "inputs": [{"sequence": 4294967295, "witness": "", "script": "04ffff001d023002", "index": 0, "prev_out": null}], "out": [{"type": 0, "spent": false, "value": 5000000000, "spending_outpoints": [], "n": 0, "tx_index": 118661534940234, "script": "410473eaeca3681317e609bdca759710fc7d880d27a34e6b056eb8941bc820583d86a9f37fcad2f4a68ea214b26ff6a5b1e75e22210f72a652e47f4b588582daefb3ac", "addr": "1M25afExu5qjfC5gaeAhjfzNnDDLG5XaBy"}], "hex": "01000000010000000000000000000000000000000000000000000000000000000000000000ffffffff0804ffff001d023002ffffffff0100f2052a0100000043410473eaeca3681317e609bdca759710fc7d880d27a34e6b056eb8941bc820583d86a9f37fcad2f4a68ea214b26ff6a5b1e75e22210f72a652e47f4b588582daefb3ac00000000"}]}