{"hash": "0000000061d87eca0a039ebdf3f6a7932aa879729b74d64911b9828957a294d9", "ver": 1, "prev_block": "00000000cdaf0290cbd8caac684c2cb2bb32b8153b53c074df8e366ceb647da6", "mrkl_root": "f605681ec24a0545f24cdab7455612abbd3cb53ea883e014a549af808c4b1541", "time": 1231891966, "bits": 486604799, "next_block": ["0000000014669130de860bc311833a43cd310d0d9cbc3ac0a4801e6cb213646f"], "fee": 0, "nonce": 4029209641, "n_tx": 1, "size": 216, "block_index": 386, "main_chain": true, "height": 386, "weight": 864, "tx": [{"hash": "f605681ec24a0545f24cdab7455612abbd3cb53ea883e014a549af808c4b1541", "ver": 1, "vin_sz": 1, "vout_sz": 1, "size": 135, "weight": 540, "fee": 0, "relayed_by": "0.0.0.0", "lock_time": 0, "tx_index": 2289910963770857, "double_spend": false, "time": 1231891966, "block_index": 386, "block_height": 386, "inputs": [{"sequence": 4294967295, "witness": "", "script": "04ffff001d023902", "index": 0, "prev_out": null}], "out": [{"type": 0, "spent": false, "value": 5000000000, "spending_outpoints": [], "n": 0, "tx_index": 2289910963770857, "script": "410484e8a49d4c2361e565b4b9df6467956a08abdae66574fc5ace18cd5a6952ef6dc66e87bb60706840dd7e04ef7bd8a2d839fc342d033f028643b9e2d366f6cf61ac", "addr": "15CPBGqhqwi26vgA1TmRHgjSsQCbnrvJRk"}], "hex": "01000000010000000000000000000000000000000000000000000000000000000000000000ffffffff0804ffff001d023902ffffffff0100f2052a0100000043410484e8a49d4c2361e565b4b9df6467956a08abdae66574fc5ace18cd5a6952ef6dc66e87bb60706840dd7e04ef7bd8a2d839fc342d033f028643b9e2d366f6cf61ac00000000"}]}