{"hash": "0000000014669130de860bc311833a43cd310d0d9cbc3ac0a4801e6cb213646f", "ver": 1, "prev_block": "0000000061d87eca0a039ebdf3f6a7932aa879729b74d64911b9828957a294d9", "mrkl_root": "8d170388714900046ac643f6b5440edf144cf75cb2161b27e4c2a03917e7ce76", "time": 1231892936, "bits": 486604799, "next_block": ["00000000a8c559dd08b5a038ce306cdea26549d6fd5bc69afdef5fd472e6ca6c"], "fee": 0, "nonce": 3285713451, "n_tx": 1, "size": 216, "block_index": 387, "main_chain": true, "height": 387, "weight": 864, "tx": [{"hash": "8d170388714900046ac643f6b5440edf144cf75cb2161b27e4c2a03917e7ce76", "ver": 1, "vin_sz": 1, "vout_sz": 1, "size": 135, "weight": 540, "fee": 0, "relayed_by": "0.0.0.0", "lock_time": 0, "tx_index": 4180192396784664, "double_spend": false, "time": 1231892936, "block_index": 387, "block_height": 387, "inputs": [{"sequence": 4294967295, "witness": "", "script": "04ffff001d023b02", "index": 0, "prev_out": null}], "out": [{"type": 0, "spent": false, "value": 5000000000, "spending_outpoints": [], "n": 0, "tx_index": 4180192396784664, "script": "410453e14f5e00477fb515c41db7b3e98f49f5089f1385a0f06dacd2407cf948b53b8452ef599a596e5171fcf1432986939d719787d086eb132a53e4a1eda1839882ac", "addr": "1HRmFHUMtQdSr4y8kmq9o2ndVueuXGsF2G"}], "hex": "01000000010000000000000000000000000000000000000000000000000000000000000000ffffffff0804ffff001d023b02ffffffff0100f2052a0100000043410453e14f5e00477fb515c41db7b3e98f49f5089f1385a0f06dacd2407cf948b53b8452ef599a596e5171fcf1432986939d719787d086eb132a53e4a1eda1839882ac00000000"}]}