{"hash": "00000000a8c559dd08b5a038ce306cdea26549d6fd5bc69afdef5fd472e6ca6c", "ver": 1, "prev_block": "0000000014669130de860bc311833a43cd310d0d9cbc3ac0a4801e6cb213646f", "mrkl_root": "287d7292d35489fdfc814a11c35f1c7d34847e0fca849c5e96fb26b479da50a2", "time": 1231893644, "bits": 486604799, "next_block": ["0000000020fd18966269582d45778b66492cff334aebdf939c0786dbf30815d7"], "fee": 0, "nonce": 2149834534, "n_tx": 1, "size": 216, "block_index": 388, "main_chain": true, "height": 388, "weight": 864, "tx": [{"hash": "287d7292d35489fdfc814a11c35f1c7d34847e0fca849c5e96fb26b479da50a2", "ver": 1, "vin_sz": 1, "vout_sz": 1, "size": 135, "weight": 540, "fee": 0, "relayed_by": "0.0.0.0", "lock_time": 0, "tx_index": 5710980687758559, "double_spend": false, "time": 1231893644, "block_index": 388, "block_height": 388, "inputs": [{"sequence": 4294967295, "witness": "", "script": "04ffff001d023c02", "index": 0, "prev_out": null}], "out": [{"type": 0, "spent": false, "value": 5000000000, "spending_outpoints": [], "n": 0, "tx_index": 5710980687758559, "script": "4104b9bff8c6e979877694d5254dbb03fcc7442e4ab00850a88359793cd6d6300153e693c76199891fecf44b143d22c6a769b7307a706f309c8f40d36428822203a5ac", "addr": "1AnHrnD7UbCVwHwWkBYiE9fTpvEnNiitVc"}], "hex": "01000000010000000000000000000000000000000000000000000000000000000000000000ffffffff0804ffff001d023c02ffffffff0100f2052a01000000434104b9bff8c6e979877694d5254dbb03fcc7442e4ab00850a88359793cd6d6300153e693c76199891fecf44b143d22c6a769b7307a706f309c8f40d36428822203a5ac00000000"}]}