{"hash": "0000000020fd18966269582d45778b66492cff334aebdf939c0786dbf30815d7", "ver": 1, "prev_block": "00000000a8c559dd08b5a038ce306cdea26549d6fd5bc69afdef5fd472e6ca6c", "mrkl_root": "cc4e08387b763ca8dbfc28054f9f6be626d0fd1797f1eaaf8df0cec90cfcd0b6", "time": 1231894426, "bits": 486604799, "next_block": ["00000000cfe2c153bac08324be181717740ababbfc912840a80be7b7ba1970ca"], "fee": 0, "nonce": 3302147895, "n_tx": 1, "size": 216, "block_index": 389, "main_chain": true, "height": 389, "weight": 864, "tx": [{"hash": "cc4e08387b763ca8dbfc28054f9f6be626d0fd1797f1eaaf8df0cec90cfcd0b6", "ver": 1, "vin_sz": 1, "vout_sz": 1, "size": 135, "weight": 540, "fee": 0, "relayed_by": "0.0.0.0", "lock_time": 0, "tx_index": 6432278340778462, "double_spend": false, "time": 1231894426, "block_index": 389, "block_height": 389, "inputs": [{"sequence": 4294967295, "witness": "", "script": "04ffff001d023e02", "index": 0, "prev_out": null}], "out": [{"type": 0, "spent": false, "value": 5000000000, "spending_outpoints": [], "n": 0, "tx_index": 6432278340778462, "script": "4104eb53d23f55095d667966d0244e3cea1595907e2284370307e990a6603bfbe8a8f1292eac71e830a79f3fe1a92cef6048ef1b082f2eca5218d0762677b4c75608ac", "addr": "1B1r9TQDiX2U2boVKToMRjpcYgjvzpkWp7"}], "hex": "01000000010000000000000000000000000000000000000000000000000000000000000000ffffffff0804ffff001d023e02ffffffff0100f2052a01000000434104eb53d23f55095d667966d0244e3cea1595907e2284370307e990a6603bfbe8a8f1292eac71e830a79f3fe1a92cef6048ef1b082f2eca5218d0762677b4c75608ac00000000"}]}