{"hash": "000000005665d506f6c3ccb5fd98624f9816a8a169f1d2327d1d4d6d3262ad12", "ver": 1, "prev_block": "000000007c19ee8e924d3024d58efff50f872aadf256140bb1e3d62fea4fd6dd", "mrkl_root": "1484c18ba443b13851098597d8cb6d49d5983eab63c53d6b0dcc565612e7ca6b", "time": 1231607511, "bits": 486604799, "next_block": ["00000000b2f01f399bf503e55f25a1aa51067056d2eb81915cb91976968b69aa"], "fee": 0, "nonce": 1610743848, "n_tx": 1, "size": 215, "block_index": 39, "main_chain": true, "height": 39, "weight": 860, "tx": [{"hash": "1484c18ba443b13851098597d8cb6d49d5983eab63c53d6b0dcc565612e7ca6b", "ver": 1, "vin_sz": 1, "vout_sz": 1, "size": 134, "weight": 536, "fee": 0, "relayed_by": "0.0.0.0", "lock_time": 0, "tx_index": 3792614537743065, "double_spend": false, "time": 1231607511, "block_index": 39, "block_height": 39, "inputs": [{"sequence": 4294967295, "witness": "", "script": "04ffff001d0109", "index": 0, "prev_out": null}], "out": [{"type": 0, "spent": false, "value": 5000000000, "spending_outpoints": [], "n": 0, "tx_index": 3792614537743065, "script": "41046154d4ed678ddf5fbb9e09ef7d1cf3a8053f5a09fc89303d150d4e715bc691b240c93729cd412d707c48f7bafe41db684c2f9a39aa5995786827e9ed4d185e36ac", "addr": "1KzvBTUbdwNBXiTkzr1msFUtPf7Vu2zLiu"}], "hex": "01000000010000000000000000000000000000000000000000000000000000000000000000ffffffff0704ffff001d0109ffffffff0100f2052a010000004341046154d4ed678ddf5fbb9e09ef7d1cf3a8053f5a09fc89303d150d4e715bc691b240c93729cd412d707c48f7bafe41db684c2f9a39aa5995786827e9ed4d185e36ac00000000"}]}