{"hash": "00000000cfe2c153bac08324be181717740ababbfc912840a80be7b7ba1970ca", "ver": 1, "prev_block": "0000000020fd18966269582d45778b66492cff334aebdf939c0786dbf30815d7", "mrkl_root": "04580a0ceb45410a243fc3744126a293cde6cc4063723a6b6f269e2f83d68c0b", "time": 1231895654, "bits": 486604799, "next_block": ["00000000b7b96842342b709b4b41c25140b35bba339cbf4b325b723f2559ba04"], "fee": 0, "nonce": 3115236402, "n_tx": 1, "size": 216, "block_index": 390, "main_chain": true, "height": 390, "weight": 864, "tx": [{"hash": "04580a0ceb45410a243fc3744126a293cde6cc4063723a6b6f269e2f83d68c0b", "ver": 1, "vin_sz": 1, "vout_sz": 1, "size": 135, "weight": 540, "fee": 0, "relayed_by": "0.0.0.0", "lock_time": 0, "tx_index": 406384711955396, "double_spend": false, "time": 1231895654, "block_index": 390, "block_height": 390, "inputs": [{"sequence": 4294967295, "witness": "", "script": "04ffff001d024f02", "index": 0, "prev_out": null}], "out": [{"type": 0, "spent": false, "value": 5000000000, "spending_outpoints": [], "n": 0, "tx_index": 406384711955396, "script": "4104d0d8d72cfb8b8791b3b87381ccb77aad1771791d83756fe79448b870a0fedbbd4098639100c3fc6eeb0a2d77b1cf2eec4d1305789f92738d645d811401fad3dfac", "addr": "1GciAZF9X4HWfwXpTvJWLxrjEDWsLJcZ5J"}], "hex": "01000000010000000000000000000000000000000000000000000000000000000000000000ffffffff0804ffff001d024f02ffffffff0100f2052a01000000434104d0d8d72cfb8b8791b3b87381ccb77aad1771791d83756fe79448b870a0fedbbd4098639100c3fc6eeb0a2d77b1cf2eec4d1305789f92738d645d811401fad3dfac00000000"}]}