{"hash": "00000000b7b96842342b709b4b41c25140b35bba339cbf4b325b723f2559ba04", "ver": 1, "prev_block": "00000000cfe2c153bac08324be181717740ababbfc912840a80be7b7ba1970ca", "mrkl_root": "10c712c4ccd418e1c1684cd1b4cbb83d972d33c9da873436a5632fc92c45b4c1", "time": 1231896614, "bits": 486604799, "next_block": ["00000000817225a719e142178240823283cb53ca9e5e79d88fd5ee70e64fe406"], "fee": 0, "nonce": 1078613789, "n_tx": 1, "size": 216, "block_index": 391, "main_chain": true, "height": 391, "weight": 864, "tx": [{"hash": "10c712c4ccd418e1c1684cd1b4cbb83d972d33c9da873436a5632fc92c45b4c1", "ver": 1, "vin_sz": 1, "vout_sz": 1, "size": 135, "weight": 540, "fee": 0, "relayed_by": "0.0.0.0", "lock_time": 0, "tx_index": 6815359962785260, "double_spend": false, "time": 1231896614, "block_index": 391, "block_height": 391, "inputs": [{"sequence": 4294967295, "witness": "", "script": "04ffff001d025702", "index": 0, "prev_out": null}], "out": [{"type": 0, "spent": false, "value": 5000000000, "spending_outpoints": [], "n": 0, "tx_index": 6815359962785260, "script": "41044cd990e187a941721fad28014e405fbb7f0794223158706da8c75e79e4895f8e99eee8c7bd504991159a4d17cb95b1fcb89f2c9b1ace2ed6153862973cb59639ac", "addr": "1Ami8JxY2Yc1FWuQVnWscron1D2PiWxskP"}], "hex": "01000000010000000000000000000000000000000000000000000000000000000000000000ffffffff0804ffff001d025702ffffffff0100f2052a010000004341044cd990e187a941721fad28014e405fbb7f0794223158706da8c75e79e4895f8e99eee8c7bd504991159a4d17cb95b1fcb89f2c9b1ace2ed6153862973cb59639ac00000000"}]}