{"hash": "00000000817225a719e142178240823283cb53ca9e5e79d88fd5ee70e64fe406", "ver": 1, "prev_block": "00000000b7b96842342b709b4b41c25140b35bba339cbf4b325b723f2559ba04", "mrkl_root": "203c52303fba40a9eec5721b6c87b37639f5505bef1b53e36613d7c3bb4c9674", "time": 1231897053, "bits": 486604799, "next_block": ["000000007ed76ca99c1c83cfdca1fb60104b38f848bc5d7762ffa38c60eaa32b"], "fee": 0, "nonce": 1735419394, "n_tx": 1, "size": 216, "block_index": 392, "main_chain": true, "height": 392, "weight": 864, "tx": [{"hash": "203c52303fba40a9eec5721b6c87b37639f5505bef1b53e36613d7c3bb4c9674", "ver": 1, "vin_sz": 1, "vout_sz": 1, "size": 135, "weight": 540, "fee": 0, "relayed_by": "0.0.0.0", "lock_time": 0, "tx_index": 4102044201286370, "double_spend": false, "time": 1231897053, "block_index": 392, "block_height": 392, "inputs": [{"sequence": 4294967295, "witness": "", "script": "04ffff001d025902", "index": 0, "prev_out": null}], "out": [{"type": 0, "spent": false, "value": 5000000000, "spending_outpoints": [], "n": 0, "tx_index": 4102044201286370, "script": "41040e762876ae9ab7f19f08e2c025f2e092b171f57f8cdd9336aad80ec371a7d59335dff03638539fe251425a2fb70b788a6f9eac7c84f19312f95e569dba846a92ac", "addr": "19mRUvwRVueDy7rap4fQDkzz9XUa5rhso1"}], "hex": "01000000010000000000000000000000000000000000000000000000000000000000000000ffffffff0804ffff001d025902ffffffff0100f2052a010000004341040e762876ae9ab7f19f08e2c025f2e092b171f57f8cdd9336aad80ec371a7d59335dff03638539fe251425a2fb70b788a6f9eac7c84f19312f95e569dba846a92ac00000000"}]}