{"hash": "000000007ed76ca99c1c83cfdca1fb60104b38f848bc5d7762ffa38c60eaa32b", "ver": 1, "prev_block": "00000000817225a719e142178240823283cb53ca9e5e79d88fd5ee70e64fe406", "mrkl_root": "fa0b74cfce692a7aecca56b2ea011fda76948ac6f157ac8d079400225884ae1e", "time": 1231897603, "bits": 486604799, "next_block": ["00000000dfd83646eca8487419578da5dc0e30b425df78a857106f01149e9bcc"], "fee": 0, "nonce": 705193261, "n_tx": 1, "size": 216, "block_index": 393, "main_chain": true, "height": 393, "weight": 864, "tx": [{"hash": "fa0b74cfce692a7aecca56b2ea011fda76948ac6f157ac8d079400225884ae1e", "ver": 1, "vin_sz": 1, "vout_sz": 1, "size": 135, "weight": 540, "fee": 0, "relayed_by": "0.0.0.0", "lock_time": 0, "tx_index": 1079516592357394, "double_spend": false, "time": 1231897603, "block_index": 393, "block_height": 393, "inputs": [{"sequence": 4294967295, "witness": "", "script": "04ffff001d026102", "index": 0, "prev_out": null}], "out": [{"type": 0, "spent": false, "value": 5000000000, "spending_outpoints": [], "n": 0, "tx_index": 1079516592357394, "script": "4104fb2db26e200b5d66072aa4227b72b13c2ff9e3a6dc1f9621fc8b134fe6f11daf829ced46f6a432c34fc3d5ad27551bbc8a62b34b6af6db6bef2dc7716e8f10a7ac", "addr": "1KasxLaoYr3JCnZmesrhYGuVxv6vTHQu2d"}], "hex": "01000000010000000000000000000000000000000000000000000000000000000000000000ffffffff0804ffff001d026102ffffffff0100f2052a01000000434104fb2db26e200b5d66072aa4227b72b13c2ff9e3a6dc1f9621fc8b134fe6f11daf829ced46f6a432c34fc3d5ad27551bbc8a62b34b6af6db6bef2dc7716e8f10a7ac00000000"}]}