{"hash": "00000000dfd83646eca8487419578da5dc0e30b425df78a857106f01149e9bcc", "ver": 1, "prev_block": "000000007ed76ca99c1c83cfdca1fb60104b38f848bc5d7762ffa38c60eaa32b", "mrkl_root": "b550304180c25457c810707c5fac13398a8c3abf56871e4cc4e4804336768b5b", "time": 1231897970, "bits": 486604799, "next_block": ["00000000dae1bd72006c1f3f6c10763440906e7e7afbf1ffbd51ec020c3a10a8"], "fee": 0, "nonce": 94149160, "n_tx": 1, "size": 215, "block_index": 394, "main_chain": true, "height": 394, "weight": 860, "tx": [{"hash": "b550304180c25457c810707c5fac13398a8c3abf56871e4cc4e4804336768b5b", "ver": 1, "vin_sz": 1, "vout_sz": 1, "size": 134, "weight": 536, "fee": 0, "relayed_by": "0.0.0.0", "lock_time": 0, "tx_index": 3220945339183132, "double_spend": false, "time": 1231897970, "block_index": 394, "block_height": 394, "inputs": [{"sequence": 4294967295, "witness": "", "script": "04ffff001d0109", "index": 0, "prev_out": null}], "out": [{"type": 0, "spent": true, "value": 5000000000, "spending_outpoints": [{"tx_index": 4827611041530371, "n": 3}], "n": 0, "tx_index": 3220945339183132, "script": "41043f9a59cee0ddd3fabce2a206e10e10d7aa4b078e7d2ccef11c587bb1133e057a06ba24c63b375e6dd6c28e00ba38f613156ee0225124d3ad062691febc9f5874ac", "addr": "1JV9ZQX6cCd4YrUtHHQm9iDL6cMxP3oQ3J"}], "hex": "01000000010000000000000000000000000000000000000000000000000000000000000000ffffffff0704ffff001d0109ffffffff0100f2052a010000004341043f9a59cee0ddd3fabce2a206e10e10d7aa4b078e7d2ccef11c587bb1133e057a06ba24c63b375e6dd6c28e00ba38f613156ee0225124d3ad062691febc9f5874ac00000000"}]}