{"hash": "00000000dae1bd72006c1f3f6c10763440906e7e7afbf1ffbd51ec020c3a10a8", "ver": 1, "prev_block": "00000000dfd83646eca8487419578da5dc0e30b425df78a857106f01149e9bcc", "mrkl_root": "c3ab7fdf83633f9035aa56a72353519db20107f9ea9552b75dde973cad547f42", "time": 1231898331, "bits": 486604799, "next_block": ["00000000b899b23a550aa2d3e06d63dcf9da622a287b0dd2a21d2d9e9fd9a976"], "fee": 0, "nonce": 1223743023, "n_tx": 1, "size": 216, "block_index": 395, "main_chain": true, "height": 395, "weight": 864, "tx": [{"hash": "c3ab7fdf83633f9035aa56a72353519db20107f9ea9552b75dde973cad547f42", "ver": 1, "vin_sz": 1, "vout_sz": 1, "size": 135, "weight": 540, "fee": 0, "relayed_by": "0.0.0.0", "lock_time": 0, "tx_index": 2339668765414139, "double_spend": false, "time": 1231898331, "block_index": 395, "block_height": 395, "inputs": [{"sequence": 4294967295, "witness": "", "script": "04ffff001d026202", "index": 0, "prev_out": null}], "out": [{"type": 0, "spent": false, "value": 5000000000, "spending_outpoints": [], "n": 0, "tx_index": 2339668765414139, "script": "410476b09223e35bea8f2564aadde947badc9f7bc6d4078e2059c6f062f54a779677f5924ed6c7e3053675a6a17b198396ab235f453fb41bfcc96dada4a179bb848cac", "addr": "18YbbNd4uLSPXkcWifNRK3JZQ7JVRnMXHa"}], "hex": "01000000010000000000000000000000000000000000000000000000000000000000000000ffffffff0804ffff001d026202ffffffff0100f2052a0100000043410476b09223e35bea8f2564aadde947badc9f7bc6d4078e2059c6f062f54a779677f5924ed6c7e3053675a6a17b198396ab235f453fb41bfcc96dada4a179bb848cac00000000"}]}