{"hash": "00000000b899b23a550aa2d3e06d63dcf9da622a287b0dd2a21d2d9e9fd9a976", "ver": 1, "prev_block": "00000000dae1bd72006c1f3f6c10763440906e7e7afbf1ffbd51ec020c3a10a8", "mrkl_root": "1235bc4984c505e2d9fcf3e83b65d2fbb42bdb1605f756e312bb49654724ded8", "time": 1231898751, "bits": 486604799, "next_block": ["0000000081c0ab052aac47e3ad0dbfab9ca3475e6d8d136a53a698bbced84ee4"], "fee": 0, "nonce": 523504930, "n_tx": 1, "size": 216, "block_index": 396, "main_chain": true, "height": 396, "weight": 864, "tx": [{"hash": "1235bc4984c505e2d9fcf3e83b65d2fbb42bdb1605f756e312bb49654724ded8", "ver": 1, "vin_sz": 1, "vout_sz": 1, "size": 135, "weight": 540, "fee": 0, "relayed_by": "0.0.0.0", "lock_time": 0, "tx_index": 7630355295938871, "double_spend": false, "time": 1231898751, "block_index": 396, "block_height": 396, "inputs": [{"sequence": 4294967295, "witness": "", "script": "04ffff001d026702", "index": 0, "prev_out": null}], "out": [{"type": 0, "spent": false, "value": 5000000000, "spending_outpoints": [], "n": 0, "tx_index": 7630355295938871, "script": "4104aadcac168ef4c4cc7a1165755b1235043c3ee87effbe1b1d00677d684978fa5df6eeca25032ec850336594337daf71845a3f308a92d6261cd82e35e21b112be0ac", "addr": "16ucnLgySRLYy2mvBuXFZPZCRM8DoFY46W"}], "hex": "01000000010000000000000000000000000000000000000000000000000000000000000000ffffffff0804ffff001d026702ffffffff0100f2052a01000000434104aadcac168ef4c4cc7a1165755b1235043c3ee87effbe1b1d00677d684978fa5df6eeca25032ec850336594337daf71845a3f308a92d6261cd82e35e21b112be0ac00000000"}]}