{"hash": "0000000081c0ab052aac47e3ad0dbfab9ca3475e6d8d136a53a698bbced84ee4", "ver": 1, "prev_block": "00000000b899b23a550aa2d3e06d63dcf9da622a287b0dd2a21d2d9e9fd9a976", "mrkl_root": "8003caa9beb909f3f11a00e6532e1f161ff86b133ed186efbe101a5c8b2bb265", "time": 1231899618, "bits": 486604799, "next_block": ["000000002f7d702a27ccd65158740198f79d4ba1ddea8ab14b56b63a6289fe89"], "fee": 0, "nonce": 2591001655, "n_tx": 1, "size": 216, "block_index": 397, "main_chain": true, "height": 397, "weight": 864, "tx": [{"hash": "8003caa9beb909f3f11a00e6532e1f161ff86b133ed186efbe101a5c8b2bb265", "ver": 1, "vin_sz": 1, "vout_sz": 1, "size": 135, "weight": 540, "fee": 0, "relayed_by": "0.0.0.0", "lock_time": 0, "tx_index": 3578109092397890, "double_spend": false, "time": 1231899618, "block_index": 397, "block_height": 397, "inputs": [{"sequence": 4294967295, "witness": "", "script": "04ffff001d026902", "index": 0, "prev_out": null}], "out": [{"type": 0, "spent": false, "value": 5000000000, "spending_outpoints": [], "n": 0, "tx_index": 3578109092397890, "script": "41041f7df7f7b915fbe25ad809d247b4d4381e6b26bc5991acc52ea4d500d8e29b39443780c099b682d9f8e28235bfc1772d05babdfd6f7590a1c732b54112619243ac", "addr": "1Kz7UyXbgSxL83hN8jArHqQcE1obqsK1B4"}], "hex": "01000000010000000000000000000000000000000000000000000000000000000000000000ffffffff0804ffff001d026902ffffffff0100f2052a010000004341041f7df7f7b915fbe25ad809d247b4d4381e6b26bc5991acc52ea4d500d8e29b39443780c099b682d9f8e28235bfc1772d05babdfd6f7590a1c732b54112619243ac00000000"}]}