{"hash": "000000002f7d702a27ccd65158740198f79d4ba1ddea8ab14b56b63a6289fe89", "ver": 1, "prev_block": "0000000081c0ab052aac47e3ad0dbfab9ca3475e6d8d136a53a698bbced84ee4", "mrkl_root": "c056d48ae983586d78b51352c7d689db7c33acd286958301a5ec59e3a09ae016", "time": 1231900415, "bits": 486604799, "next_block": ["0000000006a774e00b730eeba018fbca6673c32753fce367a316f5c9be4332bd"], "fee": 0, "nonce": 2903054622, "n_tx": 1, "size": 216, "block_index": 398, "main_chain": true, "height": 398, "weight": 864, "tx": [{"hash": "c056d48ae983586d78b51352c7d689db7c33acd286958301a5ec59e3a09ae016", "ver": 1, "vin_sz": 1, "vout_sz": 1, "size": 135, "weight": 540, "fee": 0, "relayed_by": "0.0.0.0", "lock_time": 0, "tx_index": 804925527059261, "double_spend": false, "time": 1231900415, "block_index": 398, "block_height": 398, "inputs": [{"sequence": 4294967295, "witness": "", "script": "04ffff001d026f02", "index": 0, "prev_out": null}], "out": [{"type": 0, "spent": false, "value": 5000000000, "spending_outpoints": [], "n": 0, "tx_index": 804925527059261, "script": "4104c03ee7780b5708206a1479c8a1c56b06ecc246c56421e98f4192d967b66df07c9fd299b7d087b2c9aabc384aa6e265f4df2ae9e0febbaaeff828e5a98199966cac", "addr": "1By25jX8SptxkHFrFJrgbxhuB83C5GGXnc"}], "hex": "01000000010000000000000000000000000000000000000000000000000000000000000000ffffffff0804ffff001d026f02ffffffff0100f2052a01000000434104c03ee7780b5708206a1479c8a1c56b06ecc246c56421e98f4192d967b66df07c9fd299b7d087b2c9aabc384aa6e265f4df2ae9e0febbaaeff828e5a98199966cac00000000"}]}