{"hash": "0000000006a774e00b730eeba018fbca6673c32753fce367a316f5c9be4332bd", "ver": 1, "prev_block": "000000002f7d702a27ccd65158740198f79d4ba1ddea8ab14b56b63a6289fe89", "mrkl_root": "d9ab16fd9a8a5758e9a276eeecca67f232daabd6a603c8c6a1bb0b99c542163e", "time": 1231901339, "bits": 486604799, "next_block": ["000000002dd9919f0a67590bb7c945cb57270a060ce39e85d8d37536a71928c3"], "fee": 0, "nonce": 1284574755, "n_tx": 1, "size": 216, "block_index": 399, "main_chain": true, "height": 399, "weight": 864, "tx": [{"hash": "d9ab16fd9a8a5758e9a276eeecca67f232daabd6a603c8c6a1bb0b99c542163e", "ver": 1, "vin_sz": 1, "vout_sz": 1, "size": 135, "weight": 540, "fee": 0, "relayed_by": "0.0.0.0", "lock_time": 0, "tx_index": 2184490574356855, "double_spend": false, "time": 1231901339, "block_index": 399, "block_height": 399, "inputs": [{"sequence": 4294967295, "witness": "", "script": "04ffff001d027302", "index": 0, "prev_out": null}], "out": [{"type": 0, "spent": false, "value": 5000000000, "spending_outpoints": [], "n": 0, "tx_index": 2184490574356855, "script": "4104cc7b14f46a7c690097b2dbec430e773c6fe3bc4c52fbf90302c5a84bfe64821874b489a34c25310499af10b2a3ffd0486a58f44154c4418d288779a773983ef8ac", "addr": "1FqZ84KUqEE7qJVRRTauLXYRjt1JfyPo71"}], "hex": "01000000010000000000000000000000000000000000000000000000000000000000000000ffffffff0804ffff001d027302ffffffff0100f2052a01000000434104cc7b14f46a7c690097b2dbec430e773c6fe3bc4c52fbf90302c5a84bfe64821874b489a34c25310499af10b2a3ffd0486a58f44154c4418d288779a773983ef8ac00000000"}]}