{"hash": "000000004ebadb55ee9096c9a2f8880e09da59c0d68b1c228da88e48844a1485", "ver": 1, "prev_block": "0000000082b5015589a3fdf2d4baff403e6f0be035a5d9742c1cae6295464449", "mrkl_root": "df2b060fa2e5e9c8ed5eaf6a45c13753ec8c63282b2688322eba40cd98ea067a", "time": 1231470988, "bits": 486604799, "next_block": ["000000009b7262315dbf071787ad3656097b892abffd1f95a1a022f896f533fc"], "fee": 0, "nonce": 2850094635, "n_tx": 1, "size": 215, "block_index": 4, "main_chain": true, "height": 4, "weight": 860, "tx": [{"hash": "df2b060fa2e5e9c8ed5eaf6a45c13753ec8c63282b2688322eba40cd98ea067a", "ver": 1, "vin_sz": 1, "vout_sz": 1, "size": 134, "weight": 536, "fee": 0, "relayed_by": "0.0.0.0", "lock_time": 0, "tx_index": 4293443976800279, "double_spend": false, "time": 1231470988, "block_index": 4, "block_height": 4, "inputs": [{"sequence": 4294967295, "witness": "", "script": "04ffff001d011a", "index": 0, "prev_out": null}], "out": [{"type": 0, "spent": false, "value": 5000000000, "spending_outpoints": [], "n": 0, "tx_index": 4293443976800279, "script": "4104184f32b212815c6e522e66686324030ff7e5bf08efb21f8b00614fb7690e19131dd31304c54f37baa40db231c918106bb9fd43373e37ae31a0befc6ecaefb867ac", "addr": "15ubicBBWFnvoZLT7GiU2qxjRaKJPdkDMG"}], "hex": "01000000010000000000000000000000000000000000000000000000000000000000000000ffffffff0704ffff001d011affffffff0100f2052a01000000434104184f32b212815c6e522e66686324030ff7e5bf08efb21f8b00614fb7690e19131dd31304c54f37baa40db231c918106bb9fd43373e37ae31a0befc6ecaefb867ac00000000"}]}