{"hash": "00000000b2f01f399bf503e55f25a1aa51067056d2eb81915cb91976968b69aa", "ver": 1, "prev_block": "000000005665d506f6c3ccb5fd98624f9816a8a169f1d2327d1d4d6d3262ad12", "mrkl_root": "04391286b3aefbb5df4cdb515ac7fce7942525fa602e1d7757e90a4fd41a1e20", "time": 1231608208, "bits": 486604799, "next_block": ["00000000ad2b48c7032b6d7d4f2e19e54d79b1c159f5599056492f2cd7bb528b"], "fee": 0, "nonce": 1902584070, "n_tx": 1, "size": 215, "block_index": 40, "main_chain": true, "height": 40, "weight": 860, "tx": [{"hash": "04391286b3aefbb5df4cdb515ac7fce7942525fa602e1d7757e90a4fd41a1e20", "ver": 1, "vin_sz": 1, "vout_sz": 1, "size": 134, "weight": 536, "fee": 0, "relayed_by": "0.0.0.0", "lock_time": 0, "tx_index": 1130037479334237, "double_spend": false, "time": 1231608208, "block_index": 40, "block_height": 40, "inputs": [{"sequence": 4294967295, "witness": "", "script": "04ffff001d010e", "index": 0, "prev_out": null}], "out": [{"type": 0, "spent": false, "value": 5000000000, "spending_outpoints": [], "n": 0, "tx_index": 1130037479334237, "script": "410427df882a156b4c29a4d05eec8d0c4b53f976f7e0ee2639dc8cbb6327451b8cf0957abb3418696243f392e73b586ea4b074e5bdc856a234c9e174615e3bbcea24ac", "addr": "1AQ2m6GH78oLgZYCdueUb4Zjxg1L6BkHZM"}], "hex": "01000000010000000000000000000000000000000000000000000000000000000000000000ffffffff0704ffff001d010effffffff0100f2052a0100000043410427df882a156b4c29a4d05eec8d0c4b53f976f7e0ee2639dc8cbb6327451b8cf0957abb3418696243f392e73b586ea4b074e5bdc856a234c9e174615e3bbcea24ac00000000"}]}