{"hash": "000000005bbced8d14a6ec258a8ab28ae980616e9820437cc3b6d3daff3b7d14", "ver": 1, "prev_block": "000000002dd9919f0a67590bb7c945cb57270a060ce39e85d8d37536a71928c3", "mrkl_root": "fd6953adbacc06f9465fea4812ba82ddfcfb1a0254f4e63619f54cf2d60db0f4", "time": 1231902868, "bits": 486604799, "next_block": ["000000005265c5afb97e91a7961ea9861612d965e7714df0c9d38da02b59d8f8"], "fee": 0, "nonce": 2895021357, "n_tx": 1, "size": 216, "block_index": 401, "main_chain": true, "height": 401, "weight": 864, "tx": [{"hash": "fd6953adbacc06f9465fea4812ba82ddfcfb1a0254f4e63619f54cf2d60db0f4", "ver": 1, "vin_sz": 1, "vout_sz": 1, "size": 135, "weight": 540, "fee": 0, "relayed_by": "0.0.0.0", "lock_time": 0, "tx_index": 8609183475583390, "double_spend": false, "time": 1231902868, "block_index": 401, "block_height": 401, "inputs": [{"sequence": 4294967295, "witness": "", "script": "04ffff001d027c02", "index": 0, "prev_out": null}], "out": [{"type": 0, "spent": false, "value": 5000000000, "spending_outpoints": [], "n": 0, "tx_index": 8609183475583390, "script": "4104fee0b2a460546db1488e33a8cfab12b4fc97f1598076bbf21ba6e3873d0a4f48133857ddd62deba2289a112e104206b9597701f480bdfe8452ede94883d34f20ac", "addr": "1LTLwGgVR4ey139PezChWfFWbZnGVCEmym"}], "hex": "01000000010000000000000000000000000000000000000000000000000000000000000000ffffffff0804ffff001d027c02ffffffff0100f2052a01000000434104fee0b2a460546db1488e33a8cfab12b4fc97f1598076bbf21ba6e3873d0a4f48133857ddd62deba2289a112e104206b9597701f480bdfe8452ede94883d34f20ac00000000"}]}