{"hash": "000000005265c5afb97e91a7961ea9861612d965e7714df0c9d38da02b59d8f8", "ver": 1, "prev_block": "000000005bbced8d14a6ec258a8ab28ae980616e9820437cc3b6d3daff3b7d14", "mrkl_root": "6564bbc764f693e45d0cc173e3b4b4ff20244e9dd6226fab1e3a3a9bcb3e1e5a", "time": 1231903283, "bits": 486604799, "next_block": ["0000000070e953b7a87dad93a8c63a5884f92ba7f53e38f9dc2b64e09e0b735a"], "fee": 0, "nonce": 1150490646, "n_tx": 1, "size": 216, "block_index": 402, "main_chain": true, "height": 402, "weight": 864, "tx": [{"hash": "6564bbc764f693e45d0cc173e3b4b4ff20244e9dd6226fab1e3a3a9bcb3e1e5a", "ver": 1, "vin_sz": 1, "vout_sz": 1, "size": 135, "weight": 540, "fee": 0, "relayed_by": "0.0.0.0", "lock_time": 0, "tx_index": 3170750369589063, "double_spend": false, "time": 1231903283, "block_index": 402, "block_height": 402, "inputs": [{"sequence": 4294967295, "witness": "", "script": "04ffff001d027e02", "index": 0, "prev_out": null}], "out": [{"type": 0, "spent": false, "value": 5000000000, "spending_outpoints": [], "n": 0, "tx_index": 3170750369589063, "script": "4104c2c8240321a8b4664b8193c12771a4e29226199929e457110a243b05ff4e6be5d2d6940ec134dd8bad972a7a29de168f9b1e503d4969fdf16e4c5af6fd8157a6ac", "addr": "12DjDWvXifrxizvn7rdQdYqrq9jnY6iA4F"}], "hex": "01000000010000000000000000000000000000000000000000000000000000000000000000ffffffff0804ffff001d027e02ffffffff0100f2052a01000000434104c2c8240321a8b4664b8193c12771a4e29226199929e457110a243b05ff4e6be5d2d6940ec134dd8bad972a7a29de168f9b1e503d4969fdf16e4c5af6fd8157a6ac00000000"}]}