{"hash": "0000000070e953b7a87dad93a8c63a5884f92ba7f53e38f9dc2b64e09e0b735a", "ver": 1, "prev_block": "000000005265c5afb97e91a7961ea9861612d965e7714df0c9d38da02b59d8f8", "mrkl_root": "b1d9ceea015b06c8753f48c0a04336719f00abbcecc5c1ed11a5c3005c587a0d", "time": 1231903835, "bits": 486604799, "next_block": ["00000000e1c14f433f188468b2bb6e634fb5381d2c8c1e98e1f87a90842073e8"], "fee": 0, "nonce": 3533262110, "n_tx": 1, "size": 216, "block_index": 403, "main_chain": true, "height": 403, "weight": 864, "tx": [{"hash": "b1d9ceea015b06c8753f48c0a04336719f00abbcecc5c1ed11a5c3005c587a0d", "ver": 1, "vin_sz": 1, "vout_sz": 1, "size": 135, "weight": 540, "fee": 0, "relayed_by": "0.0.0.0", "lock_time": 0, "tx_index": 474211827062900, "double_spend": false, "time": 1231903835, "block_index": 403, "block_height": 403, "inputs": [{"sequence": 4294967295, "witness": "", "script": "04ffff001d028102", "index": 0, "prev_out": null}], "out": [{"type": 0, "spent": false, "value": 5000000000, "spending_outpoints": [], "n": 0, "tx_index": 474211827062900, "script": "4104a9f28305bd247981dd2a49abca2d8602110931298185128b43d7bcaea4863b93b8850cddbb7179c73d0cdccbc1623fae51f4b50b0a73d33f68f3cbe61658d96dac", "addr": "17FNKvUnLaB8zJve72S2E777ZDEZBBRBk8"}], "hex": "01000000010000000000000000000000000000000000000000000000000000000000000000ffffffff0804ffff001d028102ffffffff0100f2052a01000000434104a9f28305bd247981dd2a49abca2d8602110931298185128b43d7bcaea4863b93b8850cddbb7179c73d0cdccbc1623fae51f4b50b0a73d33f68f3cbe61658d96dac00000000"}]}