{"hash": "00000000e1c14f433f188468b2bb6e634fb5381d2c8c1e98e1f87a90842073e8", "ver": 1, "prev_block": "0000000070e953b7a87dad93a8c63a5884f92ba7f53e38f9dc2b64e09e0b735a", "mrkl_root": "f5fe20fadac94288a0ed18a2b2e181471e6b75a023b7b2f88dfe4bb8667c6437", "time": 1231904592, "bits": 486604799, "next_block": ["00000000a148f310f5c02800fe4b08aa4daf0ea17b212ee07ce00f76768689dd"], "fee": 0, "nonce": 1694690594, "n_tx": 1, "size": 216, "block_index": 404, "main_chain": true, "height": 404, "weight": 864, "tx": [{"hash": "f5fe20fadac94288a0ed18a2b2e181471e6b75a023b7b2f88dfe4bb8667c6437", "ver": 1, "vin_sz": 1, "vout_sz": 1, "size": 135, "weight": 540, "fee": 0, "relayed_by": "0.0.0.0", "lock_time": 0, "tx_index": 1948951147645311, "double_spend": false, "time": 1231904592, "block_index": 404, "block_height": 404, "inputs": [{"sequence": 4294967295, "witness": "", "script": "04ffff001d028302", "index": 0, "prev_out": null}], "out": [{"type": 0, "spent": false, "value": 5000000000, "spending_outpoints": [], "n": 0, "tx_index": 1948951147645311, "script": "41047cc02f54395b30969aa2efbc03c9fc25faf8f5a12ab2cb0a8bbc8b4dea5238b560b5ddf70145c9781b7a748221bf5749f1593be7ae8c880fa5ec8a90d9a72141ac", "addr": "1AUsn9BUs7RaxdPoHuyfDgZ2uQ6kWHRonh"}], "hex": "01000000010000000000000000000000000000000000000000000000000000000000000000ffffffff0804ffff001d028302ffffffff0100f2052a010000004341047cc02f54395b30969aa2efbc03c9fc25faf8f5a12ab2cb0a8bbc8b4dea5238b560b5ddf70145c9781b7a748221bf5749f1593be7ae8c880fa5ec8a90d9a72141ac00000000"}]}