{"hash": "00000000a148f310f5c02800fe4b08aa4daf0ea17b212ee07ce00f76768689dd", "ver": 1, "prev_block": "00000000e1c14f433f188468b2bb6e634fb5381d2c8c1e98e1f87a90842073e8", "mrkl_root": "9339603183ff7a267eb4fa98920097979520a6c400bc771f50cb81de1b481867", "time": 1231905679, "bits": 486604799, "next_block": ["00000000e3385ef51a21c2ef7d844c9e1390168247858c6865b38698017b614f"], "fee": 0, "nonce": 2455497510, "n_tx": 1, "size": 216, "block_index": 405, "main_chain": true, "height": 405, "weight": 864, "tx": [{"hash": "9339603183ff7a267eb4fa98920097979520a6c400bc771f50cb81de1b481867", "ver": 1, "vin_sz": 1, "vout_sz": 1, "size": 135, "weight": 540, "fee": 0, "relayed_by": "0.0.0.0", "lock_time": 0, "tx_index": 3627327573184569, "double_spend": false, "time": 1231905679, "block_index": 405, "block_height": 405, "inputs": [{"sequence": 4294967295, "witness": "", "script": "04ffff001d02a002", "index": 0, "prev_out": null}], "out": [{"type": 0, "spent": false, "value": 5000000000, "spending_outpoints": [], "n": 0, "tx_index": 3627327573184569, "script": "410478abb18c0c7c95348fa77eb5fd43ce963e450d797cf4878894230ca528e6c8e866c38ad93746e04f2161a01787c82a858ee24940e9a06e41fddb3494dfe29380ac", "addr": "1GL6i1ty44RnERgqYLKS1CrnhrahW4JhQZ"}], "hex": "01000000010000000000000000000000000000000000000000000000000000000000000000ffffffff0804ffff001d02a002ffffffff0100f2052a0100000043410478abb18c0c7c95348fa77eb5fd43ce963e450d797cf4878894230ca528e6c8e866c38ad93746e04f2161a01787c82a858ee24940e9a06e41fddb3494dfe29380ac00000000"}]}