{"hash": "00000000e3385ef51a21c2ef7d844c9e1390168247858c6865b38698017b614f", "ver": 1, "prev_block": "00000000a148f310f5c02800fe4b08aa4daf0ea17b212ee07ce00f76768689dd", "mrkl_root": "145184076b0902e61454ffef9a43c8bd3a3d3d8ea34bf3facc6c21138a74e68a", "time": 1231906883, "bits": 486604799, "next_block": ["000000009df396001cae68e4bbd0d1073e9056e82794a0c1c1c850e6c9d8372d"], "fee": 0, "nonce": 2292846113, "n_tx": 1, "size": 216, "block_index": 406, "main_chain": true, "height": 406, "weight": 864, "tx": [{"hash": "145184076b0902e61454ffef9a43c8bd3a3d3d8ea34bf3facc6c21138a74e68a", "ver": 1, "vin_sz": 1, "vout_sz": 1, "size": 135, "weight": 540, "fee": 0, "relayed_by": "0.0.0.0", "lock_time": 0, "tx_index": 4887116874146861, "double_spend": false, "time": 1231906883, "block_index": 406, "block_height": 406, "inputs": [{"sequence": 4294967295, "witness": "", "script": "04ffff001d02b202", "index": 0, "prev_out": null}], "out": [{"type": 0, "spent": false, "value": 5000000000, "spending_outpoints": [], "n": 0, "tx_index": 4887116874146861, "script": "4104dfa37a84f24dea749b363f03d32bd9aba7ddfd541c5206f7b8468f7a856701f01d9ea003d901b53078401a270b9c23c8d9f2248aafcfde6beaa866b14a390dffac", "addr": "1FbaHimqo6FAQbyrnUjiMutgwpocLDw4bS"}], "hex": "01000000010000000000000000000000000000000000000000000000000000000000000000ffffffff0804ffff001d02b202ffffffff0100f2052a01000000434104dfa37a84f24dea749b363f03d32bd9aba7ddfd541c5206f7b8468f7a856701f01d9ea003d901b53078401a270b9c23c8d9f2248aafcfde6beaa866b14a390dffac00000000"}]}