{"hash": "000000009df396001cae68e4bbd0d1073e9056e82794a0c1c1c850e6c9d8372d", "ver": 1, "prev_block": "00000000e3385ef51a21c2ef7d844c9e1390168247858c6865b38698017b614f", "mrkl_root": "0b086abe2602f870a2d93ed496b0558d5fc349c4504eb0d474cc4ca99b4b1308", "time": 1231907580, "bits": 486604799, "next_block": ["00000000f079868ed92cd4e7b7f50a5f8a2bb459ab957dd5402af7be7bd8ea6b"], "fee": 0, "nonce": 195999916, "n_tx": 1, "size": 215, "block_index": 407, "main_chain": true, "height": 407, "weight": 860, "tx": [{"hash": "0b086abe2602f870a2d93ed496b0558d5fc349c4504eb0d474cc4ca99b4b1308", "ver": 1, "vin_sz": 1, "vout_sz": 1, "size": 134, "weight": 536, "fee": 0, "relayed_by": "0.0.0.0", "lock_time": 0, "tx_index": 284126908590489, "double_spend": false, "time": 1231907580, "block_index": 407, "block_height": 407, "inputs": [{"sequence": 4294967295, "witness": "", "script": "04ffff001d0116", "index": 0, "prev_out": null}], "out": [{"type": 0, "spent": true, "value": 5000000000, "spending_outpoints": [{"tx_index": 7703055263292291, "n": 0}], "n": 0, "tx_index": 284126908590489, "script": "4104d29fcb55e10798ce0ef6f027e1bacc60f6a5681126a1226fa1a17ee2c47987760543b508595edc61d57bb9c0bbf0c8659640ea14ae7acbb0b2e1e81b4cc8f335ac", "addr": "1PEsXxy7kVSPL3Sqw9q4HPkbM368tGTYcx"}], "hex": "01000000010000000000000000000000000000000000000000000000000000000000000000ffffffff0704ffff001d0116ffffffff0100f2052a01000000434104d29fcb55e10798ce0ef6f027e1bacc60f6a5681126a1226fa1a17ee2c47987760543b508595edc61d57bb9c0bbf0c8659640ea14ae7acbb0b2e1e81b4cc8f335ac00000000"}]}