{"hash": "00000000f079868ed92cd4e7b7f50a5f8a2bb459ab957dd5402af7be7bd8ea6b", "ver": 1, "prev_block": "000000009df396001cae68e4bbd0d1073e9056e82794a0c1c1c850e6c9d8372d", "mrkl_root": "fcb92c7d90a54b009c3707fabf8d833f1e6544dc51121576cf497060cdd7e6a9", "time": 1231907948, "bits": 486604799, "next_block": ["000000005ab5baa8ca1a5343bb7d84a5ef42e31b91a2e673137654d689881b27"], "fee": 0, "nonce": 3653390900, "n_tx": 1, "size": 216, "block_index": 408, "main_chain": true, "height": 408, "weight": 864, "tx": [{"hash": "fcb92c7d90a54b009c3707fabf8d833f1e6544dc51121576cf497060cdd7e6a9", "ver": 1, "vin_sz": 1, "vout_sz": 1, "size": 135, "weight": 540, "fee": 0, "relayed_by": "0.0.0.0", "lock_time": 0, "tx_index": 5977885700263433, "double_spend": false, "time": 1231907948, "block_index": 408, "block_height": 408, "inputs": [{"sequence": 4294967295, "witness": "", "script": "04ffff001d02bb02", "index": 0, "prev_out": null}], "out": [{"type": 0, "spent": false, "value": 5000000000, "spending_outpoints": [], "n": 0, "tx_index": 5977885700263433, "script": "4104eac173e68d186a1b0e7576d9e2a5f600141a3693d428ed185b9d7acd6c50ba41d806d44d59a3212f633adc992c1d008066095c97e16de789f7c4c3f9f8e282c6ac", "addr": "1EiMGeZVJ9f3Zuokp4KWj3PQuowZgQXUeM"}], "hex": "01000000010000000000000000000000000000000000000000000000000000000000000000ffffffff0804ffff001d02bb02ffffffff0100f2052a01000000434104eac173e68d186a1b0e7576d9e2a5f600141a3693d428ed185b9d7acd6c50ba41d806d44d59a3212f633adc992c1d008066095c97e16de789f7c4c3f9f8e282c6ac00000000"}]}