{"hash": "000000005ab5baa8ca1a5343bb7d84a5ef42e31b91a2e673137654d689881b27", "ver": 1, "prev_block": "00000000f079868ed92cd4e7b7f50a5f8a2bb459ab957dd5402af7be7bd8ea6b", "mrkl_root": "42c8a250c0512d2b2e439391a66874684e1047325eab8cef8f786e82fb2abde0", "time": 1231908863, "bits": 486604799, "next_block": ["000000009579d1a62c9b365682641a0a6d73fc047b93fc5ab4ea046ccd9877ef"], "fee": 0, "nonce": 567133229, "n_tx": 1, "size": 216, "block_index": 409, "main_chain": true, "height": 409, "weight": 864, "tx": [{"hash": "42c8a250c0512d2b2e439391a66874684e1047325eab8cef8f786e82fb2abde0", "ver": 1, "vin_sz": 1, "vout_sz": 1, "size": 135, "weight": 540, "fee": 0, "relayed_by": "0.0.0.0", "lock_time": 0, "tx_index": 7907298386136527, "double_spend": false, "time": 1231908863, "block_index": 409, "block_height": 409, "inputs": [{"sequence": 4294967295, "witness": "", "script": "04ffff001d02be02", "index": 0, "prev_out": null}], "out": [{"type": 0, "spent": false, "value": 5000000000, "spending_outpoints": [], "n": 0, "tx_index": 7907298386136527, "script": "4104e8c3062579448bb939365153c9bf24fce7668541873dda6a7e0faba5b420ac4d16c8613528c0dd00edffe2cf6cb26940cd1827aa2bf2b7148e5c4b4d8b89d007ac", "addr": "1MycUHutP9zPJsCqhVAWDmj4rbhKvtYE11"}], "hex": "01000000010000000000000000000000000000000000000000000000000000000000000000ffffffff0804ffff001d02be02ffffffff0100f2052a01000000434104e8c3062579448bb939365153c9bf24fce7668541873dda6a7e0faba5b420ac4d16c8613528c0dd00edffe2cf6cb26940cd1827aa2bf2b7148e5c4b4d8b89d007ac00000000"}]}