{"hash": "00000000ad2b48c7032b6d7d4f2e19e54d79b1c159f5599056492f2cd7bb528b", "ver": 1, "prev_block": "00000000b2f01f399bf503e55f25a1aa51067056d2eb81915cb91976968b69aa", "mrkl_root": "9efa6cb3b8cca3c9387144f397f80e7b4bc2dd86026fdd308625a2e100a08d5a", "time": 1231608903, "bits": 486604799, "next_block": ["00000000314e90489514c787d615cea50003af2023796ccdd085b6bcc1fa28f5"], "fee": 0, "nonce": 3522947079, "n_tx": 1, "size": 215, "block_index": 41, "main_chain": true, "height": 41, "weight": 860, "tx": [{"hash": "9efa6cb3b8cca3c9387144f397f80e7b4bc2dd86026fdd308625a2e100a08d5a", "ver": 1, "vin_sz": 1, "vout_sz": 1, "size": 134, "weight": 536, "fee": 0, "relayed_by": "0.0.0.0", "lock_time": 0, "tx_index": 3186058281628740, "double_spend": false, "time": 1231608903, "block_index": 41, "block_height": 41, "inputs": [{"sequence": 4294967295, "witness": "", "script": "04ffff001d0112", "index": 0, "prev_out": null}], "out": [{"type": 0, "spent": false, "value": 5000000000, "spending_outpoints": [], "n": 0, "tx_index": 3186058281628740, "script": "4104a449ee292e46745b6e8e350a04777ee938f151af438a6b80c2fb86a65e71e6a677897ef1f8e997dcddc024d92639620e09021710ae3076836c90f3fa2fcdedd3ac", "addr": "1DEwdHYmo8q6AhSHG7UgxEjttNMFdw9e7u"}], "hex": "01000000010000000000000000000000000000000000000000000000000000000000000000ffffffff0704ffff001d0112ffffffff0100f2052a01000000434104a449ee292e46745b6e8e350a04777ee938f151af438a6b80c2fb86a65e71e6a677897ef1f8e997dcddc024d92639620e09021710ae3076836c90f3fa2fcdedd3ac00000000"}]}