{"hash": "000000009579d1a62c9b365682641a0a6d73fc047b93fc5ab4ea046ccd9877ef", "ver": 1, "prev_block": "000000005ab5baa8ca1a5343bb7d84a5ef42e31b91a2e673137654d689881b27", "mrkl_root": "80243f677ac731f4dd97e345832e41995cc11e90fc30b83806ecb470be1d6280", "time": 1231909577, "bits": 486604799, "next_block": ["000000003ddeb377f8c85e3c7b1ac78715fbb90fe65a617d0c57c0a6f62baf94"], "fee": 0, "nonce": 4122836022, "n_tx": 1, "size": 216, "block_index": 410, "main_chain": true, "height": 410, "weight": 864, "tx": [{"hash": "80243f677ac731f4dd97e345832e41995cc11e90fc30b83806ecb470be1d6280", "ver": 1, "vin_sz": 1, "vout_sz": 1, "size": 135, "weight": 540, "fee": 0, "relayed_by": "0.0.0.0", "lock_time": 0, "tx_index": 4517084613449373, "double_spend": false, "time": 1231909577, "block_index": 410, "block_height": 410, "inputs": [{"sequence": 4294967295, "witness": "", "script": "04ffff001d02c502", "index": 0, "prev_out": null}], "out": [{"type": 0, "spent": false, "value": 5000000000, "spending_outpoints": [], "n": 0, "tx_index": 4517084613449373, "script": "4104546e5dc365e864099ca5dc342cf9ca121c99edd065993b7cae44ce2852ceb9fd250f7eed9056f1ca857abf357490ba78e4e01cf4bc9f490abf968e2939a3ee0eac", "addr": "1HYcRWMoyTDmGXRpq6svaoCURsDhYB8Y1s"}], "hex": "01000000010000000000000000000000000000000000000000000000000000000000000000ffffffff0804ffff001d02c502ffffffff0100f2052a01000000434104546e5dc365e864099ca5dc342cf9ca121c99edd065993b7cae44ce2852ceb9fd250f7eed9056f1ca857abf357490ba78e4e01cf4bc9f490abf968e2939a3ee0eac00000000"}]}