{"hash": "000000003ddeb377f8c85e3c7b1ac78715fbb90fe65a617d0c57c0a6f62baf94", "ver": 1, "prev_block": "000000009579d1a62c9b365682641a0a6d73fc047b93fc5ab4ea046ccd9877ef", "mrkl_root": "41fca09f4bba706f1ca59ebd601fb5ac18c37b4468cf98fa008a00118d241a68", "time": 1231910433, "bits": 486604799, "next_block": ["0000000072d95c134f9a33b8f94bfe96186efc32fe8c6d13bdc2a196e40e2df0"], "fee": 0, "nonce": 2031447605, "n_tx": 1, "size": 216, "block_index": 411, "main_chain": true, "height": 411, "weight": 864, "tx": [{"hash": "41fca09f4bba706f1ca59ebd601fb5ac18c37b4468cf98fa008a00118d241a68", "ver": 1, "vin_sz": 1, "vout_sz": 1, "size": 135, "weight": 540, "fee": 0, "relayed_by": "0.0.0.0", "lock_time": 0, "tx_index": 3662767733219345, "double_spend": false, "time": 1231910433, "block_index": 411, "block_height": 411, "inputs": [{"sequence": 4294967295, "witness": "", "script": "04ffff001d02c602", "index": 0, "prev_out": null}], "out": [{"type": 0, "spent": false, "value": 5000000000, "spending_outpoints": [], "n": 0, "tx_index": 3662767733219345, "script": "41046d8fdaa3f107f5a433af401e84cf9b1f716249ceacc2a774b9cddb1b237ef187adf2dc5c2949ac74dd6f28d212e03c613b7845f79f2b9f8f72d2cee6ea379a1eac", "addr": "1MqArsr33cxhnpYdsjJApjui1BhnzAwihX"}], "hex": "01000000010000000000000000000000000000000000000000000000000000000000000000ffffffff0804ffff001d02c602ffffffff0100f2052a010000004341046d8fdaa3f107f5a433af401e84cf9b1f716249ceacc2a774b9cddb1b237ef187adf2dc5c2949ac74dd6f28d212e03c613b7845f79f2b9f8f72d2cee6ea379a1eac00000000"}]}