{"hash": "0000000072d95c134f9a33b8f94bfe96186efc32fe8c6d13bdc2a196e40e2df0", "ver": 1, "prev_block": "000000003ddeb377f8c85e3c7b1ac78715fbb90fe65a617d0c57c0a6f62baf94", "mrkl_root": "be4e4a6dda8d5d09a649606bcda395d39b7f674ceea00af7159a49be6047807e", "time": 1231910935, "bits": 486604799, "next_block": ["00000000621e04b0b315c9d341f8b4ff269443178a9e895e49042e3dee11fda1"], "fee": 0, "nonce": 1908384035, "n_tx": 1, "size": 216, "block_index": 412, "main_chain": true, "height": 412, "weight": 864, "tx": [{"hash": "be4e4a6dda8d5d09a649606bcda395d39b7f674ceea00af7159a49be6047807e", "ver": 1, "vin_sz": 1, "vout_sz": 1, "size": 135, "weight": 540, "fee": 0, "relayed_by": "0.0.0.0", "lock_time": 0, "tx_index": 4450861389957427, "double_spend": false, "time": 1231910935, "block_index": 412, "block_height": 412, "inputs": [{"sequence": 4294967295, "witness": "", "script": "04ffff001d02cc02", "index": 0, "prev_out": null}], "out": [{"type": 0, "spent": false, "value": 5000000000, "spending_outpoints": [], "n": 0, "tx_index": 4450861389957427, "script": "4104db8b3eaf5bc0ff56aaf5827cee3ff23867f858d10336988203d691c210638956898ef8146a92a30a64494b1dfde5228eb1ebf1e6c44093d6f261c4bb13fe85ddac", "addr": "1tCYRLM1bAjSy2NrBp5HnLKAx5zprtDkT"}], "hex": "01000000010000000000000000000000000000000000000000000000000000000000000000ffffffff0804ffff001d02cc02ffffffff0100f2052a01000000434104db8b3eaf5bc0ff56aaf5827cee3ff23867f858d10336988203d691c210638956898ef8146a92a30a64494b1dfde5228eb1ebf1e6c44093d6f261c4bb13fe85ddac00000000"}]}