{"hash": "00000000621e04b0b315c9d341f8b4ff269443178a9e895e49042e3dee11fda1", "ver": 1, "prev_block": "0000000072d95c134f9a33b8f94bfe96186efc32fe8c6d13bdc2a196e40e2df0", "mrkl_root": "83ebb2006c7978e45508b6f0d75dabc3391610caf5d154a803394d1b9d6700e3", "time": 1231911838, "bits": 486604799, "next_block": ["0000000054f5445a546e095668d56d66fbf5c977561da29b3ae8b97db9526d7b"], "fee": 0, "nonce": 158214437, "n_tx": 1, "size": 215, "block_index": 413, "main_chain": true, "height": 413, "weight": 860, "tx": [{"hash": "83ebb2006c7978e45508b6f0d75dabc3391610caf5d154a803394d1b9d6700e3", "ver": 1, "vin_sz": 1, "vout_sz": 1, "size": 134, "weight": 536, "fee": 0, "relayed_by": "0.0.0.0", "lock_time": 0, "tx_index": 7986908091345319, "double_spend": false, "time": 1231911838, "block_index": 413, "block_height": 413, "inputs": [{"sequence": 4294967295, "witness": "", "script": "04ffff001d0140", "index": 0, "prev_out": null}], "out": [{"type": 0, "spent": true, "value": 5000000000, "spending_outpoints": [{"tx_index": 7152024406240334, "n": 25}], "n": 0, "tx_index": 7986908091345319, "script": "410440f8e5b74447fc5f930fc6be6414a3572b352c8f6c391cd2dde9e0586e7b5215a5aa9419fb10e8922e65de62d66268b58afa4bf58247da91d0163f68b8cd78eeac", "addr": "15ATbhqgqxkGen8ZLsb2BEbQzw3ymdzbQ9"}], "hex": "01000000010000000000000000000000000000000000000000000000000000000000000000ffffffff0704ffff001d0140ffffffff0100f2052a0100000043410440f8e5b74447fc5f930fc6be6414a3572b352c8f6c391cd2dde9e0586e7b5215a5aa9419fb10e8922e65de62d66268b58afa4bf58247da91d0163f68b8cd78eeac00000000"}]}