{"hash": "0000000054f5445a546e095668d56d66fbf5c977561da29b3ae8b97db9526d7b", "ver": 1, "prev_block": "00000000621e04b0b315c9d341f8b4ff269443178a9e895e49042e3dee11fda1", "mrkl_root": "2ff4eef34690b1c8c69aadd0d2ff6d8b5507829a3806e584811d78480aa79dc3", "time": 1231912058, "bits": 486604799, "next_block": ["000000003f7e074587fa1684ac863519fea3c64040b05ddd04948a13f7b19b42"], "fee": 0, "nonce": 2593383705, "n_tx": 1, "size": 216, "block_index": 414, "main_chain": true, "height": 414, "weight": 864, "tx": [{"hash": "2ff4eef34690b1c8c69aadd0d2ff6d8b5507829a3806e584811d78480aa79dc3", "ver": 1, "vin_sz": 1, "vout_sz": 1, "size": 135, "weight": 540, "fee": 0, "relayed_by": "0.0.0.0", "lock_time": 0, "tx_index": 6882620152024835, "double_spend": false, "time": 1231912058, "block_index": 414, "block_height": 414, "inputs": [{"sequence": 4294967295, "witness": "", "script": "04ffff001d02e202", "index": 0, "prev_out": null}], "out": [{"type": 0, "spent": false, "value": 5000000000, "spending_outpoints": [], "n": 0, "tx_index": 6882620152024835, "script": "41045d4a66935b248db4198a8b290d10ccb90de7f9589c081d155ee902350bb67a09791b2ae46b895c9a8a70160727996838b0d86053f04d9c338da52af1a670a844ac", "addr": "1KfH6XzoKSXrUBXuxbC3KTtPzoWxdkEEgu"}], "hex": "01000000010000000000000000000000000000000000000000000000000000000000000000ffffffff0804ffff001d02e202ffffffff0100f2052a010000004341045d4a66935b248db4198a8b290d10ccb90de7f9589c081d155ee902350bb67a09791b2ae46b895c9a8a70160727996838b0d86053f04d9c338da52af1a670a844ac00000000"}]}