{"hash": "000000003f7e074587fa1684ac863519fea3c64040b05ddd04948a13f7b19b42", "ver": 1, "prev_block": "0000000054f5445a546e095668d56d66fbf5c977561da29b3ae8b97db9526d7b", "mrkl_root": "9f53223f570d2a5434d3a1b5b2ccb969a312618101f8e1808730f55d97a854e8", "time": 1231912565, "bits": 486604799, "next_block": ["00000000accb9001c11866848a686bc3f2c42111cbcf2ee52cc5f5c7fcac508f"], "fee": 0, "nonce": 1910704928, "n_tx": 1, "size": 216, "block_index": 415, "main_chain": true, "height": 415, "weight": 864, "tx": [{"hash": "9f53223f570d2a5434d3a1b5b2ccb969a312618101f8e1808730f55d97a854e8", "ver": 1, "vin_sz": 1, "vout_sz": 1, "size": 135, "weight": 540, "fee": 0, "relayed_by": "0.0.0.0", "lock_time": 0, "tx_index": 8174409708453542, "double_spend": false, "time": 1231912565, "block_index": 415, "block_height": 415, "inputs": [{"sequence": 4294967295, "witness": "", "script": "04ffff001d02e302", "index": 0, "prev_out": null}], "out": [{"type": 0, "spent": false, "value": 5000000000, "spending_outpoints": [], "n": 0, "tx_index": 8174409708453542, "script": "4104bd049622bee449533d770630bdccb130af4e9d1065964f190db9238b538fc12e90c57a354e74e312858679eee9b9eaa86f8f60cdc9565f549c94b9106a0ebfe9ac", "addr": "1KB23eADRYbTWdTfVNSC5E14cpUpvyWUpg"}], "hex": "01000000010000000000000000000000000000000000000000000000000000000000000000ffffffff0804ffff001d02e302ffffffff0100f2052a01000000434104bd049622bee449533d770630bdccb130af4e9d1065964f190db9238b538fc12e90c57a354e74e312858679eee9b9eaa86f8f60cdc9565f549c94b9106a0ebfe9ac00000000"}]}