{"hash": "00000000accb9001c11866848a686bc3f2c42111cbcf2ee52cc5f5c7fcac508f", "ver": 1, "prev_block": "000000003f7e074587fa1684ac863519fea3c64040b05ddd04948a13f7b19b42", "mrkl_root": "07e014b69ada903a5fa33f841dacaff680a5cf72f4eca8997484aa35270f1ed7", "time": 1231912942, "bits": 486604799, "next_block": ["00000000f334596d5afdb4b5ee5fb6974718f1d94160e57a10c4db598144b808"], "fee": 0, "nonce": 2348105263, "n_tx": 1, "size": 216, "block_index": 416, "main_chain": true, "height": 416, "weight": 864, "tx": [{"hash": "07e014b69ada903a5fa33f841dacaff680a5cf72f4eca8997484aa35270f1ed7", "ver": 1, "vin_sz": 1, "vout_sz": 1, "size": 135, "weight": 540, "fee": 0, "relayed_by": "0.0.0.0", "lock_time": 0, "tx_index": 7568771302995280, "double_spend": false, "time": 1231912942, "block_index": 416, "block_height": 416, "inputs": [{"sequence": 4294967295, "witness": "", "script": "04ffff001d02e402", "index": 0, "prev_out": null}], "out": [{"type": 0, "spent": false, "value": 5000000000, "spending_outpoints": [], "n": 0, "tx_index": 7568771302995280, "script": "4104903838c2878457f2a7362839df8dba8b5d223595b4c2188cd7f42674718744e2f04f45714b29c4da8c0b7d373e6fd6a4073d1785f83753eb7f9368f291170c35ac", "addr": "1Kh79GzegqX82eX7mffCZbhJAJF8TLZQPW"}], "hex": "01000000010000000000000000000000000000000000000000000000000000000000000000ffffffff0804ffff001d02e402ffffffff0100f2052a01000000434104903838c2878457f2a7362839df8dba8b5d223595b4c2188cd7f42674718744e2f04f45714b29c4da8c0b7d373e6fd6a4073d1785f83753eb7f9368f291170c35ac00000000"}]}