{"hash": "00000000f334596d5afdb4b5ee5fb6974718f1d94160e57a10c4db598144b808", "ver": 1, "prev_block": "00000000accb9001c11866848a686bc3f2c42111cbcf2ee52cc5f5c7fcac508f", "mrkl_root": "193b51cd0c5a44bf6593e69fea91e9ddd311f610c5c23187552e3347b275b81b", "time": 1231913658, "bits": 486604799, "next_block": ["000000003255163ea0bf1f01d5f559727ae71685d261baca156e2cd3c6e9e0f2"], "fee": 0, "nonce": 65314788, "n_tx": 1, "size": 216, "block_index": 417, "main_chain": true, "height": 417, "weight": 864, "tx": [{"hash": "193b51cd0c5a44bf6593e69fea91e9ddd311f610c5c23187552e3347b275b81b", "ver": 1, "vin_sz": 1, "vout_sz": 1, "size": 135, "weight": 540, "fee": 0, "relayed_by": "0.0.0.0", "lock_time": 0, "tx_index": 975330001610341, "double_spend": false, "time": 1231913658, "block_index": 417, "block_height": 417, "inputs": [{"sequence": 4294967295, "witness": "", "script": "04ffff001d028400", "index": 0, "prev_out": null}], "out": [{"type": 0, "spent": true, "value": 5000000000, "spending_outpoints": [{"tx_index": 8533851111427933, "n": 1}], "n": 0, "tx_index": 975330001610341, "script": "4104bdd1fc7fd5a9d3850a1c149f3fb1cd69b98c1496375abe2ac000e5ee76e8f209f7205950b014541a3fbafbe92158df4dd36df917ec93f79c64ed3485b0c8b57aac", "addr": "1ELmSkQWnqgbBZNzxAZHts3MEYCngqRBeD"}], "hex": "01000000010000000000000000000000000000000000000000000000000000000000000000ffffffff0804ffff001d028400ffffffff0100f2052a01000000434104bdd1fc7fd5a9d3850a1c149f3fb1cd69b98c1496375abe2ac000e5ee76e8f209f7205950b014541a3fbafbe92158df4dd36df917ec93f79c64ed3485b0c8b57aac00000000"}]}