{"hash": "000000003255163ea0bf1f01d5f559727ae71685d261baca156e2cd3c6e9e0f2", "ver": 1, "prev_block": "00000000f334596d5afdb4b5ee5fb6974718f1d94160e57a10c4db598144b808", "mrkl_root": "6bff10c43dcc68b5e19eb6da2d57a2237cabe57d0b54f7a1253218d58dcc4664", "time": 1231914025, "bits": 486604799, "next_block": ["0000000022d4d7a47758faf2674bf884b08cb54400d62d1736978895ca20914f"], "fee": 0, "nonce": 4116767233, "n_tx": 1, "size": 216, "block_index": 418, "main_chain": true, "height": 418, "weight": 864, "tx": [{"hash": "6bff10c43dcc68b5e19eb6da2d57a2237cabe57d0b54f7a1253218d58dcc4664", "ver": 1, "vin_sz": 1, "vout_sz": 1, "size": 135, "weight": 540, "fee": 0, "relayed_by": "0.0.0.0", "lock_time": 0, "tx_index": 3528167754736390, "double_spend": false, "time": 1231914025, "block_index": 418, "block_height": 418, "inputs": [{"sequence": 4294967295, "witness": "", "script": "04ffff001d02ec02", "index": 0, "prev_out": null}], "out": [{"type": 0, "spent": false, "value": 5000000000, "spending_outpoints": [], "n": 0, "tx_index": 3528167754736390, "script": "41042c01fef6da0e5b956787f9fe6a6c0d06b7db303682848af163b62b72b5297be39459f77e00d89523da2ce351a279b543eb3d2c3a56d13f4d7199c4566d5a1ae8ac", "addr": "1Pk9rU6g8uW1ju1e3vihitv9ub2CZCJ3zP"}], "hex": "01000000010000000000000000000000000000000000000000000000000000000000000000ffffffff0804ffff001d02ec02ffffffff0100f2052a010000004341042c01fef6da0e5b956787f9fe6a6c0d06b7db303682848af163b62b72b5297be39459f77e00d89523da2ce351a279b543eb3d2c3a56d13f4d7199c4566d5a1ae8ac00000000"}]}