{"hash": "0000000022d4d7a47758faf2674bf884b08cb54400d62d1736978895ca20914f", "ver": 1, "prev_block": "000000003255163ea0bf1f01d5f559727ae71685d261baca156e2cd3c6e9e0f2", "mrkl_root": "1744372990897f287c453bbfd79017fc88646e0c4a973093b953b34b731785cc", "time": 1231914168, "bits": 486604799, "next_block": ["000000006a906fbef861f23ce8ff5fae146675508fa5ec64817db5c81be04019"], "fee": 0, "nonce": 22447797, "n_tx": 1, "size": 215, "block_index": 419, "main_chain": true, "height": 419, "weight": 860, "tx": [{"hash": "1744372990897f287c453bbfd79017fc88646e0c4a973093b953b34b731785cc", "ver": 1, "vin_sz": 1, "vout_sz": 1, "size": 134, "weight": 536, "fee": 0, "relayed_by": "0.0.0.0", "lock_time": 0, "tx_index": 7195903876757098, "double_spend": false, "time": 1231914168, "block_index": 419, "block_height": 419, "inputs": [{"sequence": 4294967295, "witness": "", "script": "04ffff001d0146", "index": 0, "prev_out": null}], "out": [{"type": 0, "spent": true, "value": 5000000000, "spending_outpoints": [{"tx_index": 598655316620317, "n": 15}], "n": 0, "tx_index": 7195903876757098, "script": "4104a46ab1cb0e47d986699596a917bd162603dcdc7cfd19d2192e7c30b4a452705f246a84bc4ae90c3c55c8d546c03fcf9c4ab396b1be3614295f9702ed2381260aac", "addr": "19CkFSEiHB5UVah3fvZD17qk48m82TfAp8"}], "hex": "01000000010000000000000000000000000000000000000000000000000000000000000000ffffffff0704ffff001d0146ffffffff0100f2052a01000000434104a46ab1cb0e47d986699596a917bd162603dcdc7cfd19d2192e7c30b4a452705f246a84bc4ae90c3c55c8d546c03fcf9c4ab396b1be3614295f9702ed2381260aac00000000"}]}