{"hash": "00000000314e90489514c787d615cea50003af2023796ccdd085b6bcc1fa28f5", "ver": 1, "prev_block": "00000000ad2b48c7032b6d7d4f2e19e54d79b1c159f5599056492f2cd7bb528b", "mrkl_root": "27c4d937dca276fb2b61e579902e8a876fd5b5abc17590410ced02d5a9f8e483", "time": 1231609153, "bits": 486604799, "next_block": ["00000000ac21f2862aaab177fd3c5c8b395de842f84d88c9cf3420b2d393e550"], "fee": 0, "nonce": 3600650283, "n_tx": 1, "size": 215, "block_index": 42, "main_chain": true, "height": 42, "weight": 860, "tx": [{"hash": "27c4d937dca276fb2b61e579902e8a876fd5b5abc17590410ced02d5a9f8e483", "ver": 1, "vin_sz": 1, "vout_sz": 1, "size": 134, "weight": 536, "fee": 0, "relayed_by": "0.0.0.0", "lock_time": 0, "tx_index": 4640622325178461, "double_spend": false, "time": 1231609153, "block_index": 42, "block_height": 42, "inputs": [{"sequence": 4294967295, "witness": "", "script": "04ffff001d0115", "index": 0, "prev_out": null}], "out": [{"type": 0, "spent": false, "value": 5000000000, "spending_outpoints": [], "n": 0, "tx_index": 4640622325178461, "script": "4104462b00d67b254e4b10de6fe0b277b6a34f2438758fc5fc2c18c5b53e9352322b94d2be6ca5a2557ebf55905f7dc6cca699162b0faf919754b5ca369d31d0bb31ac", "addr": "1DnzNm7QC479kSydvzmgb16X2c5GwRVzs1"}], "hex": "01000000010000000000000000000000000000000000000000000000000000000000000000ffffffff0704ffff001d0115ffffffff0100f2052a01000000434104462b00d67b254e4b10de6fe0b277b6a34f2438758fc5fc2c18c5b53e9352322b94d2be6ca5a2557ebf55905f7dc6cca699162b0faf919754b5ca369d31d0bb31ac00000000"}]}