{"hash": "000000006a906fbef861f23ce8ff5fae146675508fa5ec64817db5c81be04019", "ver": 1, "prev_block": "0000000022d4d7a47758faf2674bf884b08cb54400d62d1736978895ca20914f", "mrkl_root": "8b32326c4ef9354f21658daf69e03deaae5b7c1109f6feb9fcb26b7bb5226851", "time": 1231914994, "bits": 486604799, "next_block": ["00000000ae162df19a3451cefa33bc09a4a91b53e9bf103d57386158b798c71a"], "fee": 0, "nonce": 3506976020, "n_tx": 1, "size": 216, "block_index": 420, "main_chain": true, "height": 420, "weight": 864, "tx": [{"hash": "8b32326c4ef9354f21658daf69e03deaae5b7c1109f6feb9fcb26b7bb5226851", "ver": 1, "vin_sz": 1, "vout_sz": 1, "size": 135, "weight": 540, "fee": 0, "relayed_by": "0.0.0.0", "lock_time": 0, "tx_index": 2864246424563062, "double_spend": false, "time": 1231914994, "block_index": 420, "block_height": 420, "inputs": [{"sequence": 4294967295, "witness": "", "script": "04ffff001d02ed02", "index": 0, "prev_out": null}], "out": [{"type": 0, "spent": false, "value": 5000000000, "spending_outpoints": [], "n": 0, "tx_index": 2864246424563062, "script": "4104ba026e7085858b28d89e98e057df8843ba523eea479d169a8a70a3ead32c2a9f85d7bc0dfa318739c29c1d2dfea94c531d86653d37fb3c06b598a983d19e63c2ac", "addr": "1GFecY3imCXRrEKaR1CwVabKr2RQ8hopSU"}], "hex": "01000000010000000000000000000000000000000000000000000000000000000000000000ffffffff0804ffff001d02ed02ffffffff0100f2052a01000000434104ba026e7085858b28d89e98e057df8843ba523eea479d169a8a70a3ead32c2a9f85d7bc0dfa318739c29c1d2dfea94c531d86653d37fb3c06b598a983d19e63c2ac00000000"}]}