{"hash": "00000000ae162df19a3451cefa33bc09a4a91b53e9bf103d57386158b798c71a", "ver": 1, "prev_block": "000000006a906fbef861f23ce8ff5fae146675508fa5ec64817db5c81be04019", "mrkl_root": "9534526df583cf138e928ac6abab7a5b756eb7b9f143b2763c635db600626bed", "time": 1231915415, "bits": 486604799, "next_block": ["00000000e5712502949a46acaddb05b85428ea87f6756c67f6e99d4ee8ecb274"], "fee": 0, "nonce": 120767577, "n_tx": 1, "size": 215, "block_index": 421, "main_chain": true, "height": 421, "weight": 860, "tx": [{"hash": "9534526df583cf138e928ac6abab7a5b756eb7b9f143b2763c635db600626bed", "ver": 1, "vin_sz": 1, "vout_sz": 1, "size": 134, "weight": 536, "fee": 0, "relayed_by": "0.0.0.0", "lock_time": 0, "tx_index": 8353454767917996, "double_spend": false, "time": 1231915415, "block_index": 421, "block_height": 421, "inputs": [{"sequence": 4294967295, "witness": "", "script": "04ffff001d012b", "index": 0, "prev_out": null}], "out": [{"type": 0, "spent": false, "value": 5000000000, "spending_outpoints": [], "n": 0, "tx_index": 8353454767917996, "script": "4104c60c7b517ea9af71acdbb91123c646fc99dd6d21c5b3e9381a9619645a3a7ced3dde093a962862fce41dc86267606decc0aad3e53a25d64341182dfdcb8ac697ac", "addr": "1LWsDG5tyyRrKg7a8YvmACD34ovxX514aA"}], "hex": "01000000010000000000000000000000000000000000000000000000000000000000000000ffffffff0704ffff001d012bffffffff0100f2052a01000000434104c60c7b517ea9af71acdbb91123c646fc99dd6d21c5b3e9381a9619645a3a7ced3dde093a962862fce41dc86267606decc0aad3e53a25d64341182dfdcb8ac697ac00000000"}]}