{"hash": "00000000e5712502949a46acaddb05b85428ea87f6756c67f6e99d4ee8ecb274", "ver": 1, "prev_block": "00000000ae162df19a3451cefa33bc09a4a91b53e9bf103d57386158b798c71a", "mrkl_root": "28b48a417b03e297982e310534950cd2c82e67703cd0040855df9b7902ea2689", "time": 1231915840, "bits": 486604799, "next_block": ["0000000002dbc4c9438932dd99fc1ccc00868af1a864f4ec41766edd3fdad38a"], "fee": 0, "nonce": 3852415008, "n_tx": 1, "size": 216, "block_index": 422, "main_chain": true, "height": 422, "weight": 864, "tx": [{"hash": "28b48a417b03e297982e310534950cd2c82e67703cd0040855df9b7902ea2689", "ver": 1, "vin_sz": 1, "vout_sz": 1, "size": 135, "weight": 540, "fee": 0, "relayed_by": "0.0.0.0", "lock_time": 0, "tx_index": 4825607289385851, "double_spend": false, "time": 1231915840, "block_index": 422, "block_height": 422, "inputs": [{"sequence": 4294967295, "witness": "", "script": "04ffff001d02ee02", "index": 0, "prev_out": null}], "out": [{"type": 0, "spent": false, "value": 5000000000, "spending_outpoints": [], "n": 0, "tx_index": 4825607289385851, "script": "410430b0a863d6f4bcc7825cfa723507a692f7462e4e5cb06c95903c958a10003f90252eef30cb527598267df1116ee3886f61e9b095d2f47f66e8d4d3212b8dab63ac", "addr": "17JBzrMFh3fEjLPzhJtTgf2K22suf1NZiu"}], "hex": "01000000010000000000000000000000000000000000000000000000000000000000000000ffffffff0804ffff001d02ee02ffffffff0100f2052a0100000043410430b0a863d6f4bcc7825cfa723507a692f7462e4e5cb06c95903c958a10003f90252eef30cb527598267df1116ee3886f61e9b095d2f47f66e8d4d3212b8dab63ac00000000"}]}