{"hash": "0000000002dbc4c9438932dd99fc1ccc00868af1a864f4ec41766edd3fdad38a", "ver": 1, "prev_block": "00000000e5712502949a46acaddb05b85428ea87f6756c67f6e99d4ee8ecb274", "mrkl_root": "c46f7272714cc9b84d99795871b3a40e04fe0fcbca4ca1cc890c1724df965252", "time": 1231916533, "bits": 486604799, "next_block": ["00000000fbeefb043c0f27fc4a978e6a3600e90bed2f4c2de756c2a1c65cf544"], "fee": 0, "nonce": 1415531301, "n_tx": 1, "size": 216, "block_index": 423, "main_chain": true, "height": 423, "weight": 864, "tx": [{"hash": "c46f7272714cc9b84d99795871b3a40e04fe0fcbca4ca1cc890c1724df965252", "ver": 1, "vin_sz": 1, "vout_sz": 1, "size": 135, "weight": 540, "fee": 0, "relayed_by": "0.0.0.0", "lock_time": 0, "tx_index": 2896469504066273, "double_spend": false, "time": 1231916533, "block_index": 423, "block_height": 423, "inputs": [{"sequence": 4294967295, "witness": "", "script": "04ffff001d02f802", "index": 0, "prev_out": null}], "out": [{"type": 0, "spent": false, "value": 5000000000, "spending_outpoints": [], "n": 0, "tx_index": 2896469504066273, "script": "410465a8888630c7d6e5e3862d0fb7d74b00f67c28737b46a587cbc15b3fc3d28fd021af499e0f1bc4b0af408861aebf92566668b6d2c0c4966c26d6ef90e309a562ac", "addr": "17rHN3JsYCe6s4pDhMJdTRaFWMVnjg9MqX"}], "hex": "01000000010000000000000000000000000000000000000000000000000000000000000000ffffffff0804ffff001d02f802ffffffff0100f2052a0100000043410465a8888630c7d6e5e3862d0fb7d74b00f67c28737b46a587cbc15b3fc3d28fd021af499e0f1bc4b0af408861aebf92566668b6d2c0c4966c26d6ef90e309a562ac00000000"}]}