{"hash": "00000000fbeefb043c0f27fc4a978e6a3600e90bed2f4c2de756c2a1c65cf544", "ver": 1, "prev_block": "0000000002dbc4c9438932dd99fc1ccc00868af1a864f4ec41766edd3fdad38a", "mrkl_root": "614b9dc455514ddc167bac5c089e0e17c49f310c8f58c051816b499049ee9f32", "time": 1231917703, "bits": 486604799, "next_block": ["0000000031c97dfb51b823efe75ee7917133bbfc610b0ffa07d21d52006b83e6"], "fee": 0, "nonce": 908706075, "n_tx": 1, "size": 216, "block_index": 424, "main_chain": true, "height": 424, "weight": 864, "tx": [{"hash": "614b9dc455514ddc167bac5c089e0e17c49f310c8f58c051816b499049ee9f32", "ver": 1, "vin_sz": 1, "vout_sz": 1, "size": 135, "weight": 540, "fee": 0, "relayed_by": "0.0.0.0", "lock_time": 0, "tx_index": 1781199327594797, "double_spend": false, "time": 1231917703, "block_index": 424, "block_height": 424, "inputs": [{"sequence": 4294967295, "witness": "", "script": "04ffff001d02fb02", "index": 0, "prev_out": null}], "out": [{"type": 0, "spent": false, "value": 5000000000, "spending_outpoints": [], "n": 0, "tx_index": 1781199327594797, "script": "41047979d508ecdff33d45167577b2aef43727bd5d1bc01c10596e9831deda61fb32ef0d2a639a4d97e2655fb04bb55a153066ae5f34f44db5a9ed06c2ad9cf5cd76ac", "addr": "1237uX8Br59pNQYQFC2TNJZELRedPRHv2d"}], "hex": "01000000010000000000000000000000000000000000000000000000000000000000000000ffffffff0804ffff001d02fb02ffffffff0100f2052a010000004341047979d508ecdff33d45167577b2aef43727bd5d1bc01c10596e9831deda61fb32ef0d2a639a4d97e2655fb04bb55a153066ae5f34f44db5a9ed06c2ad9cf5cd76ac00000000"}]}