{"hash": "0000000031c97dfb51b823efe75ee7917133bbfc610b0ffa07d21d52006b83e6", "ver": 1, "prev_block": "00000000fbeefb043c0f27fc4a978e6a3600e90bed2f4c2de756c2a1c65cf544", "mrkl_root": "453a04de93a860a6ef92634f57bc44cf20772f720255b1294e29874bfe0555ea", "time": 1231918065, "bits": 486604799, "next_block": ["0000000065bda4f8ed6ea6070ce861d1388d7375d6060e6113fd574a88173710"], "fee": 0, "nonce": 730033416, "n_tx": 1, "size": 216, "block_index": 425, "main_chain": true, "height": 425, "weight": 864, "tx": [{"hash": "453a04de93a860a6ef92634f57bc44cf20772f720255b1294e29874bfe0555ea", "ver": 1, "vin_sz": 1, "vout_sz": 1, "size": 135, "weight": 540, "fee": 0, "relayed_by": "0.0.0.0", "lock_time": 0, "tx_index": 8244828597481701, "double_spend": false, "time": 1231918065, "block_index": 425, "block_height": 425, "inputs": [{"sequence": 4294967295, "witness": "", "script": "04ffff001d02ff02", "index": 0, "prev_out": null}], "out": [{"type": 0, "spent": false, "value": 5000000000, "spending_outpoints": [], "n": 0, "tx_index": 8244828597481701, "script": "410482e36821f4849a771692157531ecc4913830e2cb79c89689c40de2fd99da20c55b80b262726afa9a437293bf8d84b28304b7fd7e5169f7809193add8446f1f76ac", "addr": "1MXBQDME7F5wpi64C5fsy2uV741R4VXSwL"}], "hex": "01000000010000000000000000000000000000000000000000000000000000000000000000ffffffff0804ffff001d02ff02ffffffff0100f2052a0100000043410482e36821f4849a771692157531ecc4913830e2cb79c89689c40de2fd99da20c55b80b262726afa9a437293bf8d84b28304b7fd7e5169f7809193add8446f1f76ac00000000"}]}