{"hash": "0000000065bda4f8ed6ea6070ce861d1388d7375d6060e6113fd574a88173710", "ver": 1, "prev_block": "0000000031c97dfb51b823efe75ee7917133bbfc610b0ffa07d21d52006b83e6", "mrkl_root": "c1f36c4a5668f1037a23a9730d645f850b357ed1472a798659cac30b07521be6", "time": 1231919092, "bits": 486604799, "next_block": ["00000000d3f81421d484c4d27f2c3c31a82f33850eb483926f8e0297070f5de3"], "fee": 0, "nonce": 754629936, "n_tx": 1, "size": 216, "block_index": 426, "main_chain": true, "height": 426, "weight": 864, "tx": [{"hash": "c1f36c4a5668f1037a23a9730d645f850b357ed1472a798659cac30b07521be6", "ver": 1, "vin_sz": 1, "vout_sz": 1, "size": 135, "weight": 540, "fee": 0, "relayed_by": "0.0.0.0", "lock_time": 0, "tx_index": 8096160470366329, "double_spend": false, "time": 1231919092, "block_index": 426, "block_height": 426, "inputs": [{"sequence": 4294967295, "witness": "", "script": "04ffff001d020503", "index": 0, "prev_out": null}], "out": [{"type": 0, "spent": false, "value": 5000000000, "spending_outpoints": [], "n": 0, "tx_index": 8096160470366329, "script": "4104c4780921b6abaf6b4e856c4fe47da90b1036ea0f678ed781452f5b10abc18c2526a1fd2ed19ac1316cd03e744c3ff86910295311d2082e30b8a14c1a1c47d2c1ac", "addr": "1BHFnnytRmeRUSrXBYMwFBfmmjFJfLq23b"}], "hex": "01000000010000000000000000000000000000000000000000000000000000000000000000ffffffff0804ffff001d020503ffffffff0100f2052a01000000434104c4780921b6abaf6b4e856c4fe47da90b1036ea0f678ed781452f5b10abc18c2526a1fd2ed19ac1316cd03e744c3ff86910295311d2082e30b8a14c1a1c47d2c1ac00000000"}]}