{"hash": "00000000d3f81421d484c4d27f2c3c31a82f33850eb483926f8e0297070f5de3", "ver": 1, "prev_block": "0000000065bda4f8ed6ea6070ce861d1388d7375d6060e6113fd574a88173710", "mrkl_root": "a28f94fcede8dc3ff5c755d86598e2680b377a772c25049fc62f87684d310e91", "time": 1231920354, "bits": 486604799, "next_block": ["00000000ee39e13fe7c693ada69c543501a6dabd5ef2f72d56a43c1e906f795f"], "fee": 0, "nonce": 2390335525, "n_tx": 1, "size": 216, "block_index": 427, "main_chain": true, "height": 427, "weight": 864, "tx": [{"hash": "a28f94fcede8dc3ff5c755d86598e2680b377a772c25049fc62f87684d310e91", "ver": 1, "vin_sz": 1, "vout_sz": 1, "size": 135, "weight": 540, "fee": 0, "relayed_by": "0.0.0.0", "lock_time": 0, "tx_index": 5103684567240933, "double_spend": false, "time": 1231920354, "block_index": 427, "block_height": 427, "inputs": [{"sequence": 4294967295, "witness": "", "script": "04ffff001d021903", "index": 0, "prev_out": null}], "out": [{"type": 0, "spent": false, "value": 5000000000, "spending_outpoints": [], "n": 0, "tx_index": 5103684567240933, "script": "41049541f5b16e86e6791e2d4321e4801471680ed7bfadc266c6db95760dc637df958dc9926e9fe03a185dc284cf72ee35d1d4287376b2e1c56017b1714e3f492a8aac", "addr": "1FLtWAxjubjMwZUTvjXbJWAzR5DTHeqNY5"}], "hex": "01000000010000000000000000000000000000000000000000000000000000000000000000ffffffff0804ffff001d021903ffffffff0100f2052a010000004341049541f5b16e86e6791e2d4321e4801471680ed7bfadc266c6db95760dc637df958dc9926e9fe03a185dc284cf72ee35d1d4287376b2e1c56017b1714e3f492a8aac00000000"}]}