{"hash": "00000000ee39e13fe7c693ada69c543501a6dabd5ef2f72d56a43c1e906f795f", "ver": 1, "prev_block": "00000000d3f81421d484c4d27f2c3c31a82f33850eb483926f8e0297070f5de3", "mrkl_root": "b4afa9db78f78a058378583af3d5d58c054f9550e59e0409283578049ac9e5eb", "time": 1231920924, "bits": 486604799, "next_block": ["000000008e5da1aa58d17da1bbc95e9b032714e7ea7831e82f2830bf97dc38e7"], "fee": 0, "nonce": 897864745, "n_tx": 1, "size": 216, "block_index": 428, "main_chain": true, "height": 428, "weight": 864, "tx": [{"hash": "b4afa9db78f78a058378583af3d5d58c054f9550e59e0409283578049ac9e5eb", "ver": 1, "vin_sz": 1, "vout_sz": 1, "size": 135, "weight": 540, "fee": 0, "relayed_by": "0.0.0.0", "lock_time": 0, "tx_index": 8299909195271942, "double_spend": false, "time": 1231920924, "block_index": 428, "block_height": 428, "inputs": [{"sequence": 4294967295, "witness": "", "script": "04ffff001d022703", "index": 0, "prev_out": null}], "out": [{"type": 0, "spent": false, "value": 5000000000, "spending_outpoints": [], "n": 0, "tx_index": 8299909195271942, "script": "41046165eacbc51d1b690114b42a66cbe8207836de8ce404d665ec01b1eda43fdefcc395370998881378f0098a484add6e25647ce1e671c298425f06c1f7d0749476ac", "addr": "1Bqp4myRKwUpdLNGEfbkpgTSmWPksuRrJy"}], "hex": "01000000010000000000000000000000000000000000000000000000000000000000000000ffffffff0804ffff001d022703ffffffff0100f2052a010000004341046165eacbc51d1b690114b42a66cbe8207836de8ce404d665ec01b1eda43fdefcc395370998881378f0098a484add6e25647ce1e671c298425f06c1f7d0749476ac00000000"}]}