{"hash": "000000008e5da1aa58d17da1bbc95e9b032714e7ea7831e82f2830bf97dc38e7", "ver": 1, "prev_block": "00000000ee39e13fe7c693ada69c543501a6dabd5ef2f72d56a43c1e906f795f", "mrkl_root": "d4742a2b7d439bdcf69b447f21b1eb7d5a4fe7d4581fbbb7374fb435e1360808", "time": 1231922041, "bits": 486604799, "next_block": ["00000000f57b8d9a6585b22868e8729515a4ce7c466a4b8713317a90fefdcd59"], "fee": 0, "nonce": 1675013635, "n_tx": 1, "size": 216, "block_index": 429, "main_chain": true, "height": 429, "weight": 864, "tx": [{"hash": "d4742a2b7d439bdcf69b447f21b1eb7d5a4fe7d4581fbbb7374fb435e1360808", "ver": 1, "vin_sz": 1, "vout_sz": 1, "size": 135, "weight": 540, "fee": 0, "relayed_by": "0.0.0.0", "lock_time": 0, "tx_index": 282603951666825, "double_spend": false, "time": 1231922041, "block_index": 429, "block_height": 429, "inputs": [{"sequence": 4294967295, "witness": "", "script": "04ffff001d023403", "index": 0, "prev_out": null}], "out": [{"type": 0, "spent": false, "value": 5000000000, "spending_outpoints": [], "n": 0, "tx_index": 282603951666825, "script": "410445f05d741aa05fd580ba8483cfaa7d4d6b3ae48082e386e685c9ec027d3eedab195d95a32daa7acad29831c6bfc02f5ce30a20e94aeab3f118f53ccf1cd68e94ac", "addr": "13mXNtthQ8WDrNLBCrXDFjMet3qNR6ju6r"}], "hex": "01000000010000000000000000000000000000000000000000000000000000000000000000ffffffff0804ffff001d023403ffffffff0100f2052a0100000043410445f05d741aa05fd580ba8483cfaa7d4d6b3ae48082e386e685c9ec027d3eedab195d95a32daa7acad29831c6bfc02f5ce30a20e94aeab3f118f53ccf1cd68e94ac00000000"}]}