{"hash": "00000000ac21f2862aaab177fd3c5c8b395de842f84d88c9cf3420b2d393e550", "ver": 1, "prev_block": "00000000314e90489514c787d615cea50003af2023796ccdd085b6bcc1fa28f5", "mrkl_root": "2f5c03ce19e9a855ac93087a1b68fe6592bcf4bd7cbb9c1ef264d886a785894e", "time": 1231609477, "bits": 486604799, "next_block": ["000000002978eecde8d020f7f057083bc990002fff495121d7dc1c26d00c00f8"], "fee": 0, "nonce": 2093702200, "n_tx": 1, "size": 215, "block_index": 43, "main_chain": true, "height": 43, "weight": 860, "tx": [{"hash": "2f5c03ce19e9a855ac93087a1b68fe6592bcf4bd7cbb9c1ef264d886a785894e", "ver": 1, "vin_sz": 1, "vout_sz": 1, "size": 134, "weight": 536, "fee": 0, "relayed_by": "0.0.0.0", "lock_time": 0, "tx_index": 2763281914714892, "double_spend": false, "time": 1231609477, "block_index": 43, "block_height": 43, "inputs": [{"sequence": 4294967295, "witness": "", "script": "04ffff001d0116", "index": 0, "prev_out": null}], "out": [{"type": 0, "spent": false, "value": 5000000000, "spending_outpoints": [], "n": 0, "tx_index": 2763281914714892, "script": "410492ade9a7a1fde25016c02d223e2f1c501d2af11b492e0a3f0cd617a01798c5f5eabd9d5957a7b2d66d1b42f688a6fd5d2bc60ad0d7a00f6006fc4838fb4c248aac", "addr": "1Bhq4Uz1Cg8vZLWy5uT3X3Ea3XDSNvkvCM"}], "hex": "01000000010000000000000000000000000000000000000000000000000000000000000000ffffffff0704ffff001d0116ffffffff0100f2052a0100000043410492ade9a7a1fde25016c02d223e2f1c501d2af11b492e0a3f0cd617a01798c5f5eabd9d5957a7b2d66d1b42f688a6fd5d2bc60ad0d7a00f6006fc4838fb4c248aac00000000"}]}