{"hash": "00000000f57b8d9a6585b22868e8729515a4ce7c466a4b8713317a90fefdcd59", "ver": 1, "prev_block": "000000008e5da1aa58d17da1bbc95e9b032714e7ea7831e82f2830bf97dc38e7", "mrkl_root": "9bd57fd34e6fb575b09572d9801a2239d95d2608010ece2c8a2abf661a72fde4", "time": 1231922852, "bits": 486604799, "next_block": ["000000001e9722b33a88ee9a0d17b921361aa499cfa545c60ba629ee82bba42a"], "fee": 0, "nonce": 1793756711, "n_tx": 1, "size": 216, "block_index": 430, "main_chain": true, "height": 430, "weight": 864, "tx": [{"hash": "9bd57fd34e6fb575b09572d9801a2239d95d2608010ece2c8a2abf661a72fde4", "ver": 1, "vin_sz": 1, "vout_sz": 1, "size": 135, "weight": 540, "fee": 0, "relayed_by": "0.0.0.0", "lock_time": 0, "tx_index": 8056870150133733, "double_spend": false, "time": 1231922852, "block_index": 430, "block_height": 430, "inputs": [{"sequence": 4294967295, "witness": "", "script": "04ffff001d023603", "index": 0, "prev_out": null}], "out": [{"type": 0, "spent": false, "value": 5000000000, "spending_outpoints": [], "n": 0, "tx_index": 8056870150133733, "script": "410441e28a4c6c3e61991086b8475cb6a1bc2ed5cf1ad9f2370ef88f236ae1886bc9e8dcd8f87c3c171c8a9aedaa48020be4a3580146479ad854fbb8b8e4c2bef7e1ac", "addr": "1H1oY6WiGDs8QAzDRPzJJSp5QcXYZz9seK"}], "hex": "01000000010000000000000000000000000000000000000000000000000000000000000000ffffffff0804ffff001d023603ffffffff0100f2052a0100000043410441e28a4c6c3e61991086b8475cb6a1bc2ed5cf1ad9f2370ef88f236ae1886bc9e8dcd8f87c3c171c8a9aedaa48020be4a3580146479ad854fbb8b8e4c2bef7e1ac00000000"}]}