{"hash": "000000001e9722b33a88ee9a0d17b921361aa499cfa545c60ba629ee82bba42a", "ver": 1, "prev_block": "00000000f57b8d9a6585b22868e8729515a4ce7c466a4b8713317a90fefdcd59", "mrkl_root": "b6c967d8f3a3d5fe859a12e9f385531655c2c457326845065fc3942da9e19920", "time": 1231923141, "bits": 486604799, "next_block": ["00000000fa6066998c588e2c3933e036ed64907a65ec593fd8ab37316fed0e8f"], "fee": 0, "nonce": 26951791, "n_tx": 1, "size": 216, "block_index": 431, "main_chain": true, "height": 431, "weight": 864, "tx": [{"hash": "b6c967d8f3a3d5fe859a12e9f385531655c2c457326845065fc3942da9e19920", "ver": 1, "vin_sz": 1, "vout_sz": 1, "size": 135, "weight": 540, "fee": 0, "relayed_by": "0.0.0.0", "lock_time": 0, "tx_index": 1147049217471128, "double_spend": false, "time": 1231923141, "block_index": 431, "block_height": 431, "inputs": [{"sequence": 4294967295, "witness": "", "script": "04ffff001d029200", "index": 0, "prev_out": null}], "out": [{"type": 0, "spent": true, "value": 5000000000, "spending_outpoints": [{"tx_index": 8533851111427933, "n": 2}], "n": 0, "tx_index": 1147049217471128, "script": "4104c6bde3eeded1fec8fad5d40da09ddaa16dca5d02089a97f90b8f02deb92f482d229a8f66e8a91c7cf0ecc7b3d10762ec2784100719aeff0296dc987142d39e57ac", "addr": "1ADpf5rHERc2PmVAZZFoH7WbougKvkPDVD"}], "hex": "01000000010000000000000000000000000000000000000000000000000000000000000000ffffffff0804ffff001d029200ffffffff0100f2052a01000000434104c6bde3eeded1fec8fad5d40da09ddaa16dca5d02089a97f90b8f02deb92f482d229a8f66e8a91c7cf0ecc7b3d10762ec2784100719aeff0296dc987142d39e57ac00000000"}]}