{"hash": "00000000fa6066998c588e2c3933e036ed64907a65ec593fd8ab37316fed0e8f", "ver": 1, "prev_block": "000000001e9722b33a88ee9a0d17b921361aa499cfa545c60ba629ee82bba42a", "mrkl_root": "0691617b74805f5ed8b035632972e8ec8871c0a001df458ed38f5f1d16865e26", "time": 1231923277, "bits": 486604799, "next_block": ["000000005f1a9e236f32bcfbdb8ccd951e120858070d459d048ccf9577c462fd"], "fee": 0, "nonce": 1733048602, "n_tx": 1, "size": 216, "block_index": 432, "main_chain": true, "height": 432, "weight": 864, "tx": [{"hash": "0691617b74805f5ed8b035632972e8ec8871c0a001df458ed38f5f1d16865e26", "ver": 1, "vin_sz": 1, "vout_sz": 1, "size": 135, "weight": 540, "fee": 0, "relayed_by": "0.0.0.0", "lock_time": 0, "tx_index": 1349997388082161, "double_spend": false, "time": 1231923277, "block_index": 432, "block_height": 432, "inputs": [{"sequence": 4294967295, "witness": "", "script": "04ffff001d023f03", "index": 0, "prev_out": null}], "out": [{"type": 0, "spent": false, "value": 5000000000, "spending_outpoints": [], "n": 0, "tx_index": 1349997388082161, "script": "4104933b69bedccc7a60bc335c88c09db286e394f13a50a81650009163db81e662090fb8893e4b2b60be44092bd924bee555c0cde31958f25802a88dd31cd50f50cfac", "addr": "1GwVQQemy2L53JHK18Me3s1vX8AhWCNpMD"}], "hex": "01000000010000000000000000000000000000000000000000000000000000000000000000ffffffff0804ffff001d023f03ffffffff0100f2052a01000000434104933b69bedccc7a60bc335c88c09db286e394f13a50a81650009163db81e662090fb8893e4b2b60be44092bd924bee555c0cde31958f25802a88dd31cd50f50cfac00000000"}]}