{"hash": "000000005f1a9e236f32bcfbdb8ccd951e120858070d459d048ccf9577c462fd", "ver": 1, "prev_block": "00000000fa6066998c588e2c3933e036ed64907a65ec593fd8ab37316fed0e8f", "mrkl_root": "a94ce7bdfc2204c25fbeae8a66a82d6cf5a276f295c9995820f4621c8587022e", "time": 1231924258, "bits": 486604799, "next_block": ["00000000f102043c1c58e47b6e91e6804f7ae356fed25c456c6f8359e737da6d"], "fee": 0, "nonce": 280531905, "n_tx": 1, "size": 215, "block_index": 433, "main_chain": true, "height": 433, "weight": 860, "tx": [{"hash": "a94ce7bdfc2204c25fbeae8a66a82d6cf5a276f295c9995820f4621c8587022e", "ver": 1, "vin_sz": 1, "vout_sz": 1, "size": 134, "weight": 536, "fee": 0, "relayed_by": "0.0.0.0", "lock_time": 0, "tx_index": 1618828750720094, "double_spend": false, "time": 1231924258, "block_index": 433, "block_height": 433, "inputs": [{"sequence": 4294967295, "witness": "", "script": "04ffff001d0130", "index": 0, "prev_out": null}], "out": [{"type": 0, "spent": true, "value": 5000000000, "spending_outpoints": [{"tx_index": 4827611041530371, "n": 1}], "n": 0, "tx_index": 1618828750720094, "script": "41045c40fab087d4d4d18adad3245e48ad33a323d95fa9691e0fc0de57e653b0b586fb8d7c7efac178647087c6769cb3236bd9db43e1d7ca43b08d3021c4164aec9bac", "addr": "1ajo3LNjjNWK7GMJwa71tcR3Mk6roeaS9"}], "hex": "01000000010000000000000000000000000000000000000000000000000000000000000000ffffffff0704ffff001d0130ffffffff0100f2052a010000004341045c40fab087d4d4d18adad3245e48ad33a323d95fa9691e0fc0de57e653b0b586fb8d7c7efac178647087c6769cb3236bd9db43e1d7ca43b08d3021c4164aec9bac00000000"}]}