{"hash": "00000000f102043c1c58e47b6e91e6804f7ae356fed25c456c6f8359e737da6d", "ver": 1, "prev_block": "000000005f1a9e236f32bcfbdb8ccd951e120858070d459d048ccf9577c462fd", "mrkl_root": "2c84f9d7ace7f1a0b635226a0c2954ecf89cbaf5743f188f69b90082730293af", "time": 1231924394, "bits": 486604799, "next_block": ["00000000d3c23d217f8c90d7a7dc037e71cd425a2fd1f4184b97a96f45b8b52c"], "fee": 0, "nonce": 3180905505, "n_tx": 1, "size": 216, "block_index": 434, "main_chain": true, "height": 434, "weight": 864, "tx": [{"hash": "2c84f9d7ace7f1a0b635226a0c2954ecf89cbaf5743f188f69b90082730293af", "ver": 1, "vin_sz": 1, "vout_sz": 1, "size": 135, "weight": 540, "fee": 0, "relayed_by": "0.0.0.0", "lock_time": 0, "tx_index": 6177469957685271, "double_spend": false, "time": 1231924394, "block_index": 434, "block_height": 434, "inputs": [{"sequence": 4294967295, "witness": "", "script": "04ffff001d024f03", "index": 0, "prev_out": null}], "out": [{"type": 0, "spent": false, "value": 5000000000, "spending_outpoints": [], "n": 0, "tx_index": 6177469957685271, "script": "41045962c18863fac5c9410fff5d06b12e3c7b23fa8d83d58c810690d84856c60b886adb413bfa14c1911091aef713b0bb4849f458718bfd89914c8774e1657f0deeac", "addr": "1ASLqMDNCacKkLqPi8FzMZqAY3bhw31fu9"}], "hex": "01000000010000000000000000000000000000000000000000000000000000000000000000ffffffff0804ffff001d024f03ffffffff0100f2052a010000004341045962c18863fac5c9410fff5d06b12e3c7b23fa8d83d58c810690d84856c60b886adb413bfa14c1911091aef713b0bb4849f458718bfd89914c8774e1657f0deeac00000000"}]}