{"hash": "00000000d3c23d217f8c90d7a7dc037e71cd425a2fd1f4184b97a96f45b8b52c", "ver": 1, "prev_block": "00000000f102043c1c58e47b6e91e6804f7ae356fed25c456c6f8359e737da6d", "mrkl_root": "fd0e8bcfdb6deeca808864c6531e172a777ba0beb10a23265b1b2db089415089", "time": 1231925298, "bits": 486604799, "next_block": ["000000007f7ce860da89da06f2c78d489a21d61557bf89549d016afcb6c31d54"], "fee": 0, "nonce": 2988810291, "n_tx": 1, "size": 216, "block_index": 435, "main_chain": true, "height": 435, "weight": 864, "tx": [{"hash": "fd0e8bcfdb6deeca808864c6531e172a777ba0beb10a23265b1b2db089415089", "ver": 1, "vin_sz": 1, "vout_sz": 1, "size": 135, "weight": 540, "fee": 0, "relayed_by": "0.0.0.0", "lock_time": 0, "tx_index": 4831289277810083, "double_spend": false, "time": 1231925298, "block_index": 435, "block_height": 435, "inputs": [{"sequence": 4294967295, "witness": "", "script": "04ffff001d025903", "index": 0, "prev_out": null}], "out": [{"type": 0, "spent": false, "value": 5000000000, "spending_outpoints": [], "n": 0, "tx_index": 4831289277810083, "script": "4104cae86f2b9c8bb385a5232fe1fbf3c48304f10e36eb68d9b24afb720317acfd620b04c44b5f455ed61eb9fd0bdb3a923e858b9a24fe3a17399adf288b4c6a61c2ac", "addr": "16DmFboHW7n1v1tryVW6iwbysri4EjoP2A"}], "hex": "01000000010000000000000000000000000000000000000000000000000000000000000000ffffffff0804ffff001d025903ffffffff0100f2052a01000000434104cae86f2b9c8bb385a5232fe1fbf3c48304f10e36eb68d9b24afb720317acfd620b04c44b5f455ed61eb9fd0bdb3a923e858b9a24fe3a17399adf288b4c6a61c2ac00000000"}]}