{"hash": "000000007f7ce860da89da06f2c78d489a21d61557bf89549d016afcb6c31d54", "ver": 1, "prev_block": "00000000d3c23d217f8c90d7a7dc037e71cd425a2fd1f4184b97a96f45b8b52c", "mrkl_root": "4f70d8fc8f818d29ea962626192f4a7a09a114ce7806db4a3388cf63b7d8cb90", "time": 1231926247, "bits": 486604799, "next_block": ["0000000058f437720be706c70fd716ceb07110ea74402c9921b093815ad685d7"], "fee": 0, "nonce": 2468274987, "n_tx": 1, "size": 216, "block_index": 436, "main_chain": true, "height": 436, "weight": 864, "tx": [{"hash": "4f70d8fc8f818d29ea962626192f4a7a09a114ce7806db4a3388cf63b7d8cb90", "ver": 1, "vin_sz": 1, "vout_sz": 1, "size": 135, "weight": 540, "fee": 0, "relayed_by": "0.0.0.0", "lock_time": 0, "tx_index": 5094566037060081, "double_spend": false, "time": 1231926247, "block_index": 436, "block_height": 436, "inputs": [{"sequence": 4294967295, "witness": "", "script": "04ffff001d025b03", "index": 0, "prev_out": null}], "out": [{"type": 0, "spent": false, "value": 5000000000, "spending_outpoints": [], "n": 0, "tx_index": 5094566037060081, "script": "41046f2100917c38a97da51ce4f08e175ee669a8fc06e8da2df58333750b1d1ab3b7313c2c599890d84e8a6dd5e84bcab1bebd7659f5460b4e97464fc69f8e932e7aac", "addr": "1KCM12Sh95SZVUUqB1FStBdDoqTjW3vaap"}], "hex": "01000000010000000000000000000000000000000000000000000000000000000000000000ffffffff0804ffff001d025b03ffffffff0100f2052a010000004341046f2100917c38a97da51ce4f08e175ee669a8fc06e8da2df58333750b1d1ab3b7313c2c599890d84e8a6dd5e84bcab1bebd7659f5460b4e97464fc69f8e932e7aac00000000"}]}