{"hash": "0000000058f437720be706c70fd716ceb07110ea74402c9921b093815ad685d7", "ver": 1, "prev_block": "000000007f7ce860da89da06f2c78d489a21d61557bf89549d016afcb6c31d54", "mrkl_root": "3afb973177f5fc9a68036d1bede0cb163487d1fbd5c8973db7a1cbecacc5a714", "time": 1231927300, "bits": 486604799, "next_block": ["0000000025c6b644f8add734be7e666fa4afa43ca0204d623a0c0b1fd2104c7a"], "fee": 0, "nonce": 2187505972, "n_tx": 1, "size": 216, "block_index": 437, "main_chain": true, "height": 437, "weight": 864, "tx": [{"hash": "3afb973177f5fc9a68036d1bede0cb163487d1fbd5c8973db7a1cbecacc5a714", "ver": 1, "vin_sz": 1, "vout_sz": 1, "size": 135, "weight": 540, "fee": 0, "relayed_by": "0.0.0.0", "lock_time": 0, "tx_index": 726745873226100, "double_spend": false, "time": 1231927300, "block_index": 437, "block_height": 437, "inputs": [{"sequence": 4294967295, "witness": "", "script": "04ffff001d026203", "index": 0, "prev_out": null}], "out": [{"type": 0, "spent": false, "value": 5000000000, "spending_outpoints": [], "n": 0, "tx_index": 726745873226100, "script": "4104d84664e44cafc6c09c69ef8b5ce54614353282edc007885b920d54463a9c9de4a40c0c8d9307595bd4c207277753462e3f60ca658a99aa5b794e4758a4424e13ac", "addr": "1yyUAxXFkeu6D7qYB6mZXfbgAsEkwVAtE"}], "hex": "01000000010000000000000000000000000000000000000000000000000000000000000000ffffffff0804ffff001d026203ffffffff0100f2052a01000000434104d84664e44cafc6c09c69ef8b5ce54614353282edc007885b920d54463a9c9de4a40c0c8d9307595bd4c207277753462e3f60ca658a99aa5b794e4758a4424e13ac00000000"}]}