{"hash": "0000000025c6b644f8add734be7e666fa4afa43ca0204d623a0c0b1fd2104c7a", "ver": 1, "prev_block": "0000000058f437720be706c70fd716ceb07110ea74402c9921b093815ad685d7", "mrkl_root": "f6e79a60ead1a6b74d70e46cea906b46f13f39773a691a3d382ca585000e11ad", "time": 1231927782, "bits": 486604799, "next_block": ["00000000bf877e260208f54a9edde2c9689a5990c93467cc4e0becea8a3180d7"], "fee": 0, "nonce": 2650281008, "n_tx": 1, "size": 216, "block_index": 438, "main_chain": true, "height": 438, "weight": 864, "tx": [{"hash": "f6e79a60ead1a6b74d70e46cea906b46f13f39773a691a3d382ca585000e11ad", "ver": 1, "vin_sz": 1, "vout_sz": 1, "size": 135, "weight": 540, "fee": 0, "relayed_by": "0.0.0.0", "lock_time": 0, "tx_index": 6089240350864549, "double_spend": false, "time": 1231927782, "block_index": 438, "block_height": 438, "inputs": [{"sequence": 4294967295, "witness": "", "script": "04ffff001d026c03", "index": 0, "prev_out": null}], "out": [{"type": 0, "spent": false, "value": 5000000000, "spending_outpoints": [], "n": 0, "tx_index": 6089240350864549, "script": "41044730f2126e3d8c8d9b48164a7b6a9273f28fc1e7dfb7fea195521063502be2c661c75ff73f130d1ea2a3ae2bbbf9e3a4ddd55293b613841e00871ab2f600f5b7ac", "addr": "1DJQPkwM2W5QjAHqhst1BCTpmmfRbM79kp"}], "hex": "01000000010000000000000000000000000000000000000000000000000000000000000000ffffffff0804ffff001d026c03ffffffff0100f2052a010000004341044730f2126e3d8c8d9b48164a7b6a9273f28fc1e7dfb7fea195521063502be2c661c75ff73f130d1ea2a3ae2bbbf9e3a4ddd55293b613841e00871ab2f600f5b7ac00000000"}]}