{"hash": "00000000bf877e260208f54a9edde2c9689a5990c93467cc4e0becea8a3180d7", "ver": 1, "prev_block": "0000000025c6b644f8add734be7e666fa4afa43ca0204d623a0c0b1fd2104c7a", "mrkl_root": "729c429213b0de74f61a89ad7da09fc63143e16c7738c1b59130f283e4991dc9", "time": 1231928740, "bits": 486604799, "next_block": ["000000004b9dfe906e0c97aaaa3dbb84a933d14788ddef29eb34c4054f884dfd"], "fee": 0, "nonce": 269962849, "n_tx": 1, "size": 215, "block_index": 439, "main_chain": true, "height": 439, "weight": 860, "tx": [{"hash": "729c429213b0de74f61a89ad7da09fc63143e16c7738c1b59130f283e4991dc9", "ver": 1, "vin_sz": 1, "vout_sz": 1, "size": 134, "weight": 536, "fee": 0, "relayed_by": "0.0.0.0", "lock_time": 0, "tx_index": 7076127139987014, "double_spend": false, "time": 1231928740, "block_index": 439, "block_height": 439, "inputs": [{"sequence": 4294967295, "witness": "", "script": "04ffff001d0136", "index": 0, "prev_out": null}], "out": [{"type": 0, "spent": true, "value": 5000000000, "spending_outpoints": [{"tx_index": 4190213854335511, "n": 6}], "n": 0, "tx_index": 7076127139987014, "script": "4104da40df988e0b0f0dff125cce7b7a120b870641fa95147d96513334111c852b5c1c36b5661c56034a00fba43c23112f309016fd08a572a9cd8e15d401f2732461ac", "addr": "1PxUJBokfT8Cn1pizWYeJpbpm9To4HwRHr"}], "hex": "01000000010000000000000000000000000000000000000000000000000000000000000000ffffffff0704ffff001d0136ffffffff0100f2052a01000000434104da40df988e0b0f0dff125cce7b7a120b870641fa95147d96513334111c852b5c1c36b5661c56034a00fba43c23112f309016fd08a572a9cd8e15d401f2732461ac00000000"}]}