{"hash": "000000002978eecde8d020f7f057083bc990002fff495121d7dc1c26d00c00f8", "ver": 1, "prev_block": "00000000ac21f2862aaab177fd3c5c8b395de842f84d88c9cf3420b2d393e550", "mrkl_root": "439aee1e1aa6923ad61c1990459f88de1faa3e18b4ee125f99b94b82e1e0af5f", "time": 1231610361, "bits": 486604799, "next_block": ["000000009189006e461d2f4037a819d00217412ac01900ddbf09461100b836bb"], "fee": 0, "nonce": 429798192, "n_tx": 1, "size": 215, "block_index": 44, "main_chain": true, "height": 44, "weight": 860, "tx": [{"hash": "439aee1e1aa6923ad61c1990459f88de1faa3e18b4ee125f99b94b82e1e0af5f", "ver": 1, "vin_sz": 1, "vout_sz": 1, "size": 134, "weight": 536, "fee": 0, "relayed_by": "0.0.0.0", "lock_time": 0, "tx_index": 3366687897307511, "double_spend": false, "time": 1231610361, "block_index": 44, "block_height": 44, "inputs": [{"sequence": 4294967295, "witness": "", "script": "04ffff001d011e", "index": 0, "prev_out": null}], "out": [{"type": 0, "spent": false, "value": 5000000000, "spending_outpoints": [], "n": 0, "tx_index": 3366687897307511, "script": "4104c9eb99d7bbbd9acfab695c8aa8b931beb43292f2fecdc19d7e687b524d2e2c8a9d167f9be930634adae005424b441a9de8e8c15d8b2462661eb78418a8aba662ac", "addr": "1HjE5zRg4eYm7jCHB9oSH5WbyZdH1GE2Ns"}], "hex": "01000000010000000000000000000000000000000000000000000000000000000000000000ffffffff0704ffff001d011effffffff0100f2052a01000000434104c9eb99d7bbbd9acfab695c8aa8b931beb43292f2fecdc19d7e687b524d2e2c8a9d167f9be930634adae005424b441a9de8e8c15d8b2462661eb78418a8aba662ac00000000"}]}