{"hash": "000000004b9dfe906e0c97aaaa3dbb84a933d14788ddef29eb34c4054f884dfd", "ver": 1, "prev_block": "00000000bf877e260208f54a9edde2c9689a5990c93467cc4e0becea8a3180d7", "mrkl_root": "3bb1fd25f0276d477e1a19ebc00688a13502658ee0b84e303890dd02c571c8d6", "time": 1231928776, "bits": 486604799, "next_block": ["00000000fc0f0e9952be1ff8efe59f96cfac449734cd6d58704ce6c65ec726a9"], "fee": 0, "nonce": 2763182121, "n_tx": 1, "size": 216, "block_index": 440, "main_chain": true, "height": 440, "weight": 864, "tx": [{"hash": "3bb1fd25f0276d477e1a19ebc00688a13502658ee0b84e303890dd02c571c8d6", "ver": 1, "vin_sz": 1, "vout_sz": 1, "size": 135, "weight": 540, "fee": 0, "relayed_by": "0.0.0.0", "lock_time": 0, "tx_index": 7557004497279922, "double_spend": false, "time": 1231928776, "block_index": 440, "block_height": 440, "inputs": [{"sequence": 4294967295, "witness": "", "script": "04ffff001d026e03", "index": 0, "prev_out": null}], "out": [{"type": 0, "spent": false, "value": 5000000000, "spending_outpoints": [], "n": 0, "tx_index": 7557004497279922, "script": "4104bfdce3c94f1217b78f92dd4212dc6cd310633abcfca5263530c4d534ca01a56e4e8b08dfdbbd8a427348ebe2bcf3b7051e06508f0a46747e149c49d4b213e3f9ac", "addr": "1N1KmgSEYNshhFRjf2iheMJ4WMCLyje21U"}], "hex": "01000000010000000000000000000000000000000000000000000000000000000000000000ffffffff0804ffff001d026e03ffffffff0100f2052a01000000434104bfdce3c94f1217b78f92dd4212dc6cd310633abcfca5263530c4d534ca01a56e4e8b08dfdbbd8a427348ebe2bcf3b7051e06508f0a46747e149c49d4b213e3f9ac00000000"}]}