{"hash": "00000000fc0f0e9952be1ff8efe59f96cfac449734cd6d58704ce6c65ec726a9", "ver": 1, "prev_block": "000000004b9dfe906e0c97aaaa3dbb84a933d14788ddef29eb34c4054f884dfd", "mrkl_root": "8c9296e4ea6bca8ccb401cfc0beaa532407f6100e75f3a4a7d91b3a1bd58c02e", "time": 1231929745, "bits": 486604799, "next_block": ["00000000c55c595b18eff1e1d3f52b5759b9f56dac235af896e9c478cc77cbeb"], "fee": 0, "nonce": 1444483105, "n_tx": 1, "size": 216, "block_index": 441, "main_chain": true, "height": 441, "weight": 864, "tx": [{"hash": "8c9296e4ea6bca8ccb401cfc0beaa532407f6100e75f3a4a7d91b3a1bd58c02e", "ver": 1, "vin_sz": 1, "vout_sz": 1, "size": 135, "weight": 540, "fee": 0, "relayed_by": "0.0.0.0", "lock_time": 0, "tx_index": 1644917037479538, "double_spend": false, "time": 1231929745, "block_index": 441, "block_height": 441, "inputs": [{"sequence": 4294967295, "witness": "", "script": "04ffff001d027603", "index": 0, "prev_out": null}], "out": [{"type": 0, "spent": false, "value": 5000000000, "spending_outpoints": [], "n": 0, "tx_index": 1644917037479538, "script": "410445cc08ce5475a132287d0b3750db5faa096cd343f6310bb82d3298f78413280ff0332c19a7f81765ffdbd66a8d20e805d5083da9931e6c70b647bb968bb5a3c2ac", "addr": "1KtYxeAG2n6p5LqksxbK9QHUFAPSH4B84m"}], "hex": "01000000010000000000000000000000000000000000000000000000000000000000000000ffffffff0804ffff001d027603ffffffff0100f2052a0100000043410445cc08ce5475a132287d0b3750db5faa096cd343f6310bb82d3298f78413280ff0332c19a7f81765ffdbd66a8d20e805d5083da9931e6c70b647bb968bb5a3c2ac00000000"}]}