{"hash": "00000000c55c595b18eff1e1d3f52b5759b9f56dac235af896e9c478cc77cbeb", "ver": 1, "prev_block": "00000000fc0f0e9952be1ff8efe59f96cfac449734cd6d58704ce6c65ec726a9", "mrkl_root": "a739f9909bdf50466fd746e42394fada8e245f29e6f5747fca0a70dec470b75f", "time": 1231930435, "bits": 486604799, "next_block": ["00000000945c9ee0ee1dd8c1e59b44de30354039ad301de90782c14164517e48"], "fee": 0, "nonce": 65612400, "n_tx": 1, "size": 216, "block_index": 442, "main_chain": true, "height": 442, "weight": 864, "tx": [{"hash": "a739f9909bdf50466fd746e42394fada8e245f29e6f5747fca0a70dec470b75f", "ver": 1, "vin_sz": 1, "vout_sz": 1, "size": 135, "weight": 540, "fee": 0, "relayed_by": "0.0.0.0", "lock_time": 0, "tx_index": 3367727219330561, "double_spend": false, "time": 1231930435, "block_index": 442, "block_height": 442, "inputs": [{"sequence": 4294967295, "witness": "", "script": "04ffff001d029d00", "index": 0, "prev_out": null}], "out": [{"type": 0, "spent": true, "value": 5000000000, "spending_outpoints": [{"tx_index": 8533851111427933, "n": 3}], "n": 0, "tx_index": 3367727219330561, "script": "4104c8a9c87a12bada5a94b903bc780e13e49600000c2b4a3f4d11f5a52c6fc3cee2949d1ebc5bba32a9ca456e23c9ac43f2307a0aea3cddb0d32ad5e97b3bcfd369ac", "addr": "1ACWHyRM8rtbt96KauPJprnF2qDQSdPJ54"}], "hex": "01000000010000000000000000000000000000000000000000000000000000000000000000ffffffff0804ffff001d029d00ffffffff0100f2052a01000000434104c8a9c87a12bada5a94b903bc780e13e49600000c2b4a3f4d11f5a52c6fc3cee2949d1ebc5bba32a9ca456e23c9ac43f2307a0aea3cddb0d32ad5e97b3bcfd369ac00000000"}]}