{"hash": "00000000945c9ee0ee1dd8c1e59b44de30354039ad301de90782c14164517e48", "ver": 1, "prev_block": "00000000c55c595b18eff1e1d3f52b5759b9f56dac235af896e9c478cc77cbeb", "mrkl_root": "296590fecb1e02811be6c620e6539c57b57bf7184c090ccad4acb42974aca60e", "time": 1231930862, "bits": 486604799, "next_block": ["00000000cff43a64ec00bea11866875c471289b38103f18ab4ee8d0f8f4f8ac7"], "fee": 0, "nonce": 317782073, "n_tx": 1, "size": 216, "block_index": 443, "main_chain": true, "height": 443, "weight": 864, "tx": [{"hash": "296590fecb1e02811be6c620e6539c57b57bf7184c090ccad4acb42974aca60e", "ver": 1, "vin_sz": 1, "vout_sz": 1, "size": 135, "weight": 540, "fee": 0, "relayed_by": "0.0.0.0", "lock_time": 0, "tx_index": 515488660928149, "double_spend": false, "time": 1231930862, "block_index": 443, "block_height": 443, "inputs": [{"sequence": 4294967295, "witness": "", "script": "04ffff001d027a03", "index": 0, "prev_out": null}], "out": [{"type": 0, "spent": false, "value": 5000000000, "spending_outpoints": [], "n": 0, "tx_index": 515488660928149, "script": "4104fc4f7e3459080761f3639a7708c9827aa05ac4c35b8a8aa67caafe85f03b75f202357bb9e0baff9ca6ceea6ac7e143138c0b8f99027344b7b7338fd7440b989bac", "addr": "1NhKHV33D9eUSxru9aHz6TXF7MYJRiibLk"}], "hex": "01000000010000000000000000000000000000000000000000000000000000000000000000ffffffff0804ffff001d027a03ffffffff0100f2052a01000000434104fc4f7e3459080761f3639a7708c9827aa05ac4c35b8a8aa67caafe85f03b75f202357bb9e0baff9ca6ceea6ac7e143138c0b8f99027344b7b7338fd7440b989bac00000000"}]}