{"hash": "00000000cff43a64ec00bea11866875c471289b38103f18ab4ee8d0f8f4f8ac7", "ver": 1, "prev_block": "00000000945c9ee0ee1dd8c1e59b44de30354039ad301de90782c14164517e48", "mrkl_root": "ba4a9246d9f4471c59cf51fe4cb597cf1c63a3ddd17c0d8bfde3a6a0610e5699", "time": 1231931549, "bits": 486604799, "next_block": ["00000000cc07f5ed1508f93332c84f983e429e53ce2391792d114578500df442"], "fee": 0, "nonce": 1771525916, "n_tx": 1, "size": 216, "block_index": 444, "main_chain": true, "height": 444, "weight": 864, "tx": [{"hash": "ba4a9246d9f4471c59cf51fe4cb597cf1c63a3ddd17c0d8bfde3a6a0610e5699", "ver": 1, "vin_sz": 1, "vout_sz": 1, "size": 135, "weight": 540, "fee": 0, "relayed_by": "0.0.0.0", "lock_time": 0, "tx_index": 5395036400522460, "double_spend": false, "time": 1231931549, "block_index": 444, "block_height": 444, "inputs": [{"sequence": 4294967295, "witness": "", "script": "04ffff001d028203", "index": 0, "prev_out": null}], "out": [{"type": 0, "spent": false, "value": 5000000000, "spending_outpoints": [], "n": 0, "tx_index": 5395036400522460, "script": "4104941f054ab55c345828b6daee875ac8f8c088ea6e0bfc9e38a76aef32da5afb9651241adc001f274cbd9bd7497fb4b437145a5e69b8cc37a40b22ff417f79cd78ac", "addr": "16CxHzZU7aXBXvrZzoFmcsPxUYVTLgzbYq"}], "hex": "01000000010000000000000000000000000000000000000000000000000000000000000000ffffffff0804ffff001d028203ffffffff0100f2052a01000000434104941f054ab55c345828b6daee875ac8f8c088ea6e0bfc9e38a76aef32da5afb9651241adc001f274cbd9bd7497fb4b437145a5e69b8cc37a40b22ff417f79cd78ac00000000"}]}