{"hash": "00000000cc07f5ed1508f93332c84f983e429e53ce2391792d114578500df442", "ver": 1, "prev_block": "00000000cff43a64ec00bea11866875c471289b38103f18ab4ee8d0f8f4f8ac7", "mrkl_root": "331ba5665931e132571f1a337407add0f71f200d8644c5a4e8fec0d4490228ac", "time": 1231932001, "bits": 486604799, "next_block": ["000000003f315849a6af7f1b3d056f8c554c5e0c687dae7b7134fabb7f35d201"], "fee": 0, "nonce": 2663555888, "n_tx": 1, "size": 216, "block_index": 445, "main_chain": true, "height": 445, "weight": 864, "tx": [{"hash": "331ba5665931e132571f1a337407add0f71f200d8644c5a4e8fec0d4490228ac", "ver": 1, "vin_sz": 1, "vout_sz": 1, "size": 135, "weight": 540, "fee": 0, "relayed_by": "0.0.0.0", "lock_time": 0, "tx_index": 6057210785994783, "double_spend": false, "time": 1231932001, "block_index": 445, "block_height": 445, "inputs": [{"sequence": 4294967295, "witness": "", "script": "04ffff001d028703", "index": 0, "prev_out": null}], "out": [{"type": 0, "spent": false, "value": 5000000000, "spending_outpoints": [], "n": 0, "tx_index": 6057210785994783, "script": "41047479488c2f767a045c1935f12bec73f01724ec0b34fa66d384d0ae68a0534b06487ad864556ee1abba23a6f74dce76083a3051d48e26a5be93c1628e6daabdc5ac", "addr": "1ESheFnrs4MriUZC9PxAJyWZQkgFJFCkBP"}], "hex": "01000000010000000000000000000000000000000000000000000000000000000000000000ffffffff0804ffff001d028703ffffffff0100f2052a010000004341047479488c2f767a045c1935f12bec73f01724ec0b34fa66d384d0ae68a0534b06487ad864556ee1abba23a6f74dce76083a3051d48e26a5be93c1628e6daabdc5ac00000000"}]}