{"hash": "000000003f315849a6af7f1b3d056f8c554c5e0c687dae7b7134fabb7f35d201", "ver": 1, "prev_block": "00000000cc07f5ed1508f93332c84f983e429e53ce2391792d114578500df442", "mrkl_root": "d56c79e679b225cbcccdda810c704ddb45d3a956c0ebe2ac318d7954c5f4c24e", "time": 1231932921, "bits": 486604799, "next_block": ["00000000e1798bc5da65746383737a855f94dd9cc73edd26eb4ec0dc3fe8d505"], "fee": 0, "nonce": 2135683618, "n_tx": 1, "size": 216, "block_index": 446, "main_chain": true, "height": 446, "weight": 864, "tx": [{"hash": "d56c79e679b225cbcccdda810c704ddb45d3a956c0ebe2ac318d7954c5f4c24e", "ver": 1, "vin_sz": 1, "vout_sz": 1, "size": 135, "weight": 540, "fee": 0, "relayed_by": "0.0.0.0", "lock_time": 0, "tx_index": 2771175590235953, "double_spend": false, "time": 1231932921, "block_index": 446, "block_height": 446, "inputs": [{"sequence": 4294967295, "witness": "", "script": "04ffff001d028903", "index": 0, "prev_out": null}], "out": [{"type": 0, "spent": false, "value": 5000000000, "spending_outpoints": [], "n": 0, "tx_index": 2771175590235953, "script": "4104178e68b047b016b058a48aaa41385a1023acc14099b8f6604acdcb9778733546ecdf3f5e895534bb610e0d2bbb0a6000cb515c5acd8314e29e54d67a49abe70cac", "addr": "1HkyEYcXKidgRcuNTJRY8hiV3AwZnzpJDY"}], "hex": "01000000010000000000000000000000000000000000000000000000000000000000000000ffffffff0804ffff001d028903ffffffff0100f2052a01000000434104178e68b047b016b058a48aaa41385a1023acc14099b8f6604acdcb9778733546ecdf3f5e895534bb610e0d2bbb0a6000cb515c5acd8314e29e54d67a49abe70cac00000000"}]}