{"hash": "00000000e1798bc5da65746383737a855f94dd9cc73edd26eb4ec0dc3fe8d505", "ver": 1, "prev_block": "000000003f315849a6af7f1b3d056f8c554c5e0c687dae7b7134fabb7f35d201", "mrkl_root": "4c8093cf8c6e5404bd4448d98d576c93d7ff0bd51a2d9a679a604e731d33df13", "time": 1231933666, "bits": 486604799, "next_block": ["000000004ba46e857e930313ddca29e1b30336f3e3cf26c3584c91ca93ee2bac"], "fee": 0, "nonce": 992778537, "n_tx": 1, "size": 216, "block_index": 447, "main_chain": true, "height": 447, "weight": 864, "tx": [{"hash": "4c8093cf8c6e5404bd4448d98d576c93d7ff0bd51a2d9a679a604e731d33df13", "ver": 1, "vin_sz": 1, "vout_sz": 1, "size": 135, "weight": 540, "fee": 0, "relayed_by": "0.0.0.0", "lock_time": 0, "tx_index": 699179398490572, "double_spend": false, "time": 1231933666, "block_index": 447, "block_height": 447, "inputs": [{"sequence": 4294967295, "witness": "", "script": "04ffff001d028b03", "index": 0, "prev_out": null}], "out": [{"type": 0, "spent": false, "value": 5000000000, "spending_outpoints": [], "n": 0, "tx_index": 699179398490572, "script": "4104131b45703a15d66fa96f6af709ced0640359788fd4be4c53dad0475104b2cf3040ebcbe367e5c93471c8e434b7bb3aca208c5833864d2a679bb0f19bdb784c81ac", "addr": "12r7QnVQXAoFrVsXpEdx22AgMJbzZ5N4Qk"}], "hex": "01000000010000000000000000000000000000000000000000000000000000000000000000ffffffff0804ffff001d028b03ffffffff0100f2052a01000000434104131b45703a15d66fa96f6af709ced0640359788fd4be4c53dad0475104b2cf3040ebcbe367e5c93471c8e434b7bb3aca208c5833864d2a679bb0f19bdb784c81ac00000000"}]}