{"hash": "000000004ba46e857e930313ddca29e1b30336f3e3cf26c3584c91ca93ee2bac", "ver": 1, "prev_block": "00000000e1798bc5da65746383737a855f94dd9cc73edd26eb4ec0dc3fe8d505", "mrkl_root": "e24e056b0d537404157a885d24606d0e6d130d1dd7b5d85dab6603cc7010cdd5", "time": 1231934513, "bits": 486604799, "next_block": ["0000000016245606f39a8b3ba658065afd77c3e722031d3da6913646e5e7e5f6"], "fee": 0, "nonce": 137042950, "n_tx": 1, "size": 216, "block_index": 448, "main_chain": true, "height": 448, "weight": 864, "tx": [{"hash": "e24e056b0d537404157a885d24606d0e6d130d1dd7b5d85dab6603cc7010cdd5", "ver": 1, "vin_sz": 1, "vout_sz": 1, "size": 135, "weight": 540, "fee": 0, "relayed_by": "0.0.0.0", "lock_time": 0, "tx_index": 7522455066869868, "double_spend": false, "time": 1231934513, "block_index": 448, "block_height": 448, "inputs": [{"sequence": 4294967295, "witness": "", "script": "04ffff001d028c03", "index": 0, "prev_out": null}], "out": [{"type": 0, "spent": false, "value": 5000000000, "spending_outpoints": [], "n": 0, "tx_index": 7522455066869868, "script": "4104233a256cd55c4ab659c7843a795d156de209bfb8fdb4ef4c8379937a0774060aac8bced69bfa618776cb939e322762ac77620a0a40f8d562fa41c7af9ed486aeac", "addr": "1CtV9nooWqR8zYbN3PnetnhmkFEZiCWmCP"}], "hex": "01000000010000000000000000000000000000000000000000000000000000000000000000ffffffff0804ffff001d028c03ffffffff0100f2052a01000000434104233a256cd55c4ab659c7843a795d156de209bfb8fdb4ef4c8379937a0774060aac8bced69bfa618776cb939e322762ac77620a0a40f8d562fa41c7af9ed486aeac00000000"}]}