{"hash": "0000000016245606f39a8b3ba658065afd77c3e722031d3da6913646e5e7e5f6", "ver": 1, "prev_block": "000000004ba46e857e930313ddca29e1b30336f3e3cf26c3584c91ca93ee2bac", "mrkl_root": "8a2f01266ab585b8ff60e2c7a512cc5c4e6f171985ae7ff5d0c8e3280328b3a9", "time": 1231935119, "bits": 486604799, "next_block": ["00000000e474895c09bcdaf9261845960b35ea54ed3ecaf60d8a392940f1f3f9"], "fee": 0, "nonce": 4075898624, "n_tx": 1, "size": 216, "block_index": 449, "main_chain": true, "height": 449, "weight": 864, "tx": [{"hash": "8a2f01266ab585b8ff60e2c7a512cc5c4e6f171985ae7ff5d0c8e3280328b3a9", "ver": 1, "vin_sz": 1, "vout_sz": 1, "size": 135, "weight": 540, "fee": 0, "relayed_by": "0.0.0.0", "lock_time": 0, "tx_index": 5970781937147001, "double_spend": false, "time": 1231935119, "block_index": 449, "block_height": 449, "inputs": [{"sequence": 4294967295, "witness": "", "script": "04ffff001d029803", "index": 0, "prev_out": null}], "out": [{"type": 0, "spent": false, "value": 5000000000, "spending_outpoints": [], "n": 0, "tx_index": 5970781937147001, "script": "41046744c9915ce9acc6cef518f1094682b92e2841633472177776a9fbb6f7ddf24107b123dd09d5428c6df54d6f5da124138cfc81a12b2158e418a53900abe24360ac", "addr": "1MoroUCvEtQNWhvhhWfRPZ5jK4aPVq1tGf"}], "hex": "01000000010000000000000000000000000000000000000000000000000000000000000000ffffffff0804ffff001d029803ffffffff0100f2052a010000004341046744c9915ce9acc6cef518f1094682b92e2841633472177776a9fbb6f7ddf24107b123dd09d5428c6df54d6f5da124138cfc81a12b2158e418a53900abe24360ac00000000"}]}