{"hash": "000000009189006e461d2f4037a819d00217412ac01900ddbf09461100b836bb", "ver": 1, "prev_block": "000000002978eecde8d020f7f057083bc990002fff495121d7dc1c26d00c00f8", "mrkl_root": "f69778085f1e78a1ea1cfcfe3b61ffb5c99870f5ae382e41ec43cf165d66a6d9", "time": 1231611068, "bits": 486604799, "next_block": ["0000000002d5f429a2e3a9d9f82b777469696deb64038803c87833aa8ee9c08e"], "fee": 0, "nonce": 2771238433, "n_tx": 1, "size": 215, "block_index": 45, "main_chain": true, "height": 45, "weight": 860, "tx": [{"hash": "f69778085f1e78a1ea1cfcfe3b61ffb5c99870f5ae382e41ec43cf165d66a6d9", "ver": 1, "vin_sz": 1, "vout_sz": 1, "size": 134, "weight": 536, "fee": 0, "relayed_by": "0.0.0.0", "lock_time": 0, "tx_index": 7657878565607912, "double_spend": false, "time": 1231611068, "block_index": 45, "block_height": 45, "inputs": [{"sequence": 4294967295, "witness": "", "script": "04ffff001d0121", "index": 0, "prev_out": null}], "out": [{"type": 0, "spent": false, "value": 5000000000, "spending_outpoints": [], "n": 0, "tx_index": 7657878565607912, "script": "4104e049e5c6fb83743c8ef0a640cc82ea14191026643e3e2a1c84edf168bb9690f3c201d04a30c8609aa9406c1eb565e1b9fa218317da5177060de158f25ccc879dac", "addr": "1D2zWLwXkdgFw5VtcYVtBhZuq5j4qwiRQP"}], "hex": "01000000010000000000000000000000000000000000000000000000000000000000000000ffffffff0704ffff001d0121ffffffff0100f2052a01000000434104e049e5c6fb83743c8ef0a640cc82ea14191026643e3e2a1c84edf168bb9690f3c201d04a30c8609aa9406c1eb565e1b9fa218317da5177060de158f25ccc879dac00000000"}]}