{"hash": "00000000e474895c09bcdaf9261845960b35ea54ed3ecaf60d8a392940f1f3f9", "ver": 1, "prev_block": "0000000016245606f39a8b3ba658065afd77c3e722031d3da6913646e5e7e5f6", "mrkl_root": "d8bb7a39f85135c14c37c8d370c97d642b907a791dd235793061e86e094c8d96", "time": 1231936030, "bits": 486604799, "next_block": ["00000000816d44ea23b86ccf0b98736ee06d66e2af72f0f542976f0a92bcea98"], "fee": 0, "nonce": 87993685, "n_tx": 1, "size": 216, "block_index": 450, "main_chain": true, "height": 450, "weight": 864, "tx": [{"hash": "d8bb7a39f85135c14c37c8d370c97d642b907a791dd235793061e86e094c8d96", "ver": 1, "vin_sz": 1, "vout_sz": 1, "size": 135, "weight": 540, "fee": 0, "relayed_by": "0.0.0.0", "lock_time": 0, "tx_index": 5297075527736588, "double_spend": false, "time": 1231936030, "block_index": 450, "block_height": 450, "inputs": [{"sequence": 4294967295, "witness": "", "script": "04ffff001d02a500", "index": 0, "prev_out": null}], "out": [{"type": 0, "spent": true, "value": 5000000000, "spending_outpoints": [{"tx_index": 8533851111427933, "n": 4}], "n": 0, "tx_index": 5297075527736588, "script": "4104081f4dee652ef11e8b315b00f8705a4e02db04702ba13a1fc51808a478a3b2247ba888cc62ad30e4152ec30bae065fb3bab994c8dc8e776f268aed570ea33617ac", "addr": "1LfjLrBDYyPbvGMiD9jURxyAupdYujsBdK"}], "hex": "01000000010000000000000000000000000000000000000000000000000000000000000000ffffffff0804ffff001d02a500ffffffff0100f2052a01000000434104081f4dee652ef11e8b315b00f8705a4e02db04702ba13a1fc51808a478a3b2247ba888cc62ad30e4152ec30bae065fb3bab994c8dc8e776f268aed570ea33617ac00000000"}]}