{"hash": "00000000816d44ea23b86ccf0b98736ee06d66e2af72f0f542976f0a92bcea98", "ver": 1, "prev_block": "00000000e474895c09bcdaf9261845960b35ea54ed3ecaf60d8a392940f1f3f9", "mrkl_root": "641518afe1f3203694a0ded508b5520f924ecc824c4137195fa7d75d1cb517fe", "time": 1231936485, "bits": 486604799, "next_block": ["000000005009c3864ca16b54b61d09c914ac312e260de44776811287f41ffab2"], "fee": 0, "nonce": 77839671, "n_tx": 1, "size": 216, "block_index": 451, "main_chain": true, "height": 451, "weight": 864, "tx": [{"hash": "641518afe1f3203694a0ded508b5520f924ecc824c4137195fa7d75d1cb517fe", "ver": 1, "vin_sz": 1, "vout_sz": 1, "size": 135, "weight": 540, "fee": 0, "relayed_by": "0.0.0.0", "lock_time": 0, "tx_index": 8940088839617268, "double_spend": false, "time": 1231936485, "block_index": 451, "block_height": 451, "inputs": [{"sequence": 4294967295, "witness": "", "script": "04ffff001d02af03", "index": 0, "prev_out": null}], "out": [{"type": 0, "spent": false, "value": 5000000000, "spending_outpoints": [], "n": 0, "tx_index": 8940088839617268, "script": "4104296e3c3b64ac62f51cbfb1ca6cfeeb580fb71d0d38079b9f3da14e022bcbf31ff73a82631932955ffee744729a30f7e5541a757156810ceb93a70cbc7e217020ac", "addr": "1Q7Ach95Kv3eFf5DxTNTsgMxMhBFtJtXuf"}], "hex": "01000000010000000000000000000000000000000000000000000000000000000000000000ffffffff0804ffff001d02af03ffffffff0100f2052a01000000434104296e3c3b64ac62f51cbfb1ca6cfeeb580fb71d0d38079b9f3da14e022bcbf31ff73a82631932955ffee744729a30f7e5541a757156810ceb93a70cbc7e217020ac00000000"}]}