{"hash": "000000005009c3864ca16b54b61d09c914ac312e260de44776811287f41ffab2", "ver": 1, "prev_block": "00000000816d44ea23b86ccf0b98736ee06d66e2af72f0f542976f0a92bcea98", "mrkl_root": "59bb9a65d1d533803837721e8a028470c3094d0ccdbcd9697af2eb855a1cc183", "time": 1231937405, "bits": 486604799, "next_block": ["000000003eadc8cf26a2fb8e9c563ade586e31c608b6bcdde50327c694d6f714"], "fee": 0, "nonce": 1558600739, "n_tx": 1, "size": 216, "block_index": 452, "main_chain": true, "height": 452, "weight": 864, "tx": [{"hash": "59bb9a65d1d533803837721e8a028470c3094d0ccdbcd9697af2eb855a1cc183", "ver": 1, "vin_sz": 1, "vout_sz": 1, "size": 135, "weight": 540, "fee": 0, "relayed_by": "0.0.0.0", "lock_time": 0, "tx_index": 4635693683883390, "double_spend": false, "time": 1231937405, "block_index": 452, "block_height": 452, "inputs": [{"sequence": 4294967295, "witness": "", "script": "04ffff001d02b403", "index": 0, "prev_out": null}], "out": [{"type": 0, "spent": false, "value": 5000000000, "spending_outpoints": [], "n": 0, "tx_index": 4635693683883390, "script": "4104202e227a4efbb9f476ed26fd44182534930d522900b52ae24617925febd2dd5e7be54bf4948008e297156020cafc4d05c56ff51912fe3ec4e487399f60f99e59ac", "addr": "1CY5MhHRMwqVDsprEES5AxcMFJFgmDDxab"}], "hex": "01000000010000000000000000000000000000000000000000000000000000000000000000ffffffff0804ffff001d02b403ffffffff0100f2052a01000000434104202e227a4efbb9f476ed26fd44182534930d522900b52ae24617925febd2dd5e7be54bf4948008e297156020cafc4d05c56ff51912fe3ec4e487399f60f99e59ac00000000"}]}