{"hash": "000000003eadc8cf26a2fb8e9c563ade586e31c608b6bcdde50327c694d6f714", "ver": 1, "prev_block": "000000005009c3864ca16b54b61d09c914ac312e260de44776811287f41ffab2", "mrkl_root": "f2d07f94821a46246cc6b948c6b865cb5ef7f3042f861030cb2d717f63012cb8", "time": 1231938459, "bits": 486604799, "next_block": ["00000000b0448e22fa4a6ff9f9b29c66c4934e1ccb0620bcdf2689453626933e"], "fee": 0, "nonce": 851819830, "n_tx": 1, "size": 216, "block_index": 453, "main_chain": true, "height": 453, "weight": 864, "tx": [{"hash": "f2d07f94821a46246cc6b948c6b865cb5ef7f3042f861030cb2d717f63012cb8", "ver": 1, "vin_sz": 1, "vout_sz": 1, "size": 135, "weight": 540, "fee": 0, "relayed_by": "0.0.0.0", "lock_time": 0, "tx_index": 6479972523830821, "double_spend": false, "time": 1231938459, "block_index": 453, "block_height": 453, "inputs": [{"sequence": 4294967295, "witness": "", "script": "04ffff001d02b803", "index": 0, "prev_out": null}], "out": [{"type": 0, "spent": false, "value": 5000000000, "spending_outpoints": [], "n": 0, "tx_index": 6479972523830821, "script": "41043131e64012a1d2c4f98169f47c498724ad9c010f83cc69f85a727412faa8f062840efbf24bfc23b3485c802fb6e9130882f1b4758cbd4d013f85f8f7bcc6438aac", "addr": "1GA2QHegUApHZarxwdBmASgghV4NxKm44g"}], "hex": "01000000010000000000000000000000000000000000000000000000000000000000000000ffffffff0804ffff001d02b803ffffffff0100f2052a010000004341043131e64012a1d2c4f98169f47c498724ad9c010f83cc69f85a727412faa8f062840efbf24bfc23b3485c802fb6e9130882f1b4758cbd4d013f85f8f7bcc6438aac00000000"}]}