{"hash": "00000000b0448e22fa4a6ff9f9b29c66c4934e1ccb0620bcdf2689453626933e", "ver": 1, "prev_block": "000000003eadc8cf26a2fb8e9c563ade586e31c608b6bcdde50327c694d6f714", "mrkl_root": "80ec89837a388421e81d912b9e695b7920990dad85956ff5bc484ce82b19db6c", "time": 1231939525, "bits": 486604799, "next_block": ["0000000013562603b4aadfcce524747ca80ba40b2ec18ab533b4ad697819e760"], "fee": 0, "nonce": 737378348, "n_tx": 1, "size": 216, "block_index": 454, "main_chain": true, "height": 454, "weight": 864, "tx": [{"hash": "80ec89837a388421e81d912b9e695b7920990dad85956ff5bc484ce82b19db6c", "ver": 1, "vin_sz": 1, "vout_sz": 1, "size": 135, "weight": 540, "fee": 0, "relayed_by": "0.0.0.0", "lock_time": 0, "tx_index": 3830024830257545, "double_spend": false, "time": 1231939525, "block_index": 454, "block_height": 454, "inputs": [{"sequence": 4294967295, "witness": "", "script": "04ffff001d02b903", "index": 0, "prev_out": null}], "out": [{"type": 0, "spent": false, "value": 5000000000, "spending_outpoints": [], "n": 0, "tx_index": 3830024830257545, "script": "4104580870de3f8ca36bf027bd60440380dace0a2c305ee5324b99dacadeada4aacf73297ac6dd95a05ce193344702ad45ec487d992495411575cdff5e12b88710efac", "addr": "1EX1E9n3bPA1zGKDV5iHY2MnM7n5tDfnfH"}], "hex": "01000000010000000000000000000000000000000000000000000000000000000000000000ffffffff0804ffff001d02b903ffffffff0100f2052a01000000434104580870de3f8ca36bf027bd60440380dace0a2c305ee5324b99dacadeada4aacf73297ac6dd95a05ce193344702ad45ec487d992495411575cdff5e12b88710efac00000000"}]}