{"hash": "0000000013562603b4aadfcce524747ca80ba40b2ec18ab533b4ad697819e760", "ver": 1, "prev_block": "00000000b0448e22fa4a6ff9f9b29c66c4934e1ccb0620bcdf2689453626933e", "mrkl_root": "cf2cb5e3b40ff2440afc5b6be6b16e180376dc2434c1bb651cc024db1488d1b5", "time": 1231940169, "bits": 486604799, "next_block": ["000000008356bc1b035b437792093959059a7ca312a576313bdaf2610b3124c5"], "fee": 0, "nonce": 4230999596, "n_tx": 1, "size": 216, "block_index": 455, "main_chain": true, "height": 455, "weight": 864, "tx": [{"hash": "cf2cb5e3b40ff2440afc5b6be6b16e180376dc2434c1bb651cc024db1488d1b5", "ver": 1, "vin_sz": 1, "vout_sz": 1, "size": 135, "weight": 540, "fee": 0, "relayed_by": "0.0.0.0", "lock_time": 0, "tx_index": 6397169147536536, "double_spend": false, "time": 1231940169, "block_index": 455, "block_height": 455, "inputs": [{"sequence": 4294967295, "witness": "", "script": "04ffff001d02bb03", "index": 0, "prev_out": null}], "out": [{"type": 0, "spent": false, "value": 5000000000, "spending_outpoints": [], "n": 0, "tx_index": 6397169147536536, "script": "4104254c95c029dc240bb165c9ef2359c357125edcdd5011ae319f592fc0c882f1446aed60eff65775c04cc555546b8ee4f00fee8249aca01cd5993d00edeec3e89fac", "addr": "1CwTYt6geNuY7JSHZijgSzSqtQLm9xZHNW"}], "hex": "01000000010000000000000000000000000000000000000000000000000000000000000000ffffffff0804ffff001d02bb03ffffffff0100f2052a01000000434104254c95c029dc240bb165c9ef2359c357125edcdd5011ae319f592fc0c882f1446aed60eff65775c04cc555546b8ee4f00fee8249aca01cd5993d00edeec3e89fac00000000"}]}