{"hash": "000000008356bc1b035b437792093959059a7ca312a576313bdaf2610b3124c5", "ver": 1, "prev_block": "0000000013562603b4aadfcce524747ca80ba40b2ec18ab533b4ad697819e760", "mrkl_root": "db9f7175c83f7a50a6449f9b1960784067c117c401898bed79da7eafa8ed0e73", "time": 1231941022, "bits": 486604799, "next_block": ["000000000c86bbd3cbfe99ef173d046ac8f6d39b6819af1b6353861d36365f0a"], "fee": 0, "nonce": 1780421632, "n_tx": 1, "size": 216, "block_index": 456, "main_chain": true, "height": 456, "weight": 864, "tx": [{"hash": "db9f7175c83f7a50a6449f9b1960784067c117c401898bed79da7eafa8ed0e73", "ver": 1, "vin_sz": 1, "vout_sz": 1, "size": 135, "weight": 540, "fee": 0, "relayed_by": "0.0.0.0", "lock_time": 0, "tx_index": 4048254527729627, "double_spend": false, "time": 1231941022, "block_index": 456, "block_height": 456, "inputs": [{"sequence": 4294967295, "witness": "", "script": "04ffff001d02c703", "index": 0, "prev_out": null}], "out": [{"type": 0, "spent": false, "value": 5000000000, "spending_outpoints": [], "n": 0, "tx_index": 4048254527729627, "script": "4104dea793862807035abc3beb804d88e242c4ce709b6526ccbbd6d2909a113903247cbeec2e5d5945f3fb5b5a94bc3b23f9b73ff12aff2e4150e7e99bf71d59542eac", "addr": "125Rg7ZvmYxeoNeTbU4CaXrVSxbB331KPZ"}], "hex": "01000000010000000000000000000000000000000000000000000000000000000000000000ffffffff0804ffff001d02c703ffffffff0100f2052a01000000434104dea793862807035abc3beb804d88e242c4ce709b6526ccbbd6d2909a113903247cbeec2e5d5945f3fb5b5a94bc3b23f9b73ff12aff2e4150e7e99bf71d59542eac00000000"}]}