{"hash": "000000000c86bbd3cbfe99ef173d046ac8f6d39b6819af1b6353861d36365f0a", "ver": 1, "prev_block": "000000008356bc1b035b437792093959059a7ca312a576313bdaf2610b3124c5", "mrkl_root": "7addbd5badcc73271e3094fb5cdbc864efabd61a91562385493f9a2872fe5345", "time": 1231942187, "bits": 486604799, "next_block": ["0000000049db57f7c89df82008dbfeba44995c9675d779180ffb788aa6f6ad16"], "fee": 0, "nonce": 3859115284, "n_tx": 1, "size": 216, "block_index": 457, "main_chain": true, "height": 457, "weight": 864, "tx": [{"hash": "7addbd5badcc73271e3094fb5cdbc864efabd61a91562385493f9a2872fe5345", "ver": 1, "vin_sz": 1, "vout_sz": 1, "size": 135, "weight": 540, "fee": 0, "relayed_by": "0.0.0.0", "lock_time": 0, "tx_index": 2439265711887175, "double_spend": false, "time": 1231942187, "block_index": 457, "block_height": 457, "inputs": [{"sequence": 4294967295, "witness": "", "script": "04ffff001d02cf03", "index": 0, "prev_out": null}], "out": [{"type": 0, "spent": false, "value": 5000000000, "spending_outpoints": [], "n": 0, "tx_index": 2439265711887175, "script": "4104b762660e37a42f33c1339ed96f08f4c8c3747e2eb141b7fd9d52de3bcfffaa74d3772206983fa5151aa94d1da5b3fb14f38d7bb5e1fcc58e2bdda9ea9d8e661bac", "addr": "1EwdBbkmzxZ6zroa29CHCFtp46PfPXqhjX"}], "hex": "01000000010000000000000000000000000000000000000000000000000000000000000000ffffffff0804ffff001d02cf03ffffffff0100f2052a01000000434104b762660e37a42f33c1339ed96f08f4c8c3747e2eb141b7fd9d52de3bcfffaa74d3772206983fa5151aa94d1da5b3fb14f38d7bb5e1fcc58e2bdda9ea9d8e661bac00000000"}]}