{"hash": "0000000049db57f7c89df82008dbfeba44995c9675d779180ffb788aa6f6ad16", "ver": 1, "prev_block": "000000000c86bbd3cbfe99ef173d046ac8f6d39b6819af1b6353861d36365f0a", "mrkl_root": "de977a67fb37491a3b6909aeb137abc9750f469dd2fd7d3ed5838062e883be93", "time": 1231942726, "bits": 486604799, "next_block": ["00000000b03379dd693686ed84a33b5086d9770f1f08c6951a9e3fc40b06e7cf"], "fee": 0, "nonce": 1125295152, "n_tx": 1, "size": 216, "block_index": 458, "main_chain": true, "height": 458, "weight": 864, "tx": [{"hash": "de977a67fb37491a3b6909aeb137abc9750f469dd2fd7d3ed5838062e883be93", "ver": 1, "vin_sz": 1, "vout_sz": 1, "size": 135, "weight": 540, "fee": 0, "relayed_by": "0.0.0.0", "lock_time": 0, "tx_index": 5198286915653648, "double_spend": false, "time": 1231942726, "block_index": 458, "block_height": 458, "inputs": [{"sequence": 4294967295, "witness": "", "script": "04ffff001d02d103", "index": 0, "prev_out": null}], "out": [{"type": 0, "spent": false, "value": 5000000000, "spending_outpoints": [], "n": 0, "tx_index": 5198286915653648, "script": "4104bc3d8148d363354eced5cd0b09546b78a5077c5183b2fbdc21bd681a07b0372386d43628897759fd4ed6a73996310f02441fec935dac8ea1037c2e556376909dac", "addr": "15Zkm5xRdCYYHkHS1i21PcE9eEsyKdkgWy"}], "hex": "01000000010000000000000000000000000000000000000000000000000000000000000000ffffffff0804ffff001d02d103ffffffff0100f2052a01000000434104bc3d8148d363354eced5cd0b09546b78a5077c5183b2fbdc21bd681a07b0372386d43628897759fd4ed6a73996310f02441fec935dac8ea1037c2e556376909dac00000000"}]}