{"hash": "00000000b03379dd693686ed84a33b5086d9770f1f08c6951a9e3fc40b06e7cf", "ver": 1, "prev_block": "0000000049db57f7c89df82008dbfeba44995c9675d779180ffb788aa6f6ad16", "mrkl_root": "22fdc90e3eab5e4387095c799e81f9e5791caba5f865954bad77a2c04737e7f7", "time": 1231943274, "bits": 486604799, "next_block": ["00000000589bea8b8ba6b3c039cc4c10e414c498d4bab561af7b1f92a7181ce4"], "fee": 0, "nonce": 1959998522, "n_tx": 1, "size": 216, "block_index": 459, "main_chain": true, "height": 459, "weight": 864, "tx": [{"hash": "22fdc90e3eab5e4387095c799e81f9e5791caba5f865954bad77a2c04737e7f7", "ver": 1, "vin_sz": 1, "vout_sz": 1, "size": 135, "weight": 540, "fee": 0, "relayed_by": "0.0.0.0", "lock_time": 0, "tx_index": 8722317982569550, "double_spend": false, "time": 1231943274, "block_index": 459, "block_height": 459, "inputs": [{"sequence": 4294967295, "witness": "", "script": "04ffff001d02d303", "index": 0, "prev_out": null}], "out": [{"type": 0, "spent": false, "value": 5000000000, "spending_outpoints": [], "n": 0, "tx_index": 8722317982569550, "script": "4104de17f030f67227d105bfd217a5bbb53717931747974906a7bb8c96a901a80bd4b37da87aabf70e606515b3997b2bda1eb5d87e4c16730c4dfae9ebc8ede8f518ac", "addr": "1GYrCWTvtWzRJrTxGSAm4hpyFq6KG3Lm4K"}], "hex": "01000000010000000000000000000000000000000000000000000000000000000000000000ffffffff0804ffff001d02d303ffffffff0100f2052a01000000434104de17f030f67227d105bfd217a5bbb53717931747974906a7bb8c96a901a80bd4b37da87aabf70e606515b3997b2bda1eb5d87e4c16730c4dfae9ebc8ede8f518ac00000000"}]}