{"hash": "00000000589bea8b8ba6b3c039cc4c10e414c498d4bab561af7b1f92a7181ce4", "ver": 1, "prev_block": "00000000b03379dd693686ed84a33b5086d9770f1f08c6951a9e3fc40b06e7cf", "mrkl_root": "eff56a0127c9262d388864bbbd7111c5ccb25241491163f876c62b25ba8e5baf", "time": 1231943631, "bits": 486604799, "next_block": ["000000002082739d0e82596fb69243b1ca9db66db623d3fdcf283f18486cdbaf"], "fee": 0, "nonce": 1519491111, "n_tx": 1, "size": 216, "block_index": 460, "main_chain": true, "height": 460, "weight": 864, "tx": [{"hash": "eff56a0127c9262d388864bbbd7111c5ccb25241491163f876c62b25ba8e5baf", "ver": 1, "vin_sz": 1, "vout_sz": 1, "size": 135, "weight": 540, "fee": 0, "relayed_by": "0.0.0.0", "lock_time": 0, "tx_index": 6169848686355832, "double_spend": false, "time": 1231943631, "block_index": 460, "block_height": 460, "inputs": [{"sequence": 4294967295, "witness": "", "script": "04ffff001d02d403", "index": 0, "prev_out": null}], "out": [{"type": 0, "spent": false, "value": 5000000000, "spending_outpoints": [], "n": 0, "tx_index": 6169848686355832, "script": "41044a991457f24f788894ce2011735a8c07d4cc9d2d016fe174f81a02080db94a1239d9b2b44aa3b53093d803dc12e5b4adbbc3bd6d9495fb77e15cb6cc37894b13ac", "addr": "1Aw8fisqf2eT2kAHJxv9N8yaoNW1iN4HYz"}], "hex": "01000000010000000000000000000000000000000000000000000000000000000000000000ffffffff0804ffff001d02d403ffffffff0100f2052a010000004341044a991457f24f788894ce2011735a8c07d4cc9d2d016fe174f81a02080db94a1239d9b2b44aa3b53093d803dc12e5b4adbbc3bd6d9495fb77e15cb6cc37894b13ac00000000"}]}