{"hash": "000000002082739d0e82596fb69243b1ca9db66db623d3fdcf283f18486cdbaf", "ver": 1, "prev_block": "00000000589bea8b8ba6b3c039cc4c10e414c498d4bab561af7b1f92a7181ce4", "mrkl_root": "9e01daccf3280ab1663fbbb34e7b798acf488d23eb4d60f0176b6c9c86ffcd6b", "time": 1231943876, "bits": 486604799, "next_block": ["0000000095c81ef621ffd5b8c7fbea7608b672ac81fd5f03c43ab3a7b27353b1"], "fee": 0, "nonce": 66291407, "n_tx": 1, "size": 215, "block_index": 461, "main_chain": true, "height": 461, "weight": 860, "tx": [{"hash": "9e01daccf3280ab1663fbbb34e7b798acf488d23eb4d60f0176b6c9c86ffcd6b", "ver": 1, "vin_sz": 1, "vout_sz": 1, "size": 134, "weight": 536, "fee": 0, "relayed_by": "0.0.0.0", "lock_time": 0, "tx_index": 3793039983349133, "double_spend": false, "time": 1231943876, "block_index": 461, "block_height": 461, "inputs": [{"sequence": 4294967295, "witness": "", "script": "04ffff001d014c", "index": 0, "prev_out": null}], "out": [{"type": 0, "spent": true, "value": 5000000000, "spending_outpoints": [{"tx_index": 6203573039099042, "n": 3}], "n": 0, "tx_index": 3793039983349133, "script": "4104553ddda3a799da48cd6146bc36cb1c0cac7b8988b968fe2f8ba63feec7ff24cf651ac6e307986c24163d4e420f3e580d7e4b392c257ae5064b3589dc058c3bd4ac", "addr": "15Eto1LeCTkZGkPwr3H2BS8Nu1yadfeEH8"}], "hex": "01000000010000000000000000000000000000000000000000000000000000000000000000ffffffff0704ffff001d014cffffffff0100f2052a01000000434104553ddda3a799da48cd6146bc36cb1c0cac7b8988b968fe2f8ba63feec7ff24cf651ac6e307986c24163d4e420f3e580d7e4b392c257ae5064b3589dc058c3bd4ac00000000"}]}