{"hash": "0000000095c81ef621ffd5b8c7fbea7608b672ac81fd5f03c43ab3a7b27353b1", "ver": 1, "prev_block": "000000002082739d0e82596fb69243b1ca9db66db623d3fdcf283f18486cdbaf", "mrkl_root": "060c1c42cd25e8e929d032236478d864a9245e19bed417c0a839b4ae831b83f7", "time": 1231944234, "bits": 486604799, "next_block": ["000000007796883846053d0be8621d0fe1d88987da1d627a1cba650cd4efebfc"], "fee": 0, "nonce": 344845355, "n_tx": 1, "size": 216, "block_index": 462, "main_chain": true, "height": 462, "weight": 864, "tx": [{"hash": "060c1c42cd25e8e929d032236478d864a9245e19bed417c0a839b4ae831b83f7", "ver": 1, "vin_sz": 1, "vout_sz": 1, "size": 135, "weight": 540, "fee": 0, "relayed_by": "0.0.0.0", "lock_time": 0, "tx_index": 8708559180519047, "double_spend": false, "time": 1231944234, "block_index": 462, "block_height": 462, "inputs": [{"sequence": 4294967295, "witness": "", "script": "04ffff001d02d603", "index": 0, "prev_out": null}], "out": [{"type": 0, "spent": false, "value": 5000000000, "spending_outpoints": [], "n": 0, "tx_index": 8708559180519047, "script": "4104bc242debe6e91f7d7873b64fd5e0bca45a9b0d98c79a901c5f2684cb24f1c62fa81fbbc851716de25ddd65aaeab67a5243513459401a310a0d2f3cecc26f90f5ac", "addr": "1MtMCEV9DNwk1Zb212eC4rPATbhg7hWhwU"}], "hex": "01000000010000000000000000000000000000000000000000000000000000000000000000ffffffff0804ffff001d02d603ffffffff0100f2052a01000000434104bc242debe6e91f7d7873b64fd5e0bca45a9b0d98c79a901c5f2684cb24f1c62fa81fbbc851716de25ddd65aaeab67a5243513459401a310a0d2f3cecc26f90f5ac00000000"}]}