{"hash": "000000007796883846053d0be8621d0fe1d88987da1d627a1cba650cd4efebfc", "ver": 1, "prev_block": "0000000095c81ef621ffd5b8c7fbea7608b672ac81fd5f03c43ab3a7b27353b1", "mrkl_root": "fab941c771959a1addff9c57482b40d557ad5d3d141ab11b82daae3c07e1264a", "time": 1231944562, "bits": 486604799, "next_block": ["000000009f02fc0ad2cbbc173f83b9db831a6a0956754784020b31e336d91081"], "fee": 0, "nonce": 57721960, "n_tx": 1, "size": 216, "block_index": 463, "main_chain": true, "height": 463, "weight": 864, "tx": [{"hash": "fab941c771959a1addff9c57482b40d557ad5d3d141ab11b82daae3c07e1264a", "ver": 1, "vin_sz": 1, "vout_sz": 1, "size": 135, "weight": 540, "fee": 0, "relayed_by": "0.0.0.0", "lock_time": 0, "tx_index": 2608987025937883, "double_spend": false, "time": 1231944562, "block_index": 463, "block_height": 463, "inputs": [{"sequence": 4294967295, "witness": "", "script": "04ffff001d02be00", "index": 0, "prev_out": null}], "out": [{"type": 0, "spent": true, "value": 5000000000, "spending_outpoints": [{"tx_index": 4338074520099630, "n": 74}], "n": 0, "tx_index": 2608987025937883, "script": "4104bb9953cce84c32618d80a88ef93fecbe357347f5491ba5c4f4a2be00695e4da73773bef33e8493a6801607b30c3cbce21517f2e4a0853da8656a75ac30aa183aac", "addr": "13Vpu2cTr58iTAKaF9MfYxrgzYTHK64qtG"}], "hex": "01000000010000000000000000000000000000000000000000000000000000000000000000ffffffff0804ffff001d02be00ffffffff0100f2052a01000000434104bb9953cce84c32618d80a88ef93fecbe357347f5491ba5c4f4a2be00695e4da73773bef33e8493a6801607b30c3cbce21517f2e4a0853da8656a75ac30aa183aac00000000"}]}