{"hash": "000000009f02fc0ad2cbbc173f83b9db831a6a0956754784020b31e336d91081", "ver": 1, "prev_block": "000000007796883846053d0be8621d0fe1d88987da1d627a1cba650cd4efebfc", "mrkl_root": "3745d12ead875f761697c23f8571ad8e74b065349864317fece3f96512b160e5", "time": 1231944640, "bits": 486604799, "next_block": ["00000000d210725e12df9669ee4d5e9bfff357dc08670264f733d47ce4cce9db"], "fee": 0, "nonce": 1985181463, "n_tx": 1, "size": 216, "block_index": 464, "main_chain": true, "height": 464, "weight": 864, "tx": [{"hash": "3745d12ead875f761697c23f8571ad8e74b065349864317fece3f96512b160e5", "ver": 1, "vin_sz": 1, "vout_sz": 1, "size": 135, "weight": 540, "fee": 0, "relayed_by": "0.0.0.0", "lock_time": 0, "tx_index": 8070510412611388, "double_spend": false, "time": 1231944640, "block_index": 464, "block_height": 464, "inputs": [{"sequence": 4294967295, "witness": "", "script": "04ffff001d02d803", "index": 0, "prev_out": null}], "out": [{"type": 0, "spent": false, "value": 5000000000, "spending_outpoints": [], "n": 0, "tx_index": 8070510412611388, "script": "41046a68281e5668420d9a6d0093b8f3a3217f615a409c191f265b431834a619a3728e1fd3c65f21c812d77e5c87bccd2b72bfbae0e568eaf78a558d0fd173769f1fac", "addr": "1AQnZzdZRKGmbDrh55KL1r4C23s8rpS7W8"}], "hex": "01000000010000000000000000000000000000000000000000000000000000000000000000ffffffff0804ffff001d02d803ffffffff0100f2052a010000004341046a68281e5668420d9a6d0093b8f3a3217f615a409c191f265b431834a619a3728e1fd3c65f21c812d77e5c87bccd2b72bfbae0e568eaf78a558d0fd173769f1fac00000000"}]}