{"hash": "00000000d210725e12df9669ee4d5e9bfff357dc08670264f733d47ce4cce9db", "ver": 1, "prev_block": "000000009f02fc0ad2cbbc173f83b9db831a6a0956754784020b31e336d91081", "mrkl_root": "ad3ad5d08e433103e0be2ca5cf8159eb8d416a37edc45fe0dd9b3bca221ae974", "time": 1231944968, "bits": 486604799, "next_block": ["000000005f919738051b00a5d428f0c8074629dc634e1947f28dbeab8bdd2ba2"], "fee": 0, "nonce": 89719246, "n_tx": 1, "size": 215, "block_index": 465, "main_chain": true, "height": 465, "weight": 860, "tx": [{"hash": "ad3ad5d08e433103e0be2ca5cf8159eb8d416a37edc45fe0dd9b3bca221ae974", "ver": 1, "vin_sz": 1, "vout_sz": 1, "size": 134, "weight": 536, "fee": 0, "relayed_by": "0.0.0.0", "lock_time": 0, "tx_index": 4113424470067059, "double_spend": false, "time": 1231944968, "block_index": 465, "block_height": 465, "inputs": [{"sequence": 4294967295, "witness": "", "script": "04ffff001d0150", "index": 0, "prev_out": null}], "out": [{"type": 0, "spent": true, "value": 5000000000, "spending_outpoints": [{"tx_index": 4190213854335511, "n": 0}], "n": 0, "tx_index": 4113424470067059, "script": "4104222cdcba67350ae6ccf038dfb335648bb439d64b212dd1cd3a5ee112ff76de25d026214c36877577fd9eb4fafa6d52100367256f54157be4b339a8f49837206eac", "addr": "1xgLCvWYJGuCxqPunbBiUxmSKLDwxZeu5"}], "hex": "01000000010000000000000000000000000000000000000000000000000000000000000000ffffffff0704ffff001d0150ffffffff0100f2052a01000000434104222cdcba67350ae6ccf038dfb335648bb439d64b212dd1cd3a5ee112ff76de25d026214c36877577fd9eb4fafa6d52100367256f54157be4b339a8f49837206eac00000000"}]}