{"hash": "000000005f919738051b00a5d428f0c8074629dc634e1947f28dbeab8bdd2ba2", "ver": 1, "prev_block": "00000000d210725e12df9669ee4d5e9bfff357dc08670264f733d47ce4cce9db", "mrkl_root": "86d0a48fc8aa2e15e761f41193f4be24fccb7527744ef70c2dcf23e7115cc413", "time": 1231945725, "bits": 486604799, "next_block": ["000000007e09159f8c9a2f19a3c859f3ced1e0b2f83d85b9f63670c67a627b20"], "fee": 0, "nonce": 4185047602, "n_tx": 1, "size": 216, "block_index": 466, "main_chain": true, "height": 466, "weight": 864, "tx": [{"hash": "86d0a48fc8aa2e15e761f41193f4be24fccb7527744ef70c2dcf23e7115cc413", "ver": 1, "vin_sz": 1, "vout_sz": 1, "size": 135, "weight": 540, "fee": 0, "relayed_by": "0.0.0.0", "lock_time": 0, "tx_index": 695490534237305, "double_spend": false, "time": 1231945725, "block_index": 466, "block_height": 466, "inputs": [{"sequence": 4294967295, "witness": "", "script": "04ffff001d02de03", "index": 0, "prev_out": null}], "out": [{"type": 0, "spent": false, "value": 5000000000, "spending_outpoints": [], "n": 0, "tx_index": 695490534237305, "script": "4104dcf588b5c06703279898a9be17e489e8898d6177316031e5f029d0133a83cc4b5b2117454560481e166d080e22791f26e8b201199e80716720f9586a9d916fa2ac", "addr": "1NSXoRoP8g2uGzUB8YjUKC9uC5ZWP5TH4i"}], "hex": "01000000010000000000000000000000000000000000000000000000000000000000000000ffffffff0804ffff001d02de03ffffffff0100f2052a01000000434104dcf588b5c06703279898a9be17e489e8898d6177316031e5f029d0133a83cc4b5b2117454560481e166d080e22791f26e8b201199e80716720f9586a9d916fa2ac00000000"}]}