{"hash": "000000007e09159f8c9a2f19a3c859f3ced1e0b2f83d85b9f63670c67a627b20", "ver": 1, "prev_block": "000000005f919738051b00a5d428f0c8074629dc634e1947f28dbeab8bdd2ba2", "mrkl_root": "f25fcf86e79e68dbc3adb583e50b628e793bfc8ac37141157b9b92afac07ca4a", "time": 1231946092, "bits": 486604799, "next_block": ["00000000f6009cbf9337145686ef3fe3ca2c0d640cd9005efa3c6c41b9714c01"], "fee": 0, "nonce": 506008622, "n_tx": 1, "size": 216, "block_index": 467, "main_chain": true, "height": 467, "weight": 864, "tx": [{"hash": "f25fcf86e79e68dbc3adb583e50b628e793bfc8ac37141157b9b92afac07ca4a", "ver": 1, "vin_sz": 1, "vout_sz": 1, "size": 135, "weight": 540, "fee": 0, "relayed_by": "0.0.0.0", "lock_time": 0, "tx_index": 2631410323419731, "double_spend": false, "time": 1231946092, "block_index": 467, "block_height": 467, "inputs": [{"sequence": 4294967295, "witness": "", "script": "04ffff001d02df03", "index": 0, "prev_out": null}], "out": [{"type": 0, "spent": false, "value": 5000000000, "spending_outpoints": [], "n": 0, "tx_index": 2631410323419731, "script": "4104ef08ab574bf6331c83fe35130a7699fc6d0d9912131aa58725d0686ead3bd2b61e7874b9aa9997d9bca45d19e783134d7c5eb4dcf8d72af5820512143d9c5225ac", "addr": "1AXEA54dfVmAhz1AnVB8YnDMBLG1eBgp7S"}], "hex": "01000000010000000000000000000000000000000000000000000000000000000000000000ffffffff0804ffff001d02df03ffffffff0100f2052a01000000434104ef08ab574bf6331c83fe35130a7699fc6d0d9912131aa58725d0686ead3bd2b61e7874b9aa9997d9bca45d19e783134d7c5eb4dcf8d72af5820512143d9c5225ac00000000"}]}