{"hash": "00000000f6009cbf9337145686ef3fe3ca2c0d640cd9005efa3c6c41b9714c01", "ver": 1, "prev_block": "000000007e09159f8c9a2f19a3c859f3ced1e0b2f83d85b9f63670c67a627b20", "mrkl_root": "d20e7764ed067cec8805443b0817a9948952d94bbaa7770f689925c40bfdcc4a", "time": 1231947213, "bits": 486604799, "next_block": ["000000004b5d03a850f59cf1a8e247de501c5052a4fd595b4f1adb605be4d510"], "fee": 0, "nonce": 1135660570, "n_tx": 1, "size": 216, "block_index": 468, "main_chain": true, "height": 468, "weight": 864, "tx": [{"hash": "d20e7764ed067cec8805443b0817a9948952d94bbaa7770f689925c40bfdcc4a", "ver": 1, "vin_sz": 1, "vout_sz": 1, "size": 135, "weight": 540, "fee": 0, "relayed_by": "0.0.0.0", "lock_time": 0, "tx_index": 2631816934098099, "double_spend": false, "time": 1231947213, "block_index": 468, "block_height": 468, "inputs": [{"sequence": 4294967295, "witness": "", "script": "04ffff001d02e903", "index": 0, "prev_out": null}], "out": [{"type": 0, "spent": false, "value": 5000000000, "spending_outpoints": [], "n": 0, "tx_index": 2631816934098099, "script": "4104af340a66a66e263dd447da129dce10d19b75614ec7c7861a9b3e21f5bb09b2bba4e6ed60921dda6d805d3fc68674f2f92c70430293d2db643ed26d569424d194ac", "addr": "1LdhVtZifPXE5TwFNCiEGsWWYoK6WG7VMW"}], "hex": "01000000010000000000000000000000000000000000000000000000000000000000000000ffffffff0804ffff001d02e903ffffffff0100f2052a01000000434104af340a66a66e263dd447da129dce10d19b75614ec7c7861a9b3e21f5bb09b2bba4e6ed60921dda6d805d3fc68674f2f92c70430293d2db643ed26d569424d194ac00000000"}]}