{"hash": "000000004b5d03a850f59cf1a8e247de501c5052a4fd595b4f1adb605be4d510", "ver": 1, "prev_block": "00000000f6009cbf9337145686ef3fe3ca2c0d640cd9005efa3c6c41b9714c01", "mrkl_root": "33db652c79452f6fdaca7e073eab0319829125e71e5a5e8ccb837091cb788e47", "time": 1231948092, "bits": 486604799, "next_block": ["00000000fd3546b2d219faa87a34e1e6593769d753cf86fc647c4ee2a07710d1"], "fee": 0, "nonce": 1885568045, "n_tx": 1, "size": 216, "block_index": 469, "main_chain": true, "height": 469, "weight": 864, "tx": [{"hash": "33db652c79452f6fdaca7e073eab0319829125e71e5a5e8ccb837091cb788e47", "ver": 1, "vin_sz": 1, "vout_sz": 1, "size": 135, "weight": 540, "fee": 0, "relayed_by": "0.0.0.0", "lock_time": 0, "tx_index": 2517671601122832, "double_spend": false, "time": 1231948092, "block_index": 469, "block_height": 469, "inputs": [{"sequence": 4294967295, "witness": "", "script": "04ffff001d02f503", "index": 0, "prev_out": null}], "out": [{"type": 0, "spent": false, "value": 5000000000, "spending_outpoints": [], "n": 0, "tx_index": 2517671601122832, "script": "4104ff0440b54c52ad744f06be1eee2c67bc28c8e03f05ba213c9b2aacf02407515b9b9053e03a22eb68fab600f19c97b61c998d407940dc9d1ec7a053e410886cebac", "addr": "19eSBrkZJJTAWYExDHEWjECQYAsqe5GVce"}], "hex": "01000000010000000000000000000000000000000000000000000000000000000000000000ffffffff0804ffff001d02f503ffffffff0100f2052a01000000434104ff0440b54c52ad744f06be1eee2c67bc28c8e03f05ba213c9b2aacf02407515b9b9053e03a22eb68fab600f19c97b61c998d407940dc9d1ec7a053e410886cebac00000000"}]}