{"hash": "000000001a5c4531f86aa874e711e1882038336e2610f70ce750cdd690c57a81", "ver": 1, "prev_block": "0000000002d5f429a2e3a9d9f82b777469696deb64038803c87833aa8ee9c08e", "mrkl_root": "d17b9c9c609309049dfb9005edd7011f02d7875ca7dab6effddf4648bb70eff6", "time": 1231612888, "bits": 486604799, "next_block": ["0000000088960278f4060b8747027b2aac0eb443aedbb1b75d1a72cf71826e89"], "fee": 0, "nonce": 2957174816, "n_tx": 1, "size": 215, "block_index": 47, "main_chain": true, "height": 47, "weight": 860, "tx": [{"hash": "d17b9c9c609309049dfb9005edd7011f02d7875ca7dab6effddf4648bb70eff6", "ver": 1, "vin_sz": 1, "vout_sz": 1, "size": 134, "weight": 536, "fee": 0, "relayed_by": "0.0.0.0", "lock_time": 0, "tx_index": 8688263966034139, "double_spend": false, "time": 1231612888, "block_index": 47, "block_height": 47, "inputs": [{"sequence": 4294967295, "witness": "", "script": "04ffff001d0130", "index": 0, "prev_out": null}], "out": [{"type": 0, "spent": false, "value": 5000000000, "spending_outpoints": [], "n": 0, "tx_index": 8688263966034139, "script": "4104a4a43c49a491bcad58a1578ddeed00ee13ac58c33a4d50fdb0b06d2ca97b6791097e127f9a4fe2d8f952b2420ef82c669c84d3e65d4fce257d707ec214562c29ac", "addr": "136g5f3pBidF6q8udL5GGb66CzG7AzBNwv"}], "hex": "01000000010000000000000000000000000000000000000000000000000000000000000000ffffffff0704ffff001d0130ffffffff0100f2052a01000000434104a4a43c49a491bcad58a1578ddeed00ee13ac58c33a4d50fdb0b06d2ca97b6791097e127f9a4fe2d8f952b2420ef82c669c84d3e65d4fce257d707ec214562c29ac00000000"}]}