{"hash": "00000000fd3546b2d219faa87a34e1e6593769d753cf86fc647c4ee2a07710d1", "ver": 1, "prev_block": "000000004b5d03a850f59cf1a8e247de501c5052a4fd595b4f1adb605be4d510", "mrkl_root": "8def47739d3cedc44c4cb8fa229f81445888eacd062ce31f28cbdf1aab52cba1", "time": 1231948637, "bits": 486604799, "next_block": ["0000000015484ff1d18afb86c7581eabeaf7146813ce140595e2f136af7a393b"], "fee": 0, "nonce": 3154583064, "n_tx": 1, "size": 216, "block_index": 470, "main_chain": true, "height": 470, "weight": 864, "tx": [{"hash": "8def47739d3cedc44c4cb8fa229f81445888eacd062ce31f28cbdf1aab52cba1", "ver": 1, "vin_sz": 1, "vout_sz": 1, "size": 135, "weight": 540, "fee": 0, "relayed_by": "0.0.0.0", "lock_time": 0, "tx_index": 5692628396104697, "double_spend": false, "time": 1231948637, "block_index": 470, "block_height": 470, "inputs": [{"sequence": 4294967295, "witness": "", "script": "04ffff001d02f903", "index": 0, "prev_out": null}], "out": [{"type": 0, "spent": false, "value": 5000000000, "spending_outpoints": [], "n": 0, "tx_index": 5692628396104697, "script": "4104392f1f24e73577104054e9ca7abd5a8f54b545270beeb61aaf87994240461d97d2cb047bf782089ba4b869146a3d9bdfca72c667ea1797eb67018a7ab61e77d7ac", "addr": "1AeLrEFkpqVGG69octuKxmBuRx8guRgtLQ"}], "hex": "01000000010000000000000000000000000000000000000000000000000000000000000000ffffffff0804ffff001d02f903ffffffff0100f2052a01000000434104392f1f24e73577104054e9ca7abd5a8f54b545270beeb61aaf87994240461d97d2cb047bf782089ba4b869146a3d9bdfca72c667ea1797eb67018a7ab61e77d7ac00000000"}]}