{"hash": "0000000015484ff1d18afb86c7581eabeaf7146813ce140595e2f136af7a393b", "ver": 1, "prev_block": "00000000fd3546b2d219faa87a34e1e6593769d753cf86fc647c4ee2a07710d1", "mrkl_root": "3f6f06c81e268c6f05e3a2f1bbf22775415653c42491eba360b131de5888ed91", "time": 1231949596, "bits": 486604799, "next_block": ["000000003cd7e9095cccffcb41462fb67407b66e0245717d06b322732fd2633e"], "fee": 0, "nonce": 2236918313, "n_tx": 1, "size": 216, "block_index": 471, "main_chain": true, "height": 471, "weight": 864, "tx": [{"hash": "3f6f06c81e268c6f05e3a2f1bbf22775415653c42491eba360b131de5888ed91", "ver": 1, "vin_sz": 1, "vout_sz": 1, "size": 135, "weight": 540, "fee": 0, "relayed_by": "0.0.0.0", "lock_time": 0, "tx_index": 5134380185667126, "double_spend": false, "time": 1231949596, "block_index": 471, "block_height": 471, "inputs": [{"sequence": 4294967295, "witness": "", "script": "04ffff001d02fb03", "index": 0, "prev_out": null}], "out": [{"type": 0, "spent": false, "value": 5000000000, "spending_outpoints": [], "n": 0, "tx_index": 5134380185667126, "script": "4104d25c6008773ee2a23ad0ee97553af1abd9e285462a3eaf02451ab4d9a206e052e5ea84a7be0ddd8c8b6d34060b19356aa5391efdd08553c4c74aa1b204a9d530ac", "addr": "1LQnVbdfsDFK9WNQBL64yAZ84nVHvYjVP6"}], "hex": "01000000010000000000000000000000000000000000000000000000000000000000000000ffffffff0804ffff001d02fb03ffffffff0100f2052a01000000434104d25c6008773ee2a23ad0ee97553af1abd9e285462a3eaf02451ab4d9a206e052e5ea84a7be0ddd8c8b6d34060b19356aa5391efdd08553c4c74aa1b204a9d530ac00000000"}]}