{"hash": "000000003cd7e9095cccffcb41462fb67407b66e0245717d06b322732fd2633e", "ver": 1, "prev_block": "0000000015484ff1d18afb86c7581eabeaf7146813ce140595e2f136af7a393b", "mrkl_root": "c14e72a67dabbcae60c8f42d2d52e62888d4a61756a977039fb8cb12193ed8a5", "time": 1231950232, "bits": 486604799, "next_block": ["00000000c9bc7c652131a084b2bd201dc3d4592d2251fac7b2e6ed1b674aebcf"], "fee": 0, "nonce": 2498884640, "n_tx": 1, "size": 216, "block_index": 472, "main_chain": true, "height": 472, "weight": 864, "tx": [{"hash": "c14e72a67dabbcae60c8f42d2d52e62888d4a61756a977039fb8cb12193ed8a5", "ver": 1, "vin_sz": 1, "vout_sz": 1, "size": 135, "weight": 540, "fee": 0, "relayed_by": "0.0.0.0", "lock_time": 0, "tx_index": 5835141547186551, "double_spend": false, "time": 1231950232, "block_index": 472, "block_height": 472, "inputs": [{"sequence": 4294967295, "witness": "", "script": "04ffff001d02ff03", "index": 0, "prev_out": null}], "out": [{"type": 0, "spent": false, "value": 5000000000, "spending_outpoints": [], "n": 0, "tx_index": 5835141547186551, "script": "41047c6c1b955c38287c97b7f0aaa59eee59079688213ea172c305ab25fdea3fd75081ce5c7183f49190cab8796f8bc483f6a8fdae5fb5826d4f763263989f42d1f1ac", "addr": "13FMvP1eY9uVqdmPWVUGDppo4qhVNMJH4W"}], "hex": "01000000010000000000000000000000000000000000000000000000000000000000000000ffffffff0804ffff001d02ff03ffffffff0100f2052a010000004341047c6c1b955c38287c97b7f0aaa59eee59079688213ea172c305ab25fdea3fd75081ce5c7183f49190cab8796f8bc483f6a8fdae5fb5826d4f763263989f42d1f1ac00000000"}]}