{"hash": "00000000c9bc7c652131a084b2bd201dc3d4592d2251fac7b2e6ed1b674aebcf", "ver": 1, "prev_block": "000000003cd7e9095cccffcb41462fb67407b66e0245717d06b322732fd2633e", "mrkl_root": "3e753e2eac1e76a9cee0196ca74d10ba9d2bf687e95bdd244333cddf259ac980", "time": 1231950272, "bits": 486604799, "next_block": ["000000000d15d5f0d9971ab61c06e59f2e63e4a9cfbbb79d8f2b9d32243ee540"], "fee": 0, "nonce": 7304370, "n_tx": 1, "size": 215, "block_index": 473, "main_chain": true, "height": 473, "weight": 860, "tx": [{"hash": "3e753e2eac1e76a9cee0196ca74d10ba9d2bf687e95bdd244333cddf259ac980", "ver": 1, "vin_sz": 1, "vout_sz": 1, "size": 134, "weight": 536, "fee": 0, "relayed_by": "0.0.0.0", "lock_time": 0, "tx_index": 4531307614566822, "double_spend": false, "time": 1231950272, "block_index": 473, "block_height": 473, "inputs": [{"sequence": 4294967295, "witness": "", "script": "04ffff001d0158", "index": 0, "prev_out": null}], "out": [{"type": 0, "spent": true, "value": 5000000000, "spending_outpoints": [{"tx_index": 4190213854335511, "n": 1}], "n": 0, "tx_index": 4531307614566822, "script": "4104da43d782c6506b926e9f5f7627ff62e8fc1e3c55ac5d22729a600743cfb98e0c2376ccd2d636ceb45a5a8630d31ff14253a60ffd2aabce6036b766ac73d4013bac", "addr": "17c6L9JUGVenn6CfqXuB93L3Tk8Tbzefui"}], "hex": "01000000010000000000000000000000000000000000000000000000000000000000000000ffffffff0704ffff001d0158ffffffff0100f2052a01000000434104da43d782c6506b926e9f5f7627ff62e8fc1e3c55ac5d22729a600743cfb98e0c2376ccd2d636ceb45a5a8630d31ff14253a60ffd2aabce6036b766ac73d4013bac00000000"}]}