{"hash": "000000000d15d5f0d9971ab61c06e59f2e63e4a9cfbbb79d8f2b9d32243ee540", "ver": 1, "prev_block": "00000000c9bc7c652131a084b2bd201dc3d4592d2251fac7b2e6ed1b674aebcf", "mrkl_root": "aa8628f83ff173c29006a75e344dc0b1bbad9a3cd02f33343d9a3581ae52f268", "time": 1231950841, "bits": 486604799, "next_block": ["00000000db64cbf7545cc66bc9a9eeb6f5ab53f843144be6f1932ac36fd72c04"], "fee": 0, "nonce": 3357564166, "n_tx": 1, "size": 216, "block_index": 474, "main_chain": true, "height": 474, "weight": 864, "tx": [{"hash": "aa8628f83ff173c29006a75e344dc0b1bbad9a3cd02f33343d9a3581ae52f268", "ver": 1, "vin_sz": 1, "vout_sz": 1, "size": 135, "weight": 540, "fee": 0, "relayed_by": "0.0.0.0", "lock_time": 0, "tx_index": 3692479313356467, "double_spend": false, "time": 1231950841, "block_index": 474, "block_height": 474, "inputs": [{"sequence": 4294967295, "witness": "", "script": "04ffff001d020204", "index": 0, "prev_out": null}], "out": [{"type": 0, "spent": false, "value": 5000000000, "spending_outpoints": [], "n": 0, "tx_index": 3692479313356467, "script": "4104e590d7adbfbfa8b320ef2d412c8cb5967af9f7e3058fdebe454b0c2f743009021265beb10c635a31d7cd803c249d0c6a582cad05b3f41148a30a99fc21bf42d8ac", "addr": "123u92nd75btiFD5qV1W9W14ZADHMVq6kE"}], "hex": "01000000010000000000000000000000000000000000000000000000000000000000000000ffffffff0804ffff001d020204ffffffff0100f2052a01000000434104e590d7adbfbfa8b320ef2d412c8cb5967af9f7e3058fdebe454b0c2f743009021265beb10c635a31d7cd803c249d0c6a582cad05b3f41148a30a99fc21bf42d8ac00000000"}]}