{"hash": "00000000db64cbf7545cc66bc9a9eeb6f5ab53f843144be6f1932ac36fd72c04", "ver": 1, "prev_block": "000000000d15d5f0d9971ab61c06e59f2e63e4a9cfbbb79d8f2b9d32243ee540", "mrkl_root": "8cc859fd41a05ede4b46f800042d91194ab0c66677d44bba0cbda61746174ccb", "time": 1231951310, "bits": 486604799, "next_block": ["000000008d3b06397627839cb42386e01e1e097432a9c5393170c4b6ce909372"], "fee": 0, "nonce": 4022490140, "n_tx": 1, "size": 216, "block_index": 475, "main_chain": true, "height": 475, "weight": 864, "tx": [{"hash": "8cc859fd41a05ede4b46f800042d91194ab0c66677d44bba0cbda61746174ccb", "ver": 1, "vin_sz": 1, "vout_sz": 1, "size": 135, "weight": 540, "fee": 0, "relayed_by": "0.0.0.0", "lock_time": 0, "tx_index": 7152885389522135, "double_spend": false, "time": 1231951310, "block_index": 475, "block_height": 475, "inputs": [{"sequence": 4294967295, "witness": "", "script": "04ffff001d020b04", "index": 0, "prev_out": null}], "out": [{"type": 0, "spent": false, "value": 5000000000, "spending_outpoints": [], "n": 0, "tx_index": 7152885389522135, "script": "41041de2f6f8366bd63dfd95c3ed8137eeb71447805a88dfd18d25bc7c4d5826fa2f838c96a6372d0e3a61f95993867b28ade8b7087a93f29569d07aaac40dec0076ac", "addr": "1J6kVzGhpB3pyv6uG5vjGefLvaK3BbzFs1"}], "hex": "01000000010000000000000000000000000000000000000000000000000000000000000000ffffffff0804ffff001d020b04ffffffff0100f2052a010000004341041de2f6f8366bd63dfd95c3ed8137eeb71447805a88dfd18d25bc7c4d5826fa2f838c96a6372d0e3a61f95993867b28ade8b7087a93f29569d07aaac40dec0076ac00000000"}]}