{"hash": "000000008d3b06397627839cb42386e01e1e097432a9c5393170c4b6ce909372", "ver": 1, "prev_block": "00000000db64cbf7545cc66bc9a9eeb6f5ab53f843144be6f1932ac36fd72c04", "mrkl_root": "dd98d02d478e3489fc0e0b48b879239768da395fa015e382ccf71ac821b15a6d", "time": 1231952108, "bits": 486604799, "next_block": ["00000000e15bee1a653b171741fdd792b4936a22990c7a08764349f06239001e"], "fee": 0, "nonce": 2744224261, "n_tx": 1, "size": 216, "block_index": 476, "main_chain": true, "height": 476, "weight": 864, "tx": [{"hash": "dd98d02d478e3489fc0e0b48b879239768da395fa015e382ccf71ac821b15a6d", "ver": 1, "vin_sz": 1, "vout_sz": 1, "size": 135, "weight": 540, "fee": 0, "relayed_by": "0.0.0.0", "lock_time": 0, "tx_index": 3847561160491870, "double_spend": false, "time": 1231952108, "block_index": 476, "block_height": 476, "inputs": [{"sequence": 4294967295, "witness": "", "script": "04ffff001d020f04", "index": 0, "prev_out": null}], "out": [{"type": 0, "spent": false, "value": 5000000000, "spending_outpoints": [], "n": 0, "tx_index": 3847561160491870, "script": "4104d8d243b14ea8b2e7c9d2f4ad9ba2ef5ac0ffc27e6eae2e2f363047b02c2f33ccb1088f07700a6cd99f4e4e57418eba0ba6b188833dda28ab7e1e65e1b9abd393ac", "addr": "15JpqundSRrcSjprqcXWk8P2SNTHChUHSL"}], "hex": "01000000010000000000000000000000000000000000000000000000000000000000000000ffffffff0804ffff001d020f04ffffffff0100f2052a01000000434104d8d243b14ea8b2e7c9d2f4ad9ba2ef5ac0ffc27e6eae2e2f363047b02c2f33ccb1088f07700a6cd99f4e4e57418eba0ba6b188833dda28ab7e1e65e1b9abd393ac00000000"}]}