{"hash": "00000000e15bee1a653b171741fdd792b4936a22990c7a08764349f06239001e", "ver": 1, "prev_block": "000000008d3b06397627839cb42386e01e1e097432a9c5393170c4b6ce909372", "mrkl_root": "0b545ad147e3d518c538d20d4c1ef574fee3706c0ed52575c43f03c6f20d511a", "time": 1231953157, "bits": 486604799, "next_block": ["00000000a1f0deedb6706ae3d238df794df735aa9c7adef928a67cfb84869b71"], "fee": 0, "nonce": 1087688990, "n_tx": 1, "size": 216, "block_index": 477, "main_chain": true, "height": 477, "weight": 864, "tx": [{"hash": "0b545ad147e3d518c538d20d4c1ef574fee3706c0ed52575c43f03c6f20d511a", "ver": 1, "vin_sz": 1, "vout_sz": 1, "size": 135, "weight": 540, "fee": 0, "relayed_by": "0.0.0.0", "lock_time": 0, "tx_index": 925933717995623, "double_spend": false, "time": 1231953157, "block_index": 477, "block_height": 477, "inputs": [{"sequence": 4294967295, "witness": "", "script": "04ffff001d021204", "index": 0, "prev_out": null}], "out": [{"type": 0, "spent": false, "value": 5000000000, "spending_outpoints": [], "n": 0, "tx_index": 925933717995623, "script": "410421aa901e193b12c576e94cbdbaf0a62f49c6fc005cd190e89e7681aaca39e8e9134df0975239485c3dbeb619f8639848ab77af4aa11ea251a64a0aea29c7075eac", "addr": "17DhxgcJiaiv6MGDGwwzRSryZgcbCj25AR"}], "hex": "01000000010000000000000000000000000000000000000000000000000000000000000000ffffffff0804ffff001d021204ffffffff0100f2052a0100000043410421aa901e193b12c576e94cbdbaf0a62f49c6fc005cd190e89e7681aaca39e8e9134df0975239485c3dbeb619f8639848ab77af4aa11ea251a64a0aea29c7075eac00000000"}]}