{"hash": "00000000a1f0deedb6706ae3d238df794df735aa9c7adef928a67cfb84869b71", "ver": 1, "prev_block": "00000000e15bee1a653b171741fdd792b4936a22990c7a08764349f06239001e", "mrkl_root": "443ff5269a744272769e03fbc0d8db6f2201f1db65c703bf037f4e63f53d889c", "time": 1231953545, "bits": 486604799, "next_block": ["00000000e2128d66b97e0b76b9fb06f58121e08b9b549a16411299dea3509cb3"], "fee": 0, "nonce": 372783402, "n_tx": 1, "size": 216, "block_index": 478, "main_chain": true, "height": 478, "weight": 864, "tx": [{"hash": "443ff5269a744272769e03fbc0d8db6f2201f1db65c703bf037f4e63f53d889c", "ver": 1, "vin_sz": 1, "vout_sz": 1, "size": 135, "weight": 540, "fee": 0, "relayed_by": "0.0.0.0", "lock_time": 0, "tx_index": 5507487007271375, "double_spend": false, "time": 1231953545, "block_index": 478, "block_height": 478, "inputs": [{"sequence": 4294967295, "witness": "", "script": "04ffff001d021304", "index": 0, "prev_out": null}], "out": [{"type": 0, "spent": false, "value": 5000000000, "spending_outpoints": [], "n": 0, "tx_index": 5507487007271375, "script": "4104258da70730b48a6c68a59331c83924a7cf4d88e014431bf789c02e33fed43d6cdb71d584d6992a831d088e9bc6972202e6572c45a00ee0976f318b9ef39e40a6ac", "addr": "1L43UKxQdX1MtzAwr9k9JaFwLjrCWYNz2u"}], "hex": "01000000010000000000000000000000000000000000000000000000000000000000000000ffffffff0804ffff001d021304ffffffff0100f2052a01000000434104258da70730b48a6c68a59331c83924a7cf4d88e014431bf789c02e33fed43d6cdb71d584d6992a831d088e9bc6972202e6572c45a00ee0976f318b9ef39e40a6ac00000000"}]}