{"hash": "00000000e2128d66b97e0b76b9fb06f58121e08b9b549a16411299dea3509cb3", "ver": 1, "prev_block": "00000000a1f0deedb6706ae3d238df794df735aa9c7adef928a67cfb84869b71", "mrkl_root": "c0a467a775d0923607f2fb3e066f8f93492817da1d4994a0c5b35935f6302757", "time": 1231954777, "bits": 486604799, "next_block": ["00000000ee9b6376dab707bb146c445aedab4fc6518abf995acdb74ffb4be7ac"], "fee": 0, "nonce": 1966300183, "n_tx": 1, "size": 216, "block_index": 479, "main_chain": true, "height": 479, "weight": 864, "tx": [{"hash": "c0a467a775d0923607f2fb3e066f8f93492817da1d4994a0c5b35935f6302757", "ver": 1, "vin_sz": 1, "vout_sz": 1, "size": 135, "weight": 540, "fee": 0, "relayed_by": "0.0.0.0", "lock_time": 0, "tx_index": 3066426777054006, "double_spend": false, "time": 1231954777, "block_index": 479, "block_height": 479, "inputs": [{"sequence": 4294967295, "witness": "", "script": "04ffff001d021e04", "index": 0, "prev_out": null}], "out": [{"type": 0, "spent": false, "value": 5000000000, "spending_outpoints": [], "n": 0, "tx_index": 3066426777054006, "script": "4104d3fea59a581dfc48dce6c4ad8dd559352788cc77ee8d83a71cfe19593ae243492b4bb35bd4ad781c40e74520d88838fbda2b67ad93939ff05dd4df5548eefec4ac", "addr": "1NqWdUe4vTjMkFPUFHkpNvq864WhCv5pqc"}], "hex": "01000000010000000000000000000000000000000000000000000000000000000000000000ffffffff0804ffff001d021e04ffffffff0100f2052a01000000434104d3fea59a581dfc48dce6c4ad8dd559352788cc77ee8d83a71cfe19593ae243492b4bb35bd4ad781c40e74520d88838fbda2b67ad93939ff05dd4df5548eefec4ac00000000"}]}