{"hash": "0000000088960278f4060b8747027b2aac0eb443aedbb1b75d1a72cf71826e89", "ver": 1, "prev_block": "000000001a5c4531f86aa874e711e1882038336e2610f70ce750cdd690c57a81", "mrkl_root": "32edede0b7d0c37340a665de057f418df634452f6bb80dcb8a5ff0aeddf1158a", "time": 1231613140, "bits": 486604799, "next_block": ["00000000f067c09041ff0fcee3d91aeb7fbcc5654d3f766af2b4377aaee68d00"], "fee": 0, "nonce": 3759171867, "n_tx": 1, "size": 215, "block_index": 48, "main_chain": true, "height": 48, "weight": 860, "tx": [{"hash": "32edede0b7d0c37340a665de057f418df634452f6bb80dcb8a5ff0aeddf1158a", "ver": 1, "vin_sz": 1, "vout_sz": 1, "size": 134, "weight": 536, "fee": 0, "relayed_by": "0.0.0.0", "lock_time": 0, "tx_index": 4858459417075211, "double_spend": false, "time": 1231613140, "block_index": 48, "block_height": 48, "inputs": [{"sequence": 4294967295, "witness": "", "script": "04ffff001d0137", "index": 0, "prev_out": null}], "out": [{"type": 0, "spent": false, "value": 5000000000, "spending_outpoints": [], "n": 0, "tx_index": 4858459417075211, "script": "410455f09e54cc544e9f61d0394db1bec90c30ea89c88c554196ebb68e9c8e02c5ea7f3291521dddb44abee835ed376152f04039634ae7af2b5ef2587776348d0b34ac", "addr": "1FaUNstQc4FUena9XodmbfHgoMD9yKpT4d"}], "hex": "01000000010000000000000000000000000000000000000000000000000000000000000000ffffffff0704ffff001d0137ffffffff0100f2052a0100000043410455f09e54cc544e9f61d0394db1bec90c30ea89c88c554196ebb68e9c8e02c5ea7f3291521dddb44abee835ed376152f04039634ae7af2b5ef2587776348d0b34ac00000000"}]}