{"hash": "00000000ee9b6376dab707bb146c445aedab4fc6518abf995acdb74ffb4be7ac", "ver": 1, "prev_block": "00000000e2128d66b97e0b76b9fb06f58121e08b9b549a16411299dea3509cb3", "mrkl_root": "fac56c7a1ba0252b7e32d792f0f3d16113800175e1dd493923a8bea5f3601596", "time": 1231955305, "bits": 486604799, "next_block": ["0000000086a40870d82307ba993f27e4f2485578bcf0d50a6baee40b9199806e"], "fee": 0, "nonce": 2329771544, "n_tx": 1, "size": 216, "block_index": 480, "main_chain": true, "height": 480, "weight": 864, "tx": [{"hash": "fac56c7a1ba0252b7e32d792f0f3d16113800175e1dd493923a8bea5f3601596", "ver": 1, "vin_sz": 1, "vout_sz": 1, "size": 135, "weight": 540, "fee": 0, "relayed_by": "0.0.0.0", "lock_time": 0, "tx_index": 5280594081920981, "double_spend": false, "time": 1231955305, "block_index": 480, "block_height": 480, "inputs": [{"sequence": 4294967295, "witness": "", "script": "04ffff001d022404", "index": 0, "prev_out": null}], "out": [{"type": 0, "spent": false, "value": 5000000000, "spending_outpoints": [], "n": 0, "tx_index": 5280594081920981, "script": "4104149e4ca2ed08206de40f66c58fc820e1a4cfce8ebc4a8873585eb8e79b73d92b0807c7d1b3254301d81e99d50135f27f7b2f7afb4ae1ce953d9e267f02b4b50dac", "addr": "1DKufMLSKT2NxzqAokRDLcYrSo44dC3VhB"}], "hex": "01000000010000000000000000000000000000000000000000000000000000000000000000ffffffff0804ffff001d022404ffffffff0100f2052a01000000434104149e4ca2ed08206de40f66c58fc820e1a4cfce8ebc4a8873585eb8e79b73d92b0807c7d1b3254301d81e99d50135f27f7b2f7afb4ae1ce953d9e267f02b4b50dac00000000"}]}