{"hash": "0000000086a40870d82307ba993f27e4f2485578bcf0d50a6baee40b9199806e", "ver": 1, "prev_block": "00000000ee9b6376dab707bb146c445aedab4fc6518abf995acdb74ffb4be7ac", "mrkl_root": "49c28111bd99ecc06a5310d3c84ca6a09684d50bf6057e559d84d78067ec47c3", "time": 1231956588, "bits": 486604799, "next_block": ["00000000351892a119b67fcb13dfc9655e79e91215f8f9609bb6907cd1208e4d"], "fee": 0, "nonce": 2358480167, "n_tx": 1, "size": 216, "block_index": 481, "main_chain": true, "height": 481, "weight": 864, "tx": [{"hash": "49c28111bd99ecc06a5310d3c84ca6a09684d50bf6057e559d84d78067ec47c3", "ver": 1, "vin_sz": 1, "vout_sz": 1, "size": 135, "weight": 540, "fee": 0, "relayed_by": "0.0.0.0", "lock_time": 0, "tx_index": 6870837641616112, "double_spend": false, "time": 1231956588, "block_index": 481, "block_height": 481, "inputs": [{"sequence": 4294967295, "witness": "", "script": "04ffff001d023104", "index": 0, "prev_out": null}], "out": [{"type": 0, "spent": false, "value": 5000000000, "spending_outpoints": [], "n": 0, "tx_index": 6870837641616112, "script": "4104adfe2959d6d39fc2cbb6376a482bb83998a089ec5a11f28b1cdc0a1d4e2b12a2ea5ee2cc03d0f3df46bb833aa0210a8ddef4af86edc3ff35661f996aaf7c653fac", "addr": "1GJ1k9vGtZk4dWWJMVGHKjNSu5frVatZ3P"}], "hex": "01000000010000000000000000000000000000000000000000000000000000000000000000ffffffff0804ffff001d023104ffffffff0100f2052a01000000434104adfe2959d6d39fc2cbb6376a482bb83998a089ec5a11f28b1cdc0a1d4e2b12a2ea5ee2cc03d0f3df46bb833aa0210a8ddef4af86edc3ff35661f996aaf7c653fac00000000"}]}