{"hash": "00000000351892a119b67fcb13dfc9655e79e91215f8f9609bb6907cd1208e4d", "ver": 1, "prev_block": "0000000086a40870d82307ba993f27e4f2485578bcf0d50a6baee40b9199806e", "mrkl_root": "b329818e8d651e98d97ca43c55af62f9eb901141138255978c435b45023fb7e0", "time": 1231957046, "bits": 486604799, "next_block": ["00000000ecffce6482a68bcd4f82511cbad2afd94d71469432501ca6a5f4811a"], "fee": 0, "nonce": 170049568, "n_tx": 1, "size": 216, "block_index": 482, "main_chain": true, "height": 482, "weight": 864, "tx": [{"hash": "b329818e8d651e98d97ca43c55af62f9eb901141138255978c435b45023fb7e0", "ver": 1, "vin_sz": 1, "vout_sz": 1, "size": 135, "weight": 540, "fee": 0, "relayed_by": "0.0.0.0", "lock_time": 0, "tx_index": 7906484504013672, "double_spend": false, "time": 1231957046, "block_index": 482, "block_height": 482, "inputs": [{"sequence": 4294967295, "witness": "", "script": "04ffff001d023204", "index": 0, "prev_out": null}], "out": [{"type": 0, "spent": false, "value": 5000000000, "spending_outpoints": [], "n": 0, "tx_index": 7906484504013672, "script": "410443f2759f6badf548ec9682fe76f0eb20fdf6e681951babd9b8c3a2e78962c5d836c7135e1a4cdb0e762812b140c657ce598ad06ed94522843bc02602d4c9ee4bac", "addr": "1L5L9Do6BQDg9VEREhhCzQvumJ6Nrk5jEB"}], "hex": "01000000010000000000000000000000000000000000000000000000000000000000000000ffffffff0804ffff001d023204ffffffff0100f2052a0100000043410443f2759f6badf548ec9682fe76f0eb20fdf6e681951babd9b8c3a2e78962c5d836c7135e1a4cdb0e762812b140c657ce598ad06ed94522843bc02602d4c9ee4bac00000000"}]}