{"hash": "00000000ecffce6482a68bcd4f82511cbad2afd94d71469432501ca6a5f4811a", "ver": 1, "prev_block": "00000000351892a119b67fcb13dfc9655e79e91215f8f9609bb6907cd1208e4d", "mrkl_root": "39ed112558fd501424e3b33bbcbf853ef9f24536ef0f8e6fbad2f5c5098173ad", "time": 1231958131, "bits": 486604799, "next_block": ["000000005eb185e781c9980b7bf3001170c606c7534f4543cc931d1d66a2b205"], "fee": 0, "nonce": 3474366240, "n_tx": 1, "size": 216, "block_index": 483, "main_chain": true, "height": 483, "weight": 864, "tx": [{"hash": "39ed112558fd501424e3b33bbcbf853ef9f24536ef0f8e6fbad2f5c5098173ad", "ver": 1, "vin_sz": 1, "vout_sz": 1, "size": 135, "weight": 540, "fee": 0, "relayed_by": "0.0.0.0", "lock_time": 0, "tx_index": 6102771127860922, "double_spend": false, "time": 1231958131, "block_index": 483, "block_height": 483, "inputs": [{"sequence": 4294967295, "witness": "", "script": "04ffff001d023304", "index": 0, "prev_out": null}], "out": [{"type": 0, "spent": false, "value": 5000000000, "spending_outpoints": [], "n": 0, "tx_index": 6102771127860922, "script": "41046669fa7aa0167f2ec25f903e331668bf2b8f51aba721cb0dfd7857bd03836397e4d7da5d21830fc92c4b5606c94b1882d532d0806817f37c9942ddd987dc0482ac", "addr": "1FVJ9qoD9di6cXXi47SUsNN18SLzYMaunP"}], "hex": "01000000010000000000000000000000000000000000000000000000000000000000000000ffffffff0804ffff001d023304ffffffff0100f2052a010000004341046669fa7aa0167f2ec25f903e331668bf2b8f51aba721cb0dfd7857bd03836397e4d7da5d21830fc92c4b5606c94b1882d532d0806817f37c9942ddd987dc0482ac00000000"}]}