{"hash": "000000005eb185e781c9980b7bf3001170c606c7534f4543cc931d1d66a2b205", "ver": 1, "prev_block": "00000000ecffce6482a68bcd4f82511cbad2afd94d71469432501ca6a5f4811a", "mrkl_root": "9701619feba0aa1158c4bf7626a3774a050b5b3d3ce51d5156c6eaadc899ed2f", "time": 1231958892, "bits": 486604799, "next_block": ["00000000754312ec7235128b6e6e3539c760f61c1988e4728a5aa1dcd9cbcbde"], "fee": 0, "nonce": 585998876, "n_tx": 1, "size": 216, "block_index": 484, "main_chain": true, "height": 484, "weight": 864, "tx": [{"hash": "9701619feba0aa1158c4bf7626a3774a050b5b3d3ce51d5156c6eaadc899ed2f", "ver": 1, "vin_sz": 1, "vout_sz": 1, "size": 135, "weight": 540, "fee": 0, "relayed_by": "0.0.0.0", "lock_time": 0, "tx_index": 1686321082252632, "double_spend": false, "time": 1231958892, "block_index": 484, "block_height": 484, "inputs": [{"sequence": 4294967295, "witness": "", "script": "04ffff001d023504", "index": 0, "prev_out": null}], "out": [{"type": 0, "spent": false, "value": 5000000000, "spending_outpoints": [], "n": 0, "tx_index": 1686321082252632, "script": "41040c93559baa19247fa92f6c7b9100445d74ff6654f97b1a4cbf794da0679828c7110a07e6133197d8a24f6f7d50738662693754450a0d78cece67d77cf8c1fc83ac", "addr": "1FF2ioStNnfFw4K5ijHMQevhZsfKy4jyP6"}], "hex": "01000000010000000000000000000000000000000000000000000000000000000000000000ffffffff0804ffff001d023504ffffffff0100f2052a010000004341040c93559baa19247fa92f6c7b9100445d74ff6654f97b1a4cbf794da0679828c7110a07e6133197d8a24f6f7d50738662693754450a0d78cece67d77cf8c1fc83ac00000000"}]}