{"hash": "00000000754312ec7235128b6e6e3539c760f61c1988e4728a5aa1dcd9cbcbde", "ver": 1, "prev_block": "000000005eb185e781c9980b7bf3001170c606c7534f4543cc931d1d66a2b205", "mrkl_root": "5b24dc42ca0b4e488e90e792b52a32eb5749b3c762cd377ddef24ffa885e5f30", "time": 1231958995, "bits": 486604799, "next_block": ["00000000d33226beeea5253068d1252b713fec143b7336a25b75cbc35afe45da"], "fee": 0, "nonce": 31296318, "n_tx": 1, "size": 215, "block_index": 485, "main_chain": true, "height": 485, "weight": 860, "tx": [{"hash": "5b24dc42ca0b4e488e90e792b52a32eb5749b3c762cd377ddef24ffa885e5f30", "ver": 1, "vin_sz": 1, "vout_sz": 1, "size": 134, "weight": 536, "fee": 0, "relayed_by": "0.0.0.0", "lock_time": 0, "tx_index": 1701957313972734, "double_spend": false, "time": 1231958995, "block_index": 485, "block_height": 485, "inputs": [{"sequence": 4294967295, "witness": "", "script": "04ffff001d0111", "index": 0, "prev_out": null}], "out": [{"type": 0, "spent": false, "value": 5000000000, "spending_outpoints": [], "n": 0, "tx_index": 1701957313972734, "script": "4104b23ab3cf9dd2b879483ff42d89015ce6c8488353fbc63675767d8c53084362b0b7636af22f8b2c8e201ced3e44ff2abab88a2aca0238233c02e4a4966a5234fcac", "addr": "1JYzcC3FH4LLoZrFsDmhNUZDSqTNua63Gm"}], "hex": "01000000010000000000000000000000000000000000000000000000000000000000000000ffffffff0704ffff001d0111ffffffff0100f2052a01000000434104b23ab3cf9dd2b879483ff42d89015ce6c8488353fbc63675767d8c53084362b0b7636af22f8b2c8e201ced3e44ff2abab88a2aca0238233c02e4a4966a5234fcac00000000"}]}