{"hash": "00000000d33226beeea5253068d1252b713fec143b7336a25b75cbc35afe45da", "ver": 1, "prev_block": "00000000754312ec7235128b6e6e3539c760f61c1988e4728a5aa1dcd9cbcbde", "mrkl_root": "36292df396be05354a267d3dc8d9895fbac2d88b65122c97ba8e0bd3c2946054", "time": 1231959366, "bits": 486604799, "next_block": ["000000009c0f206254fa93fb756b3809c653fcd0a1ebb0caacc5b72e88e29a53"], "fee": 0, "nonce": 934762027, "n_tx": 1, "size": 216, "block_index": 486, "main_chain": true, "height": 486, "weight": 864, "tx": [{"hash": "36292df396be05354a267d3dc8d9895fbac2d88b65122c97ba8e0bd3c2946054", "ver": 1, "vin_sz": 1, "vout_sz": 1, "size": 135, "weight": 540, "fee": 0, "relayed_by": "0.0.0.0", "lock_time": 0, "tx_index": 2968761260466545, "double_spend": false, "time": 1231959366, "block_index": 486, "block_height": 486, "inputs": [{"sequence": 4294967295, "witness": "", "script": "04ffff001d023804", "index": 0, "prev_out": null}], "out": [{"type": 0, "spent": false, "value": 5000000000, "spending_outpoints": [], "n": 0, "tx_index": 2968761260466545, "script": "4104423b3925e423d059e9f5795bbbcc9b9193cf383d73f3c70d081425e3338ed0c9d3142e251f95be52be82835cdfe922a6e4c9ad6055b395b9d36970b3442c6a68ac", "addr": "1LNQBmtWLwwsRS3efnjHQNT617wjrJb9wg"}], "hex": "01000000010000000000000000000000000000000000000000000000000000000000000000ffffffff0804ffff001d023804ffffffff0100f2052a01000000434104423b3925e423d059e9f5795bbbcc9b9193cf383d73f3c70d081425e3338ed0c9d3142e251f95be52be82835cdfe922a6e4c9ad6055b395b9d36970b3442c6a68ac00000000"}]}