{"hash": "000000009c0f206254fa93fb756b3809c653fcd0a1ebb0caacc5b72e88e29a53", "ver": 1, "prev_block": "00000000d33226beeea5253068d1252b713fec143b7336a25b75cbc35afe45da", "mrkl_root": "491daa5e476f3994cf533fc98bc8235faf36237be41c242eca1568c86f9ec99a", "time": 1231959983, "bits": 486604799, "next_block": ["00000000ecd04ea471aee3d438940b44fc375b10a3b71cad70abec7ff6b22938"], "fee": 0, "nonce": 3704164608, "n_tx": 1, "size": 216, "block_index": 487, "main_chain": true, "height": 487, "weight": 864, "tx": [{"hash": "491daa5e476f3994cf533fc98bc8235faf36237be41c242eca1568c86f9ec99a", "ver": 1, "vin_sz": 1, "vout_sz": 1, "size": 135, "weight": 540, "fee": 0, "relayed_by": "0.0.0.0", "lock_time": 0, "tx_index": 5446103591357698, "double_spend": false, "time": 1231959983, "block_index": 487, "block_height": 487, "inputs": [{"sequence": 4294967295, "witness": "", "script": "04ffff001d024d04", "index": 0, "prev_out": null}], "out": [{"type": 0, "spent": false, "value": 5000000000, "spending_outpoints": [], "n": 0, "tx_index": 5446103591357698, "script": "410435a19a1837408c21711e3ea159cf7149290c6378636da10ce5a203cfcb25fe7d3175800b8a230948236e07261932a9181499bc1476d267531350554625e9b449ac", "addr": "12FJ9JozCQm11i2YMEEk1n5Keeanpmywr2"}], "hex": "01000000010000000000000000000000000000000000000000000000000000000000000000ffffffff0804ffff001d024d04ffffffff0100f2052a0100000043410435a19a1837408c21711e3ea159cf7149290c6378636da10ce5a203cfcb25fe7d3175800b8a230948236e07261932a9181499bc1476d267531350554625e9b449ac00000000"}]}