{"hash": "00000000ecd04ea471aee3d438940b44fc375b10a3b71cad70abec7ff6b22938", "ver": 1, "prev_block": "000000009c0f206254fa93fb756b3809c653fcd0a1ebb0caacc5b72e88e29a53", "mrkl_root": "6d5dc1792e1fae2b0a2f51491ae97da30c477fc8eecd0e1b2d977650d74dbb67", "time": 1231961090, "bits": 486604799, "next_block": ["000000007f20688b2b5c654489c4d3b69196eba0129a364f89b97ae8e4cb0e33"], "fee": 0, "nonce": 2059340803, "n_tx": 1, "size": 216, "block_index": 488, "main_chain": true, "height": 488, "weight": 864, "tx": [{"hash": "6d5dc1792e1fae2b0a2f51491ae97da30c477fc8eecd0e1b2d977650d74dbb67", "ver": 1, "vin_sz": 1, "vout_sz": 1, "size": 135, "weight": 540, "fee": 0, "relayed_by": "0.0.0.0", "lock_time": 0, "tx_index": 3649733200056018, "double_spend": false, "time": 1231961090, "block_index": 488, "block_height": 488, "inputs": [{"sequence": 4294967295, "witness": "", "script": "04ffff001d024e04", "index": 0, "prev_out": null}], "out": [{"type": 0, "spent": false, "value": 5000000000, "spending_outpoints": [], "n": 0, "tx_index": 3649733200056018, "script": "4104da6807b38b6c6a96219de346803913225fee2d26244632a648ecec80a6eac1f07e25978260b3edbd7d68362b8019096fe4a61da271429651fa9a5978c582a18eac", "addr": "1LTrdDgoDBbR9vNnZThySd22LqBhfM5czQ"}], "hex": "01000000010000000000000000000000000000000000000000000000000000000000000000ffffffff0804ffff001d024e04ffffffff0100f2052a01000000434104da6807b38b6c6a96219de346803913225fee2d26244632a648ecec80a6eac1f07e25978260b3edbd7d68362b8019096fe4a61da271429651fa9a5978c582a18eac00000000"}]}