{"hash": "000000007f20688b2b5c654489c4d3b69196eba0129a364f89b97ae8e4cb0e33", "ver": 1, "prev_block": "00000000ecd04ea471aee3d438940b44fc375b10a3b71cad70abec7ff6b22938", "mrkl_root": "baec98f293455fb31e899fb2c5bfd290adc35e37b0083e1af067e781fdf3310c", "time": 1231962187, "bits": 486604799, "next_block": ["0000000020b23d4bcb733afc7c28ad9eff58e1f8108a15bfd8477cbdcb9bf3a0"], "fee": 0, "nonce": 2687703079, "n_tx": 1, "size": 216, "block_index": 489, "main_chain": true, "height": 489, "weight": 864, "tx": [{"hash": "baec98f293455fb31e899fb2c5bfd290adc35e37b0083e1af067e781fdf3310c", "ver": 1, "vin_sz": 1, "vout_sz": 1, "size": 135, "weight": 540, "fee": 0, "relayed_by": "0.0.0.0", "lock_time": 0, "tx_index": 429077965061356, "double_spend": false, "time": 1231962187, "block_index": 489, "block_height": 489, "inputs": [{"sequence": 4294967295, "witness": "", "script": "04ffff001d025a04", "index": 0, "prev_out": null}], "out": [{"type": 0, "spent": false, "value": 5000000000, "spending_outpoints": [], "n": 0, "tx_index": 429077965061356, "script": "410406081cf6c8a2873f4358c775a1891c517bffcda5420dbc1e4fd7adbd5cbd8454a5d7bc8057fe09c98fa1560d74886d9d25cd8e8c09f22b47a55a21618fd05cb2ac", "addr": "1yGHXbKrDRqURLxkQqw83EFE1L6WQvHZY"}], "hex": "01000000010000000000000000000000000000000000000000000000000000000000000000ffffffff0804ffff001d025a04ffffffff0100f2052a0100000043410406081cf6c8a2873f4358c775a1891c517bffcda5420dbc1e4fd7adbd5cbd8454a5d7bc8057fe09c98fa1560d74886d9d25cd8e8c09f22b47a55a21618fd05cb2ac00000000"}]}