{"hash": "00000000f067c09041ff0fcee3d91aeb7fbcc5654d3f766af2b4377aaee68d00", "ver": 1, "prev_block": "0000000088960278f4060b8747027b2aac0eb443aedbb1b75d1a72cf71826e89", "mrkl_root": "194c9715279d8626bc66f2b6552f2ae67b3df3a00b88553245b12bffffad5b59", "time": 1231613802, "bits": 486604799, "next_block": ["0000000026f34d197f653c5e80cb805e40612eadb0f45d00d7ea4164a20faa33"], "fee": 0, "nonce": 3014810412, "n_tx": 1, "size": 215, "block_index": 49, "main_chain": true, "height": 49, "weight": 860, "tx": [{"hash": "194c9715279d8626bc66f2b6552f2ae67b3df3a00b88553245b12bffffad5b59", "ver": 1, "vin_sz": 1, "vout_sz": 1, "size": 134, "weight": 536, "fee": 0, "relayed_by": "0.0.0.0", "lock_time": 0, "tx_index": 3144009476203894, "double_spend": false, "time": 1231613802, "block_index": 49, "block_height": 49, "inputs": [{"sequence": 4294967295, "witness": "", "script": "04ffff001d013a", "index": 0, "prev_out": null}], "out": [{"type": 0, "spent": false, "value": 5000000000, "spending_outpoints": [], "n": 0, "tx_index": 3144009476203894, "script": "41048644947f13359243d46be6436fb04bc20f92c1ed34b9548b31838bdb5ef721da70c360f2a8886e47addf7b3f87142b5245d95c9bbd6e36f43055998174db8417ac", "addr": "18K6LJ9wFKSkYDA3dspswRPWiPgNZKvN7d"}], "hex": "01000000010000000000000000000000000000000000000000000000000000000000000000ffffffff0704ffff001d013affffffff0100f2052a010000004341048644947f13359243d46be6436fb04bc20f92c1ed34b9548b31838bdb5ef721da70c360f2a8886e47addf7b3f87142b5245d95c9bbd6e36f43055998174db8417ac00000000"}]}