{"hash": "0000000020b23d4bcb733afc7c28ad9eff58e1f8108a15bfd8477cbdcb9bf3a0", "ver": 1, "prev_block": "000000007f20688b2b5c654489c4d3b69196eba0129a364f89b97ae8e4cb0e33", "mrkl_root": "54d5c9c1d183a33f02d77f7a3c92a640d1721227c8ca476489bdd0b9b81ea3ae", "time": 1231962298, "bits": 486604799, "next_block": ["00000000244c1b0da1196b989d7557168c5e1b4253f253f2aa8bffd05c7f67b4"], "fee": 0, "nonce": 12258726, "n_tx": 1, "size": 216, "block_index": 490, "main_chain": true, "height": 490, "weight": 864, "tx": [{"hash": "54d5c9c1d183a33f02d77f7a3c92a640d1721227c8ca476489bdd0b9b81ea3ae", "ver": 1, "vin_sz": 1, "vout_sz": 1, "size": 135, "weight": 540, "fee": 0, "relayed_by": "0.0.0.0", "lock_time": 0, "tx_index": 6144499786398231, "double_spend": false, "time": 1231962298, "block_index": 490, "block_height": 490, "inputs": [{"sequence": 4294967295, "witness": "", "script": "04ffff001d028500", "index": 0, "prev_out": null}], "out": [{"type": 0, "spent": true, "value": 5000000000, "spending_outpoints": [{"tx_index": 3047398492892449, "n": 34}], "n": 0, "tx_index": 6144499786398231, "script": "4104474286499a8e856b36ad2f397d4dd2ebddc94ceb49c9d80515c747aa46e592378acfbfb6ebde508c8958542d5510e3c8e55e3c4cf0536b2722235d1238951b2dac", "addr": "15ALyVo8ZuoTikHMYRq6p8nGr17gxQApXf"}], "hex": "01000000010000000000000000000000000000000000000000000000000000000000000000ffffffff0804ffff001d028500ffffffff0100f2052a01000000434104474286499a8e856b36ad2f397d4dd2ebddc94ceb49c9d80515c747aa46e592378acfbfb6ebde508c8958542d5510e3c8e55e3c4cf0536b2722235d1238951b2dac00000000"}]}