{"hash": "00000000244c1b0da1196b989d7557168c5e1b4253f253f2aa8bffd05c7f67b4", "ver": 1, "prev_block": "0000000020b23d4bcb733afc7c28ad9eff58e1f8108a15bfd8477cbdcb9bf3a0", "mrkl_root": "c8b60292a8c72eaf7184bc6ed770076527a5960d0647ae9fe896be0c5a1fb2cc", "time": 1231962666, "bits": 486604799, "next_block": ["000000008d9b5010b996bbab558e88e9fe8a8b42751dfcaa79217f9a66642e65"], "fee": 0, "nonce": 3404162856, "n_tx": 1, "size": 216, "block_index": 491, "main_chain": true, "height": 491, "weight": 864, "tx": [{"hash": "c8b60292a8c72eaf7184bc6ed770076527a5960d0647ae9fe896be0c5a1fb2cc", "ver": 1, "vin_sz": 1, "vout_sz": 1, "size": 135, "weight": 540, "fee": 0, "relayed_by": "0.0.0.0", "lock_time": 0, "tx_index": 7202092871686098, "double_spend": false, "time": 1231962666, "block_index": 491, "block_height": 491, "inputs": [{"sequence": 4294967295, "witness": "", "script": "04ffff001d025d04", "index": 0, "prev_out": null}], "out": [{"type": 0, "spent": false, "value": 5000000000, "spending_outpoints": [], "n": 0, "tx_index": 7202092871686098, "script": "41047118530288ca30821cb0f4f9b37cb8ad80ee18503de06ec5b8440457e19b94b53282341bb13311dc911fa9759b859246c6bfa4dcf661065b2a60c1e0e9004079ac", "addr": "1B3gzJRMfzpsTcgxinp7tCP89E4rFhQ6cr"}], "hex": "01000000010000000000000000000000000000000000000000000000000000000000000000ffffffff0804ffff001d025d04ffffffff0100f2052a010000004341047118530288ca30821cb0f4f9b37cb8ad80ee18503de06ec5b8440457e19b94b53282341bb13311dc911fa9759b859246c6bfa4dcf661065b2a60c1e0e9004079ac00000000"}]}