{"hash": "000000008d9b5010b996bbab558e88e9fe8a8b42751dfcaa79217f9a66642e65", "ver": 1, "prev_block": "00000000244c1b0da1196b989d7557168c5e1b4253f253f2aa8bffd05c7f67b4", "mrkl_root": "fd65bf41342e136824478ff793ec6af047e30300b25e3a5b5e8ba662a9ecf29f", "time": 1231963006, "bits": 486604799, "next_block": ["0000000008884067dbe80128da09a16315bb208a69e9894287a3c9e0fb671f8b"], "fee": 0, "nonce": 1179073569, "n_tx": 1, "size": 216, "block_index": 492, "main_chain": true, "height": 492, "weight": 864, "tx": [{"hash": "fd65bf41342e136824478ff793ec6af047e30300b25e3a5b5e8ba662a9ecf29f", "ver": 1, "vin_sz": 1, "vout_sz": 1, "size": 135, "weight": 540, "fee": 0, "relayed_by": "0.0.0.0", "lock_time": 0, "tx_index": 5627702445626577, "double_spend": false, "time": 1231963006, "block_index": 492, "block_height": 492, "inputs": [{"sequence": 4294967295, "witness": "", "script": "04ffff001d025f04", "index": 0, "prev_out": null}], "out": [{"type": 0, "spent": false, "value": 5000000000, "spending_outpoints": [], "n": 0, "tx_index": 5627702445626577, "script": "4104404d142edc57a45df4e5622cc3d3d2ada0bd748298d92092d86f8114f7bf73119225789046ac3ef2a69080b0bf50e329e474cbbf50fad7b2b9540698ec763087ac", "addr": "1fWnu8Lc5TrtFSUpRPqixxFYq614rK3MW"}], "hex": "01000000010000000000000000000000000000000000000000000000000000000000000000ffffffff0804ffff001d025f04ffffffff0100f2052a01000000434104404d142edc57a45df4e5622cc3d3d2ada0bd748298d92092d86f8114f7bf73119225789046ac3ef2a69080b0bf50e329e474cbbf50fad7b2b9540698ec763087ac00000000"}]}