{"hash": "0000000008884067dbe80128da09a16315bb208a69e9894287a3c9e0fb671f8b", "ver": 1, "prev_block": "000000008d9b5010b996bbab558e88e9fe8a8b42751dfcaa79217f9a66642e65", "mrkl_root": "8bea4c52e497aac81f3c6520febe1a2bff73dfa04d89855c32f4f5cd27d564c4", "time": 1231963103, "bits": 486604799, "next_block": ["000000004fb61ae8e99040c4e1e3b4d333dbe867f97f63ab4238cba80f59204a"], "fee": 0, "nonce": 22488128, "n_tx": 1, "size": 215, "block_index": 493, "main_chain": true, "height": 493, "weight": 860, "tx": [{"hash": "8bea4c52e497aac81f3c6520febe1a2bff73dfa04d89855c32f4f5cd27d564c4", "ver": 1, "vin_sz": 1, "vout_sz": 1, "size": 134, "weight": 536, "fee": 0, "relayed_by": "0.0.0.0", "lock_time": 0, "tx_index": 6909995261738686, "double_spend": false, "time": 1231963103, "block_index": 493, "block_height": 493, "inputs": [{"sequence": 4294967295, "witness": "", "script": "04ffff001d016c", "index": 0, "prev_out": null}], "out": [{"type": 0, "spent": true, "value": 5000000000, "spending_outpoints": [{"tx_index": 4190213854335511, "n": 5}], "n": 0, "tx_index": 6909995261738686, "script": "4104b5cc3e2c3ab73de6445c9adbe67e189a3acaa95aa0a328705c42d4cff747b0b2e3f63ad0ff231d7598d98a0b6d5ed199ec2831928bff1e9ee59de7dea9b8f6a5ac", "addr": "1L9kYwPr6SWvp8zsxvJARHt4UUVk51WQcf"}], "hex": "01000000010000000000000000000000000000000000000000000000000000000000000000ffffffff0704ffff001d016cffffffff0100f2052a01000000434104b5cc3e2c3ab73de6445c9adbe67e189a3acaa95aa0a328705c42d4cff747b0b2e3f63ad0ff231d7598d98a0b6d5ed199ec2831928bff1e9ee59de7dea9b8f6a5ac00000000"}]}