{"hash": "000000004fb61ae8e99040c4e1e3b4d333dbe867f97f63ab4238cba80f59204a", "ver": 1, "prev_block": "0000000008884067dbe80128da09a16315bb208a69e9894287a3c9e0fb671f8b", "mrkl_root": "1ac8783028a63fa8b36ade0911bb0fb7655c268156c38a439cf1e8f6cfb2c585", "time": 1231963503, "bits": 486604799, "next_block": ["00000000e47349de5a0193abc5a2fe0be81cb1d1987e45ab85f3289d54cddc4d"], "fee": 0, "nonce": 1933985841, "n_tx": 1, "size": 216, "block_index": 494, "main_chain": true, "height": 494, "weight": 864, "tx": [{"hash": "1ac8783028a63fa8b36ade0911bb0fb7655c268156c38a439cf1e8f6cfb2c585", "ver": 1, "vin_sz": 1, "vout_sz": 1, "size": 135, "weight": 540, "fee": 0, "relayed_by": "0.0.0.0", "lock_time": 0, "tx_index": 4706692960804126, "double_spend": false, "time": 1231963503, "block_index": 494, "block_height": 494, "inputs": [{"sequence": 4294967295, "witness": "", "script": "04ffff001d026004", "index": 0, "prev_out": null}], "out": [{"type": 0, "spent": false, "value": 5000000000, "spending_outpoints": [], "n": 0, "tx_index": 4706692960804126, "script": "4104b161f265fbc99140b7cb5ab3fb682e9fae145e8b7c6609c017d12948455d7d5bfc91af26c32769a304b70efaa6fd537c7f11b9da3849baa895d5d6ad5db593a6ac", "addr": "18YQ5cTEYZ6APbmx3nxMERN4ickgzGCr1v"}], "hex": "01000000010000000000000000000000000000000000000000000000000000000000000000ffffffff0804ffff001d026004ffffffff0100f2052a01000000434104b161f265fbc99140b7cb5ab3fb682e9fae145e8b7c6609c017d12948455d7d5bfc91af26c32769a304b70efaa6fd537c7f11b9da3849baa895d5d6ad5db593a6ac00000000"}]}