{"hash": "00000000e47349de5a0193abc5a2fe0be81cb1d1987e45ab85f3289d54cddc4d", "ver": 1, "prev_block": "000000004fb61ae8e99040c4e1e3b4d333dbe867f97f63ab4238cba80f59204a", "mrkl_root": "d2a17dd46af545946132b7b6107b93f534483d79460c3dd23a26c68b498fe0c4", "time": 1231964596, "bits": 486604799, "next_block": ["00000000b0c5a240b2a61d2e75692224efd4cbecdf6eaf4cc2cf477ca7c270e7"], "fee": 0, "nonce": 883307825, "n_tx": 1, "size": 216, "block_index": 495, "main_chain": true, "height": 495, "weight": 864, "tx": [{"hash": "d2a17dd46af545946132b7b6107b93f534483d79460c3dd23a26c68b498fe0c4", "ver": 1, "vin_sz": 1, "vout_sz": 1, "size": 135, "weight": 540, "fee": 0, "relayed_by": "0.0.0.0", "lock_time": 0, "tx_index": 6927000181766340, "double_spend": false, "time": 1231964596, "block_index": 495, "block_height": 495, "inputs": [{"sequence": 4294967295, "witness": "", "script": "04ffff001d026204", "index": 0, "prev_out": null}], "out": [{"type": 0, "spent": false, "value": 5000000000, "spending_outpoints": [], "n": 0, "tx_index": 6927000181766340, "script": "41044f66f62f6c3456332a3bdbfa30dda1b87744c25fac83955f995e60d60b53880ae7d3cefbb2e9149a4c099313d09e26b08951a8efc7c079013a2ef47294890477ac", "addr": "1C8eE3ryFJQyg2xaneUPyUYXoWgfBadwSZ"}], "hex": "01000000010000000000000000000000000000000000000000000000000000000000000000ffffffff0804ffff001d026204ffffffff0100f2052a010000004341044f66f62f6c3456332a3bdbfa30dda1b87744c25fac83955f995e60d60b53880ae7d3cefbb2e9149a4c099313d09e26b08951a8efc7c079013a2ef47294890477ac00000000"}]}