{"hash": "00000000b0c5a240b2a61d2e75692224efd4cbecdf6eaf4cc2cf477ca7c270e7", "ver": 1, "prev_block": "00000000e47349de5a0193abc5a2fe0be81cb1d1987e45ab85f3289d54cddc4d", "mrkl_root": "4c917a410f4e899195f816081844e56aceda71c4cc4fe634aebe9437e57344bf", "time": 1231965655, "bits": 486604799, "next_block": ["00000000c39ea29ad310c1f80409e24b3fbfd671c0b3599198b7cfdebf790bde"], "fee": 0, "nonce": 2067413810, "n_tx": 2, "size": 643, "block_index": 496, "main_chain": true, "height": 496, "weight": 2572, "tx": [{"hash": "77dfc2fe598419b00641c296181a96cf16943697f573480b023b77cce82ada21", "ver": 1, "vin_sz": 1, "vout_sz": 1, "size": 135, "weight": 540, "fee": 0, "relayed_by": "0.0.0.0", "lock_time": 0, "tx_index": 1191069007580903, "double_spend": false, "time": 1231965655, "block_index": 496, "block_height": 496, "inputs": [{"sequence": 4294967295, "witness": "", "script": "04ffff001d026e04", "index": 0, "prev_out": null}], "out": [{"type": 0, "spent": false, "value": 5000000000, "spending_outpoints": [], "n": 0, "tx_index": 1191069007580903, "script": "410446ef0102d1ec5240f0d061a4246c1bdef63fc3dbab7733052fbbf0ecd8f41fc26bf049ebb4f9527f374280259e7cfa99c48b0e3f39c51347a19a5819651503a5ac", "addr": "1J58xY6MTsp5r9CwWqVsq8syqxiZxJBAKm"}], "hex": "01000000010000000000000000000000000000000000000000000000000000000000000000ffffffff0804ffff001d026e04ffffffff0100f2052a0100000043410446ef0102d1ec5240f0d061a4246c1bdef63fc3dbab7733052fbbf0ecd8f41fc26bf049ebb4f9527f374280259e7cfa99c48b0e3f39c51347a19a5819651503a5ac00000000"}, {"hash": "a3b0e9e7cddbbe78270fa4182a7675ff00b92872d8df7d14265a2b1e379a9d33", "ver": 1, "vin_sz": 3, "vout_sz": 1, "size": 427, "weight": 1708, "fee": 0, "relayed_by": "0.0.0.0", "lock_time": 0, "tx_index": 1816063685936491, "double_spend": false, "time": 1231965655, "block_index": 496, "block_height": 496, "inputs": [{"sequence": 4294967295, "witness": "", "script": "483045022100cb2c6b346a978ab8c61b18b5e9397755cbd17d6eb2fe0083ef32e067fa6c785a02206ce44e613f31d9a6b0517e46f3db1576e9812cc98d159bfdaf759a5014081b5c01", "index": 0, "prev_out": {"spent": true, "script": "41044ca7baf6d8b658abd04223909d82f1764740bdc9317255f54e4910f888bd82950e33236798517591e4c2181f69b5eaa2fa1f21866780a0cc5d8396a04fd36310ac", "spending_outpoints": [{"tx_index": 1816063685936491, "n": 0}], "tx_index": 1195082806408194, "value": 5000000000, "addr": "18SH9vwx24L5cTabfkgtGMjF8A56pD9AUJ", "n": 0, "type": 0}}, {"sequence": 4294967295, "witness": "", "script": "483045022047957cdd957cfd0becd642f6b84d82f49b6cb4c51a91f49246908af7c3cfdf4a022100e96b46621f1bffcf5ea5982f88cef651e9354f5791602369bf5a82a6cd61a62501", "index": 1, "prev_out": {"spent": true, "script": "4104fe1b9ccf732e1f6b760c5ed3152388eeeadd4a073e621f741eb157e6a62e3547c8e939abbd6a513bf3a1fbe28f9ea85a4e64c526702435d726f7ff14da40bae4ac", "spending_outpoints": [{"tx_index": 1816063685936491, "n": 1}], "tx_index": 4285570218664044, "value": 100000000, "addr": "15NUwyBYrZcnUgTagsm1A7M2yL2GntpuaZ", "n": 0, "type": 0}}, {"sequence": 4294967295, "witness": "", "script": "47304402204165be9a4cbab8049e1af9723b96199bfd3e85f44c6b4c0177e3962686b26073022028f638da23fc003760861ad481ead4099312c60030d4cb57820ce4d33812a5ce01", "index": 2, "prev_out": {"spent": true, "script": "4104bed827d37474beffb37efe533701ac1f7c600957a4487be8b371346f016826ee6f57ba30d88a472a0e4ecd2f07599a795f1f01de78d791b382e65ee1c58b4508ac", "spending_outpoints": [{"tx_index": 1816063685936491, "n": 2}], "tx_index": 8938199527718782, "value": 1000000000, "addr": "1ByLSV2gLRcuqUmfdYcpPQH8Npm8cccsFg", "n": 0, "type": 0}}], "out": [{"type": 0, "spent": false, "value": 6100000000, "spending_outpoints": [], "n": 0, "tx_index": 1816063685936491, "script": "4104ea1feff861b51fe3f5f8a3b12d0f4712db80e919548a80839fc47c6a21e66d957e9c5d8cd108c7a2d2324bad71f9904ac0ae7336507d785b17a2c115e427a32fac", "addr": "1BBz9Z15YpELQ4QP5sEKb1SwxkcmPb5TMs"}], "hex": "010000000321f75f3139a013f50f315b23b0c9a2b6eac31e2bec98e5891c924664889942260000000049483045022100cb2c6b346a978ab8c61b18b5e9397755cbd17d6eb2fe0083ef32e067fa6c785a02206ce44e613f31d9a6b0517e46f3db1576e9812cc98d159bfdaf759a5014081b5c01ffffffff79cda0945903627c3da1f85fc95d0b8ee3e76ae0cfdc9a65d09744b1f8fc85430000000049483045022047957cdd957cfd0becd642f6b84d82f49b6cb4c51a91f49246908af7c3cfdf4a022100e96b46621f1bffcf5ea5982f88cef651e9354f5791602369bf5a82a6cd61a62501fffffffffe09f5fe3ffbf5ee97a54eb5e5069e9da6b4856ee86fc52938c2f979b0f38e82000000004847304402204165be9a4cbab8049e1af9723b96199bfd3e85f44c6b4c0177e3962686b26073022028f638da23fc003760861ad481ead4099312c60030d4cb57820ce4d33812a5ce01ffffffff01009d966b01000000434104ea1feff861b51fe3f5f8a3b12d0f4712db80e919548a80839fc47c6a21e66d957e9c5d8cd108c7a2d2324bad71f9904ac0ae7336507d785b17a2c115e427a32fac00000000"}]}