{"hash": "00000000c39ea29ad310c1f80409e24b3fbfd671c0b3599198b7cfdebf790bde", "ver": 1, "prev_block": "00000000b0c5a240b2a61d2e75692224efd4cbecdf6eaf4cc2cf477ca7c270e7", "mrkl_root": "5bf65baa0bdda46e32f558cd0172c0ea4b9ab5331f19467333c3c8ad665bf33c", "time": 1231966316, "bits": 486604799, "next_block": ["00000000693a6d6b068cab3e207d570764f6bad293e3e98920246eeda81c496a"], "fee": 0, "nonce": 3540538911, "n_tx": 1, "size": 216, "block_index": 497, "main_chain": true, "height": 497, "weight": 864, "tx": [{"hash": "5bf65baa0bdda46e32f558cd0172c0ea4b9ab5331f19467333c3c8ad665bf33c", "ver": 1, "vin_sz": 1, "vout_sz": 1, "size": 135, "weight": 540, "fee": 0, "relayed_by": "0.0.0.0", "lock_time": 0, "tx_index": 2144509061609752, "double_spend": false, "time": 1231966316, "block_index": 497, "block_height": 497, "inputs": [{"sequence": 4294967295, "witness": "", "script": "04ffff001d027104", "index": 0, "prev_out": null}], "out": [{"type": 0, "spent": false, "value": 5000000000, "spending_outpoints": [], "n": 0, "tx_index": 2144509061609752, "script": "410480b8d11042dba0e8175bd4fb0067f6b01efd10f0378b9abb640c1feb4b329941b5af394ce71a66cc1f49f9227db9f4eb742bae7eeea6a48f79934a6c02fca3feac", "addr": "1G3NQmRCkEq2pwphofF1R7ewtHksEQ8ptf"}], "hex": "01000000010000000000000000000000000000000000000000000000000000000000000000ffffffff0804ffff001d027104ffffffff0100f2052a0100000043410480b8d11042dba0e8175bd4fb0067f6b01efd10f0378b9abb640c1feb4b329941b5af394ce71a66cc1f49f9227db9f4eb742bae7eeea6a48f79934a6c02fca3feac00000000"}]}