{"hash": "00000000693a6d6b068cab3e207d570764f6bad293e3e98920246eeda81c496a", "ver": 1, "prev_block": "00000000c39ea29ad310c1f80409e24b3fbfd671c0b3599198b7cfdebf790bde", "mrkl_root": "354fba7bef9a8ff42a99b3b5776ba2970bd04efc4c3ec9796b1aaddf485c7808", "time": 1231966976, "bits": 486604799, "next_block": ["00000000806df68baab17e49e567d4211177fef4849ffd8242d095c6a1169f45"], "fee": 0, "nonce": 2814320897, "n_tx": 1, "size": 216, "block_index": 498, "main_chain": true, "height": 498, "weight": 864, "tx": [{"hash": "354fba7bef9a8ff42a99b3b5776ba2970bd04efc4c3ec9796b1aaddf485c7808", "ver": 1, "vin_sz": 1, "vout_sz": 1, "size": 135, "weight": 540, "fee": 0, "relayed_by": "0.0.0.0", "lock_time": 0, "tx_index": 298017196078499, "double_spend": false, "time": 1231966976, "block_index": 498, "block_height": 498, "inputs": [{"sequence": 4294967295, "witness": "", "script": "04ffff001d027204", "index": 0, "prev_out": null}], "out": [{"type": 0, "spent": false, "value": 5000000000, "spending_outpoints": [], "n": 0, "tx_index": 298017196078499, "script": "4104219b978954ff9ad528f1f2142aa178aecb0307d617df0ac68bd9521284cbe5357c7dba0414848cda0f72a90df65cc4c063b20bd976b67b56d975a8ee2d2bff48ac", "addr": "1HH9PTNWrdsprWfEAyCYHmsnwYctqvcKmV"}], "hex": "01000000010000000000000000000000000000000000000000000000000000000000000000ffffffff0804ffff001d027204ffffffff0100f2052a01000000434104219b978954ff9ad528f1f2142aa178aecb0307d617df0ac68bd9521284cbe5357c7dba0414848cda0f72a90df65cc4c063b20bd976b67b56d975a8ee2d2bff48ac00000000"}]}