{"hash": "00000000806df68baab17e49e567d4211177fef4849ffd8242d095c6a1169f45", "ver": 1, "prev_block": "00000000693a6d6b068cab3e207d570764f6bad293e3e98920246eeda81c496a", "mrkl_root": "4276b897239b3f35a0d341ed09f7b8fc33da58ca2a641d82681254ec4efdef43", "time": 1231967680, "bits": 486604799, "next_block": ["000000004ff664bfa7d217f6df64c1627089061429408e1da5ef903b8f3c77db"], "fee": 0, "nonce": 1725922346, "n_tx": 1, "size": 216, "block_index": 499, "main_chain": true, "height": 499, "weight": 864, "tx": [{"hash": "4276b897239b3f35a0d341ed09f7b8fc33da58ca2a641d82681254ec4efdef43", "ver": 1, "vin_sz": 1, "vout_sz": 1, "size": 135, "weight": 540, "fee": 0, "relayed_by": "0.0.0.0", "lock_time": 0, "tx_index": 2390336833686146, "double_spend": false, "time": 1231967680, "block_index": 499, "block_height": 499, "inputs": [{"sequence": 4294967295, "witness": "", "script": "04ffff001d027604", "index": 0, "prev_out": null}], "out": [{"type": 0, "spent": false, "value": 5000000000, "spending_outpoints": [], "n": 0, "tx_index": 2390336833686146, "script": "4104021c7c25cb2d22b9b07874b88483696b4d99e2861872b614a137212e63bde5a0a561b4e093e7f3567033c2b71731f0d1c2ff4d19377c2821d488eed16c045993ac", "addr": "1HU7pYWxWVzJ2zEer58ASTyWXQmQymTWRM"}], "hex": "01000000010000000000000000000000000000000000000000000000000000000000000000ffffffff0804ffff001d027604ffffffff0100f2052a01000000434104021c7c25cb2d22b9b07874b88483696b4d99e2861872b614a137212e63bde5a0a561b4e093e7f3567033c2b71731f0d1c2ff4d19377c2821d488eed16c045993ac00000000"}]}