{"hash": "000000009b7262315dbf071787ad3656097b892abffd1f95a1a022f896f533fc", "ver": 1, "prev_block": "000000004ebadb55ee9096c9a2f8880e09da59c0d68b1c228da88e48844a1485", "mrkl_root": "63522845d294ee9b0188ae5cac91bf389a0c3723f084ca1025e7d9cdfe481ce1", "time": 1231471428, "bits": 486604799, "next_block": ["000000003031a0e73735690c5a1ff2a4be82553b2a12b776fbd3a215dc8f778d"], "fee": 0, "nonce": 2011431709, "n_tx": 1, "size": 215, "block_index": 5, "main_chain": true, "height": 5, "weight": 860, "tx": [{"hash": "63522845d294ee9b0188ae5cac91bf389a0c3723f084ca1025e7d9cdfe481ce1", "ver": 1, "vin_sz": 1, "vout_sz": 1, "size": 134, "weight": 536, "fee": 0, "relayed_by": "0.0.0.0", "lock_time": 0, "tx_index": 7920371199753020, "double_spend": false, "time": 1231471428, "block_index": 5, "block_height": 5, "inputs": [{"sequence": 4294967295, "witness": "", "script": "04ffff001d0120", "index": 0, "prev_out": null}], "out": [{"type": 0, "spent": false, "value": 5000000000, "spending_outpoints": [], "n": 0, "tx_index": 7920371199753020, "script": "410456579536d150fbce94ee62b47db2ca43af0a730a0467ba55c79e2a7ec9ce4ad297e35cdbb8e42a4643a60eef7c9abee2f5822f86b1da242d9c2301c431facfd8ac", "addr": "1JfbZRwdDHKZmuiZgYArJZhcuuzuw2HuMu"}], "hex": "01000000010000000000000000000000000000000000000000000000000000000000000000ffffffff0704ffff001d0120ffffffff0100f2052a0100000043410456579536d150fbce94ee62b47db2ca43af0a730a0467ba55c79e2a7ec9ce4ad297e35cdbb8e42a4643a60eef7c9abee2f5822f86b1da242d9c2301c431facfd8ac00000000"}]}