{"hash": "0000000026f34d197f653c5e80cb805e40612eadb0f45d00d7ea4164a20faa33", "ver": 1, "prev_block": "00000000f067c09041ff0fcee3d91aeb7fbcc5654d3f766af2b4377aaee68d00", "mrkl_root": "540a7e54fd64478554519f1b2d643ecc888c5030631487f9cfc530b71d281309", "time": 1231614698, "bits": 486604799, "next_block": ["000000001c511e00d1e6825c912988a3695ab2758fdbb6c7ee58da1da4fb2d63"], "fee": 0, "nonce": 1028409902, "n_tx": 1, "size": 215, "block_index": 50, "main_chain": true, "height": 50, "weight": 860, "tx": [{"hash": "540a7e54fd64478554519f1b2d643ecc888c5030631487f9cfc530b71d281309", "ver": 1, "vin_sz": 1, "vout_sz": 1, "size": 134, "weight": 536, "fee": 0, "relayed_by": "0.0.0.0", "lock_time": 0, "tx_index": 319292226070040, "double_spend": false, "time": 1231614698, "block_index": 50, "block_height": 50, "inputs": [{"sequence": 4294967295, "witness": "", "script": "04ffff001d013f", "index": 0, "prev_out": null}], "out": [{"type": 0, "spent": false, "value": 5000000000, "spending_outpoints": [], "n": 0, "tx_index": 319292226070040, "script": "41041ada81ea00c11098d2f52c20d5aa9f5ba13f9b583fda66f2a478dd7d95a7ab615159d98b63df2e6f3ecb3ef9eda138e4587e7afd31e7f434cbb6837e17feb0c5ac", "addr": "17iyRRXBHJKbv5DKPPkttWewm3CHdNPGQd"}], "hex": "01000000010000000000000000000000000000000000000000000000000000000000000000ffffffff0704ffff001d013fffffffff0100f2052a010000004341041ada81ea00c11098d2f52c20d5aa9f5ba13f9b583fda66f2a478dd7d95a7ab615159d98b63df2e6f3ecb3ef9eda138e4587e7afd31e7f434cbb6837e17feb0c5ac00000000"}]}