{"hash": "000000004ff664bfa7d217f6df64c1627089061429408e1da5ef903b8f3c77db", "ver": 1, "prev_block": "00000000806df68baab17e49e567d4211177fef4849ffd8242d095c6a1169f45", "mrkl_root": "04857418393e77f8060291bc2faaac30facefbfcd50f1f64df4e2dc2b5f57ecf", "time": 1231968449, "bits": 486604799, "next_block": ["0000000046887292a76cd113a5fd6af38b17c9fb77e5936cd9856694030598f9"], "fee": 0, "nonce": 2063568441, "n_tx": 1, "size": 216, "block_index": 500, "main_chain": true, "height": 500, "weight": 864, "tx": [{"hash": "04857418393e77f8060291bc2faaac30facefbfcd50f1f64df4e2dc2b5f57ecf", "ver": 1, "vin_sz": 1, "vout_sz": 1, "size": 135, "weight": 540, "fee": 0, "relayed_by": "0.0.0.0", "lock_time": 0, "tx_index": 7300614245074345, "double_spend": false, "time": 1231968449, "block_index": 500, "block_height": 500, "inputs": [{"sequence": 4294967295, "witness": "", "script": "04ffff001d027904", "index": 0, "prev_out": null}], "out": [{"type": 0, "spent": false, "value": 5000000000, "spending_outpoints": [], "n": 0, "tx_index": 7300614245074345, "script": "41042d9a7f300e87b4877f0f601d9c4a1a387e159681bb1623339f6124bf5f3c60a0695fa295cba1d6162a81bcc91a8fe67eceaaefb151db2a5053e1ba7e78b0c9b2ac", "addr": "1C1ENNWdkPMyhZ7xTEM4Kwq1FTUifZNCRd"}], "hex": "01000000010000000000000000000000000000000000000000000000000000000000000000ffffffff0804ffff001d027904ffffffff0100f2052a010000004341042d9a7f300e87b4877f0f601d9c4a1a387e159681bb1623339f6124bf5f3c60a0695fa295cba1d6162a81bcc91a8fe67eceaaefb151db2a5053e1ba7e78b0c9b2ac00000000"}]}