{"hash": "0000000046887292a76cd113a5fd6af38b17c9fb77e5936cd9856694030598f9", "ver": 1, "prev_block": "000000004ff664bfa7d217f6df64c1627089061429408e1da5ef903b8f3c77db", "mrkl_root": "cfbba5a04f23049b63941e3ff5d57aa1431671281f2e3ade1a7050ffdd284377", "time": 1231969111, "bits": 486604799, "next_block": ["000000003727134a4823b6c4c5245e961fff7816fc494742fb0abd353c94757b"], "fee": 0, "nonce": 65090162, "n_tx": 1, "size": 215, "block_index": 501, "main_chain": true, "height": 501, "weight": 860, "tx": [{"hash": "cfbba5a04f23049b63941e3ff5d57aa1431671281f2e3ade1a7050ffdd284377", "ver": 1, "vin_sz": 1, "vout_sz": 1, "size": 134, "weight": 536, "fee": 0, "relayed_by": "0.0.0.0", "lock_time": 0, "tx_index": 4196170628852238, "double_spend": false, "time": 1231969111, "block_index": 501, "block_height": 501, "inputs": [{"sequence": 4294967295, "witness": "", "script": "04ffff001d0106", "index": 0, "prev_out": null}], "out": [{"type": 0, "spent": true, "value": 5000000000, "spending_outpoints": [{"tx_index": 5675870188988274, "n": 0}], "n": 0, "tx_index": 4196170628852238, "script": "4104ceee1b864e673eb4492b9b0c8c938fea6343dba5556cff41beee4ad994a6d2365b80751ba263d160e1fdc4523ac46cee651ad21c2f5c629ec0ed060ac1f51b39ac", "addr": "132aSc15WmoPwtMbqRVzouZKNnjWL1YTVb"}], "hex": "01000000010000000000000000000000000000000000000000000000000000000000000000ffffffff0704ffff001d0106ffffffff0100f2052a01000000434104ceee1b864e673eb4492b9b0c8c938fea6343dba5556cff41beee4ad994a6d2365b80751ba263d160e1fdc4523ac46cee651ad21c2f5c629ec0ed060ac1f51b39ac00000000"}]}