{"hash": "000000003727134a4823b6c4c5245e961fff7816fc494742fb0abd353c94757b", "ver": 1, "prev_block": "0000000046887292a76cd113a5fd6af38b17c9fb77e5936cd9856694030598f9", "mrkl_root": "996d3bc5ae6e16df53ab73abce81792c8415ae4cf04b148f5a9c79bcb41e21a2", "time": 1231969575, "bits": 486604799, "next_block": ["0000000055a12319e123c04d357b87f5fb27f3e3de80a72de797db8f97018c0a"], "fee": 0, "nonce": 636712223, "n_tx": 1, "size": 216, "block_index": 502, "main_chain": true, "height": 502, "weight": 864, "tx": [{"hash": "996d3bc5ae6e16df53ab73abce81792c8415ae4cf04b148f5a9c79bcb41e21a2", "ver": 1, "vin_sz": 1, "vout_sz": 1, "size": 135, "weight": 540, "fee": 0, "relayed_by": "0.0.0.0", "lock_time": 0, "tx_index": 5704420249014067, "double_spend": false, "time": 1231969575, "block_index": 502, "block_height": 502, "inputs": [{"sequence": 4294967295, "witness": "", "script": "04ffff001d027a04", "index": 0, "prev_out": null}], "out": [{"type": 0, "spent": false, "value": 5000000000, "spending_outpoints": [], "n": 0, "tx_index": 5704420249014067, "script": "4104f03f070b97a2c106002ceaf16d3e55cb749ac54f70f6b38a43659fc89e849fae11186793ed563a9ca60ebc31b8d9da15d679b7f617c87345468cf84ad5a7ac2dac", "addr": "19bvvHLojfHiVygojh1iX6gokkL3HNa7Pc"}], "hex": "01000000010000000000000000000000000000000000000000000000000000000000000000ffffffff0804ffff001d027a04ffffffff0100f2052a01000000434104f03f070b97a2c106002ceaf16d3e55cb749ac54f70f6b38a43659fc89e849fae11186793ed563a9ca60ebc31b8d9da15d679b7f617c87345468cf84ad5a7ac2dac00000000"}]}