{"hash": "0000000055a12319e123c04d357b87f5fb27f3e3de80a72de797db8f97018c0a", "ver": 1, "prev_block": "000000003727134a4823b6c4c5245e961fff7816fc494742fb0abd353c94757b", "mrkl_root": "dbc96d6c55bd74f37ab8d6383ca7b80d9b243297d779ceeabcd1d55fc5cc4a8e", "time": 1231970693, "bits": 486604799, "next_block": ["000000006c298ed28e13fc5f9583581f7497c299abdae9b78c098eeb8f13b1ee"], "fee": 0, "nonce": 3058291991, "n_tx": 1, "size": 216, "block_index": 503, "main_chain": true, "height": 503, "weight": 864, "tx": [{"hash": "dbc96d6c55bd74f37ab8d6383ca7b80d9b243297d779ceeabcd1d55fc5cc4a8e", "ver": 1, "vin_sz": 1, "vout_sz": 1, "size": 135, "weight": 540, "fee": 0, "relayed_by": "0.0.0.0", "lock_time": 0, "tx_index": 5006461254761146, "double_spend": false, "time": 1231970693, "block_index": 503, "block_height": 503, "inputs": [{"sequence": 4294967295, "witness": "", "script": "04ffff001d028204", "index": 0, "prev_out": null}], "out": [{"type": 0, "spent": false, "value": 5000000000, "spending_outpoints": [], "n": 0, "tx_index": 5006461254761146, "script": "4104ba0ee81a39e907df796ee8a68ae4be1def85f287cc0dd4c46dcf9c4f4a282a075eca68713d81523ac458671ac3d2147fa71f5d7b49cbdfdd670c2971bfde0062ac", "addr": "185qFTbmP3poioBaohmK8FoL4JkTGh1T9p"}], "hex": "01000000010000000000000000000000000000000000000000000000000000000000000000ffffffff0804ffff001d028204ffffffff0100f2052a01000000434104ba0ee81a39e907df796ee8a68ae4be1def85f287cc0dd4c46dcf9c4f4a282a075eca68713d81523ac458671ac3d2147fa71f5d7b49cbdfdd670c2971bfde0062ac00000000"}]}