{"hash": "000000006c298ed28e13fc5f9583581f7497c299abdae9b78c098eeb8f13b1ee", "ver": 1, "prev_block": "0000000055a12319e123c04d357b87f5fb27f3e3de80a72de797db8f97018c0a", "mrkl_root": "98ad3272d2c9a9ba4ce0a288f6e9dbd18093e9c1688a8652ee8d7ee3efec5c8d", "time": 1231971788, "bits": 486604799, "next_block": ["0000000047f69498e89dac1ceb3fc1b0cbfdfbd0e463aeec97ab8ddaf7103c87"], "fee": 0, "nonce": 2678225955, "n_tx": 1, "size": 216, "block_index": 504, "main_chain": true, "height": 504, "weight": 864, "tx": [{"hash": "98ad3272d2c9a9ba4ce0a288f6e9dbd18093e9c1688a8652ee8d7ee3efec5c8d", "ver": 1, "vin_sz": 1, "vout_sz": 1, "size": 135, "weight": 540, "fee": 0, "relayed_by": "0.0.0.0", "lock_time": 0, "tx_index": 4973768052862929, "double_spend": false, "time": 1231971788, "block_index": 504, "block_height": 504, "inputs": [{"sequence": 4294967295, "witness": "", "script": "04ffff001d028804", "index": 0, "prev_out": null}], "out": [{"type": 0, "spent": false, "value": 5000000000, "spending_outpoints": [], "n": 0, "tx_index": 4973768052862929, "script": "4104ac7f16c5aa83e8f72959626781e0cca2f22bda6cafc668f915b95dd87f48887c1072cb00e25fd8b46826790790e738ee96396daa99727d10e9bee0be3546a4b9ac", "addr": "192xCo6ULYkbbm84H18Coxzc36j4gLyGn6"}], "hex": "01000000010000000000000000000000000000000000000000000000000000000000000000ffffffff0804ffff001d028804ffffffff0100f2052a01000000434104ac7f16c5aa83e8f72959626781e0cca2f22bda6cafc668f915b95dd87f48887c1072cb00e25fd8b46826790790e738ee96396daa99727d10e9bee0be3546a4b9ac00000000"}]}