{"hash": "0000000047f69498e89dac1ceb3fc1b0cbfdfbd0e463aeec97ab8ddaf7103c87", "ver": 1, "prev_block": "000000006c298ed28e13fc5f9583581f7497c299abdae9b78c098eeb8f13b1ee", "mrkl_root": "6ff777142752ff06562e95e172c521755756b7045c76b987ded82d8d8b4436b8", "time": 1231972858, "bits": 486604799, "next_block": ["00000000a99525c043fd7e323414b60add43c254c44860094048f9c01e9a5fdd"], "fee": 0, "nonce": 2232631319, "n_tx": 1, "size": 216, "block_index": 505, "main_chain": true, "height": 505, "weight": 864, "tx": [{"hash": "6ff777142752ff06562e95e172c521755756b7045c76b987ded82d8d8b4436b8", "ver": 1, "vin_sz": 1, "vout_sz": 1, "size": 135, "weight": 540, "fee": 0, "relayed_by": "0.0.0.0", "lock_time": 0, "tx_index": 6481382967715259, "double_spend": false, "time": 1231972858, "block_index": 505, "block_height": 505, "inputs": [{"sequence": 4294967295, "witness": "", "script": "04ffff001d028f04", "index": 0, "prev_out": null}], "out": [{"type": 0, "spent": false, "value": 5000000000, "spending_outpoints": [], "n": 0, "tx_index": 6481382967715259, "script": "4104c8c485bee8cc9ba5bd16a0e7552c44d8cc72dc006058e3948d9f0df438e6dff198f7e2b914ec591a1bc0c8b7c0cee16b8edee70ef46e1937656c24925c8260afac", "addr": "18ZtLGbFXjXG9boB7SPefMgRfnxrSUzNbE"}], "hex": "01000000010000000000000000000000000000000000000000000000000000000000000000ffffffff0804ffff001d028f04ffffffff0100f2052a01000000434104c8c485bee8cc9ba5bd16a0e7552c44d8cc72dc006058e3948d9f0df438e6dff198f7e2b914ec591a1bc0c8b7c0cee16b8edee70ef46e1937656c24925c8260afac00000000"}]}