{"hash": "00000000a99525c043fd7e323414b60add43c254c44860094048f9c01e9a5fdd", "ver": 1, "prev_block": "0000000047f69498e89dac1ceb3fc1b0cbfdfbd0e463aeec97ab8ddaf7103c87", "mrkl_root": "282b861e411dc3b61aa06e9e13abf49bce5c571e21a19c37f738244cee33b778", "time": 1231973609, "bits": 486604799, "next_block": ["000000001c6aeec19265e9cc3ded8ba5ef5e63fae7747f30bf9c02c7bc8883f0"], "fee": 0, "nonce": 74941666, "n_tx": 1, "size": 215, "block_index": 506, "main_chain": true, "height": 506, "weight": 860, "tx": [{"hash": "282b861e411dc3b61aa06e9e13abf49bce5c571e21a19c37f738244cee33b778", "ver": 1, "vin_sz": 1, "vout_sz": 1, "size": 134, "weight": 536, "fee": 0, "relayed_by": "0.0.0.0", "lock_time": 0, "tx_index": 4247303859307655, "double_spend": false, "time": 1231973609, "block_index": 506, "block_height": 506, "inputs": [{"sequence": 4294967295, "witness": "", "script": "04ffff001d010b", "index": 0, "prev_out": null}], "out": [{"type": 0, "spent": true, "value": 5000000000, "spending_outpoints": [{"tx_index": 5675870188988274, "n": 1}], "n": 0, "tx_index": 4247303859307655, "script": "410480b412face904ee2993e5846328fa538411accaf20961ae0ca2880077802158b9df38f7c11bf78b0bca275035165c2b2889315ffefa05ea7b4b405c4e6d22244ac", "addr": "17oofDoUGPaTi7xEP3StP1sU1YxEMDfQa6"}], "hex": "01000000010000000000000000000000000000000000000000000000000000000000000000ffffffff0704ffff001d010bffffffff0100f2052a0100000043410480b412face904ee2993e5846328fa538411accaf20961ae0ca2880077802158b9df38f7c11bf78b0bca275035165c2b2889315ffefa05ea7b4b405c4e6d22244ac00000000"}]}