{"hash": "000000001c6aeec19265e9cc3ded8ba5ef5e63fae7747f30bf9c02c7bc8883f0", "ver": 1, "prev_block": "00000000a99525c043fd7e323414b60add43c254c44860094048f9c01e9a5fdd", "mrkl_root": "a85fa3d831ab6b0305e7ff88d2d4941e25a810d4461635df51490653822071a8", "time": 1231973656, "bits": 486604799, "next_block": ["000000000d550f4161f2702165fdd782ec72ff9c541f864ebb8256b662b7e51a"], "fee": 0, "nonce": 330467862, "n_tx": 1, "size": 216, "block_index": 507, "main_chain": true, "height": 507, "weight": 864, "tx": [{"hash": "a85fa3d831ab6b0305e7ff88d2d4941e25a810d4461635df51490653822071a8", "ver": 1, "vin_sz": 1, "vout_sz": 1, "size": 135, "weight": 540, "fee": 0, "relayed_by": "0.0.0.0", "lock_time": 0, "tx_index": 5926522565845193, "double_spend": false, "time": 1231973656, "block_index": 507, "block_height": 507, "inputs": [{"sequence": 4294967295, "witness": "", "script": "04ffff001d029804", "index": 0, "prev_out": null}], "out": [{"type": 0, "spent": false, "value": 5000000000, "spending_outpoints": [], "n": 0, "tx_index": 5926522565845193, "script": "41047737b5d3036fcc149960d41ce31d47c5a47d3a843b23898d28a5e24d1482616860ba5bc61f060586c7ac2b0e7e3ec76e4763cf897d5b8b1110691832c9368f8cac", "addr": "1QEHawPyyALtoDcXTpQsMNtQCoUswtWRJu"}], "hex": "01000000010000000000000000000000000000000000000000000000000000000000000000ffffffff0804ffff001d029804ffffffff0100f2052a010000004341047737b5d3036fcc149960d41ce31d47c5a47d3a843b23898d28a5e24d1482616860ba5bc61f060586c7ac2b0e7e3ec76e4763cf897d5b8b1110691832c9368f8cac00000000"}]}