{"hash": "000000000d550f4161f2702165fdd782ec72ff9c541f864ebb8256b662b7e51a", "ver": 1, "prev_block": "000000001c6aeec19265e9cc3ded8ba5ef5e63fae7747f30bf9c02c7bc8883f0", "mrkl_root": "887f8213b539413dbf800badd76d0356ed8b2bc2c5d23c8278fe68adfadfdaf5", "time": 1231974724, "bits": 486604799, "next_block": ["00000000d9d33aaf1c9dce5bbecaffc917e957e06f336bbace59704a2678e766"], "fee": 0, "nonce": 2674270728, "n_tx": 1, "size": 216, "block_index": 508, "main_chain": true, "height": 508, "weight": 864, "tx": [{"hash": "887f8213b539413dbf800badd76d0356ed8b2bc2c5d23c8278fe68adfadfdaf5", "ver": 1, "vin_sz": 1, "vout_sz": 1, "size": 135, "weight": 540, "fee": 0, "relayed_by": "0.0.0.0", "lock_time": 0, "tx_index": 8650253101542687, "double_spend": false, "time": 1231974724, "block_index": 508, "block_height": 508, "inputs": [{"sequence": 4294967295, "witness": "", "script": "04ffff001d029b04", "index": 0, "prev_out": null}], "out": [{"type": 0, "spent": false, "value": 5000000000, "spending_outpoints": [], "n": 0, "tx_index": 8650253101542687, "script": "41041e96f6809879335c6771f7d961b6f9516a13aea8970898914b4c1ed2704002c10f1ecd4cd661d241d50e6331d1f92c3457a799e381def9217bef0c7137b96ce2ac", "addr": "1v7KrV1wTuoGqYZEEHzP4KqC4mSBVwLGr"}], "hex": "01000000010000000000000000000000000000000000000000000000000000000000000000ffffffff0804ffff001d029b04ffffffff0100f2052a010000004341041e96f6809879335c6771f7d961b6f9516a13aea8970898914b4c1ed2704002c10f1ecd4cd661d241d50e6331d1f92c3457a799e381def9217bef0c7137b96ce2ac00000000"}]}