{"hash": "000000001c511e00d1e6825c912988a3695ab2758fdbb6c7ee58da1da4fb2d63", "ver": 1, "prev_block": "0000000026f34d197f653c5e80cb805e40612eadb0f45d00d7ea4164a20faa33", "mrkl_root": "a09c89d2a31440658a42ec97aeee0d36b01529e45b315922e2aa2955334d1821", "time": 1231615503, "bits": 486604799, "next_block": ["00000000d6c655f23e71b4210ae3c5d931d76257093ab1e5ced88c52739296b5"], "fee": 0, "nonce": 528566281, "n_tx": 1, "size": 215, "block_index": 51, "main_chain": true, "height": 51, "weight": 860, "tx": [{"hash": "a09c89d2a31440658a42ec97aeee0d36b01529e45b315922e2aa2955334d1821", "ver": 1, "vin_sz": 1, "vout_sz": 1, "size": 134, "weight": 536, "fee": 0, "relayed_by": "0.0.0.0", "lock_time": 0, "tx_index": 1164424260527413, "double_spend": false, "time": 1231615503, "block_index": 51, "block_height": 51, "inputs": [{"sequence": 4294967295, "witness": "", "script": "04ffff001d0144", "index": 0, "prev_out": null}], "out": [{"type": 0, "spent": false, "value": 5000000000, "spending_outpoints": [], "n": 0, "tx_index": 1164424260527413, "script": "41043cba05459e89a46f9f3ef8e01d07ccd4ce9fc2bb35a6508419c98883230374ce1c5e177efb612f30842cd699d1aeaeda61e720592d0518db0f9c2b9de9a2cea1ac", "addr": "192kkZSRQHrS4dnBoPGgoYB6WeC1HXyYZe"}], "hex": "01000000010000000000000000000000000000000000000000000000000000000000000000ffffffff0704ffff001d0144ffffffff0100f2052a010000004341043cba05459e89a46f9f3ef8e01d07ccd4ce9fc2bb35a6508419c98883230374ce1c5e177efb612f30842cd699d1aeaeda61e720592d0518db0f9c2b9de9a2cea1ac00000000"}]}