{"hash": "00000000af4a7f5131596697800a0014c668ae7f8385ce023c270dbce8844884", "ver": 1, "prev_block": "00000000d9d33aaf1c9dce5bbecaffc917e957e06f336bbace59704a2678e766", "mrkl_root": "6cbc46177c0501f9eb799517a41d567856e9153378972fba4cecdeee0913c85f", "time": 1231975169, "bits": 486604799, "next_block": ["0000000013c878e1fd334fc9a1f4dbe6a4ed76562c5507c4fc21c2e273f41610"], "fee": 0, "nonce": 1811090708, "n_tx": 1, "size": 216, "block_index": 510, "main_chain": true, "height": 510, "weight": 864, "tx": [{"hash": "6cbc46177c0501f9eb799517a41d567856e9153378972fba4cecdeee0913c85f", "ver": 1, "vin_sz": 1, "vout_sz": 1, "size": 135, "weight": 540, "fee": 0, "relayed_by": "0.0.0.0", "lock_time": 0, "tx_index": 3370013360511965, "double_spend": false, "time": 1231975169, "block_index": 510, "block_height": 510, "inputs": [{"sequence": 4294967295, "witness": "", "script": "04ffff001d029e04", "index": 0, "prev_out": null}], "out": [{"type": 0, "spent": false, "value": 5000000000, "spending_outpoints": [], "n": 0, "tx_index": 3370013360511965, "script": "4104acc46e91094a2966c0fc9eb0674cde53a432a73fc7a86dc5f7cdcdddb85b8cc03af2ce32699458c996d7594bc05accced4c4cba35c120e74423551cc21adeec8ac", "addr": "1ML9hbUcWvoBgMJi6SzMiseq4xG281Ub3y"}], "hex": "01000000010000000000000000000000000000000000000000000000000000000000000000ffffffff0804ffff001d029e04ffffffff0100f2052a01000000434104acc46e91094a2966c0fc9eb0674cde53a432a73fc7a86dc5f7cdcdddb85b8cc03af2ce32699458c996d7594bc05accced4c4cba35c120e74423551cc21adeec8ac00000000"}]}