{"hash": "0000000013c878e1fd334fc9a1f4dbe6a4ed76562c5507c4fc21c2e273f41610", "ver": 1, "prev_block": "00000000af4a7f5131596697800a0014c668ae7f8385ce023c270dbce8844884", "mrkl_root": "58cd41b9ab6ef3c2daf1314392115f3ec60a40bfbd021648377fa70b859dc506", "time": 1231975547, "bits": 486604799, "next_block": ["000000000c8662009fdc5fc649984215b6472b860569ccbeb2a63a6731acdf8e"], "fee": 0, "nonce": 4240587811, "n_tx": 1, "size": 216, "block_index": 511, "main_chain": true, "height": 511, "weight": 864, "tx": [{"hash": "58cd41b9ab6ef3c2daf1314392115f3ec60a40bfbd021648377fa70b859dc506", "ver": 1, "vin_sz": 1, "vout_sz": 1, "size": 135, "weight": 540, "fee": 0, "relayed_by": "0.0.0.0", "lock_time": 0, "tx_index": 238266274116847, "double_spend": false, "time": 1231975547, "block_index": 511, "block_height": 511, "inputs": [{"sequence": 4294967295, "witness": "", "script": "04ffff001d02a304", "index": 0, "prev_out": null}], "out": [{"type": 0, "spent": false, "value": 5000000000, "spending_outpoints": [], "n": 0, "tx_index": 238266274116847, "script": "4104ccb0ce9a13b6b45fcb559c588d6be285c256da17217b9961a5d8b5fb1a59d5ec843da846a32f5f7fb36009521f12f5ada777f8026dc18d0b9ab809089cb29ceeac", "addr": "18GQYzobd6b8uhw3rBBCJybmpAFJG4HwNi"}], "hex": "01000000010000000000000000000000000000000000000000000000000000000000000000ffffffff0804ffff001d02a304ffffffff0100f2052a01000000434104ccb0ce9a13b6b45fcb559c588d6be285c256da17217b9961a5d8b5fb1a59d5ec843da846a32f5f7fb36009521f12f5ada777f8026dc18d0b9ab809089cb29ceeac00000000"}]}