{"hash": "000000000c8662009fdc5fc649984215b6472b860569ccbeb2a63a6731acdf8e", "ver": 1, "prev_block": "0000000013c878e1fd334fc9a1f4dbe6a4ed76562c5507c4fc21c2e273f41610", "mrkl_root": "a977106260f6309232b205e87de99e1f9d892ba8d52c0b46d8024e80ce03f14c", "time": 1231975750, "bits": 486604799, "next_block": ["00000000f6dd61de790513e2691978433a32c785a5aad32b173c8240f0616b55"], "fee": 0, "nonce": 34981982, "n_tx": 1, "size": 216, "block_index": 512, "main_chain": true, "height": 512, "weight": 864, "tx": [{"hash": "a977106260f6309232b205e87de99e1f9d892ba8d52c0b46d8024e80ce03f14c", "ver": 1, "vin_sz": 1, "vout_sz": 1, "size": 135, "weight": 540, "fee": 0, "relayed_by": "0.0.0.0", "lock_time": 0, "tx_index": 2707137110215104, "double_spend": false, "time": 1231975750, "block_index": 512, "block_height": 512, "inputs": [{"sequence": 4294967295, "witness": "", "script": "04ffff001d02f000", "index": 0, "prev_out": null}], "out": [{"type": 0, "spent": true, "value": 5000000000, "spending_outpoints": [{"tx_index": 7039798368026660, "n": 0}], "n": 0, "tx_index": 2707137110215104, "script": "410422e09d61aaebbba897cd9ad9733db0c0c56a9c674d04e0e6cdc78c9e7c370b1cf0cba4a5289c8742e6e0eacac608f176294c5914f62c40989562d680e2740a54ac", "addr": "16cHAjKh6Gr5HFDqz6JKgLmtpMzbKpZYfa"}], "hex": "01000000010000000000000000000000000000000000000000000000000000000000000000ffffffff0804ffff001d02f000ffffffff0100f2052a0100000043410422e09d61aaebbba897cd9ad9733db0c0c56a9c674d04e0e6cdc78c9e7c370b1cf0cba4a5289c8742e6e0eacac608f176294c5914f62c40989562d680e2740a54ac00000000"}]}