{"hash": "00000000f6dd61de790513e2691978433a32c785a5aad32b173c8240f0616b55", "ver": 1, "prev_block": "000000000c8662009fdc5fc649984215b6472b860569ccbeb2a63a6731acdf8e", "mrkl_root": "6da8ff544be18224705db9dc0156c47d52d05f104986369a9b9d50959c4c8171", "time": 1231976547, "bits": 486604799, "next_block": ["000000000e0a6dd63fbaf3e078494491d81ba2d6695266fde007dda7d859315d"], "fee": 0, "nonce": 3395817269, "n_tx": 1, "size": 216, "block_index": 513, "main_chain": true, "height": 513, "weight": 864, "tx": [{"hash": "6da8ff544be18224705db9dc0156c47d52d05f104986369a9b9d50959c4c8171", "ver": 1, "vin_sz": 1, "vout_sz": 1, "size": 135, "weight": 540, "fee": 0, "relayed_by": "0.0.0.0", "lock_time": 0, "tx_index": 3993604801604115, "double_spend": false, "time": 1231976547, "block_index": 513, "block_height": 513, "inputs": [{"sequence": 4294967295, "witness": "", "script": "04ffff001d02ac04", "index": 0, "prev_out": null}], "out": [{"type": 0, "spent": false, "value": 5000000000, "spending_outpoints": [], "n": 0, "tx_index": 3993604801604115, "script": "41041684ba377f8a9c1afa60c0724a171ff8006c4e82bfadda6d6d5ed15c50baeea2444cf15e97e78d56084ebe48e3e90d7cdb5f35b72059b3ec18db45bc8f297620ac", "addr": "121dXKrMFUJsMvbHt19YdLorKyYbmZpj15"}], "hex": "01000000010000000000000000000000000000000000000000000000000000000000000000ffffffff0804ffff001d02ac04ffffffff0100f2052a010000004341041684ba377f8a9c1afa60c0724a171ff8006c4e82bfadda6d6d5ed15c50baeea2444cf15e97e78d56084ebe48e3e90d7cdb5f35b72059b3ec18db45bc8f297620ac00000000"}]}