{"hash": "000000000e0a6dd63fbaf3e078494491d81ba2d6695266fde007dda7d859315d", "ver": 1, "prev_block": "00000000f6dd61de790513e2691978433a32c785a5aad32b173c8240f0616b55", "mrkl_root": "d9df26d62a3ce4855f3282462ba5581b23dc51ca3595de810115c0e7176722d3", "time": 1231977072, "bits": 486604799, "next_block": ["0000000052cd2861ec501c07a736a692fa629d841525fa42fa59e09e15687a12"], "fee": 0, "nonce": 1113892372, "n_tx": 1, "size": 216, "block_index": 514, "main_chain": true, "height": 514, "weight": 864, "tx": [{"hash": "d9df26d62a3ce4855f3282462ba5581b23dc51ca3595de810115c0e7176722d3", "ver": 1, "vin_sz": 1, "vout_sz": 1, "size": 135, "weight": 540, "fee": 0, "relayed_by": "0.0.0.0", "lock_time": 0, "tx_index": 7428630782998530, "double_spend": false, "time": 1231977072, "block_index": 514, "block_height": 514, "inputs": [{"sequence": 4294967295, "witness": "", "script": "04ffff001d02af04", "index": 0, "prev_out": null}], "out": [{"type": 0, "spent": false, "value": 5000000000, "spending_outpoints": [], "n": 0, "tx_index": 7428630782998530, "script": "4104aa95151e5732b38482f7916484f208ab5733496d8fb84b631e2ad59151cd486e34604099a64726e76daff7ed29d3e1dbcc0f955d401a51b9cba7fe8779a6c64cac", "addr": "14fQ9wqBkfNRCMACBVUJqDiKtEdhen2D1A"}], "hex": "01000000010000000000000000000000000000000000000000000000000000000000000000ffffffff0804ffff001d02af04ffffffff0100f2052a01000000434104aa95151e5732b38482f7916484f208ab5733496d8fb84b631e2ad59151cd486e34604099a64726e76daff7ed29d3e1dbcc0f955d401a51b9cba7fe8779a6c64cac00000000"}]}