{"hash": "0000000052cd2861ec501c07a736a692fa629d841525fa42fa59e09e15687a12", "ver": 1, "prev_block": "000000000e0a6dd63fbaf3e078494491d81ba2d6695266fde007dda7d859315d", "mrkl_root": "feefc021e27b0df4c49166cb736748a9b964afbd566e40f5783c906309473f48", "time": 1231978202, "bits": 486604799, "next_block": ["000000008c8e0512be74fec25a643b6337b3596974a2cee47682578bf6a583a5"], "fee": 0, "nonce": 233129761, "n_tx": 1, "size": 216, "block_index": 515, "main_chain": true, "height": 515, "weight": 864, "tx": [{"hash": "feefc021e27b0df4c49166cb736748a9b964afbd566e40f5783c906309473f48", "ver": 1, "vin_sz": 1, "vout_sz": 1, "size": 135, "weight": 540, "fee": 0, "relayed_by": "0.0.0.0", "lock_time": 0, "tx_index": 2541971581989383, "double_spend": false, "time": 1231978202, "block_index": 515, "block_height": 515, "inputs": [{"sequence": 4294967295, "witness": "", "script": "04ffff001d02b104", "index": 0, "prev_out": null}], "out": [{"type": 0, "spent": false, "value": 5000000000, "spending_outpoints": [], "n": 0, "tx_index": 2541971581989383, "script": "4104c436002f6cc1179d171e3a37d5871d6b6b96f501a8d8a8a9a891997a53036dc965a54fed67d8d5792f77564cf16e46de0698c8fa040a2551fea825d23e678a51ac", "addr": "15m4Rc72NaXG8G3JTwfi7hSQPAv5ZiFTv7"}], "hex": "01000000010000000000000000000000000000000000000000000000000000000000000000ffffffff0804ffff001d02b104ffffffff0100f2052a01000000434104c436002f6cc1179d171e3a37d5871d6b6b96f501a8d8a8a9a891997a53036dc965a54fed67d8d5792f77564cf16e46de0698c8fa040a2551fea825d23e678a51ac00000000"}]}