{"hash": "000000008c8e0512be74fec25a643b6337b3596974a2cee47682578bf6a583a5", "ver": 1, "prev_block": "0000000052cd2861ec501c07a736a692fa629d841525fa42fa59e09e15687a12", "mrkl_root": "e5896c93c4c70da1d605142231b54babe359edf196beef06fff026a87a67efcc", "time": 1231979190, "bits": 486604799, "next_block": ["0000000098c4a148c28c0eb7ae6aeca20768db02f4f1f9795f66924da6181214"], "fee": 0, "nonce": 234372890, "n_tx": 1, "size": 216, "block_index": 516, "main_chain": true, "height": 516, "weight": 864, "tx": [{"hash": "e5896c93c4c70da1d605142231b54babe359edf196beef06fff026a87a67efcc", "ver": 1, "vin_sz": 1, "vout_sz": 1, "size": 135, "weight": 540, "fee": 0, "relayed_by": "0.0.0.0", "lock_time": 0, "tx_index": 7210515370935518, "double_spend": false, "time": 1231979190, "block_index": 516, "block_height": 516, "inputs": [{"sequence": 4294967295, "witness": "", "script": "04ffff001d02ba04", "index": 0, "prev_out": null}], "out": [{"type": 0, "spent": false, "value": 5000000000, "spending_outpoints": [], "n": 0, "tx_index": 7210515370935518, "script": "410408ae6babd03ef7689ba7918e70c07e871f7b9a80866478145d5aff2253349a5183b9b272ab3bc58f3352d951c5d9bd8d6637a6f5246fef1217c316870f4089ceac", "addr": "1FNBav7Cwzr1qh53MjHR9kDDyrpi3qLZMJ"}], "hex": "01000000010000000000000000000000000000000000000000000000000000000000000000ffffffff0804ffff001d02ba04ffffffff0100f2052a0100000043410408ae6babd03ef7689ba7918e70c07e871f7b9a80866478145d5aff2253349a5183b9b272ab3bc58f3352d951c5d9bd8d6637a6f5246fef1217c316870f4089ceac00000000"}]}