{"hash": "0000000098c4a148c28c0eb7ae6aeca20768db02f4f1f9795f66924da6181214", "ver": 1, "prev_block": "000000008c8e0512be74fec25a643b6337b3596974a2cee47682578bf6a583a5", "mrkl_root": "6a0cfec3af78e3365004d12f10ac35b6d7e87bcc3730be3d0b80e89fa3ceb6f5", "time": 1231979559, "bits": 486604799, "next_block": ["00000000c6bcf8f690bdfbcf51a2c4b9057d47f05ba9efc3980b5c83919a8828"], "fee": 0, "nonce": 3529979943, "n_tx": 1, "size": 216, "block_index": 517, "main_chain": true, "height": 517, "weight": 864, "tx": [{"hash": "6a0cfec3af78e3365004d12f10ac35b6d7e87bcc3730be3d0b80e89fa3ceb6f5", "ver": 1, "vin_sz": 1, "vout_sz": 1, "size": 135, "weight": 540, "fee": 0, "relayed_by": "0.0.0.0", "lock_time": 0, "tx_index": 8645295989849360, "double_spend": false, "time": 1231979559, "block_index": 517, "block_height": 517, "inputs": [{"sequence": 4294967295, "witness": "", "script": "04ffff001d02bb04", "index": 0, "prev_out": null}], "out": [{"type": 0, "spent": false, "value": 5000000000, "spending_outpoints": [], "n": 0, "tx_index": 8645295989849360, "script": "410479073b3bb40ce6dee6f092d50b0fcd959d070e1471b76e75a94a347d31cec6ed6f8114a84109e60e8aaa56a6573a96440bdcbafd6542a053dd646fd410c6930eac", "addr": "1CpKJgZtTj1LRHav9Kaz6rbHdVK7Uu4PHA"}], "hex": "01000000010000000000000000000000000000000000000000000000000000000000000000ffffffff0804ffff001d02bb04ffffffff0100f2052a0100000043410479073b3bb40ce6dee6f092d50b0fcd959d070e1471b76e75a94a347d31cec6ed6f8114a84109e60e8aaa56a6573a96440bdcbafd6542a053dd646fd410c6930eac00000000"}]}