{"hash": "00000000c6bcf8f690bdfbcf51a2c4b9057d47f05ba9efc3980b5c83919a8828", "ver": 1, "prev_block": "0000000098c4a148c28c0eb7ae6aeca20768db02f4f1f9795f66924da6181214", "mrkl_root": "be0d66ff141aae1d4787b40c99f1f36ea717fd293b240feb001c32e8fb48ceb7", "time": 1231980679, "bits": 486604799, "next_block": ["00000000c82dee467b576139731f6197775ba9ff3bb57f0fde638b9a89d00423"], "fee": 0, "nonce": 2112881958, "n_tx": 1, "size": 216, "block_index": 518, "main_chain": true, "height": 518, "weight": 864, "tx": [{"hash": "be0d66ff141aae1d4787b40c99f1f36ea717fd293b240feb001c32e8fb48ceb7", "ver": 1, "vin_sz": 1, "vout_sz": 1, "size": 135, "weight": 540, "fee": 0, "relayed_by": "0.0.0.0", "lock_time": 0, "tx_index": 6467091699664451, "double_spend": false, "time": 1231980679, "block_index": 518, "block_height": 518, "inputs": [{"sequence": 4294967295, "witness": "", "script": "04ffff001d02c504", "index": 0, "prev_out": null}], "out": [{"type": 0, "spent": false, "value": 5000000000, "spending_outpoints": [], "n": 0, "tx_index": 6467091699664451, "script": "4104f10e4230a0e35b7ef111247075ce043127e3093482c3c6816bc2f49c5738d13fd5904a6df639d992b482aee99d4c953cefe9ade1b6c7b90d755cb286860fb3efac", "addr": "12PxCUgj1bLy2pR6M9aTVWf8RNC7Lxf2DR"}], "hex": "01000000010000000000000000000000000000000000000000000000000000000000000000ffffffff0804ffff001d02c504ffffffff0100f2052a01000000434104f10e4230a0e35b7ef111247075ce043127e3093482c3c6816bc2f49c5738d13fd5904a6df639d992b482aee99d4c953cefe9ade1b6c7b90d755cb286860fb3efac00000000"}]}