{"hash": "00000000d6c655f23e71b4210ae3c5d931d76257093ab1e5ced88c52739296b5", "ver": 1, "prev_block": "000000001c511e00d1e6825c912988a3695ab2758fdbb6c7ee58da1da4fb2d63", "mrkl_root": "b3f978e6ee5e91662af30a634b3f3268c6f5d34aac1eb54e6cc9535026f5084f", "time": 1231616363, "bits": 486604799, "next_block": ["00000000fcde3f3306f4167634b51e24414900d7539cb4237f3f060cf26fba05"], "fee": 0, "nonce": 4043808569, "n_tx": 1, "size": 215, "block_index": 52, "main_chain": true, "height": 52, "weight": 860, "tx": [{"hash": "b3f978e6ee5e91662af30a634b3f3268c6f5d34aac1eb54e6cc9535026f5084f", "ver": 1, "vin_sz": 1, "vout_sz": 1, "size": 134, "weight": 536, "fee": 0, "relayed_by": "0.0.0.0", "lock_time": 0, "tx_index": 2780796520368761, "double_spend": false, "time": 1231616363, "block_index": 52, "block_height": 52, "inputs": [{"sequence": 4294967295, "witness": "", "script": "04ffff001d0156", "index": 0, "prev_out": null}], "out": [{"type": 0, "spent": false, "value": 5000000000, "spending_outpoints": [], "n": 0, "tx_index": 2780796520368761, "script": "41045c1f2f8b3f3e51ff51a7230dcc4c0983986a8aecb1751242dd62a0cadb653b90c2636ed13fb479f80f805ba462c08ddc2863367932b9615046adbecc1443af60ac", "addr": "17xQEk6df1Zyzvzs3oLPU9k5BZ85uGxC19"}], "hex": "01000000010000000000000000000000000000000000000000000000000000000000000000ffffffff0704ffff001d0156ffffffff0100f2052a010000004341045c1f2f8b3f3e51ff51a7230dcc4c0983986a8aecb1751242dd62a0cadb653b90c2636ed13fb479f80f805ba462c08ddc2863367932b9615046adbecc1443af60ac00000000"}]}