{"hash": "00000000fcde3f3306f4167634b51e24414900d7539cb4237f3f060cf26fba05", "ver": 1, "prev_block": "00000000d6c655f23e71b4210ae3c5d931d76257093ab1e5ced88c52739296b5", "mrkl_root": "3c6f58905f06a9fe9b4313a88827c43dbfb0156fcc3b17bb311d51e8be6746f5", "time": 1231617190, "bits": 486604799, "next_block": ["000000004ee00fc37a68592cf22415b37e6618227249fe308d0703cca1dd745b"], "fee": 0, "nonce": 570791212, "n_tx": 1, "size": 215, "block_index": 53, "main_chain": true, "height": 53, "weight": 860, "tx": [{"hash": "3c6f58905f06a9fe9b4313a88827c43dbfb0156fcc3b17bb311d51e8be6746f5", "ver": 1, "vin_sz": 1, "vout_sz": 1, "size": 134, "weight": 536, "fee": 0, "relayed_by": "0.0.0.0", "lock_time": 0, "tx_index": 8629847586572835, "double_spend": false, "time": 1231617190, "block_index": 53, "block_height": 53, "inputs": [{"sequence": 4294967295, "witness": "", "script": "04ffff001d0161", "index": 0, "prev_out": null}], "out": [{"type": 0, "spent": false, "value": 5000000000, "spending_outpoints": [], "n": 0, "tx_index": 8629847586572835, "script": "4104cad6127556bbeb5753c0e9a0c13787a7f7d4773c1544651072c8a17c5d68d47974b6ae5118344b268ecb52d164917cd9db6cecdcb4e6be44aaf302abd81985caac", "addr": "1h2Znru8Y624tuVnu1UgUujNACTzaFABz"}], "hex": "01000000010000000000000000000000000000000000000000000000000000000000000000ffffffff0704ffff001d0161ffffffff0100f2052a01000000434104cad6127556bbeb5753c0e9a0c13787a7f7d4773c1544651072c8a17c5d68d47974b6ae5118344b268ecb52d164917cd9db6cecdcb4e6be44aaf302abd81985caac00000000"}]}