{"hash": "000000004ee00fc37a68592cf22415b37e6618227249fe308d0703cca1dd745b", "ver": 1, "prev_block": "00000000fcde3f3306f4167634b51e24414900d7539cb4237f3f060cf26fba05", "mrkl_root": "d3dc9be5d58809579e56cdd64e78257ecd24e2726cf26ef0a698f4e5c07670b5", "time": 1231617386, "bits": 486604799, "next_block": ["0000000046438b8d5beb6c9efc503dfec538927d2584d2447538276e687a5283"], "fee": 0, "nonce": 3086212142, "n_tx": 1, "size": 215, "block_index": 54, "main_chain": true, "height": 54, "weight": 860, "tx": [{"hash": "d3dc9be5d58809579e56cdd64e78257ecd24e2726cf26ef0a698f4e5c07670b5", "ver": 1, "vin_sz": 1, "vout_sz": 1, "size": 134, "weight": 536, "fee": 0, "relayed_by": "0.0.0.0", "lock_time": 0, "tx_index": 6383828266172051, "double_spend": false, "time": 1231617386, "block_index": 54, "block_height": 54, "inputs": [{"sequence": 4294967295, "witness": "", "script": "04ffff001d0162", "index": 0, "prev_out": null}], "out": [{"type": 0, "spent": false, "value": 5000000000, "spending_outpoints": [], "n": 0, "tx_index": 6383828266172051, "script": "41041ef7071c442fef11b695edb2c555bdc14ab797683e709695775e356f8a016969507842c8071353c33ad5d169959712be1cd2ee5db9e2b84769b5b9541b6486feac", "addr": "1Kc4RPywLu8bK7JvTQJY1MWHo1S4jqQfzM"}], "hex": "01000000010000000000000000000000000000000000000000000000000000000000000000ffffffff0704ffff001d0162ffffffff0100f2052a010000004341041ef7071c442fef11b695edb2c555bdc14ab797683e709695775e356f8a016969507842c8071353c33ad5d169959712be1cd2ee5db9e2b84769b5b9541b6486feac00000000"}]}