{"hash": "0000000046438b8d5beb6c9efc503dfec538927d2584d2447538276e687a5283", "ver": 1, "prev_block": "000000004ee00fc37a68592cf22415b37e6618227249fe308d0703cca1dd745b", "mrkl_root": "19521c62482ac299b37c8ae4eab67abd150e3c21dc66b7e2b0919444769ee2ed", "time": 1231618509, "bits": 486604799, "next_block": ["00000000f093cf2c5865f2bb851d5fa65ff1794b02fea4b0d90ff451e6e5d1c0"], "fee": 0, "nonce": 3277292827, "n_tx": 1, "size": 215, "block_index": 55, "main_chain": true, "height": 55, "weight": 860, "tx": [{"hash": "19521c62482ac299b37c8ae4eab67abd150e3c21dc66b7e2b0919444769ee2ed", "ver": 1, "vin_sz": 1, "vout_sz": 1, "size": 134, "weight": 536, "fee": 0, "relayed_by": "0.0.0.0", "lock_time": 0, "tx_index": 8369842462167698, "double_spend": false, "time": 1231618509, "block_index": 55, "block_height": 55, "inputs": [{"sequence": 4294967295, "witness": "", "script": "04ffff001d0173", "index": 0, "prev_out": null}], "out": [{"type": 0, "spent": false, "value": 5000000000, "spending_outpoints": [], "n": 0, "tx_index": 8369842462167698, "script": "4104ea258025b3a5fa9352ab84951c1141affb5d7e0364ab18ed65d7f970b9af1cd7f9550cb69a016480d825e4e112ba9f16c717ec3a421c02155de4425a2066d208ac", "addr": "18p2otBZ33Ytgk3afUrHsmiPrFLNPiM4G5"}], "hex": "01000000010000000000000000000000000000000000000000000000000000000000000000ffffffff0704ffff001d0173ffffffff0100f2052a01000000434104ea258025b3a5fa9352ab84951c1141affb5d7e0364ab18ed65d7f970b9af1cd7f9550cb69a016480d825e4e112ba9f16c717ec3a421c02155de4425a2066d208ac00000000"}]}