{"hash": "00000000f093cf2c5865f2bb851d5fa65ff1794b02fea4b0d90ff451e6e5d1c0", "ver": 1, "prev_block": "0000000046438b8d5beb6c9efc503dfec538927d2584d2447538276e687a5283", "mrkl_root": "fe9ccc6c8b44c67ab170135d4148d6424e748f7549547d8174d59b5127df0102", "time": 1231618848, "bits": 486604799, "next_block": ["000000004ff375707d7128dd2b080da4185727d534ea1b0aeac5877e00547391"], "fee": 0, "nonce": 1048211973, "n_tx": 1, "size": 215, "block_index": 56, "main_chain": true, "height": 56, "weight": 860, "tx": [{"hash": "fe9ccc6c8b44c67ab170135d4148d6424e748f7549547d8174d59b5127df0102", "ver": 1, "vin_sz": 1, "vout_sz": 1, "size": 134, "weight": 536, "fee": 0, "relayed_by": "0.0.0.0", "lock_time": 0, "tx_index": 70625987801978, "double_spend": false, "time": 1231618848, "block_index": 56, "block_height": 56, "inputs": [{"sequence": 4294967295, "witness": "", "script": "04ffff001d0174", "index": 0, "prev_out": null}], "out": [{"type": 0, "spent": false, "value": 5000000000, "spending_outpoints": [], "n": 0, "tx_index": 70625987801978, "script": "410494a494a15a35b0fb7d69d03e1a0824d73933d57ca21236fdb4aa9412f19c4a5bf772b50a0544e743af767582523840eeee684aac0e21d5da4b6a41320564ac24ac", "addr": "1281ZBYNe7qJGMsGgHL2YgUEEFwCdXQwBq"}], "hex": "01000000010000000000000000000000000000000000000000000000000000000000000000ffffffff0704ffff001d0174ffffffff0100f2052a0100000043410494a494a15a35b0fb7d69d03e1a0824d73933d57ca21236fdb4aa9412f19c4a5bf772b50a0544e743af767582523840eeee684aac0e21d5da4b6a41320564ac24ac00000000"}]}