{"hash": "000000004ff375707d7128dd2b080da4185727d534ea1b0aeac5877e00547391", "ver": 1, "prev_block": "00000000f093cf2c5865f2bb851d5fa65ff1794b02fea4b0d90ff451e6e5d1c0", "mrkl_root": "bc0f0f8b3235421a036122299db7046a00c3a7cd1d650de3d92969780b873728", "time": 1231619676, "bits": 486604799, "next_block": ["0000000075b4df54f33c4e60cf88c5dd6a6455f16f4fbe220ae81e157ce32ef1"], "fee": 0, "nonce": 501022748, "n_tx": 1, "size": 215, "block_index": 57, "main_chain": true, "height": 57, "weight": 860, "tx": [{"hash": "bc0f0f8b3235421a036122299db7046a00c3a7cd1d650de3d92969780b873728", "ver": 1, "vin_sz": 1, "vout_sz": 1, "size": 134, "weight": 536, "fee": 0, "relayed_by": "0.0.0.0", "lock_time": 0, "tx_index": 1415006527622437, "double_spend": false, "time": 1231619676, "block_index": 57, "block_height": 57, "inputs": [{"sequence": 4294967295, "witness": "", "script": "04ffff001d017a", "index": 0, "prev_out": null}], "out": [{"type": 0, "spent": false, "value": 5000000000, "spending_outpoints": [], "n": 0, "tx_index": 1415006527622437, "script": "41042f1c4a33266a8d0560b16a1ca35982ef0414ef30b268786de15c8c9836b91a612f5a043f026e3787bbb40952e4acd6a21d34285d939bfa6a23ba94b72de78247ac", "addr": "19knNYsDH25AsBGhhoaxnmUKrn9WkVMSUi"}], "hex": "01000000010000000000000000000000000000000000000000000000000000000000000000ffffffff0704ffff001d017affffffff0100f2052a010000004341042f1c4a33266a8d0560b16a1ca35982ef0414ef30b268786de15c8c9836b91a612f5a043f026e3787bbb40952e4acd6a21d34285d939bfa6a23ba94b72de78247ac00000000"}]}