{"hash": "0000000075b4df54f33c4e60cf88c5dd6a6455f16f4fbe220ae81e157ce32ef1", "ver": 1, "prev_block": "000000004ff375707d7128dd2b080da4185727d534ea1b0aeac5877e00547391", "mrkl_root": "9635054e3de101ea39dcfa5f4cec63ceb1205db6e0a99304c8db2b3a162137e4", "time": 1231620564, "bits": 486604799, "next_block": ["000000000f7171e53e5f037b70ae6a30d2fa6c1a9e019aa3dae242180baea54a"], "fee": 0, "nonce": 303574814, "n_tx": 1, "size": 216, "block_index": 58, "main_chain": true, "height": 58, "weight": 864, "tx": [{"hash": "9635054e3de101ea39dcfa5f4cec63ceb1205db6e0a99304c8db2b3a162137e4", "ver": 1, "vin_sz": 1, "vout_sz": 1, "size": 135, "weight": 540, "fee": 0, "relayed_by": "0.0.0.0", "lock_time": 0, "tx_index": 8029613742048635, "double_spend": false, "time": 1231620564, "block_index": 58, "block_height": 58, "inputs": [{"sequence": 4294967295, "witness": "", "script": "04ffff001d028200", "index": 0, "prev_out": null}], "out": [{"type": 0, "spent": false, "value": 5000000000, "spending_outpoints": [], "n": 0, "tx_index": 8029613742048635, "script": "410438a186480a0dba427b44e72dbcfa73c7c7597ad0facd2fce69aa6a227d8533bb2219f1a6d7b0e057f52f7075d1858f2a9f725cdde03dc22d9ea6db10f6274091ac", "addr": "14UyXKWBcVHYcqSpxYcmR9JLZu6pArwDrd"}], "hex": "01000000010000000000000000000000000000000000000000000000000000000000000000ffffffff0804ffff001d028200ffffffff0100f2052a0100000043410438a186480a0dba427b44e72dbcfa73c7c7597ad0facd2fce69aa6a227d8533bb2219f1a6d7b0e057f52f7075d1858f2a9f725cdde03dc22d9ea6db10f6274091ac00000000"}]}