{"hash": "000000000f7171e53e5f037b70ae6a30d2fa6c1a9e019aa3dae242180baea54a", "ver": 1, "prev_block": "0000000075b4df54f33c4e60cf88c5dd6a6455f16f4fbe220ae81e157ce32ef1", "mrkl_root": "3c0db11484606a63b04ef4b8adcd665655939d3932ab1ebe90d1dfc5f077ca95", "time": 1231620928, "bits": 486604799, "next_block": ["00000000c47a58b89434bd7c7af8334b366f713330dfb89119d67d79424d2cdf"], "fee": 0, "nonce": 1353976342, "n_tx": 1, "size": 216, "block_index": 59, "main_chain": true, "height": 59, "weight": 864, "tx": [{"hash": "3c0db11484606a63b04ef4b8adcd665655939d3932ab1ebe90d1dfc5f077ca95", "ver": 1, "vin_sz": 1, "vout_sz": 1, "size": 135, "weight": 540, "fee": 0, "relayed_by": "0.0.0.0", "lock_time": 0, "tx_index": 5270298502413306, "double_spend": false, "time": 1231620928, "block_index": 59, "block_height": 59, "inputs": [{"sequence": 4294967295, "witness": "", "script": "04ffff001d028300", "index": 0, "prev_out": null}], "out": [{"type": 0, "spent": false, "value": 5000000000, "spending_outpoints": [], "n": 0, "tx_index": 5270298502413306, "script": "41047fcd0b4211b1c3cde62dcea8da192533f3fd1446734c221f5ff54904d28803eb77c16aeb9b1a0562e79d38b9ba281f9fc0a4c24d7d8d5af9d4c11b670dc61fc1ac", "addr": "1FERXfs9RYGhhLe2yBsSqYfSqtmUEBUSTc"}], "hex": "01000000010000000000000000000000000000000000000000000000000000000000000000ffffffff0804ffff001d028300ffffffff0100f2052a010000004341047fcd0b4211b1c3cde62dcea8da192533f3fd1446734c221f5ff54904d28803eb77c16aeb9b1a0562e79d38b9ba281f9fc0a4c24d7d8d5af9d4c11b670dc61fc1ac00000000"}]}