{"hash": "000000003031a0e73735690c5a1ff2a4be82553b2a12b776fbd3a215dc8f778d", "ver": 1, "prev_block": "000000009b7262315dbf071787ad3656097b892abffd1f95a1a022f896f533fc", "mrkl_root": "20251a76e64e920e58291a30d4b212939aae976baca40e70818ceaa596fb9d37", "time": 1231471789, "bits": 486604799, "next_block": ["0000000071966c2b1d065fd446b1e485b2c9d9594acd2007ccbd5441cfc89444"], "fee": 0, "nonce": 2538380312, "n_tx": 1, "size": 215, "block_index": 6, "main_chain": true, "height": 6, "weight": 860, "tx": [{"hash": "20251a76e64e920e58291a30d4b212939aae976baca40e70818ceaa596fb9d37", "ver": 1, "vin_sz": 1, "vout_sz": 1, "size": 134, "weight": 536, "fee": 0, "relayed_by": "0.0.0.0", "lock_time": 0, "tx_index": 1956853451111761, "double_spend": false, "time": 1231471789, "block_index": 6, "block_height": 6, "inputs": [{"sequence": 4294967295, "witness": "", "script": "04ffff001d0123", "index": 0, "prev_out": null}], "out": [{"type": 0, "spent": false, "value": 5000000000, "spending_outpoints": [], "n": 0, "tx_index": 1956853451111761, "script": "410408ce279174b34c077c7b2043e3f3d45a588b85ef4ca466740f848ead7fb498f0a795c982552fdfa41616a7c0333a269d62108588e260fd5a48ac8e4dbf49e2bcac", "addr": "1GkQmKAmHtNfnD3LHhTkewJxKHVSta4m2a"}], "hex": "01000000010000000000000000000000000000000000000000000000000000000000000000ffffffff0704ffff001d0123ffffffff0100f2052a0100000043410408ce279174b34c077c7b2043e3f3d45a588b85ef4ca466740f848ead7fb498f0a795c982552fdfa41616a7c0333a269d62108588e260fd5a48ac8e4dbf49e2bcac00000000"}]}