{"hash": "00000000c47a58b89434bd7c7af8334b366f713330dfb89119d67d79424d2cdf", "ver": 1, "prev_block": "000000000f7171e53e5f037b70ae6a30d2fa6c1a9e019aa3dae242180baea54a", "mrkl_root": "82a1e1731a9b22fdea55c09f2fac191a89efee127956fcfef65caab70f54002d", "time": 1231621959, "bits": 486604799, "next_block": ["000000002973d6cb9371b8db0fe6a16a98dfac07c0aa9207c1cfc967b35290c4"], "fee": 0, "nonce": 576951554, "n_tx": 1, "size": 216, "block_index": 60, "main_chain": true, "height": 60, "weight": 864, "tx": [{"hash": "82a1e1731a9b22fdea55c09f2fac191a89efee127956fcfef65caab70f54002d", "ver": 1, "vin_sz": 1, "vout_sz": 1, "size": 135, "weight": 540, "fee": 0, "relayed_by": "0.0.0.0", "lock_time": 0, "tx_index": 1583341874115915, "double_spend": false, "time": 1231621959, "block_index": 60, "block_height": 60, "inputs": [{"sequence": 4294967295, "witness": "", "script": "04ffff001d028c00", "index": 0, "prev_out": null}], "out": [{"type": 0, "spent": false, "value": 5000000000, "spending_outpoints": [], "n": 0, "tx_index": 1583341874115915, "script": "41049530a4ab6a53952c94488cada1f77631ed1d29d3b4c8597d8b68623f290f412752c087f2ec0fbda29dbb8496984ff6e1f8b0134da5b8011d34d9b3bfdf702e5bac", "addr": "16kf2cAY8V7iZjX21Pm8znMJxqa2TYcqQ5"}], "hex": "01000000010000000000000000000000000000000000000000000000000000000000000000ffffffff0804ffff001d028c00ffffffff0100f2052a010000004341049530a4ab6a53952c94488cada1f77631ed1d29d3b4c8597d8b68623f290f412752c087f2ec0fbda29dbb8496984ff6e1f8b0134da5b8011d34d9b3bfdf702e5bac00000000"}]}