{"hash": "000000002973d6cb9371b8db0fe6a16a98dfac07c0aa9207c1cfc967b35290c4", "ver": 1, "prev_block": "00000000c47a58b89434bd7c7af8334b366f713330dfb89119d67d79424d2cdf", "mrkl_root": "ae6eedf8e47ac6dda10ca9f3334bd3031795c55a124948003acd944ebd31fee1", "time": 1231622445, "bits": 486604799, "next_block": ["0000000042fe934de30881dcecc5af1c80b5a083030e37d71806e7fc1e8ca02a"], "fee": 0, "nonce": 1399277111, "n_tx": 1, "size": 216, "block_index": 61, "main_chain": true, "height": 61, "weight": 864, "tx": [{"hash": "ae6eedf8e47ac6dda10ca9f3334bd3031795c55a124948003acd944ebd31fee1", "ver": 1, "vin_sz": 1, "vout_sz": 1, "size": 135, "weight": 540, "fee": 0, "relayed_by": "0.0.0.0", "lock_time": 0, "tx_index": 7951419917849241, "double_spend": false, "time": 1231622445, "block_index": 61, "block_height": 61, "inputs": [{"sequence": 4294967295, "witness": "", "script": "04ffff001d029200", "index": 0, "prev_out": null}], "out": [{"type": 0, "spent": false, "value": 5000000000, "spending_outpoints": [], "n": 0, "tx_index": 7951419917849241, "script": "41042a988f492cef43f38089fc1a6f11ab07f3cd52ca3c0fb6850bc2d31b83dbc97c7575203691a5afe51fc36d287bff42506979e40ab61a758adafc51f746b2d6aeac", "addr": "1AiE8NiskCXRovzHdVzAjydQ9V8Dv7Hiy8"}], "hex": "01000000010000000000000000000000000000000000000000000000000000000000000000ffffffff0804ffff001d029200ffffffff0100f2052a010000004341042a988f492cef43f38089fc1a6f11ab07f3cd52ca3c0fb6850bc2d31b83dbc97c7575203691a5afe51fc36d287bff42506979e40ab61a758adafc51f746b2d6aeac00000000"}]}