{"hash": "0000000042fe934de30881dcecc5af1c80b5a083030e37d71806e7fc1e8ca02a", "ver": 1, "prev_block": "000000002973d6cb9371b8db0fe6a16a98dfac07c0aa9207c1cfc967b35290c4", "mrkl_root": "701ce76c033e0b03fa79503770a5874840373e30cd9c1eca472ec66617f3a3ee", "time": 1231623224, "bits": 486604799, "next_block": ["00000000ebff91c88984bff39511f544a1c4ef6ec4f33e2ea531e47c2685628e"], "fee": 0, "nonce": 1810780677, "n_tx": 1, "size": 216, "block_index": 62, "main_chain": true, "height": 62, "weight": 864, "tx": [{"hash": "701ce76c033e0b03fa79503770a5874840373e30cd9c1eca472ec66617f3a3ee", "ver": 1, "vin_sz": 1, "vout_sz": 1, "size": 135, "weight": 540, "fee": 0, "relayed_by": "0.0.0.0", "lock_time": 0, "tx_index": 8396413615265989, "double_spend": false, "time": 1231623224, "block_index": 62, "block_height": 62, "inputs": [{"sequence": 4294967295, "witness": "", "script": "04ffff001d029400", "index": 0, "prev_out": null}], "out": [{"type": 0, "spent": false, "value": 5000000000, "spending_outpoints": [], "n": 0, "tx_index": 8396413615265989, "script": "41043fcbb41d06811e2df06c70dbf78e63c6a4404c28a0c990a837ee54f6c09fe259182f4d18233399262a640ac8c2f8b58b354bcf57ea7bb2dfb6261ceb8ca908fcac", "addr": "12GBk2eiu3AEVvNYTwWYnUz49ecRjJ1CR6"}], "hex": "01000000010000000000000000000000000000000000000000000000000000000000000000ffffffff0804ffff001d029400ffffffff0100f2052a010000004341043fcbb41d06811e2df06c70dbf78e63c6a4404c28a0c990a837ee54f6c09fe259182f4d18233399262a640ac8c2f8b58b354bcf57ea7bb2dfb6261ceb8ca908fcac00000000"}]}