{"hash": "00000000ebff91c88984bff39511f544a1c4ef6ec4f33e2ea531e47c2685628e", "ver": 1, "prev_block": "0000000042fe934de30881dcecc5af1c80b5a083030e37d71806e7fc1e8ca02a", "mrkl_root": "0731f33cf07a2e5f749a2910c437a015968e1fc2ed79c95634829167db280c4f", "time": 1231623880, "bits": 486604799, "next_block": ["0000000031975f17c5642a9c7e53ae4201a70a6ba6363036b55497b8754d1866"], "fee": 0, "nonce": 667804194, "n_tx": 1, "size": 216, "block_index": 63, "main_chain": true, "height": 63, "weight": 864, "tx": [{"hash": "0731f33cf07a2e5f749a2910c437a015968e1fc2ed79c95634829167db280c4f", "ver": 1, "vin_sz": 1, "vout_sz": 1, "size": 135, "weight": 540, "fee": 0, "relayed_by": "0.0.0.0", "lock_time": 0, "tx_index": 2781236597420592, "double_spend": false, "time": 1231623880, "block_index": 63, "block_height": 63, "inputs": [{"sequence": 4294967295, "witness": "", "script": "04ffff001d029f00", "index": 0, "prev_out": null}], "out": [{"type": 0, "spent": false, "value": 5000000000, "spending_outpoints": [], "n": 0, "tx_index": 2781236597420592, "script": "4104480b0d9f662fa54744f9da98a4671b89290dd30a1c4aabd9fd276417f6671770dc0c3bddca76080bfd4fc37d85cf84260f06aaa8a15b141f2f98da4215dd9b59ac", "addr": "16jZuw5nwn3ZgzWYrRvhi8NZW2b1NRk6S7"}], "hex": "01000000010000000000000000000000000000000000000000000000000000000000000000ffffffff0804ffff001d029f00ffffffff0100f2052a01000000434104480b0d9f662fa54744f9da98a4671b89290dd30a1c4aabd9fd276417f6671770dc0c3bddca76080bfd4fc37d85cf84260f06aaa8a15b141f2f98da4215dd9b59ac00000000"}]}