{"hash": "0000000031975f17c5642a9c7e53ae4201a70a6ba6363036b55497b8754d1866", "ver": 1, "prev_block": "00000000ebff91c88984bff39511f544a1c4ef6ec4f33e2ea531e47c2685628e", "mrkl_root": "ebdb8335d5b148e9cc1b1bb795ee619a649bd1638e5514fdfc3004b1c56fd6a4", "time": 1231624107, "bits": 486604799, "next_block": ["00000000aae47d47b6ff5eda6abab09cd6720684b1368eac70ac4240b3c90250"], "fee": 0, "nonce": 82803279, "n_tx": 1, "size": 215, "block_index": 64, "main_chain": true, "height": 64, "weight": 860, "tx": [{"hash": "ebdb8335d5b148e9cc1b1bb795ee619a649bd1638e5514fdfc3004b1c56fd6a4", "ver": 1, "vin_sz": 1, "vout_sz": 1, "size": 134, "weight": 536, "fee": 0, "relayed_by": "0.0.0.0", "lock_time": 0, "tx_index": 5799708965871750, "double_spend": false, "time": 1231624107, "block_index": 64, "block_height": 64, "inputs": [{"sequence": 4294967295, "witness": "", "script": "04ffff001d0106", "index": 0, "prev_out": null}], "out": [{"type": 0, "spent": false, "value": 5000000000, "spending_outpoints": [], "n": 0, "tx_index": 5799708965871750, "script": "410419ba01c19d1c68af6bc780289ec1a5d4c181e81089f275325c6e1abc1c2f44c67d99ba9be5d3b9c0b903a8655b853c62717bb99924a1d9bf501d3f9f12b56dc5ac", "addr": "197x9cjGHGq9ah4AAwduRbu48J9PLiwcFD"}], "hex": "01000000010000000000000000000000000000000000000000000000000000000000000000ffffffff0704ffff001d0106ffffffff0100f2052a0100000043410419ba01c19d1c68af6bc780289ec1a5d4c181e81089f275325c6e1abc1c2f44c67d99ba9be5d3b9c0b903a8655b853c62717bb99924a1d9bf501d3f9f12b56dc5ac00000000"}]}