{"hash": "00000000aae47d47b6ff5eda6abab09cd6720684b1368eac70ac4240b3c90250", "ver": 1, "prev_block": "0000000031975f17c5642a9c7e53ae4201a70a6ba6363036b55497b8754d1866", "mrkl_root": "f15c7c51118c1dc93129a9f4999c7768ef2ff8cda3230f56d32576518c5f9349", "time": 1231624503, "bits": 486604799, "next_block": ["0000000063d334becd1f17db9b6ccf570805caeed92d37d3d67b48e3685e760d"], "fee": 0, "nonce": 3241330989, "n_tx": 1, "size": 216, "block_index": 65, "main_chain": true, "height": 65, "weight": 864, "tx": [{"hash": "f15c7c51118c1dc93129a9f4999c7768ef2ff8cda3230f56d32576518c5f9349", "ver": 1, "vin_sz": 1, "vout_sz": 1, "size": 135, "weight": 540, "fee": 0, "relayed_by": "0.0.0.0", "lock_time": 0, "tx_index": 2588713985650372, "double_spend": false, "time": 1231624503, "block_index": 65, "block_height": 65, "inputs": [{"sequence": 4294967295, "witness": "", "script": "04ffff001d02a100", "index": 0, "prev_out": null}], "out": [{"type": 0, "spent": false, "value": 5000000000, "spending_outpoints": [], "n": 0, "tx_index": 2588713985650372, "script": "4104066687fe17381d3ea7490b084a2e9cab4ab37369089accc8b005cbea944789d1e34fcc418ed70c98936ae2c97cd8478bdc37264260421999b150573d1106d492ac", "addr": "1UZhhzWo85osGzNrs1BVjoE3FP8ea2umX"}], "hex": "01000000010000000000000000000000000000000000000000000000000000000000000000ffffffff0804ffff001d02a100ffffffff0100f2052a01000000434104066687fe17381d3ea7490b084a2e9cab4ab37369089accc8b005cbea944789d1e34fcc418ed70c98936ae2c97cd8478bdc37264260421999b150573d1106d492ac00000000"}]}