{"hash": "0000000063d334becd1f17db9b6ccf570805caeed92d37d3d67b48e3685e760d", "ver": 1, "prev_block": "00000000aae47d47b6ff5eda6abab09cd6720684b1368eac70ac4240b3c90250", "mrkl_root": "f01d7897ca02ed20dfb5544b3c1228e225fd97b72510d40af6c9d8e489033a74", "time": 1231625020, "bits": 486604799, "next_block": ["00000000cd9c854b176413d6d344d6238426539fe1525b9a88a06e5d8a2df72b"], "fee": 0, "nonce": 2055099169, "n_tx": 1, "size": 216, "block_index": 66, "main_chain": true, "height": 66, "weight": 864, "tx": [{"hash": "f01d7897ca02ed20dfb5544b3c1228e225fd97b72510d40af6c9d8e489033a74", "ver": 1, "vin_sz": 1, "vout_sz": 1, "size": 135, "weight": 540, "fee": 0, "relayed_by": "0.0.0.0", "lock_time": 0, "tx_index": 4089360521403161, "double_spend": false, "time": 1231625020, "block_index": 66, "block_height": 66, "inputs": [{"sequence": 4294967295, "witness": "", "script": "04ffff001d02a700", "index": 0, "prev_out": null}], "out": [{"type": 0, "spent": false, "value": 5000000000, "spending_outpoints": [], "n": 0, "tx_index": 4089360521403161, "script": "4104931ec0965431158d18f122abc012edfa87e83df07028d2d3bd71504de74cac5798608b8283278f885639030029b1e5215f4a087506be0455fc9ebb5fa2aadd0eac", "addr": "1PeWcJrkpHMnUs3t5GvuwcHh1oBHYNoDwG"}], "hex": "01000000010000000000000000000000000000000000000000000000000000000000000000ffffffff0804ffff001d02a700ffffffff0100f2052a01000000434104931ec0965431158d18f122abc012edfa87e83df07028d2d3bd71504de74cac5798608b8283278f885639030029b1e5215f4a087506be0455fc9ebb5fa2aadd0eac00000000"}]}