{"hash": "00000000cd9c854b176413d6d344d6238426539fe1525b9a88a06e5d8a2df72b", "ver": 1, "prev_block": "0000000063d334becd1f17db9b6ccf570805caeed92d37d3d67b48e3685e760d", "mrkl_root": "b17fc28c1dc15ca4b05bf4784419c145b14e79ece54c793656997984c4e46715", "time": 1231626072, "bits": 486604799, "next_block": ["00000000bfafa874eff9ea7ec32c26499bd2580718daa33fb5dd7710db2c814c"], "fee": 0, "nonce": 3252408872, "n_tx": 1, "size": 216, "block_index": 67, "main_chain": true, "height": 67, "weight": 864, "tx": [{"hash": "b17fc28c1dc15ca4b05bf4784419c145b14e79ece54c793656997984c4e46715", "ver": 1, "vin_sz": 1, "vout_sz": 1, "size": 135, "weight": 540, "fee": 0, "relayed_by": "0.0.0.0", "lock_time": 0, "tx_index": 753150844768051, "double_spend": false, "time": 1231626072, "block_index": 67, "block_height": 67, "inputs": [{"sequence": 4294967295, "witness": "", "script": "04ffff001d02ad00", "index": 0, "prev_out": null}], "out": [{"type": 0, "spent": false, "value": 5000000000, "spending_outpoints": [], "n": 0, "tx_index": 753150844768051, "script": "41049977f4ef44b1c7c3854e52c3706c3a9614d7981ba3a7d4c7a168399c2ae324242c9b1e22e5ab8d0e8f732d56f353555e6c8ccb6116b1f46ff5fcc0298f9fadfdac", "addr": "17uWtnxcJdpH7pEXXmr1SLrohVxe18B3fD"}], "hex": "01000000010000000000000000000000000000000000000000000000000000000000000000ffffffff0804ffff001d02ad00ffffffff0100f2052a010000004341049977f4ef44b1c7c3854e52c3706c3a9614d7981ba3a7d4c7a168399c2ae324242c9b1e22e5ab8d0e8f732d56f353555e6c8ccb6116b1f46ff5fcc0298f9fadfdac00000000"}]}