{"hash": "00000000bfafa874eff9ea7ec32c26499bd2580718daa33fb5dd7710db2c814c", "ver": 1, "prev_block": "00000000cd9c854b176413d6d344d6238426539fe1525b9a88a06e5d8a2df72b", "mrkl_root": "bdc5121446fd203abbf0e4d13fe99594dc3dc4c1cb95504feb459e8982d923be", "time": 1231626618, "bits": 486604799, "next_block": ["00000000ddaccd89104a83b0a28e1987a88d8f51829029cb7e18630e2575e939"], "fee": 0, "nonce": 4035836948, "n_tx": 1, "size": 216, "block_index": 68, "main_chain": true, "height": 68, "weight": 864, "tx": [{"hash": "bdc5121446fd203abbf0e4d13fe99594dc3dc4c1cb95504feb459e8982d923be", "ver": 1, "vin_sz": 1, "vout_sz": 1, "size": 135, "weight": 540, "fee": 0, "relayed_by": "0.0.0.0", "lock_time": 0, "tx_index": 6689957834994632, "double_spend": false, "time": 1231626618, "block_index": 68, "block_height": 68, "inputs": [{"sequence": 4294967295, "witness": "", "script": "04ffff001d02b400", "index": 0, "prev_out": null}], "out": [{"type": 0, "spent": false, "value": 5000000000, "spending_outpoints": [], "n": 0, "tx_index": 6689957834994632, "script": "4104440de3fdefd849e2d4725cef4dccf25a7bd8b8dcc181edaf189391790a5cae414a08e75a76df0fc4ed2fb79dfba9fdc3026ceded3582a34a20fffcfa4fb12153ac", "addr": "1GPrHBrbFjzGVTwA4P4y5QnaDhd3GCYU5x"}], "hex": "01000000010000000000000000000000000000000000000000000000000000000000000000ffffffff0804ffff001d02b400ffffffff0100f2052a01000000434104440de3fdefd849e2d4725cef4dccf25a7bd8b8dcc181edaf189391790a5cae414a08e75a76df0fc4ed2fb79dfba9fdc3026ceded3582a34a20fffcfa4fb12153ac00000000"}]}