{"hash": "00000000ddaccd89104a83b0a28e1987a88d8f51829029cb7e18630e2575e939", "ver": 1, "prev_block": "00000000bfafa874eff9ea7ec32c26499bd2580718daa33fb5dd7710db2c814c", "mrkl_root": "807822a80b4ed7b7dfbe560a79705c62a71e48be9dbcce152ab70f94b1eb4307", "time": 1231626979, "bits": 486604799, "next_block": ["00000000ba63ae2eeb3d2371708291b90507c3317ef957f6fcba3811cc4fe0cc"], "fee": 0, "nonce": 3006540568, "n_tx": 1, "size": 216, "block_index": 69, "main_chain": true, "height": 69, "weight": 864, "tx": [{"hash": "807822a80b4ed7b7dfbe560a79705c62a71e48be9dbcce152ab70f94b1eb4307", "ver": 1, "vin_sz": 1, "vout_sz": 1, "size": 135, "weight": 540, "fee": 0, "relayed_by": "0.0.0.0", "lock_time": 0, "tx_index": 255625551577590, "double_spend": false, "time": 1231626979, "block_index": 69, "block_height": 69, "inputs": [{"sequence": 4294967295, "witness": "", "script": "04ffff001d02b500", "index": 0, "prev_out": null}], "out": [{"type": 0, "spent": false, "value": 5000000000, "spending_outpoints": [], "n": 0, "tx_index": 255625551577590, "script": "410443e7444ce6d177ed64331242f38feb451362b84f4ad5a0337b40022ade0fe1e5dbc923c6a5965fbf25a58561c5a28edec98d06e26c5c3c39000fe41a1325d004ac", "addr": "1JgpRwCt8rm29g3y4FkVKWWck8qEeKgfZv"}], "hex": "01000000010000000000000000000000000000000000000000000000000000000000000000ffffffff0804ffff001d02b500ffffffff0100f2052a0100000043410443e7444ce6d177ed64331242f38feb451362b84f4ad5a0337b40022ade0fe1e5dbc923c6a5965fbf25a58561c5a28edec98d06e26c5c3c39000fe41a1325d004ac00000000"}]}