{"hash": "0000000071966c2b1d065fd446b1e485b2c9d9594acd2007ccbd5441cfc89444", "ver": 1, "prev_block": "000000003031a0e73735690c5a1ff2a4be82553b2a12b776fbd3a215dc8f778d", "mrkl_root": "8aa673bc752f2851fd645d6a0a92917e967083007d9c1684f9423b100540673f", "time": 1231472369, "bits": 486604799, "next_block": ["00000000408c48f847aa786c2268fc3e6ec2af68e8468a34a28c61b7f1de0dc6"], "fee": 0, "nonce": 2258412857, "n_tx": 1, "size": 215, "block_index": 7, "main_chain": true, "height": 7, "weight": 860, "tx": [{"hash": "8aa673bc752f2851fd645d6a0a92917e967083007d9c1684f9423b100540673f", "ver": 1, "vin_sz": 1, "vout_sz": 1, "size": 134, "weight": 536, "fee": 0, "relayed_by": "0.0.0.0", "lock_time": 0, "tx_index": 2230806024161128, "double_spend": false, "time": 1231472369, "block_index": 7, "block_height": 7, "inputs": [{"sequence": 4294967295, "witness": "", "script": "04ffff001d012b", "index": 0, "prev_out": null}], "out": [{"type": 0, "spent": false, "value": 5000000000, "spending_outpoints": [], "n": 0, "tx_index": 2230806024161128, "script": "4104a59e64c774923d003fae7491b2a7f75d6b7aa3f35606a8ff1cf06cd3317d16a41aa16928b1df1f631f31f28c7da35d4edad3603adb2338c4d4dd268f31530555ac", "addr": "16LoW7y83wtawMg5XmT4M3Q7EdjjUmenjM"}], "hex": "01000000010000000000000000000000000000000000000000000000000000000000000000ffffffff0704ffff001d012bffffffff0100f2052a01000000434104a59e64c774923d003fae7491b2a7f75d6b7aa3f35606a8ff1cf06cd3317d16a41aa16928b1df1f631f31f28c7da35d4edad3603adb2338c4d4dd268f31530555ac00000000"}]}