{"hash": "00000000ba63ae2eeb3d2371708291b90507c3317ef957f6fcba3811cc4fe0cc", "ver": 1, "prev_block": "00000000ddaccd89104a83b0a28e1987a88d8f51829029cb7e18630e2575e939", "mrkl_root": "aa5f3068b53941915d82be382f2b35711305ec7d454a34ca69f8897510db7ab8", "time": 1231627646, "bits": 486604799, "next_block": ["000000007f7cbc93a93141bb69eb7fbfad9c4682cc328da097dbcb2b77bd1457"], "fee": 0, "nonce": 4209394234, "n_tx": 1, "size": 216, "block_index": 70, "main_chain": true, "height": 70, "weight": 864, "tx": [{"hash": "aa5f3068b53941915d82be382f2b35711305ec7d454a34ca69f8897510db7ab8", "ver": 1, "vin_sz": 1, "vout_sz": 1, "size": 135, "weight": 540, "fee": 0, "relayed_by": "0.0.0.0", "lock_time": 0, "tx_index": 6490809625915711, "double_spend": false, "time": 1231627646, "block_index": 70, "block_height": 70, "inputs": [{"sequence": 4294967295, "witness": "", "script": "04ffff001d02bc00", "index": 0, "prev_out": null}], "out": [{"type": 0, "spent": false, "value": 5000000000, "spending_outpoints": [], "n": 0, "tx_index": 6490809625915711, "script": "41048bc631c0da8fa813d18cc2cbe89559054e135bdd4a590f3a25fc66ff642e2de7f18f5f398c6f00a12df74f5a82053bfcd4ccb55bd4f231d2ffee618e7267a1c2ac", "addr": "1NnYa2jL24hLgXBbk3TAXHANUQEzXNnSHg"}], "hex": "01000000010000000000000000000000000000000000000000000000000000000000000000ffffffff0804ffff001d02bc00ffffffff0100f2052a010000004341048bc631c0da8fa813d18cc2cbe89559054e135bdd4a590f3a25fc66ff642e2de7f18f5f398c6f00a12df74f5a82053bfcd4ccb55bd4f231d2ffee618e7267a1c2ac00000000"}]}