{"hash": "000000007f7cbc93a93141bb69eb7fbfad9c4682cc328da097dbcb2b77bd1457", "ver": 1, "prev_block": "00000000ba63ae2eeb3d2371708291b90507c3317ef957f6fcba3811cc4fe0cc", "mrkl_root": "fd83acf6e35be34a654ae53fbdc43ae4a7c4e1bcc334064a6360bf6b32339fcb", "time": 1231628459, "bits": 486604799, "next_block": ["0000000082c0abb2875dc690a243dce6cbc856647b6422abbe82f97a3a7b127a"], "fee": 0, "nonce": 1190286374, "n_tx": 1, "size": 216, "block_index": 71, "main_chain": true, "height": 71, "weight": 864, "tx": [{"hash": "fd83acf6e35be34a654ae53fbdc43ae4a7c4e1bcc334064a6360bf6b32339fcb", "ver": 1, "vin_sz": 1, "vout_sz": 1, "size": 135, "weight": 540, "fee": 0, "relayed_by": "0.0.0.0", "lock_time": 0, "tx_index": 7164307813791724, "double_spend": false, "time": 1231628459, "block_index": 71, "block_height": 71, "inputs": [{"sequence": 4294967295, "witness": "", "script": "04ffff001d02c600", "index": 0, "prev_out": null}], "out": [{"type": 0, "spent": false, "value": 5000000000, "spending_outpoints": [], "n": 0, "tx_index": 7164307813791724, "script": "410439fc9a6971cd37f858dca09e85506cddf42ceba231d3a53960bc8b6ca73d98c4785ff33a7c24f5de6a251381c87fdc104867df420495b7d93d39861cf5238c36ac", "addr": "19CAnt15TpQrJ9gjmdZZsLcwRj8E1mkqPP"}], "hex": "01000000010000000000000000000000000000000000000000000000000000000000000000ffffffff0804ffff001d02c600ffffffff0100f2052a0100000043410439fc9a6971cd37f858dca09e85506cddf42ceba231d3a53960bc8b6ca73d98c4785ff33a7c24f5de6a251381c87fdc104867df420495b7d93d39861cf5238c36ac00000000"}]}