{"hash": "0000000082c0abb2875dc690a243dce6cbc856647b6422abbe82f97a3a7b127a", "ver": 1, "prev_block": "000000007f7cbc93a93141bb69eb7fbfad9c4682cc328da097dbcb2b77bd1457", "mrkl_root": "dea3224cc1333edf41b3b97913d8b2a6402bddf6132f2137e003b535369f9ae1", "time": 1231629194, "bits": 486604799, "next_block": ["000000008ec9525cb2092c6bd7d1c2580e595bcfa54bac51cf6f0278b242f25d"], "fee": 0, "nonce": 3714618120, "n_tx": 1, "size": 216, "block_index": 72, "main_chain": true, "height": 72, "weight": 864, "tx": [{"hash": "dea3224cc1333edf41b3b97913d8b2a6402bddf6132f2137e003b535369f9ae1", "ver": 1, "vin_sz": 1, "vout_sz": 1, "size": 135, "weight": 540, "fee": 0, "relayed_by": "0.0.0.0", "lock_time": 0, "tx_index": 7937734794983072, "double_spend": false, "time": 1231629194, "block_index": 72, "block_height": 72, "inputs": [{"sequence": 4294967295, "witness": "", "script": "04ffff001d02c700", "index": 0, "prev_out": null}], "out": [{"type": 0, "spent": false, "value": 5000000000, "spending_outpoints": [], "n": 0, "tx_index": 7937734794983072, "script": "4104d2b452aa16024f4eb306bfc304e7f1ff5a01c2f4953859ea6608a7ad5a7c3e5b238bc6310d3816f7b8851e06a3c218911a16c3eedf7d1db982b06dba8c399a34ac", "addr": "1K2UaAY9jfz7wUxadbD3ivBLGqrcF4ai8M"}], "hex": "01000000010000000000000000000000000000000000000000000000000000000000000000ffffffff0804ffff001d02c700ffffffff0100f2052a01000000434104d2b452aa16024f4eb306bfc304e7f1ff5a01c2f4953859ea6608a7ad5a7c3e5b238bc6310d3816f7b8851e06a3c218911a16c3eedf7d1db982b06dba8c399a34ac00000000"}]}