{"hash": "000000008ec9525cb2092c6bd7d1c2580e595bcfa54bac51cf6f0278b242f25d", "ver": 1, "prev_block": "0000000082c0abb2875dc690a243dce6cbc856647b6422abbe82f97a3a7b127a", "mrkl_root": "41b48c64cba68c21e0b7b37f589408823f112bb7cbccef4aece29df25347ffb4", "time": 1231630288, "bits": 486604799, "next_block": ["00000000ec989ed4909499b92e9d3eb900d75dd1fab455315916e3d45924d456"], "fee": 0, "nonce": 3579880249, "n_tx": 1, "size": 215, "block_index": 73, "main_chain": true, "height": 73, "weight": 860, "tx": [{"hash": "41b48c64cba68c21e0b7b37f589408823f112bb7cbccef4aece29df25347ffb4", "ver": 1, "vin_sz": 1, "vout_sz": 1, "size": 134, "weight": 536, "fee": 0, "relayed_by": "0.0.0.0", "lock_time": 0, "tx_index": 6368272203011004, "double_spend": false, "time": 1231630288, "block_index": 73, "block_height": 73, "inputs": [{"sequence": 4294967295, "witness": "", "script": "04ffff001d0101", "index": 0, "prev_out": null}], "out": [{"type": 0, "spent": false, "value": 5000000000, "spending_outpoints": [], "n": 0, "tx_index": 6368272203011004, "script": "41041ff327e119b244f3c6140c13f94fdde6432fa02aebaac4a263859615080d0096a43d447affc1572e3391d762de5aa8aa650cda877b3bf42ecd157cfe49ad838aac", "addr": "1Ky8dP7oR1cBeg1MzkrgHAeHAHyn92DCar"}], "hex": "01000000010000000000000000000000000000000000000000000000000000000000000000ffffffff0704ffff001d0101ffffffff0100f2052a010000004341041ff327e119b244f3c6140c13f94fdde6432fa02aebaac4a263859615080d0096a43d447affc1572e3391d762de5aa8aa650cda877b3bf42ecd157cfe49ad838aac00000000"}]}