{"hash": "00000000ec989ed4909499b92e9d3eb900d75dd1fab455315916e3d45924d456", "ver": 1, "prev_block": "000000008ec9525cb2092c6bd7d1c2580e595bcfa54bac51cf6f0278b242f25d", "mrkl_root": "d472546c5171ea73bc9000f2994f069631c7706f5e922e2fe5f8e50e0402bed6", "time": 1231631189, "bits": 486604799, "next_block": ["00000000be64a31bc9c3c29ddfd5e45c81b6db279fee45b3a11cd7945109e54e"], "fee": 0, "nonce": 3926285097, "n_tx": 1, "size": 215, "block_index": 74, "main_chain": true, "height": 74, "weight": 860, "tx": [{"hash": "d472546c5171ea73bc9000f2994f069631c7706f5e922e2fe5f8e50e0402bed6", "ver": 1, "vin_sz": 1, "vout_sz": 1, "size": 134, "weight": 536, "fee": 0, "relayed_by": "0.0.0.0", "lock_time": 0, "tx_index": 7555570110422207, "double_spend": false, "time": 1231631189, "block_index": 74, "block_height": 74, "inputs": [{"sequence": 4294967295, "witness": "", "script": "04ffff001d0103", "index": 0, "prev_out": null}], "out": [{"type": 0, "spent": false, "value": 5000000000, "spending_outpoints": [], "n": 0, "tx_index": 7555570110422207, "script": "41044ec8b0fcf5304f08f97348130e5c12c89f2f1678b1599d7f78b033597944945362ca67001ad40afaac594d09cb25ef323ea1bea28ae01c392397a7c673206072ac", "addr": "1FnbdYntfohuZ1EhZ7f9oiT2R5sDsZBohL"}], "hex": "01000000010000000000000000000000000000000000000000000000000000000000000000ffffffff0704ffff001d0103ffffffff0100f2052a010000004341044ec8b0fcf5304f08f97348130e5c12c89f2f1678b1599d7f78b033597944945362ca67001ad40afaac594d09cb25ef323ea1bea28ae01c392397a7c673206072ac00000000"}]}