{"hash": "00000000be64a31bc9c3c29ddfd5e45c81b6db279fee45b3a11cd7945109e54e", "ver": 1, "prev_block": "00000000ec989ed4909499b92e9d3eb900d75dd1fab455315916e3d45924d456", "mrkl_root": "382501ac2d50c5944465c2c316dbe2c70f23dd0de73ea86d339ea5f2bca7b648", "time": 1231631822, "bits": 486604799, "next_block": ["000000005a512245f8e901241ce422afbd6b6f4c2d4bb582b763118614d57858"], "fee": 0, "nonce": 993509923, "n_tx": 1, "size": 215, "block_index": 75, "main_chain": true, "height": 75, "weight": 860, "tx": [{"hash": "382501ac2d50c5944465c2c316dbe2c70f23dd0de73ea86d339ea5f2bca7b648", "ver": 1, "vin_sz": 1, "vout_sz": 1, "size": 134, "weight": 536, "fee": 0, "relayed_by": "0.0.0.0", "lock_time": 0, "tx_index": 2558378733622451, "double_spend": false, "time": 1231631822, "block_index": 75, "block_height": 75, "inputs": [{"sequence": 4294967295, "witness": "", "script": "04ffff001d0104", "index": 0, "prev_out": null}], "out": [{"type": 0, "spent": false, "value": 5000000000, "spending_outpoints": [], "n": 0, "tx_index": 2558378733622451, "script": "4104a5f1b7ea48a8d5913bfc569b1b9e091d7fbbbb5cdb97af0442f40be158fa5af68417e4bde42dfa04326e38613d583aafb5edb675b19e32465e8454fdd4c64202ac", "addr": "14U5EYTN54agAngQu92D9gESvHYfKw8EqA"}], "hex": "01000000010000000000000000000000000000000000000000000000000000000000000000ffffffff0704ffff001d0104ffffffff0100f2052a01000000434104a5f1b7ea48a8d5913bfc569b1b9e091d7fbbbb5cdb97af0442f40be158fa5af68417e4bde42dfa04326e38613d583aafb5edb675b19e32465e8454fdd4c64202ac00000000"}]}