{"hash": "000000005a512245f8e901241ce422afbd6b6f4c2d4bb582b763118614d57858", "ver": 1, "prev_block": "00000000be64a31bc9c3c29ddfd5e45c81b6db279fee45b3a11cd7945109e54e", "mrkl_root": "47c981c4193d62d9d33b59fe1a6de9c27ff78d9f9003325b61e686a720673626", "time": 1231632554, "bits": 486604799, "next_block": ["00000000e7d28ee0e6238bd21775a007d5c4987967d2e99a527572dd30fa06ef"], "fee": 0, "nonce": 3921374238, "n_tx": 1, "size": 215, "block_index": 76, "main_chain": true, "height": 76, "weight": 860, "tx": [{"hash": "47c981c4193d62d9d33b59fe1a6de9c27ff78d9f9003325b61e686a720673626", "ver": 1, "vin_sz": 1, "vout_sz": 1, "size": 134, "weight": 536, "fee": 0, "relayed_by": "0.0.0.0", "lock_time": 0, "tx_index": 1344483209048284, "double_spend": false, "time": 1231632554, "block_index": 76, "block_height": 76, "inputs": [{"sequence": 4294967295, "witness": "", "script": "04ffff001d010b", "index": 0, "prev_out": null}], "out": [{"type": 0, "spent": false, "value": 5000000000, "spending_outpoints": [], "n": 0, "tx_index": 1344483209048284, "script": "4104737918981d5f4caa7efd6c11cccd696b4b588e823053ce202dbe1b2531f09150f885e32ff0af259d2bfa3f0ba573807addcc096375961f1490a50a860444204cac", "addr": "19X7soRFwUCRX8aUc3NrRZddHgpLmFmpzc"}], "hex": "01000000010000000000000000000000000000000000000000000000000000000000000000ffffffff0704ffff001d010bffffffff0100f2052a01000000434104737918981d5f4caa7efd6c11cccd696b4b588e823053ce202dbe1b2531f09150f885e32ff0af259d2bfa3f0ba573807addcc096375961f1490a50a860444204cac00000000"}]}