{"hash": "00000000e7d28ee0e6238bd21775a007d5c4987967d2e99a527572dd30fa06ef", "ver": 1, "prev_block": "000000005a512245f8e901241ce422afbd6b6f4c2d4bb582b763118614d57858", "mrkl_root": "b5015619429af022efa69e0401891a92533b1852f214b68504c2e435a8cb7d0e", "time": 1231633184, "bits": 486604799, "next_block": ["00000000a2886c95400fd3b263b9920af80b118b28fee5d2a162a18e4d9d8b2f"], "fee": 0, "nonce": 322094626, "n_tx": 1, "size": 215, "block_index": 77, "main_chain": true, "height": 77, "weight": 860, "tx": [{"hash": "b5015619429af022efa69e0401891a92533b1852f214b68504c2e435a8cb7d0e", "ver": 1, "vin_sz": 1, "vout_sz": 1, "size": 134, "weight": 536, "fee": 0, "relayed_by": "0.0.0.0", "lock_time": 0, "tx_index": 509870415985816, "double_spend": false, "time": 1231633184, "block_index": 77, "block_height": 77, "inputs": [{"sequence": 4294967295, "witness": "", "script": "04ffff001d010e", "index": 0, "prev_out": null}], "out": [{"type": 0, "spent": false, "value": 5000000000, "spending_outpoints": [], "n": 0, "tx_index": 509870415985816, "script": "4104c8e38a2d330ef2c1317df46c906ed13c462bf5f360f1e26b1427ea38bf8f4075c91742ae5a0658b5beffb512dcc00f661b4813e85f584708204db09e4f6bd9b6ac", "addr": "1H2nuVj2EnEVoYSw3opGjVxJdDqnehiYWN"}], "hex": "01000000010000000000000000000000000000000000000000000000000000000000000000ffffffff0704ffff001d010effffffff0100f2052a01000000434104c8e38a2d330ef2c1317df46c906ed13c462bf5f360f1e26b1427ea38bf8f4075c91742ae5a0658b5beffb512dcc00f661b4813e85f584708204db09e4f6bd9b6ac00000000"}]}