{"hash": "00000000a2886c95400fd3b263b9920af80b118b28fee5d2a162a18e4d9d8b2f", "ver": 1, "prev_block": "00000000e7d28ee0e6238bd21775a007d5c4987967d2e99a527572dd30fa06ef", "mrkl_root": "7ea1d2304f1f95fae773ed8ef67b51cfd5ab33ea8b6ab0a932ee3e248b7ba74c", "time": 1231635654, "bits": 486604799, "next_block": ["0000000086e318e8c348dad73199bb6fac8cc1effb9c872a7dda49c5caca0021"], "fee": 0, "nonce": 483699940, "n_tx": 1, "size": 215, "block_index": 78, "main_chain": true, "height": 78, "weight": 860, "tx": [{"hash": "7ea1d2304f1f95fae773ed8ef67b51cfd5ab33ea8b6ab0a932ee3e248b7ba74c", "ver": 1, "vin_sz": 1, "vout_sz": 1, "size": 134, "weight": 536, "fee": 0, "relayed_by": "0.0.0.0", "lock_time": 0, "tx_index": 2697030910904285, "double_spend": false, "time": 1231635654, "block_index": 78, "block_height": 78, "inputs": [{"sequence": 4294967295, "witness": "", "script": "04ffff001d010f", "index": 0, "prev_out": null}], "out": [{"type": 0, "spent": true, "value": 5000000000, "spending_outpoints": [{"tx_index": 8751447239957630, "n": 5}], "n": 0, "tx_index": 2697030910904285, "script": "4104fd024595ebaa7a83bd672cd7d59e6eb42f0f04e7dc77a4f0634e45c2420d8a949cba06cde901f23d52cda564d494d172ba80281fa2d9c2a2e825e9c462be0da6ac", "addr": "1AiBYt8XbsdyPAELFpcSwRpu45eb2bArMf"}], "hex": "01000000010000000000000000000000000000000000000000000000000000000000000000ffffffff0704ffff001d010fffffffff0100f2052a01000000434104fd024595ebaa7a83bd672cd7d59e6eb42f0f04e7dc77a4f0634e45c2420d8a949cba06cde901f23d52cda564d494d172ba80281fa2d9c2a2e825e9c462be0da6ac00000000"}]}