{"hash": "0000000086e318e8c348dad73199bb6fac8cc1effb9c872a7dda49c5caca0021", "ver": 1, "prev_block": "00000000a2886c95400fd3b263b9920af80b118b28fee5d2a162a18e4d9d8b2f", "mrkl_root": "fb9967077804b9a4b7f5c80f7d8c567639cc14b17955da27c10b9947ddbd1825", "time": 1231645607, "bits": 486604799, "next_block": ["00000000be62325a98e47d3306f275efe45d39d8cd5df28c795c96b8920ad48f"], "fee": 0, "nonce": 2991488313, "n_tx": 1, "size": 215, "block_index": 79, "main_chain": true, "height": 79, "weight": 860, "tx": [{"hash": "fb9967077804b9a4b7f5c80f7d8c567639cc14b17955da27c10b9947ddbd1825", "ver": 1, "vin_sz": 1, "vout_sz": 1, "size": 134, "weight": 536, "fee": 0, "relayed_by": "0.0.0.0", "lock_time": 0, "tx_index": 1305222234829601, "double_spend": false, "time": 1231645607, "block_index": 79, "block_height": 79, "inputs": [{"sequence": 4294967295, "witness": "", "script": "04ffff001d0103", "index": 0, "prev_out": null}], "out": [{"type": 0, "spent": false, "value": 5000000000, "spending_outpoints": [], "n": 0, "tx_index": 1305222234829601, "script": "41045180728bae477149c556f55987b95b926a0da0f542adf2e8f4f811cd929b8e5c73b92ac9f454a2bfc7b1463be7f553b9e7ba26f7229d513241ff3b5cdf6b72bbac", "addr": "12ti6ZDtjJTFnfSXJD1yZeojFdc1u4nJcS"}], "hex": "01000000010000000000000000000000000000000000000000000000000000000000000000ffffffff0704ffff001d0103ffffffff0100f2052a010000004341045180728bae477149c556f55987b95b926a0da0f542adf2e8f4f811cd929b8e5c73b92ac9f454a2bfc7b1463be7f553b9e7ba26f7229d513241ff3b5cdf6b72bbac00000000"}]}