{"hash": "00000000be62325a98e47d3306f275efe45d39d8cd5df28c795c96b8920ad48f", "ver": 1, "prev_block": "0000000086e318e8c348dad73199bb6fac8cc1effb9c872a7dda49c5caca0021", "mrkl_root": "5ed287fa7b07229b53b15c6ad95ab49c1c222aa0fcfa2dd6603fa8492fae54c6", "time": 1231646077, "bits": 486604799, "next_block": ["000000007d076a5289751e363ecb01604355730e69de270f04f79d969ff1cf86"], "fee": 0, "nonce": 320393266, "n_tx": 1, "size": 215, "block_index": 80, "main_chain": true, "height": 80, "weight": 860, "tx": [{"hash": "5ed287fa7b07229b53b15c6ad95ab49c1c222aa0fcfa2dd6603fa8492fae54c6", "ver": 1, "vin_sz": 1, "vout_sz": 1, "size": 134, "weight": 536, "fee": 0, "relayed_by": "0.0.0.0", "lock_time": 0, "tx_index": 6978144060388615, "double_spend": false, "time": 1231646077, "block_index": 80, "block_height": 80, "inputs": [{"sequence": 4294967295, "witness": "", "script": "04ffff001d0104", "index": 0, "prev_out": null}], "out": [{"type": 0, "spent": false, "value": 5000000000, "spending_outpoints": [], "n": 0, "tx_index": 6978144060388615, "script": "4104e869b280ddc2eb25995d46264e9b94d99214f0c3c3eec3b285c54bba7658edce94a3dca09c2206ec7a81aa1aef82bbf43c548f19731c37744c2bd97742e84173ac", "addr": "1BwWdLV5wbnZvSYfNA8zaEMqEDDjvA99wX"}], "hex": "01000000010000000000000000000000000000000000000000000000000000000000000000ffffffff0704ffff001d0104ffffffff0100f2052a01000000434104e869b280ddc2eb25995d46264e9b94d99214f0c3c3eec3b285c54bba7658edce94a3dca09c2206ec7a81aa1aef82bbf43c548f19731c37744c2bd97742e84173ac00000000"}]}