{"hash": "000000007d076a5289751e363ecb01604355730e69de270f04f79d969ff1cf86", "ver": 1, "prev_block": "00000000be62325a98e47d3306f275efe45d39d8cd5df28c795c96b8920ad48f", "mrkl_root": "5c4c653395879f5992949b3e28bb0be7b27d49e9e11d64899c5de30928d4ad99", "time": 1231646456, "bits": 486604799, "next_block": ["00000000162222fadd114245e16d25f6d02acbf67865575dc6f64b57634b5153"], "fee": 0, "nonce": 4017887024, "n_tx": 1, "size": 215, "block_index": 81, "main_chain": true, "height": 81, "weight": 860, "tx": [{"hash": "5c4c653395879f5992949b3e28bb0be7b27d49e9e11d64899c5de30928d4ad99", "ver": 1, "vin_sz": 1, "vout_sz": 1, "size": 134, "weight": 536, "fee": 0, "relayed_by": "0.0.0.0", "lock_time": 0, "tx_index": 5407099769142379, "double_spend": false, "time": 1231646456, "block_index": 81, "block_height": 81, "inputs": [{"sequence": 4294967295, "witness": "", "script": "04ffff001d0105", "index": 0, "prev_out": null}], "out": [{"type": 0, "spent": false, "value": 5000000000, "spending_outpoints": [], "n": 0, "tx_index": 5407099769142379, "script": "4104f0d742c83392ae7f885fca7739a1681df9039d9930f4eede9fef7b7c85fb191fad43e584345e8b872c84260b39c2e192512ead631083be327a6825fa0ba561e5ac", "addr": "1KmbQCNdfCDkEB6yWw5iLjBTGJ5MYptqAL"}], "hex": "01000000010000000000000000000000000000000000000000000000000000000000000000ffffffff0704ffff001d0105ffffffff0100f2052a01000000434104f0d742c83392ae7f885fca7739a1681df9039d9930f4eede9fef7b7c85fb191fad43e584345e8b872c84260b39c2e192512ead631083be327a6825fa0ba561e5ac00000000"}]}