{"hash": "00000000162222fadd114245e16d25f6d02acbf67865575dc6f64b57634b5153", "ver": 1, "prev_block": "000000007d076a5289751e363ecb01604355730e69de270f04f79d969ff1cf86", "mrkl_root": "81fb4b1430e5c2cdee38be1a147c45fe23b38bbad0375ff67dc64450844445be", "time": 1231647491, "bits": 486604799, "next_block": ["00000000ca15c30122dc65c33e8ec1f7ff2631ef9e2a1c36d8a399ca1705122b"], "fee": 0, "nonce": 2519696689, "n_tx": 1, "size": 215, "block_index": 82, "main_chain": true, "height": 82, "weight": 860, "tx": [{"hash": "81fb4b1430e5c2cdee38be1a147c45fe23b38bbad0375ff67dc64450844445be", "ver": 1, "vin_sz": 1, "vout_sz": 1, "size": 134, "weight": 536, "fee": 0, "relayed_by": "0.0.0.0", "lock_time": 0, "tx_index": 6694550769371288, "double_spend": false, "time": 1231647491, "block_index": 82, "block_height": 82, "inputs": [{"sequence": 4294967295, "witness": "", "script": "04ffff001d010b", "index": 0, "prev_out": null}], "out": [{"type": 0, "spent": false, "value": 5000000000, "spending_outpoints": [], "n": 0, "tx_index": 6694550769371288, "script": "4104916315e2bfc2affe420b84b949e53134d996af10a6f6e6a4ffb0158d00ba7433ead8bdd024517e2ec650965ffdf8f6eaf2a5046c0889b3532206f65be6e76a95ac", "addr": "1NHVxANujgiDvPxNLQ1cc5B8AEisnx2Yz6"}], "hex": "01000000010000000000000000000000000000000000000000000000000000000000000000ffffffff0704ffff001d010bffffffff0100f2052a01000000434104916315e2bfc2affe420b84b949e53134d996af10a6f6e6a4ffb0158d00ba7433ead8bdd024517e2ec650965ffdf8f6eaf2a5046c0889b3532206f65be6e76a95ac00000000"}]}