{"hash": "00000000ca15c30122dc65c33e8ec1f7ff2631ef9e2a1c36d8a399ca1705122b", "ver": 1, "prev_block": "00000000162222fadd114245e16d25f6d02acbf67865575dc6f64b57634b5153", "mrkl_root": "561eebc615218a12a9588ac78dde63aa56f3b1b43eb17174d2f093d1e2d1ca73", "time": 1231648583, "bits": 486604799, "next_block": ["0000000095f5ee67aaade1dfa150b7ae38b3ff068936c9c95a7bb114b6ce8d4f"], "fee": 0, "nonce": 2632256788, "n_tx": 1, "size": 215, "block_index": 83, "main_chain": true, "height": 83, "weight": 860, "tx": [{"hash": "561eebc615218a12a9588ac78dde63aa56f3b1b43eb17174d2f093d1e2d1ca73", "ver": 1, "vin_sz": 1, "vout_sz": 1, "size": 134, "weight": 536, "fee": 0, "relayed_by": "0.0.0.0", "lock_time": 0, "tx_index": 4074078140510846, "double_spend": false, "time": 1231648583, "block_index": 83, "block_height": 83, "inputs": [{"sequence": 4294967295, "witness": "", "script": "04ffff001d0110", "index": 0, "prev_out": null}], "out": [{"type": 0, "spent": false, "value": 5000000000, "spending_outpoints": [], "n": 0, "tx_index": 4074078140510846, "script": "410426f1f79f707063f225a9d48097d0fe6923afb3f8c210b536c93b8465e8a5d937a90806c0e2861b92a91d050f81c61e837e638aecd53584205bfd521bc9a14aa6ac", "addr": "1DmJE9Z1Teye3JmxhoDUcmnMmubCg8dNtF"}], "hex": "01000000010000000000000000000000000000000000000000000000000000000000000000ffffffff0704ffff001d0110ffffffff0100f2052a0100000043410426f1f79f707063f225a9d48097d0fe6923afb3f8c210b536c93b8465e8a5d937a90806c0e2861b92a91d050f81c61e837e638aecd53584205bfd521bc9a14aa6ac00000000"}]}