{"hash": "0000000095f5ee67aaade1dfa150b7ae38b3ff068936c9c95a7bb114b6ce8d4f", "ver": 1, "prev_block": "00000000ca15c30122dc65c33e8ec1f7ff2631ef9e2a1c36d8a399ca1705122b", "mrkl_root": "9a3d8485cde248ab7dcea68c5a8539498ecb8ad337f2574fc2143d2f644b2e1d", "time": 1231649497, "bits": 486604799, "next_block": ["00000000219949b3de1eae5447c00501812757885e65554fe5c51039ebe643d1"], "fee": 0, "nonce": 711533078, "n_tx": 1, "size": 215, "block_index": 84, "main_chain": true, "height": 84, "weight": 860, "tx": [{"hash": "9a3d8485cde248ab7dcea68c5a8539498ecb8ad337f2574fc2143d2f644b2e1d", "ver": 1, "vin_sz": 1, "vout_sz": 1, "size": 134, "weight": 536, "fee": 0, "relayed_by": "0.0.0.0", "lock_time": 0, "tx_index": 1026709457856418, "double_spend": false, "time": 1231649497, "block_index": 84, "block_height": 84, "inputs": [{"sequence": 4294967295, "witness": "", "script": "04ffff001d0115", "index": 0, "prev_out": null}], "out": [{"type": 0, "spent": false, "value": 5000000000, "spending_outpoints": [], "n": 0, "tx_index": 1026709457856418, "script": "4104e761595b66d7c108dcec83722a23a24ce0b2cf3f8f5db4fb483b62a36a96e5ad93698cd2006cbca41b4294af51fb61c13202eb9a871c86f8ce3479eccda1fa45ac", "addr": "1HWP2q1RjpRbjm2K5ZPFnnfbnpNjN7XJWj"}], "hex": "01000000010000000000000000000000000000000000000000000000000000000000000000ffffffff0704ffff001d0115ffffffff0100f2052a01000000434104e761595b66d7c108dcec83722a23a24ce0b2cf3f8f5db4fb483b62a36a96e5ad93698cd2006cbca41b4294af51fb61c13202eb9a871c86f8ce3479eccda1fa45ac00000000"}]}