{"hash": "00000000219949b3de1eae5447c00501812757885e65554fe5c51039ebe643d1", "ver": 1, "prev_block": "0000000095f5ee67aaade1dfa150b7ae38b3ff068936c9c95a7bb114b6ce8d4f", "mrkl_root": "c39bde3039372f835ca96f15d5f38df585fac24a316d28cb5febae7c4af15cb4", "time": 1231650483, "bits": 486604799, "next_block": ["00000000f1b3a6b39671e475b858bc6831db3ca57e8ecafa49a13c4d5b04fb53"], "fee": 0, "nonce": 3806652726, "n_tx": 1, "size": 215, "block_index": 85, "main_chain": true, "height": 85, "weight": 860, "tx": [{"hash": "c39bde3039372f835ca96f15d5f38df585fac24a316d28cb5febae7c4af15cb4", "ver": 1, "vin_sz": 1, "vout_sz": 1, "size": 134, "weight": 536, "fee": 0, "relayed_by": "0.0.0.0", "lock_time": 0, "tx_index": 6345960901809629, "double_spend": false, "time": 1231650483, "block_index": 85, "block_height": 85, "inputs": [{"sequence": 4294967295, "witness": "", "script": "04ffff001d0119", "index": 0, "prev_out": null}], "out": [{"type": 0, "spent": false, "value": 5000000000, "spending_outpoints": [], "n": 0, "tx_index": 6345960901809629, "script": "410433b8523d01fa02c9ff12b73bb4e6dcb4dac725e0853d119cf13d791e202b4e30dcb6da12d3627d638ff9ff225b6d7667ee7d2a36e5e140634772b6da6041479cac", "addr": "135uQWV3vn5JNgQrWcLd6gWr9S2ybj2BB7"}], "hex": "01000000010000000000000000000000000000000000000000000000000000000000000000ffffffff0704ffff001d0119ffffffff0100f2052a0100000043410433b8523d01fa02c9ff12b73bb4e6dcb4dac725e0853d119cf13d791e202b4e30dcb6da12d3627d638ff9ff225b6d7667ee7d2a36e5e140634772b6da6041479cac00000000"}]}