{"hash": "00000000f1b3a6b39671e475b858bc6831db3ca57e8ecafa49a13c4d5b04fb53", "ver": 1, "prev_block": "00000000219949b3de1eae5447c00501812757885e65554fe5c51039ebe643d1", "mrkl_root": "12272d79ff1fbc1238d78d7d6e0e75c5f0e7aae7925e4f59b96b02fc2cd82bfc", "time": 1231650986, "bits": 486604799, "next_block": ["00000000a31b3785f0adc10975a4e3e356d133365c0aeab6e42240e17ac2e63c"], "fee": 0, "nonce": 3625999133, "n_tx": 1, "size": 215, "block_index": 86, "main_chain": true, "height": 86, "weight": 860, "tx": [{"hash": "12272d79ff1fbc1238d78d7d6e0e75c5f0e7aae7925e4f59b96b02fc2cd82bfc", "ver": 1, "vin_sz": 1, "vout_sz": 1, "size": 134, "weight": 536, "fee": 0, "relayed_by": "0.0.0.0", "lock_time": 0, "tx_index": 8872487699841101, "double_spend": false, "time": 1231650986, "block_index": 86, "block_height": 86, "inputs": [{"sequence": 4294967295, "witness": "", "script": "04ffff001d011a", "index": 0, "prev_out": null}], "out": [{"type": 0, "spent": false, "value": 5000000000, "spending_outpoints": [], "n": 0, "tx_index": 8872487699841101, "script": "4104d5897fd3690b923198285547881b89ea914fda24d5ea71db9742244a4b047b2d9a57d24c49067438491eef34585f2c6178bfb45c677afe7034e7b4ae5b603132ac", "addr": "15eCuQ4Kd25VDhtv9Pko6DL3tt1ACa3tR8"}], "hex": "01000000010000000000000000000000000000000000000000000000000000000000000000ffffffff0704ffff001d011affffffff0100f2052a01000000434104d5897fd3690b923198285547881b89ea914fda24d5ea71db9742244a4b047b2d9a57d24c49067438491eef34585f2c6178bfb45c677afe7034e7b4ae5b603132ac00000000"}]}