{"hash": "00000000a31b3785f0adc10975a4e3e356d133365c0aeab6e42240e17ac2e63c", "ver": 1, "prev_block": "00000000f1b3a6b39671e475b858bc6831db3ca57e8ecafa49a13c4d5b04fb53", "mrkl_root": "edb7b78f88263e5c47717ee0761131683e85cc31beeac9a98554917c30686440", "time": 1231651888, "bits": 486604799, "next_block": ["0000000011fd31ceefda804321c8e00d9870c15a5395f361f3b0c6908eb7d04b"], "fee": 0, "nonce": 1947169835, "n_tx": 1, "size": 215, "block_index": 87, "main_chain": true, "height": 87, "weight": 860, "tx": [{"hash": "edb7b78f88263e5c47717ee0761131683e85cc31beeac9a98554917c30686440", "ver": 1, "vin_sz": 1, "vout_sz": 1, "size": 134, "weight": 536, "fee": 0, "relayed_by": "0.0.0.0", "lock_time": 0, "tx_index": 2265599645291050, "double_spend": false, "time": 1231651888, "block_index": 87, "block_height": 87, "inputs": [{"sequence": 4294967295, "witness": "", "script": "04ffff001d0120", "index": 0, "prev_out": null}], "out": [{"type": 0, "spent": false, "value": 5000000000, "spending_outpoints": [], "n": 0, "tx_index": 2265599645291050, "script": "4104212f1e2bc4abbef7682da4e136de7f8cfb6e49cf21eccfed72046ec0ae5f034a282db6ba0391205055aee425ba21e033c94441227eb86cd9f13a93c330afd563ac", "addr": "12jiJuWynwFcqbNyoay5Sy9pmJn9dsFRgh"}], "hex": "01000000010000000000000000000000000000000000000000000000000000000000000000ffffffff0704ffff001d0120ffffffff0100f2052a01000000434104212f1e2bc4abbef7682da4e136de7f8cfb6e49cf21eccfed72046ec0ae5f034a282db6ba0391205055aee425ba21e033c94441227eb86cd9f13a93c330afd563ac00000000"}]}