{"hash": "0000000011fd31ceefda804321c8e00d9870c15a5395f361f3b0c6908eb7d04b", "ver": 1, "prev_block": "00000000a31b3785f0adc10975a4e3e356d133365c0aeab6e42240e17ac2e63c", "mrkl_root": "797556eb999f8fdfd8198dd9ea80723409a359ddcd75c4a54a511970745812f0", "time": 1231652408, "bits": 486604799, "next_block": ["0000000076d9ec583c757b8911406afe4d021aed0e5f30c16e65c82a71af32c2"], "fee": 0, "nonce": 4172594200, "n_tx": 1, "size": 215, "block_index": 88, "main_chain": true, "height": 88, "weight": 860, "tx": [{"hash": "797556eb999f8fdfd8198dd9ea80723409a359ddcd75c4a54a511970745812f0", "ver": 1, "vin_sz": 1, "vout_sz": 1, "size": 134, "weight": 536, "fee": 0, "relayed_by": "0.0.0.0", "lock_time": 0, "tx_index": 8446770691310378, "double_spend": false, "time": 1231652408, "block_index": 88, "block_height": 88, "inputs": [{"sequence": 4294967295, "witness": "", "script": "04ffff001d0121", "index": 0, "prev_out": null}], "out": [{"type": 0, "spent": false, "value": 5000000000, "spending_outpoints": [], "n": 0, "tx_index": 8446770691310378, "script": "4104db2bfc4aee47f0b45ae88bc76431940aa2547ef7ba34e4bf176f7cd37a3713e56a21ebece2a105df52bd6b4d213aaa8c7bb7c6556bff3e2a9d43e4658d5e3af2ac", "addr": "133xmQyVGHnyQwr2pYNiHUMeDUS3mYVsB7"}], "hex": "01000000010000000000000000000000000000000000000000000000000000000000000000ffffffff0704ffff001d0121ffffffff0100f2052a01000000434104db2bfc4aee47f0b45ae88bc76431940aa2547ef7ba34e4bf176f7cd37a3713e56a21ebece2a105df52bd6b4d213aaa8c7bb7c6556bff3e2a9d43e4658d5e3af2ac00000000"}]}