{"hash": "0000000076d9ec583c757b8911406afe4d021aed0e5f30c16e65c82a71af32c2", "ver": 1, "prev_block": "0000000011fd31ceefda804321c8e00d9870c15a5395f361f3b0c6908eb7d04b", "mrkl_root": "2306da842919574ed10ee9c211508b2bae2e8729b2fa5e83b4173831b89d2c28", "time": 1231653209, "bits": 486604799, "next_block": ["00000000f365aa200968bb9808c3566d7d2465b4b3c93aa8a3cb9079f32cbb2f"], "fee": 0, "nonce": 3635332629, "n_tx": 1, "size": 215, "block_index": 89, "main_chain": true, "height": 89, "weight": 860, "tx": [{"hash": "2306da842919574ed10ee9c211508b2bae2e8729b2fa5e83b4173831b89d2c28", "ver": 1, "vin_sz": 1, "vout_sz": 1, "size": 134, "weight": 536, "fee": 0, "relayed_by": "0.0.0.0", "lock_time": 0, "tx_index": 1413506872518402, "double_spend": false, "time": 1231653209, "block_index": 89, "block_height": 89, "inputs": [{"sequence": 4294967295, "witness": "", "script": "04ffff001d0122", "index": 0, "prev_out": null}], "out": [{"type": 0, "spent": false, "value": 5000000000, "spending_outpoints": [], "n": 0, "tx_index": 1413506872518402, "script": "410476a73b9d3afd848cbe8c99a0b1cca07ad5117d8ade5a314ce7739f0a189a0be77406d13cb6c92fe6d9b69c2fa338136938af9e930db3146fee39c5464a6707e3ac", "addr": "1KSHc1tmsUhS9f1TD6RHR8Kmwg9Zv8WhCt"}], "hex": "01000000010000000000000000000000000000000000000000000000000000000000000000ffffffff0704ffff001d0122ffffffff0100f2052a0100000043410476a73b9d3afd848cbe8c99a0b1cca07ad5117d8ade5a314ce7739f0a189a0be77406d13cb6c92fe6d9b69c2fa338136938af9e930db3146fee39c5464a6707e3ac00000000"}]}