{"hash": "00000000f365aa200968bb9808c3566d7d2465b4b3c93aa8a3cb9079f32cbb2f", "ver": 1, "prev_block": "0000000076d9ec583c757b8911406afe4d021aed0e5f30c16e65c82a71af32c2", "mrkl_root": "9f94cc5c9211258c39f048f4da42dd3048e4d1434c2eff2d28dbf3b3612775c6", "time": 1231653550, "bits": 486604799, "next_block": ["000000006e55c92b2a940de67b1314e150f0c72d0468c625f4f267fa30b8c1b1"], "fee": 0, "nonce": 2639785492, "n_tx": 1, "size": 215, "block_index": 90, "main_chain": true, "height": 90, "weight": 860, "tx": [{"hash": "9f94cc5c9211258c39f048f4da42dd3048e4d1434c2eff2d28dbf3b3612775c6", "ver": 1, "vin_sz": 1, "vout_sz": 1, "size": 134, "weight": 536, "fee": 0, "relayed_by": "0.0.0.0", "lock_time": 0, "tx_index": 6982607174008443, "double_spend": false, "time": 1231653550, "block_index": 90, "block_height": 90, "inputs": [{"sequence": 4294967295, "witness": "", "script": "04ffff001d0123", "index": 0, "prev_out": null}], "out": [{"type": 0, "spent": false, "value": 5000000000, "spending_outpoints": [], "n": 0, "tx_index": 6982607174008443, "script": "4104580bf58d578798b7ac68e19e933ffe544045b43b05ec4b2a40b5da5371664bd88bd008ce766a37607ea34b29b18e2a6a0bd1c47d025eeddf6afd88a193cacdacac", "addr": "1KMYVBvfMAUZH4gpRknxvKxbqATMAfuu4x"}], "hex": "01000000010000000000000000000000000000000000000000000000000000000000000000ffffffff0704ffff001d0123ffffffff0100f2052a01000000434104580bf58d578798b7ac68e19e933ffe544045b43b05ec4b2a40b5da5371664bd88bd008ce766a37607ea34b29b18e2a6a0bd1c47d025eeddf6afd88a193cacdacac00000000"}]}