{"hash": "000000006e55c92b2a940de67b1314e150f0c72d0468c625f4f267fa30b8c1b1", "ver": 1, "prev_block": "00000000f365aa200968bb9808c3566d7d2465b4b3c93aa8a3cb9079f32cbb2f", "mrkl_root": "c184c93d7494f4096e9e9cb420f7d74c79c4ffd2806d68ff03bb7633bbf21d67", "time": 1231654229, "bits": 486604799, "next_block": ["0000000009d40c0a46d368c2780dfcb0375b0fee9f0d8ad87b325ec8e451e1d2"], "fee": 0, "nonce": 2047308033, "n_tx": 1, "size": 215, "block_index": 91, "main_chain": true, "height": 91, "weight": 860, "tx": [{"hash": "c184c93d7494f4096e9e9cb420f7d74c79c4ffd2806d68ff03bb7633bbf21d67", "ver": 1, "vin_sz": 1, "vout_sz": 1, "size": 134, "weight": 536, "fee": 0, "relayed_by": "0.0.0.0", "lock_time": 0, "tx_index": 3628106370150103, "double_spend": false, "time": 1231654229, "block_index": 91, "block_height": 91, "inputs": [{"sequence": 4294967295, "witness": "", "script": "04ffff001d012a", "index": 0, "prev_out": null}], "out": [{"type": 0, "spent": false, "value": 5000000000, "spending_outpoints": [], "n": 0, "tx_index": 3628106370150103, "script": "4104a48c81c934bd903ab347c7fb03d624c75305cf1e78e66c09f334e1617b52484ea130bceaae53ffd13804b5d188d4f590a469d1e878ad151e1f4fa6e07aeac505ac", "addr": "1BnhHuk62o9tPuG5JerexTX3MhnR8sobLm"}], "hex": "01000000010000000000000000000000000000000000000000000000000000000000000000ffffffff0704ffff001d012affffffff0100f2052a01000000434104a48c81c934bd903ab347c7fb03d624c75305cf1e78e66c09f334e1617b52484ea130bceaae53ffd13804b5d188d4f590a469d1e878ad151e1f4fa6e07aeac505ac00000000"}]}