{"hash": "0000000009d40c0a46d368c2780dfcb0375b0fee9f0d8ad87b325ec8e451e1d2", "ver": 1, "prev_block": "000000006e55c92b2a940de67b1314e150f0c72d0468c625f4f267fa30b8c1b1", "mrkl_root": "81b896b98663fb6238c9643545eba3a1b32933f96e1a33d122efed5ab7165f2d", "time": 1231654561, "bits": 486604799, "next_block": ["0000000069babcb34cc43c80e1c43d423a70821c740193a8265d3edc204ce4f0"], "fee": 0, "nonce": 3542398981, "n_tx": 1, "size": 215, "block_index": 92, "main_chain": true, "height": 92, "weight": 860, "tx": [{"hash": "81b896b98663fb6238c9643545eba3a1b32933f96e1a33d122efed5ab7165f2d", "ver": 1, "vin_sz": 1, "vout_sz": 1, "size": 134, "weight": 536, "fee": 0, "relayed_by": "0.0.0.0", "lock_time": 0, "tx_index": 1596365640261053, "double_spend": false, "time": 1231654561, "block_index": 92, "block_height": 92, "inputs": [{"sequence": 4294967295, "witness": "", "script": "04ffff001d012f", "index": 0, "prev_out": null}], "out": [{"type": 0, "spent": false, "value": 5000000000, "spending_outpoints": [], "n": 0, "tx_index": 1596365640261053, "script": "4104ad6f8b8c71859ab32eb863c88f33a9c6d621639cb1b6094ee61c7a8bdfa2fd7070c620d8f0f99e98b090ce932a7ea8d7595eadd0d80ce966c52bece59b96c88fac", "addr": "1DRzyGtGkXYnFz9n9qxnTFbGpYBv4FNmYM"}], "hex": "01000000010000000000000000000000000000000000000000000000000000000000000000ffffffff0704ffff001d012fffffffff0100f2052a01000000434104ad6f8b8c71859ab32eb863c88f33a9c6d621639cb1b6094ee61c7a8bdfa2fd7070c620d8f0f99e98b090ce932a7ea8d7595eadd0d80ce966c52bece59b96c88fac00000000"}]}