{"hash": "0000000069babcb34cc43c80e1c43d423a70821c740193a8265d3edc204ce4f0", "ver": 1, "prev_block": "0000000009d40c0a46d368c2780dfcb0375b0fee9f0d8ad87b325ec8e451e1d2", "mrkl_root": "71cbe112176d6dc40490dde588798bd75de80133438016a0c05754d74ee1925a", "time": 1231655037, "bits": 486604799, "next_block": ["000000001fa8db1f15a9abd900cce0df7823a8397f2728b1d275e8fe0c0d2df0"], "fee": 0, "nonce": 1695961607, "n_tx": 1, "size": 215, "block_index": 93, "main_chain": true, "height": 93, "weight": 860, "tx": [{"hash": "71cbe112176d6dc40490dde588798bd75de80133438016a0c05754d74ee1925a", "ver": 1, "vin_sz": 1, "vout_sz": 1, "size": 134, "weight": 536, "fee": 0, "relayed_by": "0.0.0.0", "lock_time": 0, "tx_index": 3186780536498826, "double_spend": false, "time": 1231655037, "block_index": 93, "block_height": 93, "inputs": [{"sequence": 4294967295, "witness": "", "script": "04ffff001d0130", "index": 0, "prev_out": null}], "out": [{"type": 0, "spent": false, "value": 5000000000, "spending_outpoints": [], "n": 0, "tx_index": 3186780536498826, "script": "4104cd2f49d4c04cb91fed784dc604f8021ed3ff52a56ffefbff5e6f843079cf34a37d47a5c0c86a98e3a52f2ac8eaef2baa5975620b6bf097ca9d4db5abdec58715ac", "addr": "1LNV5xnjneJwXc6jN8X2co586gjiSz6asS"}], "hex": "01000000010000000000000000000000000000000000000000000000000000000000000000ffffffff0704ffff001d0130ffffffff0100f2052a01000000434104cd2f49d4c04cb91fed784dc604f8021ed3ff52a56ffefbff5e6f843079cf34a37d47a5c0c86a98e3a52f2ac8eaef2baa5975620b6bf097ca9d4db5abdec58715ac00000000"}]}