{"hash": "000000001fa8db1f15a9abd900cce0df7823a8397f2728b1d275e8fe0c0d2df0", "ver": 1, "prev_block": "0000000069babcb34cc43c80e1c43d423a70821c740193a8265d3edc204ce4f0", "mrkl_root": "3226a75aaf23565ab1f4b4d3cf7f945e188b1ef35d14bba50bd3ee05df985490", "time": 1231655581, "bits": 486604799, "next_block": ["0000000021a406d58deeb398942e3c6cf956295fc11b192935c453c7d80be1ca"], "fee": 0, "nonce": 1923907113, "n_tx": 1, "size": 215, "block_index": 94, "main_chain": true, "height": 94, "weight": 860, "tx": [{"hash": "3226a75aaf23565ab1f4b4d3cf7f945e188b1ef35d14bba50bd3ee05df985490", "ver": 1, "vin_sz": 1, "vout_sz": 1, "size": 134, "weight": 536, "fee": 0, "relayed_by": "0.0.0.0", "lock_time": 0, "tx_index": 5078176524975578, "double_spend": false, "time": 1231655581, "block_index": 94, "block_height": 94, "inputs": [{"sequence": 4294967295, "witness": "", "script": "04ffff001d0132", "index": 0, "prev_out": null}], "out": [{"type": 0, "spent": false, "value": 5000000000, "spending_outpoints": [], "n": 0, "tx_index": 5078176524975578, "script": "4104c50039dc8f8f4878f3d56d88befef5d7a1a1baebac823518dbbd06d36accfa7f28486ea8f6af26a18b3ab415273e1000ea213c53a82f78767347f1a72e69fd66ac", "addr": "1PHG1AoZJ5yyg6MV2fkqYCuDDik2NTfzfm"}], "hex": "01000000010000000000000000000000000000000000000000000000000000000000000000ffffffff0704ffff001d0132ffffffff0100f2052a01000000434104c50039dc8f8f4878f3d56d88befef5d7a1a1baebac823518dbbd06d36accfa7f28486ea8f6af26a18b3ab415273e1000ea213c53a82f78767347f1a72e69fd66ac00000000"}]}