{"hash": "00000000c21b38cebff4901eb0b6f4265b0adea665d8b63b5e3949e0bb923f06", "ver": 1, "prev_block": "0000000021a406d58deeb398942e3c6cf956295fc11b192935c453c7d80be1ca", "mrkl_root": "5f716bfbb5be57a4f2283509938898cffe7971af12adb152a058ac02405c85d8", "time": 1231657185, "bits": 486604799, "next_block": ["000000000ecab80b1bee41b0bff9514502d7d8c62bb842655da7b30008c891cc"], "fee": 0, "nonce": 2019973671, "n_tx": 1, "size": 215, "block_index": 96, "main_chain": true, "height": 96, "weight": 860, "tx": [{"hash": "5f716bfbb5be57a4f2283509938898cffe7971af12adb152a058ac02405c85d8", "ver": 1, "vin_sz": 1, "vout_sz": 1, "size": 134, "weight": 536, "fee": 0, "relayed_by": "0.0.0.0", "lock_time": 0, "tx_index": 7618153278363019, "double_spend": false, "time": 1231657185, "block_index": 96, "block_height": 96, "inputs": [{"sequence": 4294967295, "witness": "", "script": "04ffff001d013a", "index": 0, "prev_out": null}], "out": [{"type": 0, "spent": false, "value": 5000000000, "spending_outpoints": [], "n": 0, "tx_index": 7618153278363019, "script": "410466997c6a5c2d1a61b07dccc317f31f1846c4054b9b8d3623a325358cd120ac6b60cbd6b1fe70102d293732401b7ad20d125de6371905fde9f2c7fbcb4c049125ac", "addr": "12XPHPCGYz1WgRhquiAfVeAyjZ7Gbdpih3"}], "hex": "01000000010000000000000000000000000000000000000000000000000000000000000000ffffffff0704ffff001d013affffffff0100f2052a0100000043410466997c6a5c2d1a61b07dccc317f31f1846c4054b9b8d3623a325358cd120ac6b60cbd6b1fe70102d293732401b7ad20d125de6371905fde9f2c7fbcb4c049125ac00000000"}]}