{"hash": "000000000ecab80b1bee41b0bff9514502d7d8c62bb842655da7b30008c891cc", "ver": 1, "prev_block": "00000000c21b38cebff4901eb0b6f4265b0adea665d8b63b5e3949e0bb923f06", "mrkl_root": "cc4d0dd009ccf08805d9dca9232a47c60681375312a520f3609045649c2a1690", "time": 1231658068, "bits": 486604799, "next_block": ["00000000a8ed5e960dccdf309f2ee2132badcc9247755c32a4b7081422d51899"], "fee": 0, "nonce": 1751592481, "n_tx": 1, "size": 215, "block_index": 97, "main_chain": true, "height": 97, "weight": 860, "tx": [{"hash": "cc4d0dd009ccf08805d9dca9232a47c60681375312a520f3609045649c2a1690", "ver": 1, "vin_sz": 1, "vout_sz": 1, "size": 134, "weight": 536, "fee": 0, "relayed_by": "0.0.0.0", "lock_time": 0, "tx_index": 5069596114323634, "double_spend": false, "time": 1231658068, "block_index": 97, "block_height": 97, "inputs": [{"sequence": 4294967295, "witness": "", "script": "04ffff001d013e", "index": 0, "prev_out": null}], "out": [{"type": 0, "spent": false, "value": 5000000000, "spending_outpoints": [], "n": 0, "tx_index": 5069596114323634, "script": "410418b81a849bb96e40b9317cb8daf633cc8994a42b2e7a5d59fe61a4c106fadc1bcf20894b144498742007fbde4736affc2eab2fc26697aa285468e3e62138b1b2ac", "addr": "1Bq1TLyuvZLvu73eueduUMhBL2QfYDeoNt"}], "hex": "01000000010000000000000000000000000000000000000000000000000000000000000000ffffffff0704ffff001d013effffffff0100f2052a0100000043410418b81a849bb96e40b9317cb8daf633cc8994a42b2e7a5d59fe61a4c106fadc1bcf20894b144498742007fbde4736affc2eab2fc26697aa285468e3e62138b1b2ac00000000"}]}