{"hash": "00000000cd9b12643e6854cb25939b39cd7a1ad0af31a9bd8b2efe67854b1995", "ver": 1, "prev_block": "00000000a8ed5e960dccdf309f2ee2132badcc9247755c32a4b7081422d51899", "mrkl_root": "33a4592d4d8dc04304361ad7bcd96fe23fa801db6d7d917074f75c732079a569", "time": 1231660146, "bits": 486604799, "next_block": ["000000007bc154e0fa7ea32218a72fe2c1bb9f86cf8c9ebf9a715ed27fdb229a"], "fee": 0, "nonce": 2500462385, "n_tx": 1, "size": 215, "block_index": 99, "main_chain": true, "height": 99, "weight": 860, "tx": [{"hash": "33a4592d4d8dc04304361ad7bcd96fe23fa801db6d7d917074f75c732079a569", "ver": 1, "vin_sz": 1, "vout_sz": 1, "size": 134, "weight": 536, "fee": 0, "relayed_by": "0.0.0.0", "lock_time": 0, "tx_index": 3717101526084510, "double_spend": false, "time": 1231660146, "block_index": 99, "block_height": 99, "inputs": [{"sequence": 4294967295, "witness": "", "script": "04ffff001d0145", "index": 0, "prev_out": null}], "out": [{"type": 0, "spent": false, "value": 5000000000, "spending_outpoints": [], "n": 0, "tx_index": 3717101526084510, "script": "4104c6b866deb67d6f20d7030817e1afa3c57ab94ffa1b3b39d365fa047aa518868697376dec5a78d497965af57cd27af63362c2df85e7823a0144e06a37851e072eac", "addr": "16cAVR3SQbNzu8KZtGdo8cG1iueWpcngxz"}], "hex": "01000000010000000000000000000000000000000000000000000000000000000000000000ffffffff0704ffff001d0145ffffffff0100f2052a01000000434104c6b866deb67d6f20d7030817e1afa3c57ab94ffa1b3b39d365fa047aa518868697376dec5a78d497965af57cd27af63362c2df85e7823a0144e06a37851e072eac00000000"}]}